{
	"HMS.sol": {
		"newHMS": {
			"abi": [
				{
					"inputs": [
						{
							"internalType": "string",
							"name": "patientname",
							"type": "string"
						},
						{
							"internalType": "uint256",
							"name": "_age",
							"type": "uint256"
						},
						{
							"internalType": "string",
							"name": "_disease",
							"type": "string"
						}
					],
					"stateMutability": "nonpayable",
					"type": "constructor"
				},
				{
					"inputs": [
						{
							"internalType": "uint256",
							"name": "",
							"type": "uint256"
						}
					],
					"name": "Patient",
					"outputs": [
						{
							"internalType": "contract HMS",
							"name": "",
							"type": "address"
						}
					],
					"stateMutability": "view",
					"type": "function"
				},
				{
					"inputs": [
						{
							"internalType": "uint256",
							"name": "index",
							"type": "uint256"
						}
					],
					"name": "retrive",
					"outputs": [
						{
							"internalType": "contract HMS",
							"name": "",
							"type": "address"
						}
					],
					"stateMutability": "view",
					"type": "function"
				}
			],
			"devdoc": {
				"kind": "dev",
				"methods": {},
				"version": 1
			},
			"evm": {
				"assembly": "    /* \"HMS.sol\":319:653  contract newHMS{... */\n  mstore(0x40, 0x80)\n    /* \"HMS.sol\":368:542  constructor(string memory patientname, uint _age, string memory _disease){... */\n  callvalue\n  dup1\n  iszero\n  tag_1\n  jumpi\n  0x00\n  dup1\n  revert\ntag_1:\n  pop\n  mload(0x40)\n  sub(codesize, bytecodeSize)\n  dup1\n  bytecodeSize\n  dup4\n  codecopy\n  dup2\n  dup2\n  add\n  0x40\n  mstore\n  dup2\n  add\n  swap1\n  tag_2\n  swap2\n  swap1\n  tag_3\n  jump\t// in\ntag_2:\n    /* \"HMS.sol\":452:463  HMS patient */\n  0x00\n    /* \"HMS.sol\":474:485  patientname */\n  dup4\n    /* \"HMS.sol\":487:491  _age */\n  dup4\n    /* \"HMS.sol\":493:501  _disease */\n  dup4\n    /* \"HMS.sol\":466:502  new HMS(patientname, _age, _disease) */\n  mload(0x40)\n  tag_6\n  swap1\n  tag_7\n  jump\t// in\ntag_6:\n  tag_8\n  swap4\n  swap3\n  swap2\n  swap1\n  tag_9\n  jump\t// in\ntag_8:\n  mload(0x40)\n  dup1\n  swap2\n  sub\n  swap1\n  0x00\n  create\n  dup1\n  iszero\n  dup1\n  iszero\n  tag_10\n  jumpi\n  returndatasize\n  0x00\n  dup1\n  returndatacopy\n  revert(0x00, returndatasize)\ntag_10:\n  pop\n    /* \"HMS.sol\":452:502  HMS patient = new HMS(patientname, _age, _disease) */\n  swap1\n  pop\n    /* \"HMS.sol\":513:520  Patient */\n  0x00\n    /* \"HMS.sol\":526:533  patient */\n  dup2\n    /* \"HMS.sol\":513:534  Patient.push(patient) */\n  swap1\n  dup1\n  0x01\n  dup2\n  sload\n  add\n  dup1\n  dup3\n  sstore\n  dup1\n  swap2\n  pop\n  pop\n  0x01\n  swap1\n  sub\n  swap1\n  0x00\n  mstore\n  keccak256(0x00, 0x20)\n  add\n  0x00\n  swap1\n  swap2\n  swap1\n  swap2\n  swap1\n  swap2\n  0x0100\n  exp\n  dup2\n  sload\n  dup2\n  0xffffffffffffffffffffffffffffffffffffffff\n  mul\n  not\n  and\n  swap1\n  dup4\n  0xffffffffffffffffffffffffffffffffffffffff\n  and\n  mul\n  or\n  swap1\n  sstore\n  pop\n    /* \"HMS.sol\":441:542  {... */\n  pop\n    /* \"HMS.sol\":368:542  constructor(string memory patientname, uint _age, string memory _disease){... */\n  pop\n  pop\n  pop\n    /* \"HMS.sol\":319:653  contract newHMS{... */\n  jump(tag_12)\ntag_7:\n  dataSize(sub_1)\n  dup1\n  dataOffset(sub_1)\n  dup4\n  codecopy\n  add\n  swap1\n  jump\t// out\n    /* \"#utility.yul\":7:82   */\ntag_13:\n    /* \"#utility.yul\":40:46   */\n  0x00\n    /* \"#utility.yul\":73:75   */\n  0x40\n    /* \"#utility.yul\":67:76   */\n  mload\n    /* \"#utility.yul\":57:76   */\n  swap1\n  pop\n    /* \"#utility.yul\":7:82   */\n  swap1\n  jump\t// out\n    /* \"#utility.yul\":88:205   */\ntag_14:\n    /* \"#utility.yul\":197:198   */\n  0x00\n    /* \"#utility.yul\":194:195   */\n  dup1\n    /* \"#utility.yul\":187:199   */\n  revert\n    /* \"#utility.yul\":211:328   */\ntag_15:\n    /* \"#utility.yul\":320:321   */\n  0x00\n    /* \"#utility.yul\":317:318   */\n  dup1\n    /* \"#utility.yul\":310:322   */\n  revert\n    /* \"#utility.yul\":334:451   */\ntag_16:\n    /* \"#utility.yul\":443:444   */\n  0x00\n    /* \"#utility.yul\":440:441   */\n  dup1\n    /* \"#utility.yul\":433:445   */\n  revert\n    /* \"#utility.yul\":457:574   */\ntag_17:\n    /* \"#utility.yul\":566:567   */\n  0x00\n    /* \"#utility.yul\":563:564   */\n  dup1\n    /* \"#utility.yul\":556:568   */\n  revert\n    /* \"#utility.yul\":580:682   */\ntag_18:\n    /* \"#utility.yul\":621:627   */\n  0x00\n    /* \"#utility.yul\":672:674   */\n  0x1f\n    /* \"#utility.yul\":668:675   */\n  not\n    /* \"#utility.yul\":663:665   */\n  0x1f\n    /* \"#utility.yul\":656:661   */\n  dup4\n    /* \"#utility.yul\":652:666   */\n  add\n    /* \"#utility.yul\":648:676   */\n  and\n    /* \"#utility.yul\":638:676   */\n  swap1\n  pop\n    /* \"#utility.yul\":580:682   */\n  swap2\n  swap1\n  pop\n  jump\t// out\n    /* \"#utility.yul\":688:868   */\ntag_19:\n    /* \"#utility.yul\":736:813   */\n  0x4e487b7100000000000000000000000000000000000000000000000000000000\n    /* \"#utility.yul\":733:734   */\n  0x00\n    /* \"#utility.yul\":726:814   */\n  mstore\n    /* \"#utility.yul\":833:837   */\n  0x41\n    /* \"#utility.yul\":830:831   */\n  0x04\n    /* \"#utility.yul\":823:838   */\n  mstore\n    /* \"#utility.yul\":857:861   */\n  0x24\n    /* \"#utility.yul\":854:855   */\n  0x00\n    /* \"#utility.yul\":847:862   */\n  revert\n    /* \"#utility.yul\":874:1155   */\ntag_20:\n    /* \"#utility.yul\":957:984   */\n  tag_42\n    /* \"#utility.yul\":979:983   */\n  dup3\n    /* \"#utility.yul\":957:984   */\n  tag_18\n  jump\t// in\ntag_42:\n    /* \"#utility.yul\":949:955   */\n  dup2\n    /* \"#utility.yul\":945:985   */\n  add\n    /* \"#utility.yul\":1087:1093   */\n  dup2\n    /* \"#utility.yul\":1075:1085   */\n  dup2\n    /* \"#utility.yul\":1072:1094   */\n  lt\n    /* \"#utility.yul\":1051:1069   */\n  0xffffffffffffffff\n    /* \"#utility.yul\":1039:1049   */\n  dup3\n    /* \"#utility.yul\":1036:1070   */\n  gt\n    /* \"#utility.yul\":1033:1095   */\n  or\n    /* \"#utility.yul\":1030:1118   */\n  iszero\n  tag_43\n  jumpi\n    /* \"#utility.yul\":1098:1116   */\n  tag_44\n  tag_19\n  jump\t// in\ntag_44:\n    /* \"#utility.yul\":1030:1118   */\ntag_43:\n    /* \"#utility.yul\":1138:1148   */\n  dup1\n    /* \"#utility.yul\":1134:1136   */\n  0x40\n    /* \"#utility.yul\":1127:1149   */\n  mstore\n    /* \"#utility.yul\":917:1155   */\n  pop\n    /* \"#utility.yul\":874:1155   */\n  pop\n  pop\n  jump\t// out\n    /* \"#utility.yul\":1161:1290   */\ntag_21:\n    /* \"#utility.yul\":1195:1201   */\n  0x00\n    /* \"#utility.yul\":1222:1242   */\n  tag_46\n  tag_13\n  jump\t// in\ntag_46:\n    /* \"#utility.yul\":1212:1242   */\n  swap1\n  pop\n    /* \"#utility.yul\":1251:1284   */\n  tag_47\n    /* \"#utility.yul\":1279:1283   */\n  dup3\n    /* \"#utility.yul\":1271:1277   */\n  dup3\n    /* \"#utility.yul\":1251:1284   */\n  tag_20\n  jump\t// in\ntag_47:\n    /* \"#utility.yul\":1161:1290   */\n  swap2\n  swap1\n  pop\n  jump\t// out\n    /* \"#utility.yul\":1296:1604   */\ntag_22:\n    /* \"#utility.yul\":1358:1362   */\n  0x00\n    /* \"#utility.yul\":1448:1466   */\n  0xffffffffffffffff\n    /* \"#utility.yul\":1440:1446   */\n  dup3\n    /* \"#utility.yul\":1437:1467   */\n  gt\n    /* \"#utility.yul\":1434:1490   */\n  iszero\n  tag_49\n  jumpi\n    /* \"#utility.yul\":1470:1488   */\n  tag_50\n  tag_19\n  jump\t// in\ntag_50:\n    /* \"#utility.yul\":1434:1490   */\ntag_49:\n    /* \"#utility.yul\":1508:1537   */\n  tag_51\n    /* \"#utility.yul\":1530:1536   */\n  dup3\n    /* \"#utility.yul\":1508:1537   */\n  tag_18\n  jump\t// in\ntag_51:\n    /* \"#utility.yul\":1500:1537   */\n  swap1\n  pop\n    /* \"#utility.yul\":1592:1596   */\n  0x20\n    /* \"#utility.yul\":1586:1590   */\n  dup2\n    /* \"#utility.yul\":1582:1597   */\n  add\n    /* \"#utility.yul\":1574:1597   */\n  swap1\n  pop\n    /* \"#utility.yul\":1296:1604   */\n  swap2\n  swap1\n  pop\n  jump\t// out\n    /* \"#utility.yul\":1610:1856   */\ntag_23:\n    /* \"#utility.yul\":1691:1692   */\n  0x00\n    /* \"#utility.yul\":1701:1814   */\ntag_53:\n    /* \"#utility.yul\":1715:1721   */\n  dup4\n    /* \"#utility.yul\":1712:1713   */\n  dup2\n    /* \"#utility.yul\":1709:1722   */\n  lt\n    /* \"#utility.yul\":1701:1814   */\n  iszero\n  tag_55\n  jumpi\n    /* \"#utility.yul\":1800:1801   */\n  dup1\n    /* \"#utility.yul\":1795:1798   */\n  dup3\n    /* \"#utility.yul\":1791:1802   */\n  add\n    /* \"#utility.yul\":1785:1803   */\n  mload\n    /* \"#utility.yul\":1781:1782   */\n  dup2\n    /* \"#utility.yul\":1776:1779   */\n  dup5\n    /* \"#utility.yul\":1772:1783   */\n  add\n    /* \"#utility.yul\":1765:1804   */\n  mstore\n    /* \"#utility.yul\":1737:1739   */\n  0x20\n    /* \"#utility.yul\":1734:1735   */\n  dup2\n    /* \"#utility.yul\":1730:1740   */\n  add\n    /* \"#utility.yul\":1725:1740   */\n  swap1\n  pop\n    /* \"#utility.yul\":1701:1814   */\n  jump(tag_53)\ntag_55:\n    /* \"#utility.yul\":1848:1849   */\n  0x00\n    /* \"#utility.yul\":1839:1845   */\n  dup5\n    /* \"#utility.yul\":1834:1837   */\n  dup5\n    /* \"#utility.yul\":1830:1846   */\n  add\n    /* \"#utility.yul\":1823:1850   */\n  mstore\n    /* \"#utility.yul\":1672:1856   */\n  pop\n    /* \"#utility.yul\":1610:1856   */\n  pop\n  pop\n  pop\n  jump\t// out\n    /* \"#utility.yul\":1862:2296   */\ntag_24:\n    /* \"#utility.yul\":1951:1956   */\n  0x00\n    /* \"#utility.yul\":1976:2042   */\n  tag_57\n    /* \"#utility.yul\":1992:2041   */\n  tag_58\n    /* \"#utility.yul\":2034:2040   */\n  dup5\n    /* \"#utility.yul\":1992:2041   */\n  tag_22\n  jump\t// in\ntag_58:\n    /* \"#utility.yul\":1976:2042   */\n  tag_21\n  jump\t// in\ntag_57:\n    /* \"#utility.yul\":1967:2042   */\n  swap1\n  pop\n    /* \"#utility.yul\":2065:2071   */\n  dup3\n    /* \"#utility.yul\":2058:2063   */\n  dup2\n    /* \"#utility.yul\":2051:2072   */\n  mstore\n    /* \"#utility.yul\":2103:2107   */\n  0x20\n    /* \"#utility.yul\":2096:2101   */\n  dup2\n    /* \"#utility.yul\":2092:2108   */\n  add\n    /* \"#utility.yul\":2141:2144   */\n  dup5\n    /* \"#utility.yul\":2132:2138   */\n  dup5\n    /* \"#utility.yul\":2127:2130   */\n  dup5\n    /* \"#utility.yul\":2123:2139   */\n  add\n    /* \"#utility.yul\":2120:2145   */\n  gt\n    /* \"#utility.yul\":2117:2229   */\n  iszero\n  tag_59\n  jumpi\n    /* \"#utility.yul\":2148:2227   */\n  tag_60\n  tag_17\n  jump\t// in\ntag_60:\n    /* \"#utility.yul\":2117:2229   */\ntag_59:\n    /* \"#utility.yul\":2238:2290   */\n  tag_61\n    /* \"#utility.yul\":2283:2289   */\n  dup5\n    /* \"#utility.yul\":2278:2281   */\n  dup3\n    /* \"#utility.yul\":2273:2276   */\n  dup6\n    /* \"#utility.yul\":2238:2290   */\n  tag_23\n  jump\t// in\ntag_61:\n    /* \"#utility.yul\":1957:2296   */\n  pop\n    /* \"#utility.yul\":1862:2296   */\n  swap4\n  swap3\n  pop\n  pop\n  pop\n  jump\t// out\n    /* \"#utility.yul\":2316:2671   */\ntag_25:\n    /* \"#utility.yul\":2383:2388   */\n  0x00\n    /* \"#utility.yul\":2432:2435   */\n  dup3\n    /* \"#utility.yul\":2425:2429   */\n  0x1f\n    /* \"#utility.yul\":2417:2423   */\n  dup4\n    /* \"#utility.yul\":2413:2430   */\n  add\n    /* \"#utility.yul\":2409:2436   */\n  slt\n    /* \"#utility.yul\":2399:2521   */\n  tag_63\n  jumpi\n    /* \"#utility.yul\":2440:2519   */\n  tag_64\n  tag_16\n  jump\t// in\ntag_64:\n    /* \"#utility.yul\":2399:2521   */\ntag_63:\n    /* \"#utility.yul\":2550:2556   */\n  dup2\n    /* \"#utility.yul\":2544:2557   */\n  mload\n    /* \"#utility.yul\":2575:2665   */\n  tag_65\n    /* \"#utility.yul\":2661:2664   */\n  dup5\n    /* \"#utility.yul\":2653:2659   */\n  dup3\n    /* \"#utility.yul\":2646:2650   */\n  0x20\n    /* \"#utility.yul\":2638:2644   */\n  dup7\n    /* \"#utility.yul\":2634:2651   */\n  add\n    /* \"#utility.yul\":2575:2665   */\n  tag_24\n  jump\t// in\ntag_65:\n    /* \"#utility.yul\":2566:2665   */\n  swap2\n  pop\n    /* \"#utility.yul\":2389:2671   */\n  pop\n    /* \"#utility.yul\":2316:2671   */\n  swap3\n  swap2\n  pop\n  pop\n  jump\t// out\n    /* \"#utility.yul\":2677:2754   */\ntag_26:\n    /* \"#utility.yul\":2714:2721   */\n  0x00\n    /* \"#utility.yul\":2743:2748   */\n  dup2\n    /* \"#utility.yul\":2732:2748   */\n  swap1\n  pop\n    /* \"#utility.yul\":2677:2754   */\n  swap2\n  swap1\n  pop\n  jump\t// out\n    /* \"#utility.yul\":2760:2882   */\ntag_27:\n    /* \"#utility.yul\":2833:2857   */\n  tag_68\n    /* \"#utility.yul\":2851:2856   */\n  dup2\n    /* \"#utility.yul\":2833:2857   */\n  tag_26\n  jump\t// in\ntag_68:\n    /* \"#utility.yul\":2826:2831   */\n  dup2\n    /* \"#utility.yul\":2823:2858   */\n  eq\n    /* \"#utility.yul\":2813:2876   */\n  tag_69\n  jumpi\n    /* \"#utility.yul\":2872:2873   */\n  0x00\n    /* \"#utility.yul\":2869:2870   */\n  dup1\n    /* \"#utility.yul\":2862:2874   */\n  revert\n    /* \"#utility.yul\":2813:2876   */\ntag_69:\n    /* \"#utility.yul\":2760:2882   */\n  pop\n  jump\t// out\n    /* \"#utility.yul\":2888:3031   */\ntag_28:\n    /* \"#utility.yul\":2945:2950   */\n  0x00\n    /* \"#utility.yul\":2976:2982   */\n  dup2\n    /* \"#utility.yul\":2970:2983   */\n  mload\n    /* \"#utility.yul\":2961:2983   */\n  swap1\n  pop\n    /* \"#utility.yul\":2992:3025   */\n  tag_71\n    /* \"#utility.yul\":3019:3024   */\n  dup2\n    /* \"#utility.yul\":2992:3025   */\n  tag_27\n  jump\t// in\ntag_71:\n    /* \"#utility.yul\":2888:3031   */\n  swap3\n  swap2\n  pop\n  pop\n  jump\t// out\n    /* \"#utility.yul\":3037:4046   */\ntag_3:\n    /* \"#utility.yul\":3145:3151   */\n  0x00\n    /* \"#utility.yul\":3153:3159   */\n  dup1\n    /* \"#utility.yul\":3161:3167   */\n  0x00\n    /* \"#utility.yul\":3210:3212   */\n  0x60\n    /* \"#utility.yul\":3198:3207   */\n  dup5\n    /* \"#utility.yul\":3189:3196   */\n  dup7\n    /* \"#utility.yul\":3185:3208   */\n  sub\n    /* \"#utility.yul\":3181:3213   */\n  slt\n    /* \"#utility.yul\":3178:3297   */\n  iszero\n  tag_73\n  jumpi\n    /* \"#utility.yul\":3216:3295   */\n  tag_74\n  tag_14\n  jump\t// in\ntag_74:\n    /* \"#utility.yul\":3178:3297   */\ntag_73:\n    /* \"#utility.yul\":3357:3358   */\n  0x00\n    /* \"#utility.yul\":3346:3355   */\n  dup5\n    /* \"#utility.yul\":3342:3359   */\n  add\n    /* \"#utility.yul\":3336:3360   */\n  mload\n    /* \"#utility.yul\":3387:3405   */\n  0xffffffffffffffff\n    /* \"#utility.yul\":3379:3385   */\n  dup2\n    /* \"#utility.yul\":3376:3406   */\n  gt\n    /* \"#utility.yul\":3373:3490   */\n  iszero\n  tag_75\n  jumpi\n    /* \"#utility.yul\":3409:3488   */\n  tag_76\n  tag_15\n  jump\t// in\ntag_76:\n    /* \"#utility.yul\":3373:3490   */\ntag_75:\n    /* \"#utility.yul\":3514:3588   */\n  tag_77\n    /* \"#utility.yul\":3580:3587   */\n  dup7\n    /* \"#utility.yul\":3571:3577   */\n  dup3\n    /* \"#utility.yul\":3560:3569   */\n  dup8\n    /* \"#utility.yul\":3556:3578   */\n  add\n    /* \"#utility.yul\":3514:3588   */\n  tag_25\n  jump\t// in\ntag_77:\n    /* \"#utility.yul\":3504:3588   */\n  swap4\n  pop\n    /* \"#utility.yul\":3307:3598   */\n  pop\n    /* \"#utility.yul\":3637:3639   */\n  0x20\n    /* \"#utility.yul\":3663:3727   */\n  tag_78\n    /* \"#utility.yul\":3719:3726   */\n  dup7\n    /* \"#utility.yul\":3710:3716   */\n  dup3\n    /* \"#utility.yul\":3699:3708   */\n  dup8\n    /* \"#utility.yul\":3695:3717   */\n  add\n    /* \"#utility.yul\":3663:3727   */\n  tag_28\n  jump\t// in\ntag_78:\n    /* \"#utility.yul\":3653:3727   */\n  swap3\n  pop\n    /* \"#utility.yul\":3608:3737   */\n  pop\n    /* \"#utility.yul\":3797:3799   */\n  0x40\n    /* \"#utility.yul\":3786:3795   */\n  dup5\n    /* \"#utility.yul\":3782:3800   */\n  add\n    /* \"#utility.yul\":3776:3801   */\n  mload\n    /* \"#utility.yul\":3828:3846   */\n  0xffffffffffffffff\n    /* \"#utility.yul\":3820:3826   */\n  dup2\n    /* \"#utility.yul\":3817:3847   */\n  gt\n    /* \"#utility.yul\":3814:3931   */\n  iszero\n  tag_79\n  jumpi\n    /* \"#utility.yul\":3850:3929   */\n  tag_80\n  tag_15\n  jump\t// in\ntag_80:\n    /* \"#utility.yul\":3814:3931   */\ntag_79:\n    /* \"#utility.yul\":3955:4029   */\n  tag_81\n    /* \"#utility.yul\":4021:4028   */\n  dup7\n    /* \"#utility.yul\":4012:4018   */\n  dup3\n    /* \"#utility.yul\":4001:4010   */\n  dup8\n    /* \"#utility.yul\":3997:4019   */\n  add\n    /* \"#utility.yul\":3955:4029   */\n  tag_25\n  jump\t// in\ntag_81:\n    /* \"#utility.yul\":3945:4029   */\n  swap2\n  pop\n    /* \"#utility.yul\":3747:4039   */\n  pop\n    /* \"#utility.yul\":3037:4046   */\n  swap3\n  pop\n  swap3\n  pop\n  swap3\n  jump\t// out\n    /* \"#utility.yul\":4052:4151   */\ntag_29:\n    /* \"#utility.yul\":4104:4110   */\n  0x00\n    /* \"#utility.yul\":4138:4143   */\n  dup2\n    /* \"#utility.yul\":4132:4144   */\n  mload\n    /* \"#utility.yul\":4122:4144   */\n  swap1\n  pop\n    /* \"#utility.yul\":4052:4151   */\n  swap2\n  swap1\n  pop\n  jump\t// out\n    /* \"#utility.yul\":4157:4326   */\ntag_30:\n    /* \"#utility.yul\":4241:4252   */\n  0x00\n    /* \"#utility.yul\":4275:4281   */\n  dup3\n    /* \"#utility.yul\":4270:4273   */\n  dup3\n    /* \"#utility.yul\":4263:4282   */\n  mstore\n    /* \"#utility.yul\":4315:4319   */\n  0x20\n    /* \"#utility.yul\":4310:4313   */\n  dup3\n    /* \"#utility.yul\":4306:4320   */\n  add\n    /* \"#utility.yul\":4291:4320   */\n  swap1\n  pop\n    /* \"#utility.yul\":4157:4326   */\n  swap3\n  swap2\n  pop\n  pop\n  jump\t// out\n    /* \"#utility.yul\":4332:4709   */\ntag_31:\n    /* \"#utility.yul\":4420:4423   */\n  0x00\n    /* \"#utility.yul\":4448:4487   */\n  tag_85\n    /* \"#utility.yul\":4481:4486   */\n  dup3\n    /* \"#utility.yul\":4448:4487   */\n  tag_29\n  jump\t// in\ntag_85:\n    /* \"#utility.yul\":4503:4574   */\n  tag_86\n    /* \"#utility.yul\":4567:4573   */\n  dup2\n    /* \"#utility.yul\":4562:4565   */\n  dup6\n    /* \"#utility.yul\":4503:4574   */\n  tag_30\n  jump\t// in\ntag_86:\n    /* \"#utility.yul\":4496:4574   */\n  swap4\n  pop\n    /* \"#utility.yul\":4583:4648   */\n  tag_87\n    /* \"#utility.yul\":4641:4647   */\n  dup2\n    /* \"#utility.yul\":4636:4639   */\n  dup6\n    /* \"#utility.yul\":4629:4633   */\n  0x20\n    /* \"#utility.yul\":4622:4627   */\n  dup7\n    /* \"#utility.yul\":4618:4634   */\n  add\n    /* \"#utility.yul\":4583:4648   */\n  tag_23\n  jump\t// in\ntag_87:\n    /* \"#utility.yul\":4673:4702   */\n  tag_88\n    /* \"#utility.yul\":4695:4701   */\n  dup2\n    /* \"#utility.yul\":4673:4702   */\n  tag_18\n  jump\t// in\ntag_88:\n    /* \"#utility.yul\":4668:4671   */\n  dup5\n    /* \"#utility.yul\":4664:4703   */\n  add\n    /* \"#utility.yul\":4657:4703   */\n  swap2\n  pop\n    /* \"#utility.yul\":4424:4709   */\n  pop\n    /* \"#utility.yul\":4332:4709   */\n  swap3\n  swap2\n  pop\n  pop\n  jump\t// out\n    /* \"#utility.yul\":4715:4833   */\ntag_32:\n    /* \"#utility.yul\":4802:4826   */\n  tag_90\n    /* \"#utility.yul\":4820:4825   */\n  dup2\n    /* \"#utility.yul\":4802:4826   */\n  tag_26\n  jump\t// in\ntag_90:\n    /* \"#utility.yul\":4797:4800   */\n  dup3\n    /* \"#utility.yul\":4790:4827   */\n  mstore\n    /* \"#utility.yul\":4715:4833   */\n  pop\n  pop\n  jump\t// out\n    /* \"#utility.yul\":4839:5463   */\ntag_9:\n    /* \"#utility.yul\":5028:5032   */\n  0x00\n    /* \"#utility.yul\":5066:5068   */\n  0x60\n    /* \"#utility.yul\":5055:5064   */\n  dup3\n    /* \"#utility.yul\":5051:5069   */\n  add\n    /* \"#utility.yul\":5043:5069   */\n  swap1\n  pop\n    /* \"#utility.yul\":5115:5124   */\n  dup2\n    /* \"#utility.yul\":5109:5113   */\n  dup2\n    /* \"#utility.yul\":5105:5125   */\n  sub\n    /* \"#utility.yul\":5101:5102   */\n  0x00\n    /* \"#utility.yul\":5090:5099   */\n  dup4\n    /* \"#utility.yul\":5086:5103   */\n  add\n    /* \"#utility.yul\":5079:5126   */\n  mstore\n    /* \"#utility.yul\":5143:5221   */\n  tag_92\n    /* \"#utility.yul\":5216:5220   */\n  dup2\n    /* \"#utility.yul\":5207:5213   */\n  dup7\n    /* \"#utility.yul\":5143:5221   */\n  tag_31\n  jump\t// in\ntag_92:\n    /* \"#utility.yul\":5135:5221   */\n  swap1\n  pop\n    /* \"#utility.yul\":5231:5303   */\n  tag_93\n    /* \"#utility.yul\":5299:5301   */\n  0x20\n    /* \"#utility.yul\":5288:5297   */\n  dup4\n    /* \"#utility.yul\":5284:5302   */\n  add\n    /* \"#utility.yul\":5275:5281   */\n  dup6\n    /* \"#utility.yul\":5231:5303   */\n  tag_32\n  jump\t// in\ntag_93:\n    /* \"#utility.yul\":5350:5359   */\n  dup2\n    /* \"#utility.yul\":5344:5348   */\n  dup2\n    /* \"#utility.yul\":5340:5360   */\n  sub\n    /* \"#utility.yul\":5335:5337   */\n  0x40\n    /* \"#utility.yul\":5324:5333   */\n  dup4\n    /* \"#utility.yul\":5320:5338   */\n  add\n    /* \"#utility.yul\":5313:5361   */\n  mstore\n    /* \"#utility.yul\":5378:5456   */\n  tag_94\n    /* \"#utility.yul\":5451:5455   */\n  dup2\n    /* \"#utility.yul\":5442:5448   */\n  dup5\n    /* \"#utility.yul\":5378:5456   */\n  tag_31\n  jump\t// in\ntag_94:\n    /* \"#utility.yul\":5370:5456   */\n  swap1\n  pop\n    /* \"#utility.yul\":4839:5463   */\n  swap5\n  swap4\n  pop\n  pop\n  pop\n  pop\n  jump\t// out\n    /* \"HMS.sol\":319:653  contract newHMS{... */\ntag_12:\n  dataSize(sub_0)\n  dup1\n  dataOffset(sub_0)\n  0x00\n  codecopy\n  0x00\n  return\nstop\n\nsub_0: assembly {\n        /* \"HMS.sol\":319:653  contract newHMS{... */\n      mstore(0x40, 0x80)\n      callvalue\n      dup1\n      iszero\n      tag_1\n      jumpi\n      0x00\n      dup1\n      revert\n    tag_1:\n      pop\n      jumpi(tag_2, lt(calldatasize, 0x04))\n      shr(0xe0, calldataload(0x00))\n      dup1\n      0x28b7a10b\n      eq\n      tag_3\n      jumpi\n      dup1\n      0x9e803801\n      eq\n      tag_4\n      jumpi\n    tag_2:\n      0x00\n      dup1\n      revert\n        /* \"HMS.sol\":341:361  HMS[] public Patient */\n    tag_3:\n      tag_5\n      0x04\n      dup1\n      calldatasize\n      sub\n      dup2\n      add\n      swap1\n      tag_6\n      swap2\n      swap1\n      tag_7\n      jump\t// in\n    tag_6:\n      tag_8\n      jump\t// in\n    tag_5:\n      mload(0x40)\n      tag_9\n      swap2\n      swap1\n      tag_10\n      jump\t// in\n    tag_9:\n      mload(0x40)\n      dup1\n      swap2\n      sub\n      swap1\n      return\n        /* \"HMS.sol\":554:648  function retrive(uint index) public view returns (HMS){... */\n    tag_4:\n      tag_11\n      0x04\n      dup1\n      calldatasize\n      sub\n      dup2\n      add\n      swap1\n      tag_12\n      swap2\n      swap1\n      tag_7\n      jump\t// in\n    tag_12:\n      tag_13\n      jump\t// in\n    tag_11:\n      mload(0x40)\n      tag_14\n      swap2\n      swap1\n      tag_10\n      jump\t// in\n    tag_14:\n      mload(0x40)\n      dup1\n      swap2\n      sub\n      swap1\n      return\n        /* \"HMS.sol\":341:361  HMS[] public Patient */\n    tag_8:\n      0x00\n      dup2\n      dup2\n      sload\n      dup2\n      lt\n      tag_15\n      jumpi\n      0x00\n      dup1\n      revert\n    tag_15:\n      swap1\n      0x00\n      mstore\n      keccak256(0x00, 0x20)\n      add\n      0x00\n      swap2\n      pop\n      sload\n      swap1\n      0x0100\n      exp\n      swap1\n      div\n      0xffffffffffffffffffffffffffffffffffffffff\n      and\n      dup2\n      jump\t// out\n        /* \"HMS.sol\":554:648  function retrive(uint index) public view returns (HMS){... */\n    tag_13:\n        /* \"HMS.sol\":604:607  HMS */\n      0x00\n        /* \"HMS.sol\":626:633  Patient */\n      dup1\n        /* \"HMS.sol\":634:639  index */\n      dup3\n        /* \"HMS.sol\":626:640  Patient[index] */\n      dup2\n      sload\n      dup2\n      lt\n      tag_18\n      jumpi\n      tag_19\n      tag_20\n      jump\t// in\n    tag_19:\n    tag_18:\n      swap1\n      0x00\n      mstore\n      keccak256(0x00, 0x20)\n      add\n      0x00\n      swap1\n      sload\n      swap1\n      0x0100\n      exp\n      swap1\n      div\n      0xffffffffffffffffffffffffffffffffffffffff\n      and\n        /* \"HMS.sol\":619:640  return Patient[index] */\n      swap1\n      pop\n        /* \"HMS.sol\":554:648  function retrive(uint index) public view returns (HMS){... */\n      swap2\n      swap1\n      pop\n      jump\t// out\n        /* \"#utility.yul\":88:205   */\n    tag_23:\n        /* \"#utility.yul\":197:198   */\n      0x00\n        /* \"#utility.yul\":194:195   */\n      dup1\n        /* \"#utility.yul\":187:199   */\n      revert\n        /* \"#utility.yul\":334:411   */\n    tag_25:\n        /* \"#utility.yul\":371:378   */\n      0x00\n        /* \"#utility.yul\":400:405   */\n      dup2\n        /* \"#utility.yul\":389:405   */\n      swap1\n      pop\n        /* \"#utility.yul\":334:411   */\n      swap2\n      swap1\n      pop\n      jump\t// out\n        /* \"#utility.yul\":417:539   */\n    tag_26:\n        /* \"#utility.yul\":490:514   */\n      tag_40\n        /* \"#utility.yul\":508:513   */\n      dup2\n        /* \"#utility.yul\":490:514   */\n      tag_25\n      jump\t// in\n    tag_40:\n        /* \"#utility.yul\":483:488   */\n      dup2\n        /* \"#utility.yul\":480:515   */\n      eq\n        /* \"#utility.yul\":470:533   */\n      tag_41\n      jumpi\n        /* \"#utility.yul\":529:530   */\n      0x00\n        /* \"#utility.yul\":526:527   */\n      dup1\n        /* \"#utility.yul\":519:531   */\n      revert\n        /* \"#utility.yul\":470:533   */\n    tag_41:\n        /* \"#utility.yul\":417:539   */\n      pop\n      jump\t// out\n        /* \"#utility.yul\":545:684   */\n    tag_27:\n        /* \"#utility.yul\":591:596   */\n      0x00\n        /* \"#utility.yul\":629:635   */\n      dup2\n        /* \"#utility.yul\":616:636   */\n      calldataload\n        /* \"#utility.yul\":607:636   */\n      swap1\n      pop\n        /* \"#utility.yul\":645:678   */\n      tag_43\n        /* \"#utility.yul\":672:677   */\n      dup2\n        /* \"#utility.yul\":645:678   */\n      tag_26\n      jump\t// in\n    tag_43:\n        /* \"#utility.yul\":545:684   */\n      swap3\n      swap2\n      pop\n      pop\n      jump\t// out\n        /* \"#utility.yul\":690:1019   */\n    tag_7:\n        /* \"#utility.yul\":749:755   */\n      0x00\n        /* \"#utility.yul\":798:800   */\n      0x20\n        /* \"#utility.yul\":786:795   */\n      dup3\n        /* \"#utility.yul\":777:784   */\n      dup5\n        /* \"#utility.yul\":773:796   */\n      sub\n        /* \"#utility.yul\":769:801   */\n      slt\n        /* \"#utility.yul\":766:885   */\n      iszero\n      tag_45\n      jumpi\n        /* \"#utility.yul\":804:883   */\n      tag_46\n      tag_23\n      jump\t// in\n    tag_46:\n        /* \"#utility.yul\":766:885   */\n    tag_45:\n        /* \"#utility.yul\":924:925   */\n      0x00\n        /* \"#utility.yul\":949:1002   */\n      tag_47\n        /* \"#utility.yul\":994:1001   */\n      dup5\n        /* \"#utility.yul\":985:991   */\n      dup3\n        /* \"#utility.yul\":974:983   */\n      dup6\n        /* \"#utility.yul\":970:992   */\n      add\n        /* \"#utility.yul\":949:1002   */\n      tag_27\n      jump\t// in\n    tag_47:\n        /* \"#utility.yul\":939:1002   */\n      swap2\n      pop\n        /* \"#utility.yul\":895:1012   */\n      pop\n        /* \"#utility.yul\":690:1019   */\n      swap3\n      swap2\n      pop\n      pop\n      jump\t// out\n        /* \"#utility.yul\":1025:1151   */\n    tag_28:\n        /* \"#utility.yul\":1062:1069   */\n      0x00\n        /* \"#utility.yul\":1102:1144   */\n      0xffffffffffffffffffffffffffffffffffffffff\n        /* \"#utility.yul\":1095:1100   */\n      dup3\n        /* \"#utility.yul\":1091:1145   */\n      and\n        /* \"#utility.yul\":1080:1145   */\n      swap1\n      pop\n        /* \"#utility.yul\":1025:1151   */\n      swap2\n      swap1\n      pop\n      jump\t// out\n        /* \"#utility.yul\":1157:1217   */\n    tag_29:\n        /* \"#utility.yul\":1185:1188   */\n      0x00\n        /* \"#utility.yul\":1206:1211   */\n      dup2\n        /* \"#utility.yul\":1199:1211   */\n      swap1\n      pop\n        /* \"#utility.yul\":1157:1217   */\n      swap2\n      swap1\n      pop\n      jump\t// out\n        /* \"#utility.yul\":1223:1365   */\n    tag_30:\n        /* \"#utility.yul\":1273:1282   */\n      0x00\n        /* \"#utility.yul\":1306:1359   */\n      tag_51\n        /* \"#utility.yul\":1324:1358   */\n      tag_52\n        /* \"#utility.yul\":1333:1357   */\n      tag_53\n        /* \"#utility.yul\":1351:1356   */\n      dup5\n        /* \"#utility.yul\":1333:1357   */\n      tag_28\n      jump\t// in\n    tag_53:\n        /* \"#utility.yul\":1324:1358   */\n      tag_29\n      jump\t// in\n    tag_52:\n        /* \"#utility.yul\":1306:1359   */\n      tag_28\n      jump\t// in\n    tag_51:\n        /* \"#utility.yul\":1293:1359   */\n      swap1\n      pop\n        /* \"#utility.yul\":1223:1365   */\n      swap2\n      swap1\n      pop\n      jump\t// out\n        /* \"#utility.yul\":1371:1497   */\n    tag_31:\n        /* \"#utility.yul\":1421:1430   */\n      0x00\n        /* \"#utility.yul\":1454:1491   */\n      tag_55\n        /* \"#utility.yul\":1485:1490   */\n      dup3\n        /* \"#utility.yul\":1454:1491   */\n      tag_30\n      jump\t// in\n    tag_55:\n        /* \"#utility.yul\":1441:1491   */\n      swap1\n      pop\n        /* \"#utility.yul\":1371:1497   */\n      swap2\n      swap1\n      pop\n      jump\t// out\n        /* \"#utility.yul\":1503:1639   */\n    tag_32:\n        /* \"#utility.yul\":1563:1572   */\n      0x00\n        /* \"#utility.yul\":1596:1633   */\n      tag_57\n        /* \"#utility.yul\":1627:1632   */\n      dup3\n        /* \"#utility.yul\":1596:1633   */\n      tag_31\n      jump\t// in\n    tag_57:\n        /* \"#utility.yul\":1583:1633   */\n      swap1\n      pop\n        /* \"#utility.yul\":1503:1639   */\n      swap2\n      swap1\n      pop\n      jump\t// out\n        /* \"#utility.yul\":1645:1796   */\n    tag_33:\n        /* \"#utility.yul\":1742:1789   */\n      tag_59\n        /* \"#utility.yul\":1783:1788   */\n      dup2\n        /* \"#utility.yul\":1742:1789   */\n      tag_32\n      jump\t// in\n    tag_59:\n        /* \"#utility.yul\":1737:1740   */\n      dup3\n        /* \"#utility.yul\":1730:1790   */\n      mstore\n        /* \"#utility.yul\":1645:1796   */\n      pop\n      pop\n      jump\t// out\n        /* \"#utility.yul\":1802:2044   */\n    tag_10:\n        /* \"#utility.yul\":1905:1909   */\n      0x00\n        /* \"#utility.yul\":1943:1945   */\n      0x20\n        /* \"#utility.yul\":1932:1941   */\n      dup3\n        /* \"#utility.yul\":1928:1946   */\n      add\n        /* \"#utility.yul\":1920:1946   */\n      swap1\n      pop\n        /* \"#utility.yul\":1956:2037   */\n      tag_61\n        /* \"#utility.yul\":2034:2035   */\n      0x00\n        /* \"#utility.yul\":2023:2032   */\n      dup4\n        /* \"#utility.yul\":2019:2036   */\n      add\n        /* \"#utility.yul\":2010:2016   */\n      dup5\n        /* \"#utility.yul\":1956:2037   */\n      tag_33\n      jump\t// in\n    tag_61:\n        /* \"#utility.yul\":1802:2044   */\n      swap3\n      swap2\n      pop\n      pop\n      jump\t// out\n        /* \"#utility.yul\":2050:2230   */\n    tag_20:\n        /* \"#utility.yul\":2098:2175   */\n      0x4e487b7100000000000000000000000000000000000000000000000000000000\n        /* \"#utility.yul\":2095:2096   */\n      0x00\n        /* \"#utility.yul\":2088:2176   */\n      mstore\n        /* \"#utility.yul\":2195:2199   */\n      0x32\n        /* \"#utility.yul\":2192:2193   */\n      0x04\n        /* \"#utility.yul\":2185:2200   */\n      mstore\n        /* \"#utility.yul\":2219:2223   */\n      0x24\n        /* \"#utility.yul\":2216:2217   */\n      0x00\n        /* \"#utility.yul\":2209:2224   */\n      revert\n\n    auxdata: 0xa2646970667358221220b66d1520dd84178d7aa1b12e6d3b9d5826d5eb165ad86fe1d6dc601bacab013b64736f6c63430008140033\n}\n\nsub_1: assembly {\n        /* \"HMS.sol\":58:317  contract HMS{... */\n      mstore(0x40, 0x80)\n        /* \"HMS.sol\":160:312  constructor( string memory patientname, uint _age, string memory _disease){... */\n      callvalue\n      dup1\n      iszero\n      tag_1\n      jumpi\n      0x00\n      dup1\n      revert\n    tag_1:\n      pop\n      mload(0x40)\n      sub(codesize, bytecodeSize)\n      dup1\n      bytecodeSize\n      dup4\n      codecopy\n      dup2\n      dup2\n      add\n      0x40\n      mstore\n      dup2\n      add\n      swap1\n      tag_2\n      swap2\n      swap1\n      tag_3\n      jump\t// in\n    tag_2:\n        /* \"HMS.sol\":254:265  patientname */\n      dup3\n        /* \"HMS.sol\":240:252  Patient_name */\n      0x00\n        /* \"HMS.sol\":240:265  Patient_name= patientname */\n      swap1\n      dup2\n      tag_6\n      swap2\n      swap1\n      tag_7\n      jump\t// in\n    tag_6:\n      pop\n        /* \"HMS.sol\":277:281  _age */\n      dup2\n        /* \"HMS.sol\":271:274  age */\n      0x01\n        /* \"HMS.sol\":271:281  age = _age */\n      dup2\n      swap1\n      sstore\n      pop\n        /* \"HMS.sol\":296:304  _disease */\n      dup1\n        /* \"HMS.sol\":287:294  disease */\n      0x02\n        /* \"HMS.sol\":287:304  disease= _disease */\n      swap1\n      dup2\n      tag_8\n      swap2\n      swap1\n      tag_7\n      jump\t// in\n    tag_8:\n      pop\n        /* \"HMS.sol\":160:312  constructor( string memory patientname, uint _age, string memory _disease){... */\n      pop\n      pop\n      pop\n        /* \"HMS.sol\":58:317  contract HMS{... */\n      jump(tag_9)\n        /* \"#utility.yul\":7:82   */\n    tag_10:\n        /* \"#utility.yul\":40:46   */\n      0x00\n        /* \"#utility.yul\":73:75   */\n      0x40\n        /* \"#utility.yul\":67:76   */\n      mload\n        /* \"#utility.yul\":57:76   */\n      swap1\n      pop\n        /* \"#utility.yul\":7:82   */\n      swap1\n      jump\t// out\n        /* \"#utility.yul\":88:205   */\n    tag_11:\n        /* \"#utility.yul\":197:198   */\n      0x00\n        /* \"#utility.yul\":194:195   */\n      dup1\n        /* \"#utility.yul\":187:199   */\n      revert\n        /* \"#utility.yul\":211:328   */\n    tag_12:\n        /* \"#utility.yul\":320:321   */\n      0x00\n        /* \"#utility.yul\":317:318   */\n      dup1\n        /* \"#utility.yul\":310:322   */\n      revert\n        /* \"#utility.yul\":334:451   */\n    tag_13:\n        /* \"#utility.yul\":443:444   */\n      0x00\n        /* \"#utility.yul\":440:441   */\n      dup1\n        /* \"#utility.yul\":433:445   */\n      revert\n        /* \"#utility.yul\":457:574   */\n    tag_14:\n        /* \"#utility.yul\":566:567   */\n      0x00\n        /* \"#utility.yul\":563:564   */\n      dup1\n        /* \"#utility.yul\":556:568   */\n      revert\n        /* \"#utility.yul\":580:682   */\n    tag_15:\n        /* \"#utility.yul\":621:627   */\n      0x00\n        /* \"#utility.yul\":672:674   */\n      0x1f\n        /* \"#utility.yul\":668:675   */\n      not\n        /* \"#utility.yul\":663:665   */\n      0x1f\n        /* \"#utility.yul\":656:661   */\n      dup4\n        /* \"#utility.yul\":652:666   */\n      add\n        /* \"#utility.yul\":648:676   */\n      and\n        /* \"#utility.yul\":638:676   */\n      swap1\n      pop\n        /* \"#utility.yul\":580:682   */\n      swap2\n      swap1\n      pop\n      jump\t// out\n        /* \"#utility.yul\":688:868   */\n    tag_16:\n        /* \"#utility.yul\":736:813   */\n      0x4e487b7100000000000000000000000000000000000000000000000000000000\n        /* \"#utility.yul\":733:734   */\n      0x00\n        /* \"#utility.yul\":726:814   */\n      mstore\n        /* \"#utility.yul\":833:837   */\n      0x41\n        /* \"#utility.yul\":830:831   */\n      0x04\n        /* \"#utility.yul\":823:838   */\n      mstore\n        /* \"#utility.yul\":857:861   */\n      0x24\n        /* \"#utility.yul\":854:855   */\n      0x00\n        /* \"#utility.yul\":847:862   */\n      revert\n        /* \"#utility.yul\":874:1155   */\n    tag_17:\n        /* \"#utility.yul\":957:984   */\n      tag_53\n        /* \"#utility.yul\":979:983   */\n      dup3\n        /* \"#utility.yul\":957:984   */\n      tag_15\n      jump\t// in\n    tag_53:\n        /* \"#utility.yul\":949:955   */\n      dup2\n        /* \"#utility.yul\":945:985   */\n      add\n        /* \"#utility.yul\":1087:1093   */\n      dup2\n        /* \"#utility.yul\":1075:1085   */\n      dup2\n        /* \"#utility.yul\":1072:1094   */\n      lt\n        /* \"#utility.yul\":1051:1069   */\n      0xffffffffffffffff\n        /* \"#utility.yul\":1039:1049   */\n      dup3\n        /* \"#utility.yul\":1036:1070   */\n      gt\n        /* \"#utility.yul\":1033:1095   */\n      or\n        /* \"#utility.yul\":1030:1118   */\n      iszero\n      tag_54\n      jumpi\n        /* \"#utility.yul\":1098:1116   */\n      tag_55\n      tag_16\n      jump\t// in\n    tag_55:\n        /* \"#utility.yul\":1030:1118   */\n    tag_54:\n        /* \"#utility.yul\":1138:1148   */\n      dup1\n        /* \"#utility.yul\":1134:1136   */\n      0x40\n        /* \"#utility.yul\":1127:1149   */\n      mstore\n        /* \"#utility.yul\":917:1155   */\n      pop\n        /* \"#utility.yul\":874:1155   */\n      pop\n      pop\n      jump\t// out\n        /* \"#utility.yul\":1161:1290   */\n    tag_18:\n        /* \"#utility.yul\":1195:1201   */\n      0x00\n        /* \"#utility.yul\":1222:1242   */\n      tag_57\n      tag_10\n      jump\t// in\n    tag_57:\n        /* \"#utility.yul\":1212:1242   */\n      swap1\n      pop\n        /* \"#utility.yul\":1251:1284   */\n      tag_58\n        /* \"#utility.yul\":1279:1283   */\n      dup3\n        /* \"#utility.yul\":1271:1277   */\n      dup3\n        /* \"#utility.yul\":1251:1284   */\n      tag_17\n      jump\t// in\n    tag_58:\n        /* \"#utility.yul\":1161:1290   */\n      swap2\n      swap1\n      pop\n      jump\t// out\n        /* \"#utility.yul\":1296:1604   */\n    tag_19:\n        /* \"#utility.yul\":1358:1362   */\n      0x00\n        /* \"#utility.yul\":1448:1466   */\n      0xffffffffffffffff\n        /* \"#utility.yul\":1440:1446   */\n      dup3\n        /* \"#utility.yul\":1437:1467   */\n      gt\n        /* \"#utility.yul\":1434:1490   */\n      iszero\n      tag_60\n      jumpi\n        /* \"#utility.yul\":1470:1488   */\n      tag_61\n      tag_16\n      jump\t// in\n    tag_61:\n        /* \"#utility.yul\":1434:1490   */\n    tag_60:\n        /* \"#utility.yul\":1508:1537   */\n      tag_62\n        /* \"#utility.yul\":1530:1536   */\n      dup3\n        /* \"#utility.yul\":1508:1537   */\n      tag_15\n      jump\t// in\n    tag_62:\n        /* \"#utility.yul\":1500:1537   */\n      swap1\n      pop\n        /* \"#utility.yul\":1592:1596   */\n      0x20\n        /* \"#utility.yul\":1586:1590   */\n      dup2\n        /* \"#utility.yul\":1582:1597   */\n      add\n        /* \"#utility.yul\":1574:1597   */\n      swap1\n      pop\n        /* \"#utility.yul\":1296:1604   */\n      swap2\n      swap1\n      pop\n      jump\t// out\n        /* \"#utility.yul\":1610:1856   */\n    tag_20:\n        /* \"#utility.yul\":1691:1692   */\n      0x00\n        /* \"#utility.yul\":1701:1814   */\n    tag_64:\n        /* \"#utility.yul\":1715:1721   */\n      dup4\n        /* \"#utility.yul\":1712:1713   */\n      dup2\n        /* \"#utility.yul\":1709:1722   */\n      lt\n        /* \"#utility.yul\":1701:1814   */\n      iszero\n      tag_66\n      jumpi\n        /* \"#utility.yul\":1800:1801   */\n      dup1\n        /* \"#utility.yul\":1795:1798   */\n      dup3\n        /* \"#utility.yul\":1791:1802   */\n      add\n        /* \"#utility.yul\":1785:1803   */\n      mload\n        /* \"#utility.yul\":1781:1782   */\n      dup2\n        /* \"#utility.yul\":1776:1779   */\n      dup5\n        /* \"#utility.yul\":1772:1783   */\n      add\n        /* \"#utility.yul\":1765:1804   */\n      mstore\n        /* \"#utility.yul\":1737:1739   */\n      0x20\n        /* \"#utility.yul\":1734:1735   */\n      dup2\n        /* \"#utility.yul\":1730:1740   */\n      add\n        /* \"#utility.yul\":1725:1740   */\n      swap1\n      pop\n        /* \"#utility.yul\":1701:1814   */\n      jump(tag_64)\n    tag_66:\n        /* \"#utility.yul\":1848:1849   */\n      0x00\n        /* \"#utility.yul\":1839:1845   */\n      dup5\n        /* \"#utility.yul\":1834:1837   */\n      dup5\n        /* \"#utility.yul\":1830:1846   */\n      add\n        /* \"#utility.yul\":1823:1850   */\n      mstore\n        /* \"#utility.yul\":1672:1856   */\n      pop\n        /* \"#utility.yul\":1610:1856   */\n      pop\n      pop\n      pop\n      jump\t// out\n        /* \"#utility.yul\":1862:2296   */\n    tag_21:\n        /* \"#utility.yul\":1951:1956   */\n      0x00\n        /* \"#utility.yul\":1976:2042   */\n      tag_68\n        /* \"#utility.yul\":1992:2041   */\n      tag_69\n        /* \"#utility.yul\":2034:2040   */\n      dup5\n        /* \"#utility.yul\":1992:2041   */\n      tag_19\n      jump\t// in\n    tag_69:\n        /* \"#utility.yul\":1976:2042   */\n      tag_18\n      jump\t// in\n    tag_68:\n        /* \"#utility.yul\":1967:2042   */\n      swap1\n      pop\n        /* \"#utility.yul\":2065:2071   */\n      dup3\n        /* \"#utility.yul\":2058:2063   */\n      dup2\n        /* \"#utility.yul\":2051:2072   */\n      mstore\n        /* \"#utility.yul\":2103:2107   */\n      0x20\n        /* \"#utility.yul\":2096:2101   */\n      dup2\n        /* \"#utility.yul\":2092:2108   */\n      add\n        /* \"#utility.yul\":2141:2144   */\n      dup5\n        /* \"#utility.yul\":2132:2138   */\n      dup5\n        /* \"#utility.yul\":2127:2130   */\n      dup5\n        /* \"#utility.yul\":2123:2139   */\n      add\n        /* \"#utility.yul\":2120:2145   */\n      gt\n        /* \"#utility.yul\":2117:2229   */\n      iszero\n      tag_70\n      jumpi\n        /* \"#utility.yul\":2148:2227   */\n      tag_71\n      tag_14\n      jump\t// in\n    tag_71:\n        /* \"#utility.yul\":2117:2229   */\n    tag_70:\n        /* \"#utility.yul\":2238:2290   */\n      tag_72\n        /* \"#utility.yul\":2283:2289   */\n      dup5\n        /* \"#utility.yul\":2278:2281   */\n      dup3\n        /* \"#utility.yul\":2273:2276   */\n      dup6\n        /* \"#utility.yul\":2238:2290   */\n      tag_20\n      jump\t// in\n    tag_72:\n        /* \"#utility.yul\":1957:2296   */\n      pop\n        /* \"#utility.yul\":1862:2296   */\n      swap4\n      swap3\n      pop\n      pop\n      pop\n      jump\t// out\n        /* \"#utility.yul\":2316:2671   */\n    tag_22:\n        /* \"#utility.yul\":2383:2388   */\n      0x00\n        /* \"#utility.yul\":2432:2435   */\n      dup3\n        /* \"#utility.yul\":2425:2429   */\n      0x1f\n        /* \"#utility.yul\":2417:2423   */\n      dup4\n        /* \"#utility.yul\":2413:2430   */\n      add\n        /* \"#utility.yul\":2409:2436   */\n      slt\n        /* \"#utility.yul\":2399:2521   */\n      tag_74\n      jumpi\n        /* \"#utility.yul\":2440:2519   */\n      tag_75\n      tag_13\n      jump\t// in\n    tag_75:\n        /* \"#utility.yul\":2399:2521   */\n    tag_74:\n        /* \"#utility.yul\":2550:2556   */\n      dup2\n        /* \"#utility.yul\":2544:2557   */\n      mload\n        /* \"#utility.yul\":2575:2665   */\n      tag_76\n        /* \"#utility.yul\":2661:2664   */\n      dup5\n        /* \"#utility.yul\":2653:2659   */\n      dup3\n        /* \"#utility.yul\":2646:2650   */\n      0x20\n        /* \"#utility.yul\":2638:2644   */\n      dup7\n        /* \"#utility.yul\":2634:2651   */\n      add\n        /* \"#utility.yul\":2575:2665   */\n      tag_21\n      jump\t// in\n    tag_76:\n        /* \"#utility.yul\":2566:2665   */\n      swap2\n      pop\n        /* \"#utility.yul\":2389:2671   */\n      pop\n        /* \"#utility.yul\":2316:2671   */\n      swap3\n      swap2\n      pop\n      pop\n      jump\t// out\n        /* \"#utility.yul\":2677:2754   */\n    tag_23:\n        /* \"#utility.yul\":2714:2721   */\n      0x00\n        /* \"#utility.yul\":2743:2748   */\n      dup2\n        /* \"#utility.yul\":2732:2748   */\n      swap1\n      pop\n        /* \"#utility.yul\":2677:2754   */\n      swap2\n      swap1\n      pop\n      jump\t// out\n        /* \"#utility.yul\":2760:2882   */\n    tag_24:\n        /* \"#utility.yul\":2833:2857   */\n      tag_79\n        /* \"#utility.yul\":2851:2856   */\n      dup2\n        /* \"#utility.yul\":2833:2857   */\n      tag_23\n      jump\t// in\n    tag_79:\n        /* \"#utility.yul\":2826:2831   */\n      dup2\n        /* \"#utility.yul\":2823:2858   */\n      eq\n        /* \"#utility.yul\":2813:2876   */\n      tag_80\n      jumpi\n        /* \"#utility.yul\":2872:2873   */\n      0x00\n        /* \"#utility.yul\":2869:2870   */\n      dup1\n        /* \"#utility.yul\":2862:2874   */\n      revert\n        /* \"#utility.yul\":2813:2876   */\n    tag_80:\n        /* \"#utility.yul\":2760:2882   */\n      pop\n      jump\t// out\n        /* \"#utility.yul\":2888:3031   */\n    tag_25:\n        /* \"#utility.yul\":2945:2950   */\n      0x00\n        /* \"#utility.yul\":2976:2982   */\n      dup2\n        /* \"#utility.yul\":2970:2983   */\n      mload\n        /* \"#utility.yul\":2961:2983   */\n      swap1\n      pop\n        /* \"#utility.yul\":2992:3025   */\n      tag_82\n        /* \"#utility.yul\":3019:3024   */\n      dup2\n        /* \"#utility.yul\":2992:3025   */\n      tag_24\n      jump\t// in\n    tag_82:\n        /* \"#utility.yul\":2888:3031   */\n      swap3\n      swap2\n      pop\n      pop\n      jump\t// out\n        /* \"#utility.yul\":3037:4046   */\n    tag_3:\n        /* \"#utility.yul\":3145:3151   */\n      0x00\n        /* \"#utility.yul\":3153:3159   */\n      dup1\n        /* \"#utility.yul\":3161:3167   */\n      0x00\n        /* \"#utility.yul\":3210:3212   */\n      0x60\n        /* \"#utility.yul\":3198:3207   */\n      dup5\n        /* \"#utility.yul\":3189:3196   */\n      dup7\n        /* \"#utility.yul\":3185:3208   */\n      sub\n        /* \"#utility.yul\":3181:3213   */\n      slt\n        /* \"#utility.yul\":3178:3297   */\n      iszero\n      tag_84\n      jumpi\n        /* \"#utility.yul\":3216:3295   */\n      tag_85\n      tag_11\n      jump\t// in\n    tag_85:\n        /* \"#utility.yul\":3178:3297   */\n    tag_84:\n        /* \"#utility.yul\":3357:3358   */\n      0x00\n        /* \"#utility.yul\":3346:3355   */\n      dup5\n        /* \"#utility.yul\":3342:3359   */\n      add\n        /* \"#utility.yul\":3336:3360   */\n      mload\n        /* \"#utility.yul\":3387:3405   */\n      0xffffffffffffffff\n        /* \"#utility.yul\":3379:3385   */\n      dup2\n        /* \"#utility.yul\":3376:3406   */\n      gt\n        /* \"#utility.yul\":3373:3490   */\n      iszero\n      tag_86\n      jumpi\n        /* \"#utility.yul\":3409:3488   */\n      tag_87\n      tag_12\n      jump\t// in\n    tag_87:\n        /* \"#utility.yul\":3373:3490   */\n    tag_86:\n        /* \"#utility.yul\":3514:3588   */\n      tag_88\n        /* \"#utility.yul\":3580:3587   */\n      dup7\n        /* \"#utility.yul\":3571:3577   */\n      dup3\n        /* \"#utility.yul\":3560:3569   */\n      dup8\n        /* \"#utility.yul\":3556:3578   */\n      add\n        /* \"#utility.yul\":3514:3588   */\n      tag_22\n      jump\t// in\n    tag_88:\n        /* \"#utility.yul\":3504:3588   */\n      swap4\n      pop\n        /* \"#utility.yul\":3307:3598   */\n      pop\n        /* \"#utility.yul\":3637:3639   */\n      0x20\n        /* \"#utility.yul\":3663:3727   */\n      tag_89\n        /* \"#utility.yul\":3719:3726   */\n      dup7\n        /* \"#utility.yul\":3710:3716   */\n      dup3\n        /* \"#utility.yul\":3699:3708   */\n      dup8\n        /* \"#utility.yul\":3695:3717   */\n      add\n        /* \"#utility.yul\":3663:3727   */\n      tag_25\n      jump\t// in\n    tag_89:\n        /* \"#utility.yul\":3653:3727   */\n      swap3\n      pop\n        /* \"#utility.yul\":3608:3737   */\n      pop\n        /* \"#utility.yul\":3797:3799   */\n      0x40\n        /* \"#utility.yul\":3786:3795   */\n      dup5\n        /* \"#utility.yul\":3782:3800   */\n      add\n        /* \"#utility.yul\":3776:3801   */\n      mload\n        /* \"#utility.yul\":3828:3846   */\n      0xffffffffffffffff\n        /* \"#utility.yul\":3820:3826   */\n      dup2\n        /* \"#utility.yul\":3817:3847   */\n      gt\n        /* \"#utility.yul\":3814:3931   */\n      iszero\n      tag_90\n      jumpi\n        /* \"#utility.yul\":3850:3929   */\n      tag_91\n      tag_12\n      jump\t// in\n    tag_91:\n        /* \"#utility.yul\":3814:3931   */\n    tag_90:\n        /* \"#utility.yul\":3955:4029   */\n      tag_92\n        /* \"#utility.yul\":4021:4028   */\n      dup7\n        /* \"#utility.yul\":4012:4018   */\n      dup3\n        /* \"#utility.yul\":4001:4010   */\n      dup8\n        /* \"#utility.yul\":3997:4019   */\n      add\n        /* \"#utility.yul\":3955:4029   */\n      tag_22\n      jump\t// in\n    tag_92:\n        /* \"#utility.yul\":3945:4029   */\n      swap2\n      pop\n        /* \"#utility.yul\":3747:4039   */\n      pop\n        /* \"#utility.yul\":3037:4046   */\n      swap3\n      pop\n      swap3\n      pop\n      swap3\n      jump\t// out\n        /* \"#utility.yul\":4052:4151   */\n    tag_26:\n        /* \"#utility.yul\":4104:4110   */\n      0x00\n        /* \"#utility.yul\":4138:4143   */\n      dup2\n        /* \"#utility.yul\":4132:4144   */\n      mload\n        /* \"#utility.yul\":4122:4144   */\n      swap1\n      pop\n        /* \"#utility.yul\":4052:4151   */\n      swap2\n      swap1\n      pop\n      jump\t// out\n        /* \"#utility.yul\":4157:4337   */\n    tag_27:\n        /* \"#utility.yul\":4205:4282   */\n      0x4e487b7100000000000000000000000000000000000000000000000000000000\n        /* \"#utility.yul\":4202:4203   */\n      0x00\n        /* \"#utility.yul\":4195:4283   */\n      mstore\n        /* \"#utility.yul\":4302:4306   */\n      0x22\n        /* \"#utility.yul\":4299:4300   */\n      0x04\n        /* \"#utility.yul\":4292:4307   */\n      mstore\n        /* \"#utility.yul\":4326:4330   */\n      0x24\n        /* \"#utility.yul\":4323:4324   */\n      0x00\n        /* \"#utility.yul\":4316:4331   */\n      revert\n        /* \"#utility.yul\":4343:4663   */\n    tag_28:\n        /* \"#utility.yul\":4387:4393   */\n      0x00\n        /* \"#utility.yul\":4424:4425   */\n      0x02\n        /* \"#utility.yul\":4418:4422   */\n      dup3\n        /* \"#utility.yul\":4414:4426   */\n      div\n        /* \"#utility.yul\":4404:4426   */\n      swap1\n      pop\n        /* \"#utility.yul\":4471:4472   */\n      0x01\n        /* \"#utility.yul\":4465:4469   */\n      dup3\n        /* \"#utility.yul\":4461:4473   */\n      and\n        /* \"#utility.yul\":4492:4510   */\n      dup1\n        /* \"#utility.yul\":4482:4563   */\n      tag_96\n      jumpi\n        /* \"#utility.yul\":4548:4552   */\n      0x7f\n        /* \"#utility.yul\":4540:4546   */\n      dup3\n        /* \"#utility.yul\":4536:4553   */\n      and\n        /* \"#utility.yul\":4526:4553   */\n      swap2\n      pop\n        /* \"#utility.yul\":4482:4563   */\n    tag_96:\n        /* \"#utility.yul\":4610:4612   */\n      0x20\n        /* \"#utility.yul\":4602:4608   */\n      dup3\n        /* \"#utility.yul\":4599:4613   */\n      lt\n        /* \"#utility.yul\":4579:4597   */\n      dup2\n        /* \"#utility.yul\":4576:4614   */\n      sub\n        /* \"#utility.yul\":4573:4657   */\n      tag_97\n      jumpi\n        /* \"#utility.yul\":4629:4647   */\n      tag_98\n      tag_27\n      jump\t// in\n    tag_98:\n        /* \"#utility.yul\":4573:4657   */\n    tag_97:\n        /* \"#utility.yul\":4394:4663   */\n      pop\n        /* \"#utility.yul\":4343:4663   */\n      swap2\n      swap1\n      pop\n      jump\t// out\n        /* \"#utility.yul\":4669:4810   */\n    tag_29:\n        /* \"#utility.yul\":4718:4722   */\n      0x00\n        /* \"#utility.yul\":4741:4744   */\n      dup2\n        /* \"#utility.yul\":4733:4744   */\n      swap1\n      pop\n        /* \"#utility.yul\":4764:4767   */\n      dup2\n        /* \"#utility.yul\":4761:4762   */\n      0x00\n        /* \"#utility.yul\":4754:4768   */\n      mstore\n        /* \"#utility.yul\":4798:4802   */\n      0x20\n        /* \"#utility.yul\":4795:4796   */\n      0x00\n        /* \"#utility.yul\":4785:4803   */\n      keccak256\n        /* \"#utility.yul\":4777:4803   */\n      swap1\n      pop\n        /* \"#utility.yul\":4669:4810   */\n      swap2\n      swap1\n      pop\n      jump\t// out\n        /* \"#utility.yul\":4816:4909   */\n    tag_30:\n        /* \"#utility.yul\":4853:4859   */\n      0x00\n        /* \"#utility.yul\":4900:4902   */\n      0x20\n        /* \"#utility.yul\":4895:4897   */\n      0x1f\n        /* \"#utility.yul\":4888:4893   */\n      dup4\n        /* \"#utility.yul\":4884:4898   */\n      add\n        /* \"#utility.yul\":4880:4903   */\n      div\n        /* \"#utility.yul\":4870:4903   */\n      swap1\n      pop\n        /* \"#utility.yul\":4816:4909   */\n      swap2\n      swap1\n      pop\n      jump\t// out\n        /* \"#utility.yul\":4915:5022   */\n    tag_31:\n        /* \"#utility.yul\":4959:4967   */\n      0x00\n        /* \"#utility.yul\":5009:5014   */\n      dup3\n        /* \"#utility.yul\":5003:5007   */\n      dup3\n        /* \"#utility.yul\":4999:5015   */\n      shl\n        /* \"#utility.yul\":4978:5015   */\n      swap1\n      pop\n        /* \"#utility.yul\":4915:5022   */\n      swap3\n      swap2\n      pop\n      pop\n      jump\t// out\n        /* \"#utility.yul\":5028:5421   */\n    tag_32:\n        /* \"#utility.yul\":5097:5103   */\n      0x00\n        /* \"#utility.yul\":5147:5148   */\n      0x08\n        /* \"#utility.yul\":5135:5145   */\n      dup4\n        /* \"#utility.yul\":5131:5149   */\n      mul\n        /* \"#utility.yul\":5170:5267   */\n      tag_103\n        /* \"#utility.yul\":5200:5266   */\n      0xffffffffffffffffffffffffffffffffffffffffffffffffffffffffffffffff\n        /* \"#utility.yul\":5189:5198   */\n      dup3\n        /* \"#utility.yul\":5170:5267   */\n      tag_31\n      jump\t// in\n    tag_103:\n        /* \"#utility.yul\":5288:5327   */\n      tag_104\n        /* \"#utility.yul\":5318:5326   */\n      dup7\n        /* \"#utility.yul\":5307:5316   */\n      dup4\n        /* \"#utility.yul\":5288:5327   */\n      tag_31\n      jump\t// in\n    tag_104:\n        /* \"#utility.yul\":5276:5327   */\n      swap6\n      pop\n        /* \"#utility.yul\":5360:5364   */\n      dup1\n        /* \"#utility.yul\":5356:5365   */\n      not\n        /* \"#utility.yul\":5349:5354   */\n      dup5\n        /* \"#utility.yul\":5345:5366   */\n      and\n        /* \"#utility.yul\":5336:5366   */\n      swap4\n      pop\n        /* \"#utility.yul\":5409:5413   */\n      dup1\n        /* \"#utility.yul\":5399:5407   */\n      dup7\n        /* \"#utility.yul\":5395:5414   */\n      and\n        /* \"#utility.yul\":5388:5393   */\n      dup5\n        /* \"#utility.yul\":5385:5415   */\n      or\n        /* \"#utility.yul\":5375:5415   */\n      swap3\n      pop\n        /* \"#utility.yul\":5104:5421   */\n      pop\n      pop\n        /* \"#utility.yul\":5028:5421   */\n      swap4\n      swap3\n      pop\n      pop\n      pop\n      jump\t// out\n        /* \"#utility.yul\":5427:5487   */\n    tag_33:\n        /* \"#utility.yul\":5455:5458   */\n      0x00\n        /* \"#utility.yul\":5476:5481   */\n      dup2\n        /* \"#utility.yul\":5469:5481   */\n      swap1\n      pop\n        /* \"#utility.yul\":5427:5487   */\n      swap2\n      swap1\n      pop\n      jump\t// out\n        /* \"#utility.yul\":5493:5635   */\n    tag_34:\n        /* \"#utility.yul\":5543:5552   */\n      0x00\n        /* \"#utility.yul\":5576:5629   */\n      tag_107\n        /* \"#utility.yul\":5594:5628   */\n      tag_108\n        /* \"#utility.yul\":5603:5627   */\n      tag_109\n        /* \"#utility.yul\":5621:5626   */\n      dup5\n        /* \"#utility.yul\":5603:5627   */\n      tag_23\n      jump\t// in\n    tag_109:\n        /* \"#utility.yul\":5594:5628   */\n      tag_33\n      jump\t// in\n    tag_108:\n        /* \"#utility.yul\":5576:5629   */\n      tag_23\n      jump\t// in\n    tag_107:\n        /* \"#utility.yul\":5563:5629   */\n      swap1\n      pop\n        /* \"#utility.yul\":5493:5635   */\n      swap2\n      swap1\n      pop\n      jump\t// out\n        /* \"#utility.yul\":5641:5716   */\n    tag_35:\n        /* \"#utility.yul\":5684:5687   */\n      0x00\n        /* \"#utility.yul\":5705:5710   */\n      dup2\n        /* \"#utility.yul\":5698:5710   */\n      swap1\n      pop\n        /* \"#utility.yul\":5641:5716   */\n      swap2\n      swap1\n      pop\n      jump\t// out\n        /* \"#utility.yul\":5722:5991   */\n    tag_36:\n        /* \"#utility.yul\":5832:5871   */\n      tag_112\n        /* \"#utility.yul\":5863:5870   */\n      dup4\n        /* \"#utility.yul\":5832:5871   */\n      tag_34\n      jump\t// in\n    tag_112:\n        /* \"#utility.yul\":5893:5984   */\n      tag_113\n        /* \"#utility.yul\":5942:5983   */\n      tag_114\n        /* \"#utility.yul\":5966:5982   */\n      dup3\n        /* \"#utility.yul\":5942:5983   */\n      tag_35\n      jump\t// in\n    tag_114:\n        /* \"#utility.yul\":5934:5940   */\n      dup5\n        /* \"#utility.yul\":5927:5931   */\n      dup5\n        /* \"#utility.yul\":5921:5932   */\n      sload\n        /* \"#utility.yul\":5893:5984   */\n      tag_32\n      jump\t// in\n    tag_113:\n        /* \"#utility.yul\":5887:5891   */\n      dup3\n        /* \"#utility.yul\":5880:5985   */\n      sstore\n        /* \"#utility.yul\":5798:5991   */\n      pop\n        /* \"#utility.yul\":5722:5991   */\n      pop\n      pop\n      pop\n      jump\t// out\n        /* \"#utility.yul\":5997:6070   */\n    tag_37:\n        /* \"#utility.yul\":6042:6045   */\n      0x00\n        /* \"#utility.yul\":5997:6070   */\n      swap1\n      jump\t// out\n        /* \"#utility.yul\":6076:6265   */\n    tag_38:\n        /* \"#utility.yul\":6153:6185   */\n      tag_117\n      tag_37\n      jump\t// in\n    tag_117:\n        /* \"#utility.yul\":6194:6259   */\n      tag_118\n        /* \"#utility.yul\":6252:6258   */\n      dup2\n        /* \"#utility.yul\":6244:6250   */\n      dup5\n        /* \"#utility.yul\":6238:6242   */\n      dup5\n        /* \"#utility.yul\":6194:6259   */\n      tag_36\n      jump\t// in\n    tag_118:\n        /* \"#utility.yul\":6129:6265   */\n      pop\n        /* \"#utility.yul\":6076:6265   */\n      pop\n      pop\n      jump\t// out\n        /* \"#utility.yul\":6271:6457   */\n    tag_39:\n        /* \"#utility.yul\":6331:6451   */\n    tag_120:\n        /* \"#utility.yul\":6348:6351   */\n      dup2\n        /* \"#utility.yul\":6341:6346   */\n      dup2\n        /* \"#utility.yul\":6338:6352   */\n      lt\n        /* \"#utility.yul\":6331:6451   */\n      iszero\n      tag_122\n      jumpi\n        /* \"#utility.yul\":6402:6441   */\n      tag_123\n        /* \"#utility.yul\":6439:6440   */\n      0x00\n        /* \"#utility.yul\":6432:6437   */\n      dup3\n        /* \"#utility.yul\":6402:6441   */\n      tag_38\n      jump\t// in\n    tag_123:\n        /* \"#utility.yul\":6375:6376   */\n      0x01\n        /* \"#utility.yul\":6368:6373   */\n      dup2\n        /* \"#utility.yul\":6364:6377   */\n      add\n        /* \"#utility.yul\":6355:6377   */\n      swap1\n      pop\n        /* \"#utility.yul\":6331:6451   */\n      jump(tag_120)\n    tag_122:\n        /* \"#utility.yul\":6271:6457   */\n      pop\n      pop\n      jump\t// out\n        /* \"#utility.yul\":6463:7006   */\n    tag_40:\n        /* \"#utility.yul\":6564:6566   */\n      0x1f\n        /* \"#utility.yul\":6559:6562   */\n      dup3\n        /* \"#utility.yul\":6556:6567   */\n      gt\n        /* \"#utility.yul\":6553:6999   */\n      iszero\n      tag_125\n      jumpi\n        /* \"#utility.yul\":6598:6636   */\n      tag_126\n        /* \"#utility.yul\":6630:6635   */\n      dup2\n        /* \"#utility.yul\":6598:6636   */\n      tag_29\n      jump\t// in\n    tag_126:\n        /* \"#utility.yul\":6682:6711   */\n      tag_127\n        /* \"#utility.yul\":6700:6710   */\n      dup5\n        /* \"#utility.yul\":6682:6711   */\n      tag_30\n      jump\t// in\n    tag_127:\n        /* \"#utility.yul\":6672:6680   */\n      dup2\n        /* \"#utility.yul\":6668:6712   */\n      add\n        /* \"#utility.yul\":6865:6867   */\n      0x20\n        /* \"#utility.yul\":6853:6863   */\n      dup6\n        /* \"#utility.yul\":6850:6868   */\n      lt\n        /* \"#utility.yul\":6847:6896   */\n      iszero\n      tag_128\n      jumpi\n        /* \"#utility.yul\":6886:6894   */\n      dup2\n        /* \"#utility.yul\":6871:6894   */\n      swap1\n      pop\n        /* \"#utility.yul\":6847:6896   */\n    tag_128:\n        /* \"#utility.yul\":6909:6989   */\n      tag_129\n        /* \"#utility.yul\":6965:6987   */\n      tag_130\n        /* \"#utility.yul\":6983:6986   */\n      dup6\n        /* \"#utility.yul\":6965:6987   */\n      tag_30\n      jump\t// in\n    tag_130:\n        /* \"#utility.yul\":6955:6963   */\n      dup4\n        /* \"#utility.yul\":6951:6988   */\n      add\n        /* \"#utility.yul\":6938:6949   */\n      dup3\n        /* \"#utility.yul\":6909:6989   */\n      tag_39\n      jump\t// in\n    tag_129:\n        /* \"#utility.yul\":6568:6999   */\n      pop\n      pop\n        /* \"#utility.yul\":6553:6999   */\n    tag_125:\n        /* \"#utility.yul\":6463:7006   */\n      pop\n      pop\n      pop\n      jump\t// out\n        /* \"#utility.yul\":7012:7129   */\n    tag_41:\n        /* \"#utility.yul\":7066:7074   */\n      0x00\n        /* \"#utility.yul\":7116:7121   */\n      dup3\n        /* \"#utility.yul\":7110:7114   */\n      dup3\n        /* \"#utility.yul\":7106:7122   */\n      shr\n        /* \"#utility.yul\":7085:7122   */\n      swap1\n      pop\n        /* \"#utility.yul\":7012:7129   */\n      swap3\n      swap2\n      pop\n      pop\n      jump\t// out\n        /* \"#utility.yul\":7135:7304   */\n    tag_42:\n        /* \"#utility.yul\":7179:7185   */\n      0x00\n        /* \"#utility.yul\":7212:7263   */\n      tag_133\n        /* \"#utility.yul\":7260:7261   */\n      0x00\n        /* \"#utility.yul\":7256:7262   */\n      not\n        /* \"#utility.yul\":7248:7253   */\n      dup5\n        /* \"#utility.yul\":7245:7246   */\n      0x08\n        /* \"#utility.yul\":7241:7254   */\n      mul\n        /* \"#utility.yul\":7212:7263   */\n      tag_41\n      jump\t// in\n    tag_133:\n        /* \"#utility.yul\":7208:7264   */\n      not\n        /* \"#utility.yul\":7293:7297   */\n      dup1\n        /* \"#utility.yul\":7287:7291   */\n      dup4\n        /* \"#utility.yul\":7283:7298   */\n      and\n        /* \"#utility.yul\":7273:7298   */\n      swap2\n      pop\n        /* \"#utility.yul\":7186:7304   */\n      pop\n        /* \"#utility.yul\":7135:7304   */\n      swap3\n      swap2\n      pop\n      pop\n      jump\t// out\n        /* \"#utility.yul\":7309:7604   */\n    tag_43:\n        /* \"#utility.yul\":7385:7389   */\n      0x00\n        /* \"#utility.yul\":7531:7560   */\n      tag_135\n        /* \"#utility.yul\":7556:7559   */\n      dup4\n        /* \"#utility.yul\":7550:7554   */\n      dup4\n        /* \"#utility.yul\":7531:7560   */\n      tag_42\n      jump\t// in\n    tag_135:\n        /* \"#utility.yul\":7523:7560   */\n      swap2\n      pop\n        /* \"#utility.yul\":7593:7596   */\n      dup3\n        /* \"#utility.yul\":7590:7591   */\n      0x02\n        /* \"#utility.yul\":7586:7597   */\n      mul\n        /* \"#utility.yul\":7580:7584   */\n      dup3\n        /* \"#utility.yul\":7577:7598   */\n      or\n        /* \"#utility.yul\":7569:7598   */\n      swap1\n      pop\n        /* \"#utility.yul\":7309:7604   */\n      swap3\n      swap2\n      pop\n      pop\n      jump\t// out\n        /* \"#utility.yul\":7609:9004   */\n    tag_7:\n        /* \"#utility.yul\":7726:7763   */\n      tag_137\n        /* \"#utility.yul\":7759:7762   */\n      dup3\n        /* \"#utility.yul\":7726:7763   */\n      tag_26\n      jump\t// in\n    tag_137:\n        /* \"#utility.yul\":7828:7846   */\n      0xffffffffffffffff\n        /* \"#utility.yul\":7820:7826   */\n      dup2\n        /* \"#utility.yul\":7817:7847   */\n      gt\n        /* \"#utility.yul\":7814:7870   */\n      iszero\n      tag_138\n      jumpi\n        /* \"#utility.yul\":7850:7868   */\n      tag_139\n      tag_16\n      jump\t// in\n    tag_139:\n        /* \"#utility.yul\":7814:7870   */\n    tag_138:\n        /* \"#utility.yul\":7894:7932   */\n      tag_140\n        /* \"#utility.yul\":7926:7930   */\n      dup3\n        /* \"#utility.yul\":7920:7931   */\n      sload\n        /* \"#utility.yul\":7894:7932   */\n      tag_28\n      jump\t// in\n    tag_140:\n        /* \"#utility.yul\":7979:8046   */\n      tag_141\n        /* \"#utility.yul\":8039:8045   */\n      dup3\n        /* \"#utility.yul\":8031:8037   */\n      dup3\n        /* \"#utility.yul\":8025:8029   */\n      dup6\n        /* \"#utility.yul\":7979:8046   */\n      tag_40\n      jump\t// in\n    tag_141:\n        /* \"#utility.yul\":8073:8074   */\n      0x00\n        /* \"#utility.yul\":8097:8101   */\n      0x20\n        /* \"#utility.yul\":8084:8101   */\n      swap1\n      pop\n        /* \"#utility.yul\":8129:8131   */\n      0x1f\n        /* \"#utility.yul\":8121:8127   */\n      dup4\n        /* \"#utility.yul\":8118:8132   */\n      gt\n        /* \"#utility.yul\":8146:8147   */\n      0x01\n        /* \"#utility.yul\":8141:8759   */\n      dup2\n      eq\n      tag_143\n      jumpi\n        /* \"#utility.yul\":8803:8804   */\n      0x00\n        /* \"#utility.yul\":8820:8826   */\n      dup5\n        /* \"#utility.yul\":8817:8894   */\n      iszero\n      tag_144\n      jumpi\n        /* \"#utility.yul\":8869:8878   */\n      dup3\n        /* \"#utility.yul\":8864:8867   */\n      dup8\n        /* \"#utility.yul\":8860:8879   */\n      add\n        /* \"#utility.yul\":8854:8880   */\n      mload\n        /* \"#utility.yul\":8845:8880   */\n      swap1\n      pop\n        /* \"#utility.yul\":8817:8894   */\n    tag_144:\n        /* \"#utility.yul\":8920:8987   */\n      tag_145\n        /* \"#utility.yul\":8980:8986   */\n      dup6\n        /* \"#utility.yul\":8973:8978   */\n      dup3\n        /* \"#utility.yul\":8920:8987   */\n      tag_43\n      jump\t// in\n    tag_145:\n        /* \"#utility.yul\":8914:8918   */\n      dup7\n        /* \"#utility.yul\":8907:8988   */\n      sstore\n        /* \"#utility.yul\":8776:8998   */\n      pop\n        /* \"#utility.yul\":8111:8998   */\n      jump(tag_142)\n        /* \"#utility.yul\":8141:8759   */\n    tag_143:\n        /* \"#utility.yul\":8193:8197   */\n      0x1f\n        /* \"#utility.yul\":8189:8198   */\n      not\n        /* \"#utility.yul\":8181:8187   */\n      dup5\n        /* \"#utility.yul\":8177:8199   */\n      and\n        /* \"#utility.yul\":8227:8264   */\n      tag_146\n        /* \"#utility.yul\":8259:8263   */\n      dup7\n        /* \"#utility.yul\":8227:8264   */\n      tag_29\n      jump\t// in\n    tag_146:\n        /* \"#utility.yul\":8286:8287   */\n      0x00\n        /* \"#utility.yul\":8300:8508   */\n    tag_147:\n        /* \"#utility.yul\":8314:8321   */\n      dup3\n        /* \"#utility.yul\":8311:8312   */\n      dup2\n        /* \"#utility.yul\":8308:8322   */\n      lt\n        /* \"#utility.yul\":8300:8508   */\n      iszero\n      tag_149\n      jumpi\n        /* \"#utility.yul\":8393:8402   */\n      dup5\n        /* \"#utility.yul\":8388:8391   */\n      dup10\n        /* \"#utility.yul\":8384:8403   */\n      add\n        /* \"#utility.yul\":8378:8404   */\n      mload\n        /* \"#utility.yul\":8370:8376   */\n      dup3\n        /* \"#utility.yul\":8363:8405   */\n      sstore\n        /* \"#utility.yul\":8444:8445   */\n      0x01\n        /* \"#utility.yul\":8436:8442   */\n      dup3\n        /* \"#utility.yul\":8432:8446   */\n      add\n        /* \"#utility.yul\":8422:8446   */\n      swap2\n      pop\n        /* \"#utility.yul\":8491:8493   */\n      0x20\n        /* \"#utility.yul\":8480:8489   */\n      dup6\n        /* \"#utility.yul\":8476:8494   */\n      add\n        /* \"#utility.yul\":8463:8494   */\n      swap5\n      pop\n        /* \"#utility.yul\":8337:8341   */\n      0x20\n        /* \"#utility.yul\":8334:8335   */\n      dup2\n        /* \"#utility.yul\":8330:8342   */\n      add\n        /* \"#utility.yul\":8325:8342   */\n      swap1\n      pop\n        /* \"#utility.yul\":8300:8508   */\n      jump(tag_147)\n    tag_149:\n        /* \"#utility.yul\":8536:8542   */\n      dup7\n        /* \"#utility.yul\":8527:8534   */\n      dup4\n        /* \"#utility.yul\":8524:8543   */\n      lt\n        /* \"#utility.yul\":8521:8700   */\n      iszero\n      tag_150\n      jumpi\n        /* \"#utility.yul\":8594:8603   */\n      dup5\n        /* \"#utility.yul\":8589:8592   */\n      dup10\n        /* \"#utility.yul\":8585:8604   */\n      add\n        /* \"#utility.yul\":8579:8605   */\n      mload\n        /* \"#utility.yul\":8637:8685   */\n      tag_151\n        /* \"#utility.yul\":8679:8683   */\n      0x1f\n        /* \"#utility.yul\":8671:8677   */\n      dup10\n        /* \"#utility.yul\":8667:8684   */\n      and\n        /* \"#utility.yul\":8656:8665   */\n      dup3\n        /* \"#utility.yul\":8637:8685   */\n      tag_42\n      jump\t// in\n    tag_151:\n        /* \"#utility.yul\":8629:8635   */\n      dup4\n        /* \"#utility.yul\":8622:8686   */\n      sstore\n        /* \"#utility.yul\":8544:8700   */\n      pop\n        /* \"#utility.yul\":8521:8700   */\n    tag_150:\n        /* \"#utility.yul\":8746:8747   */\n      0x01\n        /* \"#utility.yul\":8742:8743   */\n      0x02\n        /* \"#utility.yul\":8734:8740   */\n      dup9\n        /* \"#utility.yul\":8730:8744   */\n      mul\n        /* \"#utility.yul\":8726:8748   */\n      add\n        /* \"#utility.yul\":8720:8724   */\n      dup9\n        /* \"#utility.yul\":8713:8749   */\n      sstore\n        /* \"#utility.yul\":8148:8759   */\n      pop\n      pop\n      pop\n        /* \"#utility.yul\":8111:8998   */\n    tag_142:\n      pop\n        /* \"#utility.yul\":7701:9004   */\n      pop\n      pop\n      pop\n        /* \"#utility.yul\":7609:9004   */\n      pop\n      pop\n      jump\t// out\n        /* \"HMS.sol\":58:317  contract HMS{... */\n    tag_9:\n      dataSize(sub_0)\n      dup1\n      dataOffset(sub_0)\n      0x00\n      codecopy\n      0x00\n      return\n    stop\n\n    sub_0: assembly {\n            /* \"HMS.sol\":58:317  contract HMS{... */\n          mstore(0x40, 0x80)\n          callvalue\n          dup1\n          iszero\n          tag_1\n          jumpi\n          0x00\n          dup1\n          revert\n        tag_1:\n          pop\n          jumpi(tag_2, lt(calldatasize, 0x04))\n          shr(0xe0, calldataload(0x00))\n          dup1\n          0x262a9dff\n          eq\n          tag_3\n          jumpi\n          dup1\n          0x5aa26c18\n          eq\n          tag_4\n          jumpi\n          dup1\n          0x7c014f80\n          eq\n          tag_5\n          jumpi\n        tag_2:\n          0x00\n          dup1\n          revert\n            /* \"HMS.sol\":110:125  uint public age */\n        tag_3:\n          tag_6\n          tag_7\n          jump\t// in\n        tag_6:\n          mload(0x40)\n          tag_8\n          swap2\n          swap1\n          tag_9\n          jump\t// in\n        tag_8:\n          mload(0x40)\n          dup1\n          swap2\n          sub\n          swap1\n          return\n            /* \"HMS.sol\":77:103  string public Patient_name */\n        tag_4:\n          tag_10\n          tag_11\n          jump\t// in\n        tag_10:\n          mload(0x40)\n          tag_12\n          swap2\n          swap1\n          tag_13\n          jump\t// in\n        tag_12:\n          mload(0x40)\n          dup1\n          swap2\n          sub\n          swap1\n          return\n            /* \"HMS.sol\":132:153  string public disease */\n        tag_5:\n          tag_14\n          tag_15\n          jump\t// in\n        tag_14:\n          mload(0x40)\n          tag_16\n          swap2\n          swap1\n          tag_13\n          jump\t// in\n        tag_16:\n          mload(0x40)\n          dup1\n          swap2\n          sub\n          swap1\n          return\n            /* \"HMS.sol\":110:125  uint public age */\n        tag_7:\n          sload(0x01)\n          dup2\n          jump\t// out\n            /* \"HMS.sol\":77:103  string public Patient_name */\n        tag_11:\n          0x00\n          dup1\n          sload\n          tag_17\n          swap1\n          tag_18\n          jump\t// in\n        tag_17:\n          dup1\n          0x1f\n          add\n          0x20\n          dup1\n          swap2\n          div\n          mul\n          0x20\n          add\n          mload(0x40)\n          swap1\n          dup2\n          add\n          0x40\n          mstore\n          dup1\n          swap3\n          swap2\n          swap1\n          dup2\n          dup2\n          mstore\n          0x20\n          add\n          dup3\n          dup1\n          sload\n          tag_19\n          swap1\n          tag_18\n          jump\t// in\n        tag_19:\n          dup1\n          iszero\n          tag_20\n          jumpi\n          dup1\n          0x1f\n          lt\n          tag_21\n          jumpi\n          0x0100\n          dup1\n          dup4\n          sload\n          div\n          mul\n          dup4\n          mstore\n          swap2\n          0x20\n          add\n          swap2\n          jump(tag_20)\n        tag_21:\n          dup3\n          add\n          swap2\n          swap1\n          0x00\n          mstore\n          keccak256(0x00, 0x20)\n          swap1\n        tag_22:\n          dup2\n          sload\n          dup2\n          mstore\n          swap1\n          0x01\n          add\n          swap1\n          0x20\n          add\n          dup1\n          dup4\n          gt\n          tag_22\n          jumpi\n          dup3\n          swap1\n          sub\n          0x1f\n          and\n          dup3\n          add\n          swap2\n        tag_20:\n          pop\n          pop\n          pop\n          pop\n          pop\n          dup2\n          jump\t// out\n            /* \"HMS.sol\":132:153  string public disease */\n        tag_15:\n          0x02\n          dup1\n          sload\n          tag_23\n          swap1\n          tag_18\n          jump\t// in\n        tag_23:\n          dup1\n          0x1f\n          add\n          0x20\n          dup1\n          swap2\n          div\n          mul\n          0x20\n          add\n          mload(0x40)\n          swap1\n          dup2\n          add\n          0x40\n          mstore\n          dup1\n          swap3\n          swap2\n          swap1\n          dup2\n          dup2\n          mstore\n          0x20\n          add\n          dup3\n          dup1\n          sload\n          tag_24\n          swap1\n          tag_18\n          jump\t// in\n        tag_24:\n          dup1\n          iszero\n          tag_25\n          jumpi\n          dup1\n          0x1f\n          lt\n          tag_26\n          jumpi\n          0x0100\n          dup1\n          dup4\n          sload\n          div\n          mul\n          dup4\n          mstore\n          swap2\n          0x20\n          add\n          swap2\n          jump(tag_25)\n        tag_26:\n          dup3\n          add\n          swap2\n          swap1\n          0x00\n          mstore\n          keccak256(0x00, 0x20)\n          swap1\n        tag_27:\n          dup2\n          sload\n          dup2\n          mstore\n          swap1\n          0x01\n          add\n          swap1\n          0x20\n          add\n          dup1\n          dup4\n          gt\n          tag_27\n          jumpi\n          dup3\n          swap1\n          sub\n          0x1f\n          and\n          dup3\n          add\n          swap2\n        tag_25:\n          pop\n          pop\n          pop\n          pop\n          pop\n          dup2\n          jump\t// out\n            /* \"#utility.yul\":7:84   */\n        tag_28:\n            /* \"#utility.yul\":44:51   */\n          0x00\n            /* \"#utility.yul\":73:78   */\n          dup2\n            /* \"#utility.yul\":62:78   */\n          swap1\n          pop\n            /* \"#utility.yul\":7:84   */\n          swap2\n          swap1\n          pop\n          jump\t// out\n            /* \"#utility.yul\":90:208   */\n        tag_29:\n            /* \"#utility.yul\":177:201   */\n          tag_39\n            /* \"#utility.yul\":195:200   */\n          dup2\n            /* \"#utility.yul\":177:201   */\n          tag_28\n          jump\t// in\n        tag_39:\n            /* \"#utility.yul\":172:175   */\n          dup3\n            /* \"#utility.yul\":165:202   */\n          mstore\n            /* \"#utility.yul\":90:208   */\n          pop\n          pop\n          jump\t// out\n            /* \"#utility.yul\":214:436   */\n        tag_9:\n            /* \"#utility.yul\":307:311   */\n          0x00\n            /* \"#utility.yul\":345:347   */\n          0x20\n            /* \"#utility.yul\":334:343   */\n          dup3\n            /* \"#utility.yul\":330:348   */\n          add\n            /* \"#utility.yul\":322:348   */\n          swap1\n          pop\n            /* \"#utility.yul\":358:429   */\n          tag_41\n            /* \"#utility.yul\":426:427   */\n          0x00\n            /* \"#utility.yul\":415:424   */\n          dup4\n            /* \"#utility.yul\":411:428   */\n          add\n            /* \"#utility.yul\":402:408   */\n          dup5\n            /* \"#utility.yul\":358:429   */\n          tag_29\n          jump\t// in\n        tag_41:\n            /* \"#utility.yul\":214:436   */\n          swap3\n          swap2\n          pop\n          pop\n          jump\t// out\n            /* \"#utility.yul\":442:541   */\n        tag_30:\n            /* \"#utility.yul\":494:500   */\n          0x00\n            /* \"#utility.yul\":528:533   */\n          dup2\n            /* \"#utility.yul\":522:534   */\n          mload\n            /* \"#utility.yul\":512:534   */\n          swap1\n          pop\n            /* \"#utility.yul\":442:541   */\n          swap2\n          swap1\n          pop\n          jump\t// out\n            /* \"#utility.yul\":547:716   */\n        tag_31:\n            /* \"#utility.yul\":631:642   */\n          0x00\n            /* \"#utility.yul\":665:671   */\n          dup3\n            /* \"#utility.yul\":660:663   */\n          dup3\n            /* \"#utility.yul\":653:672   */\n          mstore\n            /* \"#utility.yul\":705:709   */\n          0x20\n            /* \"#utility.yul\":700:703   */\n          dup3\n            /* \"#utility.yul\":696:710   */\n          add\n            /* \"#utility.yul\":681:710   */\n          swap1\n          pop\n            /* \"#utility.yul\":547:716   */\n          swap3\n          swap2\n          pop\n          pop\n          jump\t// out\n            /* \"#utility.yul\":722:968   */\n        tag_32:\n            /* \"#utility.yul\":803:804   */\n          0x00\n            /* \"#utility.yul\":813:926   */\n        tag_45:\n            /* \"#utility.yul\":827:833   */\n          dup4\n            /* \"#utility.yul\":824:825   */\n          dup2\n            /* \"#utility.yul\":821:834   */\n          lt\n            /* \"#utility.yul\":813:926   */\n          iszero\n          tag_47\n          jumpi\n            /* \"#utility.yul\":912:913   */\n          dup1\n            /* \"#utility.yul\":907:910   */\n          dup3\n            /* \"#utility.yul\":903:914   */\n          add\n            /* \"#utility.yul\":897:915   */\n          mload\n            /* \"#utility.yul\":893:894   */\n          dup2\n            /* \"#utility.yul\":888:891   */\n          dup5\n            /* \"#utility.yul\":884:895   */\n          add\n            /* \"#utility.yul\":877:916   */\n          mstore\n            /* \"#utility.yul\":849:851   */\n          0x20\n            /* \"#utility.yul\":846:847   */\n          dup2\n            /* \"#utility.yul\":842:852   */\n          add\n            /* \"#utility.yul\":837:852   */\n          swap1\n          pop\n            /* \"#utility.yul\":813:926   */\n          jump(tag_45)\n        tag_47:\n            /* \"#utility.yul\":960:961   */\n          0x00\n            /* \"#utility.yul\":951:957   */\n          dup5\n            /* \"#utility.yul\":946:949   */\n          dup5\n            /* \"#utility.yul\":942:958   */\n          add\n            /* \"#utility.yul\":935:962   */\n          mstore\n            /* \"#utility.yul\":784:968   */\n          pop\n            /* \"#utility.yul\":722:968   */\n          pop\n          pop\n          pop\n          jump\t// out\n            /* \"#utility.yul\":974:1076   */\n        tag_33:\n            /* \"#utility.yul\":1015:1021   */\n          0x00\n            /* \"#utility.yul\":1066:1068   */\n          0x1f\n            /* \"#utility.yul\":1062:1069   */\n          not\n            /* \"#utility.yul\":1057:1059   */\n          0x1f\n            /* \"#utility.yul\":1050:1055   */\n          dup4\n            /* \"#utility.yul\":1046:1060   */\n          add\n            /* \"#utility.yul\":1042:1070   */\n          and\n            /* \"#utility.yul\":1032:1070   */\n          swap1\n          pop\n            /* \"#utility.yul\":974:1076   */\n          swap2\n          swap1\n          pop\n          jump\t// out\n            /* \"#utility.yul\":1082:1459   */\n        tag_34:\n            /* \"#utility.yul\":1170:1173   */\n          0x00\n            /* \"#utility.yul\":1198:1237   */\n          tag_50\n            /* \"#utility.yul\":1231:1236   */\n          dup3\n            /* \"#utility.yul\":1198:1237   */\n          tag_30\n          jump\t// in\n        tag_50:\n            /* \"#utility.yul\":1253:1324   */\n          tag_51\n            /* \"#utility.yul\":1317:1323   */\n          dup2\n            /* \"#utility.yul\":1312:1315   */\n          dup6\n            /* \"#utility.yul\":1253:1324   */\n          tag_31\n          jump\t// in\n        tag_51:\n            /* \"#utility.yul\":1246:1324   */\n          swap4\n          pop\n            /* \"#utility.yul\":1333:1398   */\n          tag_52\n            /* \"#utility.yul\":1391:1397   */\n          dup2\n            /* \"#utility.yul\":1386:1389   */\n          dup6\n            /* \"#utility.yul\":1379:1383   */\n          0x20\n            /* \"#utility.yul\":1372:1377   */\n          dup7\n            /* \"#utility.yul\":1368:1384   */\n          add\n            /* \"#utility.yul\":1333:1398   */\n          tag_32\n          jump\t// in\n        tag_52:\n            /* \"#utility.yul\":1423:1452   */\n          tag_53\n            /* \"#utility.yul\":1445:1451   */\n          dup2\n            /* \"#utility.yul\":1423:1452   */\n          tag_33\n          jump\t// in\n        tag_53:\n            /* \"#utility.yul\":1418:1421   */\n          dup5\n            /* \"#utility.yul\":1414:1453   */\n          add\n            /* \"#utility.yul\":1407:1453   */\n          swap2\n          pop\n            /* \"#utility.yul\":1174:1459   */\n          pop\n            /* \"#utility.yul\":1082:1459   */\n          swap3\n          swap2\n          pop\n          pop\n          jump\t// out\n            /* \"#utility.yul\":1465:1778   */\n        tag_13:\n            /* \"#utility.yul\":1578:1582   */\n          0x00\n            /* \"#utility.yul\":1616:1618   */\n          0x20\n            /* \"#utility.yul\":1605:1614   */\n          dup3\n            /* \"#utility.yul\":1601:1619   */\n          add\n            /* \"#utility.yul\":1593:1619   */\n          swap1\n          pop\n            /* \"#utility.yul\":1665:1674   */\n          dup2\n            /* \"#utility.yul\":1659:1663   */\n          dup2\n            /* \"#utility.yul\":1655:1675   */\n          sub\n            /* \"#utility.yul\":1651:1652   */\n          0x00\n            /* \"#utility.yul\":1640:1649   */\n          dup4\n            /* \"#utility.yul\":1636:1653   */\n          add\n            /* \"#utility.yul\":1629:1676   */\n          mstore\n            /* \"#utility.yul\":1693:1771   */\n          tag_55\n            /* \"#utility.yul\":1766:1770   */\n          dup2\n            /* \"#utility.yul\":1757:1763   */\n          dup5\n            /* \"#utility.yul\":1693:1771   */\n          tag_34\n          jump\t// in\n        tag_55:\n            /* \"#utility.yul\":1685:1771   */\n          swap1\n          pop\n            /* \"#utility.yul\":1465:1778   */\n          swap3\n          swap2\n          pop\n          pop\n          jump\t// out\n            /* \"#utility.yul\":1784:1964   */\n        tag_35:\n            /* \"#utility.yul\":1832:1909   */\n          0x4e487b7100000000000000000000000000000000000000000000000000000000\n            /* \"#utility.yul\":1829:1830   */\n          0x00\n            /* \"#utility.yul\":1822:1910   */\n          mstore\n            /* \"#utility.yul\":1929:1933   */\n          0x22\n            /* \"#utility.yul\":1926:1927   */\n          0x04\n            /* \"#utility.yul\":1919:1934   */\n          mstore\n            /* \"#utility.yul\":1953:1957   */\n          0x24\n            /* \"#utility.yul\":1950:1951   */\n          0x00\n            /* \"#utility.yul\":1943:1958   */\n          revert\n            /* \"#utility.yul\":1970:2290   */\n        tag_18:\n            /* \"#utility.yul\":2014:2020   */\n          0x00\n            /* \"#utility.yul\":2051:2052   */\n          0x02\n            /* \"#utility.yul\":2045:2049   */\n          dup3\n            /* \"#utility.yul\":2041:2053   */\n          div\n            /* \"#utility.yul\":2031:2053   */\n          swap1\n          pop\n            /* \"#utility.yul\":2098:2099   */\n          0x01\n            /* \"#utility.yul\":2092:2096   */\n          dup3\n            /* \"#utility.yul\":2088:2100   */\n          and\n            /* \"#utility.yul\":2119:2137   */\n          dup1\n            /* \"#utility.yul\":2109:2190   */\n          tag_58\n          jumpi\n            /* \"#utility.yul\":2175:2179   */\n          0x7f\n            /* \"#utility.yul\":2167:2173   */\n          dup3\n            /* \"#utility.yul\":2163:2180   */\n          and\n            /* \"#utility.yul\":2153:2180   */\n          swap2\n          pop\n            /* \"#utility.yul\":2109:2190   */\n        tag_58:\n            /* \"#utility.yul\":2237:2239   */\n          0x20\n            /* \"#utility.yul\":2229:2235   */\n          dup3\n            /* \"#utility.yul\":2226:2240   */\n          lt\n            /* \"#utility.yul\":2206:2224   */\n          dup2\n            /* \"#utility.yul\":2203:2241   */\n          sub\n            /* \"#utility.yul\":2200:2284   */\n          tag_59\n          jumpi\n            /* \"#utility.yul\":2256:2274   */\n          tag_60\n          tag_35\n          jump\t// in\n        tag_60:\n            /* \"#utility.yul\":2200:2284   */\n        tag_59:\n            /* \"#utility.yul\":2021:2290   */\n          pop\n            /* \"#utility.yul\":1970:2290   */\n          swap2\n          swap1\n          pop\n          jump\t// out\n\n        auxdata: 0xa2646970667358221220cef4f8cc2c8f3aeeca8b00f839e238419b20eb84036f207948afcb051743301a64736f6c63430008140033\n    }\n}\n",
				"bytecode": {
					"linkReferences": {},
					"object": "608060405234801562000010575f80fd5b5060405162000f7238038062000f728339818101604052810190620000369190620002a7565b5f8383836040516200004890620000dc565b6200005693929190620003a9565b604051809103905ff08015801562000070573d5f803e3d5ffd5b5090505f81908060018154018082558091505060019003905f5260205f20015f9091909190916101000a81548173ffffffffffffffffffffffffffffffffffffffff021916908373ffffffffffffffffffffffffffffffffffffffff16021790555050505050620003f2565b610905806200066d83390190565b5f604051905090565b5f80fd5b5f80fd5b5f80fd5b5f80fd5b5f601f19601f8301169050919050565b7f4e487b71000000000000000000000000000000000000000000000000000000005f52604160045260245ffd5b6200014b8262000103565b810181811067ffffffffffffffff821117156200016d576200016c62000113565b5b80604052505050565b5f62000181620000ea565b90506200018f828262000140565b919050565b5f67ffffffffffffffff821115620001b157620001b062000113565b5b620001bc8262000103565b9050602081019050919050565b5f5b83811015620001e8578082015181840152602081019050620001cb565b5f8484015250505050565b5f62000209620002038462000194565b62000176565b905082815260208101848484011115620002285762000227620000ff565b5b62000235848285620001c9565b509392505050565b5f82601f830112620002545762000253620000fb565b5b815162000266848260208601620001f3565b91505092915050565b5f819050919050565b62000283816200026f565b81146200028e575f80fd5b50565b5f81519050620002a18162000278565b92915050565b5f805f60608486031215620002c157620002c0620000f3565b5b5f84015167ffffffffffffffff811115620002e157620002e0620000f7565b5b620002ef868287016200023d565b9350506020620003028682870162000291565b925050604084015167ffffffffffffffff811115620003265762000325620000f7565b5b62000334868287016200023d565b9150509250925092565b5f81519050919050565b5f82825260208201905092915050565b5f62000364826200033e565b62000370818562000348565b935062000382818560208601620001c9565b6200038d8162000103565b840191505092915050565b620003a3816200026f565b82525050565b5f6060820190508181035f830152620003c3818662000358565b9050620003d4602083018562000398565b8181036040830152620003e8818462000358565b9050949350505050565b61026d80620004005f395ff3fe608060405234801561000f575f80fd5b5060043610610034575f3560e01c806328b7a10b146100385780639e80380114610068575b5f80fd5b610052600480360381019061004d919061014c565b610098565b60405161005f91906101f1565b60405180910390f35b610082600480360381019061007d919061014c565b6100d2565b60405161008f91906101f1565b60405180910390f35b5f81815481106100a6575f80fd5b905f5260205f20015f915054906101000a900473ffffffffffffffffffffffffffffffffffffffff1681565b5f8082815481106100e6576100e561020a565b5b905f5260205f20015f9054906101000a900473ffffffffffffffffffffffffffffffffffffffff169050919050565b5f80fd5b5f819050919050565b61012b81610119565b8114610135575f80fd5b50565b5f8135905061014681610122565b92915050565b5f6020828403121561016157610160610115565b5b5f61016e84828501610138565b91505092915050565b5f73ffffffffffffffffffffffffffffffffffffffff82169050919050565b5f819050919050565b5f6101b96101b46101af84610177565b610196565b610177565b9050919050565b5f6101ca8261019f565b9050919050565b5f6101db826101c0565b9050919050565b6101eb816101d1565b82525050565b5f6020820190506102045f8301846101e2565b92915050565b7f4e487b71000000000000000000000000000000000000000000000000000000005f52603260045260245ffdfea2646970667358221220b66d1520dd84178d7aa1b12e6d3b9d5826d5eb165ad86fe1d6dc601bacab013b64736f6c63430008140033608060405234801562000010575f80fd5b506040516200090538038062000905833981810160405281019062000036919062000226565b825f9081620000469190620004eb565b508160018190555080600290816200005f9190620004eb565b50505050620005cf565b5f604051905090565b5f80fd5b5f80fd5b5f80fd5b5f80fd5b5f601f19601f8301169050919050565b7f4e487b71000000000000000000000000000000000000000000000000000000005f52604160045260245ffd5b620000ca8262000082565b810181811067ffffffffffffffff82111715620000ec57620000eb62000092565b5b80604052505050565b5f6200010062000069565b90506200010e8282620000bf565b919050565b5f67ffffffffffffffff82111562000130576200012f62000092565b5b6200013b8262000082565b9050602081019050919050565b5f5b83811015620001675780820151818401526020810190506200014a565b5f8484015250505050565b5f62000188620001828462000113565b620000f5565b905082815260208101848484011115620001a757620001a66200007e565b5b620001b484828562000148565b509392505050565b5f82601f830112620001d357620001d26200007a565b5b8151620001e584826020860162000172565b91505092915050565b5f819050919050565b6200020281620001ee565b81146200020d575f80fd5b50565b5f815190506200022081620001f7565b92915050565b5f805f6060848603121562000240576200023f62000072565b5b5f84015167ffffffffffffffff81111562000260576200025f62000076565b5b6200026e86828701620001bc565b9350506020620002818682870162000210565b925050604084015167ffffffffffffffff811115620002a557620002a462000076565b5b620002b386828701620001bc565b9150509250925092565b5f81519050919050565b7f4e487b71000000000000000000000000000000000000000000000000000000005f52602260045260245ffd5b5f60028204905060018216806200030c57607f821691505b602082108103620003225762000321620002c7565b5b50919050565b5f819050815f5260205f209050919050565b5f6020601f8301049050919050565b5f82821b905092915050565b5f60088302620003867fffffffffffffffffffffffffffffffffffffffffffffffffffffffffffffffff8262000349565b62000392868362000349565b95508019841693508086168417925050509392505050565b5f819050919050565b5f620003d3620003cd620003c784620001ee565b620003aa565b620001ee565b9050919050565b5f819050919050565b620003ee83620003b3565b62000406620003fd82620003da565b84845462000355565b825550505050565b5f90565b6200041c6200040e565b62000429818484620003e3565b505050565b5b818110156200045057620004445f8262000412565b6001810190506200042f565b5050565b601f8211156200049f57620004698162000328565b62000474846200033a565b8101602085101562000484578190505b6200049c62000493856200033a565b8301826200042e565b50505b505050565b5f82821c905092915050565b5f620004c15f1984600802620004a4565b1980831691505092915050565b5f620004db8383620004b0565b9150826002028217905092915050565b620004f682620002bd565b67ffffffffffffffff81111562000512576200051162000092565b5b6200051e8254620002f4565b6200052b82828562000454565b5f60209050601f83116001811462000561575f84156200054c578287015190505b620005588582620004ce565b865550620005c7565b601f198416620005718662000328565b5f5b828110156200059a5784890151825560018201915060208501945060208101905062000573565b86831015620005ba5784890151620005b6601f891682620004b0565b8355505b6001600288020188555050505b505050505050565b61032880620005dd5f395ff3fe608060405234801561000f575f80fd5b506004361061003f575f3560e01c8063262a9dff146100435780635aa26c18146100615780637c014f801461007f575b5f80fd5b61004b61009d565b60405161005891906101d2565b60405180910390f35b6100696100a3565b6040516100769190610275565b60405180910390f35b61008761012e565b6040516100949190610275565b60405180910390f35b60015481565b5f80546100af906102c2565b80601f01602080910402602001604051908101604052809291908181526020018280546100db906102c2565b80156101265780601f106100fd57610100808354040283529160200191610126565b820191905f5260205f20905b81548152906001019060200180831161010957829003601f168201915b505050505081565b6002805461013b906102c2565b80601f0160208091040260200160405190810160405280929190818152602001828054610167906102c2565b80156101b25780601f10610189576101008083540402835291602001916101b2565b820191905f5260205f20905b81548152906001019060200180831161019557829003601f168201915b505050505081565b5f819050919050565b6101cc816101ba565b82525050565b5f6020820190506101e55f8301846101c3565b92915050565b5f81519050919050565b5f82825260208201905092915050565b5f5b83811015610222578082015181840152602081019050610207565b5f8484015250505050565b5f601f19601f8301169050919050565b5f610247826101eb565b61025181856101f5565b9350610261818560208601610205565b61026a8161022d565b840191505092915050565b5f6020820190508181035f83015261028d818461023d565b905092915050565b7f4e487b71000000000000000000000000000000000000000000000000000000005f52602260045260245ffd5b5f60028204905060018216806102d957607f821691505b6020821081036102ec576102eb610295565b5b5091905056fea2646970667358221220cef4f8cc2c8f3aeeca8b00f839e238419b20eb84036f207948afcb051743301a64736f6c63430008140033",
					"opcodes": "PUSH1 0x80 PUSH1 0x40 MSTORE CALLVALUE DUP1 ISZERO PUSH3 0x10 JUMPI PUSH0 DUP1 REVERT JUMPDEST POP PUSH1 0x40 MLOAD PUSH3 0xF72 CODESIZE SUB DUP1 PUSH3 0xF72 DUP4 CODECOPY DUP2 DUP2 ADD PUSH1 0x40 MSTORE DUP2 ADD SWAP1 PUSH3 0x36 SWAP2 SWAP1 PUSH3 0x2A7 JUMP JUMPDEST PUSH0 DUP4 DUP4 DUP4 PUSH1 0x40 MLOAD PUSH3 0x48 SWAP1 PUSH3 0xDC JUMP JUMPDEST PUSH3 0x56 SWAP4 SWAP3 SWAP2 SWAP1 PUSH3 0x3A9 JUMP JUMPDEST PUSH1 0x40 MLOAD DUP1 SWAP2 SUB SWAP1 PUSH0 CREATE DUP1 ISZERO DUP1 ISZERO PUSH3 0x70 JUMPI RETURNDATASIZE PUSH0 DUP1 RETURNDATACOPY RETURNDATASIZE PUSH0 REVERT JUMPDEST POP SWAP1 POP PUSH0 DUP2 SWAP1 DUP1 PUSH1 0x1 DUP2 SLOAD ADD DUP1 DUP3 SSTORE DUP1 SWAP2 POP POP PUSH1 0x1 SWAP1 SUB SWAP1 PUSH0 MSTORE PUSH1 0x20 PUSH0 KECCAK256 ADD PUSH0 SWAP1 SWAP2 SWAP1 SWAP2 SWAP1 SWAP2 PUSH2 0x100 EXP DUP2 SLOAD DUP2 PUSH20 0xFFFFFFFFFFFFFFFFFFFFFFFFFFFFFFFFFFFFFFFF MUL NOT AND SWAP1 DUP4 PUSH20 0xFFFFFFFFFFFFFFFFFFFFFFFFFFFFFFFFFFFFFFFF AND MUL OR SWAP1 SSTORE POP POP POP POP POP PUSH3 0x3F2 JUMP JUMPDEST PUSH2 0x905 DUP1 PUSH3 0x66D DUP4 CODECOPY ADD SWAP1 JUMP JUMPDEST PUSH0 PUSH1 0x40 MLOAD SWAP1 POP SWAP1 JUMP JUMPDEST PUSH0 DUP1 REVERT JUMPDEST PUSH0 DUP1 REVERT JUMPDEST PUSH0 DUP1 REVERT JUMPDEST PUSH0 DUP1 REVERT JUMPDEST PUSH0 PUSH1 0x1F NOT PUSH1 0x1F DUP4 ADD AND SWAP1 POP SWAP2 SWAP1 POP JUMP JUMPDEST PUSH32 0x4E487B7100000000000000000000000000000000000000000000000000000000 PUSH0 MSTORE PUSH1 0x41 PUSH1 0x4 MSTORE PUSH1 0x24 PUSH0 REVERT JUMPDEST PUSH3 0x14B DUP3 PUSH3 0x103 JUMP JUMPDEST DUP2 ADD DUP2 DUP2 LT PUSH8 0xFFFFFFFFFFFFFFFF DUP3 GT OR ISZERO PUSH3 0x16D JUMPI PUSH3 0x16C PUSH3 0x113 JUMP JUMPDEST JUMPDEST DUP1 PUSH1 0x40 MSTORE POP POP POP JUMP JUMPDEST PUSH0 PUSH3 0x181 PUSH3 0xEA JUMP JUMPDEST SWAP1 POP PUSH3 0x18F DUP3 DUP3 PUSH3 0x140 JUMP JUMPDEST SWAP2 SWAP1 POP JUMP JUMPDEST PUSH0 PUSH8 0xFFFFFFFFFFFFFFFF DUP3 GT ISZERO PUSH3 0x1B1 JUMPI PUSH3 0x1B0 PUSH3 0x113 JUMP JUMPDEST JUMPDEST PUSH3 0x1BC DUP3 PUSH3 0x103 JUMP JUMPDEST SWAP1 POP PUSH1 0x20 DUP2 ADD SWAP1 POP SWAP2 SWAP1 POP JUMP JUMPDEST PUSH0 JUMPDEST DUP4 DUP2 LT ISZERO PUSH3 0x1E8 JUMPI DUP1 DUP3 ADD MLOAD DUP2 DUP5 ADD MSTORE PUSH1 0x20 DUP2 ADD SWAP1 POP PUSH3 0x1CB JUMP JUMPDEST PUSH0 DUP5 DUP5 ADD MSTORE POP POP POP POP JUMP JUMPDEST PUSH0 PUSH3 0x209 PUSH3 0x203 DUP5 PUSH3 0x194 JUMP JUMPDEST PUSH3 0x176 JUMP JUMPDEST SWAP1 POP DUP3 DUP2 MSTORE PUSH1 0x20 DUP2 ADD DUP5 DUP5 DUP5 ADD GT ISZERO PUSH3 0x228 JUMPI PUSH3 0x227 PUSH3 0xFF JUMP JUMPDEST JUMPDEST PUSH3 0x235 DUP5 DUP3 DUP6 PUSH3 0x1C9 JUMP JUMPDEST POP SWAP4 SWAP3 POP POP POP JUMP JUMPDEST PUSH0 DUP3 PUSH1 0x1F DUP4 ADD SLT PUSH3 0x254 JUMPI PUSH3 0x253 PUSH3 0xFB JUMP JUMPDEST JUMPDEST DUP2 MLOAD PUSH3 0x266 DUP5 DUP3 PUSH1 0x20 DUP7 ADD PUSH3 0x1F3 JUMP JUMPDEST SWAP2 POP POP SWAP3 SWAP2 POP POP JUMP JUMPDEST PUSH0 DUP2 SWAP1 POP SWAP2 SWAP1 POP JUMP JUMPDEST PUSH3 0x283 DUP2 PUSH3 0x26F JUMP JUMPDEST DUP2 EQ PUSH3 0x28E JUMPI PUSH0 DUP1 REVERT JUMPDEST POP JUMP JUMPDEST PUSH0 DUP2 MLOAD SWAP1 POP PUSH3 0x2A1 DUP2 PUSH3 0x278 JUMP JUMPDEST SWAP3 SWAP2 POP POP JUMP JUMPDEST PUSH0 DUP1 PUSH0 PUSH1 0x60 DUP5 DUP7 SUB SLT ISZERO PUSH3 0x2C1 JUMPI PUSH3 0x2C0 PUSH3 0xF3 JUMP JUMPDEST JUMPDEST PUSH0 DUP5 ADD MLOAD PUSH8 0xFFFFFFFFFFFFFFFF DUP2 GT ISZERO PUSH3 0x2E1 JUMPI PUSH3 0x2E0 PUSH3 0xF7 JUMP JUMPDEST JUMPDEST PUSH3 0x2EF DUP7 DUP3 DUP8 ADD PUSH3 0x23D JUMP JUMPDEST SWAP4 POP POP PUSH1 0x20 PUSH3 0x302 DUP7 DUP3 DUP8 ADD PUSH3 0x291 JUMP JUMPDEST SWAP3 POP POP PUSH1 0x40 DUP5 ADD MLOAD PUSH8 0xFFFFFFFFFFFFFFFF DUP2 GT ISZERO PUSH3 0x326 JUMPI PUSH3 0x325 PUSH3 0xF7 JUMP JUMPDEST JUMPDEST PUSH3 0x334 DUP7 DUP3 DUP8 ADD PUSH3 0x23D JUMP JUMPDEST SWAP2 POP POP SWAP3 POP SWAP3 POP SWAP3 JUMP JUMPDEST PUSH0 DUP2 MLOAD SWAP1 POP SWAP2 SWAP1 POP JUMP JUMPDEST PUSH0 DUP3 DUP3 MSTORE PUSH1 0x20 DUP3 ADD SWAP1 POP SWAP3 SWAP2 POP POP JUMP JUMPDEST PUSH0 PUSH3 0x364 DUP3 PUSH3 0x33E JUMP JUMPDEST PUSH3 0x370 DUP2 DUP6 PUSH3 0x348 JUMP JUMPDEST SWAP4 POP PUSH3 0x382 DUP2 DUP6 PUSH1 0x20 DUP7 ADD PUSH3 0x1C9 JUMP JUMPDEST PUSH3 0x38D DUP2 PUSH3 0x103 JUMP JUMPDEST DUP5 ADD SWAP2 POP POP SWAP3 SWAP2 POP POP JUMP JUMPDEST PUSH3 0x3A3 DUP2 PUSH3 0x26F JUMP JUMPDEST DUP3 MSTORE POP POP JUMP JUMPDEST PUSH0 PUSH1 0x60 DUP3 ADD SWAP1 POP DUP2 DUP2 SUB PUSH0 DUP4 ADD MSTORE PUSH3 0x3C3 DUP2 DUP7 PUSH3 0x358 JUMP JUMPDEST SWAP1 POP PUSH3 0x3D4 PUSH1 0x20 DUP4 ADD DUP6 PUSH3 0x398 JUMP JUMPDEST DUP2 DUP2 SUB PUSH1 0x40 DUP4 ADD MSTORE PUSH3 0x3E8 DUP2 DUP5 PUSH3 0x358 JUMP JUMPDEST SWAP1 POP SWAP5 SWAP4 POP POP POP POP JUMP JUMPDEST PUSH2 0x26D DUP1 PUSH3 0x400 PUSH0 CODECOPY PUSH0 RETURN INVALID PUSH1 0x80 PUSH1 0x40 MSTORE CALLVALUE DUP1 ISZERO PUSH2 0xF JUMPI PUSH0 DUP1 REVERT JUMPDEST POP PUSH1 0x4 CALLDATASIZE LT PUSH2 0x34 JUMPI PUSH0 CALLDATALOAD PUSH1 0xE0 SHR DUP1 PUSH4 0x28B7A10B EQ PUSH2 0x38 JUMPI DUP1 PUSH4 0x9E803801 EQ PUSH2 0x68 JUMPI JUMPDEST PUSH0 DUP1 REVERT JUMPDEST PUSH2 0x52 PUSH1 0x4 DUP1 CALLDATASIZE SUB DUP2 ADD SWAP1 PUSH2 0x4D SWAP2 SWAP1 PUSH2 0x14C JUMP JUMPDEST PUSH2 0x98 JUMP JUMPDEST PUSH1 0x40 MLOAD PUSH2 0x5F SWAP2 SWAP1 PUSH2 0x1F1 JUMP JUMPDEST PUSH1 0x40 MLOAD DUP1 SWAP2 SUB SWAP1 RETURN JUMPDEST PUSH2 0x82 PUSH1 0x4 DUP1 CALLDATASIZE SUB DUP2 ADD SWAP1 PUSH2 0x7D SWAP2 SWAP1 PUSH2 0x14C JUMP JUMPDEST PUSH2 0xD2 JUMP JUMPDEST PUSH1 0x40 MLOAD PUSH2 0x8F SWAP2 SWAP1 PUSH2 0x1F1 JUMP JUMPDEST PUSH1 0x40 MLOAD DUP1 SWAP2 SUB SWAP1 RETURN JUMPDEST PUSH0 DUP2 DUP2 SLOAD DUP2 LT PUSH2 0xA6 JUMPI PUSH0 DUP1 REVERT JUMPDEST SWAP1 PUSH0 MSTORE PUSH1 0x20 PUSH0 KECCAK256 ADD PUSH0 SWAP2 POP SLOAD SWAP1 PUSH2 0x100 EXP SWAP1 DIV PUSH20 0xFFFFFFFFFFFFFFFFFFFFFFFFFFFFFFFFFFFFFFFF AND DUP2 JUMP JUMPDEST PUSH0 DUP1 DUP3 DUP2 SLOAD DUP2 LT PUSH2 0xE6 JUMPI PUSH2 0xE5 PUSH2 0x20A JUMP JUMPDEST JUMPDEST SWAP1 PUSH0 MSTORE PUSH1 0x20 PUSH0 KECCAK256 ADD PUSH0 SWAP1 SLOAD SWAP1 PUSH2 0x100 EXP SWAP1 DIV PUSH20 0xFFFFFFFFFFFFFFFFFFFFFFFFFFFFFFFFFFFFFFFF AND SWAP1 POP SWAP2 SWAP1 POP JUMP JUMPDEST PUSH0 DUP1 REVERT JUMPDEST PUSH0 DUP2 SWAP1 POP SWAP2 SWAP1 POP JUMP JUMPDEST PUSH2 0x12B DUP2 PUSH2 0x119 JUMP JUMPDEST DUP2 EQ PUSH2 0x135 JUMPI PUSH0 DUP1 REVERT JUMPDEST POP JUMP JUMPDEST PUSH0 DUP2 CALLDATALOAD SWAP1 POP PUSH2 0x146 DUP2 PUSH2 0x122 JUMP JUMPDEST SWAP3 SWAP2 POP POP JUMP JUMPDEST PUSH0 PUSH1 0x20 DUP3 DUP5 SUB SLT ISZERO PUSH2 0x161 JUMPI PUSH2 0x160 PUSH2 0x115 JUMP JUMPDEST JUMPDEST PUSH0 PUSH2 0x16E DUP5 DUP3 DUP6 ADD PUSH2 0x138 JUMP JUMPDEST SWAP2 POP POP SWAP3 SWAP2 POP POP JUMP JUMPDEST PUSH0 PUSH20 0xFFFFFFFFFFFFFFFFFFFFFFFFFFFFFFFFFFFFFFFF DUP3 AND SWAP1 POP SWAP2 SWAP1 POP JUMP JUMPDEST PUSH0 DUP2 SWAP1 POP SWAP2 SWAP1 POP JUMP JUMPDEST PUSH0 PUSH2 0x1B9 PUSH2 0x1B4 PUSH2 0x1AF DUP5 PUSH2 0x177 JUMP JUMPDEST PUSH2 0x196 JUMP JUMPDEST PUSH2 0x177 JUMP JUMPDEST SWAP1 POP SWAP2 SWAP1 POP JUMP JUMPDEST PUSH0 PUSH2 0x1CA DUP3 PUSH2 0x19F JUMP JUMPDEST SWAP1 POP SWAP2 SWAP1 POP JUMP JUMPDEST PUSH0 PUSH2 0x1DB DUP3 PUSH2 0x1C0 JUMP JUMPDEST SWAP1 POP SWAP2 SWAP1 POP JUMP JUMPDEST PUSH2 0x1EB DUP2 PUSH2 0x1D1 JUMP JUMPDEST DUP3 MSTORE POP POP JUMP JUMPDEST PUSH0 PUSH1 0x20 DUP3 ADD SWAP1 POP PUSH2 0x204 PUSH0 DUP4 ADD DUP5 PUSH2 0x1E2 JUMP JUMPDEST SWAP3 SWAP2 POP POP JUMP JUMPDEST PUSH32 0x4E487B7100000000000000000000000000000000000000000000000000000000 PUSH0 MSTORE PUSH1 0x32 PUSH1 0x4 MSTORE PUSH1 0x24 PUSH0 REVERT INVALID LOG2 PUSH5 0x6970667358 0x22 SLT KECCAK256 0xB6 PUSH14 0x1520DD84178D7AA1B12E6D3B9D58 0x26 0xD5 0xEB AND GAS 0xD8 PUSH16 0xE1D6DC601BACAB013B64736F6C634300 ADDMOD EQ STOP CALLER PUSH1 0x80 PUSH1 0x40 MSTORE CALLVALUE DUP1 ISZERO PUSH3 0x10 JUMPI PUSH0 DUP1 REVERT JUMPDEST POP PUSH1 0x40 MLOAD PUSH3 0x905 CODESIZE SUB DUP1 PUSH3 0x905 DUP4 CODECOPY DUP2 DUP2 ADD PUSH1 0x40 MSTORE DUP2 ADD SWAP1 PUSH3 0x36 SWAP2 SWAP1 PUSH3 0x226 JUMP JUMPDEST DUP3 PUSH0 SWAP1 DUP2 PUSH3 0x46 SWAP2 SWAP1 PUSH3 0x4EB JUMP JUMPDEST POP DUP2 PUSH1 0x1 DUP2 SWAP1 SSTORE POP DUP1 PUSH1 0x2 SWAP1 DUP2 PUSH3 0x5F SWAP2 SWAP1 PUSH3 0x4EB JUMP JUMPDEST POP POP POP POP PUSH3 0x5CF JUMP JUMPDEST PUSH0 PUSH1 0x40 MLOAD SWAP1 POP SWAP1 JUMP JUMPDEST PUSH0 DUP1 REVERT JUMPDEST PUSH0 DUP1 REVERT JUMPDEST PUSH0 DUP1 REVERT JUMPDEST PUSH0 DUP1 REVERT JUMPDEST PUSH0 PUSH1 0x1F NOT PUSH1 0x1F DUP4 ADD AND SWAP1 POP SWAP2 SWAP1 POP JUMP JUMPDEST PUSH32 0x4E487B7100000000000000000000000000000000000000000000000000000000 PUSH0 MSTORE PUSH1 0x41 PUSH1 0x4 MSTORE PUSH1 0x24 PUSH0 REVERT JUMPDEST PUSH3 0xCA DUP3 PUSH3 0x82 JUMP JUMPDEST DUP2 ADD DUP2 DUP2 LT PUSH8 0xFFFFFFFFFFFFFFFF DUP3 GT OR ISZERO PUSH3 0xEC JUMPI PUSH3 0xEB PUSH3 0x92 JUMP JUMPDEST JUMPDEST DUP1 PUSH1 0x40 MSTORE POP POP POP JUMP JUMPDEST PUSH0 PUSH3 0x100 PUSH3 0x69 JUMP JUMPDEST SWAP1 POP PUSH3 0x10E DUP3 DUP3 PUSH3 0xBF JUMP JUMPDEST SWAP2 SWAP1 POP JUMP JUMPDEST PUSH0 PUSH8 0xFFFFFFFFFFFFFFFF DUP3 GT ISZERO PUSH3 0x130 JUMPI PUSH3 0x12F PUSH3 0x92 JUMP JUMPDEST JUMPDEST PUSH3 0x13B DUP3 PUSH3 0x82 JUMP JUMPDEST SWAP1 POP PUSH1 0x20 DUP2 ADD SWAP1 POP SWAP2 SWAP1 POP JUMP JUMPDEST PUSH0 JUMPDEST DUP4 DUP2 LT ISZERO PUSH3 0x167 JUMPI DUP1 DUP3 ADD MLOAD DUP2 DUP5 ADD MSTORE PUSH1 0x20 DUP2 ADD SWAP1 POP PUSH3 0x14A JUMP JUMPDEST PUSH0 DUP5 DUP5 ADD MSTORE POP POP POP POP JUMP JUMPDEST PUSH0 PUSH3 0x188 PUSH3 0x182 DUP5 PUSH3 0x113 JUMP JUMPDEST PUSH3 0xF5 JUMP JUMPDEST SWAP1 POP DUP3 DUP2 MSTORE PUSH1 0x20 DUP2 ADD DUP5 DUP5 DUP5 ADD GT ISZERO PUSH3 0x1A7 JUMPI PUSH3 0x1A6 PUSH3 0x7E JUMP JUMPDEST JUMPDEST PUSH3 0x1B4 DUP5 DUP3 DUP6 PUSH3 0x148 JUMP JUMPDEST POP SWAP4 SWAP3 POP POP POP JUMP JUMPDEST PUSH0 DUP3 PUSH1 0x1F DUP4 ADD SLT PUSH3 0x1D3 JUMPI PUSH3 0x1D2 PUSH3 0x7A JUMP JUMPDEST JUMPDEST DUP2 MLOAD PUSH3 0x1E5 DUP5 DUP3 PUSH1 0x20 DUP7 ADD PUSH3 0x172 JUMP JUMPDEST SWAP2 POP POP SWAP3 SWAP2 POP POP JUMP JUMPDEST PUSH0 DUP2 SWAP1 POP SWAP2 SWAP1 POP JUMP JUMPDEST PUSH3 0x202 DUP2 PUSH3 0x1EE JUMP JUMPDEST DUP2 EQ PUSH3 0x20D JUMPI PUSH0 DUP1 REVERT JUMPDEST POP JUMP JUMPDEST PUSH0 DUP2 MLOAD SWAP1 POP PUSH3 0x220 DUP2 PUSH3 0x1F7 JUMP JUMPDEST SWAP3 SWAP2 POP POP JUMP JUMPDEST PUSH0 DUP1 PUSH0 PUSH1 0x60 DUP5 DUP7 SUB SLT ISZERO PUSH3 0x240 JUMPI PUSH3 0x23F PUSH3 0x72 JUMP JUMPDEST JUMPDEST PUSH0 DUP5 ADD MLOAD PUSH8 0xFFFFFFFFFFFFFFFF DUP2 GT ISZERO PUSH3 0x260 JUMPI PUSH3 0x25F PUSH3 0x76 JUMP JUMPDEST JUMPDEST PUSH3 0x26E DUP7 DUP3 DUP8 ADD PUSH3 0x1BC JUMP JUMPDEST SWAP4 POP POP PUSH1 0x20 PUSH3 0x281 DUP7 DUP3 DUP8 ADD PUSH3 0x210 JUMP JUMPDEST SWAP3 POP POP PUSH1 0x40 DUP5 ADD MLOAD PUSH8 0xFFFFFFFFFFFFFFFF DUP2 GT ISZERO PUSH3 0x2A5 JUMPI PUSH3 0x2A4 PUSH3 0x76 JUMP JUMPDEST JUMPDEST PUSH3 0x2B3 DUP7 DUP3 DUP8 ADD PUSH3 0x1BC JUMP JUMPDEST SWAP2 POP POP SWAP3 POP SWAP3 POP SWAP3 JUMP JUMPDEST PUSH0 DUP2 MLOAD SWAP1 POP SWAP2 SWAP1 POP JUMP JUMPDEST PUSH32 0x4E487B7100000000000000000000000000000000000000000000000000000000 PUSH0 MSTORE PUSH1 0x22 PUSH1 0x4 MSTORE PUSH1 0x24 PUSH0 REVERT JUMPDEST PUSH0 PUSH1 0x2 DUP3 DIV SWAP1 POP PUSH1 0x1 DUP3 AND DUP1 PUSH3 0x30C JUMPI PUSH1 0x7F DUP3 AND SWAP2 POP JUMPDEST PUSH1 0x20 DUP3 LT DUP2 SUB PUSH3 0x322 JUMPI PUSH3 0x321 PUSH3 0x2C7 JUMP JUMPDEST JUMPDEST POP SWAP2 SWAP1 POP JUMP JUMPDEST PUSH0 DUP2 SWAP1 POP DUP2 PUSH0 MSTORE PUSH1 0x20 PUSH0 KECCAK256 SWAP1 POP SWAP2 SWAP1 POP JUMP JUMPDEST PUSH0 PUSH1 0x20 PUSH1 0x1F DUP4 ADD DIV SWAP1 POP SWAP2 SWAP1 POP JUMP JUMPDEST PUSH0 DUP3 DUP3 SHL SWAP1 POP SWAP3 SWAP2 POP POP JUMP JUMPDEST PUSH0 PUSH1 0x8 DUP4 MUL PUSH3 0x386 PUSH32 0xFFFFFFFFFFFFFFFFFFFFFFFFFFFFFFFFFFFFFFFFFFFFFFFFFFFFFFFFFFFFFFFF DUP3 PUSH3 0x349 JUMP JUMPDEST PUSH3 0x392 DUP7 DUP4 PUSH3 0x349 JUMP JUMPDEST SWAP6 POP DUP1 NOT DUP5 AND SWAP4 POP DUP1 DUP7 AND DUP5 OR SWAP3 POP POP POP SWAP4 SWAP3 POP POP POP JUMP JUMPDEST PUSH0 DUP2 SWAP1 POP SWAP2 SWAP1 POP JUMP JUMPDEST PUSH0 PUSH3 0x3D3 PUSH3 0x3CD PUSH3 0x3C7 DUP5 PUSH3 0x1EE JUMP JUMPDEST PUSH3 0x3AA JUMP JUMPDEST PUSH3 0x1EE JUMP JUMPDEST SWAP1 POP SWAP2 SWAP1 POP JUMP JUMPDEST PUSH0 DUP2 SWAP1 POP SWAP2 SWAP1 POP JUMP JUMPDEST PUSH3 0x3EE DUP4 PUSH3 0x3B3 JUMP JUMPDEST PUSH3 0x406 PUSH3 0x3FD DUP3 PUSH3 0x3DA JUMP JUMPDEST DUP5 DUP5 SLOAD PUSH3 0x355 JUMP JUMPDEST DUP3 SSTORE POP POP POP POP JUMP JUMPDEST PUSH0 SWAP1 JUMP JUMPDEST PUSH3 0x41C PUSH3 0x40E JUMP JUMPDEST PUSH3 0x429 DUP2 DUP5 DUP5 PUSH3 0x3E3 JUMP JUMPDEST POP POP POP JUMP JUMPDEST JUMPDEST DUP2 DUP2 LT ISZERO PUSH3 0x450 JUMPI PUSH3 0x444 PUSH0 DUP3 PUSH3 0x412 JUMP JUMPDEST PUSH1 0x1 DUP2 ADD SWAP1 POP PUSH3 0x42F JUMP JUMPDEST POP POP JUMP JUMPDEST PUSH1 0x1F DUP3 GT ISZERO PUSH3 0x49F JUMPI PUSH3 0x469 DUP2 PUSH3 0x328 JUMP JUMPDEST PUSH3 0x474 DUP5 PUSH3 0x33A JUMP JUMPDEST DUP2 ADD PUSH1 0x20 DUP6 LT ISZERO PUSH3 0x484 JUMPI DUP2 SWAP1 POP JUMPDEST PUSH3 0x49C PUSH3 0x493 DUP6 PUSH3 0x33A JUMP JUMPDEST DUP4 ADD DUP3 PUSH3 0x42E JUMP JUMPDEST POP POP JUMPDEST POP POP POP JUMP JUMPDEST PUSH0 DUP3 DUP3 SHR SWAP1 POP SWAP3 SWAP2 POP POP JUMP JUMPDEST PUSH0 PUSH3 0x4C1 PUSH0 NOT DUP5 PUSH1 0x8 MUL PUSH3 0x4A4 JUMP JUMPDEST NOT DUP1 DUP4 AND SWAP2 POP POP SWAP3 SWAP2 POP POP JUMP JUMPDEST PUSH0 PUSH3 0x4DB DUP4 DUP4 PUSH3 0x4B0 JUMP JUMPDEST SWAP2 POP DUP3 PUSH1 0x2 MUL DUP3 OR SWAP1 POP SWAP3 SWAP2 POP POP JUMP JUMPDEST PUSH3 0x4F6 DUP3 PUSH3 0x2BD JUMP JUMPDEST PUSH8 0xFFFFFFFFFFFFFFFF DUP2 GT ISZERO PUSH3 0x512 JUMPI PUSH3 0x511 PUSH3 0x92 JUMP JUMPDEST JUMPDEST PUSH3 0x51E DUP3 SLOAD PUSH3 0x2F4 JUMP JUMPDEST PUSH3 0x52B DUP3 DUP3 DUP6 PUSH3 0x454 JUMP JUMPDEST PUSH0 PUSH1 0x20 SWAP1 POP PUSH1 0x1F DUP4 GT PUSH1 0x1 DUP2 EQ PUSH3 0x561 JUMPI PUSH0 DUP5 ISZERO PUSH3 0x54C JUMPI DUP3 DUP8 ADD MLOAD SWAP1 POP JUMPDEST PUSH3 0x558 DUP6 DUP3 PUSH3 0x4CE JUMP JUMPDEST DUP7 SSTORE POP PUSH3 0x5C7 JUMP JUMPDEST PUSH1 0x1F NOT DUP5 AND PUSH3 0x571 DUP7 PUSH3 0x328 JUMP JUMPDEST PUSH0 JUMPDEST DUP3 DUP2 LT ISZERO PUSH3 0x59A JUMPI DUP5 DUP10 ADD MLOAD DUP3 SSTORE PUSH1 0x1 DUP3 ADD SWAP2 POP PUSH1 0x20 DUP6 ADD SWAP5 POP PUSH1 0x20 DUP2 ADD SWAP1 POP PUSH3 0x573 JUMP JUMPDEST DUP7 DUP4 LT ISZERO PUSH3 0x5BA JUMPI DUP5 DUP10 ADD MLOAD PUSH3 0x5B6 PUSH1 0x1F DUP10 AND DUP3 PUSH3 0x4B0 JUMP JUMPDEST DUP4 SSTORE POP JUMPDEST PUSH1 0x1 PUSH1 0x2 DUP9 MUL ADD DUP9 SSTORE POP POP POP JUMPDEST POP POP POP POP POP POP JUMP JUMPDEST PUSH2 0x328 DUP1 PUSH3 0x5DD PUSH0 CODECOPY PUSH0 RETURN INVALID PUSH1 0x80 PUSH1 0x40 MSTORE CALLVALUE DUP1 ISZERO PUSH2 0xF JUMPI PUSH0 DUP1 REVERT JUMPDEST POP PUSH1 0x4 CALLDATASIZE LT PUSH2 0x3F JUMPI PUSH0 CALLDATALOAD PUSH1 0xE0 SHR DUP1 PUSH4 0x262A9DFF EQ PUSH2 0x43 JUMPI DUP1 PUSH4 0x5AA26C18 EQ PUSH2 0x61 JUMPI DUP1 PUSH4 0x7C014F80 EQ PUSH2 0x7F JUMPI JUMPDEST PUSH0 DUP1 REVERT JUMPDEST PUSH2 0x4B PUSH2 0x9D JUMP JUMPDEST PUSH1 0x40 MLOAD PUSH2 0x58 SWAP2 SWAP1 PUSH2 0x1D2 JUMP JUMPDEST PUSH1 0x40 MLOAD DUP1 SWAP2 SUB SWAP1 RETURN JUMPDEST PUSH2 0x69 PUSH2 0xA3 JUMP JUMPDEST PUSH1 0x40 MLOAD PUSH2 0x76 SWAP2 SWAP1 PUSH2 0x275 JUMP JUMPDEST PUSH1 0x40 MLOAD DUP1 SWAP2 SUB SWAP1 RETURN JUMPDEST PUSH2 0x87 PUSH2 0x12E JUMP JUMPDEST PUSH1 0x40 MLOAD PUSH2 0x94 SWAP2 SWAP1 PUSH2 0x275 JUMP JUMPDEST PUSH1 0x40 MLOAD DUP1 SWAP2 SUB SWAP1 RETURN JUMPDEST PUSH1 0x1 SLOAD DUP2 JUMP JUMPDEST PUSH0 DUP1 SLOAD PUSH2 0xAF SWAP1 PUSH2 0x2C2 JUMP JUMPDEST DUP1 PUSH1 0x1F ADD PUSH1 0x20 DUP1 SWAP2 DIV MUL PUSH1 0x20 ADD PUSH1 0x40 MLOAD SWAP1 DUP2 ADD PUSH1 0x40 MSTORE DUP1 SWAP3 SWAP2 SWAP1 DUP2 DUP2 MSTORE PUSH1 0x20 ADD DUP3 DUP1 SLOAD PUSH2 0xDB SWAP1 PUSH2 0x2C2 JUMP JUMPDEST DUP1 ISZERO PUSH2 0x126 JUMPI DUP1 PUSH1 0x1F LT PUSH2 0xFD JUMPI PUSH2 0x100 DUP1 DUP4 SLOAD DIV MUL DUP4 MSTORE SWAP2 PUSH1 0x20 ADD SWAP2 PUSH2 0x126 JUMP JUMPDEST DUP3 ADD SWAP2 SWAP1 PUSH0 MSTORE PUSH1 0x20 PUSH0 KECCAK256 SWAP1 JUMPDEST DUP2 SLOAD DUP2 MSTORE SWAP1 PUSH1 0x1 ADD SWAP1 PUSH1 0x20 ADD DUP1 DUP4 GT PUSH2 0x109 JUMPI DUP3 SWAP1 SUB PUSH1 0x1F AND DUP3 ADD SWAP2 JUMPDEST POP POP POP POP POP DUP2 JUMP JUMPDEST PUSH1 0x2 DUP1 SLOAD PUSH2 0x13B SWAP1 PUSH2 0x2C2 JUMP JUMPDEST DUP1 PUSH1 0x1F ADD PUSH1 0x20 DUP1 SWAP2 DIV MUL PUSH1 0x20 ADD PUSH1 0x40 MLOAD SWAP1 DUP2 ADD PUSH1 0x40 MSTORE DUP1 SWAP3 SWAP2 SWAP1 DUP2 DUP2 MSTORE PUSH1 0x20 ADD DUP3 DUP1 SLOAD PUSH2 0x167 SWAP1 PUSH2 0x2C2 JUMP JUMPDEST DUP1 ISZERO PUSH2 0x1B2 JUMPI DUP1 PUSH1 0x1F LT PUSH2 0x189 JUMPI PUSH2 0x100 DUP1 DUP4 SLOAD DIV MUL DUP4 MSTORE SWAP2 PUSH1 0x20 ADD SWAP2 PUSH2 0x1B2 JUMP JUMPDEST DUP3 ADD SWAP2 SWAP1 PUSH0 MSTORE PUSH1 0x20 PUSH0 KECCAK256 SWAP1 JUMPDEST DUP2 SLOAD DUP2 MSTORE SWAP1 PUSH1 0x1 ADD SWAP1 PUSH1 0x20 ADD DUP1 DUP4 GT PUSH2 0x195 JUMPI DUP3 SWAP1 SUB PUSH1 0x1F AND DUP3 ADD SWAP2 JUMPDEST POP POP POP POP POP DUP2 JUMP JUMPDEST PUSH0 DUP2 SWAP1 POP SWAP2 SWAP1 POP JUMP JUMPDEST PUSH2 0x1CC DUP2 PUSH2 0x1BA JUMP JUMPDEST DUP3 MSTORE POP POP JUMP JUMPDEST PUSH0 PUSH1 0x20 DUP3 ADD SWAP1 POP PUSH2 0x1E5 PUSH0 DUP4 ADD DUP5 PUSH2 0x1C3 JUMP JUMPDEST SWAP3 SWAP2 POP POP JUMP JUMPDEST PUSH0 DUP2 MLOAD SWAP1 POP SWAP2 SWAP1 POP JUMP JUMPDEST PUSH0 DUP3 DUP3 MSTORE PUSH1 0x20 DUP3 ADD SWAP1 POP SWAP3 SWAP2 POP POP JUMP JUMPDEST PUSH0 JUMPDEST DUP4 DUP2 LT ISZERO PUSH2 0x222 JUMPI DUP1 DUP3 ADD MLOAD DUP2 DUP5 ADD MSTORE PUSH1 0x20 DUP2 ADD SWAP1 POP PUSH2 0x207 JUMP JUMPDEST PUSH0 DUP5 DUP5 ADD MSTORE POP POP POP POP JUMP JUMPDEST PUSH0 PUSH1 0x1F NOT PUSH1 0x1F DUP4 ADD AND SWAP1 POP SWAP2 SWAP1 POP JUMP JUMPDEST PUSH0 PUSH2 0x247 DUP3 PUSH2 0x1EB JUMP JUMPDEST PUSH2 0x251 DUP2 DUP6 PUSH2 0x1F5 JUMP JUMPDEST SWAP4 POP PUSH2 0x261 DUP2 DUP6 PUSH1 0x20 DUP7 ADD PUSH2 0x205 JUMP JUMPDEST PUSH2 0x26A DUP2 PUSH2 0x22D JUMP JUMPDEST DUP5 ADD SWAP2 POP POP SWAP3 SWAP2 POP POP JUMP JUMPDEST PUSH0 PUSH1 0x20 DUP3 ADD SWAP1 POP DUP2 DUP2 SUB PUSH0 DUP4 ADD MSTORE PUSH2 0x28D DUP2 DUP5 PUSH2 0x23D JUMP JUMPDEST SWAP1 POP SWAP3 SWAP2 POP POP JUMP JUMPDEST PUSH32 0x4E487B7100000000000000000000000000000000000000000000000000000000 PUSH0 MSTORE PUSH1 0x22 PUSH1 0x4 MSTORE PUSH1 0x24 PUSH0 REVERT JUMPDEST PUSH0 PUSH1 0x2 DUP3 DIV SWAP1 POP PUSH1 0x1 DUP3 AND DUP1 PUSH2 0x2D9 JUMPI PUSH1 0x7F DUP3 AND SWAP2 POP JUMPDEST PUSH1 0x20 DUP3 LT DUP2 SUB PUSH2 0x2EC JUMPI PUSH2 0x2EB PUSH2 0x295 JUMP JUMPDEST JUMPDEST POP SWAP2 SWAP1 POP JUMP INVALID LOG2 PUSH5 0x6970667358 0x22 SLT KECCAK256 0xCE DELEGATECALL 0xF8 0xCC 0x2C DUP16 GASPRICE 0xEE 0xCA DUP12 STOP 0xF8 CODECOPY 0xE2 CODESIZE COINBASE SWAP12 KECCAK256 0xEB DUP5 SUB PUSH16 0x207948AFCB051743301A64736F6C6343 STOP ADDMOD EQ STOP CALLER "
				},
				"gasEstimates": {
					"creation": {
						"codeDepositCost": "124200",
						"executionCost": "infinite",
						"totalCost": "infinite"
					},
					"external": {
						"Patient(uint256)": "infinite",
						"retrive(uint256)": "infinite"
					}
				},
				"methodIdentifiers": {
					"Patient(uint256)": "28b7a10b",
					"retrive(uint256)": "9e803801"
				}
			},
			"storageLayout": {
				"storage": [
					{
						"astId": 34,
						"contract": "HMS.sol:newHMS",
						"label": "Patient",
						"offset": 0,
						"slot": "0",
						"type": "t_array(t_contract(HMS)30)dyn_storage"
					}
				],
				"types": {
					"t_array(t_contract(HMS)30)dyn_storage": {
						"base": "t_contract(HMS)30",
						"encoding": "dynamic_array",
						"label": "contract HMS[]",
						"numberOfBytes": "32"
					},
					"t_contract(HMS)30": {
						"encoding": "inplace",
						"label": "contract HMS",
						"numberOfBytes": "20"
					}
				}
			},
			"userdoc": {
				"kind": "user",
				"methods": {},
				"version": 1
			}
		}
	}
}