{
	"marketplace.sol": {
		"VIP_buyer": {
			"abi": [
				{
					"inputs": [
						{
							"internalType": "uint256",
							"name": "dispercentage",
							"type": "uint256"
						}
					],
					"stateMutability": "nonpayable",
					"type": "constructor"
				},
				{
					"inputs": [
						{
							"internalType": "string",
							"name": "reason",
							"type": "string"
						}
					],
					"name": "custom",
					"type": "error"
				},
				{
					"anonymous": false,
					"inputs": [
						{
							"indexed": true,
							"internalType": "address",
							"name": "buyer_address",
							"type": "address"
						},
						{
							"indexed": true,
							"internalType": "address",
							"name": "sender_address",
							"type": "address"
						},
						{
							"indexed": false,
							"internalType": "uint256",
							"name": "value",
							"type": "uint256"
						}
					],
					"name": "purchase",
					"type": "event"
				},
				{
					"inputs": [
						{
							"internalType": "address",
							"name": "",
							"type": "address"
						}
					],
					"name": "balance",
					"outputs": [
						{
							"internalType": "uint256",
							"name": "",
							"type": "uint256"
						}
					],
					"stateMutability": "view",
					"type": "function"
				},
				{
					"inputs": [
						{
							"internalType": "address",
							"name": "sender",
							"type": "address"
						},
						{
							"internalType": "address",
							"name": "buyer",
							"type": "address"
						},
						{
							"internalType": "uint256",
							"name": "C_P",
							"type": "uint256"
						}
					],
					"name": "buy",
					"outputs": [],
					"stateMutability": "nonpayable",
					"type": "function"
				},
				{
					"inputs": [],
					"name": "discount",
					"outputs": [
						{
							"internalType": "uint256",
							"name": "",
							"type": "uint256"
						}
					],
					"stateMutability": "view",
					"type": "function"
				},
				{
					"inputs": [],
					"name": "finalAmount",
					"outputs": [
						{
							"internalType": "uint256",
							"name": "",
							"type": "uint256"
						}
					],
					"stateMutability": "view",
					"type": "function"
				},
				{
					"inputs": [
						{
							"internalType": "address",
							"name": "youraddress",
							"type": "address"
						},
						{
							"internalType": "uint256",
							"name": "initial_bal",
							"type": "uint256"
						}
					],
					"name": "register",
					"outputs": [],
					"stateMutability": "nonpayable",
					"type": "function"
				},
				{
					"inputs": [
						{
							"internalType": "address",
							"name": "sender",
							"type": "address"
						},
						{
							"internalType": "address",
							"name": "buyer",
							"type": "address"
						},
						{
							"internalType": "uint256",
							"name": "S_P",
							"type": "uint256"
						}
					],
					"name": "sell",
					"outputs": [
						{
							"internalType": "string",
							"name": "",
							"type": "string"
						}
					],
					"stateMutability": "nonpayable",
					"type": "function"
				}
			],
			"devdoc": {
				"kind": "dev",
				"methods": {},
				"version": 1
			},
			"evm": {
				"assembly": "    /* \"marketplace.sol\":1994:2627  contract VIP_buyer is marketplace{... */\n  mstore(0x40, 0x80)\n    /* \"marketplace.sol\":2091:2172  constructor(uint dispercentage){... */\n  callvalue\n  dup1\n  iszero\n  tag_1\n  jumpi\n  0x00\n  dup1\n  revert\ntag_1:\n  pop\n  mload(0x40)\n  sub(codesize, bytecodeSize)\n  dup1\n  bytecodeSize\n  dup4\n  codecopy\n  dup2\n  dup2\n  add\n  0x40\n  mstore\n  dup2\n  add\n  swap1\n  tag_2\n  swap2\n  swap1\n  tag_3\n  jump\t// in\ntag_2:\n    /* \"marketplace.sol\":2151:2164  dispercentage */\n  dup1\n    /* \"marketplace.sol\":2141:2149  discount */\n  0x01\n    /* \"marketplace.sol\":2141:2164  discount= dispercentage */\n  dup2\n  swap1\n  sstore\n  pop\n    /* \"marketplace.sol\":2091:2172  constructor(uint dispercentage){... */\n  pop\n    /* \"marketplace.sol\":1994:2627  contract VIP_buyer is marketplace{... */\n  jump(tag_6)\n    /* \"#utility.yul\":88:205   */\ntag_8:\n    /* \"#utility.yul\":197:198   */\n  0x00\n    /* \"#utility.yul\":194:195   */\n  dup1\n    /* \"#utility.yul\":187:199   */\n  revert\n    /* \"#utility.yul\":334:411   */\ntag_10:\n    /* \"#utility.yul\":371:378   */\n  0x00\n    /* \"#utility.yul\":400:405   */\n  dup2\n    /* \"#utility.yul\":389:405   */\n  swap1\n  pop\n    /* \"#utility.yul\":334:411   */\n  swap2\n  swap1\n  pop\n  jump\t// out\n    /* \"#utility.yul\":417:539   */\ntag_11:\n    /* \"#utility.yul\":490:514   */\n  tag_19\n    /* \"#utility.yul\":508:513   */\n  dup2\n    /* \"#utility.yul\":490:514   */\n  tag_10\n  jump\t// in\ntag_19:\n    /* \"#utility.yul\":483:488   */\n  dup2\n    /* \"#utility.yul\":480:515   */\n  eq\n    /* \"#utility.yul\":470:533   */\n  tag_20\n  jumpi\n    /* \"#utility.yul\":529:530   */\n  0x00\n    /* \"#utility.yul\":526:527   */\n  dup1\n    /* \"#utility.yul\":519:531   */\n  revert\n    /* \"#utility.yul\":470:533   */\ntag_20:\n    /* \"#utility.yul\":417:539   */\n  pop\n  jump\t// out\n    /* \"#utility.yul\":545:688   */\ntag_12:\n    /* \"#utility.yul\":602:607   */\n  0x00\n    /* \"#utility.yul\":633:639   */\n  dup2\n    /* \"#utility.yul\":627:640   */\n  mload\n    /* \"#utility.yul\":618:640   */\n  swap1\n  pop\n    /* \"#utility.yul\":649:682   */\n  tag_22\n    /* \"#utility.yul\":676:681   */\n  dup2\n    /* \"#utility.yul\":649:682   */\n  tag_11\n  jump\t// in\ntag_22:\n    /* \"#utility.yul\":545:688   */\n  swap3\n  swap2\n  pop\n  pop\n  jump\t// out\n    /* \"#utility.yul\":694:1045   */\ntag_3:\n    /* \"#utility.yul\":764:770   */\n  0x00\n    /* \"#utility.yul\":813:815   */\n  0x20\n    /* \"#utility.yul\":801:810   */\n  dup3\n    /* \"#utility.yul\":792:799   */\n  dup5\n    /* \"#utility.yul\":788:811   */\n  sub\n    /* \"#utility.yul\":784:816   */\n  slt\n    /* \"#utility.yul\":781:900   */\n  iszero\n  tag_24\n  jumpi\n    /* \"#utility.yul\":819:898   */\n  tag_25\n  tag_8\n  jump\t// in\ntag_25:\n    /* \"#utility.yul\":781:900   */\ntag_24:\n    /* \"#utility.yul\":939:940   */\n  0x00\n    /* \"#utility.yul\":964:1028   */\n  tag_26\n    /* \"#utility.yul\":1020:1027   */\n  dup5\n    /* \"#utility.yul\":1011:1017   */\n  dup3\n    /* \"#utility.yul\":1000:1009   */\n  dup6\n    /* \"#utility.yul\":996:1018   */\n  add\n    /* \"#utility.yul\":964:1028   */\n  tag_12\n  jump\t// in\ntag_26:\n    /* \"#utility.yul\":954:1028   */\n  swap2\n  pop\n    /* \"#utility.yul\":910:1038   */\n  pop\n    /* \"#utility.yul\":694:1045   */\n  swap3\n  swap2\n  pop\n  pop\n  jump\t// out\n    /* \"marketplace.sol\":1994:2627  contract VIP_buyer is marketplace{... */\ntag_6:\n  dataSize(sub_0)\n  dup1\n  dataOffset(sub_0)\n  0x00\n  codecopy\n  0x00\n  return\nstop\n\nsub_0: assembly {\n        /* \"marketplace.sol\":1994:2627  contract VIP_buyer is marketplace{... */\n      mstore(0x40, 0x80)\n      callvalue\n      dup1\n      iszero\n      tag_1\n      jumpi\n      0x00\n      dup1\n      revert\n    tag_1:\n      pop\n      jumpi(tag_2, lt(calldatasize, 0x04))\n      shr(0xe0, calldataload(0x00))\n      dup1\n      0x153e66e6\n      eq\n      tag_3\n      jumpi\n      dup1\n      0x6b6f4a9d\n      eq\n      tag_4\n      jumpi\n      dup1\n      0x6d705ebb\n      eq\n      tag_5\n      jumpi\n      dup1\n      0xcae270b6\n      eq\n      tag_6\n      jumpi\n      dup1\n      0xe3d670d7\n      eq\n      tag_7\n      jumpi\n      dup1\n      0xecf5ac89\n      eq\n      tag_8\n      jumpi\n    tag_2:\n      0x00\n      dup1\n      revert\n        /* \"marketplace.sol\":2180:2622  function buy(address sender, address buyer, uint C_P) public virtual override {... */\n    tag_3:\n      tag_9\n      0x04\n      dup1\n      calldatasize\n      sub\n      dup2\n      add\n      swap1\n      tag_10\n      swap2\n      swap1\n      tag_11\n      jump\t// in\n    tag_10:\n      tag_12\n      jump\t// in\n    tag_9:\n      stop\n        /* \"marketplace.sol\":2034:2054  uint public discount */\n    tag_4:\n      tag_13\n      tag_14\n      jump\t// in\n    tag_13:\n      mload(0x40)\n      tag_15\n      swap2\n      swap1\n      tag_16\n      jump\t// in\n    tag_15:\n      mload(0x40)\n      dup1\n      swap2\n      sub\n      swap1\n      return\n        /* \"marketplace.sol\":229:406  function register(address youraddress, uint initial_bal) public {... */\n    tag_5:\n      tag_17\n      0x04\n      dup1\n      calldatasize\n      sub\n      dup2\n      add\n      swap1\n      tag_18\n      swap2\n      swap1\n      tag_19\n      jump\t// in\n    tag_18:\n      tag_20\n      jump\t// in\n    tag_17:\n      stop\n        /* \"marketplace.sol\":750:1411  function sell(address sender, address buyer, uint S_P) public virtual  returns(string memory){... */\n    tag_6:\n      tag_21\n      0x04\n      dup1\n      calldatasize\n      sub\n      dup2\n      add\n      swap1\n      tag_22\n      swap2\n      swap1\n      tag_11\n      jump\t// in\n    tag_22:\n      tag_23\n      jump\t// in\n    tag_21:\n      mload(0x40)\n      tag_24\n      swap2\n      swap1\n      tag_25\n      jump\t// in\n    tag_24:\n      mload(0x40)\n      dup1\n      swap2\n      sub\n      swap1\n      return\n        /* \"marketplace.sol\":87:127  mapping ( address=> uint) public balance */\n    tag_7:\n      tag_26\n      0x04\n      dup1\n      calldatasize\n      sub\n      dup2\n      add\n      swap1\n      tag_27\n      swap2\n      swap1\n      tag_28\n      jump\t// in\n    tag_27:\n      tag_29\n      jump\t// in\n    tag_26:\n      mload(0x40)\n      tag_30\n      swap2\n      swap1\n      tag_16\n      jump\t// in\n    tag_30:\n      mload(0x40)\n      dup1\n      swap2\n      sub\n      swap1\n      return\n        /* \"marketplace.sol\":2061:2084  uint public finalAmount */\n    tag_8:\n      tag_31\n      tag_32\n      jump\t// in\n    tag_31:\n      mload(0x40)\n      tag_33\n      swap2\n      swap1\n      tag_16\n      jump\t// in\n    tag_33:\n      mload(0x40)\n      dup1\n      swap2\n      sub\n      swap1\n      return\n        /* \"marketplace.sol\":2180:2622  function buy(address sender, address buyer, uint C_P) public virtual override {... */\n    tag_12:\n        /* \"marketplace.sol\":2265:2283  uint discountprice */\n      0x00\n        /* \"marketplace.sol\":2302:2305  100 */\n      0x64\n        /* \"marketplace.sol\":2292:2300  discount */\n      sload(0x01)\n        /* \"marketplace.sol\":2286:2289  C_P */\n      dup4\n        /* \"marketplace.sol\":2286:2300  C_P * discount */\n      tag_35\n      swap2\n      swap1\n      tag_36\n      jump\t// in\n    tag_35:\n        /* \"marketplace.sol\":2286:2305  C_P * discount/ 100 */\n      tag_37\n      swap2\n      swap1\n      tag_38\n      jump\t// in\n    tag_37:\n        /* \"marketplace.sol\":2265:2305  uint discountprice = C_P * discount/ 100 */\n      swap1\n      pop\n        /* \"marketplace.sol\":2336:2349  discountprice */\n      dup1\n        /* \"marketplace.sol\":2330:2333  C_P */\n      dup3\n        /* \"marketplace.sol\":2330:2349  C_P - discountprice */\n      tag_39\n      swap2\n      swap1\n      tag_40\n      jump\t// in\n    tag_39:\n        /* \"marketplace.sol\":2316:2327  finalAmount */\n      0x02\n        /* \"marketplace.sol\":2316:2349  finalAmount = C_P - discountprice */\n      dup2\n      swap1\n      sstore\n      pop\n        /* \"marketplace.sol\":2385:2386  0 */\n      0x00\n        /* \"marketplace.sol\":2366:2373  balance */\n      dup1\n        /* \"marketplace.sol\":2366:2381  balance[sender] */\n      0x00\n        /* \"marketplace.sol\":2374:2380  sender */\n      dup7\n        /* \"marketplace.sol\":2366:2381  balance[sender] */\n      0xffffffffffffffffffffffffffffffffffffffff\n      and\n      0xffffffffffffffffffffffffffffffffffffffff\n      and\n      dup2\n      mstore\n      0x20\n      add\n      swap1\n      dup2\n      mstore\n      0x20\n      add\n      0x00\n      keccak256\n      sload\n        /* \"marketplace.sol\":2366:2386  balance[sender] != 0 */\n      sub\n        /* \"marketplace.sol\":2358:2415  require(balance[sender] != 0, \"seller is not registered\") */\n      tag_41\n      jumpi\n      mload(0x40)\n      0x08c379a000000000000000000000000000000000000000000000000000000000\n      dup2\n      mstore\n      0x04\n      add\n      tag_42\n      swap1\n      tag_43\n      jump\t// in\n    tag_42:\n      mload(0x40)\n      dup1\n      swap2\n      sub\n      swap1\n      revert\n    tag_41:\n        /* \"marketplace.sol\":2448:2449  0 */\n      0x00\n        /* \"marketplace.sol\":2430:2437  balance */\n      dup1\n        /* \"marketplace.sol\":2430:2444  balance[buyer] */\n      0x00\n        /* \"marketplace.sol\":2438:2443  buyer */\n      dup6\n        /* \"marketplace.sol\":2430:2444  balance[buyer] */\n      0xffffffffffffffffffffffffffffffffffffffff\n      and\n      0xffffffffffffffffffffffffffffffffffffffff\n      and\n      dup2\n      mstore\n      0x20\n      add\n      swap1\n      dup2\n      mstore\n      0x20\n      add\n      0x00\n      keccak256\n      sload\n        /* \"marketplace.sol\":2430:2449  balance[buyer] != 0 */\n      sub\n        /* \"marketplace.sol\":2422:2477  require(balance[buyer] != 0, \"buyer is not registered\") */\n      tag_44\n      jumpi\n      mload(0x40)\n      0x08c379a000000000000000000000000000000000000000000000000000000000\n      dup2\n      mstore\n      0x04\n      add\n      tag_45\n      swap1\n      tag_46\n      jump\t// in\n    tag_45:\n      mload(0x40)\n      dup1\n      swap2\n      sub\n      swap1\n      revert\n    tag_44:\n        /* \"marketplace.sol\":2505:2516  finalAmount */\n      sload(0x02)\n        /* \"marketplace.sol\":2486:2493  balance */\n      0x00\n        /* \"marketplace.sol\":2486:2501  balance[sender] */\n      dup1\n        /* \"marketplace.sol\":2494:2500  sender */\n      dup7\n        /* \"marketplace.sol\":2486:2501  balance[sender] */\n      0xffffffffffffffffffffffffffffffffffffffff\n      and\n      0xffffffffffffffffffffffffffffffffffffffff\n      and\n      dup2\n      mstore\n      0x20\n      add\n      swap1\n      dup2\n      mstore\n      0x20\n      add\n      0x00\n      keccak256\n      0x00\n        /* \"marketplace.sol\":2486:2516  balance[sender] += finalAmount */\n      dup3\n      dup3\n      sload\n      tag_47\n      swap2\n      swap1\n      tag_48\n      jump\t// in\n    tag_47:\n      swap3\n      pop\n      pop\n      dup2\n      swap1\n      sstore\n      pop\n        /* \"marketplace.sol\":2541:2552  finalAmount */\n      sload(0x02)\n        /* \"marketplace.sol\":2523:2530  balance */\n      0x00\n        /* \"marketplace.sol\":2523:2537  balance[buyer] */\n      dup1\n        /* \"marketplace.sol\":2531:2536  buyer */\n      dup6\n        /* \"marketplace.sol\":2523:2537  balance[buyer] */\n      0xffffffffffffffffffffffffffffffffffffffff\n      and\n      0xffffffffffffffffffffffffffffffffffffffff\n      and\n      dup2\n      mstore\n      0x20\n      add\n      swap1\n      dup2\n      mstore\n      0x20\n      add\n      0x00\n      keccak256\n      0x00\n        /* \"marketplace.sol\":2523:2552  balance[buyer] -= finalAmount */\n      dup3\n      dup3\n      sload\n      tag_49\n      swap2\n      swap1\n      tag_40\n      jump\t// in\n    tag_49:\n      swap3\n      pop\n      pop\n      dup2\n      swap1\n      sstore\n      pop\n        /* \"marketplace.sol\":2580:2586  sender */\n      dup4\n        /* \"marketplace.sol\":2564:2601  purchase(buyer ,sender , finalAmount) */\n      0xffffffffffffffffffffffffffffffffffffffff\n      and\n        /* \"marketplace.sol\":2573:2578  buyer */\n      dup4\n        /* \"marketplace.sol\":2564:2601  purchase(buyer ,sender , finalAmount) */\n      0xffffffffffffffffffffffffffffffffffffffff\n      and\n      0x640441567a63f93bb708d33df4fb558ccf2ec59f306cc74b9bed436c9354d203\n        /* \"marketplace.sol\":2589:2600  finalAmount */\n      sload(0x02)\n        /* \"marketplace.sol\":2564:2601  purchase(buyer ,sender , finalAmount) */\n      mload(0x40)\n      tag_50\n      swap2\n      swap1\n      tag_16\n      jump\t// in\n    tag_50:\n      mload(0x40)\n      dup1\n      swap2\n      sub\n      swap1\n      log3\n        /* \"marketplace.sol\":2258:2622  {... */\n      pop\n        /* \"marketplace.sol\":2180:2622  function buy(address sender, address buyer, uint C_P) public virtual override {... */\n      pop\n      pop\n      pop\n      jump\t// out\n        /* \"marketplace.sol\":2034:2054  uint public discount */\n    tag_14:\n      sload(0x01)\n      dup2\n      jump\t// out\n        /* \"marketplace.sol\":229:406  function register(address youraddress, uint initial_bal) public {... */\n    tag_20:\n        /* \"marketplace.sol\":327:328  0 */\n      0x00\n        /* \"marketplace.sol\":313:324  initial_bal */\n      dup2\n        /* \"marketplace.sol\":313:328  initial_bal!= 0 */\n      sub\n        /* \"marketplace.sol\":304:352  require( initial_bal!= 0, \"value can't be zero\") */\n      tag_52\n      jumpi\n      mload(0x40)\n      0x08c379a000000000000000000000000000000000000000000000000000000000\n      dup2\n      mstore\n      0x04\n      add\n      tag_53\n      swap1\n      tag_54\n      jump\t// in\n    tag_53:\n      mload(0x40)\n      dup1\n      swap2\n      sub\n      swap1\n      revert\n    tag_52:\n        /* \"marketplace.sol\":386:397  initial_bal */\n      dup1\n        /* \"marketplace.sol\":363:370  balance */\n      0x00\n        /* \"marketplace.sol\":363:383  balance[youraddress] */\n      dup1\n        /* \"marketplace.sol\":371:382  youraddress */\n      dup5\n        /* \"marketplace.sol\":363:383  balance[youraddress] */\n      0xffffffffffffffffffffffffffffffffffffffff\n      and\n      0xffffffffffffffffffffffffffffffffffffffff\n      and\n      dup2\n      mstore\n      0x20\n      add\n      swap1\n      dup2\n      mstore\n      0x20\n      add\n      0x00\n      keccak256\n        /* \"marketplace.sol\":363:397  balance[youraddress] = initial_bal */\n      dup2\n      swap1\n      sstore\n      pop\n        /* \"marketplace.sol\":229:406  function register(address youraddress, uint initial_bal) public {... */\n      pop\n      pop\n      jump\t// out\n        /* \"marketplace.sol\":750:1411  function sell(address sender, address buyer, uint S_P) public virtual  returns(string memory){... */\n    tag_23:\n        /* \"marketplace.sol\":829:842  string memory */\n      0x60\n        /* \"marketplace.sol\":873:874  0 */\n      0x00\n        /* \"marketplace.sol\":854:861  balance */\n      dup1\n        /* \"marketplace.sol\":854:869  balance[sender] */\n      0x00\n        /* \"marketplace.sol\":862:868  sender */\n      dup7\n        /* \"marketplace.sol\":854:869  balance[sender] */\n      0xffffffffffffffffffffffffffffffffffffffff\n      and\n      0xffffffffffffffffffffffffffffffffffffffff\n      and\n      dup2\n      mstore\n      0x20\n      add\n      swap1\n      dup2\n      mstore\n      0x20\n      add\n      0x00\n      keccak256\n      sload\n        /* \"marketplace.sol\":854:874  balance[sender] == 0 */\n      sub\n        /* \"marketplace.sol\":850:1284  if (balance[sender] == 0){... */\n      tag_56\n      jumpi\n        /* \"marketplace.sol\":893:928  custom( \"seller is not registered\") */\n      mload(0x40)\n      0x571c8de700000000000000000000000000000000000000000000000000000000\n      dup2\n      mstore\n      0x04\n      add\n      tag_57\n      swap1\n      tag_43\n      jump\t// in\n    tag_57:\n      mload(0x40)\n      dup1\n      swap2\n      sub\n      swap1\n      revert\n        /* \"marketplace.sol\":850:1284  if (balance[sender] == 0){... */\n    tag_56:\n        /* \"marketplace.sol\":969:970  0 */\n      0x00\n        /* \"marketplace.sol\":951:958  balance */\n      dup1\n        /* \"marketplace.sol\":951:965  balance[buyer] */\n      0x00\n        /* \"marketplace.sol\":959:964  buyer */\n      dup6\n        /* \"marketplace.sol\":951:965  balance[buyer] */\n      0xffffffffffffffffffffffffffffffffffffffff\n      and\n      0xffffffffffffffffffffffffffffffffffffffff\n      and\n      dup2\n      mstore\n      0x20\n      add\n      swap1\n      dup2\n      mstore\n      0x20\n      add\n      0x00\n      keccak256\n      sload\n        /* \"marketplace.sol\":951:970  balance[buyer] == 0 */\n      sub\n        /* \"marketplace.sol\":947:1284  if (balance[buyer] == 0){... */\n      tag_59\n      jumpi\n        /* \"marketplace.sol\":989:1023  custom (\"buyer is not registered\") */\n      mload(0x40)\n      0x571c8de700000000000000000000000000000000000000000000000000000000\n      dup2\n      mstore\n      0x04\n      add\n      tag_60\n      swap1\n      tag_46\n      jump\t// in\n    tag_60:\n      mload(0x40)\n      dup1\n      swap2\n      sub\n      swap1\n      revert\n        /* \"marketplace.sol\":947:1284  if (balance[buyer] == 0){... */\n    tag_59:\n        /* \"marketplace.sol\":1064:1071  balance */\n      0x00\n        /* \"marketplace.sol\":1064:1078  balance[buyer] */\n      dup1\n        /* \"marketplace.sol\":1072:1077  buyer */\n      dup5\n        /* \"marketplace.sol\":1064:1078  balance[buyer] */\n      0xffffffffffffffffffffffffffffffffffffffff\n      and\n      0xffffffffffffffffffffffffffffffffffffffff\n      and\n      dup2\n      mstore\n      0x20\n      add\n      swap1\n      dup2\n      mstore\n      0x20\n      add\n      0x00\n      keccak256\n      sload\n        /* \"marketplace.sol\":1045:1052  balance */\n      0x00\n        /* \"marketplace.sol\":1045:1060  balance[sender] */\n      dup1\n        /* \"marketplace.sol\":1053:1059  sender */\n      dup7\n        /* \"marketplace.sol\":1045:1060  balance[sender] */\n      0xffffffffffffffffffffffffffffffffffffffff\n      and\n      0xffffffffffffffffffffffffffffffffffffffff\n      and\n      dup2\n      mstore\n      0x20\n      add\n      swap1\n      dup2\n      mstore\n      0x20\n      add\n      0x00\n      keccak256\n      sload\n        /* \"marketplace.sol\":1045:1078  balance[sender] == balance[buyer] */\n      sub\n        /* \"marketplace.sol\":1042:1284  if(balance[sender] == balance[buyer]){... */\n      tag_62\n      jumpi\n        /* \"marketplace.sol\":1097:1137  custom(\" seller and buyer cant be same\") */\n      mload(0x40)\n      0x571c8de700000000000000000000000000000000000000000000000000000000\n      dup2\n      mstore\n      0x04\n      add\n      tag_63\n      swap1\n      tag_64\n      jump\t// in\n    tag_63:\n      mload(0x40)\n      dup1\n      swap2\n      sub\n      swap1\n      revert\n        /* \"marketplace.sol\":1042:1284  if(balance[sender] == balance[buyer]){... */\n    tag_62:\n        /* \"marketplace.sol\":1180:1181  0 */\n      0x00\n        /* \"marketplace.sol\":1161:1168  balance */\n      dup1\n        /* \"marketplace.sol\":1161:1176  balance[sender] */\n      0x00\n        /* \"marketplace.sol\":1169:1175  sender */\n      dup7\n        /* \"marketplace.sol\":1161:1176  balance[sender] */\n      0xffffffffffffffffffffffffffffffffffffffff\n      and\n      0xffffffffffffffffffffffffffffffffffffffff\n      and\n      dup2\n      mstore\n      0x20\n      add\n      swap1\n      dup2\n      mstore\n      0x20\n      add\n      0x00\n      keccak256\n      sload\n        /* \"marketplace.sol\":1161:1181  balance[sender] == 0 */\n      eq\n        /* \"marketplace.sol\":1161:1204  balance[sender] == 0 && balance[buyer] == 0 */\n      dup1\n      iszero\n      tag_66\n      jumpi\n      pop\n        /* \"marketplace.sol\":1203:1204  0 */\n      0x00\n        /* \"marketplace.sol\":1185:1192  balance */\n      dup1\n        /* \"marketplace.sol\":1185:1199  balance[buyer] */\n      0x00\n        /* \"marketplace.sol\":1193:1198  buyer */\n      dup6\n        /* \"marketplace.sol\":1185:1199  balance[buyer] */\n      0xffffffffffffffffffffffffffffffffffffffff\n      and\n      0xffffffffffffffffffffffffffffffffffffffff\n      and\n      dup2\n      mstore\n      0x20\n      add\n      swap1\n      dup2\n      mstore\n      0x20\n      add\n      0x00\n      keccak256\n      sload\n        /* \"marketplace.sol\":1185:1204  balance[buyer] == 0 */\n      eq\n        /* \"marketplace.sol\":1161:1204  balance[sender] == 0 && balance[buyer] == 0 */\n    tag_66:\n        /* \"marketplace.sol\":1157:1284  if (balance[sender] == 0 && balance[buyer] == 0){... */\n      iszero\n      tag_67\n      jumpi\n        /* \"marketplace.sol\":1223:1274  custom (\"seller and buyer both are not registered\") */\n      mload(0x40)\n      0x571c8de700000000000000000000000000000000000000000000000000000000\n      dup2\n      mstore\n      0x04\n      add\n      tag_68\n      swap1\n      tag_69\n      jump\t// in\n    tag_68:\n      mload(0x40)\n      dup1\n      swap2\n      sub\n      swap1\n      revert\n        /* \"marketplace.sol\":1157:1284  if (balance[sender] == 0 && balance[buyer] == 0){... */\n    tag_67:\n        /* \"marketplace.sol\":1309:1312  S_P */\n      dup2\n        /* \"marketplace.sol\":1290:1297  balance */\n      0x00\n        /* \"marketplace.sol\":1290:1305  balance[sender] */\n      dup1\n        /* \"marketplace.sol\":1298:1304  sender */\n      dup7\n        /* \"marketplace.sol\":1290:1305  balance[sender] */\n      0xffffffffffffffffffffffffffffffffffffffff\n      and\n      0xffffffffffffffffffffffffffffffffffffffff\n      and\n      dup2\n      mstore\n      0x20\n      add\n      swap1\n      dup2\n      mstore\n      0x20\n      add\n      0x00\n      keccak256\n      0x00\n        /* \"marketplace.sol\":1290:1312  balance[sender] += S_P */\n      dup3\n      dup3\n      sload\n      tag_70\n      swap2\n      swap1\n      tag_48\n      jump\t// in\n    tag_70:\n      swap3\n      pop\n      pop\n      dup2\n      swap1\n      sstore\n      pop\n        /* \"marketplace.sol\":1337:1340  S_P */\n      dup2\n        /* \"marketplace.sol\":1319:1326  balance */\n      0x00\n        /* \"marketplace.sol\":1319:1333  balance[buyer] */\n      dup1\n        /* \"marketplace.sol\":1327:1332  buyer */\n      dup6\n        /* \"marketplace.sol\":1319:1333  balance[buyer] */\n      0xffffffffffffffffffffffffffffffffffffffff\n      and\n      0xffffffffffffffffffffffffffffffffffffffff\n      and\n      dup2\n      mstore\n      0x20\n      add\n      swap1\n      dup2\n      mstore\n      0x20\n      add\n      0x00\n      keccak256\n      0x00\n        /* \"marketplace.sol\":1319:1340  balance[buyer] -= S_P */\n      dup3\n      dup3\n      sload\n      tag_71\n      swap2\n      swap1\n      tag_40\n      jump\t// in\n    tag_71:\n      swap3\n      pop\n      pop\n      dup2\n      swap1\n      sstore\n      pop\n        /* \"marketplace.sol\":1349:1401  return (\"item will be shipped to the buyer address\") */\n      mload(0x40)\n      dup1\n      0x60\n      add\n      0x40\n      mstore\n      dup1\n      0x29\n      dup2\n      mstore\n      0x20\n      add\n      data_17aa23838344d69e7c95fa6cd1cad8785ff6bfbc7529891f112320c03b7ec720\n      0x29\n      swap2\n      codecopy\n      swap1\n      pop\n        /* \"marketplace.sol\":750:1411  function sell(address sender, address buyer, uint S_P) public virtual  returns(string memory){... */\n      swap4\n      swap3\n      pop\n      pop\n      pop\n      jump\t// out\n        /* \"marketplace.sol\":87:127  mapping ( address=> uint) public balance */\n    tag_29:\n      mstore(0x20, 0x00)\n      dup1\n      0x00\n      mstore\n      keccak256(0x00, 0x40)\n      0x00\n      swap2\n      pop\n      swap1\n      pop\n      sload\n      dup2\n      jump\t// out\n        /* \"marketplace.sol\":2061:2084  uint public finalAmount */\n    tag_32:\n      sload(0x02)\n      dup2\n      jump\t// out\n        /* \"#utility.yul\":88:205   */\n    tag_73:\n        /* \"#utility.yul\":197:198   */\n      0x00\n        /* \"#utility.yul\":194:195   */\n      dup1\n        /* \"#utility.yul\":187:199   */\n      revert\n        /* \"#utility.yul\":334:460   */\n    tag_75:\n        /* \"#utility.yul\":371:378   */\n      0x00\n        /* \"#utility.yul\":411:453   */\n      0xffffffffffffffffffffffffffffffffffffffff\n        /* \"#utility.yul\":404:409   */\n      dup3\n        /* \"#utility.yul\":400:454   */\n      and\n        /* \"#utility.yul\":389:454   */\n      swap1\n      pop\n        /* \"#utility.yul\":334:460   */\n      swap2\n      swap1\n      pop\n      jump\t// out\n        /* \"#utility.yul\":466:562   */\n    tag_76:\n        /* \"#utility.yul\":503:510   */\n      0x00\n        /* \"#utility.yul\":532:556   */\n      tag_106\n        /* \"#utility.yul\":550:555   */\n      dup3\n        /* \"#utility.yul\":532:556   */\n      tag_75\n      jump\t// in\n    tag_106:\n        /* \"#utility.yul\":521:556   */\n      swap1\n      pop\n        /* \"#utility.yul\":466:562   */\n      swap2\n      swap1\n      pop\n      jump\t// out\n        /* \"#utility.yul\":568:690   */\n    tag_77:\n        /* \"#utility.yul\":641:665   */\n      tag_108\n        /* \"#utility.yul\":659:664   */\n      dup2\n        /* \"#utility.yul\":641:665   */\n      tag_76\n      jump\t// in\n    tag_108:\n        /* \"#utility.yul\":634:639   */\n      dup2\n        /* \"#utility.yul\":631:666   */\n      eq\n        /* \"#utility.yul\":621:684   */\n      tag_109\n      jumpi\n        /* \"#utility.yul\":680:681   */\n      0x00\n        /* \"#utility.yul\":677:678   */\n      dup1\n        /* \"#utility.yul\":670:682   */\n      revert\n        /* \"#utility.yul\":621:684   */\n    tag_109:\n        /* \"#utility.yul\":568:690   */\n      pop\n      jump\t// out\n        /* \"#utility.yul\":696:835   */\n    tag_78:\n        /* \"#utility.yul\":742:747   */\n      0x00\n        /* \"#utility.yul\":780:786   */\n      dup2\n        /* \"#utility.yul\":767:787   */\n      calldataload\n        /* \"#utility.yul\":758:787   */\n      swap1\n      pop\n        /* \"#utility.yul\":796:829   */\n      tag_111\n        /* \"#utility.yul\":823:828   */\n      dup2\n        /* \"#utility.yul\":796:829   */\n      tag_77\n      jump\t// in\n    tag_111:\n        /* \"#utility.yul\":696:835   */\n      swap3\n      swap2\n      pop\n      pop\n      jump\t// out\n        /* \"#utility.yul\":841:918   */\n    tag_79:\n        /* \"#utility.yul\":878:885   */\n      0x00\n        /* \"#utility.yul\":907:912   */\n      dup2\n        /* \"#utility.yul\":896:912   */\n      swap1\n      pop\n        /* \"#utility.yul\":841:918   */\n      swap2\n      swap1\n      pop\n      jump\t// out\n        /* \"#utility.yul\":924:1046   */\n    tag_80:\n        /* \"#utility.yul\":997:1021   */\n      tag_114\n        /* \"#utility.yul\":1015:1020   */\n      dup2\n        /* \"#utility.yul\":997:1021   */\n      tag_79\n      jump\t// in\n    tag_114:\n        /* \"#utility.yul\":990:995   */\n      dup2\n        /* \"#utility.yul\":987:1022   */\n      eq\n        /* \"#utility.yul\":977:1040   */\n      tag_115\n      jumpi\n        /* \"#utility.yul\":1036:1037   */\n      0x00\n        /* \"#utility.yul\":1033:1034   */\n      dup1\n        /* \"#utility.yul\":1026:1038   */\n      revert\n        /* \"#utility.yul\":977:1040   */\n    tag_115:\n        /* \"#utility.yul\":924:1046   */\n      pop\n      jump\t// out\n        /* \"#utility.yul\":1052:1191   */\n    tag_81:\n        /* \"#utility.yul\":1098:1103   */\n      0x00\n        /* \"#utility.yul\":1136:1142   */\n      dup2\n        /* \"#utility.yul\":1123:1143   */\n      calldataload\n        /* \"#utility.yul\":1114:1143   */\n      swap1\n      pop\n        /* \"#utility.yul\":1152:1185   */\n      tag_117\n        /* \"#utility.yul\":1179:1184   */\n      dup2\n        /* \"#utility.yul\":1152:1185   */\n      tag_80\n      jump\t// in\n    tag_117:\n        /* \"#utility.yul\":1052:1191   */\n      swap3\n      swap2\n      pop\n      pop\n      jump\t// out\n        /* \"#utility.yul\":1197:1816   */\n    tag_11:\n        /* \"#utility.yul\":1274:1280   */\n      0x00\n        /* \"#utility.yul\":1282:1288   */\n      dup1\n        /* \"#utility.yul\":1290:1296   */\n      0x00\n        /* \"#utility.yul\":1339:1341   */\n      0x60\n        /* \"#utility.yul\":1327:1336   */\n      dup5\n        /* \"#utility.yul\":1318:1325   */\n      dup7\n        /* \"#utility.yul\":1314:1337   */\n      sub\n        /* \"#utility.yul\":1310:1342   */\n      slt\n        /* \"#utility.yul\":1307:1426   */\n      iszero\n      tag_119\n      jumpi\n        /* \"#utility.yul\":1345:1424   */\n      tag_120\n      tag_73\n      jump\t// in\n    tag_120:\n        /* \"#utility.yul\":1307:1426   */\n    tag_119:\n        /* \"#utility.yul\":1465:1466   */\n      0x00\n        /* \"#utility.yul\":1490:1543   */\n      tag_121\n        /* \"#utility.yul\":1535:1542   */\n      dup7\n        /* \"#utility.yul\":1526:1532   */\n      dup3\n        /* \"#utility.yul\":1515:1524   */\n      dup8\n        /* \"#utility.yul\":1511:1533   */\n      add\n        /* \"#utility.yul\":1490:1543   */\n      tag_78\n      jump\t// in\n    tag_121:\n        /* \"#utility.yul\":1480:1543   */\n      swap4\n      pop\n        /* \"#utility.yul\":1436:1553   */\n      pop\n        /* \"#utility.yul\":1592:1594   */\n      0x20\n        /* \"#utility.yul\":1618:1671   */\n      tag_122\n        /* \"#utility.yul\":1663:1670   */\n      dup7\n        /* \"#utility.yul\":1654:1660   */\n      dup3\n        /* \"#utility.yul\":1643:1652   */\n      dup8\n        /* \"#utility.yul\":1639:1661   */\n      add\n        /* \"#utility.yul\":1618:1671   */\n      tag_78\n      jump\t// in\n    tag_122:\n        /* \"#utility.yul\":1608:1671   */\n      swap3\n      pop\n        /* \"#utility.yul\":1563:1681   */\n      pop\n        /* \"#utility.yul\":1720:1722   */\n      0x40\n        /* \"#utility.yul\":1746:1799   */\n      tag_123\n        /* \"#utility.yul\":1791:1798   */\n      dup7\n        /* \"#utility.yul\":1782:1788   */\n      dup3\n        /* \"#utility.yul\":1771:1780   */\n      dup8\n        /* \"#utility.yul\":1767:1789   */\n      add\n        /* \"#utility.yul\":1746:1799   */\n      tag_81\n      jump\t// in\n    tag_123:\n        /* \"#utility.yul\":1736:1799   */\n      swap2\n      pop\n        /* \"#utility.yul\":1691:1809   */\n      pop\n        /* \"#utility.yul\":1197:1816   */\n      swap3\n      pop\n      swap3\n      pop\n      swap3\n      jump\t// out\n        /* \"#utility.yul\":1822:1940   */\n    tag_82:\n        /* \"#utility.yul\":1909:1933   */\n      tag_125\n        /* \"#utility.yul\":1927:1932   */\n      dup2\n        /* \"#utility.yul\":1909:1933   */\n      tag_79\n      jump\t// in\n    tag_125:\n        /* \"#utility.yul\":1904:1907   */\n      dup3\n        /* \"#utility.yul\":1897:1934   */\n      mstore\n        /* \"#utility.yul\":1822:1940   */\n      pop\n      pop\n      jump\t// out\n        /* \"#utility.yul\":1946:2168   */\n    tag_16:\n        /* \"#utility.yul\":2039:2043   */\n      0x00\n        /* \"#utility.yul\":2077:2079   */\n      0x20\n        /* \"#utility.yul\":2066:2075   */\n      dup3\n        /* \"#utility.yul\":2062:2080   */\n      add\n        /* \"#utility.yul\":2054:2080   */\n      swap1\n      pop\n        /* \"#utility.yul\":2090:2161   */\n      tag_127\n        /* \"#utility.yul\":2158:2159   */\n      0x00\n        /* \"#utility.yul\":2147:2156   */\n      dup4\n        /* \"#utility.yul\":2143:2160   */\n      add\n        /* \"#utility.yul\":2134:2140   */\n      dup5\n        /* \"#utility.yul\":2090:2161   */\n      tag_82\n      jump\t// in\n    tag_127:\n        /* \"#utility.yul\":1946:2168   */\n      swap3\n      swap2\n      pop\n      pop\n      jump\t// out\n        /* \"#utility.yul\":2174:2648   */\n    tag_19:\n        /* \"#utility.yul\":2242:2248   */\n      0x00\n        /* \"#utility.yul\":2250:2256   */\n      dup1\n        /* \"#utility.yul\":2299:2301   */\n      0x40\n        /* \"#utility.yul\":2287:2296   */\n      dup4\n        /* \"#utility.yul\":2278:2285   */\n      dup6\n        /* \"#utility.yul\":2274:2297   */\n      sub\n        /* \"#utility.yul\":2270:2302   */\n      slt\n        /* \"#utility.yul\":2267:2386   */\n      iszero\n      tag_129\n      jumpi\n        /* \"#utility.yul\":2305:2384   */\n      tag_130\n      tag_73\n      jump\t// in\n    tag_130:\n        /* \"#utility.yul\":2267:2386   */\n    tag_129:\n        /* \"#utility.yul\":2425:2426   */\n      0x00\n        /* \"#utility.yul\":2450:2503   */\n      tag_131\n        /* \"#utility.yul\":2495:2502   */\n      dup6\n        /* \"#utility.yul\":2486:2492   */\n      dup3\n        /* \"#utility.yul\":2475:2484   */\n      dup7\n        /* \"#utility.yul\":2471:2493   */\n      add\n        /* \"#utility.yul\":2450:2503   */\n      tag_78\n      jump\t// in\n    tag_131:\n        /* \"#utility.yul\":2440:2503   */\n      swap3\n      pop\n        /* \"#utility.yul\":2396:2513   */\n      pop\n        /* \"#utility.yul\":2552:2554   */\n      0x20\n        /* \"#utility.yul\":2578:2631   */\n      tag_132\n        /* \"#utility.yul\":2623:2630   */\n      dup6\n        /* \"#utility.yul\":2614:2620   */\n      dup3\n        /* \"#utility.yul\":2603:2612   */\n      dup7\n        /* \"#utility.yul\":2599:2621   */\n      add\n        /* \"#utility.yul\":2578:2631   */\n      tag_81\n      jump\t// in\n    tag_132:\n        /* \"#utility.yul\":2568:2631   */\n      swap2\n      pop\n        /* \"#utility.yul\":2523:2641   */\n      pop\n        /* \"#utility.yul\":2174:2648   */\n      swap3\n      pop\n      swap3\n      swap1\n      pop\n      jump\t// out\n        /* \"#utility.yul\":2654:2753   */\n    tag_83:\n        /* \"#utility.yul\":2706:2712   */\n      0x00\n        /* \"#utility.yul\":2740:2745   */\n      dup2\n        /* \"#utility.yul\":2734:2746   */\n      mload\n        /* \"#utility.yul\":2724:2746   */\n      swap1\n      pop\n        /* \"#utility.yul\":2654:2753   */\n      swap2\n      swap1\n      pop\n      jump\t// out\n        /* \"#utility.yul\":2759:2928   */\n    tag_84:\n        /* \"#utility.yul\":2843:2854   */\n      0x00\n        /* \"#utility.yul\":2877:2883   */\n      dup3\n        /* \"#utility.yul\":2872:2875   */\n      dup3\n        /* \"#utility.yul\":2865:2884   */\n      mstore\n        /* \"#utility.yul\":2917:2921   */\n      0x20\n        /* \"#utility.yul\":2912:2915   */\n      dup3\n        /* \"#utility.yul\":2908:2922   */\n      add\n        /* \"#utility.yul\":2893:2922   */\n      swap1\n      pop\n        /* \"#utility.yul\":2759:2928   */\n      swap3\n      swap2\n      pop\n      pop\n      jump\t// out\n        /* \"#utility.yul\":2934:3180   */\n    tag_85:\n        /* \"#utility.yul\":3015:3016   */\n      0x00\n        /* \"#utility.yul\":3025:3138   */\n    tag_136:\n        /* \"#utility.yul\":3039:3045   */\n      dup4\n        /* \"#utility.yul\":3036:3037   */\n      dup2\n        /* \"#utility.yul\":3033:3046   */\n      lt\n        /* \"#utility.yul\":3025:3138   */\n      iszero\n      tag_138\n      jumpi\n        /* \"#utility.yul\":3124:3125   */\n      dup1\n        /* \"#utility.yul\":3119:3122   */\n      dup3\n        /* \"#utility.yul\":3115:3126   */\n      add\n        /* \"#utility.yul\":3109:3127   */\n      mload\n        /* \"#utility.yul\":3105:3106   */\n      dup2\n        /* \"#utility.yul\":3100:3103   */\n      dup5\n        /* \"#utility.yul\":3096:3107   */\n      add\n        /* \"#utility.yul\":3089:3128   */\n      mstore\n        /* \"#utility.yul\":3061:3063   */\n      0x20\n        /* \"#utility.yul\":3058:3059   */\n      dup2\n        /* \"#utility.yul\":3054:3064   */\n      add\n        /* \"#utility.yul\":3049:3064   */\n      swap1\n      pop\n        /* \"#utility.yul\":3025:3138   */\n      jump(tag_136)\n    tag_138:\n        /* \"#utility.yul\":3172:3173   */\n      0x00\n        /* \"#utility.yul\":3163:3169   */\n      dup5\n        /* \"#utility.yul\":3158:3161   */\n      dup5\n        /* \"#utility.yul\":3154:3170   */\n      add\n        /* \"#utility.yul\":3147:3174   */\n      mstore\n        /* \"#utility.yul\":2996:3180   */\n      pop\n        /* \"#utility.yul\":2934:3180   */\n      pop\n      pop\n      pop\n      jump\t// out\n        /* \"#utility.yul\":3186:3288   */\n    tag_86:\n        /* \"#utility.yul\":3227:3233   */\n      0x00\n        /* \"#utility.yul\":3278:3280   */\n      0x1f\n        /* \"#utility.yul\":3274:3281   */\n      not\n        /* \"#utility.yul\":3269:3271   */\n      0x1f\n        /* \"#utility.yul\":3262:3267   */\n      dup4\n        /* \"#utility.yul\":3258:3272   */\n      add\n        /* \"#utility.yul\":3254:3282   */\n      and\n        /* \"#utility.yul\":3244:3282   */\n      swap1\n      pop\n        /* \"#utility.yul\":3186:3288   */\n      swap2\n      swap1\n      pop\n      jump\t// out\n        /* \"#utility.yul\":3294:3671   */\n    tag_87:\n        /* \"#utility.yul\":3382:3385   */\n      0x00\n        /* \"#utility.yul\":3410:3449   */\n      tag_141\n        /* \"#utility.yul\":3443:3448   */\n      dup3\n        /* \"#utility.yul\":3410:3449   */\n      tag_83\n      jump\t// in\n    tag_141:\n        /* \"#utility.yul\":3465:3536   */\n      tag_142\n        /* \"#utility.yul\":3529:3535   */\n      dup2\n        /* \"#utility.yul\":3524:3527   */\n      dup6\n        /* \"#utility.yul\":3465:3536   */\n      tag_84\n      jump\t// in\n    tag_142:\n        /* \"#utility.yul\":3458:3536   */\n      swap4\n      pop\n        /* \"#utility.yul\":3545:3610   */\n      tag_143\n        /* \"#utility.yul\":3603:3609   */\n      dup2\n        /* \"#utility.yul\":3598:3601   */\n      dup6\n        /* \"#utility.yul\":3591:3595   */\n      0x20\n        /* \"#utility.yul\":3584:3589   */\n      dup7\n        /* \"#utility.yul\":3580:3596   */\n      add\n        /* \"#utility.yul\":3545:3610   */\n      tag_85\n      jump\t// in\n    tag_143:\n        /* \"#utility.yul\":3635:3664   */\n      tag_144\n        /* \"#utility.yul\":3657:3663   */\n      dup2\n        /* \"#utility.yul\":3635:3664   */\n      tag_86\n      jump\t// in\n    tag_144:\n        /* \"#utility.yul\":3630:3633   */\n      dup5\n        /* \"#utility.yul\":3626:3665   */\n      add\n        /* \"#utility.yul\":3619:3665   */\n      swap2\n      pop\n        /* \"#utility.yul\":3386:3671   */\n      pop\n        /* \"#utility.yul\":3294:3671   */\n      swap3\n      swap2\n      pop\n      pop\n      jump\t// out\n        /* \"#utility.yul\":3677:3990   */\n    tag_25:\n        /* \"#utility.yul\":3790:3794   */\n      0x00\n        /* \"#utility.yul\":3828:3830   */\n      0x20\n        /* \"#utility.yul\":3817:3826   */\n      dup3\n        /* \"#utility.yul\":3813:3831   */\n      add\n        /* \"#utility.yul\":3805:3831   */\n      swap1\n      pop\n        /* \"#utility.yul\":3877:3886   */\n      dup2\n        /* \"#utility.yul\":3871:3875   */\n      dup2\n        /* \"#utility.yul\":3867:3887   */\n      sub\n        /* \"#utility.yul\":3863:3864   */\n      0x00\n        /* \"#utility.yul\":3852:3861   */\n      dup4\n        /* \"#utility.yul\":3848:3865   */\n      add\n        /* \"#utility.yul\":3841:3888   */\n      mstore\n        /* \"#utility.yul\":3905:3983   */\n      tag_146\n        /* \"#utility.yul\":3978:3982   */\n      dup2\n        /* \"#utility.yul\":3969:3975   */\n      dup5\n        /* \"#utility.yul\":3905:3983   */\n      tag_87\n      jump\t// in\n    tag_146:\n        /* \"#utility.yul\":3897:3983   */\n      swap1\n      pop\n        /* \"#utility.yul\":3677:3990   */\n      swap3\n      swap2\n      pop\n      pop\n      jump\t// out\n        /* \"#utility.yul\":3996:4325   */\n    tag_28:\n        /* \"#utility.yul\":4055:4061   */\n      0x00\n        /* \"#utility.yul\":4104:4106   */\n      0x20\n        /* \"#utility.yul\":4092:4101   */\n      dup3\n        /* \"#utility.yul\":4083:4090   */\n      dup5\n        /* \"#utility.yul\":4079:4102   */\n      sub\n        /* \"#utility.yul\":4075:4107   */\n      slt\n        /* \"#utility.yul\":4072:4191   */\n      iszero\n      tag_148\n      jumpi\n        /* \"#utility.yul\":4110:4189   */\n      tag_149\n      tag_73\n      jump\t// in\n    tag_149:\n        /* \"#utility.yul\":4072:4191   */\n    tag_148:\n        /* \"#utility.yul\":4230:4231   */\n      0x00\n        /* \"#utility.yul\":4255:4308   */\n      tag_150\n        /* \"#utility.yul\":4300:4307   */\n      dup5\n        /* \"#utility.yul\":4291:4297   */\n      dup3\n        /* \"#utility.yul\":4280:4289   */\n      dup6\n        /* \"#utility.yul\":4276:4298   */\n      add\n        /* \"#utility.yul\":4255:4308   */\n      tag_78\n      jump\t// in\n    tag_150:\n        /* \"#utility.yul\":4245:4308   */\n      swap2\n      pop\n        /* \"#utility.yul\":4201:4318   */\n      pop\n        /* \"#utility.yul\":3996:4325   */\n      swap3\n      swap2\n      pop\n      pop\n      jump\t// out\n        /* \"#utility.yul\":4331:4511   */\n    tag_88:\n        /* \"#utility.yul\":4379:4456   */\n      0x4e487b7100000000000000000000000000000000000000000000000000000000\n        /* \"#utility.yul\":4376:4377   */\n      0x00\n        /* \"#utility.yul\":4369:4457   */\n      mstore\n        /* \"#utility.yul\":4476:4480   */\n      0x11\n        /* \"#utility.yul\":4473:4474   */\n      0x04\n        /* \"#utility.yul\":4466:4481   */\n      mstore\n        /* \"#utility.yul\":4500:4504   */\n      0x24\n        /* \"#utility.yul\":4497:4498   */\n      0x00\n        /* \"#utility.yul\":4490:4505   */\n      revert\n        /* \"#utility.yul\":4517:4927   */\n    tag_36:\n        /* \"#utility.yul\":4557:4564   */\n      0x00\n        /* \"#utility.yul\":4580:4600   */\n      tag_153\n        /* \"#utility.yul\":4598:4599   */\n      dup3\n        /* \"#utility.yul\":4580:4600   */\n      tag_79\n      jump\t// in\n    tag_153:\n        /* \"#utility.yul\":4575:4600   */\n      swap2\n      pop\n        /* \"#utility.yul\":4614:4634   */\n      tag_154\n        /* \"#utility.yul\":4632:4633   */\n      dup4\n        /* \"#utility.yul\":4614:4634   */\n      tag_79\n      jump\t// in\n    tag_154:\n        /* \"#utility.yul\":4609:4634   */\n      swap3\n      pop\n        /* \"#utility.yul\":4669:4670   */\n      dup3\n        /* \"#utility.yul\":4666:4667   */\n      dup3\n        /* \"#utility.yul\":4662:4671   */\n      mul\n        /* \"#utility.yul\":4691:4721   */\n      tag_155\n        /* \"#utility.yul\":4709:4720   */\n      dup2\n        /* \"#utility.yul\":4691:4721   */\n      tag_79\n      jump\t// in\n    tag_155:\n        /* \"#utility.yul\":4680:4721   */\n      swap2\n      pop\n        /* \"#utility.yul\":4870:4871   */\n      dup3\n        /* \"#utility.yul\":4861:4868   */\n      dup3\n        /* \"#utility.yul\":4857:4872   */\n      div\n        /* \"#utility.yul\":4854:4855   */\n      dup5\n        /* \"#utility.yul\":4851:4873   */\n      eq\n        /* \"#utility.yul\":4831:4832   */\n      dup4\n        /* \"#utility.yul\":4824:4833   */\n      iszero\n        /* \"#utility.yul\":4804:4887   */\n      or\n        /* \"#utility.yul\":4781:4920   */\n      tag_156\n      jumpi\n        /* \"#utility.yul\":4900:4918   */\n      tag_157\n      tag_88\n      jump\t// in\n    tag_157:\n        /* \"#utility.yul\":4781:4920   */\n    tag_156:\n        /* \"#utility.yul\":4565:4927   */\n      pop\n        /* \"#utility.yul\":4517:4927   */\n      swap3\n      swap2\n      pop\n      pop\n      jump\t// out\n        /* \"#utility.yul\":4933:5113   */\n    tag_89:\n        /* \"#utility.yul\":4981:5058   */\n      0x4e487b7100000000000000000000000000000000000000000000000000000000\n        /* \"#utility.yul\":4978:4979   */\n      0x00\n        /* \"#utility.yul\":4971:5059   */\n      mstore\n        /* \"#utility.yul\":5078:5082   */\n      0x12\n        /* \"#utility.yul\":5075:5076   */\n      0x04\n        /* \"#utility.yul\":5068:5083   */\n      mstore\n        /* \"#utility.yul\":5102:5106   */\n      0x24\n        /* \"#utility.yul\":5099:5100   */\n      0x00\n        /* \"#utility.yul\":5092:5107   */\n      revert\n        /* \"#utility.yul\":5119:5304   */\n    tag_38:\n        /* \"#utility.yul\":5159:5160   */\n      0x00\n        /* \"#utility.yul\":5176:5196   */\n      tag_160\n        /* \"#utility.yul\":5194:5195   */\n      dup3\n        /* \"#utility.yul\":5176:5196   */\n      tag_79\n      jump\t// in\n    tag_160:\n        /* \"#utility.yul\":5171:5196   */\n      swap2\n      pop\n        /* \"#utility.yul\":5210:5230   */\n      tag_161\n        /* \"#utility.yul\":5228:5229   */\n      dup4\n        /* \"#utility.yul\":5210:5230   */\n      tag_79\n      jump\t// in\n    tag_161:\n        /* \"#utility.yul\":5205:5230   */\n      swap3\n      pop\n        /* \"#utility.yul\":5249:5250   */\n      dup3\n        /* \"#utility.yul\":5239:5274   */\n      tag_162\n      jumpi\n        /* \"#utility.yul\":5254:5272   */\n      tag_163\n      tag_89\n      jump\t// in\n    tag_163:\n        /* \"#utility.yul\":5239:5274   */\n    tag_162:\n        /* \"#utility.yul\":5296:5297   */\n      dup3\n        /* \"#utility.yul\":5293:5294   */\n      dup3\n        /* \"#utility.yul\":5289:5298   */\n      div\n        /* \"#utility.yul\":5284:5298   */\n      swap1\n      pop\n        /* \"#utility.yul\":5119:5304   */\n      swap3\n      swap2\n      pop\n      pop\n      jump\t// out\n        /* \"#utility.yul\":5310:5504   */\n    tag_40:\n        /* \"#utility.yul\":5350:5354   */\n      0x00\n        /* \"#utility.yul\":5370:5390   */\n      tag_165\n        /* \"#utility.yul\":5388:5389   */\n      dup3\n        /* \"#utility.yul\":5370:5390   */\n      tag_79\n      jump\t// in\n    tag_165:\n        /* \"#utility.yul\":5365:5390   */\n      swap2\n      pop\n        /* \"#utility.yul\":5404:5424   */\n      tag_166\n        /* \"#utility.yul\":5422:5423   */\n      dup4\n        /* \"#utility.yul\":5404:5424   */\n      tag_79\n      jump\t// in\n    tag_166:\n        /* \"#utility.yul\":5399:5424   */\n      swap3\n      pop\n        /* \"#utility.yul\":5448:5449   */\n      dup3\n        /* \"#utility.yul\":5445:5446   */\n      dup3\n        /* \"#utility.yul\":5441:5450   */\n      sub\n        /* \"#utility.yul\":5433:5450   */\n      swap1\n      pop\n        /* \"#utility.yul\":5472:5473   */\n      dup2\n        /* \"#utility.yul\":5466:5470   */\n      dup2\n        /* \"#utility.yul\":5463:5474   */\n      gt\n        /* \"#utility.yul\":5460:5497   */\n      iszero\n      tag_167\n      jumpi\n        /* \"#utility.yul\":5477:5495   */\n      tag_168\n      tag_88\n      jump\t// in\n    tag_168:\n        /* \"#utility.yul\":5460:5497   */\n    tag_167:\n        /* \"#utility.yul\":5310:5504   */\n      swap3\n      swap2\n      pop\n      pop\n      jump\t// out\n        /* \"#utility.yul\":5510:5684   */\n    tag_90:\n        /* \"#utility.yul\":5650:5676   */\n      0x73656c6c6572206973206e6f7420726567697374657265640000000000000000\n        /* \"#utility.yul\":5646:5647   */\n      0x00\n        /* \"#utility.yul\":5638:5644   */\n      dup3\n        /* \"#utility.yul\":5634:5648   */\n      add\n        /* \"#utility.yul\":5627:5677   */\n      mstore\n        /* \"#utility.yul\":5510:5684   */\n      pop\n      jump\t// out\n        /* \"#utility.yul\":5690:6056   */\n    tag_91:\n        /* \"#utility.yul\":5832:5835   */\n      0x00\n        /* \"#utility.yul\":5853:5920   */\n      tag_171\n        /* \"#utility.yul\":5917:5919   */\n      0x18\n        /* \"#utility.yul\":5912:5915   */\n      dup4\n        /* \"#utility.yul\":5853:5920   */\n      tag_84\n      jump\t// in\n    tag_171:\n        /* \"#utility.yul\":5846:5920   */\n      swap2\n      pop\n        /* \"#utility.yul\":5929:6022   */\n      tag_172\n        /* \"#utility.yul\":6018:6021   */\n      dup3\n        /* \"#utility.yul\":5929:6022   */\n      tag_90\n      jump\t// in\n    tag_172:\n        /* \"#utility.yul\":6047:6049   */\n      0x20\n        /* \"#utility.yul\":6042:6045   */\n      dup3\n        /* \"#utility.yul\":6038:6050   */\n      add\n        /* \"#utility.yul\":6031:6050   */\n      swap1\n      pop\n        /* \"#utility.yul\":5690:6056   */\n      swap2\n      swap1\n      pop\n      jump\t// out\n        /* \"#utility.yul\":6062:6481   */\n    tag_43:\n        /* \"#utility.yul\":6228:6232   */\n      0x00\n        /* \"#utility.yul\":6266:6268   */\n      0x20\n        /* \"#utility.yul\":6255:6264   */\n      dup3\n        /* \"#utility.yul\":6251:6269   */\n      add\n        /* \"#utility.yul\":6243:6269   */\n      swap1\n      pop\n        /* \"#utility.yul\":6315:6324   */\n      dup2\n        /* \"#utility.yul\":6309:6313   */\n      dup2\n        /* \"#utility.yul\":6305:6325   */\n      sub\n        /* \"#utility.yul\":6301:6302   */\n      0x00\n        /* \"#utility.yul\":6290:6299   */\n      dup4\n        /* \"#utility.yul\":6286:6303   */\n      add\n        /* \"#utility.yul\":6279:6326   */\n      mstore\n        /* \"#utility.yul\":6343:6474   */\n      tag_174\n        /* \"#utility.yul\":6469:6473   */\n      dup2\n        /* \"#utility.yul\":6343:6474   */\n      tag_91\n      jump\t// in\n    tag_174:\n        /* \"#utility.yul\":6335:6474   */\n      swap1\n      pop\n        /* \"#utility.yul\":6062:6481   */\n      swap2\n      swap1\n      pop\n      jump\t// out\n        /* \"#utility.yul\":6487:6660   */\n    tag_92:\n        /* \"#utility.yul\":6627:6652   */\n      0x6275796572206973206e6f742072656769737465726564000000000000000000\n        /* \"#utility.yul\":6623:6624   */\n      0x00\n        /* \"#utility.yul\":6615:6621   */\n      dup3\n        /* \"#utility.yul\":6611:6625   */\n      add\n        /* \"#utility.yul\":6604:6653   */\n      mstore\n        /* \"#utility.yul\":6487:6660   */\n      pop\n      jump\t// out\n        /* \"#utility.yul\":6666:7032   */\n    tag_93:\n        /* \"#utility.yul\":6808:6811   */\n      0x00\n        /* \"#utility.yul\":6829:6896   */\n      tag_177\n        /* \"#utility.yul\":6893:6895   */\n      0x17\n        /* \"#utility.yul\":6888:6891   */\n      dup4\n        /* \"#utility.yul\":6829:6896   */\n      tag_84\n      jump\t// in\n    tag_177:\n        /* \"#utility.yul\":6822:6896   */\n      swap2\n      pop\n        /* \"#utility.yul\":6905:6998   */\n      tag_178\n        /* \"#utility.yul\":6994:6997   */\n      dup3\n        /* \"#utility.yul\":6905:6998   */\n      tag_92\n      jump\t// in\n    tag_178:\n        /* \"#utility.yul\":7023:7025   */\n      0x20\n        /* \"#utility.yul\":7018:7021   */\n      dup3\n        /* \"#utility.yul\":7014:7026   */\n      add\n        /* \"#utility.yul\":7007:7026   */\n      swap1\n      pop\n        /* \"#utility.yul\":6666:7032   */\n      swap2\n      swap1\n      pop\n      jump\t// out\n        /* \"#utility.yul\":7038:7457   */\n    tag_46:\n        /* \"#utility.yul\":7204:7208   */\n      0x00\n        /* \"#utility.yul\":7242:7244   */\n      0x20\n        /* \"#utility.yul\":7231:7240   */\n      dup3\n        /* \"#utility.yul\":7227:7245   */\n      add\n        /* \"#utility.yul\":7219:7245   */\n      swap1\n      pop\n        /* \"#utility.yul\":7291:7300   */\n      dup2\n        /* \"#utility.yul\":7285:7289   */\n      dup2\n        /* \"#utility.yul\":7281:7301   */\n      sub\n        /* \"#utility.yul\":7277:7278   */\n      0x00\n        /* \"#utility.yul\":7266:7275   */\n      dup4\n        /* \"#utility.yul\":7262:7279   */\n      add\n        /* \"#utility.yul\":7255:7302   */\n      mstore\n        /* \"#utility.yul\":7319:7450   */\n      tag_180\n        /* \"#utility.yul\":7445:7449   */\n      dup2\n        /* \"#utility.yul\":7319:7450   */\n      tag_93\n      jump\t// in\n    tag_180:\n        /* \"#utility.yul\":7311:7450   */\n      swap1\n      pop\n        /* \"#utility.yul\":7038:7457   */\n      swap2\n      swap1\n      pop\n      jump\t// out\n        /* \"#utility.yul\":7463:7654   */\n    tag_48:\n        /* \"#utility.yul\":7503:7506   */\n      0x00\n        /* \"#utility.yul\":7522:7542   */\n      tag_182\n        /* \"#utility.yul\":7540:7541   */\n      dup3\n        /* \"#utility.yul\":7522:7542   */\n      tag_79\n      jump\t// in\n    tag_182:\n        /* \"#utility.yul\":7517:7542   */\n      swap2\n      pop\n        /* \"#utility.yul\":7556:7576   */\n      tag_183\n        /* \"#utility.yul\":7574:7575   */\n      dup4\n        /* \"#utility.yul\":7556:7576   */\n      tag_79\n      jump\t// in\n    tag_183:\n        /* \"#utility.yul\":7551:7576   */\n      swap3\n      pop\n        /* \"#utility.yul\":7599:7600   */\n      dup3\n        /* \"#utility.yul\":7596:7597   */\n      dup3\n        /* \"#utility.yul\":7592:7601   */\n      add\n        /* \"#utility.yul\":7585:7601   */\n      swap1\n      pop\n        /* \"#utility.yul\":7620:7623   */\n      dup1\n        /* \"#utility.yul\":7617:7618   */\n      dup3\n        /* \"#utility.yul\":7614:7624   */\n      gt\n        /* \"#utility.yul\":7611:7647   */\n      iszero\n      tag_184\n      jumpi\n        /* \"#utility.yul\":7627:7645   */\n      tag_185\n      tag_88\n      jump\t// in\n    tag_185:\n        /* \"#utility.yul\":7611:7647   */\n    tag_184:\n        /* \"#utility.yul\":7463:7654   */\n      swap3\n      swap2\n      pop\n      pop\n      jump\t// out\n        /* \"#utility.yul\":7660:7829   */\n    tag_94:\n        /* \"#utility.yul\":7800:7821   */\n      0x76616c75652063616e2774206265207a65726f00000000000000000000000000\n        /* \"#utility.yul\":7796:7797   */\n      0x00\n        /* \"#utility.yul\":7788:7794   */\n      dup3\n        /* \"#utility.yul\":7784:7798   */\n      add\n        /* \"#utility.yul\":7777:7822   */\n      mstore\n        /* \"#utility.yul\":7660:7829   */\n      pop\n      jump\t// out\n        /* \"#utility.yul\":7835:8201   */\n    tag_95:\n        /* \"#utility.yul\":7977:7980   */\n      0x00\n        /* \"#utility.yul\":7998:8065   */\n      tag_188\n        /* \"#utility.yul\":8062:8064   */\n      0x13\n        /* \"#utility.yul\":8057:8060   */\n      dup4\n        /* \"#utility.yul\":7998:8065   */\n      tag_84\n      jump\t// in\n    tag_188:\n        /* \"#utility.yul\":7991:8065   */\n      swap2\n      pop\n        /* \"#utility.yul\":8074:8167   */\n      tag_189\n        /* \"#utility.yul\":8163:8166   */\n      dup3\n        /* \"#utility.yul\":8074:8167   */\n      tag_94\n      jump\t// in\n    tag_189:\n        /* \"#utility.yul\":8192:8194   */\n      0x20\n        /* \"#utility.yul\":8187:8190   */\n      dup3\n        /* \"#utility.yul\":8183:8195   */\n      add\n        /* \"#utility.yul\":8176:8195   */\n      swap1\n      pop\n        /* \"#utility.yul\":7835:8201   */\n      swap2\n      swap1\n      pop\n      jump\t// out\n        /* \"#utility.yul\":8207:8626   */\n    tag_54:\n        /* \"#utility.yul\":8373:8377   */\n      0x00\n        /* \"#utility.yul\":8411:8413   */\n      0x20\n        /* \"#utility.yul\":8400:8409   */\n      dup3\n        /* \"#utility.yul\":8396:8414   */\n      add\n        /* \"#utility.yul\":8388:8414   */\n      swap1\n      pop\n        /* \"#utility.yul\":8460:8469   */\n      dup2\n        /* \"#utility.yul\":8454:8458   */\n      dup2\n        /* \"#utility.yul\":8450:8470   */\n      sub\n        /* \"#utility.yul\":8446:8447   */\n      0x00\n        /* \"#utility.yul\":8435:8444   */\n      dup4\n        /* \"#utility.yul\":8431:8448   */\n      add\n        /* \"#utility.yul\":8424:8471   */\n      mstore\n        /* \"#utility.yul\":8488:8619   */\n      tag_191\n        /* \"#utility.yul\":8614:8618   */\n      dup2\n        /* \"#utility.yul\":8488:8619   */\n      tag_95\n      jump\t// in\n    tag_191:\n        /* \"#utility.yul\":8480:8619   */\n      swap1\n      pop\n        /* \"#utility.yul\":8207:8626   */\n      swap2\n      swap1\n      pop\n      jump\t// out\n        /* \"#utility.yul\":8632:8812   */\n    tag_96:\n        /* \"#utility.yul\":8772:8804   */\n      0x2073656c6c657220616e642062757965722063616e742062652073616d650000\n        /* \"#utility.yul\":8768:8769   */\n      0x00\n        /* \"#utility.yul\":8760:8766   */\n      dup3\n        /* \"#utility.yul\":8756:8770   */\n      add\n        /* \"#utility.yul\":8749:8805   */\n      mstore\n        /* \"#utility.yul\":8632:8812   */\n      pop\n      jump\t// out\n        /* \"#utility.yul\":8818:9184   */\n    tag_97:\n        /* \"#utility.yul\":8960:8963   */\n      0x00\n        /* \"#utility.yul\":8981:9048   */\n      tag_194\n        /* \"#utility.yul\":9045:9047   */\n      0x1e\n        /* \"#utility.yul\":9040:9043   */\n      dup4\n        /* \"#utility.yul\":8981:9048   */\n      tag_84\n      jump\t// in\n    tag_194:\n        /* \"#utility.yul\":8974:9048   */\n      swap2\n      pop\n        /* \"#utility.yul\":9057:9150   */\n      tag_195\n        /* \"#utility.yul\":9146:9149   */\n      dup3\n        /* \"#utility.yul\":9057:9150   */\n      tag_96\n      jump\t// in\n    tag_195:\n        /* \"#utility.yul\":9175:9177   */\n      0x20\n        /* \"#utility.yul\":9170:9173   */\n      dup3\n        /* \"#utility.yul\":9166:9178   */\n      add\n        /* \"#utility.yul\":9159:9178   */\n      swap1\n      pop\n        /* \"#utility.yul\":8818:9184   */\n      swap2\n      swap1\n      pop\n      jump\t// out\n        /* \"#utility.yul\":9190:9609   */\n    tag_64:\n        /* \"#utility.yul\":9356:9360   */\n      0x00\n        /* \"#utility.yul\":9394:9396   */\n      0x20\n        /* \"#utility.yul\":9383:9392   */\n      dup3\n        /* \"#utility.yul\":9379:9397   */\n      add\n        /* \"#utility.yul\":9371:9397   */\n      swap1\n      pop\n        /* \"#utility.yul\":9443:9452   */\n      dup2\n        /* \"#utility.yul\":9437:9441   */\n      dup2\n        /* \"#utility.yul\":9433:9453   */\n      sub\n        /* \"#utility.yul\":9429:9430   */\n      0x00\n        /* \"#utility.yul\":9418:9427   */\n      dup4\n        /* \"#utility.yul\":9414:9431   */\n      add\n        /* \"#utility.yul\":9407:9454   */\n      mstore\n        /* \"#utility.yul\":9471:9602   */\n      tag_197\n        /* \"#utility.yul\":9597:9601   */\n      dup2\n        /* \"#utility.yul\":9471:9602   */\n      tag_97\n      jump\t// in\n    tag_197:\n        /* \"#utility.yul\":9463:9602   */\n      swap1\n      pop\n        /* \"#utility.yul\":9190:9609   */\n      swap2\n      swap1\n      pop\n      jump\t// out\n        /* \"#utility.yul\":9615:9842   */\n    tag_98:\n        /* \"#utility.yul\":9755:9789   */\n      0x73656c6c657220616e6420627579657220626f746820617265206e6f74207265\n        /* \"#utility.yul\":9751:9752   */\n      0x00\n        /* \"#utility.yul\":9743:9749   */\n      dup3\n        /* \"#utility.yul\":9739:9753   */\n      add\n        /* \"#utility.yul\":9732:9790   */\n      mstore\n        /* \"#utility.yul\":9824:9834   */\n      0x6769737465726564000000000000000000000000000000000000000000000000\n        /* \"#utility.yul\":9819:9821   */\n      0x20\n        /* \"#utility.yul\":9811:9817   */\n      dup3\n        /* \"#utility.yul\":9807:9822   */\n      add\n        /* \"#utility.yul\":9800:9835   */\n      mstore\n        /* \"#utility.yul\":9615:9842   */\n      pop\n      jump\t// out\n        /* \"#utility.yul\":9848:10214   */\n    tag_99:\n        /* \"#utility.yul\":9990:9993   */\n      0x00\n        /* \"#utility.yul\":10011:10078   */\n      tag_200\n        /* \"#utility.yul\":10075:10077   */\n      0x28\n        /* \"#utility.yul\":10070:10073   */\n      dup4\n        /* \"#utility.yul\":10011:10078   */\n      tag_84\n      jump\t// in\n    tag_200:\n        /* \"#utility.yul\":10004:10078   */\n      swap2\n      pop\n        /* \"#utility.yul\":10087:10180   */\n      tag_201\n        /* \"#utility.yul\":10176:10179   */\n      dup3\n        /* \"#utility.yul\":10087:10180   */\n      tag_98\n      jump\t// in\n    tag_201:\n        /* \"#utility.yul\":10205:10207   */\n      0x40\n        /* \"#utility.yul\":10200:10203   */\n      dup3\n        /* \"#utility.yul\":10196:10208   */\n      add\n        /* \"#utility.yul\":10189:10208   */\n      swap1\n      pop\n        /* \"#utility.yul\":9848:10214   */\n      swap2\n      swap1\n      pop\n      jump\t// out\n        /* \"#utility.yul\":10220:10639   */\n    tag_69:\n        /* \"#utility.yul\":10386:10390   */\n      0x00\n        /* \"#utility.yul\":10424:10426   */\n      0x20\n        /* \"#utility.yul\":10413:10422   */\n      dup3\n        /* \"#utility.yul\":10409:10427   */\n      add\n        /* \"#utility.yul\":10401:10427   */\n      swap1\n      pop\n        /* \"#utility.yul\":10473:10482   */\n      dup2\n        /* \"#utility.yul\":10467:10471   */\n      dup2\n        /* \"#utility.yul\":10463:10483   */\n      sub\n        /* \"#utility.yul\":10459:10460   */\n      0x00\n        /* \"#utility.yul\":10448:10457   */\n      dup4\n        /* \"#utility.yul\":10444:10461   */\n      add\n        /* \"#utility.yul\":10437:10484   */\n      mstore\n        /* \"#utility.yul\":10501:10632   */\n      tag_203\n        /* \"#utility.yul\":10627:10631   */\n      dup2\n        /* \"#utility.yul\":10501:10632   */\n      tag_99\n      jump\t// in\n    tag_203:\n        /* \"#utility.yul\":10493:10632   */\n      swap1\n      pop\n        /* \"#utility.yul\":10220:10639   */\n      swap2\n      swap1\n      pop\n      jump\t// out\n    stop\n    data_17aa23838344d69e7c95fa6cd1cad8785ff6bfbc7529891f112320c03b7ec720 6974656d2077696c6c206265207368697070656420746f207468652062757965722061646472657373\n\n    auxdata: 0xa26469706673582212207684447e021585dec4f5299c1038295b3a09f728323c55a953ce6c0a76b4091964736f6c63430008140033\n}\n",
				"bytecode": {
					"linkReferences": {},
					"object": "608060405234801561000f575f80fd5b50604051610dea380380610dea83398181016040528101906100319190610075565b80600181905550506100a0565b5f80fd5b5f819050919050565b61005481610042565b811461005e575f80fd5b50565b5f8151905061006f8161004b565b92915050565b5f6020828403121561008a5761008961003e565b5b5f61009784828501610061565b91505092915050565b610d3d806100ad5f395ff3fe608060405234801561000f575f80fd5b5060043610610060575f3560e01c8063153e66e6146100645780636b6f4a9d146100805780636d705ebb1461009e578063cae270b6146100ba578063e3d670d7146100ea578063ecf5ac891461011a575b5f80fd5b61007e600480360381019061007991906107f4565b610138565b005b610088610378565b6040516100959190610853565b60405180910390f35b6100b860048036038101906100b3919061086c565b61037e565b005b6100d460048036038101906100cf91906107f4565b610405565b6040516100e19190610934565b60405180910390f35b61010460048036038101906100ff9190610954565b610749565b6040516101119190610853565b60405180910390f35b61012261075d565b60405161012f9190610853565b60405180910390f35b5f60646001548361014991906109ac565b6101539190610a1a565b905080826101619190610a4a565b6002819055505f805f8673ffffffffffffffffffffffffffffffffffffffff1673ffffffffffffffffffffffffffffffffffffffff1681526020019081526020015f2054036101e5576040517f08c379a00000000000000000000000000000000000000000000000000000000081526004016101dc90610ac7565b60405180910390fd5b5f805f8573ffffffffffffffffffffffffffffffffffffffff1673ffffffffffffffffffffffffffffffffffffffff1681526020019081526020015f205403610263576040517f08c379a000000000000000000000000000000000000000000000000000000000815260040161025a90610b2f565b60405180910390fd5b6002545f808673ffffffffffffffffffffffffffffffffffffffff1673ffffffffffffffffffffffffffffffffffffffff1681526020019081526020015f205f8282546102b09190610b4d565b925050819055506002545f808573ffffffffffffffffffffffffffffffffffffffff1673ffffffffffffffffffffffffffffffffffffffff1681526020019081526020015f205f8282546103049190610a4a565b925050819055508373ffffffffffffffffffffffffffffffffffffffff168373ffffffffffffffffffffffffffffffffffffffff167f640441567a63f93bb708d33df4fb558ccf2ec59f306cc74b9bed436c9354d20360025460405161036a9190610853565b60405180910390a350505050565b60015481565b5f81036103c0576040517f08c379a00000000000000000000000000000000000000000000000000000000081526004016103b790610bca565b60405180910390fd5b805f808473ffffffffffffffffffffffffffffffffffffffff1673ffffffffffffffffffffffffffffffffffffffff1681526020019081526020015f20819055505050565b60605f805f8673ffffffffffffffffffffffffffffffffffffffff1673ffffffffffffffffffffffffffffffffffffffff1681526020019081526020015f205403610485576040517f571c8de700000000000000000000000000000000000000000000000000000000815260040161047c90610ac7565b60405180910390fd5b5f805f8573ffffffffffffffffffffffffffffffffffffffff1673ffffffffffffffffffffffffffffffffffffffff1681526020019081526020015f205403610503576040517f571c8de70000000000000000000000000000000000000000000000000000000081526004016104fa90610b2f565b60405180910390fd5b5f808473ffffffffffffffffffffffffffffffffffffffff1673ffffffffffffffffffffffffffffffffffffffff1681526020019081526020015f20545f808673ffffffffffffffffffffffffffffffffffffffff1673ffffffffffffffffffffffffffffffffffffffff1681526020019081526020015f2054036105bd576040517f571c8de70000000000000000000000000000000000000000000000000000000081526004016105b490610c32565b60405180910390fd5b5f805f8673ffffffffffffffffffffffffffffffffffffffff1673ffffffffffffffffffffffffffffffffffffffff1681526020019081526020015f205414801561064357505f805f8573ffffffffffffffffffffffffffffffffffffffff1673ffffffffffffffffffffffffffffffffffffffff1681526020019081526020015f2054145b15610683576040517f571c8de700000000000000000000000000000000000000000000000000000000815260040161067a90610cc0565b60405180910390fd5b815f808673ffffffffffffffffffffffffffffffffffffffff1673ffffffffffffffffffffffffffffffffffffffff1681526020019081526020015f205f8282546106ce9190610b4d565b92505081905550815f808573ffffffffffffffffffffffffffffffffffffffff1673ffffffffffffffffffffffffffffffffffffffff1681526020019081526020015f205f8282546107209190610a4a565b92505081905550604051806060016040528060298152602001610cdf6029913990509392505050565b5f602052805f5260405f205f915090505481565b60025481565b5f80fd5b5f73ffffffffffffffffffffffffffffffffffffffff82169050919050565b5f61079082610767565b9050919050565b6107a081610786565b81146107aa575f80fd5b50565b5f813590506107bb81610797565b92915050565b5f819050919050565b6107d3816107c1565b81146107dd575f80fd5b50565b5f813590506107ee816107ca565b92915050565b5f805f6060848603121561080b5761080a610763565b5b5f610818868287016107ad565b9350506020610829868287016107ad565b925050604061083a868287016107e0565b9150509250925092565b61084d816107c1565b82525050565b5f6020820190506108665f830184610844565b92915050565b5f806040838503121561088257610881610763565b5b5f61088f858286016107ad565b92505060206108a0858286016107e0565b9150509250929050565b5f81519050919050565b5f82825260208201905092915050565b5f5b838110156108e15780820151818401526020810190506108c6565b5f8484015250505050565b5f601f19601f8301169050919050565b5f610906826108aa565b61091081856108b4565b93506109208185602086016108c4565b610929816108ec565b840191505092915050565b5f6020820190508181035f83015261094c81846108fc565b905092915050565b5f6020828403121561096957610968610763565b5b5f610976848285016107ad565b91505092915050565b7f4e487b71000000000000000000000000000000000000000000000000000000005f52601160045260245ffd5b5f6109b6826107c1565b91506109c1836107c1565b92508282026109cf816107c1565b915082820484148315176109e6576109e561097f565b5b5092915050565b7f4e487b71000000000000000000000000000000000000000000000000000000005f52601260045260245ffd5b5f610a24826107c1565b9150610a2f836107c1565b925082610a3f57610a3e6109ed565b5b828204905092915050565b5f610a54826107c1565b9150610a5f836107c1565b9250828203905081811115610a7757610a7661097f565b5b92915050565b7f73656c6c6572206973206e6f74207265676973746572656400000000000000005f82015250565b5f610ab16018836108b4565b9150610abc82610a7d565b602082019050919050565b5f6020820190508181035f830152610ade81610aa5565b9050919050565b7f6275796572206973206e6f7420726567697374657265640000000000000000005f82015250565b5f610b196017836108b4565b9150610b2482610ae5565b602082019050919050565b5f6020820190508181035f830152610b4681610b0d565b9050919050565b5f610b57826107c1565b9150610b62836107c1565b9250828201905080821115610b7a57610b7961097f565b5b92915050565b7f76616c75652063616e2774206265207a65726f000000000000000000000000005f82015250565b5f610bb46013836108b4565b9150610bbf82610b80565b602082019050919050565b5f6020820190508181035f830152610be181610ba8565b9050919050565b7f2073656c6c657220616e642062757965722063616e742062652073616d6500005f82015250565b5f610c1c601e836108b4565b9150610c2782610be8565b602082019050919050565b5f6020820190508181035f830152610c4981610c10565b9050919050565b7f73656c6c657220616e6420627579657220626f746820617265206e6f742072655f8201527f6769737465726564000000000000000000000000000000000000000000000000602082015250565b5f610caa6028836108b4565b9150610cb582610c50565b604082019050919050565b5f6020820190508181035f830152610cd781610c9e565b905091905056fe6974656d2077696c6c206265207368697070656420746f207468652062757965722061646472657373a26469706673582212207684447e021585dec4f5299c1038295b3a09f728323c55a953ce6c0a76b4091964736f6c63430008140033",
					"opcodes": "PUSH1 0x80 PUSH1 0x40 MSTORE CALLVALUE DUP1 ISZERO PUSH2 0xF JUMPI PUSH0 DUP1 REVERT JUMPDEST POP PUSH1 0x40 MLOAD PUSH2 0xDEA CODESIZE SUB DUP1 PUSH2 0xDEA DUP4 CODECOPY DUP2 DUP2 ADD PUSH1 0x40 MSTORE DUP2 ADD SWAP1 PUSH2 0x31 SWAP2 SWAP1 PUSH2 0x75 JUMP JUMPDEST DUP1 PUSH1 0x1 DUP2 SWAP1 SSTORE POP POP PUSH2 0xA0 JUMP JUMPDEST PUSH0 DUP1 REVERT JUMPDEST PUSH0 DUP2 SWAP1 POP SWAP2 SWAP1 POP JUMP JUMPDEST PUSH2 0x54 DUP2 PUSH2 0x42 JUMP JUMPDEST DUP2 EQ PUSH2 0x5E JUMPI PUSH0 DUP1 REVERT JUMPDEST POP JUMP JUMPDEST PUSH0 DUP2 MLOAD SWAP1 POP PUSH2 0x6F DUP2 PUSH2 0x4B JUMP JUMPDEST SWAP3 SWAP2 POP POP JUMP JUMPDEST PUSH0 PUSH1 0x20 DUP3 DUP5 SUB SLT ISZERO PUSH2 0x8A JUMPI PUSH2 0x89 PUSH2 0x3E JUMP JUMPDEST JUMPDEST PUSH0 PUSH2 0x97 DUP5 DUP3 DUP6 ADD PUSH2 0x61 JUMP JUMPDEST SWAP2 POP POP SWAP3 SWAP2 POP POP JUMP JUMPDEST PUSH2 0xD3D DUP1 PUSH2 0xAD PUSH0 CODECOPY PUSH0 RETURN INVALID PUSH1 0x80 PUSH1 0x40 MSTORE CALLVALUE DUP1 ISZERO PUSH2 0xF JUMPI PUSH0 DUP1 REVERT JUMPDEST POP PUSH1 0x4 CALLDATASIZE LT PUSH2 0x60 JUMPI PUSH0 CALLDATALOAD PUSH1 0xE0 SHR DUP1 PUSH4 0x153E66E6 EQ PUSH2 0x64 JUMPI DUP1 PUSH4 0x6B6F4A9D EQ PUSH2 0x80 JUMPI DUP1 PUSH4 0x6D705EBB EQ PUSH2 0x9E JUMPI DUP1 PUSH4 0xCAE270B6 EQ PUSH2 0xBA JUMPI DUP1 PUSH4 0xE3D670D7 EQ PUSH2 0xEA JUMPI DUP1 PUSH4 0xECF5AC89 EQ PUSH2 0x11A JUMPI JUMPDEST PUSH0 DUP1 REVERT JUMPDEST PUSH2 0x7E PUSH1 0x4 DUP1 CALLDATASIZE SUB DUP2 ADD SWAP1 PUSH2 0x79 SWAP2 SWAP1 PUSH2 0x7F4 JUMP JUMPDEST PUSH2 0x138 JUMP JUMPDEST STOP JUMPDEST PUSH2 0x88 PUSH2 0x378 JUMP JUMPDEST PUSH1 0x40 MLOAD PUSH2 0x95 SWAP2 SWAP1 PUSH2 0x853 JUMP JUMPDEST PUSH1 0x40 MLOAD DUP1 SWAP2 SUB SWAP1 RETURN JUMPDEST PUSH2 0xB8 PUSH1 0x4 DUP1 CALLDATASIZE SUB DUP2 ADD SWAP1 PUSH2 0xB3 SWAP2 SWAP1 PUSH2 0x86C JUMP JUMPDEST PUSH2 0x37E JUMP JUMPDEST STOP JUMPDEST PUSH2 0xD4 PUSH1 0x4 DUP1 CALLDATASIZE SUB DUP2 ADD SWAP1 PUSH2 0xCF SWAP2 SWAP1 PUSH2 0x7F4 JUMP JUMPDEST PUSH2 0x405 JUMP JUMPDEST PUSH1 0x40 MLOAD PUSH2 0xE1 SWAP2 SWAP1 PUSH2 0x934 JUMP JUMPDEST PUSH1 0x40 MLOAD DUP1 SWAP2 SUB SWAP1 RETURN JUMPDEST PUSH2 0x104 PUSH1 0x4 DUP1 CALLDATASIZE SUB DUP2 ADD SWAP1 PUSH2 0xFF SWAP2 SWAP1 PUSH2 0x954 JUMP JUMPDEST PUSH2 0x749 JUMP JUMPDEST PUSH1 0x40 MLOAD PUSH2 0x111 SWAP2 SWAP1 PUSH2 0x853 JUMP JUMPDEST PUSH1 0x40 MLOAD DUP1 SWAP2 SUB SWAP1 RETURN JUMPDEST PUSH2 0x122 PUSH2 0x75D JUMP JUMPDEST PUSH1 0x40 MLOAD PUSH2 0x12F SWAP2 SWAP1 PUSH2 0x853 JUMP JUMPDEST PUSH1 0x40 MLOAD DUP1 SWAP2 SUB SWAP1 RETURN JUMPDEST PUSH0 PUSH1 0x64 PUSH1 0x1 SLOAD DUP4 PUSH2 0x149 SWAP2 SWAP1 PUSH2 0x9AC JUMP JUMPDEST PUSH2 0x153 SWAP2 SWAP1 PUSH2 0xA1A JUMP JUMPDEST SWAP1 POP DUP1 DUP3 PUSH2 0x161 SWAP2 SWAP1 PUSH2 0xA4A JUMP JUMPDEST PUSH1 0x2 DUP2 SWAP1 SSTORE POP PUSH0 DUP1 PUSH0 DUP7 PUSH20 0xFFFFFFFFFFFFFFFFFFFFFFFFFFFFFFFFFFFFFFFF AND PUSH20 0xFFFFFFFFFFFFFFFFFFFFFFFFFFFFFFFFFFFFFFFF AND DUP2 MSTORE PUSH1 0x20 ADD SWAP1 DUP2 MSTORE PUSH1 0x20 ADD PUSH0 KECCAK256 SLOAD SUB PUSH2 0x1E5 JUMPI PUSH1 0x40 MLOAD PUSH32 0x8C379A000000000000000000000000000000000000000000000000000000000 DUP2 MSTORE PUSH1 0x4 ADD PUSH2 0x1DC SWAP1 PUSH2 0xAC7 JUMP JUMPDEST PUSH1 0x40 MLOAD DUP1 SWAP2 SUB SWAP1 REVERT JUMPDEST PUSH0 DUP1 PUSH0 DUP6 PUSH20 0xFFFFFFFFFFFFFFFFFFFFFFFFFFFFFFFFFFFFFFFF AND PUSH20 0xFFFFFFFFFFFFFFFFFFFFFFFFFFFFFFFFFFFFFFFF AND DUP2 MSTORE PUSH1 0x20 ADD SWAP1 DUP2 MSTORE PUSH1 0x20 ADD PUSH0 KECCAK256 SLOAD SUB PUSH2 0x263 JUMPI PUSH1 0x40 MLOAD PUSH32 0x8C379A000000000000000000000000000000000000000000000000000000000 DUP2 MSTORE PUSH1 0x4 ADD PUSH2 0x25A SWAP1 PUSH2 0xB2F JUMP JUMPDEST PUSH1 0x40 MLOAD DUP1 SWAP2 SUB SWAP1 REVERT JUMPDEST PUSH1 0x2 SLOAD PUSH0 DUP1 DUP7 PUSH20 0xFFFFFFFFFFFFFFFFFFFFFFFFFFFFFFFFFFFFFFFF AND PUSH20 0xFFFFFFFFFFFFFFFFFFFFFFFFFFFFFFFFFFFFFFFF AND DUP2 MSTORE PUSH1 0x20 ADD SWAP1 DUP2 MSTORE PUSH1 0x20 ADD PUSH0 KECCAK256 PUSH0 DUP3 DUP3 SLOAD PUSH2 0x2B0 SWAP2 SWAP1 PUSH2 0xB4D JUMP JUMPDEST SWAP3 POP POP DUP2 SWAP1 SSTORE POP PUSH1 0x2 SLOAD PUSH0 DUP1 DUP6 PUSH20 0xFFFFFFFFFFFFFFFFFFFFFFFFFFFFFFFFFFFFFFFF AND PUSH20 0xFFFFFFFFFFFFFFFFFFFFFFFFFFFFFFFFFFFFFFFF AND DUP2 MSTORE PUSH1 0x20 ADD SWAP1 DUP2 MSTORE PUSH1 0x20 ADD PUSH0 KECCAK256 PUSH0 DUP3 DUP3 SLOAD PUSH2 0x304 SWAP2 SWAP1 PUSH2 0xA4A JUMP JUMPDEST SWAP3 POP POP DUP2 SWAP1 SSTORE POP DUP4 PUSH20 0xFFFFFFFFFFFFFFFFFFFFFFFFFFFFFFFFFFFFFFFF AND DUP4 PUSH20 0xFFFFFFFFFFFFFFFFFFFFFFFFFFFFFFFFFFFFFFFF AND PUSH32 0x640441567A63F93BB708D33DF4FB558CCF2EC59F306CC74B9BED436C9354D203 PUSH1 0x2 SLOAD PUSH1 0x40 MLOAD PUSH2 0x36A SWAP2 SWAP1 PUSH2 0x853 JUMP JUMPDEST PUSH1 0x40 MLOAD DUP1 SWAP2 SUB SWAP1 LOG3 POP POP POP POP JUMP JUMPDEST PUSH1 0x1 SLOAD DUP2 JUMP JUMPDEST PUSH0 DUP2 SUB PUSH2 0x3C0 JUMPI PUSH1 0x40 MLOAD PUSH32 0x8C379A000000000000000000000000000000000000000000000000000000000 DUP2 MSTORE PUSH1 0x4 ADD PUSH2 0x3B7 SWAP1 PUSH2 0xBCA JUMP JUMPDEST PUSH1 0x40 MLOAD DUP1 SWAP2 SUB SWAP1 REVERT JUMPDEST DUP1 PUSH0 DUP1 DUP5 PUSH20 0xFFFFFFFFFFFFFFFFFFFFFFFFFFFFFFFFFFFFFFFF AND PUSH20 0xFFFFFFFFFFFFFFFFFFFFFFFFFFFFFFFFFFFFFFFF AND DUP2 MSTORE PUSH1 0x20 ADD SWAP1 DUP2 MSTORE PUSH1 0x20 ADD PUSH0 KECCAK256 DUP2 SWAP1 SSTORE POP POP POP JUMP JUMPDEST PUSH1 0x60 PUSH0 DUP1 PUSH0 DUP7 PUSH20 0xFFFFFFFFFFFFFFFFFFFFFFFFFFFFFFFFFFFFFFFF AND PUSH20 0xFFFFFFFFFFFFFFFFFFFFFFFFFFFFFFFFFFFFFFFF AND DUP2 MSTORE PUSH1 0x20 ADD SWAP1 DUP2 MSTORE PUSH1 0x20 ADD PUSH0 KECCAK256 SLOAD SUB PUSH2 0x485 JUMPI PUSH1 0x40 MLOAD PUSH32 0x571C8DE700000000000000000000000000000000000000000000000000000000 DUP2 MSTORE PUSH1 0x4 ADD PUSH2 0x47C SWAP1 PUSH2 0xAC7 JUMP JUMPDEST PUSH1 0x40 MLOAD DUP1 SWAP2 SUB SWAP1 REVERT JUMPDEST PUSH0 DUP1 PUSH0 DUP6 PUSH20 0xFFFFFFFFFFFFFFFFFFFFFFFFFFFFFFFFFFFFFFFF AND PUSH20 0xFFFFFFFFFFFFFFFFFFFFFFFFFFFFFFFFFFFFFFFF AND DUP2 MSTORE PUSH1 0x20 ADD SWAP1 DUP2 MSTORE PUSH1 0x20 ADD PUSH0 KECCAK256 SLOAD SUB PUSH2 0x503 JUMPI PUSH1 0x40 MLOAD PUSH32 0x571C8DE700000000000000000000000000000000000000000000000000000000 DUP2 MSTORE PUSH1 0x4 ADD PUSH2 0x4FA SWAP1 PUSH2 0xB2F JUMP JUMPDEST PUSH1 0x40 MLOAD DUP1 SWAP2 SUB SWAP1 REVERT JUMPDEST PUSH0 DUP1 DUP5 PUSH20 0xFFFFFFFFFFFFFFFFFFFFFFFFFFFFFFFFFFFFFFFF AND PUSH20 0xFFFFFFFFFFFFFFFFFFFFFFFFFFFFFFFFFFFFFFFF AND DUP2 MSTORE PUSH1 0x20 ADD SWAP1 DUP2 MSTORE PUSH1 0x20 ADD PUSH0 KECCAK256 SLOAD PUSH0 DUP1 DUP7 PUSH20 0xFFFFFFFFFFFFFFFFFFFFFFFFFFFFFFFFFFFFFFFF AND PUSH20 0xFFFFFFFFFFFFFFFFFFFFFFFFFFFFFFFFFFFFFFFF AND DUP2 MSTORE PUSH1 0x20 ADD SWAP1 DUP2 MSTORE PUSH1 0x20 ADD PUSH0 KECCAK256 SLOAD SUB PUSH2 0x5BD JUMPI PUSH1 0x40 MLOAD PUSH32 0x571C8DE700000000000000000000000000000000000000000000000000000000 DUP2 MSTORE PUSH1 0x4 ADD PUSH2 0x5B4 SWAP1 PUSH2 0xC32 JUMP JUMPDEST PUSH1 0x40 MLOAD DUP1 SWAP2 SUB SWAP1 REVERT JUMPDEST PUSH0 DUP1 PUSH0 DUP7 PUSH20 0xFFFFFFFFFFFFFFFFFFFFFFFFFFFFFFFFFFFFFFFF AND PUSH20 0xFFFFFFFFFFFFFFFFFFFFFFFFFFFFFFFFFFFFFFFF AND DUP2 MSTORE PUSH1 0x20 ADD SWAP1 DUP2 MSTORE PUSH1 0x20 ADD PUSH0 KECCAK256 SLOAD EQ DUP1 ISZERO PUSH2 0x643 JUMPI POP PUSH0 DUP1 PUSH0 DUP6 PUSH20 0xFFFFFFFFFFFFFFFFFFFFFFFFFFFFFFFFFFFFFFFF AND PUSH20 0xFFFFFFFFFFFFFFFFFFFFFFFFFFFFFFFFFFFFFFFF AND DUP2 MSTORE PUSH1 0x20 ADD SWAP1 DUP2 MSTORE PUSH1 0x20 ADD PUSH0 KECCAK256 SLOAD EQ JUMPDEST ISZERO PUSH2 0x683 JUMPI PUSH1 0x40 MLOAD PUSH32 0x571C8DE700000000000000000000000000000000000000000000000000000000 DUP2 MSTORE PUSH1 0x4 ADD PUSH2 0x67A SWAP1 PUSH2 0xCC0 JUMP JUMPDEST PUSH1 0x40 MLOAD DUP1 SWAP2 SUB SWAP1 REVERT JUMPDEST DUP2 PUSH0 DUP1 DUP7 PUSH20 0xFFFFFFFFFFFFFFFFFFFFFFFFFFFFFFFFFFFFFFFF AND PUSH20 0xFFFFFFFFFFFFFFFFFFFFFFFFFFFFFFFFFFFFFFFF AND DUP2 MSTORE PUSH1 0x20 ADD SWAP1 DUP2 MSTORE PUSH1 0x20 ADD PUSH0 KECCAK256 PUSH0 DUP3 DUP3 SLOAD PUSH2 0x6CE SWAP2 SWAP1 PUSH2 0xB4D JUMP JUMPDEST SWAP3 POP POP DUP2 SWAP1 SSTORE POP DUP2 PUSH0 DUP1 DUP6 PUSH20 0xFFFFFFFFFFFFFFFFFFFFFFFFFFFFFFFFFFFFFFFF AND PUSH20 0xFFFFFFFFFFFFFFFFFFFFFFFFFFFFFFFFFFFFFFFF AND DUP2 MSTORE PUSH1 0x20 ADD SWAP1 DUP2 MSTORE PUSH1 0x20 ADD PUSH0 KECCAK256 PUSH0 DUP3 DUP3 SLOAD PUSH2 0x720 SWAP2 SWAP1 PUSH2 0xA4A JUMP JUMPDEST SWAP3 POP POP DUP2 SWAP1 SSTORE POP PUSH1 0x40 MLOAD DUP1 PUSH1 0x60 ADD PUSH1 0x40 MSTORE DUP1 PUSH1 0x29 DUP2 MSTORE PUSH1 0x20 ADD PUSH2 0xCDF PUSH1 0x29 SWAP2 CODECOPY SWAP1 POP SWAP4 SWAP3 POP POP POP JUMP JUMPDEST PUSH0 PUSH1 0x20 MSTORE DUP1 PUSH0 MSTORE PUSH1 0x40 PUSH0 KECCAK256 PUSH0 SWAP2 POP SWAP1 POP SLOAD DUP2 JUMP JUMPDEST PUSH1 0x2 SLOAD DUP2 JUMP JUMPDEST PUSH0 DUP1 REVERT JUMPDEST PUSH0 PUSH20 0xFFFFFFFFFFFFFFFFFFFFFFFFFFFFFFFFFFFFFFFF DUP3 AND SWAP1 POP SWAP2 SWAP1 POP JUMP JUMPDEST PUSH0 PUSH2 0x790 DUP3 PUSH2 0x767 JUMP JUMPDEST SWAP1 POP SWAP2 SWAP1 POP JUMP JUMPDEST PUSH2 0x7A0 DUP2 PUSH2 0x786 JUMP JUMPDEST DUP2 EQ PUSH2 0x7AA JUMPI PUSH0 DUP1 REVERT JUMPDEST POP JUMP JUMPDEST PUSH0 DUP2 CALLDATALOAD SWAP1 POP PUSH2 0x7BB DUP2 PUSH2 0x797 JUMP JUMPDEST SWAP3 SWAP2 POP POP JUMP JUMPDEST PUSH0 DUP2 SWAP1 POP SWAP2 SWAP1 POP JUMP JUMPDEST PUSH2 0x7D3 DUP2 PUSH2 0x7C1 JUMP JUMPDEST DUP2 EQ PUSH2 0x7DD JUMPI PUSH0 DUP1 REVERT JUMPDEST POP JUMP JUMPDEST PUSH0 DUP2 CALLDATALOAD SWAP1 POP PUSH2 0x7EE DUP2 PUSH2 0x7CA JUMP JUMPDEST SWAP3 SWAP2 POP POP JUMP JUMPDEST PUSH0 DUP1 PUSH0 PUSH1 0x60 DUP5 DUP7 SUB SLT ISZERO PUSH2 0x80B JUMPI PUSH2 0x80A PUSH2 0x763 JUMP JUMPDEST JUMPDEST PUSH0 PUSH2 0x818 DUP7 DUP3 DUP8 ADD PUSH2 0x7AD JUMP JUMPDEST SWAP4 POP POP PUSH1 0x20 PUSH2 0x829 DUP7 DUP3 DUP8 ADD PUSH2 0x7AD JUMP JUMPDEST SWAP3 POP POP PUSH1 0x40 PUSH2 0x83A DUP7 DUP3 DUP8 ADD PUSH2 0x7E0 JUMP JUMPDEST SWAP2 POP POP SWAP3 POP SWAP3 POP SWAP3 JUMP JUMPDEST PUSH2 0x84D DUP2 PUSH2 0x7C1 JUMP JUMPDEST DUP3 MSTORE POP POP JUMP JUMPDEST PUSH0 PUSH1 0x20 DUP3 ADD SWAP1 POP PUSH2 0x866 PUSH0 DUP4 ADD DUP5 PUSH2 0x844 JUMP JUMPDEST SWAP3 SWAP2 POP POP JUMP JUMPDEST PUSH0 DUP1 PUSH1 0x40 DUP4 DUP6 SUB SLT ISZERO PUSH2 0x882 JUMPI PUSH2 0x881 PUSH2 0x763 JUMP JUMPDEST JUMPDEST PUSH0 PUSH2 0x88F DUP6 DUP3 DUP7 ADD PUSH2 0x7AD JUMP JUMPDEST SWAP3 POP POP PUSH1 0x20 PUSH2 0x8A0 DUP6 DUP3 DUP7 ADD PUSH2 0x7E0 JUMP JUMPDEST SWAP2 POP POP SWAP3 POP SWAP3 SWAP1 POP JUMP JUMPDEST PUSH0 DUP2 MLOAD SWAP1 POP SWAP2 SWAP1 POP JUMP JUMPDEST PUSH0 DUP3 DUP3 MSTORE PUSH1 0x20 DUP3 ADD SWAP1 POP SWAP3 SWAP2 POP POP JUMP JUMPDEST PUSH0 JUMPDEST DUP4 DUP2 LT ISZERO PUSH2 0x8E1 JUMPI DUP1 DUP3 ADD MLOAD DUP2 DUP5 ADD MSTORE PUSH1 0x20 DUP2 ADD SWAP1 POP PUSH2 0x8C6 JUMP JUMPDEST PUSH0 DUP5 DUP5 ADD MSTORE POP POP POP POP JUMP JUMPDEST PUSH0 PUSH1 0x1F NOT PUSH1 0x1F DUP4 ADD AND SWAP1 POP SWAP2 SWAP1 POP JUMP JUMPDEST PUSH0 PUSH2 0x906 DUP3 PUSH2 0x8AA JUMP JUMPDEST PUSH2 0x910 DUP2 DUP6 PUSH2 0x8B4 JUMP JUMPDEST SWAP4 POP PUSH2 0x920 DUP2 DUP6 PUSH1 0x20 DUP7 ADD PUSH2 0x8C4 JUMP JUMPDEST PUSH2 0x929 DUP2 PUSH2 0x8EC JUMP JUMPDEST DUP5 ADD SWAP2 POP POP SWAP3 SWAP2 POP POP JUMP JUMPDEST PUSH0 PUSH1 0x20 DUP3 ADD SWAP1 POP DUP2 DUP2 SUB PUSH0 DUP4 ADD MSTORE PUSH2 0x94C DUP2 DUP5 PUSH2 0x8FC JUMP JUMPDEST SWAP1 POP SWAP3 SWAP2 POP POP JUMP JUMPDEST PUSH0 PUSH1 0x20 DUP3 DUP5 SUB SLT ISZERO PUSH2 0x969 JUMPI PUSH2 0x968 PUSH2 0x763 JUMP JUMPDEST JUMPDEST PUSH0 PUSH2 0x976 DUP5 DUP3 DUP6 ADD PUSH2 0x7AD JUMP JUMPDEST SWAP2 POP POP SWAP3 SWAP2 POP POP JUMP JUMPDEST PUSH32 0x4E487B7100000000000000000000000000000000000000000000000000000000 PUSH0 MSTORE PUSH1 0x11 PUSH1 0x4 MSTORE PUSH1 0x24 PUSH0 REVERT JUMPDEST PUSH0 PUSH2 0x9B6 DUP3 PUSH2 0x7C1 JUMP JUMPDEST SWAP2 POP PUSH2 0x9C1 DUP4 PUSH2 0x7C1 JUMP JUMPDEST SWAP3 POP DUP3 DUP3 MUL PUSH2 0x9CF DUP2 PUSH2 0x7C1 JUMP JUMPDEST SWAP2 POP DUP3 DUP3 DIV DUP5 EQ DUP4 ISZERO OR PUSH2 0x9E6 JUMPI PUSH2 0x9E5 PUSH2 0x97F JUMP JUMPDEST JUMPDEST POP SWAP3 SWAP2 POP POP JUMP JUMPDEST PUSH32 0x4E487B7100000000000000000000000000000000000000000000000000000000 PUSH0 MSTORE PUSH1 0x12 PUSH1 0x4 MSTORE PUSH1 0x24 PUSH0 REVERT JUMPDEST PUSH0 PUSH2 0xA24 DUP3 PUSH2 0x7C1 JUMP JUMPDEST SWAP2 POP PUSH2 0xA2F DUP4 PUSH2 0x7C1 JUMP JUMPDEST SWAP3 POP DUP3 PUSH2 0xA3F JUMPI PUSH2 0xA3E PUSH2 0x9ED JUMP JUMPDEST JUMPDEST DUP3 DUP3 DIV SWAP1 POP SWAP3 SWAP2 POP POP JUMP JUMPDEST PUSH0 PUSH2 0xA54 DUP3 PUSH2 0x7C1 JUMP JUMPDEST SWAP2 POP PUSH2 0xA5F DUP4 PUSH2 0x7C1 JUMP JUMPDEST SWAP3 POP DUP3 DUP3 SUB SWAP1 POP DUP2 DUP2 GT ISZERO PUSH2 0xA77 JUMPI PUSH2 0xA76 PUSH2 0x97F JUMP JUMPDEST JUMPDEST SWAP3 SWAP2 POP POP JUMP JUMPDEST PUSH32 0x73656C6C6572206973206E6F7420726567697374657265640000000000000000 PUSH0 DUP3 ADD MSTORE POP JUMP JUMPDEST PUSH0 PUSH2 0xAB1 PUSH1 0x18 DUP4 PUSH2 0x8B4 JUMP JUMPDEST SWAP2 POP PUSH2 0xABC DUP3 PUSH2 0xA7D JUMP JUMPDEST PUSH1 0x20 DUP3 ADD SWAP1 POP SWAP2 SWAP1 POP JUMP JUMPDEST PUSH0 PUSH1 0x20 DUP3 ADD SWAP1 POP DUP2 DUP2 SUB PUSH0 DUP4 ADD MSTORE PUSH2 0xADE DUP2 PUSH2 0xAA5 JUMP JUMPDEST SWAP1 POP SWAP2 SWAP1 POP JUMP JUMPDEST PUSH32 0x6275796572206973206E6F742072656769737465726564000000000000000000 PUSH0 DUP3 ADD MSTORE POP JUMP JUMPDEST PUSH0 PUSH2 0xB19 PUSH1 0x17 DUP4 PUSH2 0x8B4 JUMP JUMPDEST SWAP2 POP PUSH2 0xB24 DUP3 PUSH2 0xAE5 JUMP JUMPDEST PUSH1 0x20 DUP3 ADD SWAP1 POP SWAP2 SWAP1 POP JUMP JUMPDEST PUSH0 PUSH1 0x20 DUP3 ADD SWAP1 POP DUP2 DUP2 SUB PUSH0 DUP4 ADD MSTORE PUSH2 0xB46 DUP2 PUSH2 0xB0D JUMP JUMPDEST SWAP1 POP SWAP2 SWAP1 POP JUMP JUMPDEST PUSH0 PUSH2 0xB57 DUP3 PUSH2 0x7C1 JUMP JUMPDEST SWAP2 POP PUSH2 0xB62 DUP4 PUSH2 0x7C1 JUMP JUMPDEST SWAP3 POP DUP3 DUP3 ADD SWAP1 POP DUP1 DUP3 GT ISZERO PUSH2 0xB7A JUMPI PUSH2 0xB79 PUSH2 0x97F JUMP JUMPDEST JUMPDEST SWAP3 SWAP2 POP POP JUMP JUMPDEST PUSH32 0x76616C75652063616E2774206265207A65726F00000000000000000000000000 PUSH0 DUP3 ADD MSTORE POP JUMP JUMPDEST PUSH0 PUSH2 0xBB4 PUSH1 0x13 DUP4 PUSH2 0x8B4 JUMP JUMPDEST SWAP2 POP PUSH2 0xBBF DUP3 PUSH2 0xB80 JUMP JUMPDEST PUSH1 0x20 DUP3 ADD SWAP1 POP SWAP2 SWAP1 POP JUMP JUMPDEST PUSH0 PUSH1 0x20 DUP3 ADD SWAP1 POP DUP2 DUP2 SUB PUSH0 DUP4 ADD MSTORE PUSH2 0xBE1 DUP2 PUSH2 0xBA8 JUMP JUMPDEST SWAP1 POP SWAP2 SWAP1 POP JUMP JUMPDEST PUSH32 0x2073656C6C657220616E642062757965722063616E742062652073616D650000 PUSH0 DUP3 ADD MSTORE POP JUMP JUMPDEST PUSH0 PUSH2 0xC1C PUSH1 0x1E DUP4 PUSH2 0x8B4 JUMP JUMPDEST SWAP2 POP PUSH2 0xC27 DUP3 PUSH2 0xBE8 JUMP JUMPDEST PUSH1 0x20 DUP3 ADD SWAP1 POP SWAP2 SWAP1 POP JUMP JUMPDEST PUSH0 PUSH1 0x20 DUP3 ADD SWAP1 POP DUP2 DUP2 SUB PUSH0 DUP4 ADD MSTORE PUSH2 0xC49 DUP2 PUSH2 0xC10 JUMP JUMPDEST SWAP1 POP SWAP2 SWAP1 POP JUMP JUMPDEST PUSH32 0x73656C6C657220616E6420627579657220626F746820617265206E6F74207265 PUSH0 DUP3 ADD MSTORE PUSH32 0x6769737465726564000000000000000000000000000000000000000000000000 PUSH1 0x20 DUP3 ADD MSTORE POP JUMP JUMPDEST PUSH0 PUSH2 0xCAA PUSH1 0x28 DUP4 PUSH2 0x8B4 JUMP JUMPDEST SWAP2 POP PUSH2 0xCB5 DUP3 PUSH2 0xC50 JUMP JUMPDEST PUSH1 0x40 DUP3 ADD SWAP1 POP SWAP2 SWAP1 POP JUMP JUMPDEST PUSH0 PUSH1 0x20 DUP3 ADD SWAP1 POP DUP2 DUP2 SUB PUSH0 DUP4 ADD MSTORE PUSH2 0xCD7 DUP2 PUSH2 0xC9E JUMP JUMPDEST SWAP1 POP SWAP2 SWAP1 POP JUMP INVALID PUSH10 0x74656D2077696C6C2062 PUSH6 0x207368697070 PUSH6 0x6420746F2074 PUSH9 0x652062757965722061 PUSH5 0x6472657373 LOG2 PUSH5 0x6970667358 0x22 SLT KECCAK256 PUSH23 0x84447E021585DEC4F5299C1038295B3A09F728323C55A9 MSTORE8 0xCE PUSH13 0xA76B4091964736F6C63430008 EQ STOP CALLER "
				},
				"gasEstimates": {
					"creation": {
						"codeDepositCost": "677800",
						"executionCost": "infinite",
						"totalCost": "infinite"
					},
					"external": {
						"balance(address)": "2867",
						"buy(address,address,uint256)": "infinite",
						"discount()": "2425",
						"finalAmount()": "2513",
						"register(address,uint256)": "22866",
						"sell(address,address,uint256)": "infinite"
					}
				},
				"methodIdentifiers": {
					"balance(address)": "e3d670d7",
					"buy(address,address,uint256)": "153e66e6",
					"discount()": "6b6f4a9d",
					"finalAmount()": "ecf5ac89",
					"register(address,uint256)": "6d705ebb",
					"sell(address,address,uint256)": "cae270b6"
				}
			},
			"storageLayout": {
				"storage": [
					{
						"astId": 5,
						"contract": "marketplace.sol:VIP_buyer",
						"label": "balance",
						"offset": 0,
						"slot": "0",
						"type": "t_mapping(t_address,t_uint256)"
					},
					{
						"astId": 242,
						"contract": "marketplace.sol:VIP_buyer",
						"label": "discount",
						"offset": 0,
						"slot": "1",
						"type": "t_uint256"
					},
					{
						"astId": 244,
						"contract": "marketplace.sol:VIP_buyer",
						"label": "finalAmount",
						"offset": 0,
						"slot": "2",
						"type": "t_uint256"
					}
				],
				"types": {
					"t_address": {
						"encoding": "inplace",
						"label": "address",
						"numberOfBytes": "20"
					},
					"t_mapping(t_address,t_uint256)": {
						"encoding": "mapping",
						"key": "t_address",
						"label": "mapping(address => uint256)",
						"numberOfBytes": "32",
						"value": "t_uint256"
					},
					"t_uint256": {
						"encoding": "inplace",
						"label": "uint256",
						"numberOfBytes": "32"
					}
				}
			},
			"userdoc": {
				"kind": "user",
				"methods": {},
				"version": 1
			}
		}
	}
}