{
	"marketplace.sol": {
		"PremiumSeller": {
			"abi": [
				{
					"inputs": [
						{
							"internalType": "uint256",
							"name": "_feepercentage",
							"type": "uint256"
						}
					],
					"stateMutability": "nonpayable",
					"type": "constructor"
				},
				{
					"inputs": [
						{
							"internalType": "string",
							"name": "reason",
							"type": "string"
						}
					],
					"name": "custom",
					"type": "error"
				},
				{
					"anonymous": false,
					"inputs": [
						{
							"indexed": true,
							"internalType": "address",
							"name": "buyer_address",
							"type": "address"
						},
						{
							"indexed": true,
							"internalType": "address",
							"name": "sender_address",
							"type": "address"
						},
						{
							"indexed": false,
							"internalType": "uint256",
							"name": "value",
							"type": "uint256"
						}
					],
					"name": "purchase",
					"type": "event"
				},
				{
					"inputs": [
						{
							"internalType": "address",
							"name": "",
							"type": "address"
						}
					],
					"name": "balance",
					"outputs": [
						{
							"internalType": "uint256",
							"name": "",
							"type": "uint256"
						}
					],
					"stateMutability": "view",
					"type": "function"
				},
				{
					"inputs": [
						{
							"internalType": "address",
							"name": "sender",
							"type": "address"
						},
						{
							"internalType": "address",
							"name": "buyer",
							"type": "address"
						},
						{
							"internalType": "uint256",
							"name": "C_P",
							"type": "uint256"
						}
					],
					"name": "buy",
					"outputs": [],
					"stateMutability": "nonpayable",
					"type": "function"
				},
				{
					"inputs": [],
					"name": "feepercentage",
					"outputs": [
						{
							"internalType": "uint256",
							"name": "",
							"type": "uint256"
						}
					],
					"stateMutability": "view",
					"type": "function"
				},
				{
					"inputs": [
						{
							"internalType": "address",
							"name": "youraddress",
							"type": "address"
						},
						{
							"internalType": "uint256",
							"name": "initial_bal",
							"type": "uint256"
						}
					],
					"name": "register",
					"outputs": [],
					"stateMutability": "nonpayable",
					"type": "function"
				},
				{
					"inputs": [
						{
							"internalType": "address",
							"name": "sender",
							"type": "address"
						},
						{
							"internalType": "address",
							"name": "buyer",
							"type": "address"
						},
						{
							"internalType": "uint256",
							"name": "S_P",
							"type": "uint256"
						}
					],
					"name": "sell",
					"outputs": [
						{
							"internalType": "string",
							"name": "",
							"type": "string"
						}
					],
					"stateMutability": "nonpayable",
					"type": "function"
				}
			],
			"devdoc": {
				"kind": "dev",
				"methods": {},
				"version": 1
			},
			"evm": {
				"assembly": "    /* \"marketplace.sol\":1416:1948  contract PremiumSeller is marketplace{... */\n  mstore(0x40, 0x80)\n    /* \"marketplace.sol\":1492:1570  constructor(uint _feepercentage){... */\n  callvalue\n  dup1\n  iszero\n  tag_1\n  jumpi\n  0x00\n  dup1\n  revert\ntag_1:\n  pop\n  mload(0x40)\n  sub(codesize, bytecodeSize)\n  dup1\n  bytecodeSize\n  dup4\n  codecopy\n  dup2\n  dup2\n  add\n  0x40\n  mstore\n  dup2\n  add\n  swap1\n  tag_2\n  swap2\n  swap1\n  tag_3\n  jump\t// in\ntag_2:\n    /* \"marketplace.sol\":1548:1562  _feepercentage */\n  dup1\n    /* \"marketplace.sol\":1532:1545  feepercentage */\n  0x01\n    /* \"marketplace.sol\":1532:1562  feepercentage = _feepercentage */\n  dup2\n  swap1\n  sstore\n  pop\n    /* \"marketplace.sol\":1492:1570  constructor(uint _feepercentage){... */\n  pop\n    /* \"marketplace.sol\":1416:1948  contract PremiumSeller is marketplace{... */\n  jump(tag_6)\n    /* \"#utility.yul\":88:205   */\ntag_8:\n    /* \"#utility.yul\":197:198   */\n  0x00\n    /* \"#utility.yul\":194:195   */\n  dup1\n    /* \"#utility.yul\":187:199   */\n  revert\n    /* \"#utility.yul\":334:411   */\ntag_10:\n    /* \"#utility.yul\":371:378   */\n  0x00\n    /* \"#utility.yul\":400:405   */\n  dup2\n    /* \"#utility.yul\":389:405   */\n  swap1\n  pop\n    /* \"#utility.yul\":334:411   */\n  swap2\n  swap1\n  pop\n  jump\t// out\n    /* \"#utility.yul\":417:539   */\ntag_11:\n    /* \"#utility.yul\":490:514   */\n  tag_19\n    /* \"#utility.yul\":508:513   */\n  dup2\n    /* \"#utility.yul\":490:514   */\n  tag_10\n  jump\t// in\ntag_19:\n    /* \"#utility.yul\":483:488   */\n  dup2\n    /* \"#utility.yul\":480:515   */\n  eq\n    /* \"#utility.yul\":470:533   */\n  tag_20\n  jumpi\n    /* \"#utility.yul\":529:530   */\n  0x00\n    /* \"#utility.yul\":526:527   */\n  dup1\n    /* \"#utility.yul\":519:531   */\n  revert\n    /* \"#utility.yul\":470:533   */\ntag_20:\n    /* \"#utility.yul\":417:539   */\n  pop\n  jump\t// out\n    /* \"#utility.yul\":545:688   */\ntag_12:\n    /* \"#utility.yul\":602:607   */\n  0x00\n    /* \"#utility.yul\":633:639   */\n  dup2\n    /* \"#utility.yul\":627:640   */\n  mload\n    /* \"#utility.yul\":618:640   */\n  swap1\n  pop\n    /* \"#utility.yul\":649:682   */\n  tag_22\n    /* \"#utility.yul\":676:681   */\n  dup2\n    /* \"#utility.yul\":649:682   */\n  tag_11\n  jump\t// in\ntag_22:\n    /* \"#utility.yul\":545:688   */\n  swap3\n  swap2\n  pop\n  pop\n  jump\t// out\n    /* \"#utility.yul\":694:1045   */\ntag_3:\n    /* \"#utility.yul\":764:770   */\n  0x00\n    /* \"#utility.yul\":813:815   */\n  0x20\n    /* \"#utility.yul\":801:810   */\n  dup3\n    /* \"#utility.yul\":792:799   */\n  dup5\n    /* \"#utility.yul\":788:811   */\n  sub\n    /* \"#utility.yul\":784:816   */\n  slt\n    /* \"#utility.yul\":781:900   */\n  iszero\n  tag_24\n  jumpi\n    /* \"#utility.yul\":819:898   */\n  tag_25\n  tag_8\n  jump\t// in\ntag_25:\n    /* \"#utility.yul\":781:900   */\ntag_24:\n    /* \"#utility.yul\":939:940   */\n  0x00\n    /* \"#utility.yul\":964:1028   */\n  tag_26\n    /* \"#utility.yul\":1020:1027   */\n  dup5\n    /* \"#utility.yul\":1011:1017   */\n  dup3\n    /* \"#utility.yul\":1000:1009   */\n  dup6\n    /* \"#utility.yul\":996:1018   */\n  add\n    /* \"#utility.yul\":964:1028   */\n  tag_12\n  jump\t// in\ntag_26:\n    /* \"#utility.yul\":954:1028   */\n  swap2\n  pop\n    /* \"#utility.yul\":910:1038   */\n  pop\n    /* \"#utility.yul\":694:1045   */\n  swap3\n  swap2\n  pop\n  pop\n  jump\t// out\n    /* \"marketplace.sol\":1416:1948  contract PremiumSeller is marketplace{... */\ntag_6:\n  dataSize(sub_0)\n  dup1\n  dataOffset(sub_0)\n  0x00\n  codecopy\n  0x00\n  return\nstop\n\nsub_0: assembly {\n        /* \"marketplace.sol\":1416:1948  contract PremiumSeller is marketplace{... */\n      mstore(0x40, 0x80)\n      callvalue\n      dup1\n      iszero\n      tag_1\n      jumpi\n      0x00\n      dup1\n      revert\n    tag_1:\n      pop\n      jumpi(tag_2, lt(calldatasize, 0x04))\n      shr(0xe0, calldataload(0x00))\n      dup1\n      0x153e66e6\n      eq\n      tag_3\n      jumpi\n      dup1\n      0x6d705ebb\n      eq\n      tag_4\n      jumpi\n      dup1\n      0xc6e9ce84\n      eq\n      tag_5\n      jumpi\n      dup1\n      0xcae270b6\n      eq\n      tag_6\n      jumpi\n      dup1\n      0xe3d670d7\n      eq\n      tag_7\n      jumpi\n    tag_2:\n      0x00\n      dup1\n      revert\n        /* \"marketplace.sol\":412:706  function buy(address sender, address buyer, uint C_P) public virtual { ... */\n    tag_3:\n      tag_8\n      0x04\n      dup1\n      calldatasize\n      sub\n      dup2\n      add\n      swap1\n      tag_9\n      swap2\n      swap1\n      tag_10\n      jump\t// in\n    tag_9:\n      tag_11\n      jump\t// in\n    tag_8:\n      stop\n        /* \"marketplace.sol\":229:406  function register(address youraddress, uint initial_bal) public {... */\n    tag_4:\n      tag_12\n      0x04\n      dup1\n      calldatasize\n      sub\n      dup2\n      add\n      swap1\n      tag_13\n      swap2\n      swap1\n      tag_14\n      jump\t// in\n    tag_13:\n      tag_15\n      jump\t// in\n    tag_12:\n      stop\n        /* \"marketplace.sol\":1460:1485  uint public feepercentage */\n    tag_5:\n      tag_16\n      tag_17\n      jump\t// in\n    tag_16:\n      mload(0x40)\n      tag_18\n      swap2\n      swap1\n      tag_19\n      jump\t// in\n    tag_18:\n      mload(0x40)\n      dup1\n      swap2\n      sub\n      swap1\n      return\n        /* \"marketplace.sol\":1576:1943  function sell(address sender, address buyer, uint S_P) public  virtual override returns(string memory) {... */\n    tag_6:\n      tag_20\n      0x04\n      dup1\n      calldatasize\n      sub\n      dup2\n      add\n      swap1\n      tag_21\n      swap2\n      swap1\n      tag_10\n      jump\t// in\n    tag_21:\n      tag_22\n      jump\t// in\n    tag_20:\n      mload(0x40)\n      tag_23\n      swap2\n      swap1\n      tag_24\n      jump\t// in\n    tag_23:\n      mload(0x40)\n      dup1\n      swap2\n      sub\n      swap1\n      return\n        /* \"marketplace.sol\":87:127  mapping ( address=> uint) public balance */\n    tag_7:\n      tag_25\n      0x04\n      dup1\n      calldatasize\n      sub\n      dup2\n      add\n      swap1\n      tag_26\n      swap2\n      swap1\n      tag_27\n      jump\t// in\n    tag_26:\n      tag_28\n      jump\t// in\n    tag_25:\n      mload(0x40)\n      tag_29\n      swap2\n      swap1\n      tag_19\n      jump\t// in\n    tag_29:\n      mload(0x40)\n      dup1\n      swap2\n      sub\n      swap1\n      return\n        /* \"marketplace.sol\":412:706  function buy(address sender, address buyer, uint C_P) public virtual { ... */\n    tag_11:\n        /* \"marketplace.sol\":516:517  0 */\n      0x00\n        /* \"marketplace.sol\":497:504  balance */\n      dup1\n        /* \"marketplace.sol\":497:512  balance[sender] */\n      0x00\n        /* \"marketplace.sol\":505:511  sender */\n      dup6\n        /* \"marketplace.sol\":497:512  balance[sender] */\n      0xffffffffffffffffffffffffffffffffffffffff\n      and\n      0xffffffffffffffffffffffffffffffffffffffff\n      and\n      dup2\n      mstore\n      0x20\n      add\n      swap1\n      dup2\n      mstore\n      0x20\n      add\n      0x00\n      keccak256\n      sload\n        /* \"marketplace.sol\":497:517  balance[sender] != 0 */\n      sub\n        /* \"marketplace.sol\":489:543  require(balance[sender] != 0, \"please register first\") */\n      tag_31\n      jumpi\n      mload(0x40)\n      0x08c379a000000000000000000000000000000000000000000000000000000000\n      dup2\n      mstore\n      0x04\n      add\n      tag_32\n      swap1\n      tag_33\n      jump\t// in\n    tag_32:\n      mload(0x40)\n      dup1\n      swap2\n      sub\n      swap1\n      revert\n    tag_31:\n        /* \"marketplace.sol\":575:576  0 */\n      0x00\n        /* \"marketplace.sol\":558:565  balance */\n      dup1\n        /* \"marketplace.sol\":558:572  balance[buyer] */\n      0x00\n        /* \"marketplace.sol\":566:571  buyer */\n      dup5\n        /* \"marketplace.sol\":558:572  balance[buyer] */\n      0xffffffffffffffffffffffffffffffffffffffff\n      and\n      0xffffffffffffffffffffffffffffffffffffffff\n      and\n      dup2\n      mstore\n      0x20\n      add\n      swap1\n      dup2\n      mstore\n      0x20\n      add\n      0x00\n      keccak256\n      sload\n        /* \"marketplace.sol\":558:576  balance[buyer] !=0 */\n      sub\n        /* \"marketplace.sol\":550:602  require(balance[buyer] !=0, \"please register first\") */\n      tag_34\n      jumpi\n      mload(0x40)\n      0x08c379a000000000000000000000000000000000000000000000000000000000\n      dup2\n      mstore\n      0x04\n      add\n      tag_35\n      swap1\n      tag_33\n      jump\t// in\n    tag_35:\n      mload(0x40)\n      dup1\n      swap2\n      sub\n      swap1\n      revert\n    tag_34:\n        /* \"marketplace.sol\":628:631  C_P */\n      dup1\n        /* \"marketplace.sol\":609:616  balance */\n      0x00\n        /* \"marketplace.sol\":609:624  balance[sender] */\n      dup1\n        /* \"marketplace.sol\":617:623  sender */\n      dup6\n        /* \"marketplace.sol\":609:624  balance[sender] */\n      0xffffffffffffffffffffffffffffffffffffffff\n      and\n      0xffffffffffffffffffffffffffffffffffffffff\n      and\n      dup2\n      mstore\n      0x20\n      add\n      swap1\n      dup2\n      mstore\n      0x20\n      add\n      0x00\n      keccak256\n      0x00\n        /* \"marketplace.sol\":609:631  balance[sender] += C_P */\n      dup3\n      dup3\n      sload\n      tag_36\n      swap2\n      swap1\n      tag_37\n      jump\t// in\n    tag_36:\n      swap3\n      pop\n      pop\n      dup2\n      swap1\n      sstore\n      pop\n        /* \"marketplace.sol\":656:659  C_P */\n      dup1\n        /* \"marketplace.sol\":638:645  balance */\n      0x00\n        /* \"marketplace.sol\":638:652  balance[buyer] */\n      dup1\n        /* \"marketplace.sol\":646:651  buyer */\n      dup5\n        /* \"marketplace.sol\":638:652  balance[buyer] */\n      0xffffffffffffffffffffffffffffffffffffffff\n      and\n      0xffffffffffffffffffffffffffffffffffffffff\n      and\n      dup2\n      mstore\n      0x20\n      add\n      swap1\n      dup2\n      mstore\n      0x20\n      add\n      0x00\n      keccak256\n      0x00\n        /* \"marketplace.sol\":638:659  balance[buyer] -= C_P */\n      dup3\n      dup3\n      sload\n      tag_38\n      swap2\n      swap1\n      tag_39\n      jump\t// in\n    tag_38:\n      swap3\n      pop\n      pop\n      dup2\n      swap1\n      sstore\n      pop\n        /* \"marketplace.sol\":689:695  sender */\n      dup3\n        /* \"marketplace.sol\":673:702  purchase(buyer, sender, C_P ) */\n      0xffffffffffffffffffffffffffffffffffffffff\n      and\n        /* \"marketplace.sol\":682:687  buyer */\n      dup3\n        /* \"marketplace.sol\":673:702  purchase(buyer, sender, C_P ) */\n      0xffffffffffffffffffffffffffffffffffffffff\n      and\n      0x640441567a63f93bb708d33df4fb558ccf2ec59f306cc74b9bed436c9354d203\n        /* \"marketplace.sol\":697:700  C_P */\n      dup4\n        /* \"marketplace.sol\":673:702  purchase(buyer, sender, C_P ) */\n      mload(0x40)\n      tag_40\n      swap2\n      swap1\n      tag_19\n      jump\t// in\n    tag_40:\n      mload(0x40)\n      dup1\n      swap2\n      sub\n      swap1\n      log3\n        /* \"marketplace.sol\":412:706  function buy(address sender, address buyer, uint C_P) public virtual { ... */\n      pop\n      pop\n      pop\n      jump\t// out\n        /* \"marketplace.sol\":229:406  function register(address youraddress, uint initial_bal) public {... */\n    tag_15:\n        /* \"marketplace.sol\":327:328  0 */\n      0x00\n        /* \"marketplace.sol\":313:324  initial_bal */\n      dup2\n        /* \"marketplace.sol\":313:328  initial_bal!= 0 */\n      sub\n        /* \"marketplace.sol\":304:352  require( initial_bal!= 0, \"value can't be zero\") */\n      tag_42\n      jumpi\n      mload(0x40)\n      0x08c379a000000000000000000000000000000000000000000000000000000000\n      dup2\n      mstore\n      0x04\n      add\n      tag_43\n      swap1\n      tag_44\n      jump\t// in\n    tag_43:\n      mload(0x40)\n      dup1\n      swap2\n      sub\n      swap1\n      revert\n    tag_42:\n        /* \"marketplace.sol\":386:397  initial_bal */\n      dup1\n        /* \"marketplace.sol\":363:370  balance */\n      0x00\n        /* \"marketplace.sol\":363:383  balance[youraddress] */\n      dup1\n        /* \"marketplace.sol\":371:382  youraddress */\n      dup5\n        /* \"marketplace.sol\":363:383  balance[youraddress] */\n      0xffffffffffffffffffffffffffffffffffffffff\n      and\n      0xffffffffffffffffffffffffffffffffffffffff\n      and\n      dup2\n      mstore\n      0x20\n      add\n      swap1\n      dup2\n      mstore\n      0x20\n      add\n      0x00\n      keccak256\n        /* \"marketplace.sol\":363:397  balance[youraddress] = initial_bal */\n      dup2\n      swap1\n      sstore\n      pop\n        /* \"marketplace.sol\":229:406  function register(address youraddress, uint initial_bal) public {... */\n      pop\n      pop\n      jump\t// out\n        /* \"marketplace.sol\":1460:1485  uint public feepercentage */\n    tag_17:\n      sload(0x01)\n      dup2\n      jump\t// out\n        /* \"marketplace.sol\":1576:1943  function sell(address sender, address buyer, uint S_P) public  virtual override returns(string memory) {... */\n    tag_22:\n        /* \"marketplace.sol\":1664:1677  string memory */\n      0x60\n        /* \"marketplace.sol\":1713:1714  0 */\n      0x00\n        /* \"marketplace.sol\":1694:1701  balance */\n      dup1\n        /* \"marketplace.sol\":1694:1709  balance[sender] */\n      0x00\n        /* \"marketplace.sol\":1702:1708  sender */\n      dup7\n        /* \"marketplace.sol\":1694:1709  balance[sender] */\n      0xffffffffffffffffffffffffffffffffffffffff\n      and\n      0xffffffffffffffffffffffffffffffffffffffff\n      and\n      dup2\n      mstore\n      0x20\n      add\n      swap1\n      dup2\n      mstore\n      0x20\n      add\n      0x00\n      keccak256\n      sload\n        /* \"marketplace.sol\":1694:1714  balance[sender] == 0 */\n      eq\n        /* \"marketplace.sol\":1686:1739  require(balance[sender] == 0, \"your balance is zero\") */\n      tag_46\n      jumpi\n      mload(0x40)\n      0x08c379a000000000000000000000000000000000000000000000000000000000\n      dup2\n      mstore\n      0x04\n      add\n      tag_47\n      swap1\n      tag_48\n      jump\t// in\n    tag_47:\n      mload(0x40)\n      dup1\n      swap2\n      sub\n      swap1\n      revert\n    tag_46:\n        /* \"marketplace.sol\":1746:1754  uint fee */\n      0x00\n        /* \"marketplace.sol\":1779:1782  100 */\n      0x64\n        /* \"marketplace.sol\":1763:1776  feepercentage */\n      sload(0x01)\n        /* \"marketplace.sol\":1757:1760  S_P */\n      dup5\n        /* \"marketplace.sol\":1757:1776  S_P * feepercentage */\n      tag_49\n      swap2\n      swap1\n      tag_50\n      jump\t// in\n    tag_49:\n        /* \"marketplace.sol\":1757:1782  S_P * feepercentage / 100 */\n      tag_51\n      swap2\n      swap1\n      tag_52\n      jump\t// in\n    tag_51:\n        /* \"marketplace.sol\":1746:1782  uint fee = S_P * feepercentage / 100 */\n      swap1\n      pop\n        /* \"marketplace.sol\":1808:1811  fee */\n      dup1\n        /* \"marketplace.sol\":1789:1796  balance */\n      0x00\n        /* \"marketplace.sol\":1789:1804  balance[sender] */\n      dup1\n        /* \"marketplace.sol\":1797:1803  sender */\n      dup8\n        /* \"marketplace.sol\":1789:1804  balance[sender] */\n      0xffffffffffffffffffffffffffffffffffffffff\n      and\n      0xffffffffffffffffffffffffffffffffffffffff\n      and\n      dup2\n      mstore\n      0x20\n      add\n      swap1\n      dup2\n      mstore\n      0x20\n      add\n      0x00\n      keccak256\n      0x00\n        /* \"marketplace.sol\":1789:1811  balance[sender] -= fee */\n      dup3\n      dup3\n      sload\n      tag_53\n      swap2\n      swap1\n      tag_39\n      jump\t// in\n    tag_53:\n      swap3\n      pop\n      pop\n      dup2\n      swap1\n      sstore\n      pop\n        /* \"marketplace.sol\":1844:1847  fee */\n      dup1\n        /* \"marketplace.sol\":1818:1825  balance */\n      0x00\n        /* \"marketplace.sol\":1818:1840  balance[address(this)] */\n      dup1\n        /* \"marketplace.sol\":1834:1838  this */\n      address\n        /* \"marketplace.sol\":1818:1840  balance[address(this)] */\n      0xffffffffffffffffffffffffffffffffffffffff\n      and\n      0xffffffffffffffffffffffffffffffffffffffff\n      and\n      dup2\n      mstore\n      0x20\n      add\n      swap1\n      dup2\n      mstore\n      0x20\n      add\n      0x00\n      keccak256\n      0x00\n        /* \"marketplace.sol\":1818:1847  balance[address(this)] += fee */\n      dup3\n      dup3\n      sload\n      tag_54\n      swap2\n      swap1\n      tag_37\n      jump\t// in\n    tag_54:\n      swap3\n      pop\n      pop\n      dup2\n      swap1\n      sstore\n      pop\n        /* \"marketplace.sol\":1856:1884  super.sell(sender,buyer,S_P) */\n      tag_55\n        /* \"marketplace.sol\":1867:1873  sender */\n      dup6\n        /* \"marketplace.sol\":1874:1879  buyer */\n      dup6\n        /* \"marketplace.sol\":1880:1883  S_P */\n      dup6\n        /* \"marketplace.sol\":1856:1866  super.sell */\n      tag_56\n        /* \"marketplace.sol\":1856:1884  super.sell(sender,buyer,S_P) */\n      jump\t// in\n    tag_55:\n      pop\n        /* \"marketplace.sol\":1891:1935  return (\"your item will be sent to address\") */\n      mload(0x40)\n      dup1\n      0x60\n      add\n      0x40\n      mstore\n      dup1\n      0x21\n      dup2\n      mstore\n      0x20\n      add\n      data_972962e3a47e06aaca6a2aea821360ac4726cfee55110fcc74a5b7a0e9791ad3\n      0x21\n      swap2\n      codecopy\n      swap2\n      pop\n      pop\n        /* \"marketplace.sol\":1576:1943  function sell(address sender, address buyer, uint S_P) public  virtual override returns(string memory) {... */\n      swap4\n      swap3\n      pop\n      pop\n      pop\n      jump\t// out\n        /* \"marketplace.sol\":87:127  mapping ( address=> uint) public balance */\n    tag_28:\n      mstore(0x20, 0x00)\n      dup1\n      0x00\n      mstore\n      keccak256(0x00, 0x40)\n      0x00\n      swap2\n      pop\n      swap1\n      pop\n      sload\n      dup2\n      jump\t// out\n        /* \"marketplace.sol\":750:1411  function sell(address sender, address buyer, uint S_P) public virtual  returns(string memory){... */\n    tag_56:\n        /* \"marketplace.sol\":829:842  string memory */\n      0x60\n        /* \"marketplace.sol\":873:874  0 */\n      0x00\n        /* \"marketplace.sol\":854:861  balance */\n      dup1\n        /* \"marketplace.sol\":854:869  balance[sender] */\n      0x00\n        /* \"marketplace.sol\":862:868  sender */\n      dup7\n        /* \"marketplace.sol\":854:869  balance[sender] */\n      0xffffffffffffffffffffffffffffffffffffffff\n      and\n      0xffffffffffffffffffffffffffffffffffffffff\n      and\n      dup2\n      mstore\n      0x20\n      add\n      swap1\n      dup2\n      mstore\n      0x20\n      add\n      0x00\n      keccak256\n      sload\n        /* \"marketplace.sol\":854:874  balance[sender] == 0 */\n      sub\n        /* \"marketplace.sol\":850:1284  if (balance[sender] == 0){... */\n      tag_58\n      jumpi\n        /* \"marketplace.sol\":893:928  custom( \"seller is not registered\") */\n      mload(0x40)\n      0x571c8de700000000000000000000000000000000000000000000000000000000\n      dup2\n      mstore\n      0x04\n      add\n      tag_59\n      swap1\n      tag_60\n      jump\t// in\n    tag_59:\n      mload(0x40)\n      dup1\n      swap2\n      sub\n      swap1\n      revert\n        /* \"marketplace.sol\":850:1284  if (balance[sender] == 0){... */\n    tag_58:\n        /* \"marketplace.sol\":969:970  0 */\n      0x00\n        /* \"marketplace.sol\":951:958  balance */\n      dup1\n        /* \"marketplace.sol\":951:965  balance[buyer] */\n      0x00\n        /* \"marketplace.sol\":959:964  buyer */\n      dup6\n        /* \"marketplace.sol\":951:965  balance[buyer] */\n      0xffffffffffffffffffffffffffffffffffffffff\n      and\n      0xffffffffffffffffffffffffffffffffffffffff\n      and\n      dup2\n      mstore\n      0x20\n      add\n      swap1\n      dup2\n      mstore\n      0x20\n      add\n      0x00\n      keccak256\n      sload\n        /* \"marketplace.sol\":951:970  balance[buyer] == 0 */\n      sub\n        /* \"marketplace.sol\":947:1284  if (balance[buyer] == 0){... */\n      tag_62\n      jumpi\n        /* \"marketplace.sol\":989:1023  custom (\"buyer is not registered\") */\n      mload(0x40)\n      0x571c8de700000000000000000000000000000000000000000000000000000000\n      dup2\n      mstore\n      0x04\n      add\n      tag_63\n      swap1\n      tag_64\n      jump\t// in\n    tag_63:\n      mload(0x40)\n      dup1\n      swap2\n      sub\n      swap1\n      revert\n        /* \"marketplace.sol\":947:1284  if (balance[buyer] == 0){... */\n    tag_62:\n        /* \"marketplace.sol\":1064:1071  balance */\n      0x00\n        /* \"marketplace.sol\":1064:1078  balance[buyer] */\n      dup1\n        /* \"marketplace.sol\":1072:1077  buyer */\n      dup5\n        /* \"marketplace.sol\":1064:1078  balance[buyer] */\n      0xffffffffffffffffffffffffffffffffffffffff\n      and\n      0xffffffffffffffffffffffffffffffffffffffff\n      and\n      dup2\n      mstore\n      0x20\n      add\n      swap1\n      dup2\n      mstore\n      0x20\n      add\n      0x00\n      keccak256\n      sload\n        /* \"marketplace.sol\":1045:1052  balance */\n      0x00\n        /* \"marketplace.sol\":1045:1060  balance[sender] */\n      dup1\n        /* \"marketplace.sol\":1053:1059  sender */\n      dup7\n        /* \"marketplace.sol\":1045:1060  balance[sender] */\n      0xffffffffffffffffffffffffffffffffffffffff\n      and\n      0xffffffffffffffffffffffffffffffffffffffff\n      and\n      dup2\n      mstore\n      0x20\n      add\n      swap1\n      dup2\n      mstore\n      0x20\n      add\n      0x00\n      keccak256\n      sload\n        /* \"marketplace.sol\":1045:1078  balance[sender] == balance[buyer] */\n      sub\n        /* \"marketplace.sol\":1042:1284  if(balance[sender] == balance[buyer]){... */\n      tag_66\n      jumpi\n        /* \"marketplace.sol\":1097:1137  custom(\" seller and buyer cant be same\") */\n      mload(0x40)\n      0x571c8de700000000000000000000000000000000000000000000000000000000\n      dup2\n      mstore\n      0x04\n      add\n      tag_67\n      swap1\n      tag_68\n      jump\t// in\n    tag_67:\n      mload(0x40)\n      dup1\n      swap2\n      sub\n      swap1\n      revert\n        /* \"marketplace.sol\":1042:1284  if(balance[sender] == balance[buyer]){... */\n    tag_66:\n        /* \"marketplace.sol\":1180:1181  0 */\n      0x00\n        /* \"marketplace.sol\":1161:1168  balance */\n      dup1\n        /* \"marketplace.sol\":1161:1176  balance[sender] */\n      0x00\n        /* \"marketplace.sol\":1169:1175  sender */\n      dup7\n        /* \"marketplace.sol\":1161:1176  balance[sender] */\n      0xffffffffffffffffffffffffffffffffffffffff\n      and\n      0xffffffffffffffffffffffffffffffffffffffff\n      and\n      dup2\n      mstore\n      0x20\n      add\n      swap1\n      dup2\n      mstore\n      0x20\n      add\n      0x00\n      keccak256\n      sload\n        /* \"marketplace.sol\":1161:1181  balance[sender] == 0 */\n      eq\n        /* \"marketplace.sol\":1161:1204  balance[sender] == 0 && balance[buyer] == 0 */\n      dup1\n      iszero\n      tag_70\n      jumpi\n      pop\n        /* \"marketplace.sol\":1203:1204  0 */\n      0x00\n        /* \"marketplace.sol\":1185:1192  balance */\n      dup1\n        /* \"marketplace.sol\":1185:1199  balance[buyer] */\n      0x00\n        /* \"marketplace.sol\":1193:1198  buyer */\n      dup6\n        /* \"marketplace.sol\":1185:1199  balance[buyer] */\n      0xffffffffffffffffffffffffffffffffffffffff\n      and\n      0xffffffffffffffffffffffffffffffffffffffff\n      and\n      dup2\n      mstore\n      0x20\n      add\n      swap1\n      dup2\n      mstore\n      0x20\n      add\n      0x00\n      keccak256\n      sload\n        /* \"marketplace.sol\":1185:1204  balance[buyer] == 0 */\n      eq\n        /* \"marketplace.sol\":1161:1204  balance[sender] == 0 && balance[buyer] == 0 */\n    tag_70:\n        /* \"marketplace.sol\":1157:1284  if (balance[sender] == 0 && balance[buyer] == 0){... */\n      iszero\n      tag_71\n      jumpi\n        /* \"marketplace.sol\":1223:1274  custom (\"seller and buyer both are not registered\") */\n      mload(0x40)\n      0x571c8de700000000000000000000000000000000000000000000000000000000\n      dup2\n      mstore\n      0x04\n      add\n      tag_72\n      swap1\n      tag_73\n      jump\t// in\n    tag_72:\n      mload(0x40)\n      dup1\n      swap2\n      sub\n      swap1\n      revert\n        /* \"marketplace.sol\":1157:1284  if (balance[sender] == 0 && balance[buyer] == 0){... */\n    tag_71:\n        /* \"marketplace.sol\":1309:1312  S_P */\n      dup2\n        /* \"marketplace.sol\":1290:1297  balance */\n      0x00\n        /* \"marketplace.sol\":1290:1305  balance[sender] */\n      dup1\n        /* \"marketplace.sol\":1298:1304  sender */\n      dup7\n        /* \"marketplace.sol\":1290:1305  balance[sender] */\n      0xffffffffffffffffffffffffffffffffffffffff\n      and\n      0xffffffffffffffffffffffffffffffffffffffff\n      and\n      dup2\n      mstore\n      0x20\n      add\n      swap1\n      dup2\n      mstore\n      0x20\n      add\n      0x00\n      keccak256\n      0x00\n        /* \"marketplace.sol\":1290:1312  balance[sender] += S_P */\n      dup3\n      dup3\n      sload\n      tag_74\n      swap2\n      swap1\n      tag_37\n      jump\t// in\n    tag_74:\n      swap3\n      pop\n      pop\n      dup2\n      swap1\n      sstore\n      pop\n        /* \"marketplace.sol\":1337:1340  S_P */\n      dup2\n        /* \"marketplace.sol\":1319:1326  balance */\n      0x00\n        /* \"marketplace.sol\":1319:1333  balance[buyer] */\n      dup1\n        /* \"marketplace.sol\":1327:1332  buyer */\n      dup6\n        /* \"marketplace.sol\":1319:1333  balance[buyer] */\n      0xffffffffffffffffffffffffffffffffffffffff\n      and\n      0xffffffffffffffffffffffffffffffffffffffff\n      and\n      dup2\n      mstore\n      0x20\n      add\n      swap1\n      dup2\n      mstore\n      0x20\n      add\n      0x00\n      keccak256\n      0x00\n        /* \"marketplace.sol\":1319:1340  balance[buyer] -= S_P */\n      dup3\n      dup3\n      sload\n      tag_75\n      swap2\n      swap1\n      tag_39\n      jump\t// in\n    tag_75:\n      swap3\n      pop\n      pop\n      dup2\n      swap1\n      sstore\n      pop\n        /* \"marketplace.sol\":1349:1401  return (\"item will be shipped to the buyer address\") */\n      mload(0x40)\n      dup1\n      0x60\n      add\n      0x40\n      mstore\n      dup1\n      0x29\n      dup2\n      mstore\n      0x20\n      add\n      data_17aa23838344d69e7c95fa6cd1cad8785ff6bfbc7529891f112320c03b7ec720\n      0x29\n      swap2\n      codecopy\n      swap1\n      pop\n        /* \"marketplace.sol\":750:1411  function sell(address sender, address buyer, uint S_P) public virtual  returns(string memory){... */\n      swap4\n      swap3\n      pop\n      pop\n      pop\n      jump\t// out\n        /* \"#utility.yul\":88:205   */\n    tag_77:\n        /* \"#utility.yul\":197:198   */\n      0x00\n        /* \"#utility.yul\":194:195   */\n      dup1\n        /* \"#utility.yul\":187:199   */\n      revert\n        /* \"#utility.yul\":334:460   */\n    tag_79:\n        /* \"#utility.yul\":371:378   */\n      0x00\n        /* \"#utility.yul\":411:453   */\n      0xffffffffffffffffffffffffffffffffffffffff\n        /* \"#utility.yul\":404:409   */\n      dup3\n        /* \"#utility.yul\":400:454   */\n      and\n        /* \"#utility.yul\":389:454   */\n      swap1\n      pop\n        /* \"#utility.yul\":334:460   */\n      swap2\n      swap1\n      pop\n      jump\t// out\n        /* \"#utility.yul\":466:562   */\n    tag_80:\n        /* \"#utility.yul\":503:510   */\n      0x00\n        /* \"#utility.yul\":532:556   */\n      tag_114\n        /* \"#utility.yul\":550:555   */\n      dup3\n        /* \"#utility.yul\":532:556   */\n      tag_79\n      jump\t// in\n    tag_114:\n        /* \"#utility.yul\":521:556   */\n      swap1\n      pop\n        /* \"#utility.yul\":466:562   */\n      swap2\n      swap1\n      pop\n      jump\t// out\n        /* \"#utility.yul\":568:690   */\n    tag_81:\n        /* \"#utility.yul\":641:665   */\n      tag_116\n        /* \"#utility.yul\":659:664   */\n      dup2\n        /* \"#utility.yul\":641:665   */\n      tag_80\n      jump\t// in\n    tag_116:\n        /* \"#utility.yul\":634:639   */\n      dup2\n        /* \"#utility.yul\":631:666   */\n      eq\n        /* \"#utility.yul\":621:684   */\n      tag_117\n      jumpi\n        /* \"#utility.yul\":680:681   */\n      0x00\n        /* \"#utility.yul\":677:678   */\n      dup1\n        /* \"#utility.yul\":670:682   */\n      revert\n        /* \"#utility.yul\":621:684   */\n    tag_117:\n        /* \"#utility.yul\":568:690   */\n      pop\n      jump\t// out\n        /* \"#utility.yul\":696:835   */\n    tag_82:\n        /* \"#utility.yul\":742:747   */\n      0x00\n        /* \"#utility.yul\":780:786   */\n      dup2\n        /* \"#utility.yul\":767:787   */\n      calldataload\n        /* \"#utility.yul\":758:787   */\n      swap1\n      pop\n        /* \"#utility.yul\":796:829   */\n      tag_119\n        /* \"#utility.yul\":823:828   */\n      dup2\n        /* \"#utility.yul\":796:829   */\n      tag_81\n      jump\t// in\n    tag_119:\n        /* \"#utility.yul\":696:835   */\n      swap3\n      swap2\n      pop\n      pop\n      jump\t// out\n        /* \"#utility.yul\":841:918   */\n    tag_83:\n        /* \"#utility.yul\":878:885   */\n      0x00\n        /* \"#utility.yul\":907:912   */\n      dup2\n        /* \"#utility.yul\":896:912   */\n      swap1\n      pop\n        /* \"#utility.yul\":841:918   */\n      swap2\n      swap1\n      pop\n      jump\t// out\n        /* \"#utility.yul\":924:1046   */\n    tag_84:\n        /* \"#utility.yul\":997:1021   */\n      tag_122\n        /* \"#utility.yul\":1015:1020   */\n      dup2\n        /* \"#utility.yul\":997:1021   */\n      tag_83\n      jump\t// in\n    tag_122:\n        /* \"#utility.yul\":990:995   */\n      dup2\n        /* \"#utility.yul\":987:1022   */\n      eq\n        /* \"#utility.yul\":977:1040   */\n      tag_123\n      jumpi\n        /* \"#utility.yul\":1036:1037   */\n      0x00\n        /* \"#utility.yul\":1033:1034   */\n      dup1\n        /* \"#utility.yul\":1026:1038   */\n      revert\n        /* \"#utility.yul\":977:1040   */\n    tag_123:\n        /* \"#utility.yul\":924:1046   */\n      pop\n      jump\t// out\n        /* \"#utility.yul\":1052:1191   */\n    tag_85:\n        /* \"#utility.yul\":1098:1103   */\n      0x00\n        /* \"#utility.yul\":1136:1142   */\n      dup2\n        /* \"#utility.yul\":1123:1143   */\n      calldataload\n        /* \"#utility.yul\":1114:1143   */\n      swap1\n      pop\n        /* \"#utility.yul\":1152:1185   */\n      tag_125\n        /* \"#utility.yul\":1179:1184   */\n      dup2\n        /* \"#utility.yul\":1152:1185   */\n      tag_84\n      jump\t// in\n    tag_125:\n        /* \"#utility.yul\":1052:1191   */\n      swap3\n      swap2\n      pop\n      pop\n      jump\t// out\n        /* \"#utility.yul\":1197:1816   */\n    tag_10:\n        /* \"#utility.yul\":1274:1280   */\n      0x00\n        /* \"#utility.yul\":1282:1288   */\n      dup1\n        /* \"#utility.yul\":1290:1296   */\n      0x00\n        /* \"#utility.yul\":1339:1341   */\n      0x60\n        /* \"#utility.yul\":1327:1336   */\n      dup5\n        /* \"#utility.yul\":1318:1325   */\n      dup7\n        /* \"#utility.yul\":1314:1337   */\n      sub\n        /* \"#utility.yul\":1310:1342   */\n      slt\n        /* \"#utility.yul\":1307:1426   */\n      iszero\n      tag_127\n      jumpi\n        /* \"#utility.yul\":1345:1424   */\n      tag_128\n      tag_77\n      jump\t// in\n    tag_128:\n        /* \"#utility.yul\":1307:1426   */\n    tag_127:\n        /* \"#utility.yul\":1465:1466   */\n      0x00\n        /* \"#utility.yul\":1490:1543   */\n      tag_129\n        /* \"#utility.yul\":1535:1542   */\n      dup7\n        /* \"#utility.yul\":1526:1532   */\n      dup3\n        /* \"#utility.yul\":1515:1524   */\n      dup8\n        /* \"#utility.yul\":1511:1533   */\n      add\n        /* \"#utility.yul\":1490:1543   */\n      tag_82\n      jump\t// in\n    tag_129:\n        /* \"#utility.yul\":1480:1543   */\n      swap4\n      pop\n        /* \"#utility.yul\":1436:1553   */\n      pop\n        /* \"#utility.yul\":1592:1594   */\n      0x20\n        /* \"#utility.yul\":1618:1671   */\n      tag_130\n        /* \"#utility.yul\":1663:1670   */\n      dup7\n        /* \"#utility.yul\":1654:1660   */\n      dup3\n        /* \"#utility.yul\":1643:1652   */\n      dup8\n        /* \"#utility.yul\":1639:1661   */\n      add\n        /* \"#utility.yul\":1618:1671   */\n      tag_82\n      jump\t// in\n    tag_130:\n        /* \"#utility.yul\":1608:1671   */\n      swap3\n      pop\n        /* \"#utility.yul\":1563:1681   */\n      pop\n        /* \"#utility.yul\":1720:1722   */\n      0x40\n        /* \"#utility.yul\":1746:1799   */\n      tag_131\n        /* \"#utility.yul\":1791:1798   */\n      dup7\n        /* \"#utility.yul\":1782:1788   */\n      dup3\n        /* \"#utility.yul\":1771:1780   */\n      dup8\n        /* \"#utility.yul\":1767:1789   */\n      add\n        /* \"#utility.yul\":1746:1799   */\n      tag_85\n      jump\t// in\n    tag_131:\n        /* \"#utility.yul\":1736:1799   */\n      swap2\n      pop\n        /* \"#utility.yul\":1691:1809   */\n      pop\n        /* \"#utility.yul\":1197:1816   */\n      swap3\n      pop\n      swap3\n      pop\n      swap3\n      jump\t// out\n        /* \"#utility.yul\":1822:2296   */\n    tag_14:\n        /* \"#utility.yul\":1890:1896   */\n      0x00\n        /* \"#utility.yul\":1898:1904   */\n      dup1\n        /* \"#utility.yul\":1947:1949   */\n      0x40\n        /* \"#utility.yul\":1935:1944   */\n      dup4\n        /* \"#utility.yul\":1926:1933   */\n      dup6\n        /* \"#utility.yul\":1922:1945   */\n      sub\n        /* \"#utility.yul\":1918:1950   */\n      slt\n        /* \"#utility.yul\":1915:2034   */\n      iszero\n      tag_133\n      jumpi\n        /* \"#utility.yul\":1953:2032   */\n      tag_134\n      tag_77\n      jump\t// in\n    tag_134:\n        /* \"#utility.yul\":1915:2034   */\n    tag_133:\n        /* \"#utility.yul\":2073:2074   */\n      0x00\n        /* \"#utility.yul\":2098:2151   */\n      tag_135\n        /* \"#utility.yul\":2143:2150   */\n      dup6\n        /* \"#utility.yul\":2134:2140   */\n      dup3\n        /* \"#utility.yul\":2123:2132   */\n      dup7\n        /* \"#utility.yul\":2119:2141   */\n      add\n        /* \"#utility.yul\":2098:2151   */\n      tag_82\n      jump\t// in\n    tag_135:\n        /* \"#utility.yul\":2088:2151   */\n      swap3\n      pop\n        /* \"#utility.yul\":2044:2161   */\n      pop\n        /* \"#utility.yul\":2200:2202   */\n      0x20\n        /* \"#utility.yul\":2226:2279   */\n      tag_136\n        /* \"#utility.yul\":2271:2278   */\n      dup6\n        /* \"#utility.yul\":2262:2268   */\n      dup3\n        /* \"#utility.yul\":2251:2260   */\n      dup7\n        /* \"#utility.yul\":2247:2269   */\n      add\n        /* \"#utility.yul\":2226:2279   */\n      tag_85\n      jump\t// in\n    tag_136:\n        /* \"#utility.yul\":2216:2279   */\n      swap2\n      pop\n        /* \"#utility.yul\":2171:2289   */\n      pop\n        /* \"#utility.yul\":1822:2296   */\n      swap3\n      pop\n      swap3\n      swap1\n      pop\n      jump\t// out\n        /* \"#utility.yul\":2302:2420   */\n    tag_86:\n        /* \"#utility.yul\":2389:2413   */\n      tag_138\n        /* \"#utility.yul\":2407:2412   */\n      dup2\n        /* \"#utility.yul\":2389:2413   */\n      tag_83\n      jump\t// in\n    tag_138:\n        /* \"#utility.yul\":2384:2387   */\n      dup3\n        /* \"#utility.yul\":2377:2414   */\n      mstore\n        /* \"#utility.yul\":2302:2420   */\n      pop\n      pop\n      jump\t// out\n        /* \"#utility.yul\":2426:2648   */\n    tag_19:\n        /* \"#utility.yul\":2519:2523   */\n      0x00\n        /* \"#utility.yul\":2557:2559   */\n      0x20\n        /* \"#utility.yul\":2546:2555   */\n      dup3\n        /* \"#utility.yul\":2542:2560   */\n      add\n        /* \"#utility.yul\":2534:2560   */\n      swap1\n      pop\n        /* \"#utility.yul\":2570:2641   */\n      tag_140\n        /* \"#utility.yul\":2638:2639   */\n      0x00\n        /* \"#utility.yul\":2627:2636   */\n      dup4\n        /* \"#utility.yul\":2623:2640   */\n      add\n        /* \"#utility.yul\":2614:2620   */\n      dup5\n        /* \"#utility.yul\":2570:2641   */\n      tag_86\n      jump\t// in\n    tag_140:\n        /* \"#utility.yul\":2426:2648   */\n      swap3\n      swap2\n      pop\n      pop\n      jump\t// out\n        /* \"#utility.yul\":2654:2753   */\n    tag_87:\n        /* \"#utility.yul\":2706:2712   */\n      0x00\n        /* \"#utility.yul\":2740:2745   */\n      dup2\n        /* \"#utility.yul\":2734:2746   */\n      mload\n        /* \"#utility.yul\":2724:2746   */\n      swap1\n      pop\n        /* \"#utility.yul\":2654:2753   */\n      swap2\n      swap1\n      pop\n      jump\t// out\n        /* \"#utility.yul\":2759:2928   */\n    tag_88:\n        /* \"#utility.yul\":2843:2854   */\n      0x00\n        /* \"#utility.yul\":2877:2883   */\n      dup3\n        /* \"#utility.yul\":2872:2875   */\n      dup3\n        /* \"#utility.yul\":2865:2884   */\n      mstore\n        /* \"#utility.yul\":2917:2921   */\n      0x20\n        /* \"#utility.yul\":2912:2915   */\n      dup3\n        /* \"#utility.yul\":2908:2922   */\n      add\n        /* \"#utility.yul\":2893:2922   */\n      swap1\n      pop\n        /* \"#utility.yul\":2759:2928   */\n      swap3\n      swap2\n      pop\n      pop\n      jump\t// out\n        /* \"#utility.yul\":2934:3180   */\n    tag_89:\n        /* \"#utility.yul\":3015:3016   */\n      0x00\n        /* \"#utility.yul\":3025:3138   */\n    tag_144:\n        /* \"#utility.yul\":3039:3045   */\n      dup4\n        /* \"#utility.yul\":3036:3037   */\n      dup2\n        /* \"#utility.yul\":3033:3046   */\n      lt\n        /* \"#utility.yul\":3025:3138   */\n      iszero\n      tag_146\n      jumpi\n        /* \"#utility.yul\":3124:3125   */\n      dup1\n        /* \"#utility.yul\":3119:3122   */\n      dup3\n        /* \"#utility.yul\":3115:3126   */\n      add\n        /* \"#utility.yul\":3109:3127   */\n      mload\n        /* \"#utility.yul\":3105:3106   */\n      dup2\n        /* \"#utility.yul\":3100:3103   */\n      dup5\n        /* \"#utility.yul\":3096:3107   */\n      add\n        /* \"#utility.yul\":3089:3128   */\n      mstore\n        /* \"#utility.yul\":3061:3063   */\n      0x20\n        /* \"#utility.yul\":3058:3059   */\n      dup2\n        /* \"#utility.yul\":3054:3064   */\n      add\n        /* \"#utility.yul\":3049:3064   */\n      swap1\n      pop\n        /* \"#utility.yul\":3025:3138   */\n      jump(tag_144)\n    tag_146:\n        /* \"#utility.yul\":3172:3173   */\n      0x00\n        /* \"#utility.yul\":3163:3169   */\n      dup5\n        /* \"#utility.yul\":3158:3161   */\n      dup5\n        /* \"#utility.yul\":3154:3170   */\n      add\n        /* \"#utility.yul\":3147:3174   */\n      mstore\n        /* \"#utility.yul\":2996:3180   */\n      pop\n        /* \"#utility.yul\":2934:3180   */\n      pop\n      pop\n      pop\n      jump\t// out\n        /* \"#utility.yul\":3186:3288   */\n    tag_90:\n        /* \"#utility.yul\":3227:3233   */\n      0x00\n        /* \"#utility.yul\":3278:3280   */\n      0x1f\n        /* \"#utility.yul\":3274:3281   */\n      not\n        /* \"#utility.yul\":3269:3271   */\n      0x1f\n        /* \"#utility.yul\":3262:3267   */\n      dup4\n        /* \"#utility.yul\":3258:3272   */\n      add\n        /* \"#utility.yul\":3254:3282   */\n      and\n        /* \"#utility.yul\":3244:3282   */\n      swap1\n      pop\n        /* \"#utility.yul\":3186:3288   */\n      swap2\n      swap1\n      pop\n      jump\t// out\n        /* \"#utility.yul\":3294:3671   */\n    tag_91:\n        /* \"#utility.yul\":3382:3385   */\n      0x00\n        /* \"#utility.yul\":3410:3449   */\n      tag_149\n        /* \"#utility.yul\":3443:3448   */\n      dup3\n        /* \"#utility.yul\":3410:3449   */\n      tag_87\n      jump\t// in\n    tag_149:\n        /* \"#utility.yul\":3465:3536   */\n      tag_150\n        /* \"#utility.yul\":3529:3535   */\n      dup2\n        /* \"#utility.yul\":3524:3527   */\n      dup6\n        /* \"#utility.yul\":3465:3536   */\n      tag_88\n      jump\t// in\n    tag_150:\n        /* \"#utility.yul\":3458:3536   */\n      swap4\n      pop\n        /* \"#utility.yul\":3545:3610   */\n      tag_151\n        /* \"#utility.yul\":3603:3609   */\n      dup2\n        /* \"#utility.yul\":3598:3601   */\n      dup6\n        /* \"#utility.yul\":3591:3595   */\n      0x20\n        /* \"#utility.yul\":3584:3589   */\n      dup7\n        /* \"#utility.yul\":3580:3596   */\n      add\n        /* \"#utility.yul\":3545:3610   */\n      tag_89\n      jump\t// in\n    tag_151:\n        /* \"#utility.yul\":3635:3664   */\n      tag_152\n        /* \"#utility.yul\":3657:3663   */\n      dup2\n        /* \"#utility.yul\":3635:3664   */\n      tag_90\n      jump\t// in\n    tag_152:\n        /* \"#utility.yul\":3630:3633   */\n      dup5\n        /* \"#utility.yul\":3626:3665   */\n      add\n        /* \"#utility.yul\":3619:3665   */\n      swap2\n      pop\n        /* \"#utility.yul\":3386:3671   */\n      pop\n        /* \"#utility.yul\":3294:3671   */\n      swap3\n      swap2\n      pop\n      pop\n      jump\t// out\n        /* \"#utility.yul\":3677:3990   */\n    tag_24:\n        /* \"#utility.yul\":3790:3794   */\n      0x00\n        /* \"#utility.yul\":3828:3830   */\n      0x20\n        /* \"#utility.yul\":3817:3826   */\n      dup3\n        /* \"#utility.yul\":3813:3831   */\n      add\n        /* \"#utility.yul\":3805:3831   */\n      swap1\n      pop\n        /* \"#utility.yul\":3877:3886   */\n      dup2\n        /* \"#utility.yul\":3871:3875   */\n      dup2\n        /* \"#utility.yul\":3867:3887   */\n      sub\n        /* \"#utility.yul\":3863:3864   */\n      0x00\n        /* \"#utility.yul\":3852:3861   */\n      dup4\n        /* \"#utility.yul\":3848:3865   */\n      add\n        /* \"#utility.yul\":3841:3888   */\n      mstore\n        /* \"#utility.yul\":3905:3983   */\n      tag_154\n        /* \"#utility.yul\":3978:3982   */\n      dup2\n        /* \"#utility.yul\":3969:3975   */\n      dup5\n        /* \"#utility.yul\":3905:3983   */\n      tag_91\n      jump\t// in\n    tag_154:\n        /* \"#utility.yul\":3897:3983   */\n      swap1\n      pop\n        /* \"#utility.yul\":3677:3990   */\n      swap3\n      swap2\n      pop\n      pop\n      jump\t// out\n        /* \"#utility.yul\":3996:4325   */\n    tag_27:\n        /* \"#utility.yul\":4055:4061   */\n      0x00\n        /* \"#utility.yul\":4104:4106   */\n      0x20\n        /* \"#utility.yul\":4092:4101   */\n      dup3\n        /* \"#utility.yul\":4083:4090   */\n      dup5\n        /* \"#utility.yul\":4079:4102   */\n      sub\n        /* \"#utility.yul\":4075:4107   */\n      slt\n        /* \"#utility.yul\":4072:4191   */\n      iszero\n      tag_156\n      jumpi\n        /* \"#utility.yul\":4110:4189   */\n      tag_157\n      tag_77\n      jump\t// in\n    tag_157:\n        /* \"#utility.yul\":4072:4191   */\n    tag_156:\n        /* \"#utility.yul\":4230:4231   */\n      0x00\n        /* \"#utility.yul\":4255:4308   */\n      tag_158\n        /* \"#utility.yul\":4300:4307   */\n      dup5\n        /* \"#utility.yul\":4291:4297   */\n      dup3\n        /* \"#utility.yul\":4280:4289   */\n      dup6\n        /* \"#utility.yul\":4276:4298   */\n      add\n        /* \"#utility.yul\":4255:4308   */\n      tag_82\n      jump\t// in\n    tag_158:\n        /* \"#utility.yul\":4245:4308   */\n      swap2\n      pop\n        /* \"#utility.yul\":4201:4318   */\n      pop\n        /* \"#utility.yul\":3996:4325   */\n      swap3\n      swap2\n      pop\n      pop\n      jump\t// out\n        /* \"#utility.yul\":4331:4502   */\n    tag_92:\n        /* \"#utility.yul\":4471:4494   */\n      0x706c656173652072656769737465722066697273740000000000000000000000\n        /* \"#utility.yul\":4467:4468   */\n      0x00\n        /* \"#utility.yul\":4459:4465   */\n      dup3\n        /* \"#utility.yul\":4455:4469   */\n      add\n        /* \"#utility.yul\":4448:4495   */\n      mstore\n        /* \"#utility.yul\":4331:4502   */\n      pop\n      jump\t// out\n        /* \"#utility.yul\":4508:4874   */\n    tag_93:\n        /* \"#utility.yul\":4650:4653   */\n      0x00\n        /* \"#utility.yul\":4671:4738   */\n      tag_161\n        /* \"#utility.yul\":4735:4737   */\n      0x15\n        /* \"#utility.yul\":4730:4733   */\n      dup4\n        /* \"#utility.yul\":4671:4738   */\n      tag_88\n      jump\t// in\n    tag_161:\n        /* \"#utility.yul\":4664:4738   */\n      swap2\n      pop\n        /* \"#utility.yul\":4747:4840   */\n      tag_162\n        /* \"#utility.yul\":4836:4839   */\n      dup3\n        /* \"#utility.yul\":4747:4840   */\n      tag_92\n      jump\t// in\n    tag_162:\n        /* \"#utility.yul\":4865:4867   */\n      0x20\n        /* \"#utility.yul\":4860:4863   */\n      dup3\n        /* \"#utility.yul\":4856:4868   */\n      add\n        /* \"#utility.yul\":4849:4868   */\n      swap1\n      pop\n        /* \"#utility.yul\":4508:4874   */\n      swap2\n      swap1\n      pop\n      jump\t// out\n        /* \"#utility.yul\":4880:5299   */\n    tag_33:\n        /* \"#utility.yul\":5046:5050   */\n      0x00\n        /* \"#utility.yul\":5084:5086   */\n      0x20\n        /* \"#utility.yul\":5073:5082   */\n      dup3\n        /* \"#utility.yul\":5069:5087   */\n      add\n        /* \"#utility.yul\":5061:5087   */\n      swap1\n      pop\n        /* \"#utility.yul\":5133:5142   */\n      dup2\n        /* \"#utility.yul\":5127:5131   */\n      dup2\n        /* \"#utility.yul\":5123:5143   */\n      sub\n        /* \"#utility.yul\":5119:5120   */\n      0x00\n        /* \"#utility.yul\":5108:5117   */\n      dup4\n        /* \"#utility.yul\":5104:5121   */\n      add\n        /* \"#utility.yul\":5097:5144   */\n      mstore\n        /* \"#utility.yul\":5161:5292   */\n      tag_164\n        /* \"#utility.yul\":5287:5291   */\n      dup2\n        /* \"#utility.yul\":5161:5292   */\n      tag_93\n      jump\t// in\n    tag_164:\n        /* \"#utility.yul\":5153:5292   */\n      swap1\n      pop\n        /* \"#utility.yul\":4880:5299   */\n      swap2\n      swap1\n      pop\n      jump\t// out\n        /* \"#utility.yul\":5305:5485   */\n    tag_94:\n        /* \"#utility.yul\":5353:5430   */\n      0x4e487b7100000000000000000000000000000000000000000000000000000000\n        /* \"#utility.yul\":5350:5351   */\n      0x00\n        /* \"#utility.yul\":5343:5431   */\n      mstore\n        /* \"#utility.yul\":5450:5454   */\n      0x11\n        /* \"#utility.yul\":5447:5448   */\n      0x04\n        /* \"#utility.yul\":5440:5455   */\n      mstore\n        /* \"#utility.yul\":5474:5478   */\n      0x24\n        /* \"#utility.yul\":5471:5472   */\n      0x00\n        /* \"#utility.yul\":5464:5479   */\n      revert\n        /* \"#utility.yul\":5491:5682   */\n    tag_37:\n        /* \"#utility.yul\":5531:5534   */\n      0x00\n        /* \"#utility.yul\":5550:5570   */\n      tag_167\n        /* \"#utility.yul\":5568:5569   */\n      dup3\n        /* \"#utility.yul\":5550:5570   */\n      tag_83\n      jump\t// in\n    tag_167:\n        /* \"#utility.yul\":5545:5570   */\n      swap2\n      pop\n        /* \"#utility.yul\":5584:5604   */\n      tag_168\n        /* \"#utility.yul\":5602:5603   */\n      dup4\n        /* \"#utility.yul\":5584:5604   */\n      tag_83\n      jump\t// in\n    tag_168:\n        /* \"#utility.yul\":5579:5604   */\n      swap3\n      pop\n        /* \"#utility.yul\":5627:5628   */\n      dup3\n        /* \"#utility.yul\":5624:5625   */\n      dup3\n        /* \"#utility.yul\":5620:5629   */\n      add\n        /* \"#utility.yul\":5613:5629   */\n      swap1\n      pop\n        /* \"#utility.yul\":5648:5651   */\n      dup1\n        /* \"#utility.yul\":5645:5646   */\n      dup3\n        /* \"#utility.yul\":5642:5652   */\n      gt\n        /* \"#utility.yul\":5639:5675   */\n      iszero\n      tag_169\n      jumpi\n        /* \"#utility.yul\":5655:5673   */\n      tag_170\n      tag_94\n      jump\t// in\n    tag_170:\n        /* \"#utility.yul\":5639:5675   */\n    tag_169:\n        /* \"#utility.yul\":5491:5682   */\n      swap3\n      swap2\n      pop\n      pop\n      jump\t// out\n        /* \"#utility.yul\":5688:5882   */\n    tag_39:\n        /* \"#utility.yul\":5728:5732   */\n      0x00\n        /* \"#utility.yul\":5748:5768   */\n      tag_172\n        /* \"#utility.yul\":5766:5767   */\n      dup3\n        /* \"#utility.yul\":5748:5768   */\n      tag_83\n      jump\t// in\n    tag_172:\n        /* \"#utility.yul\":5743:5768   */\n      swap2\n      pop\n        /* \"#utility.yul\":5782:5802   */\n      tag_173\n        /* \"#utility.yul\":5800:5801   */\n      dup4\n        /* \"#utility.yul\":5782:5802   */\n      tag_83\n      jump\t// in\n    tag_173:\n        /* \"#utility.yul\":5777:5802   */\n      swap3\n      pop\n        /* \"#utility.yul\":5826:5827   */\n      dup3\n        /* \"#utility.yul\":5823:5824   */\n      dup3\n        /* \"#utility.yul\":5819:5828   */\n      sub\n        /* \"#utility.yul\":5811:5828   */\n      swap1\n      pop\n        /* \"#utility.yul\":5850:5851   */\n      dup2\n        /* \"#utility.yul\":5844:5848   */\n      dup2\n        /* \"#utility.yul\":5841:5852   */\n      gt\n        /* \"#utility.yul\":5838:5875   */\n      iszero\n      tag_174\n      jumpi\n        /* \"#utility.yul\":5855:5873   */\n      tag_175\n      tag_94\n      jump\t// in\n    tag_175:\n        /* \"#utility.yul\":5838:5875   */\n    tag_174:\n        /* \"#utility.yul\":5688:5882   */\n      swap3\n      swap2\n      pop\n      pop\n      jump\t// out\n        /* \"#utility.yul\":5888:6057   */\n    tag_95:\n        /* \"#utility.yul\":6028:6049   */\n      0x76616c75652063616e2774206265207a65726f00000000000000000000000000\n        /* \"#utility.yul\":6024:6025   */\n      0x00\n        /* \"#utility.yul\":6016:6022   */\n      dup3\n        /* \"#utility.yul\":6012:6026   */\n      add\n        /* \"#utility.yul\":6005:6050   */\n      mstore\n        /* \"#utility.yul\":5888:6057   */\n      pop\n      jump\t// out\n        /* \"#utility.yul\":6063:6429   */\n    tag_96:\n        /* \"#utility.yul\":6205:6208   */\n      0x00\n        /* \"#utility.yul\":6226:6293   */\n      tag_178\n        /* \"#utility.yul\":6290:6292   */\n      0x13\n        /* \"#utility.yul\":6285:6288   */\n      dup4\n        /* \"#utility.yul\":6226:6293   */\n      tag_88\n      jump\t// in\n    tag_178:\n        /* \"#utility.yul\":6219:6293   */\n      swap2\n      pop\n        /* \"#utility.yul\":6302:6395   */\n      tag_179\n        /* \"#utility.yul\":6391:6394   */\n      dup3\n        /* \"#utility.yul\":6302:6395   */\n      tag_95\n      jump\t// in\n    tag_179:\n        /* \"#utility.yul\":6420:6422   */\n      0x20\n        /* \"#utility.yul\":6415:6418   */\n      dup3\n        /* \"#utility.yul\":6411:6423   */\n      add\n        /* \"#utility.yul\":6404:6423   */\n      swap1\n      pop\n        /* \"#utility.yul\":6063:6429   */\n      swap2\n      swap1\n      pop\n      jump\t// out\n        /* \"#utility.yul\":6435:6854   */\n    tag_44:\n        /* \"#utility.yul\":6601:6605   */\n      0x00\n        /* \"#utility.yul\":6639:6641   */\n      0x20\n        /* \"#utility.yul\":6628:6637   */\n      dup3\n        /* \"#utility.yul\":6624:6642   */\n      add\n        /* \"#utility.yul\":6616:6642   */\n      swap1\n      pop\n        /* \"#utility.yul\":6688:6697   */\n      dup2\n        /* \"#utility.yul\":6682:6686   */\n      dup2\n        /* \"#utility.yul\":6678:6698   */\n      sub\n        /* \"#utility.yul\":6674:6675   */\n      0x00\n        /* \"#utility.yul\":6663:6672   */\n      dup4\n        /* \"#utility.yul\":6659:6676   */\n      add\n        /* \"#utility.yul\":6652:6699   */\n      mstore\n        /* \"#utility.yul\":6716:6847   */\n      tag_181\n        /* \"#utility.yul\":6842:6846   */\n      dup2\n        /* \"#utility.yul\":6716:6847   */\n      tag_96\n      jump\t// in\n    tag_181:\n        /* \"#utility.yul\":6708:6847   */\n      swap1\n      pop\n        /* \"#utility.yul\":6435:6854   */\n      swap2\n      swap1\n      pop\n      jump\t// out\n        /* \"#utility.yul\":6860:7030   */\n    tag_97:\n        /* \"#utility.yul\":7000:7022   */\n      0x796f75722062616c616e6365206973207a65726f000000000000000000000000\n        /* \"#utility.yul\":6996:6997   */\n      0x00\n        /* \"#utility.yul\":6988:6994   */\n      dup3\n        /* \"#utility.yul\":6984:6998   */\n      add\n        /* \"#utility.yul\":6977:7023   */\n      mstore\n        /* \"#utility.yul\":6860:7030   */\n      pop\n      jump\t// out\n        /* \"#utility.yul\":7036:7402   */\n    tag_98:\n        /* \"#utility.yul\":7178:7181   */\n      0x00\n        /* \"#utility.yul\":7199:7266   */\n      tag_184\n        /* \"#utility.yul\":7263:7265   */\n      0x14\n        /* \"#utility.yul\":7258:7261   */\n      dup4\n        /* \"#utility.yul\":7199:7266   */\n      tag_88\n      jump\t// in\n    tag_184:\n        /* \"#utility.yul\":7192:7266   */\n      swap2\n      pop\n        /* \"#utility.yul\":7275:7368   */\n      tag_185\n        /* \"#utility.yul\":7364:7367   */\n      dup3\n        /* \"#utility.yul\":7275:7368   */\n      tag_97\n      jump\t// in\n    tag_185:\n        /* \"#utility.yul\":7393:7395   */\n      0x20\n        /* \"#utility.yul\":7388:7391   */\n      dup3\n        /* \"#utility.yul\":7384:7396   */\n      add\n        /* \"#utility.yul\":7377:7396   */\n      swap1\n      pop\n        /* \"#utility.yul\":7036:7402   */\n      swap2\n      swap1\n      pop\n      jump\t// out\n        /* \"#utility.yul\":7408:7827   */\n    tag_48:\n        /* \"#utility.yul\":7574:7578   */\n      0x00\n        /* \"#utility.yul\":7612:7614   */\n      0x20\n        /* \"#utility.yul\":7601:7610   */\n      dup3\n        /* \"#utility.yul\":7597:7615   */\n      add\n        /* \"#utility.yul\":7589:7615   */\n      swap1\n      pop\n        /* \"#utility.yul\":7661:7670   */\n      dup2\n        /* \"#utility.yul\":7655:7659   */\n      dup2\n        /* \"#utility.yul\":7651:7671   */\n      sub\n        /* \"#utility.yul\":7647:7648   */\n      0x00\n        /* \"#utility.yul\":7636:7645   */\n      dup4\n        /* \"#utility.yul\":7632:7649   */\n      add\n        /* \"#utility.yul\":7625:7672   */\n      mstore\n        /* \"#utility.yul\":7689:7820   */\n      tag_187\n        /* \"#utility.yul\":7815:7819   */\n      dup2\n        /* \"#utility.yul\":7689:7820   */\n      tag_98\n      jump\t// in\n    tag_187:\n        /* \"#utility.yul\":7681:7820   */\n      swap1\n      pop\n        /* \"#utility.yul\":7408:7827   */\n      swap2\n      swap1\n      pop\n      jump\t// out\n        /* \"#utility.yul\":7833:8243   */\n    tag_50:\n        /* \"#utility.yul\":7873:7880   */\n      0x00\n        /* \"#utility.yul\":7896:7916   */\n      tag_189\n        /* \"#utility.yul\":7914:7915   */\n      dup3\n        /* \"#utility.yul\":7896:7916   */\n      tag_83\n      jump\t// in\n    tag_189:\n        /* \"#utility.yul\":7891:7916   */\n      swap2\n      pop\n        /* \"#utility.yul\":7930:7950   */\n      tag_190\n        /* \"#utility.yul\":7948:7949   */\n      dup4\n        /* \"#utility.yul\":7930:7950   */\n      tag_83\n      jump\t// in\n    tag_190:\n        /* \"#utility.yul\":7925:7950   */\n      swap3\n      pop\n        /* \"#utility.yul\":7985:7986   */\n      dup3\n        /* \"#utility.yul\":7982:7983   */\n      dup3\n        /* \"#utility.yul\":7978:7987   */\n      mul\n        /* \"#utility.yul\":8007:8037   */\n      tag_191\n        /* \"#utility.yul\":8025:8036   */\n      dup2\n        /* \"#utility.yul\":8007:8037   */\n      tag_83\n      jump\t// in\n    tag_191:\n        /* \"#utility.yul\":7996:8037   */\n      swap2\n      pop\n        /* \"#utility.yul\":8186:8187   */\n      dup3\n        /* \"#utility.yul\":8177:8184   */\n      dup3\n        /* \"#utility.yul\":8173:8188   */\n      div\n        /* \"#utility.yul\":8170:8171   */\n      dup5\n        /* \"#utility.yul\":8167:8189   */\n      eq\n        /* \"#utility.yul\":8147:8148   */\n      dup4\n        /* \"#utility.yul\":8140:8149   */\n      iszero\n        /* \"#utility.yul\":8120:8203   */\n      or\n        /* \"#utility.yul\":8097:8236   */\n      tag_192\n      jumpi\n        /* \"#utility.yul\":8216:8234   */\n      tag_193\n      tag_94\n      jump\t// in\n    tag_193:\n        /* \"#utility.yul\":8097:8236   */\n    tag_192:\n        /* \"#utility.yul\":7881:8243   */\n      pop\n        /* \"#utility.yul\":7833:8243   */\n      swap3\n      swap2\n      pop\n      pop\n      jump\t// out\n        /* \"#utility.yul\":8249:8429   */\n    tag_99:\n        /* \"#utility.yul\":8297:8374   */\n      0x4e487b7100000000000000000000000000000000000000000000000000000000\n        /* \"#utility.yul\":8294:8295   */\n      0x00\n        /* \"#utility.yul\":8287:8375   */\n      mstore\n        /* \"#utility.yul\":8394:8398   */\n      0x12\n        /* \"#utility.yul\":8391:8392   */\n      0x04\n        /* \"#utility.yul\":8384:8399   */\n      mstore\n        /* \"#utility.yul\":8418:8422   */\n      0x24\n        /* \"#utility.yul\":8415:8416   */\n      0x00\n        /* \"#utility.yul\":8408:8423   */\n      revert\n        /* \"#utility.yul\":8435:8620   */\n    tag_52:\n        /* \"#utility.yul\":8475:8476   */\n      0x00\n        /* \"#utility.yul\":8492:8512   */\n      tag_196\n        /* \"#utility.yul\":8510:8511   */\n      dup3\n        /* \"#utility.yul\":8492:8512   */\n      tag_83\n      jump\t// in\n    tag_196:\n        /* \"#utility.yul\":8487:8512   */\n      swap2\n      pop\n        /* \"#utility.yul\":8526:8546   */\n      tag_197\n        /* \"#utility.yul\":8544:8545   */\n      dup4\n        /* \"#utility.yul\":8526:8546   */\n      tag_83\n      jump\t// in\n    tag_197:\n        /* \"#utility.yul\":8521:8546   */\n      swap3\n      pop\n        /* \"#utility.yul\":8565:8566   */\n      dup3\n        /* \"#utility.yul\":8555:8590   */\n      tag_198\n      jumpi\n        /* \"#utility.yul\":8570:8588   */\n      tag_199\n      tag_99\n      jump\t// in\n    tag_199:\n        /* \"#utility.yul\":8555:8590   */\n    tag_198:\n        /* \"#utility.yul\":8612:8613   */\n      dup3\n        /* \"#utility.yul\":8609:8610   */\n      dup3\n        /* \"#utility.yul\":8605:8614   */\n      div\n        /* \"#utility.yul\":8600:8614   */\n      swap1\n      pop\n        /* \"#utility.yul\":8435:8620   */\n      swap3\n      swap2\n      pop\n      pop\n      jump\t// out\n        /* \"#utility.yul\":8626:8800   */\n    tag_100:\n        /* \"#utility.yul\":8766:8792   */\n      0x73656c6c6572206973206e6f7420726567697374657265640000000000000000\n        /* \"#utility.yul\":8762:8763   */\n      0x00\n        /* \"#utility.yul\":8754:8760   */\n      dup3\n        /* \"#utility.yul\":8750:8764   */\n      add\n        /* \"#utility.yul\":8743:8793   */\n      mstore\n        /* \"#utility.yul\":8626:8800   */\n      pop\n      jump\t// out\n        /* \"#utility.yul\":8806:9172   */\n    tag_101:\n        /* \"#utility.yul\":8948:8951   */\n      0x00\n        /* \"#utility.yul\":8969:9036   */\n      tag_202\n        /* \"#utility.yul\":9033:9035   */\n      0x18\n        /* \"#utility.yul\":9028:9031   */\n      dup4\n        /* \"#utility.yul\":8969:9036   */\n      tag_88\n      jump\t// in\n    tag_202:\n        /* \"#utility.yul\":8962:9036   */\n      swap2\n      pop\n        /* \"#utility.yul\":9045:9138   */\n      tag_203\n        /* \"#utility.yul\":9134:9137   */\n      dup3\n        /* \"#utility.yul\":9045:9138   */\n      tag_100\n      jump\t// in\n    tag_203:\n        /* \"#utility.yul\":9163:9165   */\n      0x20\n        /* \"#utility.yul\":9158:9161   */\n      dup3\n        /* \"#utility.yul\":9154:9166   */\n      add\n        /* \"#utility.yul\":9147:9166   */\n      swap1\n      pop\n        /* \"#utility.yul\":8806:9172   */\n      swap2\n      swap1\n      pop\n      jump\t// out\n        /* \"#utility.yul\":9178:9597   */\n    tag_60:\n        /* \"#utility.yul\":9344:9348   */\n      0x00\n        /* \"#utility.yul\":9382:9384   */\n      0x20\n        /* \"#utility.yul\":9371:9380   */\n      dup3\n        /* \"#utility.yul\":9367:9385   */\n      add\n        /* \"#utility.yul\":9359:9385   */\n      swap1\n      pop\n        /* \"#utility.yul\":9431:9440   */\n      dup2\n        /* \"#utility.yul\":9425:9429   */\n      dup2\n        /* \"#utility.yul\":9421:9441   */\n      sub\n        /* \"#utility.yul\":9417:9418   */\n      0x00\n        /* \"#utility.yul\":9406:9415   */\n      dup4\n        /* \"#utility.yul\":9402:9419   */\n      add\n        /* \"#utility.yul\":9395:9442   */\n      mstore\n        /* \"#utility.yul\":9459:9590   */\n      tag_205\n        /* \"#utility.yul\":9585:9589   */\n      dup2\n        /* \"#utility.yul\":9459:9590   */\n      tag_101\n      jump\t// in\n    tag_205:\n        /* \"#utility.yul\":9451:9590   */\n      swap1\n      pop\n        /* \"#utility.yul\":9178:9597   */\n      swap2\n      swap1\n      pop\n      jump\t// out\n        /* \"#utility.yul\":9603:9776   */\n    tag_102:\n        /* \"#utility.yul\":9743:9768   */\n      0x6275796572206973206e6f742072656769737465726564000000000000000000\n        /* \"#utility.yul\":9739:9740   */\n      0x00\n        /* \"#utility.yul\":9731:9737   */\n      dup3\n        /* \"#utility.yul\":9727:9741   */\n      add\n        /* \"#utility.yul\":9720:9769   */\n      mstore\n        /* \"#utility.yul\":9603:9776   */\n      pop\n      jump\t// out\n        /* \"#utility.yul\":9782:10148   */\n    tag_103:\n        /* \"#utility.yul\":9924:9927   */\n      0x00\n        /* \"#utility.yul\":9945:10012   */\n      tag_208\n        /* \"#utility.yul\":10009:10011   */\n      0x17\n        /* \"#utility.yul\":10004:10007   */\n      dup4\n        /* \"#utility.yul\":9945:10012   */\n      tag_88\n      jump\t// in\n    tag_208:\n        /* \"#utility.yul\":9938:10012   */\n      swap2\n      pop\n        /* \"#utility.yul\":10021:10114   */\n      tag_209\n        /* \"#utility.yul\":10110:10113   */\n      dup3\n        /* \"#utility.yul\":10021:10114   */\n      tag_102\n      jump\t// in\n    tag_209:\n        /* \"#utility.yul\":10139:10141   */\n      0x20\n        /* \"#utility.yul\":10134:10137   */\n      dup3\n        /* \"#utility.yul\":10130:10142   */\n      add\n        /* \"#utility.yul\":10123:10142   */\n      swap1\n      pop\n        /* \"#utility.yul\":9782:10148   */\n      swap2\n      swap1\n      pop\n      jump\t// out\n        /* \"#utility.yul\":10154:10573   */\n    tag_64:\n        /* \"#utility.yul\":10320:10324   */\n      0x00\n        /* \"#utility.yul\":10358:10360   */\n      0x20\n        /* \"#utility.yul\":10347:10356   */\n      dup3\n        /* \"#utility.yul\":10343:10361   */\n      add\n        /* \"#utility.yul\":10335:10361   */\n      swap1\n      pop\n        /* \"#utility.yul\":10407:10416   */\n      dup2\n        /* \"#utility.yul\":10401:10405   */\n      dup2\n        /* \"#utility.yul\":10397:10417   */\n      sub\n        /* \"#utility.yul\":10393:10394   */\n      0x00\n        /* \"#utility.yul\":10382:10391   */\n      dup4\n        /* \"#utility.yul\":10378:10395   */\n      add\n        /* \"#utility.yul\":10371:10418   */\n      mstore\n        /* \"#utility.yul\":10435:10566   */\n      tag_211\n        /* \"#utility.yul\":10561:10565   */\n      dup2\n        /* \"#utility.yul\":10435:10566   */\n      tag_103\n      jump\t// in\n    tag_211:\n        /* \"#utility.yul\":10427:10566   */\n      swap1\n      pop\n        /* \"#utility.yul\":10154:10573   */\n      swap2\n      swap1\n      pop\n      jump\t// out\n        /* \"#utility.yul\":10579:10759   */\n    tag_104:\n        /* \"#utility.yul\":10719:10751   */\n      0x2073656c6c657220616e642062757965722063616e742062652073616d650000\n        /* \"#utility.yul\":10715:10716   */\n      0x00\n        /* \"#utility.yul\":10707:10713   */\n      dup3\n        /* \"#utility.yul\":10703:10717   */\n      add\n        /* \"#utility.yul\":10696:10752   */\n      mstore\n        /* \"#utility.yul\":10579:10759   */\n      pop\n      jump\t// out\n        /* \"#utility.yul\":10765:11131   */\n    tag_105:\n        /* \"#utility.yul\":10907:10910   */\n      0x00\n        /* \"#utility.yul\":10928:10995   */\n      tag_214\n        /* \"#utility.yul\":10992:10994   */\n      0x1e\n        /* \"#utility.yul\":10987:10990   */\n      dup4\n        /* \"#utility.yul\":10928:10995   */\n      tag_88\n      jump\t// in\n    tag_214:\n        /* \"#utility.yul\":10921:10995   */\n      swap2\n      pop\n        /* \"#utility.yul\":11004:11097   */\n      tag_215\n        /* \"#utility.yul\":11093:11096   */\n      dup3\n        /* \"#utility.yul\":11004:11097   */\n      tag_104\n      jump\t// in\n    tag_215:\n        /* \"#utility.yul\":11122:11124   */\n      0x20\n        /* \"#utility.yul\":11117:11120   */\n      dup3\n        /* \"#utility.yul\":11113:11125   */\n      add\n        /* \"#utility.yul\":11106:11125   */\n      swap1\n      pop\n        /* \"#utility.yul\":10765:11131   */\n      swap2\n      swap1\n      pop\n      jump\t// out\n        /* \"#utility.yul\":11137:11556   */\n    tag_68:\n        /* \"#utility.yul\":11303:11307   */\n      0x00\n        /* \"#utility.yul\":11341:11343   */\n      0x20\n        /* \"#utility.yul\":11330:11339   */\n      dup3\n        /* \"#utility.yul\":11326:11344   */\n      add\n        /* \"#utility.yul\":11318:11344   */\n      swap1\n      pop\n        /* \"#utility.yul\":11390:11399   */\n      dup2\n        /* \"#utility.yul\":11384:11388   */\n      dup2\n        /* \"#utility.yul\":11380:11400   */\n      sub\n        /* \"#utility.yul\":11376:11377   */\n      0x00\n        /* \"#utility.yul\":11365:11374   */\n      dup4\n        /* \"#utility.yul\":11361:11378   */\n      add\n        /* \"#utility.yul\":11354:11401   */\n      mstore\n        /* \"#utility.yul\":11418:11549   */\n      tag_217\n        /* \"#utility.yul\":11544:11548   */\n      dup2\n        /* \"#utility.yul\":11418:11549   */\n      tag_105\n      jump\t// in\n    tag_217:\n        /* \"#utility.yul\":11410:11549   */\n      swap1\n      pop\n        /* \"#utility.yul\":11137:11556   */\n      swap2\n      swap1\n      pop\n      jump\t// out\n        /* \"#utility.yul\":11562:11789   */\n    tag_106:\n        /* \"#utility.yul\":11702:11736   */\n      0x73656c6c657220616e6420627579657220626f746820617265206e6f74207265\n        /* \"#utility.yul\":11698:11699   */\n      0x00\n        /* \"#utility.yul\":11690:11696   */\n      dup3\n        /* \"#utility.yul\":11686:11700   */\n      add\n        /* \"#utility.yul\":11679:11737   */\n      mstore\n        /* \"#utility.yul\":11771:11781   */\n      0x6769737465726564000000000000000000000000000000000000000000000000\n        /* \"#utility.yul\":11766:11768   */\n      0x20\n        /* \"#utility.yul\":11758:11764   */\n      dup3\n        /* \"#utility.yul\":11754:11769   */\n      add\n        /* \"#utility.yul\":11747:11782   */\n      mstore\n        /* \"#utility.yul\":11562:11789   */\n      pop\n      jump\t// out\n        /* \"#utility.yul\":11795:12161   */\n    tag_107:\n        /* \"#utility.yul\":11937:11940   */\n      0x00\n        /* \"#utility.yul\":11958:12025   */\n      tag_220\n        /* \"#utility.yul\":12022:12024   */\n      0x28\n        /* \"#utility.yul\":12017:12020   */\n      dup4\n        /* \"#utility.yul\":11958:12025   */\n      tag_88\n      jump\t// in\n    tag_220:\n        /* \"#utility.yul\":11951:12025   */\n      swap2\n      pop\n        /* \"#utility.yul\":12034:12127   */\n      tag_221\n        /* \"#utility.yul\":12123:12126   */\n      dup3\n        /* \"#utility.yul\":12034:12127   */\n      tag_106\n      jump\t// in\n    tag_221:\n        /* \"#utility.yul\":12152:12154   */\n      0x40\n        /* \"#utility.yul\":12147:12150   */\n      dup3\n        /* \"#utility.yul\":12143:12155   */\n      add\n        /* \"#utility.yul\":12136:12155   */\n      swap1\n      pop\n        /* \"#utility.yul\":11795:12161   */\n      swap2\n      swap1\n      pop\n      jump\t// out\n        /* \"#utility.yul\":12167:12586   */\n    tag_73:\n        /* \"#utility.yul\":12333:12337   */\n      0x00\n        /* \"#utility.yul\":12371:12373   */\n      0x20\n        /* \"#utility.yul\":12360:12369   */\n      dup3\n        /* \"#utility.yul\":12356:12374   */\n      add\n        /* \"#utility.yul\":12348:12374   */\n      swap1\n      pop\n        /* \"#utility.yul\":12420:12429   */\n      dup2\n        /* \"#utility.yul\":12414:12418   */\n      dup2\n        /* \"#utility.yul\":12410:12430   */\n      sub\n        /* \"#utility.yul\":12406:12407   */\n      0x00\n        /* \"#utility.yul\":12395:12404   */\n      dup4\n        /* \"#utility.yul\":12391:12408   */\n      add\n        /* \"#utility.yul\":12384:12431   */\n      mstore\n        /* \"#utility.yul\":12448:12579   */\n      tag_223\n        /* \"#utility.yul\":12574:12578   */\n      dup2\n        /* \"#utility.yul\":12448:12579   */\n      tag_107\n      jump\t// in\n    tag_223:\n        /* \"#utility.yul\":12440:12579   */\n      swap1\n      pop\n        /* \"#utility.yul\":12167:12586   */\n      swap2\n      swap1\n      pop\n      jump\t// out\n    stop\n    data_17aa23838344d69e7c95fa6cd1cad8785ff6bfbc7529891f112320c03b7ec720 6974656d2077696c6c206265207368697070656420746f207468652062757965722061646472657373\n    data_972962e3a47e06aaca6a2aea821360ac4726cfee55110fcc74a5b7a0e9791ad3 796f7572206974656d2077696c6c2062652073656e7420746f2061646472657373\n\n    auxdata: 0xa26469706673582212205c1007ba0b202d6fdeeee6fc27a3996384ef463d8b94d8ec81558afc784954f064736f6c63430008140033\n}\n",
				"bytecode": {
					"linkReferences": {},
					"object": "608060405234801561000f575f80fd5b50604051610fe6380380610fe683398181016040528101906100319190610075565b80600181905550506100a0565b5f80fd5b5f819050919050565b61005481610042565b811461005e575f80fd5b50565b5f8151905061006f8161004b565b92915050565b5f6020828403121561008a5761008961003e565b5b5f61009784828501610061565b91505092915050565b610f39806100ad5f395ff3fe608060405234801561000f575f80fd5b5060043610610055575f3560e01c8063153e66e6146100595780636d705ebb14610075578063c6e9ce8414610091578063cae270b6146100af578063e3d670d7146100df575b5f80fd5b610073600480360381019061006e91906108ff565b61010f565b005b61008f600480360381019061008a919061094f565b610319565b005b6100996103a0565b6040516100a6919061099c565b60405180910390f35b6100c960048036038101906100c491906108ff565b6103a6565b6040516100d69190610a3f565b60405180910390f35b6100f960048036038101906100f49190610a5f565b610516565b604051610106919061099c565b60405180910390f35b5f805f8573ffffffffffffffffffffffffffffffffffffffff1673ffffffffffffffffffffffffffffffffffffffff1681526020019081526020015f20540361018d576040517f08c379a000000000000000000000000000000000000000000000000000000000815260040161018490610ad4565b60405180910390fd5b5f805f8473ffffffffffffffffffffffffffffffffffffffff1673ffffffffffffffffffffffffffffffffffffffff1681526020019081526020015f20540361020b576040517f08c379a000000000000000000000000000000000000000000000000000000000815260040161020290610ad4565b60405180910390fd5b805f808573ffffffffffffffffffffffffffffffffffffffff1673ffffffffffffffffffffffffffffffffffffffff1681526020019081526020015f205f8282546102569190610b1f565b92505081905550805f808473ffffffffffffffffffffffffffffffffffffffff1673ffffffffffffffffffffffffffffffffffffffff1681526020019081526020015f205f8282546102a89190610b52565b925050819055508273ffffffffffffffffffffffffffffffffffffffff168273ffffffffffffffffffffffffffffffffffffffff167f640441567a63f93bb708d33df4fb558ccf2ec59f306cc74b9bed436c9354d2038360405161030c919061099c565b60405180910390a3505050565b5f810361035b576040517f08c379a000000000000000000000000000000000000000000000000000000000815260040161035290610bcf565b60405180910390fd5b805f808473ffffffffffffffffffffffffffffffffffffffff1673ffffffffffffffffffffffffffffffffffffffff1681526020019081526020015f20819055505050565b60015481565b60605f805f8673ffffffffffffffffffffffffffffffffffffffff1673ffffffffffffffffffffffffffffffffffffffff1681526020019081526020015f205414610426576040517f08c379a000000000000000000000000000000000000000000000000000000000815260040161041d90610c37565b60405180910390fd5b5f6064600154846104379190610c55565b6104419190610cc3565b9050805f808773ffffffffffffffffffffffffffffffffffffffff1673ffffffffffffffffffffffffffffffffffffffff1681526020019081526020015f205f82825461048e9190610b52565b92505081905550805f803073ffffffffffffffffffffffffffffffffffffffff1673ffffffffffffffffffffffffffffffffffffffff1681526020019081526020015f205f8282546104e09190610b1f565b925050819055506104f285858561052a565b50604051806060016040528060218152602001610ee3602191399150509392505050565b5f602052805f5260405f205f915090505481565b60605f805f8673ffffffffffffffffffffffffffffffffffffffff1673ffffffffffffffffffffffffffffffffffffffff1681526020019081526020015f2054036105aa576040517f571c8de70000000000000000000000000000000000000000000000000000000081526004016105a190610d3d565b60405180910390fd5b5f805f8573ffffffffffffffffffffffffffffffffffffffff1673ffffffffffffffffffffffffffffffffffffffff1681526020019081526020015f205403610628576040517f571c8de700000000000000000000000000000000000000000000000000000000815260040161061f90610da5565b60405180910390fd5b5f808473ffffffffffffffffffffffffffffffffffffffff1673ffffffffffffffffffffffffffffffffffffffff1681526020019081526020015f20545f808673ffffffffffffffffffffffffffffffffffffffff1673ffffffffffffffffffffffffffffffffffffffff1681526020019081526020015f2054036106e2576040517f571c8de70000000000000000000000000000000000000000000000000000000081526004016106d990610e0d565b60405180910390fd5b5f805f8673ffffffffffffffffffffffffffffffffffffffff1673ffffffffffffffffffffffffffffffffffffffff1681526020019081526020015f205414801561076857505f805f8573ffffffffffffffffffffffffffffffffffffffff1673ffffffffffffffffffffffffffffffffffffffff1681526020019081526020015f2054145b156107a8576040517f571c8de700000000000000000000000000000000000000000000000000000000815260040161079f90610e9b565b60405180910390fd5b815f808673ffffffffffffffffffffffffffffffffffffffff1673ffffffffffffffffffffffffffffffffffffffff1681526020019081526020015f205f8282546107f39190610b1f565b92505081905550815f808573ffffffffffffffffffffffffffffffffffffffff1673ffffffffffffffffffffffffffffffffffffffff1681526020019081526020015f205f8282546108459190610b52565b92505081905550604051806060016040528060298152602001610eba6029913990509392505050565b5f80fd5b5f73ffffffffffffffffffffffffffffffffffffffff82169050919050565b5f61089b82610872565b9050919050565b6108ab81610891565b81146108b5575f80fd5b50565b5f813590506108c6816108a2565b92915050565b5f819050919050565b6108de816108cc565b81146108e8575f80fd5b50565b5f813590506108f9816108d5565b92915050565b5f805f606084860312156109165761091561086e565b5b5f610923868287016108b8565b9350506020610934868287016108b8565b9250506040610945868287016108eb565b9150509250925092565b5f80604083850312156109655761096461086e565b5b5f610972858286016108b8565b9250506020610983858286016108eb565b9150509250929050565b610996816108cc565b82525050565b5f6020820190506109af5f83018461098d565b92915050565b5f81519050919050565b5f82825260208201905092915050565b5f5b838110156109ec5780820151818401526020810190506109d1565b5f8484015250505050565b5f601f19601f8301169050919050565b5f610a11826109b5565b610a1b81856109bf565b9350610a2b8185602086016109cf565b610a34816109f7565b840191505092915050565b5f6020820190508181035f830152610a578184610a07565b905092915050565b5f60208284031215610a7457610a7361086e565b5b5f610a81848285016108b8565b91505092915050565b7f706c6561736520726567697374657220666972737400000000000000000000005f82015250565b5f610abe6015836109bf565b9150610ac982610a8a565b602082019050919050565b5f6020820190508181035f830152610aeb81610ab2565b9050919050565b7f4e487b71000000000000000000000000000000000000000000000000000000005f52601160045260245ffd5b5f610b29826108cc565b9150610b34836108cc565b9250828201905080821115610b4c57610b4b610af2565b5b92915050565b5f610b5c826108cc565b9150610b67836108cc565b9250828203905081811115610b7f57610b7e610af2565b5b92915050565b7f76616c75652063616e2774206265207a65726f000000000000000000000000005f82015250565b5f610bb96013836109bf565b9150610bc482610b85565b602082019050919050565b5f6020820190508181035f830152610be681610bad565b9050919050565b7f796f75722062616c616e6365206973207a65726f0000000000000000000000005f82015250565b5f610c216014836109bf565b9150610c2c82610bed565b602082019050919050565b5f6020820190508181035f830152610c4e81610c15565b9050919050565b5f610c5f826108cc565b9150610c6a836108cc565b9250828202610c78816108cc565b91508282048414831517610c8f57610c8e610af2565b5b5092915050565b7f4e487b71000000000000000000000000000000000000000000000000000000005f52601260045260245ffd5b5f610ccd826108cc565b9150610cd8836108cc565b925082610ce857610ce7610c96565b5b828204905092915050565b7f73656c6c6572206973206e6f74207265676973746572656400000000000000005f82015250565b5f610d276018836109bf565b9150610d3282610cf3565b602082019050919050565b5f6020820190508181035f830152610d5481610d1b565b9050919050565b7f6275796572206973206e6f7420726567697374657265640000000000000000005f82015250565b5f610d8f6017836109bf565b9150610d9a82610d5b565b602082019050919050565b5f6020820190508181035f830152610dbc81610d83565b9050919050565b7f2073656c6c657220616e642062757965722063616e742062652073616d6500005f82015250565b5f610df7601e836109bf565b9150610e0282610dc3565b602082019050919050565b5f6020820190508181035f830152610e2481610deb565b9050919050565b7f73656c6c657220616e6420627579657220626f746820617265206e6f742072655f8201527f6769737465726564000000000000000000000000000000000000000000000000602082015250565b5f610e856028836109bf565b9150610e9082610e2b565b604082019050919050565b5f6020820190508181035f830152610eb281610e79565b905091905056fe6974656d2077696c6c206265207368697070656420746f207468652062757965722061646472657373796f7572206974656d2077696c6c2062652073656e7420746f2061646472657373a26469706673582212205c1007ba0b202d6fdeeee6fc27a3996384ef463d8b94d8ec81558afc784954f064736f6c63430008140033",
					"opcodes": "PUSH1 0x80 PUSH1 0x40 MSTORE CALLVALUE DUP1 ISZERO PUSH2 0xF JUMPI PUSH0 DUP1 REVERT JUMPDEST POP PUSH1 0x40 MLOAD PUSH2 0xFE6 CODESIZE SUB DUP1 PUSH2 0xFE6 DUP4 CODECOPY DUP2 DUP2 ADD PUSH1 0x40 MSTORE DUP2 ADD SWAP1 PUSH2 0x31 SWAP2 SWAP1 PUSH2 0x75 JUMP JUMPDEST DUP1 PUSH1 0x1 DUP2 SWAP1 SSTORE POP POP PUSH2 0xA0 JUMP JUMPDEST PUSH0 DUP1 REVERT JUMPDEST PUSH0 DUP2 SWAP1 POP SWAP2 SWAP1 POP JUMP JUMPDEST PUSH2 0x54 DUP2 PUSH2 0x42 JUMP JUMPDEST DUP2 EQ PUSH2 0x5E JUMPI PUSH0 DUP1 REVERT JUMPDEST POP JUMP JUMPDEST PUSH0 DUP2 MLOAD SWAP1 POP PUSH2 0x6F DUP2 PUSH2 0x4B JUMP JUMPDEST SWAP3 SWAP2 POP POP JUMP JUMPDEST PUSH0 PUSH1 0x20 DUP3 DUP5 SUB SLT ISZERO PUSH2 0x8A JUMPI PUSH2 0x89 PUSH2 0x3E JUMP JUMPDEST JUMPDEST PUSH0 PUSH2 0x97 DUP5 DUP3 DUP6 ADD PUSH2 0x61 JUMP JUMPDEST SWAP2 POP POP SWAP3 SWAP2 POP POP JUMP JUMPDEST PUSH2 0xF39 DUP1 PUSH2 0xAD PUSH0 CODECOPY PUSH0 RETURN INVALID PUSH1 0x80 PUSH1 0x40 MSTORE CALLVALUE DUP1 ISZERO PUSH2 0xF JUMPI PUSH0 DUP1 REVERT JUMPDEST POP PUSH1 0x4 CALLDATASIZE LT PUSH2 0x55 JUMPI PUSH0 CALLDATALOAD PUSH1 0xE0 SHR DUP1 PUSH4 0x153E66E6 EQ PUSH2 0x59 JUMPI DUP1 PUSH4 0x6D705EBB EQ PUSH2 0x75 JUMPI DUP1 PUSH4 0xC6E9CE84 EQ PUSH2 0x91 JUMPI DUP1 PUSH4 0xCAE270B6 EQ PUSH2 0xAF JUMPI DUP1 PUSH4 0xE3D670D7 EQ PUSH2 0xDF JUMPI JUMPDEST PUSH0 DUP1 REVERT JUMPDEST PUSH2 0x73 PUSH1 0x4 DUP1 CALLDATASIZE SUB DUP2 ADD SWAP1 PUSH2 0x6E SWAP2 SWAP1 PUSH2 0x8FF JUMP JUMPDEST PUSH2 0x10F JUMP JUMPDEST STOP JUMPDEST PUSH2 0x8F PUSH1 0x4 DUP1 CALLDATASIZE SUB DUP2 ADD SWAP1 PUSH2 0x8A SWAP2 SWAP1 PUSH2 0x94F JUMP JUMPDEST PUSH2 0x319 JUMP JUMPDEST STOP JUMPDEST PUSH2 0x99 PUSH2 0x3A0 JUMP JUMPDEST PUSH1 0x40 MLOAD PUSH2 0xA6 SWAP2 SWAP1 PUSH2 0x99C JUMP JUMPDEST PUSH1 0x40 MLOAD DUP1 SWAP2 SUB SWAP1 RETURN JUMPDEST PUSH2 0xC9 PUSH1 0x4 DUP1 CALLDATASIZE SUB DUP2 ADD SWAP1 PUSH2 0xC4 SWAP2 SWAP1 PUSH2 0x8FF JUMP JUMPDEST PUSH2 0x3A6 JUMP JUMPDEST PUSH1 0x40 MLOAD PUSH2 0xD6 SWAP2 SWAP1 PUSH2 0xA3F JUMP JUMPDEST PUSH1 0x40 MLOAD DUP1 SWAP2 SUB SWAP1 RETURN JUMPDEST PUSH2 0xF9 PUSH1 0x4 DUP1 CALLDATASIZE SUB DUP2 ADD SWAP1 PUSH2 0xF4 SWAP2 SWAP1 PUSH2 0xA5F JUMP JUMPDEST PUSH2 0x516 JUMP JUMPDEST PUSH1 0x40 MLOAD PUSH2 0x106 SWAP2 SWAP1 PUSH2 0x99C JUMP JUMPDEST PUSH1 0x40 MLOAD DUP1 SWAP2 SUB SWAP1 RETURN JUMPDEST PUSH0 DUP1 PUSH0 DUP6 PUSH20 0xFFFFFFFFFFFFFFFFFFFFFFFFFFFFFFFFFFFFFFFF AND PUSH20 0xFFFFFFFFFFFFFFFFFFFFFFFFFFFFFFFFFFFFFFFF AND DUP2 MSTORE PUSH1 0x20 ADD SWAP1 DUP2 MSTORE PUSH1 0x20 ADD PUSH0 KECCAK256 SLOAD SUB PUSH2 0x18D JUMPI PUSH1 0x40 MLOAD PUSH32 0x8C379A000000000000000000000000000000000000000000000000000000000 DUP2 MSTORE PUSH1 0x4 ADD PUSH2 0x184 SWAP1 PUSH2 0xAD4 JUMP JUMPDEST PUSH1 0x40 MLOAD DUP1 SWAP2 SUB SWAP1 REVERT JUMPDEST PUSH0 DUP1 PUSH0 DUP5 PUSH20 0xFFFFFFFFFFFFFFFFFFFFFFFFFFFFFFFFFFFFFFFF AND PUSH20 0xFFFFFFFFFFFFFFFFFFFFFFFFFFFFFFFFFFFFFFFF AND DUP2 MSTORE PUSH1 0x20 ADD SWAP1 DUP2 MSTORE PUSH1 0x20 ADD PUSH0 KECCAK256 SLOAD SUB PUSH2 0x20B JUMPI PUSH1 0x40 MLOAD PUSH32 0x8C379A000000000000000000000000000000000000000000000000000000000 DUP2 MSTORE PUSH1 0x4 ADD PUSH2 0x202 SWAP1 PUSH2 0xAD4 JUMP JUMPDEST PUSH1 0x40 MLOAD DUP1 SWAP2 SUB SWAP1 REVERT JUMPDEST DUP1 PUSH0 DUP1 DUP6 PUSH20 0xFFFFFFFFFFFFFFFFFFFFFFFFFFFFFFFFFFFFFFFF AND PUSH20 0xFFFFFFFFFFFFFFFFFFFFFFFFFFFFFFFFFFFFFFFF AND DUP2 MSTORE PUSH1 0x20 ADD SWAP1 DUP2 MSTORE PUSH1 0x20 ADD PUSH0 KECCAK256 PUSH0 DUP3 DUP3 SLOAD PUSH2 0x256 SWAP2 SWAP1 PUSH2 0xB1F JUMP JUMPDEST SWAP3 POP POP DUP2 SWAP1 SSTORE POP DUP1 PUSH0 DUP1 DUP5 PUSH20 0xFFFFFFFFFFFFFFFFFFFFFFFFFFFFFFFFFFFFFFFF AND PUSH20 0xFFFFFFFFFFFFFFFFFFFFFFFFFFFFFFFFFFFFFFFF AND DUP2 MSTORE PUSH1 0x20 ADD SWAP1 DUP2 MSTORE PUSH1 0x20 ADD PUSH0 KECCAK256 PUSH0 DUP3 DUP3 SLOAD PUSH2 0x2A8 SWAP2 SWAP1 PUSH2 0xB52 JUMP JUMPDEST SWAP3 POP POP DUP2 SWAP1 SSTORE POP DUP3 PUSH20 0xFFFFFFFFFFFFFFFFFFFFFFFFFFFFFFFFFFFFFFFF AND DUP3 PUSH20 0xFFFFFFFFFFFFFFFFFFFFFFFFFFFFFFFFFFFFFFFF AND PUSH32 0x640441567A63F93BB708D33DF4FB558CCF2EC59F306CC74B9BED436C9354D203 DUP4 PUSH1 0x40 MLOAD PUSH2 0x30C SWAP2 SWAP1 PUSH2 0x99C JUMP JUMPDEST PUSH1 0x40 MLOAD DUP1 SWAP2 SUB SWAP1 LOG3 POP POP POP JUMP JUMPDEST PUSH0 DUP2 SUB PUSH2 0x35B JUMPI PUSH1 0x40 MLOAD PUSH32 0x8C379A000000000000000000000000000000000000000000000000000000000 DUP2 MSTORE PUSH1 0x4 ADD PUSH2 0x352 SWAP1 PUSH2 0xBCF JUMP JUMPDEST PUSH1 0x40 MLOAD DUP1 SWAP2 SUB SWAP1 REVERT JUMPDEST DUP1 PUSH0 DUP1 DUP5 PUSH20 0xFFFFFFFFFFFFFFFFFFFFFFFFFFFFFFFFFFFFFFFF AND PUSH20 0xFFFFFFFFFFFFFFFFFFFFFFFFFFFFFFFFFFFFFFFF AND DUP2 MSTORE PUSH1 0x20 ADD SWAP1 DUP2 MSTORE PUSH1 0x20 ADD PUSH0 KECCAK256 DUP2 SWAP1 SSTORE POP POP POP JUMP JUMPDEST PUSH1 0x1 SLOAD DUP2 JUMP JUMPDEST PUSH1 0x60 PUSH0 DUP1 PUSH0 DUP7 PUSH20 0xFFFFFFFFFFFFFFFFFFFFFFFFFFFFFFFFFFFFFFFF AND PUSH20 0xFFFFFFFFFFFFFFFFFFFFFFFFFFFFFFFFFFFFFFFF AND DUP2 MSTORE PUSH1 0x20 ADD SWAP1 DUP2 MSTORE PUSH1 0x20 ADD PUSH0 KECCAK256 SLOAD EQ PUSH2 0x426 JUMPI PUSH1 0x40 MLOAD PUSH32 0x8C379A000000000000000000000000000000000000000000000000000000000 DUP2 MSTORE PUSH1 0x4 ADD PUSH2 0x41D SWAP1 PUSH2 0xC37 JUMP JUMPDEST PUSH1 0x40 MLOAD DUP1 SWAP2 SUB SWAP1 REVERT JUMPDEST PUSH0 PUSH1 0x64 PUSH1 0x1 SLOAD DUP5 PUSH2 0x437 SWAP2 SWAP1 PUSH2 0xC55 JUMP JUMPDEST PUSH2 0x441 SWAP2 SWAP1 PUSH2 0xCC3 JUMP JUMPDEST SWAP1 POP DUP1 PUSH0 DUP1 DUP8 PUSH20 0xFFFFFFFFFFFFFFFFFFFFFFFFFFFFFFFFFFFFFFFF AND PUSH20 0xFFFFFFFFFFFFFFFFFFFFFFFFFFFFFFFFFFFFFFFF AND DUP2 MSTORE PUSH1 0x20 ADD SWAP1 DUP2 MSTORE PUSH1 0x20 ADD PUSH0 KECCAK256 PUSH0 DUP3 DUP3 SLOAD PUSH2 0x48E SWAP2 SWAP1 PUSH2 0xB52 JUMP JUMPDEST SWAP3 POP POP DUP2 SWAP1 SSTORE POP DUP1 PUSH0 DUP1 ADDRESS PUSH20 0xFFFFFFFFFFFFFFFFFFFFFFFFFFFFFFFFFFFFFFFF AND PUSH20 0xFFFFFFFFFFFFFFFFFFFFFFFFFFFFFFFFFFFFFFFF AND DUP2 MSTORE PUSH1 0x20 ADD SWAP1 DUP2 MSTORE PUSH1 0x20 ADD PUSH0 KECCAK256 PUSH0 DUP3 DUP3 SLOAD PUSH2 0x4E0 SWAP2 SWAP1 PUSH2 0xB1F JUMP JUMPDEST SWAP3 POP POP DUP2 SWAP1 SSTORE POP PUSH2 0x4F2 DUP6 DUP6 DUP6 PUSH2 0x52A JUMP JUMPDEST POP PUSH1 0x40 MLOAD DUP1 PUSH1 0x60 ADD PUSH1 0x40 MSTORE DUP1 PUSH1 0x21 DUP2 MSTORE PUSH1 0x20 ADD PUSH2 0xEE3 PUSH1 0x21 SWAP2 CODECOPY SWAP2 POP POP SWAP4 SWAP3 POP POP POP JUMP JUMPDEST PUSH0 PUSH1 0x20 MSTORE DUP1 PUSH0 MSTORE PUSH1 0x40 PUSH0 KECCAK256 PUSH0 SWAP2 POP SWAP1 POP SLOAD DUP2 JUMP JUMPDEST PUSH1 0x60 PUSH0 DUP1 PUSH0 DUP7 PUSH20 0xFFFFFFFFFFFFFFFFFFFFFFFFFFFFFFFFFFFFFFFF AND PUSH20 0xFFFFFFFFFFFFFFFFFFFFFFFFFFFFFFFFFFFFFFFF AND DUP2 MSTORE PUSH1 0x20 ADD SWAP1 DUP2 MSTORE PUSH1 0x20 ADD PUSH0 KECCAK256 SLOAD SUB PUSH2 0x5AA JUMPI PUSH1 0x40 MLOAD PUSH32 0x571C8DE700000000000000000000000000000000000000000000000000000000 DUP2 MSTORE PUSH1 0x4 ADD PUSH2 0x5A1 SWAP1 PUSH2 0xD3D JUMP JUMPDEST PUSH1 0x40 MLOAD DUP1 SWAP2 SUB SWAP1 REVERT JUMPDEST PUSH0 DUP1 PUSH0 DUP6 PUSH20 0xFFFFFFFFFFFFFFFFFFFFFFFFFFFFFFFFFFFFFFFF AND PUSH20 0xFFFFFFFFFFFFFFFFFFFFFFFFFFFFFFFFFFFFFFFF AND DUP2 MSTORE PUSH1 0x20 ADD SWAP1 DUP2 MSTORE PUSH1 0x20 ADD PUSH0 KECCAK256 SLOAD SUB PUSH2 0x628 JUMPI PUSH1 0x40 MLOAD PUSH32 0x571C8DE700000000000000000000000000000000000000000000000000000000 DUP2 MSTORE PUSH1 0x4 ADD PUSH2 0x61F SWAP1 PUSH2 0xDA5 JUMP JUMPDEST PUSH1 0x40 MLOAD DUP1 SWAP2 SUB SWAP1 REVERT JUMPDEST PUSH0 DUP1 DUP5 PUSH20 0xFFFFFFFFFFFFFFFFFFFFFFFFFFFFFFFFFFFFFFFF AND PUSH20 0xFFFFFFFFFFFFFFFFFFFFFFFFFFFFFFFFFFFFFFFF AND DUP2 MSTORE PUSH1 0x20 ADD SWAP1 DUP2 MSTORE PUSH1 0x20 ADD PUSH0 KECCAK256 SLOAD PUSH0 DUP1 DUP7 PUSH20 0xFFFFFFFFFFFFFFFFFFFFFFFFFFFFFFFFFFFFFFFF AND PUSH20 0xFFFFFFFFFFFFFFFFFFFFFFFFFFFFFFFFFFFFFFFF AND DUP2 MSTORE PUSH1 0x20 ADD SWAP1 DUP2 MSTORE PUSH1 0x20 ADD PUSH0 KECCAK256 SLOAD SUB PUSH2 0x6E2 JUMPI PUSH1 0x40 MLOAD PUSH32 0x571C8DE700000000000000000000000000000000000000000000000000000000 DUP2 MSTORE PUSH1 0x4 ADD PUSH2 0x6D9 SWAP1 PUSH2 0xE0D JUMP JUMPDEST PUSH1 0x40 MLOAD DUP1 SWAP2 SUB SWAP1 REVERT JUMPDEST PUSH0 DUP1 PUSH0 DUP7 PUSH20 0xFFFFFFFFFFFFFFFFFFFFFFFFFFFFFFFFFFFFFFFF AND PUSH20 0xFFFFFFFFFFFFFFFFFFFFFFFFFFFFFFFFFFFFFFFF AND DUP2 MSTORE PUSH1 0x20 ADD SWAP1 DUP2 MSTORE PUSH1 0x20 ADD PUSH0 KECCAK256 SLOAD EQ DUP1 ISZERO PUSH2 0x768 JUMPI POP PUSH0 DUP1 PUSH0 DUP6 PUSH20 0xFFFFFFFFFFFFFFFFFFFFFFFFFFFFFFFFFFFFFFFF AND PUSH20 0xFFFFFFFFFFFFFFFFFFFFFFFFFFFFFFFFFFFFFFFF AND DUP2 MSTORE PUSH1 0x20 ADD SWAP1 DUP2 MSTORE PUSH1 0x20 ADD PUSH0 KECCAK256 SLOAD EQ JUMPDEST ISZERO PUSH2 0x7A8 JUMPI PUSH1 0x40 MLOAD PUSH32 0x571C8DE700000000000000000000000000000000000000000000000000000000 DUP2 MSTORE PUSH1 0x4 ADD PUSH2 0x79F SWAP1 PUSH2 0xE9B JUMP JUMPDEST PUSH1 0x40 MLOAD DUP1 SWAP2 SUB SWAP1 REVERT JUMPDEST DUP2 PUSH0 DUP1 DUP7 PUSH20 0xFFFFFFFFFFFFFFFFFFFFFFFFFFFFFFFFFFFFFFFF AND PUSH20 0xFFFFFFFFFFFFFFFFFFFFFFFFFFFFFFFFFFFFFFFF AND DUP2 MSTORE PUSH1 0x20 ADD SWAP1 DUP2 MSTORE PUSH1 0x20 ADD PUSH0 KECCAK256 PUSH0 DUP3 DUP3 SLOAD PUSH2 0x7F3 SWAP2 SWAP1 PUSH2 0xB1F JUMP JUMPDEST SWAP3 POP POP DUP2 SWAP1 SSTORE POP DUP2 PUSH0 DUP1 DUP6 PUSH20 0xFFFFFFFFFFFFFFFFFFFFFFFFFFFFFFFFFFFFFFFF AND PUSH20 0xFFFFFFFFFFFFFFFFFFFFFFFFFFFFFFFFFFFFFFFF AND DUP2 MSTORE PUSH1 0x20 ADD SWAP1 DUP2 MSTORE PUSH1 0x20 ADD PUSH0 KECCAK256 PUSH0 DUP3 DUP3 SLOAD PUSH2 0x845 SWAP2 SWAP1 PUSH2 0xB52 JUMP JUMPDEST SWAP3 POP POP DUP2 SWAP1 SSTORE POP PUSH1 0x40 MLOAD DUP1 PUSH1 0x60 ADD PUSH1 0x40 MSTORE DUP1 PUSH1 0x29 DUP2 MSTORE PUSH1 0x20 ADD PUSH2 0xEBA PUSH1 0x29 SWAP2 CODECOPY SWAP1 POP SWAP4 SWAP3 POP POP POP JUMP JUMPDEST PUSH0 DUP1 REVERT JUMPDEST PUSH0 PUSH20 0xFFFFFFFFFFFFFFFFFFFFFFFFFFFFFFFFFFFFFFFF DUP3 AND SWAP1 POP SWAP2 SWAP1 POP JUMP JUMPDEST PUSH0 PUSH2 0x89B DUP3 PUSH2 0x872 JUMP JUMPDEST SWAP1 POP SWAP2 SWAP1 POP JUMP JUMPDEST PUSH2 0x8AB DUP2 PUSH2 0x891 JUMP JUMPDEST DUP2 EQ PUSH2 0x8B5 JUMPI PUSH0 DUP1 REVERT JUMPDEST POP JUMP JUMPDEST PUSH0 DUP2 CALLDATALOAD SWAP1 POP PUSH2 0x8C6 DUP2 PUSH2 0x8A2 JUMP JUMPDEST SWAP3 SWAP2 POP POP JUMP JUMPDEST PUSH0 DUP2 SWAP1 POP SWAP2 SWAP1 POP JUMP JUMPDEST PUSH2 0x8DE DUP2 PUSH2 0x8CC JUMP JUMPDEST DUP2 EQ PUSH2 0x8E8 JUMPI PUSH0 DUP1 REVERT JUMPDEST POP JUMP JUMPDEST PUSH0 DUP2 CALLDATALOAD SWAP1 POP PUSH2 0x8F9 DUP2 PUSH2 0x8D5 JUMP JUMPDEST SWAP3 SWAP2 POP POP JUMP JUMPDEST PUSH0 DUP1 PUSH0 PUSH1 0x60 DUP5 DUP7 SUB SLT ISZERO PUSH2 0x916 JUMPI PUSH2 0x915 PUSH2 0x86E JUMP JUMPDEST JUMPDEST PUSH0 PUSH2 0x923 DUP7 DUP3 DUP8 ADD PUSH2 0x8B8 JUMP JUMPDEST SWAP4 POP POP PUSH1 0x20 PUSH2 0x934 DUP7 DUP3 DUP8 ADD PUSH2 0x8B8 JUMP JUMPDEST SWAP3 POP POP PUSH1 0x40 PUSH2 0x945 DUP7 DUP3 DUP8 ADD PUSH2 0x8EB JUMP JUMPDEST SWAP2 POP POP SWAP3 POP SWAP3 POP SWAP3 JUMP JUMPDEST PUSH0 DUP1 PUSH1 0x40 DUP4 DUP6 SUB SLT ISZERO PUSH2 0x965 JUMPI PUSH2 0x964 PUSH2 0x86E JUMP JUMPDEST JUMPDEST PUSH0 PUSH2 0x972 DUP6 DUP3 DUP7 ADD PUSH2 0x8B8 JUMP JUMPDEST SWAP3 POP POP PUSH1 0x20 PUSH2 0x983 DUP6 DUP3 DUP7 ADD PUSH2 0x8EB JUMP JUMPDEST SWAP2 POP POP SWAP3 POP SWAP3 SWAP1 POP JUMP JUMPDEST PUSH2 0x996 DUP2 PUSH2 0x8CC JUMP JUMPDEST DUP3 MSTORE POP POP JUMP JUMPDEST PUSH0 PUSH1 0x20 DUP3 ADD SWAP1 POP PUSH2 0x9AF PUSH0 DUP4 ADD DUP5 PUSH2 0x98D JUMP JUMPDEST SWAP3 SWAP2 POP POP JUMP JUMPDEST PUSH0 DUP2 MLOAD SWAP1 POP SWAP2 SWAP1 POP JUMP JUMPDEST PUSH0 DUP3 DUP3 MSTORE PUSH1 0x20 DUP3 ADD SWAP1 POP SWAP3 SWAP2 POP POP JUMP JUMPDEST PUSH0 JUMPDEST DUP4 DUP2 LT ISZERO PUSH2 0x9EC JUMPI DUP1 DUP3 ADD MLOAD DUP2 DUP5 ADD MSTORE PUSH1 0x20 DUP2 ADD SWAP1 POP PUSH2 0x9D1 JUMP JUMPDEST PUSH0 DUP5 DUP5 ADD MSTORE POP POP POP POP JUMP JUMPDEST PUSH0 PUSH1 0x1F NOT PUSH1 0x1F DUP4 ADD AND SWAP1 POP SWAP2 SWAP1 POP JUMP JUMPDEST PUSH0 PUSH2 0xA11 DUP3 PUSH2 0x9B5 JUMP JUMPDEST PUSH2 0xA1B DUP2 DUP6 PUSH2 0x9BF JUMP JUMPDEST SWAP4 POP PUSH2 0xA2B DUP2 DUP6 PUSH1 0x20 DUP7 ADD PUSH2 0x9CF JUMP JUMPDEST PUSH2 0xA34 DUP2 PUSH2 0x9F7 JUMP JUMPDEST DUP5 ADD SWAP2 POP POP SWAP3 SWAP2 POP POP JUMP JUMPDEST PUSH0 PUSH1 0x20 DUP3 ADD SWAP1 POP DUP2 DUP2 SUB PUSH0 DUP4 ADD MSTORE PUSH2 0xA57 DUP2 DUP5 PUSH2 0xA07 JUMP JUMPDEST SWAP1 POP SWAP3 SWAP2 POP POP JUMP JUMPDEST PUSH0 PUSH1 0x20 DUP3 DUP5 SUB SLT ISZERO PUSH2 0xA74 JUMPI PUSH2 0xA73 PUSH2 0x86E JUMP JUMPDEST JUMPDEST PUSH0 PUSH2 0xA81 DUP5 DUP3 DUP6 ADD PUSH2 0x8B8 JUMP JUMPDEST SWAP2 POP POP SWAP3 SWAP2 POP POP JUMP JUMPDEST PUSH32 0x706C656173652072656769737465722066697273740000000000000000000000 PUSH0 DUP3 ADD MSTORE POP JUMP JUMPDEST PUSH0 PUSH2 0xABE PUSH1 0x15 DUP4 PUSH2 0x9BF JUMP JUMPDEST SWAP2 POP PUSH2 0xAC9 DUP3 PUSH2 0xA8A JUMP JUMPDEST PUSH1 0x20 DUP3 ADD SWAP1 POP SWAP2 SWAP1 POP JUMP JUMPDEST PUSH0 PUSH1 0x20 DUP3 ADD SWAP1 POP DUP2 DUP2 SUB PUSH0 DUP4 ADD MSTORE PUSH2 0xAEB DUP2 PUSH2 0xAB2 JUMP JUMPDEST SWAP1 POP SWAP2 SWAP1 POP JUMP JUMPDEST PUSH32 0x4E487B7100000000000000000000000000000000000000000000000000000000 PUSH0 MSTORE PUSH1 0x11 PUSH1 0x4 MSTORE PUSH1 0x24 PUSH0 REVERT JUMPDEST PUSH0 PUSH2 0xB29 DUP3 PUSH2 0x8CC JUMP JUMPDEST SWAP2 POP PUSH2 0xB34 DUP4 PUSH2 0x8CC JUMP JUMPDEST SWAP3 POP DUP3 DUP3 ADD SWAP1 POP DUP1 DUP3 GT ISZERO PUSH2 0xB4C JUMPI PUSH2 0xB4B PUSH2 0xAF2 JUMP JUMPDEST JUMPDEST SWAP3 SWAP2 POP POP JUMP JUMPDEST PUSH0 PUSH2 0xB5C DUP3 PUSH2 0x8CC JUMP JUMPDEST SWAP2 POP PUSH2 0xB67 DUP4 PUSH2 0x8CC JUMP JUMPDEST SWAP3 POP DUP3 DUP3 SUB SWAP1 POP DUP2 DUP2 GT ISZERO PUSH2 0xB7F JUMPI PUSH2 0xB7E PUSH2 0xAF2 JUMP JUMPDEST JUMPDEST SWAP3 SWAP2 POP POP JUMP JUMPDEST PUSH32 0x76616C75652063616E2774206265207A65726F00000000000000000000000000 PUSH0 DUP3 ADD MSTORE POP JUMP JUMPDEST PUSH0 PUSH2 0xBB9 PUSH1 0x13 DUP4 PUSH2 0x9BF JUMP JUMPDEST SWAP2 POP PUSH2 0xBC4 DUP3 PUSH2 0xB85 JUMP JUMPDEST PUSH1 0x20 DUP3 ADD SWAP1 POP SWAP2 SWAP1 POP JUMP JUMPDEST PUSH0 PUSH1 0x20 DUP3 ADD SWAP1 POP DUP2 DUP2 SUB PUSH0 DUP4 ADD MSTORE PUSH2 0xBE6 DUP2 PUSH2 0xBAD JUMP JUMPDEST SWAP1 POP SWAP2 SWAP1 POP JUMP JUMPDEST PUSH32 0x796F75722062616C616E6365206973207A65726F000000000000000000000000 PUSH0 DUP3 ADD MSTORE POP JUMP JUMPDEST PUSH0 PUSH2 0xC21 PUSH1 0x14 DUP4 PUSH2 0x9BF JUMP JUMPDEST SWAP2 POP PUSH2 0xC2C DUP3 PUSH2 0xBED JUMP JUMPDEST PUSH1 0x20 DUP3 ADD SWAP1 POP SWAP2 SWAP1 POP JUMP JUMPDEST PUSH0 PUSH1 0x20 DUP3 ADD SWAP1 POP DUP2 DUP2 SUB PUSH0 DUP4 ADD MSTORE PUSH2 0xC4E DUP2 PUSH2 0xC15 JUMP JUMPDEST SWAP1 POP SWAP2 SWAP1 POP JUMP JUMPDEST PUSH0 PUSH2 0xC5F DUP3 PUSH2 0x8CC JUMP JUMPDEST SWAP2 POP PUSH2 0xC6A DUP4 PUSH2 0x8CC JUMP JUMPDEST SWAP3 POP DUP3 DUP3 MUL PUSH2 0xC78 DUP2 PUSH2 0x8CC JUMP JUMPDEST SWAP2 POP DUP3 DUP3 DIV DUP5 EQ DUP4 ISZERO OR PUSH2 0xC8F JUMPI PUSH2 0xC8E PUSH2 0xAF2 JUMP JUMPDEST JUMPDEST POP SWAP3 SWAP2 POP POP JUMP JUMPDEST PUSH32 0x4E487B7100000000000000000000000000000000000000000000000000000000 PUSH0 MSTORE PUSH1 0x12 PUSH1 0x4 MSTORE PUSH1 0x24 PUSH0 REVERT JUMPDEST PUSH0 PUSH2 0xCCD DUP3 PUSH2 0x8CC JUMP JUMPDEST SWAP2 POP PUSH2 0xCD8 DUP4 PUSH2 0x8CC JUMP JUMPDEST SWAP3 POP DUP3 PUSH2 0xCE8 JUMPI PUSH2 0xCE7 PUSH2 0xC96 JUMP JUMPDEST JUMPDEST DUP3 DUP3 DIV SWAP1 POP SWAP3 SWAP2 POP POP JUMP JUMPDEST PUSH32 0x73656C6C6572206973206E6F7420726567697374657265640000000000000000 PUSH0 DUP3 ADD MSTORE POP JUMP JUMPDEST PUSH0 PUSH2 0xD27 PUSH1 0x18 DUP4 PUSH2 0x9BF JUMP JUMPDEST SWAP2 POP PUSH2 0xD32 DUP3 PUSH2 0xCF3 JUMP JUMPDEST PUSH1 0x20 DUP3 ADD SWAP1 POP SWAP2 SWAP1 POP JUMP JUMPDEST PUSH0 PUSH1 0x20 DUP3 ADD SWAP1 POP DUP2 DUP2 SUB PUSH0 DUP4 ADD MSTORE PUSH2 0xD54 DUP2 PUSH2 0xD1B JUMP JUMPDEST SWAP1 POP SWAP2 SWAP1 POP JUMP JUMPDEST PUSH32 0x6275796572206973206E6F742072656769737465726564000000000000000000 PUSH0 DUP3 ADD MSTORE POP JUMP JUMPDEST PUSH0 PUSH2 0xD8F PUSH1 0x17 DUP4 PUSH2 0x9BF JUMP JUMPDEST SWAP2 POP PUSH2 0xD9A DUP3 PUSH2 0xD5B JUMP JUMPDEST PUSH1 0x20 DUP3 ADD SWAP1 POP SWAP2 SWAP1 POP JUMP JUMPDEST PUSH0 PUSH1 0x20 DUP3 ADD SWAP1 POP DUP2 DUP2 SUB PUSH0 DUP4 ADD MSTORE PUSH2 0xDBC DUP2 PUSH2 0xD83 JUMP JUMPDEST SWAP1 POP SWAP2 SWAP1 POP JUMP JUMPDEST PUSH32 0x2073656C6C657220616E642062757965722063616E742062652073616D650000 PUSH0 DUP3 ADD MSTORE POP JUMP JUMPDEST PUSH0 PUSH2 0xDF7 PUSH1 0x1E DUP4 PUSH2 0x9BF JUMP JUMPDEST SWAP2 POP PUSH2 0xE02 DUP3 PUSH2 0xDC3 JUMP JUMPDEST PUSH1 0x20 DUP3 ADD SWAP1 POP SWAP2 SWAP1 POP JUMP JUMPDEST PUSH0 PUSH1 0x20 DUP3 ADD SWAP1 POP DUP2 DUP2 SUB PUSH0 DUP4 ADD MSTORE PUSH2 0xE24 DUP2 PUSH2 0xDEB JUMP JUMPDEST SWAP1 POP SWAP2 SWAP1 POP JUMP JUMPDEST PUSH32 0x73656C6C657220616E6420627579657220626F746820617265206E6F74207265 PUSH0 DUP3 ADD MSTORE PUSH32 0x6769737465726564000000000000000000000000000000000000000000000000 PUSH1 0x20 DUP3 ADD MSTORE POP JUMP JUMPDEST PUSH0 PUSH2 0xE85 PUSH1 0x28 DUP4 PUSH2 0x9BF JUMP JUMPDEST SWAP2 POP PUSH2 0xE90 DUP3 PUSH2 0xE2B JUMP JUMPDEST PUSH1 0x40 DUP3 ADD SWAP1 POP SWAP2 SWAP1 POP JUMP JUMPDEST PUSH0 PUSH1 0x20 DUP3 ADD SWAP1 POP DUP2 DUP2 SUB PUSH0 DUP4 ADD MSTORE PUSH2 0xEB2 DUP2 PUSH2 0xE79 JUMP JUMPDEST SWAP1 POP SWAP2 SWAP1 POP JUMP INVALID PUSH10 0x74656D2077696C6C2062 PUSH6 0x207368697070 PUSH6 0x6420746F2074 PUSH9 0x652062757965722061 PUSH5 0x6472657373 PUSH26 0x6F7572206974656D2077696C6C2062652073656E7420746F2061 PUSH5 0x6472657373 LOG2 PUSH5 0x6970667358 0x22 SLT KECCAK256 0x5C LT SMOD 0xBA SIGNEXTEND KECCAK256 0x2D PUSH16 0xDEEEE6FC27A3996384EF463D8B94D8EC DUP2 SSTORE DUP11 0xFC PUSH25 0x4954F064736F6C634300081400330000000000000000000000 "
				},
				"gasEstimates": {
					"creation": {
						"codeDepositCost": "779400",
						"executionCost": "infinite",
						"totalCost": "infinite"
					},
					"external": {
						"balance(address)": "2867",
						"buy(address,address,uint256)": "infinite",
						"feepercentage()": "2447",
						"register(address,uint256)": "22844",
						"sell(address,address,uint256)": "infinite"
					}
				},
				"methodIdentifiers": {
					"balance(address)": "e3d670d7",
					"buy(address,address,uint256)": "153e66e6",
					"feepercentage()": "c6e9ce84",
					"register(address,uint256)": "6d705ebb",
					"sell(address,address,uint256)": "cae270b6"
				}
			},
			"storageLayout": {
				"storage": [
					{
						"astId": 5,
						"contract": "marketplace.sol:PremiumSeller",
						"label": "balance",
						"offset": 0,
						"slot": "0",
						"type": "t_mapping(t_address,t_uint256)"
					},
					{
						"astId": 168,
						"contract": "marketplace.sol:PremiumSeller",
						"label": "feepercentage",
						"offset": 0,
						"slot": "1",
						"type": "t_uint256"
					}
				],
				"types": {
					"t_address": {
						"encoding": "inplace",
						"label": "address",
						"numberOfBytes": "20"
					},
					"t_mapping(t_address,t_uint256)": {
						"encoding": "mapping",
						"key": "t_address",
						"label": "mapping(address => uint256)",
						"numberOfBytes": "32",
						"value": "t_uint256"
					},
					"t_uint256": {
						"encoding": "inplace",
						"label": "uint256",
						"numberOfBytes": "32"
					}
				}
			},
			"userdoc": {
				"kind": "user",
				"methods": {},
				"version": 1
			}
		}
	}
}