{
	"marketplace.sol": {
		"PremiumSeller": {
			"abi": [
				{
					"inputs": [
						{
							"internalType": "uint256",
							"name": "_feepercentage",
							"type": "uint256"
						}
					],
					"stateMutability": "nonpayable",
					"type": "constructor"
				},
				{
					"inputs": [
						{
							"internalType": "string",
							"name": "reason",
							"type": "string"
						}
					],
					"name": "custom",
					"type": "error"
				},
				{
					"anonymous": false,
					"inputs": [
						{
							"indexed": true,
							"internalType": "address",
							"name": "buyer_address",
							"type": "address"
						},
						{
							"indexed": true,
							"internalType": "address",
							"name": "sender_address",
							"type": "address"
						},
						{
							"indexed": false,
							"internalType": "uint256",
							"name": "value",
							"type": "uint256"
						}
					],
					"name": "purchase",
					"type": "event"
				},
				{
					"inputs": [
						{
							"internalType": "address",
							"name": "sender",
							"type": "address"
						},
						{
							"internalType": "address",
							"name": "buyer",
							"type": "address"
						},
						{
							"internalType": "uint256",
							"name": "C_P",
							"type": "uint256"
						}
					],
					"name": "buy",
					"outputs": [],
					"stateMutability": "nonpayable",
					"type": "function"
				},
				{
					"inputs": [],
					"name": "feepercentage",
					"outputs": [
						{
							"internalType": "uint256",
							"name": "",
							"type": "uint256"
						}
					],
					"stateMutability": "view",
					"type": "function"
				},
				{
					"inputs": [
						{
							"internalType": "address",
							"name": "youraddress",
							"type": "address"
						},
						{
							"internalType": "uint256",
							"name": "initial_bal",
							"type": "uint256"
						}
					],
					"name": "register",
					"outputs": [],
					"stateMutability": "nonpayable",
					"type": "function"
				},
				{
					"inputs": [
						{
							"internalType": "address",
							"name": "sender",
							"type": "address"
						},
						{
							"internalType": "address",
							"name": "buyer",
							"type": "address"
						},
						{
							"internalType": "uint256",
							"name": "S_P",
							"type": "uint256"
						}
					],
					"name": "sell",
					"outputs": [
						{
							"internalType": "string",
							"name": "",
							"type": "string"
						}
					],
					"stateMutability": "nonpayable",
					"type": "function"
				}
			],
			"devdoc": {
				"kind": "dev",
				"methods": {},
				"version": 1
			},
			"evm": {
				"assembly": "    /* \"marketplace.sol\":1379:1916  contract PremiumSeller is marketplace{... */\n  mstore(0x40, 0x80)\n    /* \"marketplace.sol\":1455:1533  constructor(uint _feepercentage){... */\n  callvalue\n  dup1\n  iszero\n  tag_1\n  jumpi\n  0x00\n  dup1\n  revert\ntag_1:\n  pop\n  mload(0x40)\n  sub(codesize, bytecodeSize)\n  dup1\n  bytecodeSize\n  dup4\n  codecopy\n  dup2\n  dup2\n  add\n  0x40\n  mstore\n  dup2\n  add\n  swap1\n  tag_2\n  swap2\n  swap1\n  tag_3\n  jump\t// in\ntag_2:\n    /* \"marketplace.sol\":1511:1525  _feepercentage */\n  dup1\n    /* \"marketplace.sol\":1495:1508  feepercentage */\n  0x01\n    /* \"marketplace.sol\":1495:1525  feepercentage = _feepercentage */\n  dup2\n  swap1\n  sstore\n  pop\n    /* \"marketplace.sol\":1455:1533  constructor(uint _feepercentage){... */\n  pop\n    /* \"marketplace.sol\":1379:1916  contract PremiumSeller is marketplace{... */\n  jump(tag_6)\n    /* \"#utility.yul\":88:205   */\ntag_8:\n    /* \"#utility.yul\":197:198   */\n  0x00\n    /* \"#utility.yul\":194:195   */\n  dup1\n    /* \"#utility.yul\":187:199   */\n  revert\n    /* \"#utility.yul\":334:411   */\ntag_10:\n    /* \"#utility.yul\":371:378   */\n  0x00\n    /* \"#utility.yul\":400:405   */\n  dup2\n    /* \"#utility.yul\":389:405   */\n  swap1\n  pop\n    /* \"#utility.yul\":334:411   */\n  swap2\n  swap1\n  pop\n  jump\t// out\n    /* \"#utility.yul\":417:539   */\ntag_11:\n    /* \"#utility.yul\":490:514   */\n  tag_19\n    /* \"#utility.yul\":508:513   */\n  dup2\n    /* \"#utility.yul\":490:514   */\n  tag_10\n  jump\t// in\ntag_19:\n    /* \"#utility.yul\":483:488   */\n  dup2\n    /* \"#utility.yul\":480:515   */\n  eq\n    /* \"#utility.yul\":470:533   */\n  tag_20\n  jumpi\n    /* \"#utility.yul\":529:530   */\n  0x00\n    /* \"#utility.yul\":526:527   */\n  dup1\n    /* \"#utility.yul\":519:531   */\n  revert\n    /* \"#utility.yul\":470:533   */\ntag_20:\n    /* \"#utility.yul\":417:539   */\n  pop\n  jump\t// out\n    /* \"#utility.yul\":545:688   */\ntag_12:\n    /* \"#utility.yul\":602:607   */\n  0x00\n    /* \"#utility.yul\":633:639   */\n  dup2\n    /* \"#utility.yul\":627:640   */\n  mload\n    /* \"#utility.yul\":618:640   */\n  swap1\n  pop\n    /* \"#utility.yul\":649:682   */\n  tag_22\n    /* \"#utility.yul\":676:681   */\n  dup2\n    /* \"#utility.yul\":649:682   */\n  tag_11\n  jump\t// in\ntag_22:\n    /* \"#utility.yul\":545:688   */\n  swap3\n  swap2\n  pop\n  pop\n  jump\t// out\n    /* \"#utility.yul\":694:1045   */\ntag_3:\n    /* \"#utility.yul\":764:770   */\n  0x00\n    /* \"#utility.yul\":813:815   */\n  0x20\n    /* \"#utility.yul\":801:810   */\n  dup3\n    /* \"#utility.yul\":792:799   */\n  dup5\n    /* \"#utility.yul\":788:811   */\n  sub\n    /* \"#utility.yul\":784:816   */\n  slt\n    /* \"#utility.yul\":781:900   */\n  iszero\n  tag_24\n  jumpi\n    /* \"#utility.yul\":819:898   */\n  tag_25\n  tag_8\n  jump\t// in\ntag_25:\n    /* \"#utility.yul\":781:900   */\ntag_24:\n    /* \"#utility.yul\":939:940   */\n  0x00\n    /* \"#utility.yul\":964:1028   */\n  tag_26\n    /* \"#utility.yul\":1020:1027   */\n  dup5\n    /* \"#utility.yul\":1011:1017   */\n  dup3\n    /* \"#utility.yul\":1000:1009   */\n  dup6\n    /* \"#utility.yul\":996:1018   */\n  add\n    /* \"#utility.yul\":964:1028   */\n  tag_12\n  jump\t// in\ntag_26:\n    /* \"#utility.yul\":954:1028   */\n  swap2\n  pop\n    /* \"#utility.yul\":910:1038   */\n  pop\n    /* \"#utility.yul\":694:1045   */\n  swap3\n  swap2\n  pop\n  pop\n  jump\t// out\n    /* \"marketplace.sol\":1379:1916  contract PremiumSeller is marketplace{... */\ntag_6:\n  dataSize(sub_0)\n  dup1\n  dataOffset(sub_0)\n  0x00\n  codecopy\n  0x00\n  return\nstop\n\nsub_0: assembly {\n        /* \"marketplace.sol\":1379:1916  contract PremiumSeller is marketplace{... */\n      mstore(0x40, 0x80)\n      callvalue\n      dup1\n      iszero\n      tag_1\n      jumpi\n      0x00\n      dup1\n      revert\n    tag_1:\n      pop\n      jumpi(tag_2, lt(calldatasize, 0x04))\n      shr(0xe0, calldataload(0x00))\n      dup1\n      0x153e66e6\n      eq\n      tag_3\n      jumpi\n      dup1\n      0x6d705ebb\n      eq\n      tag_4\n      jumpi\n      dup1\n      0xc6e9ce84\n      eq\n      tag_5\n      jumpi\n      dup1\n      0xcae270b6\n      eq\n      tag_6\n      jumpi\n    tag_2:\n      0x00\n      dup1\n      revert\n        /* \"marketplace.sol\":405:699  function buy(address sender, address buyer, uint C_P) public virtual { ... */\n    tag_3:\n      tag_7\n      0x04\n      dup1\n      calldatasize\n      sub\n      dup2\n      add\n      swap1\n      tag_8\n      swap2\n      swap1\n      tag_9\n      jump\t// in\n    tag_8:\n      tag_10\n      jump\t// in\n    tag_7:\n      stop\n        /* \"marketplace.sol\":222:399  function register(address youraddress, uint initial_bal) public {... */\n    tag_4:\n      tag_11\n      0x04\n      dup1\n      calldatasize\n      sub\n      dup2\n      add\n      swap1\n      tag_12\n      swap2\n      swap1\n      tag_13\n      jump\t// in\n    tag_12:\n      tag_14\n      jump\t// in\n    tag_11:\n      stop\n        /* \"marketplace.sol\":1423:1448  uint public feepercentage */\n    tag_5:\n      tag_15\n      tag_16\n      jump\t// in\n    tag_15:\n      mload(0x40)\n      tag_17\n      swap2\n      swap1\n      tag_18\n      jump\t// in\n    tag_17:\n      mload(0x40)\n      dup1\n      swap2\n      sub\n      swap1\n      return\n        /* \"marketplace.sol\":1539:1911  function sell(address sender, address buyer, uint S_P) public virtual override returns(string memory) {... */\n    tag_6:\n      tag_19\n      0x04\n      dup1\n      calldatasize\n      sub\n      dup2\n      add\n      swap1\n      tag_20\n      swap2\n      swap1\n      tag_9\n      jump\t// in\n    tag_20:\n      tag_21\n      jump\t// in\n    tag_19:\n      mload(0x40)\n      tag_22\n      swap2\n      swap1\n      tag_23\n      jump\t// in\n    tag_22:\n      mload(0x40)\n      dup1\n      swap2\n      sub\n      swap1\n      return\n        /* \"marketplace.sol\":405:699  function buy(address sender, address buyer, uint C_P) public virtual { ... */\n    tag_10:\n        /* \"marketplace.sol\":509:510  0 */\n      0x00\n        /* \"marketplace.sol\":490:497  balance */\n      dup1\n        /* \"marketplace.sol\":490:505  balance[sender] */\n      0x00\n        /* \"marketplace.sol\":498:504  sender */\n      dup6\n        /* \"marketplace.sol\":490:505  balance[sender] */\n      0xffffffffffffffffffffffffffffffffffffffff\n      and\n      0xffffffffffffffffffffffffffffffffffffffff\n      and\n      dup2\n      mstore\n      0x20\n      add\n      swap1\n      dup2\n      mstore\n      0x20\n      add\n      0x00\n      keccak256\n      sload\n        /* \"marketplace.sol\":490:510  balance[sender] != 0 */\n      sub\n        /* \"marketplace.sol\":482:536  require(balance[sender] != 0, \"please register first\") */\n      tag_25\n      jumpi\n      mload(0x40)\n      0x08c379a000000000000000000000000000000000000000000000000000000000\n      dup2\n      mstore\n      0x04\n      add\n      tag_26\n      swap1\n      tag_27\n      jump\t// in\n    tag_26:\n      mload(0x40)\n      dup1\n      swap2\n      sub\n      swap1\n      revert\n    tag_25:\n        /* \"marketplace.sol\":568:569  0 */\n      0x00\n        /* \"marketplace.sol\":551:558  balance */\n      dup1\n        /* \"marketplace.sol\":551:565  balance[buyer] */\n      0x00\n        /* \"marketplace.sol\":559:564  buyer */\n      dup5\n        /* \"marketplace.sol\":551:565  balance[buyer] */\n      0xffffffffffffffffffffffffffffffffffffffff\n      and\n      0xffffffffffffffffffffffffffffffffffffffff\n      and\n      dup2\n      mstore\n      0x20\n      add\n      swap1\n      dup2\n      mstore\n      0x20\n      add\n      0x00\n      keccak256\n      sload\n        /* \"marketplace.sol\":551:569  balance[buyer] !=0 */\n      sub\n        /* \"marketplace.sol\":543:595  require(balance[buyer] !=0, \"please register first\") */\n      tag_28\n      jumpi\n      mload(0x40)\n      0x08c379a000000000000000000000000000000000000000000000000000000000\n      dup2\n      mstore\n      0x04\n      add\n      tag_29\n      swap1\n      tag_27\n      jump\t// in\n    tag_29:\n      mload(0x40)\n      dup1\n      swap2\n      sub\n      swap1\n      revert\n    tag_28:\n        /* \"marketplace.sol\":621:624  C_P */\n      dup1\n        /* \"marketplace.sol\":602:609  balance */\n      0x00\n        /* \"marketplace.sol\":602:617  balance[sender] */\n      dup1\n        /* \"marketplace.sol\":610:616  sender */\n      dup6\n        /* \"marketplace.sol\":602:617  balance[sender] */\n      0xffffffffffffffffffffffffffffffffffffffff\n      and\n      0xffffffffffffffffffffffffffffffffffffffff\n      and\n      dup2\n      mstore\n      0x20\n      add\n      swap1\n      dup2\n      mstore\n      0x20\n      add\n      0x00\n      keccak256\n      0x00\n        /* \"marketplace.sol\":602:624  balance[sender] += C_P */\n      dup3\n      dup3\n      sload\n      tag_30\n      swap2\n      swap1\n      tag_31\n      jump\t// in\n    tag_30:\n      swap3\n      pop\n      pop\n      dup2\n      swap1\n      sstore\n      pop\n        /* \"marketplace.sol\":649:652  C_P */\n      dup1\n        /* \"marketplace.sol\":631:638  balance */\n      0x00\n        /* \"marketplace.sol\":631:645  balance[buyer] */\n      dup1\n        /* \"marketplace.sol\":639:644  buyer */\n      dup5\n        /* \"marketplace.sol\":631:645  balance[buyer] */\n      0xffffffffffffffffffffffffffffffffffffffff\n      and\n      0xffffffffffffffffffffffffffffffffffffffff\n      and\n      dup2\n      mstore\n      0x20\n      add\n      swap1\n      dup2\n      mstore\n      0x20\n      add\n      0x00\n      keccak256\n      0x00\n        /* \"marketplace.sol\":631:652  balance[buyer] -= C_P */\n      dup3\n      dup3\n      sload\n      tag_32\n      swap2\n      swap1\n      tag_33\n      jump\t// in\n    tag_32:\n      swap3\n      pop\n      pop\n      dup2\n      swap1\n      sstore\n      pop\n        /* \"marketplace.sol\":682:688  sender */\n      dup3\n        /* \"marketplace.sol\":666:695  purchase(buyer, sender, C_P ) */\n      0xffffffffffffffffffffffffffffffffffffffff\n      and\n        /* \"marketplace.sol\":675:680  buyer */\n      dup3\n        /* \"marketplace.sol\":666:695  purchase(buyer, sender, C_P ) */\n      0xffffffffffffffffffffffffffffffffffffffff\n      and\n      0x640441567a63f93bb708d33df4fb558ccf2ec59f306cc74b9bed436c9354d203\n        /* \"marketplace.sol\":690:693  C_P */\n      dup4\n        /* \"marketplace.sol\":666:695  purchase(buyer, sender, C_P ) */\n      mload(0x40)\n      tag_34\n      swap2\n      swap1\n      tag_18\n      jump\t// in\n    tag_34:\n      mload(0x40)\n      dup1\n      swap2\n      sub\n      swap1\n      log3\n        /* \"marketplace.sol\":405:699  function buy(address sender, address buyer, uint C_P) public virtual { ... */\n      pop\n      pop\n      pop\n      jump\t// out\n        /* \"marketplace.sol\":222:399  function register(address youraddress, uint initial_bal) public {... */\n    tag_14:\n        /* \"marketplace.sol\":320:321  0 */\n      0x00\n        /* \"marketplace.sol\":306:317  initial_bal */\n      dup2\n        /* \"marketplace.sol\":306:321  initial_bal!= 0 */\n      sub\n        /* \"marketplace.sol\":297:345  require( initial_bal!= 0, \"value can't be zero\") */\n      tag_36\n      jumpi\n      mload(0x40)\n      0x08c379a000000000000000000000000000000000000000000000000000000000\n      dup2\n      mstore\n      0x04\n      add\n      tag_37\n      swap1\n      tag_38\n      jump\t// in\n    tag_37:\n      mload(0x40)\n      dup1\n      swap2\n      sub\n      swap1\n      revert\n    tag_36:\n        /* \"marketplace.sol\":379:390  initial_bal */\n      dup1\n        /* \"marketplace.sol\":356:363  balance */\n      0x00\n        /* \"marketplace.sol\":356:376  balance[youraddress] */\n      dup1\n        /* \"marketplace.sol\":364:375  youraddress */\n      dup5\n        /* \"marketplace.sol\":356:376  balance[youraddress] */\n      0xffffffffffffffffffffffffffffffffffffffff\n      and\n      0xffffffffffffffffffffffffffffffffffffffff\n      and\n      dup2\n      mstore\n      0x20\n      add\n      swap1\n      dup2\n      mstore\n      0x20\n      add\n      0x00\n      keccak256\n        /* \"marketplace.sol\":356:390  balance[youraddress] = initial_bal */\n      dup2\n      swap1\n      sstore\n      pop\n        /* \"marketplace.sol\":222:399  function register(address youraddress, uint initial_bal) public {... */\n      pop\n      pop\n      jump\t// out\n        /* \"marketplace.sol\":1423:1448  uint public feepercentage */\n    tag_16:\n      sload(0x01)\n      dup2\n      jump\t// out\n        /* \"marketplace.sol\":1539:1911  function sell(address sender, address buyer, uint S_P) public virtual override returns(string memory) {... */\n    tag_21:\n        /* \"marketplace.sol\":1626:1639  string memory */\n      0x60\n        /* \"marketplace.sol\":1648:1676  super.sell(sender,buyer,S_P) */\n      tag_40\n        /* \"marketplace.sol\":1659:1665  sender */\n      dup5\n        /* \"marketplace.sol\":1666:1671  buyer */\n      dup5\n        /* \"marketplace.sol\":1672:1675  S_P */\n      dup5\n        /* \"marketplace.sol\":1648:1658  super.sell */\n      tag_41\n        /* \"marketplace.sol\":1648:1676  super.sell(sender,buyer,S_P) */\n      jump\t// in\n    tag_40:\n      pop\n        /* \"marketplace.sol\":1710:1711  0 */\n      0x00\n        /* \"marketplace.sol\":1691:1698  balance */\n      dup1\n        /* \"marketplace.sol\":1691:1706  balance[sender] */\n      0x00\n        /* \"marketplace.sol\":1699:1705  sender */\n      dup7\n        /* \"marketplace.sol\":1691:1706  balance[sender] */\n      0xffffffffffffffffffffffffffffffffffffffff\n      and\n      0xffffffffffffffffffffffffffffffffffffffff\n      and\n      dup2\n      mstore\n      0x20\n      add\n      swap1\n      dup2\n      mstore\n      0x20\n      add\n      0x00\n      keccak256\n      sload\n        /* \"marketplace.sol\":1691:1711  balance[sender] == 0 */\n      eq\n        /* \"marketplace.sol\":1683:1736  require(balance[sender] == 0, \"your balance is zero\") */\n      tag_42\n      jumpi\n      mload(0x40)\n      0x08c379a000000000000000000000000000000000000000000000000000000000\n      dup2\n      mstore\n      0x04\n      add\n      tag_43\n      swap1\n      tag_44\n      jump\t// in\n    tag_43:\n      mload(0x40)\n      dup1\n      swap2\n      sub\n      swap1\n      revert\n    tag_42:\n        /* \"marketplace.sol\":1743:1751  uint fee */\n      0x00\n        /* \"marketplace.sol\":1776:1779  100 */\n      0x64\n        /* \"marketplace.sol\":1760:1773  feepercentage */\n      sload(0x01)\n        /* \"marketplace.sol\":1754:1757  S_P */\n      dup5\n        /* \"marketplace.sol\":1754:1773  S_P * feepercentage */\n      tag_45\n      swap2\n      swap1\n      tag_46\n      jump\t// in\n    tag_45:\n        /* \"marketplace.sol\":1754:1779  S_P * feepercentage / 100 */\n      tag_47\n      swap2\n      swap1\n      tag_48\n      jump\t// in\n    tag_47:\n        /* \"marketplace.sol\":1743:1779  uint fee = S_P * feepercentage / 100 */\n      swap1\n      pop\n        /* \"marketplace.sol\":1805:1808  fee */\n      dup1\n        /* \"marketplace.sol\":1786:1793  balance */\n      0x00\n        /* \"marketplace.sol\":1786:1801  balance[sender] */\n      dup1\n        /* \"marketplace.sol\":1794:1800  sender */\n      dup8\n        /* \"marketplace.sol\":1786:1801  balance[sender] */\n      0xffffffffffffffffffffffffffffffffffffffff\n      and\n      0xffffffffffffffffffffffffffffffffffffffff\n      and\n      dup2\n      mstore\n      0x20\n      add\n      swap1\n      dup2\n      mstore\n      0x20\n      add\n      0x00\n      keccak256\n      0x00\n        /* \"marketplace.sol\":1786:1808  balance[sender] -= fee */\n      dup3\n      dup3\n      sload\n      tag_49\n      swap2\n      swap1\n      tag_33\n      jump\t// in\n    tag_49:\n      swap3\n      pop\n      pop\n      dup2\n      swap1\n      sstore\n      pop\n        /* \"marketplace.sol\":1841:1844  fee */\n      dup1\n        /* \"marketplace.sol\":1815:1822  balance */\n      0x00\n        /* \"marketplace.sol\":1815:1837  balance[address(this)] */\n      dup1\n        /* \"marketplace.sol\":1831:1835  this */\n      address\n        /* \"marketplace.sol\":1815:1837  balance[address(this)] */\n      0xffffffffffffffffffffffffffffffffffffffff\n      and\n      0xffffffffffffffffffffffffffffffffffffffff\n      and\n      dup2\n      mstore\n      0x20\n      add\n      swap1\n      dup2\n      mstore\n      0x20\n      add\n      0x00\n      keccak256\n      0x00\n        /* \"marketplace.sol\":1815:1844  balance[address(this)] += fee */\n      dup3\n      dup3\n      sload\n      tag_50\n      swap2\n      swap1\n      tag_31\n      jump\t// in\n    tag_50:\n      swap3\n      pop\n      pop\n      dup2\n      swap1\n      sstore\n      pop\n        /* \"marketplace.sol\":1859:1903  return (\"item will be sent to your address\") */\n      mload(0x40)\n      dup1\n      0x60\n      add\n      0x40\n      mstore\n      dup1\n      0x21\n      dup2\n      mstore\n      0x20\n      add\n      data_0fd4266bc5b90451882381a055d703dd235b37869ceff2c5342f58fe73b106d5\n      0x21\n      swap2\n      codecopy\n      swap2\n      pop\n      pop\n        /* \"marketplace.sol\":1539:1911  function sell(address sender, address buyer, uint S_P) public virtual override returns(string memory) {... */\n      swap4\n      swap3\n      pop\n      pop\n      pop\n      jump\t// out\n        /* \"marketplace.sol\":743:1374  function sell(address sender, address buyer, uint S_P) public virtual  returns(string memory){... */\n    tag_41:\n        /* \"marketplace.sol\":822:835  string memory */\n      0x60\n        /* \"marketplace.sol\":858:859  0 */\n      0x00\n        /* \"marketplace.sol\":851:854  S_P */\n      dup3\n        /* \"marketplace.sol\":851:859  S_P != 0 */\n      sub\n        /* \"marketplace.sol\":843:860  require(S_P != 0) */\n      tag_52\n      jumpi\n      0x00\n      dup1\n      revert\n    tag_52:\n        /* \"marketplace.sol\":890:891  0 */\n      0x00\n        /* \"marketplace.sol\":871:878  balance */\n      dup1\n        /* \"marketplace.sol\":871:886  balance[sender] */\n      0x00\n        /* \"marketplace.sol\":879:885  sender */\n      dup7\n        /* \"marketplace.sol\":871:886  balance[sender] */\n      0xffffffffffffffffffffffffffffffffffffffff\n      and\n      0xffffffffffffffffffffffffffffffffffffffff\n      and\n      dup2\n      mstore\n      0x20\n      add\n      swap1\n      dup2\n      mstore\n      0x20\n      add\n      0x00\n      keccak256\n      sload\n        /* \"marketplace.sol\":871:891  balance[sender] == 0 */\n      sub\n        /* \"marketplace.sol\":867:1306  if (balance[sender] == 0){... */\n      tag_53\n      jumpi\n        /* \"marketplace.sol\":910:945  custom( \"seller is not registered\") */\n      mload(0x40)\n      0x571c8de700000000000000000000000000000000000000000000000000000000\n      dup2\n      mstore\n      0x04\n      add\n      tag_54\n      swap1\n      tag_55\n      jump\t// in\n    tag_54:\n      mload(0x40)\n      dup1\n      swap2\n      sub\n      swap1\n      revert\n        /* \"marketplace.sol\":867:1306  if (balance[sender] == 0){... */\n    tag_53:\n        /* \"marketplace.sol\":986:987  0 */\n      0x00\n        /* \"marketplace.sol\":968:975  balance */\n      dup1\n        /* \"marketplace.sol\":968:982  balance[buyer] */\n      0x00\n        /* \"marketplace.sol\":976:981  buyer */\n      dup6\n        /* \"marketplace.sol\":968:982  balance[buyer] */\n      0xffffffffffffffffffffffffffffffffffffffff\n      and\n      0xffffffffffffffffffffffffffffffffffffffff\n      and\n      dup2\n      mstore\n      0x20\n      add\n      swap1\n      dup2\n      mstore\n      0x20\n      add\n      0x00\n      keccak256\n      sload\n        /* \"marketplace.sol\":968:987  balance[buyer] == 0 */\n      sub\n        /* \"marketplace.sol\":964:1306  if (balance[buyer] == 0){... */\n      tag_57\n      jumpi\n        /* \"marketplace.sol\":1006:1040  custom (\"buyer is not registered\") */\n      mload(0x40)\n      0x571c8de700000000000000000000000000000000000000000000000000000000\n      dup2\n      mstore\n      0x04\n      add\n      tag_58\n      swap1\n      tag_59\n      jump\t// in\n    tag_58:\n      mload(0x40)\n      dup1\n      swap2\n      sub\n      swap1\n      revert\n        /* \"marketplace.sol\":964:1306  if (balance[buyer] == 0){... */\n    tag_57:\n        /* \"marketplace.sol\":1081:1088  balance */\n      0x00\n        /* \"marketplace.sol\":1081:1095  balance[buyer] */\n      dup1\n        /* \"marketplace.sol\":1089:1094  buyer */\n      dup5\n        /* \"marketplace.sol\":1081:1095  balance[buyer] */\n      0xffffffffffffffffffffffffffffffffffffffff\n      and\n      0xffffffffffffffffffffffffffffffffffffffff\n      and\n      dup2\n      mstore\n      0x20\n      add\n      swap1\n      dup2\n      mstore\n      0x20\n      add\n      0x00\n      keccak256\n      sload\n        /* \"marketplace.sol\":1062:1069  balance */\n      0x00\n        /* \"marketplace.sol\":1062:1077  balance[sender] */\n      dup1\n        /* \"marketplace.sol\":1070:1076  sender */\n      dup7\n        /* \"marketplace.sol\":1062:1077  balance[sender] */\n      0xffffffffffffffffffffffffffffffffffffffff\n      and\n      0xffffffffffffffffffffffffffffffffffffffff\n      and\n      dup2\n      mstore\n      0x20\n      add\n      swap1\n      dup2\n      mstore\n      0x20\n      add\n      0x00\n      keccak256\n      sload\n        /* \"marketplace.sol\":1062:1095  balance[sender] == balance[buyer] */\n      sub\n        /* \"marketplace.sol\":1059:1306  if(balance[sender] == balance[buyer]){... */\n      tag_61\n      jumpi\n        /* \"marketplace.sol\":1114:1160  custom (\"seller and buyer cant be one person\") */\n      mload(0x40)\n      0x571c8de700000000000000000000000000000000000000000000000000000000\n      dup2\n      mstore\n      0x04\n      add\n      tag_62\n      swap1\n      tag_63\n      jump\t// in\n    tag_62:\n      mload(0x40)\n      dup1\n      swap2\n      sub\n      swap1\n      revert\n        /* \"marketplace.sol\":1059:1306  if(balance[sender] == balance[buyer]){... */\n    tag_61:\n        /* \"marketplace.sol\":1202:1203  0 */\n      0x00\n        /* \"marketplace.sol\":1183:1190  balance */\n      dup1\n        /* \"marketplace.sol\":1183:1198  balance[sender] */\n      0x00\n        /* \"marketplace.sol\":1191:1197  sender */\n      dup7\n        /* \"marketplace.sol\":1183:1198  balance[sender] */\n      0xffffffffffffffffffffffffffffffffffffffff\n      and\n      0xffffffffffffffffffffffffffffffffffffffff\n      and\n      dup2\n      mstore\n      0x20\n      add\n      swap1\n      dup2\n      mstore\n      0x20\n      add\n      0x00\n      keccak256\n      sload\n        /* \"marketplace.sol\":1183:1203  balance[sender] == 0 */\n      eq\n        /* \"marketplace.sol\":1183:1226  balance[sender] == 0 && balance[buyer] == 0 */\n      dup1\n      iszero\n      tag_65\n      jumpi\n      pop\n        /* \"marketplace.sol\":1225:1226  0 */\n      0x00\n        /* \"marketplace.sol\":1207:1214  balance */\n      dup1\n        /* \"marketplace.sol\":1207:1221  balance[buyer] */\n      0x00\n        /* \"marketplace.sol\":1215:1220  buyer */\n      dup6\n        /* \"marketplace.sol\":1207:1221  balance[buyer] */\n      0xffffffffffffffffffffffffffffffffffffffff\n      and\n      0xffffffffffffffffffffffffffffffffffffffff\n      and\n      dup2\n      mstore\n      0x20\n      add\n      swap1\n      dup2\n      mstore\n      0x20\n      add\n      0x00\n      keccak256\n      sload\n        /* \"marketplace.sol\":1207:1226  balance[buyer] == 0 */\n      eq\n        /* \"marketplace.sol\":1183:1226  balance[sender] == 0 && balance[buyer] == 0 */\n    tag_65:\n        /* \"marketplace.sol\":1179:1306  if (balance[sender] == 0 && balance[buyer] == 0){... */\n      iszero\n      tag_66\n      jumpi\n        /* \"marketplace.sol\":1245:1296  custom (\"seller and buyer both are not registered\") */\n      mload(0x40)\n      0x571c8de700000000000000000000000000000000000000000000000000000000\n      dup2\n      mstore\n      0x04\n      add\n      tag_67\n      swap1\n      tag_68\n      jump\t// in\n    tag_67:\n      mload(0x40)\n      dup1\n      swap2\n      sub\n      swap1\n      revert\n        /* \"marketplace.sol\":1179:1306  if (balance[sender] == 0 && balance[buyer] == 0){... */\n    tag_66:\n        /* \"marketplace.sol\":1312:1364  return (\"item will be shipped to the buyer address\") */\n      mload(0x40)\n      dup1\n      0x60\n      add\n      0x40\n      mstore\n      dup1\n      0x29\n      dup2\n      mstore\n      0x20\n      add\n      data_17aa23838344d69e7c95fa6cd1cad8785ff6bfbc7529891f112320c03b7ec720\n      0x29\n      swap2\n      codecopy\n      swap1\n      pop\n        /* \"marketplace.sol\":743:1374  function sell(address sender, address buyer, uint S_P) public virtual  returns(string memory){... */\n      swap4\n      swap3\n      pop\n      pop\n      pop\n      jump\t// out\n        /* \"#utility.yul\":88:205   */\n    tag_70:\n        /* \"#utility.yul\":197:198   */\n      0x00\n        /* \"#utility.yul\":194:195   */\n      dup1\n        /* \"#utility.yul\":187:199   */\n      revert\n        /* \"#utility.yul\":334:460   */\n    tag_72:\n        /* \"#utility.yul\":371:378   */\n      0x00\n        /* \"#utility.yul\":411:453   */\n      0xffffffffffffffffffffffffffffffffffffffff\n        /* \"#utility.yul\":404:409   */\n      dup3\n        /* \"#utility.yul\":400:454   */\n      and\n        /* \"#utility.yul\":389:454   */\n      swap1\n      pop\n        /* \"#utility.yul\":334:460   */\n      swap2\n      swap1\n      pop\n      jump\t// out\n        /* \"#utility.yul\":466:562   */\n    tag_73:\n        /* \"#utility.yul\":503:510   */\n      0x00\n        /* \"#utility.yul\":532:556   */\n      tag_107\n        /* \"#utility.yul\":550:555   */\n      dup3\n        /* \"#utility.yul\":532:556   */\n      tag_72\n      jump\t// in\n    tag_107:\n        /* \"#utility.yul\":521:556   */\n      swap1\n      pop\n        /* \"#utility.yul\":466:562   */\n      swap2\n      swap1\n      pop\n      jump\t// out\n        /* \"#utility.yul\":568:690   */\n    tag_74:\n        /* \"#utility.yul\":641:665   */\n      tag_109\n        /* \"#utility.yul\":659:664   */\n      dup2\n        /* \"#utility.yul\":641:665   */\n      tag_73\n      jump\t// in\n    tag_109:\n        /* \"#utility.yul\":634:639   */\n      dup2\n        /* \"#utility.yul\":631:666   */\n      eq\n        /* \"#utility.yul\":621:684   */\n      tag_110\n      jumpi\n        /* \"#utility.yul\":680:681   */\n      0x00\n        /* \"#utility.yul\":677:678   */\n      dup1\n        /* \"#utility.yul\":670:682   */\n      revert\n        /* \"#utility.yul\":621:684   */\n    tag_110:\n        /* \"#utility.yul\":568:690   */\n      pop\n      jump\t// out\n        /* \"#utility.yul\":696:835   */\n    tag_75:\n        /* \"#utility.yul\":742:747   */\n      0x00\n        /* \"#utility.yul\":780:786   */\n      dup2\n        /* \"#utility.yul\":767:787   */\n      calldataload\n        /* \"#utility.yul\":758:787   */\n      swap1\n      pop\n        /* \"#utility.yul\":796:829   */\n      tag_112\n        /* \"#utility.yul\":823:828   */\n      dup2\n        /* \"#utility.yul\":796:829   */\n      tag_74\n      jump\t// in\n    tag_112:\n        /* \"#utility.yul\":696:835   */\n      swap3\n      swap2\n      pop\n      pop\n      jump\t// out\n        /* \"#utility.yul\":841:918   */\n    tag_76:\n        /* \"#utility.yul\":878:885   */\n      0x00\n        /* \"#utility.yul\":907:912   */\n      dup2\n        /* \"#utility.yul\":896:912   */\n      swap1\n      pop\n        /* \"#utility.yul\":841:918   */\n      swap2\n      swap1\n      pop\n      jump\t// out\n        /* \"#utility.yul\":924:1046   */\n    tag_77:\n        /* \"#utility.yul\":997:1021   */\n      tag_115\n        /* \"#utility.yul\":1015:1020   */\n      dup2\n        /* \"#utility.yul\":997:1021   */\n      tag_76\n      jump\t// in\n    tag_115:\n        /* \"#utility.yul\":990:995   */\n      dup2\n        /* \"#utility.yul\":987:1022   */\n      eq\n        /* \"#utility.yul\":977:1040   */\n      tag_116\n      jumpi\n        /* \"#utility.yul\":1036:1037   */\n      0x00\n        /* \"#utility.yul\":1033:1034   */\n      dup1\n        /* \"#utility.yul\":1026:1038   */\n      revert\n        /* \"#utility.yul\":977:1040   */\n    tag_116:\n        /* \"#utility.yul\":924:1046   */\n      pop\n      jump\t// out\n        /* \"#utility.yul\":1052:1191   */\n    tag_78:\n        /* \"#utility.yul\":1098:1103   */\n      0x00\n        /* \"#utility.yul\":1136:1142   */\n      dup2\n        /* \"#utility.yul\":1123:1143   */\n      calldataload\n        /* \"#utility.yul\":1114:1143   */\n      swap1\n      pop\n        /* \"#utility.yul\":1152:1185   */\n      tag_118\n        /* \"#utility.yul\":1179:1184   */\n      dup2\n        /* \"#utility.yul\":1152:1185   */\n      tag_77\n      jump\t// in\n    tag_118:\n        /* \"#utility.yul\":1052:1191   */\n      swap3\n      swap2\n      pop\n      pop\n      jump\t// out\n        /* \"#utility.yul\":1197:1816   */\n    tag_9:\n        /* \"#utility.yul\":1274:1280   */\n      0x00\n        /* \"#utility.yul\":1282:1288   */\n      dup1\n        /* \"#utility.yul\":1290:1296   */\n      0x00\n        /* \"#utility.yul\":1339:1341   */\n      0x60\n        /* \"#utility.yul\":1327:1336   */\n      dup5\n        /* \"#utility.yul\":1318:1325   */\n      dup7\n        /* \"#utility.yul\":1314:1337   */\n      sub\n        /* \"#utility.yul\":1310:1342   */\n      slt\n        /* \"#utility.yul\":1307:1426   */\n      iszero\n      tag_120\n      jumpi\n        /* \"#utility.yul\":1345:1424   */\n      tag_121\n      tag_70\n      jump\t// in\n    tag_121:\n        /* \"#utility.yul\":1307:1426   */\n    tag_120:\n        /* \"#utility.yul\":1465:1466   */\n      0x00\n        /* \"#utility.yul\":1490:1543   */\n      tag_122\n        /* \"#utility.yul\":1535:1542   */\n      dup7\n        /* \"#utility.yul\":1526:1532   */\n      dup3\n        /* \"#utility.yul\":1515:1524   */\n      dup8\n        /* \"#utility.yul\":1511:1533   */\n      add\n        /* \"#utility.yul\":1490:1543   */\n      tag_75\n      jump\t// in\n    tag_122:\n        /* \"#utility.yul\":1480:1543   */\n      swap4\n      pop\n        /* \"#utility.yul\":1436:1553   */\n      pop\n        /* \"#utility.yul\":1592:1594   */\n      0x20\n        /* \"#utility.yul\":1618:1671   */\n      tag_123\n        /* \"#utility.yul\":1663:1670   */\n      dup7\n        /* \"#utility.yul\":1654:1660   */\n      dup3\n        /* \"#utility.yul\":1643:1652   */\n      dup8\n        /* \"#utility.yul\":1639:1661   */\n      add\n        /* \"#utility.yul\":1618:1671   */\n      tag_75\n      jump\t// in\n    tag_123:\n        /* \"#utility.yul\":1608:1671   */\n      swap3\n      pop\n        /* \"#utility.yul\":1563:1681   */\n      pop\n        /* \"#utility.yul\":1720:1722   */\n      0x40\n        /* \"#utility.yul\":1746:1799   */\n      tag_124\n        /* \"#utility.yul\":1791:1798   */\n      dup7\n        /* \"#utility.yul\":1782:1788   */\n      dup3\n        /* \"#utility.yul\":1771:1780   */\n      dup8\n        /* \"#utility.yul\":1767:1789   */\n      add\n        /* \"#utility.yul\":1746:1799   */\n      tag_78\n      jump\t// in\n    tag_124:\n        /* \"#utility.yul\":1736:1799   */\n      swap2\n      pop\n        /* \"#utility.yul\":1691:1809   */\n      pop\n        /* \"#utility.yul\":1197:1816   */\n      swap3\n      pop\n      swap3\n      pop\n      swap3\n      jump\t// out\n        /* \"#utility.yul\":1822:2296   */\n    tag_13:\n        /* \"#utility.yul\":1890:1896   */\n      0x00\n        /* \"#utility.yul\":1898:1904   */\n      dup1\n        /* \"#utility.yul\":1947:1949   */\n      0x40\n        /* \"#utility.yul\":1935:1944   */\n      dup4\n        /* \"#utility.yul\":1926:1933   */\n      dup6\n        /* \"#utility.yul\":1922:1945   */\n      sub\n        /* \"#utility.yul\":1918:1950   */\n      slt\n        /* \"#utility.yul\":1915:2034   */\n      iszero\n      tag_126\n      jumpi\n        /* \"#utility.yul\":1953:2032   */\n      tag_127\n      tag_70\n      jump\t// in\n    tag_127:\n        /* \"#utility.yul\":1915:2034   */\n    tag_126:\n        /* \"#utility.yul\":2073:2074   */\n      0x00\n        /* \"#utility.yul\":2098:2151   */\n      tag_128\n        /* \"#utility.yul\":2143:2150   */\n      dup6\n        /* \"#utility.yul\":2134:2140   */\n      dup3\n        /* \"#utility.yul\":2123:2132   */\n      dup7\n        /* \"#utility.yul\":2119:2141   */\n      add\n        /* \"#utility.yul\":2098:2151   */\n      tag_75\n      jump\t// in\n    tag_128:\n        /* \"#utility.yul\":2088:2151   */\n      swap3\n      pop\n        /* \"#utility.yul\":2044:2161   */\n      pop\n        /* \"#utility.yul\":2200:2202   */\n      0x20\n        /* \"#utility.yul\":2226:2279   */\n      tag_129\n        /* \"#utility.yul\":2271:2278   */\n      dup6\n        /* \"#utility.yul\":2262:2268   */\n      dup3\n        /* \"#utility.yul\":2251:2260   */\n      dup7\n        /* \"#utility.yul\":2247:2269   */\n      add\n        /* \"#utility.yul\":2226:2279   */\n      tag_78\n      jump\t// in\n    tag_129:\n        /* \"#utility.yul\":2216:2279   */\n      swap2\n      pop\n        /* \"#utility.yul\":2171:2289   */\n      pop\n        /* \"#utility.yul\":1822:2296   */\n      swap3\n      pop\n      swap3\n      swap1\n      pop\n      jump\t// out\n        /* \"#utility.yul\":2302:2420   */\n    tag_79:\n        /* \"#utility.yul\":2389:2413   */\n      tag_131\n        /* \"#utility.yul\":2407:2412   */\n      dup2\n        /* \"#utility.yul\":2389:2413   */\n      tag_76\n      jump\t// in\n    tag_131:\n        /* \"#utility.yul\":2384:2387   */\n      dup3\n        /* \"#utility.yul\":2377:2414   */\n      mstore\n        /* \"#utility.yul\":2302:2420   */\n      pop\n      pop\n      jump\t// out\n        /* \"#utility.yul\":2426:2648   */\n    tag_18:\n        /* \"#utility.yul\":2519:2523   */\n      0x00\n        /* \"#utility.yul\":2557:2559   */\n      0x20\n        /* \"#utility.yul\":2546:2555   */\n      dup3\n        /* \"#utility.yul\":2542:2560   */\n      add\n        /* \"#utility.yul\":2534:2560   */\n      swap1\n      pop\n        /* \"#utility.yul\":2570:2641   */\n      tag_133\n        /* \"#utility.yul\":2638:2639   */\n      0x00\n        /* \"#utility.yul\":2627:2636   */\n      dup4\n        /* \"#utility.yul\":2623:2640   */\n      add\n        /* \"#utility.yul\":2614:2620   */\n      dup5\n        /* \"#utility.yul\":2570:2641   */\n      tag_79\n      jump\t// in\n    tag_133:\n        /* \"#utility.yul\":2426:2648   */\n      swap3\n      swap2\n      pop\n      pop\n      jump\t// out\n        /* \"#utility.yul\":2654:2753   */\n    tag_80:\n        /* \"#utility.yul\":2706:2712   */\n      0x00\n        /* \"#utility.yul\":2740:2745   */\n      dup2\n        /* \"#utility.yul\":2734:2746   */\n      mload\n        /* \"#utility.yul\":2724:2746   */\n      swap1\n      pop\n        /* \"#utility.yul\":2654:2753   */\n      swap2\n      swap1\n      pop\n      jump\t// out\n        /* \"#utility.yul\":2759:2928   */\n    tag_81:\n        /* \"#utility.yul\":2843:2854   */\n      0x00\n        /* \"#utility.yul\":2877:2883   */\n      dup3\n        /* \"#utility.yul\":2872:2875   */\n      dup3\n        /* \"#utility.yul\":2865:2884   */\n      mstore\n        /* \"#utility.yul\":2917:2921   */\n      0x20\n        /* \"#utility.yul\":2912:2915   */\n      dup3\n        /* \"#utility.yul\":2908:2922   */\n      add\n        /* \"#utility.yul\":2893:2922   */\n      swap1\n      pop\n        /* \"#utility.yul\":2759:2928   */\n      swap3\n      swap2\n      pop\n      pop\n      jump\t// out\n        /* \"#utility.yul\":2934:3180   */\n    tag_82:\n        /* \"#utility.yul\":3015:3016   */\n      0x00\n        /* \"#utility.yul\":3025:3138   */\n    tag_137:\n        /* \"#utility.yul\":3039:3045   */\n      dup4\n        /* \"#utility.yul\":3036:3037   */\n      dup2\n        /* \"#utility.yul\":3033:3046   */\n      lt\n        /* \"#utility.yul\":3025:3138   */\n      iszero\n      tag_139\n      jumpi\n        /* \"#utility.yul\":3124:3125   */\n      dup1\n        /* \"#utility.yul\":3119:3122   */\n      dup3\n        /* \"#utility.yul\":3115:3126   */\n      add\n        /* \"#utility.yul\":3109:3127   */\n      mload\n        /* \"#utility.yul\":3105:3106   */\n      dup2\n        /* \"#utility.yul\":3100:3103   */\n      dup5\n        /* \"#utility.yul\":3096:3107   */\n      add\n        /* \"#utility.yul\":3089:3128   */\n      mstore\n        /* \"#utility.yul\":3061:3063   */\n      0x20\n        /* \"#utility.yul\":3058:3059   */\n      dup2\n        /* \"#utility.yul\":3054:3064   */\n      add\n        /* \"#utility.yul\":3049:3064   */\n      swap1\n      pop\n        /* \"#utility.yul\":3025:3138   */\n      jump(tag_137)\n    tag_139:\n        /* \"#utility.yul\":3172:3173   */\n      0x00\n        /* \"#utility.yul\":3163:3169   */\n      dup5\n        /* \"#utility.yul\":3158:3161   */\n      dup5\n        /* \"#utility.yul\":3154:3170   */\n      add\n        /* \"#utility.yul\":3147:3174   */\n      mstore\n        /* \"#utility.yul\":2996:3180   */\n      pop\n        /* \"#utility.yul\":2934:3180   */\n      pop\n      pop\n      pop\n      jump\t// out\n        /* \"#utility.yul\":3186:3288   */\n    tag_83:\n        /* \"#utility.yul\":3227:3233   */\n      0x00\n        /* \"#utility.yul\":3278:3280   */\n      0x1f\n        /* \"#utility.yul\":3274:3281   */\n      not\n        /* \"#utility.yul\":3269:3271   */\n      0x1f\n        /* \"#utility.yul\":3262:3267   */\n      dup4\n        /* \"#utility.yul\":3258:3272   */\n      add\n        /* \"#utility.yul\":3254:3282   */\n      and\n        /* \"#utility.yul\":3244:3282   */\n      swap1\n      pop\n        /* \"#utility.yul\":3186:3288   */\n      swap2\n      swap1\n      pop\n      jump\t// out\n        /* \"#utility.yul\":3294:3671   */\n    tag_84:\n        /* \"#utility.yul\":3382:3385   */\n      0x00\n        /* \"#utility.yul\":3410:3449   */\n      tag_142\n        /* \"#utility.yul\":3443:3448   */\n      dup3\n        /* \"#utility.yul\":3410:3449   */\n      tag_80\n      jump\t// in\n    tag_142:\n        /* \"#utility.yul\":3465:3536   */\n      tag_143\n        /* \"#utility.yul\":3529:3535   */\n      dup2\n        /* \"#utility.yul\":3524:3527   */\n      dup6\n        /* \"#utility.yul\":3465:3536   */\n      tag_81\n      jump\t// in\n    tag_143:\n        /* \"#utility.yul\":3458:3536   */\n      swap4\n      pop\n        /* \"#utility.yul\":3545:3610   */\n      tag_144\n        /* \"#utility.yul\":3603:3609   */\n      dup2\n        /* \"#utility.yul\":3598:3601   */\n      dup6\n        /* \"#utility.yul\":3591:3595   */\n      0x20\n        /* \"#utility.yul\":3584:3589   */\n      dup7\n        /* \"#utility.yul\":3580:3596   */\n      add\n        /* \"#utility.yul\":3545:3610   */\n      tag_82\n      jump\t// in\n    tag_144:\n        /* \"#utility.yul\":3635:3664   */\n      tag_145\n        /* \"#utility.yul\":3657:3663   */\n      dup2\n        /* \"#utility.yul\":3635:3664   */\n      tag_83\n      jump\t// in\n    tag_145:\n        /* \"#utility.yul\":3630:3633   */\n      dup5\n        /* \"#utility.yul\":3626:3665   */\n      add\n        /* \"#utility.yul\":3619:3665   */\n      swap2\n      pop\n        /* \"#utility.yul\":3386:3671   */\n      pop\n        /* \"#utility.yul\":3294:3671   */\n      swap3\n      swap2\n      pop\n      pop\n      jump\t// out\n        /* \"#utility.yul\":3677:3990   */\n    tag_23:\n        /* \"#utility.yul\":3790:3794   */\n      0x00\n        /* \"#utility.yul\":3828:3830   */\n      0x20\n        /* \"#utility.yul\":3817:3826   */\n      dup3\n        /* \"#utility.yul\":3813:3831   */\n      add\n        /* \"#utility.yul\":3805:3831   */\n      swap1\n      pop\n        /* \"#utility.yul\":3877:3886   */\n      dup2\n        /* \"#utility.yul\":3871:3875   */\n      dup2\n        /* \"#utility.yul\":3867:3887   */\n      sub\n        /* \"#utility.yul\":3863:3864   */\n      0x00\n        /* \"#utility.yul\":3852:3861   */\n      dup4\n        /* \"#utility.yul\":3848:3865   */\n      add\n        /* \"#utility.yul\":3841:3888   */\n      mstore\n        /* \"#utility.yul\":3905:3983   */\n      tag_147\n        /* \"#utility.yul\":3978:3982   */\n      dup2\n        /* \"#utility.yul\":3969:3975   */\n      dup5\n        /* \"#utility.yul\":3905:3983   */\n      tag_84\n      jump\t// in\n    tag_147:\n        /* \"#utility.yul\":3897:3983   */\n      swap1\n      pop\n        /* \"#utility.yul\":3677:3990   */\n      swap3\n      swap2\n      pop\n      pop\n      jump\t// out\n        /* \"#utility.yul\":3996:4167   */\n    tag_85:\n        /* \"#utility.yul\":4136:4159   */\n      0x706c656173652072656769737465722066697273740000000000000000000000\n        /* \"#utility.yul\":4132:4133   */\n      0x00\n        /* \"#utility.yul\":4124:4130   */\n      dup3\n        /* \"#utility.yul\":4120:4134   */\n      add\n        /* \"#utility.yul\":4113:4160   */\n      mstore\n        /* \"#utility.yul\":3996:4167   */\n      pop\n      jump\t// out\n        /* \"#utility.yul\":4173:4539   */\n    tag_86:\n        /* \"#utility.yul\":4315:4318   */\n      0x00\n        /* \"#utility.yul\":4336:4403   */\n      tag_150\n        /* \"#utility.yul\":4400:4402   */\n      0x15\n        /* \"#utility.yul\":4395:4398   */\n      dup4\n        /* \"#utility.yul\":4336:4403   */\n      tag_81\n      jump\t// in\n    tag_150:\n        /* \"#utility.yul\":4329:4403   */\n      swap2\n      pop\n        /* \"#utility.yul\":4412:4505   */\n      tag_151\n        /* \"#utility.yul\":4501:4504   */\n      dup3\n        /* \"#utility.yul\":4412:4505   */\n      tag_85\n      jump\t// in\n    tag_151:\n        /* \"#utility.yul\":4530:4532   */\n      0x20\n        /* \"#utility.yul\":4525:4528   */\n      dup3\n        /* \"#utility.yul\":4521:4533   */\n      add\n        /* \"#utility.yul\":4514:4533   */\n      swap1\n      pop\n        /* \"#utility.yul\":4173:4539   */\n      swap2\n      swap1\n      pop\n      jump\t// out\n        /* \"#utility.yul\":4545:4964   */\n    tag_27:\n        /* \"#utility.yul\":4711:4715   */\n      0x00\n        /* \"#utility.yul\":4749:4751   */\n      0x20\n        /* \"#utility.yul\":4738:4747   */\n      dup3\n        /* \"#utility.yul\":4734:4752   */\n      add\n        /* \"#utility.yul\":4726:4752   */\n      swap1\n      pop\n        /* \"#utility.yul\":4798:4807   */\n      dup2\n        /* \"#utility.yul\":4792:4796   */\n      dup2\n        /* \"#utility.yul\":4788:4808   */\n      sub\n        /* \"#utility.yul\":4784:4785   */\n      0x00\n        /* \"#utility.yul\":4773:4782   */\n      dup4\n        /* \"#utility.yul\":4769:4786   */\n      add\n        /* \"#utility.yul\":4762:4809   */\n      mstore\n        /* \"#utility.yul\":4826:4957   */\n      tag_153\n        /* \"#utility.yul\":4952:4956   */\n      dup2\n        /* \"#utility.yul\":4826:4957   */\n      tag_86\n      jump\t// in\n    tag_153:\n        /* \"#utility.yul\":4818:4957   */\n      swap1\n      pop\n        /* \"#utility.yul\":4545:4964   */\n      swap2\n      swap1\n      pop\n      jump\t// out\n        /* \"#utility.yul\":4970:5150   */\n    tag_87:\n        /* \"#utility.yul\":5018:5095   */\n      0x4e487b7100000000000000000000000000000000000000000000000000000000\n        /* \"#utility.yul\":5015:5016   */\n      0x00\n        /* \"#utility.yul\":5008:5096   */\n      mstore\n        /* \"#utility.yul\":5115:5119   */\n      0x11\n        /* \"#utility.yul\":5112:5113   */\n      0x04\n        /* \"#utility.yul\":5105:5120   */\n      mstore\n        /* \"#utility.yul\":5139:5143   */\n      0x24\n        /* \"#utility.yul\":5136:5137   */\n      0x00\n        /* \"#utility.yul\":5129:5144   */\n      revert\n        /* \"#utility.yul\":5156:5347   */\n    tag_31:\n        /* \"#utility.yul\":5196:5199   */\n      0x00\n        /* \"#utility.yul\":5215:5235   */\n      tag_156\n        /* \"#utility.yul\":5233:5234   */\n      dup3\n        /* \"#utility.yul\":5215:5235   */\n      tag_76\n      jump\t// in\n    tag_156:\n        /* \"#utility.yul\":5210:5235   */\n      swap2\n      pop\n        /* \"#utility.yul\":5249:5269   */\n      tag_157\n        /* \"#utility.yul\":5267:5268   */\n      dup4\n        /* \"#utility.yul\":5249:5269   */\n      tag_76\n      jump\t// in\n    tag_157:\n        /* \"#utility.yul\":5244:5269   */\n      swap3\n      pop\n        /* \"#utility.yul\":5292:5293   */\n      dup3\n        /* \"#utility.yul\":5289:5290   */\n      dup3\n        /* \"#utility.yul\":5285:5294   */\n      add\n        /* \"#utility.yul\":5278:5294   */\n      swap1\n      pop\n        /* \"#utility.yul\":5313:5316   */\n      dup1\n        /* \"#utility.yul\":5310:5311   */\n      dup3\n        /* \"#utility.yul\":5307:5317   */\n      gt\n        /* \"#utility.yul\":5304:5340   */\n      iszero\n      tag_158\n      jumpi\n        /* \"#utility.yul\":5320:5338   */\n      tag_159\n      tag_87\n      jump\t// in\n    tag_159:\n        /* \"#utility.yul\":5304:5340   */\n    tag_158:\n        /* \"#utility.yul\":5156:5347   */\n      swap3\n      swap2\n      pop\n      pop\n      jump\t// out\n        /* \"#utility.yul\":5353:5547   */\n    tag_33:\n        /* \"#utility.yul\":5393:5397   */\n      0x00\n        /* \"#utility.yul\":5413:5433   */\n      tag_161\n        /* \"#utility.yul\":5431:5432   */\n      dup3\n        /* \"#utility.yul\":5413:5433   */\n      tag_76\n      jump\t// in\n    tag_161:\n        /* \"#utility.yul\":5408:5433   */\n      swap2\n      pop\n        /* \"#utility.yul\":5447:5467   */\n      tag_162\n        /* \"#utility.yul\":5465:5466   */\n      dup4\n        /* \"#utility.yul\":5447:5467   */\n      tag_76\n      jump\t// in\n    tag_162:\n        /* \"#utility.yul\":5442:5467   */\n      swap3\n      pop\n        /* \"#utility.yul\":5491:5492   */\n      dup3\n        /* \"#utility.yul\":5488:5489   */\n      dup3\n        /* \"#utility.yul\":5484:5493   */\n      sub\n        /* \"#utility.yul\":5476:5493   */\n      swap1\n      pop\n        /* \"#utility.yul\":5515:5516   */\n      dup2\n        /* \"#utility.yul\":5509:5513   */\n      dup2\n        /* \"#utility.yul\":5506:5517   */\n      gt\n        /* \"#utility.yul\":5503:5540   */\n      iszero\n      tag_163\n      jumpi\n        /* \"#utility.yul\":5520:5538   */\n      tag_164\n      tag_87\n      jump\t// in\n    tag_164:\n        /* \"#utility.yul\":5503:5540   */\n    tag_163:\n        /* \"#utility.yul\":5353:5547   */\n      swap3\n      swap2\n      pop\n      pop\n      jump\t// out\n        /* \"#utility.yul\":5553:5722   */\n    tag_88:\n        /* \"#utility.yul\":5693:5714   */\n      0x76616c75652063616e2774206265207a65726f00000000000000000000000000\n        /* \"#utility.yul\":5689:5690   */\n      0x00\n        /* \"#utility.yul\":5681:5687   */\n      dup3\n        /* \"#utility.yul\":5677:5691   */\n      add\n        /* \"#utility.yul\":5670:5715   */\n      mstore\n        /* \"#utility.yul\":5553:5722   */\n      pop\n      jump\t// out\n        /* \"#utility.yul\":5728:6094   */\n    tag_89:\n        /* \"#utility.yul\":5870:5873   */\n      0x00\n        /* \"#utility.yul\":5891:5958   */\n      tag_167\n        /* \"#utility.yul\":5955:5957   */\n      0x13\n        /* \"#utility.yul\":5950:5953   */\n      dup4\n        /* \"#utility.yul\":5891:5958   */\n      tag_81\n      jump\t// in\n    tag_167:\n        /* \"#utility.yul\":5884:5958   */\n      swap2\n      pop\n        /* \"#utility.yul\":5967:6060   */\n      tag_168\n        /* \"#utility.yul\":6056:6059   */\n      dup3\n        /* \"#utility.yul\":5967:6060   */\n      tag_88\n      jump\t// in\n    tag_168:\n        /* \"#utility.yul\":6085:6087   */\n      0x20\n        /* \"#utility.yul\":6080:6083   */\n      dup3\n        /* \"#utility.yul\":6076:6088   */\n      add\n        /* \"#utility.yul\":6069:6088   */\n      swap1\n      pop\n        /* \"#utility.yul\":5728:6094   */\n      swap2\n      swap1\n      pop\n      jump\t// out\n        /* \"#utility.yul\":6100:6519   */\n    tag_38:\n        /* \"#utility.yul\":6266:6270   */\n      0x00\n        /* \"#utility.yul\":6304:6306   */\n      0x20\n        /* \"#utility.yul\":6293:6302   */\n      dup3\n        /* \"#utility.yul\":6289:6307   */\n      add\n        /* \"#utility.yul\":6281:6307   */\n      swap1\n      pop\n        /* \"#utility.yul\":6353:6362   */\n      dup2\n        /* \"#utility.yul\":6347:6351   */\n      dup2\n        /* \"#utility.yul\":6343:6363   */\n      sub\n        /* \"#utility.yul\":6339:6340   */\n      0x00\n        /* \"#utility.yul\":6328:6337   */\n      dup4\n        /* \"#utility.yul\":6324:6341   */\n      add\n        /* \"#utility.yul\":6317:6364   */\n      mstore\n        /* \"#utility.yul\":6381:6512   */\n      tag_170\n        /* \"#utility.yul\":6507:6511   */\n      dup2\n        /* \"#utility.yul\":6381:6512   */\n      tag_89\n      jump\t// in\n    tag_170:\n        /* \"#utility.yul\":6373:6512   */\n      swap1\n      pop\n        /* \"#utility.yul\":6100:6519   */\n      swap2\n      swap1\n      pop\n      jump\t// out\n        /* \"#utility.yul\":6525:6695   */\n    tag_90:\n        /* \"#utility.yul\":6665:6687   */\n      0x796f75722062616c616e6365206973207a65726f000000000000000000000000\n        /* \"#utility.yul\":6661:6662   */\n      0x00\n        /* \"#utility.yul\":6653:6659   */\n      dup3\n        /* \"#utility.yul\":6649:6663   */\n      add\n        /* \"#utility.yul\":6642:6688   */\n      mstore\n        /* \"#utility.yul\":6525:6695   */\n      pop\n      jump\t// out\n        /* \"#utility.yul\":6701:7067   */\n    tag_91:\n        /* \"#utility.yul\":6843:6846   */\n      0x00\n        /* \"#utility.yul\":6864:6931   */\n      tag_173\n        /* \"#utility.yul\":6928:6930   */\n      0x14\n        /* \"#utility.yul\":6923:6926   */\n      dup4\n        /* \"#utility.yul\":6864:6931   */\n      tag_81\n      jump\t// in\n    tag_173:\n        /* \"#utility.yul\":6857:6931   */\n      swap2\n      pop\n        /* \"#utility.yul\":6940:7033   */\n      tag_174\n        /* \"#utility.yul\":7029:7032   */\n      dup3\n        /* \"#utility.yul\":6940:7033   */\n      tag_90\n      jump\t// in\n    tag_174:\n        /* \"#utility.yul\":7058:7060   */\n      0x20\n        /* \"#utility.yul\":7053:7056   */\n      dup3\n        /* \"#utility.yul\":7049:7061   */\n      add\n        /* \"#utility.yul\":7042:7061   */\n      swap1\n      pop\n        /* \"#utility.yul\":6701:7067   */\n      swap2\n      swap1\n      pop\n      jump\t// out\n        /* \"#utility.yul\":7073:7492   */\n    tag_44:\n        /* \"#utility.yul\":7239:7243   */\n      0x00\n        /* \"#utility.yul\":7277:7279   */\n      0x20\n        /* \"#utility.yul\":7266:7275   */\n      dup3\n        /* \"#utility.yul\":7262:7280   */\n      add\n        /* \"#utility.yul\":7254:7280   */\n      swap1\n      pop\n        /* \"#utility.yul\":7326:7335   */\n      dup2\n        /* \"#utility.yul\":7320:7324   */\n      dup2\n        /* \"#utility.yul\":7316:7336   */\n      sub\n        /* \"#utility.yul\":7312:7313   */\n      0x00\n        /* \"#utility.yul\":7301:7310   */\n      dup4\n        /* \"#utility.yul\":7297:7314   */\n      add\n        /* \"#utility.yul\":7290:7337   */\n      mstore\n        /* \"#utility.yul\":7354:7485   */\n      tag_176\n        /* \"#utility.yul\":7480:7484   */\n      dup2\n        /* \"#utility.yul\":7354:7485   */\n      tag_91\n      jump\t// in\n    tag_176:\n        /* \"#utility.yul\":7346:7485   */\n      swap1\n      pop\n        /* \"#utility.yul\":7073:7492   */\n      swap2\n      swap1\n      pop\n      jump\t// out\n        /* \"#utility.yul\":7498:7908   */\n    tag_46:\n        /* \"#utility.yul\":7538:7545   */\n      0x00\n        /* \"#utility.yul\":7561:7581   */\n      tag_178\n        /* \"#utility.yul\":7579:7580   */\n      dup3\n        /* \"#utility.yul\":7561:7581   */\n      tag_76\n      jump\t// in\n    tag_178:\n        /* \"#utility.yul\":7556:7581   */\n      swap2\n      pop\n        /* \"#utility.yul\":7595:7615   */\n      tag_179\n        /* \"#utility.yul\":7613:7614   */\n      dup4\n        /* \"#utility.yul\":7595:7615   */\n      tag_76\n      jump\t// in\n    tag_179:\n        /* \"#utility.yul\":7590:7615   */\n      swap3\n      pop\n        /* \"#utility.yul\":7650:7651   */\n      dup3\n        /* \"#utility.yul\":7647:7648   */\n      dup3\n        /* \"#utility.yul\":7643:7652   */\n      mul\n        /* \"#utility.yul\":7672:7702   */\n      tag_180\n        /* \"#utility.yul\":7690:7701   */\n      dup2\n        /* \"#utility.yul\":7672:7702   */\n      tag_76\n      jump\t// in\n    tag_180:\n        /* \"#utility.yul\":7661:7702   */\n      swap2\n      pop\n        /* \"#utility.yul\":7851:7852   */\n      dup3\n        /* \"#utility.yul\":7842:7849   */\n      dup3\n        /* \"#utility.yul\":7838:7853   */\n      div\n        /* \"#utility.yul\":7835:7836   */\n      dup5\n        /* \"#utility.yul\":7832:7854   */\n      eq\n        /* \"#utility.yul\":7812:7813   */\n      dup4\n        /* \"#utility.yul\":7805:7814   */\n      iszero\n        /* \"#utility.yul\":7785:7868   */\n      or\n        /* \"#utility.yul\":7762:7901   */\n      tag_181\n      jumpi\n        /* \"#utility.yul\":7881:7899   */\n      tag_182\n      tag_87\n      jump\t// in\n    tag_182:\n        /* \"#utility.yul\":7762:7901   */\n    tag_181:\n        /* \"#utility.yul\":7546:7908   */\n      pop\n        /* \"#utility.yul\":7498:7908   */\n      swap3\n      swap2\n      pop\n      pop\n      jump\t// out\n        /* \"#utility.yul\":7914:8094   */\n    tag_92:\n        /* \"#utility.yul\":7962:8039   */\n      0x4e487b7100000000000000000000000000000000000000000000000000000000\n        /* \"#utility.yul\":7959:7960   */\n      0x00\n        /* \"#utility.yul\":7952:8040   */\n      mstore\n        /* \"#utility.yul\":8059:8063   */\n      0x12\n        /* \"#utility.yul\":8056:8057   */\n      0x04\n        /* \"#utility.yul\":8049:8064   */\n      mstore\n        /* \"#utility.yul\":8083:8087   */\n      0x24\n        /* \"#utility.yul\":8080:8081   */\n      0x00\n        /* \"#utility.yul\":8073:8088   */\n      revert\n        /* \"#utility.yul\":8100:8285   */\n    tag_48:\n        /* \"#utility.yul\":8140:8141   */\n      0x00\n        /* \"#utility.yul\":8157:8177   */\n      tag_185\n        /* \"#utility.yul\":8175:8176   */\n      dup3\n        /* \"#utility.yul\":8157:8177   */\n      tag_76\n      jump\t// in\n    tag_185:\n        /* \"#utility.yul\":8152:8177   */\n      swap2\n      pop\n        /* \"#utility.yul\":8191:8211   */\n      tag_186\n        /* \"#utility.yul\":8209:8210   */\n      dup4\n        /* \"#utility.yul\":8191:8211   */\n      tag_76\n      jump\t// in\n    tag_186:\n        /* \"#utility.yul\":8186:8211   */\n      swap3\n      pop\n        /* \"#utility.yul\":8230:8231   */\n      dup3\n        /* \"#utility.yul\":8220:8255   */\n      tag_187\n      jumpi\n        /* \"#utility.yul\":8235:8253   */\n      tag_188\n      tag_92\n      jump\t// in\n    tag_188:\n        /* \"#utility.yul\":8220:8255   */\n    tag_187:\n        /* \"#utility.yul\":8277:8278   */\n      dup3\n        /* \"#utility.yul\":8274:8275   */\n      dup3\n        /* \"#utility.yul\":8270:8279   */\n      div\n        /* \"#utility.yul\":8265:8279   */\n      swap1\n      pop\n        /* \"#utility.yul\":8100:8285   */\n      swap3\n      swap2\n      pop\n      pop\n      jump\t// out\n        /* \"#utility.yul\":8291:8465   */\n    tag_93:\n        /* \"#utility.yul\":8431:8457   */\n      0x73656c6c6572206973206e6f7420726567697374657265640000000000000000\n        /* \"#utility.yul\":8427:8428   */\n      0x00\n        /* \"#utility.yul\":8419:8425   */\n      dup3\n        /* \"#utility.yul\":8415:8429   */\n      add\n        /* \"#utility.yul\":8408:8458   */\n      mstore\n        /* \"#utility.yul\":8291:8465   */\n      pop\n      jump\t// out\n        /* \"#utility.yul\":8471:8837   */\n    tag_94:\n        /* \"#utility.yul\":8613:8616   */\n      0x00\n        /* \"#utility.yul\":8634:8701   */\n      tag_191\n        /* \"#utility.yul\":8698:8700   */\n      0x18\n        /* \"#utility.yul\":8693:8696   */\n      dup4\n        /* \"#utility.yul\":8634:8701   */\n      tag_81\n      jump\t// in\n    tag_191:\n        /* \"#utility.yul\":8627:8701   */\n      swap2\n      pop\n        /* \"#utility.yul\":8710:8803   */\n      tag_192\n        /* \"#utility.yul\":8799:8802   */\n      dup3\n        /* \"#utility.yul\":8710:8803   */\n      tag_93\n      jump\t// in\n    tag_192:\n        /* \"#utility.yul\":8828:8830   */\n      0x20\n        /* \"#utility.yul\":8823:8826   */\n      dup3\n        /* \"#utility.yul\":8819:8831   */\n      add\n        /* \"#utility.yul\":8812:8831   */\n      swap1\n      pop\n        /* \"#utility.yul\":8471:8837   */\n      swap2\n      swap1\n      pop\n      jump\t// out\n        /* \"#utility.yul\":8843:9262   */\n    tag_55:\n        /* \"#utility.yul\":9009:9013   */\n      0x00\n        /* \"#utility.yul\":9047:9049   */\n      0x20\n        /* \"#utility.yul\":9036:9045   */\n      dup3\n        /* \"#utility.yul\":9032:9050   */\n      add\n        /* \"#utility.yul\":9024:9050   */\n      swap1\n      pop\n        /* \"#utility.yul\":9096:9105   */\n      dup2\n        /* \"#utility.yul\":9090:9094   */\n      dup2\n        /* \"#utility.yul\":9086:9106   */\n      sub\n        /* \"#utility.yul\":9082:9083   */\n      0x00\n        /* \"#utility.yul\":9071:9080   */\n      dup4\n        /* \"#utility.yul\":9067:9084   */\n      add\n        /* \"#utility.yul\":9060:9107   */\n      mstore\n        /* \"#utility.yul\":9124:9255   */\n      tag_194\n        /* \"#utility.yul\":9250:9254   */\n      dup2\n        /* \"#utility.yul\":9124:9255   */\n      tag_94\n      jump\t// in\n    tag_194:\n        /* \"#utility.yul\":9116:9255   */\n      swap1\n      pop\n        /* \"#utility.yul\":8843:9262   */\n      swap2\n      swap1\n      pop\n      jump\t// out\n        /* \"#utility.yul\":9268:9441   */\n    tag_95:\n        /* \"#utility.yul\":9408:9433   */\n      0x6275796572206973206e6f742072656769737465726564000000000000000000\n        /* \"#utility.yul\":9404:9405   */\n      0x00\n        /* \"#utility.yul\":9396:9402   */\n      dup3\n        /* \"#utility.yul\":9392:9406   */\n      add\n        /* \"#utility.yul\":9385:9434   */\n      mstore\n        /* \"#utility.yul\":9268:9441   */\n      pop\n      jump\t// out\n        /* \"#utility.yul\":9447:9813   */\n    tag_96:\n        /* \"#utility.yul\":9589:9592   */\n      0x00\n        /* \"#utility.yul\":9610:9677   */\n      tag_197\n        /* \"#utility.yul\":9674:9676   */\n      0x17\n        /* \"#utility.yul\":9669:9672   */\n      dup4\n        /* \"#utility.yul\":9610:9677   */\n      tag_81\n      jump\t// in\n    tag_197:\n        /* \"#utility.yul\":9603:9677   */\n      swap2\n      pop\n        /* \"#utility.yul\":9686:9779   */\n      tag_198\n        /* \"#utility.yul\":9775:9778   */\n      dup3\n        /* \"#utility.yul\":9686:9779   */\n      tag_95\n      jump\t// in\n    tag_198:\n        /* \"#utility.yul\":9804:9806   */\n      0x20\n        /* \"#utility.yul\":9799:9802   */\n      dup3\n        /* \"#utility.yul\":9795:9807   */\n      add\n        /* \"#utility.yul\":9788:9807   */\n      swap1\n      pop\n        /* \"#utility.yul\":9447:9813   */\n      swap2\n      swap1\n      pop\n      jump\t// out\n        /* \"#utility.yul\":9819:10238   */\n    tag_59:\n        /* \"#utility.yul\":9985:9989   */\n      0x00\n        /* \"#utility.yul\":10023:10025   */\n      0x20\n        /* \"#utility.yul\":10012:10021   */\n      dup3\n        /* \"#utility.yul\":10008:10026   */\n      add\n        /* \"#utility.yul\":10000:10026   */\n      swap1\n      pop\n        /* \"#utility.yul\":10072:10081   */\n      dup2\n        /* \"#utility.yul\":10066:10070   */\n      dup2\n        /* \"#utility.yul\":10062:10082   */\n      sub\n        /* \"#utility.yul\":10058:10059   */\n      0x00\n        /* \"#utility.yul\":10047:10056   */\n      dup4\n        /* \"#utility.yul\":10043:10060   */\n      add\n        /* \"#utility.yul\":10036:10083   */\n      mstore\n        /* \"#utility.yul\":10100:10231   */\n      tag_200\n        /* \"#utility.yul\":10226:10230   */\n      dup2\n        /* \"#utility.yul\":10100:10231   */\n      tag_96\n      jump\t// in\n    tag_200:\n        /* \"#utility.yul\":10092:10231   */\n      swap1\n      pop\n        /* \"#utility.yul\":9819:10238   */\n      swap2\n      swap1\n      pop\n      jump\t// out\n        /* \"#utility.yul\":10244:10466   */\n    tag_97:\n        /* \"#utility.yul\":10384:10418   */\n      0x73656c6c657220616e642062757965722063616e74206265206f6e6520706572\n        /* \"#utility.yul\":10380:10381   */\n      0x00\n        /* \"#utility.yul\":10372:10378   */\n      dup3\n        /* \"#utility.yul\":10368:10382   */\n      add\n        /* \"#utility.yul\":10361:10419   */\n      mstore\n        /* \"#utility.yul\":10453:10458   */\n      0x736f6e0000000000000000000000000000000000000000000000000000000000\n        /* \"#utility.yul\":10448:10450   */\n      0x20\n        /* \"#utility.yul\":10440:10446   */\n      dup3\n        /* \"#utility.yul\":10436:10451   */\n      add\n        /* \"#utility.yul\":10429:10459   */\n      mstore\n        /* \"#utility.yul\":10244:10466   */\n      pop\n      jump\t// out\n        /* \"#utility.yul\":10472:10838   */\n    tag_98:\n        /* \"#utility.yul\":10614:10617   */\n      0x00\n        /* \"#utility.yul\":10635:10702   */\n      tag_203\n        /* \"#utility.yul\":10699:10701   */\n      0x23\n        /* \"#utility.yul\":10694:10697   */\n      dup4\n        /* \"#utility.yul\":10635:10702   */\n      tag_81\n      jump\t// in\n    tag_203:\n        /* \"#utility.yul\":10628:10702   */\n      swap2\n      pop\n        /* \"#utility.yul\":10711:10804   */\n      tag_204\n        /* \"#utility.yul\":10800:10803   */\n      dup3\n        /* \"#utility.yul\":10711:10804   */\n      tag_97\n      jump\t// in\n    tag_204:\n        /* \"#utility.yul\":10829:10831   */\n      0x40\n        /* \"#utility.yul\":10824:10827   */\n      dup3\n        /* \"#utility.yul\":10820:10832   */\n      add\n        /* \"#utility.yul\":10813:10832   */\n      swap1\n      pop\n        /* \"#utility.yul\":10472:10838   */\n      swap2\n      swap1\n      pop\n      jump\t// out\n        /* \"#utility.yul\":10844:11263   */\n    tag_63:\n        /* \"#utility.yul\":11010:11014   */\n      0x00\n        /* \"#utility.yul\":11048:11050   */\n      0x20\n        /* \"#utility.yul\":11037:11046   */\n      dup3\n        /* \"#utility.yul\":11033:11051   */\n      add\n        /* \"#utility.yul\":11025:11051   */\n      swap1\n      pop\n        /* \"#utility.yul\":11097:11106   */\n      dup2\n        /* \"#utility.yul\":11091:11095   */\n      dup2\n        /* \"#utility.yul\":11087:11107   */\n      sub\n        /* \"#utility.yul\":11083:11084   */\n      0x00\n        /* \"#utility.yul\":11072:11081   */\n      dup4\n        /* \"#utility.yul\":11068:11085   */\n      add\n        /* \"#utility.yul\":11061:11108   */\n      mstore\n        /* \"#utility.yul\":11125:11256   */\n      tag_206\n        /* \"#utility.yul\":11251:11255   */\n      dup2\n        /* \"#utility.yul\":11125:11256   */\n      tag_98\n      jump\t// in\n    tag_206:\n        /* \"#utility.yul\":11117:11256   */\n      swap1\n      pop\n        /* \"#utility.yul\":10844:11263   */\n      swap2\n      swap1\n      pop\n      jump\t// out\n        /* \"#utility.yul\":11269:11496   */\n    tag_99:\n        /* \"#utility.yul\":11409:11443   */\n      0x73656c6c657220616e6420627579657220626f746820617265206e6f74207265\n        /* \"#utility.yul\":11405:11406   */\n      0x00\n        /* \"#utility.yul\":11397:11403   */\n      dup3\n        /* \"#utility.yul\":11393:11407   */\n      add\n        /* \"#utility.yul\":11386:11444   */\n      mstore\n        /* \"#utility.yul\":11478:11488   */\n      0x6769737465726564000000000000000000000000000000000000000000000000\n        /* \"#utility.yul\":11473:11475   */\n      0x20\n        /* \"#utility.yul\":11465:11471   */\n      dup3\n        /* \"#utility.yul\":11461:11476   */\n      add\n        /* \"#utility.yul\":11454:11489   */\n      mstore\n        /* \"#utility.yul\":11269:11496   */\n      pop\n      jump\t// out\n        /* \"#utility.yul\":11502:11868   */\n    tag_100:\n        /* \"#utility.yul\":11644:11647   */\n      0x00\n        /* \"#utility.yul\":11665:11732   */\n      tag_209\n        /* \"#utility.yul\":11729:11731   */\n      0x28\n        /* \"#utility.yul\":11724:11727   */\n      dup4\n        /* \"#utility.yul\":11665:11732   */\n      tag_81\n      jump\t// in\n    tag_209:\n        /* \"#utility.yul\":11658:11732   */\n      swap2\n      pop\n        /* \"#utility.yul\":11741:11834   */\n      tag_210\n        /* \"#utility.yul\":11830:11833   */\n      dup3\n        /* \"#utility.yul\":11741:11834   */\n      tag_99\n      jump\t// in\n    tag_210:\n        /* \"#utility.yul\":11859:11861   */\n      0x40\n        /* \"#utility.yul\":11854:11857   */\n      dup3\n        /* \"#utility.yul\":11850:11862   */\n      add\n        /* \"#utility.yul\":11843:11862   */\n      swap1\n      pop\n        /* \"#utility.yul\":11502:11868   */\n      swap2\n      swap1\n      pop\n      jump\t// out\n        /* \"#utility.yul\":11874:12293   */\n    tag_68:\n        /* \"#utility.yul\":12040:12044   */\n      0x00\n        /* \"#utility.yul\":12078:12080   */\n      0x20\n        /* \"#utility.yul\":12067:12076   */\n      dup3\n        /* \"#utility.yul\":12063:12081   */\n      add\n        /* \"#utility.yul\":12055:12081   */\n      swap1\n      pop\n        /* \"#utility.yul\":12127:12136   */\n      dup2\n        /* \"#utility.yul\":12121:12125   */\n      dup2\n        /* \"#utility.yul\":12117:12137   */\n      sub\n        /* \"#utility.yul\":12113:12114   */\n      0x00\n        /* \"#utility.yul\":12102:12111   */\n      dup4\n        /* \"#utility.yul\":12098:12115   */\n      add\n        /* \"#utility.yul\":12091:12138   */\n      mstore\n        /* \"#utility.yul\":12155:12286   */\n      tag_212\n        /* \"#utility.yul\":12281:12285   */\n      dup2\n        /* \"#utility.yul\":12155:12286   */\n      tag_100\n      jump\t// in\n    tag_212:\n        /* \"#utility.yul\":12147:12286   */\n      swap1\n      pop\n        /* \"#utility.yul\":11874:12293   */\n      swap2\n      swap1\n      pop\n      jump\t// out\n    stop\n    data_0fd4266bc5b90451882381a055d703dd235b37869ceff2c5342f58fe73b106d5 6974656d2077696c6c2062652073656e7420746f20796f75722061646472657373\n    data_17aa23838344d69e7c95fa6cd1cad8785ff6bfbc7529891f112320c03b7ec720 6974656d2077696c6c206265207368697070656420746f207468652062757965722061646472657373\n\n    auxdata: 0xa26469706673582212203a9133628a22425dc05d0e321094729749aed604816dcefc2b681891f6b969ff64736f6c63430008140033\n}\n",
				"bytecode": {
					"linkReferences": {},
					"object": "608060405234801561000f575f80fd5b50604051610ef9380380610ef983398181016040528101906100319190610075565b80600181905550506100a0565b5f80fd5b5f819050919050565b61005481610042565b811461005e575f80fd5b50565b5f8151905061006f8161004b565b92915050565b5f6020828403121561008a5761008961003e565b5b5f61009784828501610061565b91505092915050565b610e4c806100ad5f395ff3fe608060405234801561000f575f80fd5b506004361061004a575f3560e01c8063153e66e61461004e5780636d705ebb1461006a578063c6e9ce8414610086578063cae270b6146100a4575b5f80fd5b61006860048036038101906100639190610817565b6100d4565b005b610084600480360381019061007f9190610867565b6102de565b005b61008e610365565b60405161009b91906108b4565b60405180910390f35b6100be60048036038101906100b99190610817565b61036b565b6040516100cb9190610957565b60405180910390f35b5f805f8573ffffffffffffffffffffffffffffffffffffffff1673ffffffffffffffffffffffffffffffffffffffff1681526020019081526020015f205403610152576040517f08c379a0000000000000000000000000000000000000000000000000000000008152600401610149906109c1565b60405180910390fd5b5f805f8473ffffffffffffffffffffffffffffffffffffffff1673ffffffffffffffffffffffffffffffffffffffff1681526020019081526020015f2054036101d0576040517f08c379a00000000000000000000000000000000000000000000000000000000081526004016101c7906109c1565b60405180910390fd5b805f808573ffffffffffffffffffffffffffffffffffffffff1673ffffffffffffffffffffffffffffffffffffffff1681526020019081526020015f205f82825461021b9190610a0c565b92505081905550805f808473ffffffffffffffffffffffffffffffffffffffff1673ffffffffffffffffffffffffffffffffffffffff1681526020019081526020015f205f82825461026d9190610a3f565b925050819055508273ffffffffffffffffffffffffffffffffffffffff168273ffffffffffffffffffffffffffffffffffffffff167f640441567a63f93bb708d33df4fb558ccf2ec59f306cc74b9bed436c9354d203836040516102d191906108b4565b60405180910390a3505050565b5f8103610320576040517f08c379a000000000000000000000000000000000000000000000000000000000815260040161031790610abc565b60405180910390fd5b805f808473ffffffffffffffffffffffffffffffffffffffff1673ffffffffffffffffffffffffffffffffffffffff1681526020019081526020015f20819055505050565b60015481565b60606103788484846104db565b505f805f8673ffffffffffffffffffffffffffffffffffffffff1673ffffffffffffffffffffffffffffffffffffffff1681526020019081526020015f2054146103f7576040517f08c379a00000000000000000000000000000000000000000000000000000000081526004016103ee90610b24565b60405180910390fd5b5f6064600154846104089190610b42565b6104129190610bb0565b9050805f808773ffffffffffffffffffffffffffffffffffffffff1673ffffffffffffffffffffffffffffffffffffffff1681526020019081526020015f205f82825461045f9190610a3f565b92505081905550805f803073ffffffffffffffffffffffffffffffffffffffff1673ffffffffffffffffffffffffffffffffffffffff1681526020019081526020015f205f8282546104b19190610a0c565b92505081905550604051806060016040528060218152602001610dcd602191399150509392505050565b60605f82036104e8575f80fd5b5f805f8673ffffffffffffffffffffffffffffffffffffffff1673ffffffffffffffffffffffffffffffffffffffff1681526020019081526020015f205403610566576040517f571c8de700000000000000000000000000000000000000000000000000000000815260040161055d90610c2a565b60405180910390fd5b5f805f8573ffffffffffffffffffffffffffffffffffffffff1673ffffffffffffffffffffffffffffffffffffffff1681526020019081526020015f2054036105e4576040517f571c8de70000000000000000000000000000000000000000000000000000000081526004016105db90610c92565b60405180910390fd5b5f808473ffffffffffffffffffffffffffffffffffffffff1673ffffffffffffffffffffffffffffffffffffffff1681526020019081526020015f20545f808673ffffffffffffffffffffffffffffffffffffffff1673ffffffffffffffffffffffffffffffffffffffff1681526020019081526020015f20540361069e576040517f571c8de700000000000000000000000000000000000000000000000000000000815260040161069590610d20565b60405180910390fd5b5f805f8673ffffffffffffffffffffffffffffffffffffffff1673ffffffffffffffffffffffffffffffffffffffff1681526020019081526020015f205414801561072457505f805f8573ffffffffffffffffffffffffffffffffffffffff1673ffffffffffffffffffffffffffffffffffffffff1681526020019081526020015f2054145b15610764576040517f571c8de700000000000000000000000000000000000000000000000000000000815260040161075b90610dae565b60405180910390fd5b604051806060016040528060298152602001610dee6029913990509392505050565b5f80fd5b5f73ffffffffffffffffffffffffffffffffffffffff82169050919050565b5f6107b38261078a565b9050919050565b6107c3816107a9565b81146107cd575f80fd5b50565b5f813590506107de816107ba565b92915050565b5f819050919050565b6107f6816107e4565b8114610800575f80fd5b50565b5f81359050610811816107ed565b92915050565b5f805f6060848603121561082e5761082d610786565b5b5f61083b868287016107d0565b935050602061084c868287016107d0565b925050604061085d86828701610803565b9150509250925092565b5f806040838503121561087d5761087c610786565b5b5f61088a858286016107d0565b925050602061089b85828601610803565b9150509250929050565b6108ae816107e4565b82525050565b5f6020820190506108c75f8301846108a5565b92915050565b5f81519050919050565b5f82825260208201905092915050565b5f5b838110156109045780820151818401526020810190506108e9565b5f8484015250505050565b5f601f19601f8301169050919050565b5f610929826108cd565b61093381856108d7565b93506109438185602086016108e7565b61094c8161090f565b840191505092915050565b5f6020820190508181035f83015261096f818461091f565b905092915050565b7f706c6561736520726567697374657220666972737400000000000000000000005f82015250565b5f6109ab6015836108d7565b91506109b682610977565b602082019050919050565b5f6020820190508181035f8301526109d88161099f565b9050919050565b7f4e487b71000000000000000000000000000000000000000000000000000000005f52601160045260245ffd5b5f610a16826107e4565b9150610a21836107e4565b9250828201905080821115610a3957610a386109df565b5b92915050565b5f610a49826107e4565b9150610a54836107e4565b9250828203905081811115610a6c57610a6b6109df565b5b92915050565b7f76616c75652063616e2774206265207a65726f000000000000000000000000005f82015250565b5f610aa66013836108d7565b9150610ab182610a72565b602082019050919050565b5f6020820190508181035f830152610ad381610a9a565b9050919050565b7f796f75722062616c616e6365206973207a65726f0000000000000000000000005f82015250565b5f610b0e6014836108d7565b9150610b1982610ada565b602082019050919050565b5f6020820190508181035f830152610b3b81610b02565b9050919050565b5f610b4c826107e4565b9150610b57836107e4565b9250828202610b65816107e4565b91508282048414831517610b7c57610b7b6109df565b5b5092915050565b7f4e487b71000000000000000000000000000000000000000000000000000000005f52601260045260245ffd5b5f610bba826107e4565b9150610bc5836107e4565b925082610bd557610bd4610b83565b5b828204905092915050565b7f73656c6c6572206973206e6f74207265676973746572656400000000000000005f82015250565b5f610c146018836108d7565b9150610c1f82610be0565b602082019050919050565b5f6020820190508181035f830152610c4181610c08565b9050919050565b7f6275796572206973206e6f7420726567697374657265640000000000000000005f82015250565b5f610c7c6017836108d7565b9150610c8782610c48565b602082019050919050565b5f6020820190508181035f830152610ca981610c70565b9050919050565b7f73656c6c657220616e642062757965722063616e74206265206f6e65207065725f8201527f736f6e0000000000000000000000000000000000000000000000000000000000602082015250565b5f610d0a6023836108d7565b9150610d1582610cb0565b604082019050919050565b5f6020820190508181035f830152610d3781610cfe565b9050919050565b7f73656c6c657220616e6420627579657220626f746820617265206e6f742072655f8201527f6769737465726564000000000000000000000000000000000000000000000000602082015250565b5f610d986028836108d7565b9150610da382610d3e565b604082019050919050565b5f6020820190508181035f830152610dc581610d8c565b905091905056fe6974656d2077696c6c2062652073656e7420746f20796f757220616464726573736974656d2077696c6c206265207368697070656420746f207468652062757965722061646472657373a26469706673582212203a9133628a22425dc05d0e321094729749aed604816dcefc2b681891f6b969ff64736f6c63430008140033",
					"opcodes": "PUSH1 0x80 PUSH1 0x40 MSTORE CALLVALUE DUP1 ISZERO PUSH2 0xF JUMPI PUSH0 DUP1 REVERT JUMPDEST POP PUSH1 0x40 MLOAD PUSH2 0xEF9 CODESIZE SUB DUP1 PUSH2 0xEF9 DUP4 CODECOPY DUP2 DUP2 ADD PUSH1 0x40 MSTORE DUP2 ADD SWAP1 PUSH2 0x31 SWAP2 SWAP1 PUSH2 0x75 JUMP JUMPDEST DUP1 PUSH1 0x1 DUP2 SWAP1 SSTORE POP POP PUSH2 0xA0 JUMP JUMPDEST PUSH0 DUP1 REVERT JUMPDEST PUSH0 DUP2 SWAP1 POP SWAP2 SWAP1 POP JUMP JUMPDEST PUSH2 0x54 DUP2 PUSH2 0x42 JUMP JUMPDEST DUP2 EQ PUSH2 0x5E JUMPI PUSH0 DUP1 REVERT JUMPDEST POP JUMP JUMPDEST PUSH0 DUP2 MLOAD SWAP1 POP PUSH2 0x6F DUP2 PUSH2 0x4B JUMP JUMPDEST SWAP3 SWAP2 POP POP JUMP JUMPDEST PUSH0 PUSH1 0x20 DUP3 DUP5 SUB SLT ISZERO PUSH2 0x8A JUMPI PUSH2 0x89 PUSH2 0x3E JUMP JUMPDEST JUMPDEST PUSH0 PUSH2 0x97 DUP5 DUP3 DUP6 ADD PUSH2 0x61 JUMP JUMPDEST SWAP2 POP POP SWAP3 SWAP2 POP POP JUMP JUMPDEST PUSH2 0xE4C DUP1 PUSH2 0xAD PUSH0 CODECOPY PUSH0 RETURN INVALID PUSH1 0x80 PUSH1 0x40 MSTORE CALLVALUE DUP1 ISZERO PUSH2 0xF JUMPI PUSH0 DUP1 REVERT JUMPDEST POP PUSH1 0x4 CALLDATASIZE LT PUSH2 0x4A JUMPI PUSH0 CALLDATALOAD PUSH1 0xE0 SHR DUP1 PUSH4 0x153E66E6 EQ PUSH2 0x4E JUMPI DUP1 PUSH4 0x6D705EBB EQ PUSH2 0x6A JUMPI DUP1 PUSH4 0xC6E9CE84 EQ PUSH2 0x86 JUMPI DUP1 PUSH4 0xCAE270B6 EQ PUSH2 0xA4 JUMPI JUMPDEST PUSH0 DUP1 REVERT JUMPDEST PUSH2 0x68 PUSH1 0x4 DUP1 CALLDATASIZE SUB DUP2 ADD SWAP1 PUSH2 0x63 SWAP2 SWAP1 PUSH2 0x817 JUMP JUMPDEST PUSH2 0xD4 JUMP JUMPDEST STOP JUMPDEST PUSH2 0x84 PUSH1 0x4 DUP1 CALLDATASIZE SUB DUP2 ADD SWAP1 PUSH2 0x7F SWAP2 SWAP1 PUSH2 0x867 JUMP JUMPDEST PUSH2 0x2DE JUMP JUMPDEST STOP JUMPDEST PUSH2 0x8E PUSH2 0x365 JUMP JUMPDEST PUSH1 0x40 MLOAD PUSH2 0x9B SWAP2 SWAP1 PUSH2 0x8B4 JUMP JUMPDEST PUSH1 0x40 MLOAD DUP1 SWAP2 SUB SWAP1 RETURN JUMPDEST PUSH2 0xBE PUSH1 0x4 DUP1 CALLDATASIZE SUB DUP2 ADD SWAP1 PUSH2 0xB9 SWAP2 SWAP1 PUSH2 0x817 JUMP JUMPDEST PUSH2 0x36B JUMP JUMPDEST PUSH1 0x40 MLOAD PUSH2 0xCB SWAP2 SWAP1 PUSH2 0x957 JUMP JUMPDEST PUSH1 0x40 MLOAD DUP1 SWAP2 SUB SWAP1 RETURN JUMPDEST PUSH0 DUP1 PUSH0 DUP6 PUSH20 0xFFFFFFFFFFFFFFFFFFFFFFFFFFFFFFFFFFFFFFFF AND PUSH20 0xFFFFFFFFFFFFFFFFFFFFFFFFFFFFFFFFFFFFFFFF AND DUP2 MSTORE PUSH1 0x20 ADD SWAP1 DUP2 MSTORE PUSH1 0x20 ADD PUSH0 KECCAK256 SLOAD SUB PUSH2 0x152 JUMPI PUSH1 0x40 MLOAD PUSH32 0x8C379A000000000000000000000000000000000000000000000000000000000 DUP2 MSTORE PUSH1 0x4 ADD PUSH2 0x149 SWAP1 PUSH2 0x9C1 JUMP JUMPDEST PUSH1 0x40 MLOAD DUP1 SWAP2 SUB SWAP1 REVERT JUMPDEST PUSH0 DUP1 PUSH0 DUP5 PUSH20 0xFFFFFFFFFFFFFFFFFFFFFFFFFFFFFFFFFFFFFFFF AND PUSH20 0xFFFFFFFFFFFFFFFFFFFFFFFFFFFFFFFFFFFFFFFF AND DUP2 MSTORE PUSH1 0x20 ADD SWAP1 DUP2 MSTORE PUSH1 0x20 ADD PUSH0 KECCAK256 SLOAD SUB PUSH2 0x1D0 JUMPI PUSH1 0x40 MLOAD PUSH32 0x8C379A000000000000000000000000000000000000000000000000000000000 DUP2 MSTORE PUSH1 0x4 ADD PUSH2 0x1C7 SWAP1 PUSH2 0x9C1 JUMP JUMPDEST PUSH1 0x40 MLOAD DUP1 SWAP2 SUB SWAP1 REVERT JUMPDEST DUP1 PUSH0 DUP1 DUP6 PUSH20 0xFFFFFFFFFFFFFFFFFFFFFFFFFFFFFFFFFFFFFFFF AND PUSH20 0xFFFFFFFFFFFFFFFFFFFFFFFFFFFFFFFFFFFFFFFF AND DUP2 MSTORE PUSH1 0x20 ADD SWAP1 DUP2 MSTORE PUSH1 0x20 ADD PUSH0 KECCAK256 PUSH0 DUP3 DUP3 SLOAD PUSH2 0x21B SWAP2 SWAP1 PUSH2 0xA0C JUMP JUMPDEST SWAP3 POP POP DUP2 SWAP1 SSTORE POP DUP1 PUSH0 DUP1 DUP5 PUSH20 0xFFFFFFFFFFFFFFFFFFFFFFFFFFFFFFFFFFFFFFFF AND PUSH20 0xFFFFFFFFFFFFFFFFFFFFFFFFFFFFFFFFFFFFFFFF AND DUP2 MSTORE PUSH1 0x20 ADD SWAP1 DUP2 MSTORE PUSH1 0x20 ADD PUSH0 KECCAK256 PUSH0 DUP3 DUP3 SLOAD PUSH2 0x26D SWAP2 SWAP1 PUSH2 0xA3F JUMP JUMPDEST SWAP3 POP POP DUP2 SWAP1 SSTORE POP DUP3 PUSH20 0xFFFFFFFFFFFFFFFFFFFFFFFFFFFFFFFFFFFFFFFF AND DUP3 PUSH20 0xFFFFFFFFFFFFFFFFFFFFFFFFFFFFFFFFFFFFFFFF AND PUSH32 0x640441567A63F93BB708D33DF4FB558CCF2EC59F306CC74B9BED436C9354D203 DUP4 PUSH1 0x40 MLOAD PUSH2 0x2D1 SWAP2 SWAP1 PUSH2 0x8B4 JUMP JUMPDEST PUSH1 0x40 MLOAD DUP1 SWAP2 SUB SWAP1 LOG3 POP POP POP JUMP JUMPDEST PUSH0 DUP2 SUB PUSH2 0x320 JUMPI PUSH1 0x40 MLOAD PUSH32 0x8C379A000000000000000000000000000000000000000000000000000000000 DUP2 MSTORE PUSH1 0x4 ADD PUSH2 0x317 SWAP1 PUSH2 0xABC JUMP JUMPDEST PUSH1 0x40 MLOAD DUP1 SWAP2 SUB SWAP1 REVERT JUMPDEST DUP1 PUSH0 DUP1 DUP5 PUSH20 0xFFFFFFFFFFFFFFFFFFFFFFFFFFFFFFFFFFFFFFFF AND PUSH20 0xFFFFFFFFFFFFFFFFFFFFFFFFFFFFFFFFFFFFFFFF AND DUP2 MSTORE PUSH1 0x20 ADD SWAP1 DUP2 MSTORE PUSH1 0x20 ADD PUSH0 KECCAK256 DUP2 SWAP1 SSTORE POP POP POP JUMP JUMPDEST PUSH1 0x1 SLOAD DUP2 JUMP JUMPDEST PUSH1 0x60 PUSH2 0x378 DUP5 DUP5 DUP5 PUSH2 0x4DB JUMP JUMPDEST POP PUSH0 DUP1 PUSH0 DUP7 PUSH20 0xFFFFFFFFFFFFFFFFFFFFFFFFFFFFFFFFFFFFFFFF AND PUSH20 0xFFFFFFFFFFFFFFFFFFFFFFFFFFFFFFFFFFFFFFFF AND DUP2 MSTORE PUSH1 0x20 ADD SWAP1 DUP2 MSTORE PUSH1 0x20 ADD PUSH0 KECCAK256 SLOAD EQ PUSH2 0x3F7 JUMPI PUSH1 0x40 MLOAD PUSH32 0x8C379A000000000000000000000000000000000000000000000000000000000 DUP2 MSTORE PUSH1 0x4 ADD PUSH2 0x3EE SWAP1 PUSH2 0xB24 JUMP JUMPDEST PUSH1 0x40 MLOAD DUP1 SWAP2 SUB SWAP1 REVERT JUMPDEST PUSH0 PUSH1 0x64 PUSH1 0x1 SLOAD DUP5 PUSH2 0x408 SWAP2 SWAP1 PUSH2 0xB42 JUMP JUMPDEST PUSH2 0x412 SWAP2 SWAP1 PUSH2 0xBB0 JUMP JUMPDEST SWAP1 POP DUP1 PUSH0 DUP1 DUP8 PUSH20 0xFFFFFFFFFFFFFFFFFFFFFFFFFFFFFFFFFFFFFFFF AND PUSH20 0xFFFFFFFFFFFFFFFFFFFFFFFFFFFFFFFFFFFFFFFF AND DUP2 MSTORE PUSH1 0x20 ADD SWAP1 DUP2 MSTORE PUSH1 0x20 ADD PUSH0 KECCAK256 PUSH0 DUP3 DUP3 SLOAD PUSH2 0x45F SWAP2 SWAP1 PUSH2 0xA3F JUMP JUMPDEST SWAP3 POP POP DUP2 SWAP1 SSTORE POP DUP1 PUSH0 DUP1 ADDRESS PUSH20 0xFFFFFFFFFFFFFFFFFFFFFFFFFFFFFFFFFFFFFFFF AND PUSH20 0xFFFFFFFFFFFFFFFFFFFFFFFFFFFFFFFFFFFFFFFF AND DUP2 MSTORE PUSH1 0x20 ADD SWAP1 DUP2 MSTORE PUSH1 0x20 ADD PUSH0 KECCAK256 PUSH0 DUP3 DUP3 SLOAD PUSH2 0x4B1 SWAP2 SWAP1 PUSH2 0xA0C JUMP JUMPDEST SWAP3 POP POP DUP2 SWAP1 SSTORE POP PUSH1 0x40 MLOAD DUP1 PUSH1 0x60 ADD PUSH1 0x40 MSTORE DUP1 PUSH1 0x21 DUP2 MSTORE PUSH1 0x20 ADD PUSH2 0xDCD PUSH1 0x21 SWAP2 CODECOPY SWAP2 POP POP SWAP4 SWAP3 POP POP POP JUMP JUMPDEST PUSH1 0x60 PUSH0 DUP3 SUB PUSH2 0x4E8 JUMPI PUSH0 DUP1 REVERT JUMPDEST PUSH0 DUP1 PUSH0 DUP7 PUSH20 0xFFFFFFFFFFFFFFFFFFFFFFFFFFFFFFFFFFFFFFFF AND PUSH20 0xFFFFFFFFFFFFFFFFFFFFFFFFFFFFFFFFFFFFFFFF AND DUP2 MSTORE PUSH1 0x20 ADD SWAP1 DUP2 MSTORE PUSH1 0x20 ADD PUSH0 KECCAK256 SLOAD SUB PUSH2 0x566 JUMPI PUSH1 0x40 MLOAD PUSH32 0x571C8DE700000000000000000000000000000000000000000000000000000000 DUP2 MSTORE PUSH1 0x4 ADD PUSH2 0x55D SWAP1 PUSH2 0xC2A JUMP JUMPDEST PUSH1 0x40 MLOAD DUP1 SWAP2 SUB SWAP1 REVERT JUMPDEST PUSH0 DUP1 PUSH0 DUP6 PUSH20 0xFFFFFFFFFFFFFFFFFFFFFFFFFFFFFFFFFFFFFFFF AND PUSH20 0xFFFFFFFFFFFFFFFFFFFFFFFFFFFFFFFFFFFFFFFF AND DUP2 MSTORE PUSH1 0x20 ADD SWAP1 DUP2 MSTORE PUSH1 0x20 ADD PUSH0 KECCAK256 SLOAD SUB PUSH2 0x5E4 JUMPI PUSH1 0x40 MLOAD PUSH32 0x571C8DE700000000000000000000000000000000000000000000000000000000 DUP2 MSTORE PUSH1 0x4 ADD PUSH2 0x5DB SWAP1 PUSH2 0xC92 JUMP JUMPDEST PUSH1 0x40 MLOAD DUP1 SWAP2 SUB SWAP1 REVERT JUMPDEST PUSH0 DUP1 DUP5 PUSH20 0xFFFFFFFFFFFFFFFFFFFFFFFFFFFFFFFFFFFFFFFF AND PUSH20 0xFFFFFFFFFFFFFFFFFFFFFFFFFFFFFFFFFFFFFFFF AND DUP2 MSTORE PUSH1 0x20 ADD SWAP1 DUP2 MSTORE PUSH1 0x20 ADD PUSH0 KECCAK256 SLOAD PUSH0 DUP1 DUP7 PUSH20 0xFFFFFFFFFFFFFFFFFFFFFFFFFFFFFFFFFFFFFFFF AND PUSH20 0xFFFFFFFFFFFFFFFFFFFFFFFFFFFFFFFFFFFFFFFF AND DUP2 MSTORE PUSH1 0x20 ADD SWAP1 DUP2 MSTORE PUSH1 0x20 ADD PUSH0 KECCAK256 SLOAD SUB PUSH2 0x69E JUMPI PUSH1 0x40 MLOAD PUSH32 0x571C8DE700000000000000000000000000000000000000000000000000000000 DUP2 MSTORE PUSH1 0x4 ADD PUSH2 0x695 SWAP1 PUSH2 0xD20 JUMP JUMPDEST PUSH1 0x40 MLOAD DUP1 SWAP2 SUB SWAP1 REVERT JUMPDEST PUSH0 DUP1 PUSH0 DUP7 PUSH20 0xFFFFFFFFFFFFFFFFFFFFFFFFFFFFFFFFFFFFFFFF AND PUSH20 0xFFFFFFFFFFFFFFFFFFFFFFFFFFFFFFFFFFFFFFFF AND DUP2 MSTORE PUSH1 0x20 ADD SWAP1 DUP2 MSTORE PUSH1 0x20 ADD PUSH0 KECCAK256 SLOAD EQ DUP1 ISZERO PUSH2 0x724 JUMPI POP PUSH0 DUP1 PUSH0 DUP6 PUSH20 0xFFFFFFFFFFFFFFFFFFFFFFFFFFFFFFFFFFFFFFFF AND PUSH20 0xFFFFFFFFFFFFFFFFFFFFFFFFFFFFFFFFFFFFFFFF AND DUP2 MSTORE PUSH1 0x20 ADD SWAP1 DUP2 MSTORE PUSH1 0x20 ADD PUSH0 KECCAK256 SLOAD EQ JUMPDEST ISZERO PUSH2 0x764 JUMPI PUSH1 0x40 MLOAD PUSH32 0x571C8DE700000000000000000000000000000000000000000000000000000000 DUP2 MSTORE PUSH1 0x4 ADD PUSH2 0x75B SWAP1 PUSH2 0xDAE JUMP JUMPDEST PUSH1 0x40 MLOAD DUP1 SWAP2 SUB SWAP1 REVERT JUMPDEST PUSH1 0x40 MLOAD DUP1 PUSH1 0x60 ADD PUSH1 0x40 MSTORE DUP1 PUSH1 0x29 DUP2 MSTORE PUSH1 0x20 ADD PUSH2 0xDEE PUSH1 0x29 SWAP2 CODECOPY SWAP1 POP SWAP4 SWAP3 POP POP POP JUMP JUMPDEST PUSH0 DUP1 REVERT JUMPDEST PUSH0 PUSH20 0xFFFFFFFFFFFFFFFFFFFFFFFFFFFFFFFFFFFFFFFF DUP3 AND SWAP1 POP SWAP2 SWAP1 POP JUMP JUMPDEST PUSH0 PUSH2 0x7B3 DUP3 PUSH2 0x78A JUMP JUMPDEST SWAP1 POP SWAP2 SWAP1 POP JUMP JUMPDEST PUSH2 0x7C3 DUP2 PUSH2 0x7A9 JUMP JUMPDEST DUP2 EQ PUSH2 0x7CD JUMPI PUSH0 DUP1 REVERT JUMPDEST POP JUMP JUMPDEST PUSH0 DUP2 CALLDATALOAD SWAP1 POP PUSH2 0x7DE DUP2 PUSH2 0x7BA JUMP JUMPDEST SWAP3 SWAP2 POP POP JUMP JUMPDEST PUSH0 DUP2 SWAP1 POP SWAP2 SWAP1 POP JUMP JUMPDEST PUSH2 0x7F6 DUP2 PUSH2 0x7E4 JUMP JUMPDEST DUP2 EQ PUSH2 0x800 JUMPI PUSH0 DUP1 REVERT JUMPDEST POP JUMP JUMPDEST PUSH0 DUP2 CALLDATALOAD SWAP1 POP PUSH2 0x811 DUP2 PUSH2 0x7ED JUMP JUMPDEST SWAP3 SWAP2 POP POP JUMP JUMPDEST PUSH0 DUP1 PUSH0 PUSH1 0x60 DUP5 DUP7 SUB SLT ISZERO PUSH2 0x82E JUMPI PUSH2 0x82D PUSH2 0x786 JUMP JUMPDEST JUMPDEST PUSH0 PUSH2 0x83B DUP7 DUP3 DUP8 ADD PUSH2 0x7D0 JUMP JUMPDEST SWAP4 POP POP PUSH1 0x20 PUSH2 0x84C DUP7 DUP3 DUP8 ADD PUSH2 0x7D0 JUMP JUMPDEST SWAP3 POP POP PUSH1 0x40 PUSH2 0x85D DUP7 DUP3 DUP8 ADD PUSH2 0x803 JUMP JUMPDEST SWAP2 POP POP SWAP3 POP SWAP3 POP SWAP3 JUMP JUMPDEST PUSH0 DUP1 PUSH1 0x40 DUP4 DUP6 SUB SLT ISZERO PUSH2 0x87D JUMPI PUSH2 0x87C PUSH2 0x786 JUMP JUMPDEST JUMPDEST PUSH0 PUSH2 0x88A DUP6 DUP3 DUP7 ADD PUSH2 0x7D0 JUMP JUMPDEST SWAP3 POP POP PUSH1 0x20 PUSH2 0x89B DUP6 DUP3 DUP7 ADD PUSH2 0x803 JUMP JUMPDEST SWAP2 POP POP SWAP3 POP SWAP3 SWAP1 POP JUMP JUMPDEST PUSH2 0x8AE DUP2 PUSH2 0x7E4 JUMP JUMPDEST DUP3 MSTORE POP POP JUMP JUMPDEST PUSH0 PUSH1 0x20 DUP3 ADD SWAP1 POP PUSH2 0x8C7 PUSH0 DUP4 ADD DUP5 PUSH2 0x8A5 JUMP JUMPDEST SWAP3 SWAP2 POP POP JUMP JUMPDEST PUSH0 DUP2 MLOAD SWAP1 POP SWAP2 SWAP1 POP JUMP JUMPDEST PUSH0 DUP3 DUP3 MSTORE PUSH1 0x20 DUP3 ADD SWAP1 POP SWAP3 SWAP2 POP POP JUMP JUMPDEST PUSH0 JUMPDEST DUP4 DUP2 LT ISZERO PUSH2 0x904 JUMPI DUP1 DUP3 ADD MLOAD DUP2 DUP5 ADD MSTORE PUSH1 0x20 DUP2 ADD SWAP1 POP PUSH2 0x8E9 JUMP JUMPDEST PUSH0 DUP5 DUP5 ADD MSTORE POP POP POP POP JUMP JUMPDEST PUSH0 PUSH1 0x1F NOT PUSH1 0x1F DUP4 ADD AND SWAP1 POP SWAP2 SWAP1 POP JUMP JUMPDEST PUSH0 PUSH2 0x929 DUP3 PUSH2 0x8CD JUMP JUMPDEST PUSH2 0x933 DUP2 DUP6 PUSH2 0x8D7 JUMP JUMPDEST SWAP4 POP PUSH2 0x943 DUP2 DUP6 PUSH1 0x20 DUP7 ADD PUSH2 0x8E7 JUMP JUMPDEST PUSH2 0x94C DUP2 PUSH2 0x90F JUMP JUMPDEST DUP5 ADD SWAP2 POP POP SWAP3 SWAP2 POP POP JUMP JUMPDEST PUSH0 PUSH1 0x20 DUP3 ADD SWAP1 POP DUP2 DUP2 SUB PUSH0 DUP4 ADD MSTORE PUSH2 0x96F DUP2 DUP5 PUSH2 0x91F JUMP JUMPDEST SWAP1 POP SWAP3 SWAP2 POP POP JUMP JUMPDEST PUSH32 0x706C656173652072656769737465722066697273740000000000000000000000 PUSH0 DUP3 ADD MSTORE POP JUMP JUMPDEST PUSH0 PUSH2 0x9AB PUSH1 0x15 DUP4 PUSH2 0x8D7 JUMP JUMPDEST SWAP2 POP PUSH2 0x9B6 DUP3 PUSH2 0x977 JUMP JUMPDEST PUSH1 0x20 DUP3 ADD SWAP1 POP SWAP2 SWAP1 POP JUMP JUMPDEST PUSH0 PUSH1 0x20 DUP3 ADD SWAP1 POP DUP2 DUP2 SUB PUSH0 DUP4 ADD MSTORE PUSH2 0x9D8 DUP2 PUSH2 0x99F JUMP JUMPDEST SWAP1 POP SWAP2 SWAP1 POP JUMP JUMPDEST PUSH32 0x4E487B7100000000000000000000000000000000000000000000000000000000 PUSH0 MSTORE PUSH1 0x11 PUSH1 0x4 MSTORE PUSH1 0x24 PUSH0 REVERT JUMPDEST PUSH0 PUSH2 0xA16 DUP3 PUSH2 0x7E4 JUMP JUMPDEST SWAP2 POP PUSH2 0xA21 DUP4 PUSH2 0x7E4 JUMP JUMPDEST SWAP3 POP DUP3 DUP3 ADD SWAP1 POP DUP1 DUP3 GT ISZERO PUSH2 0xA39 JUMPI PUSH2 0xA38 PUSH2 0x9DF JUMP JUMPDEST JUMPDEST SWAP3 SWAP2 POP POP JUMP JUMPDEST PUSH0 PUSH2 0xA49 DUP3 PUSH2 0x7E4 JUMP JUMPDEST SWAP2 POP PUSH2 0xA54 DUP4 PUSH2 0x7E4 JUMP JUMPDEST SWAP3 POP DUP3 DUP3 SUB SWAP1 POP DUP2 DUP2 GT ISZERO PUSH2 0xA6C JUMPI PUSH2 0xA6B PUSH2 0x9DF JUMP JUMPDEST JUMPDEST SWAP3 SWAP2 POP POP JUMP JUMPDEST PUSH32 0x76616C75652063616E2774206265207A65726F00000000000000000000000000 PUSH0 DUP3 ADD MSTORE POP JUMP JUMPDEST PUSH0 PUSH2 0xAA6 PUSH1 0x13 DUP4 PUSH2 0x8D7 JUMP JUMPDEST SWAP2 POP PUSH2 0xAB1 DUP3 PUSH2 0xA72 JUMP JUMPDEST PUSH1 0x20 DUP3 ADD SWAP1 POP SWAP2 SWAP1 POP JUMP JUMPDEST PUSH0 PUSH1 0x20 DUP3 ADD SWAP1 POP DUP2 DUP2 SUB PUSH0 DUP4 ADD MSTORE PUSH2 0xAD3 DUP2 PUSH2 0xA9A JUMP JUMPDEST SWAP1 POP SWAP2 SWAP1 POP JUMP JUMPDEST PUSH32 0x796F75722062616C616E6365206973207A65726F000000000000000000000000 PUSH0 DUP3 ADD MSTORE POP JUMP JUMPDEST PUSH0 PUSH2 0xB0E PUSH1 0x14 DUP4 PUSH2 0x8D7 JUMP JUMPDEST SWAP2 POP PUSH2 0xB19 DUP3 PUSH2 0xADA JUMP JUMPDEST PUSH1 0x20 DUP3 ADD SWAP1 POP SWAP2 SWAP1 POP JUMP JUMPDEST PUSH0 PUSH1 0x20 DUP3 ADD SWAP1 POP DUP2 DUP2 SUB PUSH0 DUP4 ADD MSTORE PUSH2 0xB3B DUP2 PUSH2 0xB02 JUMP JUMPDEST SWAP1 POP SWAP2 SWAP1 POP JUMP JUMPDEST PUSH0 PUSH2 0xB4C DUP3 PUSH2 0x7E4 JUMP JUMPDEST SWAP2 POP PUSH2 0xB57 DUP4 PUSH2 0x7E4 JUMP JUMPDEST SWAP3 POP DUP3 DUP3 MUL PUSH2 0xB65 DUP2 PUSH2 0x7E4 JUMP JUMPDEST SWAP2 POP DUP3 DUP3 DIV DUP5 EQ DUP4 ISZERO OR PUSH2 0xB7C JUMPI PUSH2 0xB7B PUSH2 0x9DF JUMP JUMPDEST JUMPDEST POP SWAP3 SWAP2 POP POP JUMP JUMPDEST PUSH32 0x4E487B7100000000000000000000000000000000000000000000000000000000 PUSH0 MSTORE PUSH1 0x12 PUSH1 0x4 MSTORE PUSH1 0x24 PUSH0 REVERT JUMPDEST PUSH0 PUSH2 0xBBA DUP3 PUSH2 0x7E4 JUMP JUMPDEST SWAP2 POP PUSH2 0xBC5 DUP4 PUSH2 0x7E4 JUMP JUMPDEST SWAP3 POP DUP3 PUSH2 0xBD5 JUMPI PUSH2 0xBD4 PUSH2 0xB83 JUMP JUMPDEST JUMPDEST DUP3 DUP3 DIV SWAP1 POP SWAP3 SWAP2 POP POP JUMP JUMPDEST PUSH32 0x73656C6C6572206973206E6F7420726567697374657265640000000000000000 PUSH0 DUP3 ADD MSTORE POP JUMP JUMPDEST PUSH0 PUSH2 0xC14 PUSH1 0x18 DUP4 PUSH2 0x8D7 JUMP JUMPDEST SWAP2 POP PUSH2 0xC1F DUP3 PUSH2 0xBE0 JUMP JUMPDEST PUSH1 0x20 DUP3 ADD SWAP1 POP SWAP2 SWAP1 POP JUMP JUMPDEST PUSH0 PUSH1 0x20 DUP3 ADD SWAP1 POP DUP2 DUP2 SUB PUSH0 DUP4 ADD MSTORE PUSH2 0xC41 DUP2 PUSH2 0xC08 JUMP JUMPDEST SWAP1 POP SWAP2 SWAP1 POP JUMP JUMPDEST PUSH32 0x6275796572206973206E6F742072656769737465726564000000000000000000 PUSH0 DUP3 ADD MSTORE POP JUMP JUMPDEST PUSH0 PUSH2 0xC7C PUSH1 0x17 DUP4 PUSH2 0x8D7 JUMP JUMPDEST SWAP2 POP PUSH2 0xC87 DUP3 PUSH2 0xC48 JUMP JUMPDEST PUSH1 0x20 DUP3 ADD SWAP1 POP SWAP2 SWAP1 POP JUMP JUMPDEST PUSH0 PUSH1 0x20 DUP3 ADD SWAP1 POP DUP2 DUP2 SUB PUSH0 DUP4 ADD MSTORE PUSH2 0xCA9 DUP2 PUSH2 0xC70 JUMP JUMPDEST SWAP1 POP SWAP2 SWAP1 POP JUMP JUMPDEST PUSH32 0x73656C6C657220616E642062757965722063616E74206265206F6E6520706572 PUSH0 DUP3 ADD MSTORE PUSH32 0x736F6E0000000000000000000000000000000000000000000000000000000000 PUSH1 0x20 DUP3 ADD MSTORE POP JUMP JUMPDEST PUSH0 PUSH2 0xD0A PUSH1 0x23 DUP4 PUSH2 0x8D7 JUMP JUMPDEST SWAP2 POP PUSH2 0xD15 DUP3 PUSH2 0xCB0 JUMP JUMPDEST PUSH1 0x40 DUP3 ADD SWAP1 POP SWAP2 SWAP1 POP JUMP JUMPDEST PUSH0 PUSH1 0x20 DUP3 ADD SWAP1 POP DUP2 DUP2 SUB PUSH0 DUP4 ADD MSTORE PUSH2 0xD37 DUP2 PUSH2 0xCFE JUMP JUMPDEST SWAP1 POP SWAP2 SWAP1 POP JUMP JUMPDEST PUSH32 0x73656C6C657220616E6420627579657220626F746820617265206E6F74207265 PUSH0 DUP3 ADD MSTORE PUSH32 0x6769737465726564000000000000000000000000000000000000000000000000 PUSH1 0x20 DUP3 ADD MSTORE POP JUMP JUMPDEST PUSH0 PUSH2 0xD98 PUSH1 0x28 DUP4 PUSH2 0x8D7 JUMP JUMPDEST SWAP2 POP PUSH2 0xDA3 DUP3 PUSH2 0xD3E JUMP JUMPDEST PUSH1 0x40 DUP3 ADD SWAP1 POP SWAP2 SWAP1 POP JUMP JUMPDEST PUSH0 PUSH1 0x20 DUP3 ADD SWAP1 POP DUP2 DUP2 SUB PUSH0 DUP4 ADD MSTORE PUSH2 0xDC5 DUP2 PUSH2 0xD8C JUMP JUMPDEST SWAP1 POP SWAP2 SWAP1 POP JUMP INVALID PUSH10 0x74656D2077696C6C2062 PUSH6 0x2073656E7420 PUSH21 0x6F20796F757220616464726573736974656D207769 PUSH13 0x6C206265207368697070656420 PUSH21 0x6F207468652062757965722061646472657373A264 PUSH10 0x706673582212203A9133 PUSH3 0x8A2242 0x5D 0xC0 0x5D 0xE ORIGIN LT SWAP5 PUSH19 0x9749AED604816DCEFC2B681891F6B969FF6473 PUSH16 0x6C634300081400330000000000000000 "
				},
				"gasEstimates": {
					"creation": {
						"codeDepositCost": "732000",
						"executionCost": "infinite",
						"totalCost": "infinite"
					},
					"external": {
						"buy(address,address,uint256)": "infinite",
						"feepercentage()": "2447",
						"register(address,uint256)": "22844",
						"sell(address,address,uint256)": "infinite"
					}
				},
				"methodIdentifiers": {
					"buy(address,address,uint256)": "153e66e6",
					"feepercentage()": "c6e9ce84",
					"register(address,uint256)": "6d705ebb",
					"sell(address,address,uint256)": "cae270b6"
				}
			},
			"storageLayout": {
				"storage": [
					{
						"astId": 5,
						"contract": "marketplace.sol:PremiumSeller",
						"label": "balance",
						"offset": 0,
						"slot": "0",
						"type": "t_mapping(t_address,t_uint256)"
					},
					{
						"astId": 162,
						"contract": "marketplace.sol:PremiumSeller",
						"label": "feepercentage",
						"offset": 0,
						"slot": "1",
						"type": "t_uint256"
					}
				],
				"types": {
					"t_address": {
						"encoding": "inplace",
						"label": "address",
						"numberOfBytes": "20"
					},
					"t_mapping(t_address,t_uint256)": {
						"encoding": "mapping",
						"key": "t_address",
						"label": "mapping(address => uint256)",
						"numberOfBytes": "32",
						"value": "t_uint256"
					},
					"t_uint256": {
						"encoding": "inplace",
						"label": "uint256",
						"numberOfBytes": "32"
					}
				}
			},
			"userdoc": {
				"kind": "user",
				"methods": {},
				"version": 1
			}
		}
	}
}