{
	"ternaryp.sol": {
		"ternary": {
			"abi": [
				{
					"inputs": [],
					"name": "adult_fee",
					"outputs": [
						{
							"internalType": "uint256",
							"name": "",
							"type": "uint256"
						}
					],
					"stateMutability": "view",
					"type": "function"
				},
				{
					"inputs": [],
					"name": "child_fee",
					"outputs": [
						{
							"internalType": "uint256",
							"name": "",
							"type": "uint256"
						}
					],
					"stateMutability": "view",
					"type": "function"
				},
				{
					"inputs": [],
					"name": "cut_off_age",
					"outputs": [
						{
							"internalType": "uint256",
							"name": "",
							"type": "uint256"
						}
					],
					"stateMutability": "view",
					"type": "function"
				},
				{
					"inputs": [],
					"name": "old_age_fee",
					"outputs": [
						{
							"internalType": "uint256",
							"name": "",
							"type": "uint256"
						}
					],
					"stateMutability": "view",
					"type": "function"
				},
				{
					"inputs": [],
					"name": "old_age_off_age",
					"outputs": [
						{
							"internalType": "uint256",
							"name": "",
							"type": "uint256"
						}
					],
					"stateMutability": "view",
					"type": "function"
				},
				{
					"inputs": [
						{
							"internalType": "uint256",
							"name": "age",
							"type": "uint256"
						},
						{
							"internalType": "bool",
							"name": "isGirl",
							"type": "bool"
						}
					],
					"name": "ter2",
					"outputs": [
						{
							"internalType": "uint256",
							"name": "",
							"type": "uint256"
						},
						{
							"internalType": "string",
							"name": "",
							"type": "string"
						}
					],
					"stateMutability": "pure",
					"type": "function"
				}
			],
			"devdoc": {
				"kind": "dev",
				"methods": {},
				"version": 1
			},
			"evm": {
				"assembly": "    /* \"ternaryp.sol\":60:1787  contract ternary{... */\n  mstore(0x40, 0x80)\n  callvalue\n  dup1\n  iszero\n  tag_1\n  jumpi\n  0x00\n  dup1\n  revert\ntag_1:\n  pop\n  dataSize(sub_0)\n  dup1\n  dataOffset(sub_0)\n  0x00\n  codecopy\n  0x00\n  return\nstop\n\nsub_0: assembly {\n        /* \"ternaryp.sol\":60:1787  contract ternary{... */\n      mstore(0x40, 0x80)\n      callvalue\n      dup1\n      iszero\n      tag_1\n      jumpi\n      0x00\n      dup1\n      revert\n    tag_1:\n      pop\n      jumpi(tag_2, lt(calldatasize, 0x04))\n      shr(0xe0, calldataload(0x00))\n      dup1\n      0x161294ce\n      eq\n      tag_3\n      jumpi\n      dup1\n      0x4106d7f8\n      eq\n      tag_4\n      jumpi\n      dup1\n      0x9db5a37b\n      eq\n      tag_5\n      jumpi\n      dup1\n      0xa39414a2\n      eq\n      tag_6\n      jumpi\n      dup1\n      0xa5314ce0\n      eq\n      tag_7\n      jumpi\n      dup1\n      0xe396344c\n      eq\n      tag_8\n      jumpi\n    tag_2:\n      0x00\n      dup1\n      revert\n        /* \"ternaryp.sol\":175:209  uint public constant child_fee = 0 */\n    tag_3:\n      tag_9\n      tag_10\n      jump\t// in\n    tag_9:\n      mload(0x40)\n      tag_11\n      swap2\n      swap1\n      tag_12\n      jump\t// in\n    tag_11:\n      mload(0x40)\n      dup1\n      swap2\n      sub\n      swap1\n      return\n        /* \"ternaryp.sol\":258:295  uint public constant old_age_fee = 30 */\n    tag_4:\n      tag_13\n      tag_14\n      jump\t// in\n    tag_13:\n      mload(0x40)\n      tag_15\n      swap2\n      swap1\n      tag_12\n      jump\t// in\n    tag_15:\n      mload(0x40)\n      dup1\n      swap2\n      sub\n      swap1\n      return\n        /* \"ternaryp.sol\":83:120  uint public constant cut_off_age = 10 */\n    tag_5:\n      tag_16\n      tag_17\n      jump\t// in\n    tag_16:\n      mload(0x40)\n      tag_18\n      swap2\n      swap1\n      tag_12\n      jump\t// in\n    tag_18:\n      mload(0x40)\n      dup1\n      swap2\n      sub\n      swap1\n      return\n        /* \"ternaryp.sol\":216:251  uint public constant adult_fee = 20 */\n    tag_6:\n      tag_19\n      tag_20\n      jump\t// in\n    tag_19:\n      mload(0x40)\n      tag_21\n      swap2\n      swap1\n      tag_12\n      jump\t// in\n    tag_21:\n      mload(0x40)\n      dup1\n      swap2\n      sub\n      swap1\n      return\n        /* \"ternaryp.sol\":127:168  uint public constant old_age_off_age = 70 */\n    tag_7:\n      tag_22\n      tag_23\n      jump\t// in\n    tag_22:\n      mload(0x40)\n      tag_24\n      swap2\n      swap1\n      tag_12\n      jump\t// in\n    tag_24:\n      mload(0x40)\n      dup1\n      swap2\n      sub\n      swap1\n      return\n        /* \"ternaryp.sol\":1212:1784  function ter2(uint age, bool isGirl) public pure returns (uint, string memory){... */\n    tag_8:\n      tag_25\n      0x04\n      dup1\n      calldatasize\n      sub\n      dup2\n      add\n      swap1\n      tag_26\n      swap2\n      swap1\n      tag_27\n      jump\t// in\n    tag_26:\n      tag_28\n      jump\t// in\n    tag_25:\n      mload(0x40)\n      tag_29\n      swap3\n      swap2\n      swap1\n      tag_30\n      jump\t// in\n    tag_29:\n      mload(0x40)\n      dup1\n      swap2\n      sub\n      swap1\n      return\n        /* \"ternaryp.sol\":175:209  uint public constant child_fee = 0 */\n    tag_10:\n        /* \"ternaryp.sol\":208:209  0 */\n      0x00\n        /* \"ternaryp.sol\":175:209  uint public constant child_fee = 0 */\n      dup2\n      jump\t// out\n        /* \"ternaryp.sol\":258:295  uint public constant old_age_fee = 30 */\n    tag_14:\n        /* \"ternaryp.sol\":293:295  30 */\n      0x1e\n        /* \"ternaryp.sol\":258:295  uint public constant old_age_fee = 30 */\n      dup2\n      jump\t// out\n        /* \"ternaryp.sol\":83:120  uint public constant cut_off_age = 10 */\n    tag_17:\n        /* \"ternaryp.sol\":118:120  10 */\n      0x0a\n        /* \"ternaryp.sol\":83:120  uint public constant cut_off_age = 10 */\n      dup2\n      jump\t// out\n        /* \"ternaryp.sol\":216:251  uint public constant adult_fee = 20 */\n    tag_20:\n        /* \"ternaryp.sol\":249:251  20 */\n      0x14\n        /* \"ternaryp.sol\":216:251  uint public constant adult_fee = 20 */\n      dup2\n      jump\t// out\n        /* \"ternaryp.sol\":127:168  uint public constant old_age_off_age = 70 */\n    tag_23:\n        /* \"ternaryp.sol\":166:168  70 */\n      0x46\n        /* \"ternaryp.sol\":127:168  uint public constant old_age_off_age = 70 */\n      dup2\n      jump\t// out\n        /* \"ternaryp.sol\":1212:1784  function ter2(uint age, bool isGirl) public pure returns (uint, string memory){... */\n    tag_28:\n        /* \"ternaryp.sol\":1270:1274  uint */\n      0x00\n        /* \"ternaryp.sol\":1276:1289  string memory */\n      0x60\n        /* \"ternaryp.sol\":1301:1319  string memory gift */\n      0x00\n        /* \"ternaryp.sol\":1301:1324  string memory gift = \"\" */\n      mload(0x40)\n      dup1\n      0x20\n      add\n      0x40\n      mstore\n      dup1\n      0x00\n      dup2\n      mstore\n      pop\n      swap1\n      pop\n        /* \"ternaryp.sol\":118:120  10 */\n      0x0a\n        /* \"ternaryp.sol\":1491:1494  age */\n      dup6\n        /* \"ternaryp.sol\":1491:1508  age < cut_off_age */\n      lt\n        /* \"ternaryp.sol\":1490:1628  (age < cut_off_age) ? (child_fee, (isGirl) ? \"barbie doll\" : \"toy gun\") : (age > old_age_off_age) ? (old_age_fee, gift): (adult_fee, gift) */\n      tag_32\n      jumpi\n        /* \"ternaryp.sol\":166:168  70 */\n      0x46\n        /* \"ternaryp.sol\":1565:1568  age */\n      dup6\n        /* \"ternaryp.sol\":1565:1586  age > old_age_off_age */\n      gt\n        /* \"ternaryp.sol\":1564:1628  (age > old_age_off_age) ? (old_age_fee, gift): (adult_fee, gift) */\n      tag_33\n      jumpi\n        /* \"ternaryp.sol\":249:251  20 */\n      0x14\n        /* \"ternaryp.sol\":1623:1627  gift */\n      dup2\n        /* \"ternaryp.sol\":1564:1628  (age > old_age_off_age) ? (old_age_fee, gift): (adult_fee, gift) */\n      jump(tag_34)\n    tag_33:\n        /* \"ternaryp.sol\":293:295  30 */\n      0x1e\n        /* \"ternaryp.sol\":1604:1608  gift */\n      dup2\n        /* \"ternaryp.sol\":1564:1628  (age > old_age_off_age) ? (old_age_fee, gift): (adult_fee, gift) */\n    tag_34:\n        /* \"ternaryp.sol\":1490:1628  (age < cut_off_age) ? (child_fee, (isGirl) ? \"barbie doll\" : \"toy gun\") : (age > old_age_off_age) ? (old_age_fee, gift): (adult_fee, gift) */\n      jump(tag_35)\n    tag_32:\n        /* \"ternaryp.sol\":208:209  0 */\n      0x00\n        /* \"ternaryp.sol\":1525:1531  isGirl */\n      dup5\n        /* \"ternaryp.sol\":1524:1560  (isGirl) ? \"barbie doll\" : \"toy gun\" */\n      tag_36\n      jumpi\n      mload(0x40)\n      dup1\n      0x40\n      add\n      0x40\n      mstore\n      dup1\n      0x07\n      dup2\n      mstore\n      0x20\n      add\n      0x746f792067756e00000000000000000000000000000000000000000000000000\n      dup2\n      mstore\n      pop\n      jump(tag_37)\n    tag_36:\n      mload(0x40)\n      dup1\n      0x40\n      add\n      0x40\n      mstore\n      dup1\n      0x0b\n      dup2\n      mstore\n      0x20\n      add\n      0x62617262696520646f6c6c000000000000000000000000000000000000000000\n      dup2\n      mstore\n      pop\n    tag_37:\n        /* \"ternaryp.sol\":1490:1628  (age < cut_off_age) ? (child_fee, (isGirl) ? \"barbie doll\" : \"toy gun\") : (age > old_age_off_age) ? (old_age_fee, gift): (adult_fee, gift) */\n    tag_35:\n        /* \"ternaryp.sol\":1483:1628  return (age < cut_off_age) ? (child_fee, (isGirl) ? \"barbie doll\" : \"toy gun\") : (age > old_age_off_age) ? (old_age_fee, gift): (adult_fee, gift) */\n      swap3\n      pop\n      swap3\n      pop\n      pop\n        /* \"ternaryp.sol\":1212:1784  function ter2(uint age, bool isGirl) public pure returns (uint, string memory){... */\n      swap3\n      pop\n      swap3\n      swap1\n      pop\n      jump\t// out\n        /* \"#utility.yul\":7:84   */\n    tag_38:\n        /* \"#utility.yul\":44:51   */\n      0x00\n        /* \"#utility.yul\":73:78   */\n      dup2\n        /* \"#utility.yul\":62:78   */\n      swap1\n      pop\n        /* \"#utility.yul\":7:84   */\n      swap2\n      swap1\n      pop\n      jump\t// out\n        /* \"#utility.yul\":90:208   */\n    tag_39:\n        /* \"#utility.yul\":177:201   */\n      tag_56\n        /* \"#utility.yul\":195:200   */\n      dup2\n        /* \"#utility.yul\":177:201   */\n      tag_38\n      jump\t// in\n    tag_56:\n        /* \"#utility.yul\":172:175   */\n      dup3\n        /* \"#utility.yul\":165:202   */\n      mstore\n        /* \"#utility.yul\":90:208   */\n      pop\n      pop\n      jump\t// out\n        /* \"#utility.yul\":214:436   */\n    tag_12:\n        /* \"#utility.yul\":307:311   */\n      0x00\n        /* \"#utility.yul\":345:347   */\n      0x20\n        /* \"#utility.yul\":334:343   */\n      dup3\n        /* \"#utility.yul\":330:348   */\n      add\n        /* \"#utility.yul\":322:348   */\n      swap1\n      pop\n        /* \"#utility.yul\":358:429   */\n      tag_58\n        /* \"#utility.yul\":426:427   */\n      0x00\n        /* \"#utility.yul\":415:424   */\n      dup4\n        /* \"#utility.yul\":411:428   */\n      add\n        /* \"#utility.yul\":402:408   */\n      dup5\n        /* \"#utility.yul\":358:429   */\n      tag_39\n      jump\t// in\n    tag_58:\n        /* \"#utility.yul\":214:436   */\n      swap3\n      swap2\n      pop\n      pop\n      jump\t// out\n        /* \"#utility.yul\":523:640   */\n    tag_41:\n        /* \"#utility.yul\":632:633   */\n      0x00\n        /* \"#utility.yul\":629:630   */\n      dup1\n        /* \"#utility.yul\":622:634   */\n      revert\n        /* \"#utility.yul\":769:891   */\n    tag_43:\n        /* \"#utility.yul\":842:866   */\n      tag_63\n        /* \"#utility.yul\":860:865   */\n      dup2\n        /* \"#utility.yul\":842:866   */\n      tag_38\n      jump\t// in\n    tag_63:\n        /* \"#utility.yul\":835:840   */\n      dup2\n        /* \"#utility.yul\":832:867   */\n      eq\n        /* \"#utility.yul\":822:885   */\n      tag_64\n      jumpi\n        /* \"#utility.yul\":881:882   */\n      0x00\n        /* \"#utility.yul\":878:879   */\n      dup1\n        /* \"#utility.yul\":871:883   */\n      revert\n        /* \"#utility.yul\":822:885   */\n    tag_64:\n        /* \"#utility.yul\":769:891   */\n      pop\n      jump\t// out\n        /* \"#utility.yul\":897:1036   */\n    tag_44:\n        /* \"#utility.yul\":943:948   */\n      0x00\n        /* \"#utility.yul\":981:987   */\n      dup2\n        /* \"#utility.yul\":968:988   */\n      calldataload\n        /* \"#utility.yul\":959:988   */\n      swap1\n      pop\n        /* \"#utility.yul\":997:1030   */\n      tag_66\n        /* \"#utility.yul\":1024:1029   */\n      dup2\n        /* \"#utility.yul\":997:1030   */\n      tag_43\n      jump\t// in\n    tag_66:\n        /* \"#utility.yul\":897:1036   */\n      swap3\n      swap2\n      pop\n      pop\n      jump\t// out\n        /* \"#utility.yul\":1042:1132   */\n    tag_45:\n        /* \"#utility.yul\":1076:1083   */\n      0x00\n        /* \"#utility.yul\":1119:1124   */\n      dup2\n        /* \"#utility.yul\":1112:1125   */\n      iszero\n        /* \"#utility.yul\":1105:1126   */\n      iszero\n        /* \"#utility.yul\":1094:1126   */\n      swap1\n      pop\n        /* \"#utility.yul\":1042:1132   */\n      swap2\n      swap1\n      pop\n      jump\t// out\n        /* \"#utility.yul\":1138:1254   */\n    tag_46:\n        /* \"#utility.yul\":1208:1229   */\n      tag_69\n        /* \"#utility.yul\":1223:1228   */\n      dup2\n        /* \"#utility.yul\":1208:1229   */\n      tag_45\n      jump\t// in\n    tag_69:\n        /* \"#utility.yul\":1201:1206   */\n      dup2\n        /* \"#utility.yul\":1198:1230   */\n      eq\n        /* \"#utility.yul\":1188:1248   */\n      tag_70\n      jumpi\n        /* \"#utility.yul\":1244:1245   */\n      0x00\n        /* \"#utility.yul\":1241:1242   */\n      dup1\n        /* \"#utility.yul\":1234:1246   */\n      revert\n        /* \"#utility.yul\":1188:1248   */\n    tag_70:\n        /* \"#utility.yul\":1138:1254   */\n      pop\n      jump\t// out\n        /* \"#utility.yul\":1260:1393   */\n    tag_47:\n        /* \"#utility.yul\":1303:1308   */\n      0x00\n        /* \"#utility.yul\":1341:1347   */\n      dup2\n        /* \"#utility.yul\":1328:1348   */\n      calldataload\n        /* \"#utility.yul\":1319:1348   */\n      swap1\n      pop\n        /* \"#utility.yul\":1357:1387   */\n      tag_72\n        /* \"#utility.yul\":1381:1386   */\n      dup2\n        /* \"#utility.yul\":1357:1387   */\n      tag_46\n      jump\t// in\n    tag_72:\n        /* \"#utility.yul\":1260:1393   */\n      swap3\n      swap2\n      pop\n      pop\n      jump\t// out\n        /* \"#utility.yul\":1399:1867   */\n    tag_27:\n        /* \"#utility.yul\":1464:1470   */\n      0x00\n        /* \"#utility.yul\":1472:1478   */\n      dup1\n        /* \"#utility.yul\":1521:1523   */\n      0x40\n        /* \"#utility.yul\":1509:1518   */\n      dup4\n        /* \"#utility.yul\":1500:1507   */\n      dup6\n        /* \"#utility.yul\":1496:1519   */\n      sub\n        /* \"#utility.yul\":1492:1524   */\n      slt\n        /* \"#utility.yul\":1489:1608   */\n      iszero\n      tag_74\n      jumpi\n        /* \"#utility.yul\":1527:1606   */\n      tag_75\n      tag_41\n      jump\t// in\n    tag_75:\n        /* \"#utility.yul\":1489:1608   */\n    tag_74:\n        /* \"#utility.yul\":1647:1648   */\n      0x00\n        /* \"#utility.yul\":1672:1725   */\n      tag_76\n        /* \"#utility.yul\":1717:1724   */\n      dup6\n        /* \"#utility.yul\":1708:1714   */\n      dup3\n        /* \"#utility.yul\":1697:1706   */\n      dup7\n        /* \"#utility.yul\":1693:1715   */\n      add\n        /* \"#utility.yul\":1672:1725   */\n      tag_44\n      jump\t// in\n    tag_76:\n        /* \"#utility.yul\":1662:1725   */\n      swap3\n      pop\n        /* \"#utility.yul\":1618:1735   */\n      pop\n        /* \"#utility.yul\":1774:1776   */\n      0x20\n        /* \"#utility.yul\":1800:1850   */\n      tag_77\n        /* \"#utility.yul\":1842:1849   */\n      dup6\n        /* \"#utility.yul\":1833:1839   */\n      dup3\n        /* \"#utility.yul\":1822:1831   */\n      dup7\n        /* \"#utility.yul\":1818:1840   */\n      add\n        /* \"#utility.yul\":1800:1850   */\n      tag_47\n      jump\t// in\n    tag_77:\n        /* \"#utility.yul\":1790:1850   */\n      swap2\n      pop\n        /* \"#utility.yul\":1745:1860   */\n      pop\n        /* \"#utility.yul\":1399:1867   */\n      swap3\n      pop\n      swap3\n      swap1\n      pop\n      jump\t// out\n        /* \"#utility.yul\":1873:1972   */\n    tag_48:\n        /* \"#utility.yul\":1925:1931   */\n      0x00\n        /* \"#utility.yul\":1959:1964   */\n      dup2\n        /* \"#utility.yul\":1953:1965   */\n      mload\n        /* \"#utility.yul\":1943:1965   */\n      swap1\n      pop\n        /* \"#utility.yul\":1873:1972   */\n      swap2\n      swap1\n      pop\n      jump\t// out\n        /* \"#utility.yul\":1978:2147   */\n    tag_49:\n        /* \"#utility.yul\":2062:2073   */\n      0x00\n        /* \"#utility.yul\":2096:2102   */\n      dup3\n        /* \"#utility.yul\":2091:2094   */\n      dup3\n        /* \"#utility.yul\":2084:2103   */\n      mstore\n        /* \"#utility.yul\":2136:2140   */\n      0x20\n        /* \"#utility.yul\":2131:2134   */\n      dup3\n        /* \"#utility.yul\":2127:2141   */\n      add\n        /* \"#utility.yul\":2112:2141   */\n      swap1\n      pop\n        /* \"#utility.yul\":1978:2147   */\n      swap3\n      swap2\n      pop\n      pop\n      jump\t// out\n        /* \"#utility.yul\":2153:2399   */\n    tag_50:\n        /* \"#utility.yul\":2234:2235   */\n      0x00\n        /* \"#utility.yul\":2244:2357   */\n    tag_81:\n        /* \"#utility.yul\":2258:2264   */\n      dup4\n        /* \"#utility.yul\":2255:2256   */\n      dup2\n        /* \"#utility.yul\":2252:2265   */\n      lt\n        /* \"#utility.yul\":2244:2357   */\n      iszero\n      tag_83\n      jumpi\n        /* \"#utility.yul\":2343:2344   */\n      dup1\n        /* \"#utility.yul\":2338:2341   */\n      dup3\n        /* \"#utility.yul\":2334:2345   */\n      add\n        /* \"#utility.yul\":2328:2346   */\n      mload\n        /* \"#utility.yul\":2324:2325   */\n      dup2\n        /* \"#utility.yul\":2319:2322   */\n      dup5\n        /* \"#utility.yul\":2315:2326   */\n      add\n        /* \"#utility.yul\":2308:2347   */\n      mstore\n        /* \"#utility.yul\":2280:2282   */\n      0x20\n        /* \"#utility.yul\":2277:2278   */\n      dup2\n        /* \"#utility.yul\":2273:2283   */\n      add\n        /* \"#utility.yul\":2268:2283   */\n      swap1\n      pop\n        /* \"#utility.yul\":2244:2357   */\n      jump(tag_81)\n    tag_83:\n        /* \"#utility.yul\":2391:2392   */\n      0x00\n        /* \"#utility.yul\":2382:2388   */\n      dup5\n        /* \"#utility.yul\":2377:2380   */\n      dup5\n        /* \"#utility.yul\":2373:2389   */\n      add\n        /* \"#utility.yul\":2366:2393   */\n      mstore\n        /* \"#utility.yul\":2215:2399   */\n      pop\n        /* \"#utility.yul\":2153:2399   */\n      pop\n      pop\n      pop\n      jump\t// out\n        /* \"#utility.yul\":2405:2507   */\n    tag_51:\n        /* \"#utility.yul\":2446:2452   */\n      0x00\n        /* \"#utility.yul\":2497:2499   */\n      0x1f\n        /* \"#utility.yul\":2493:2500   */\n      not\n        /* \"#utility.yul\":2488:2490   */\n      0x1f\n        /* \"#utility.yul\":2481:2486   */\n      dup4\n        /* \"#utility.yul\":2477:2491   */\n      add\n        /* \"#utility.yul\":2473:2501   */\n      and\n        /* \"#utility.yul\":2463:2501   */\n      swap1\n      pop\n        /* \"#utility.yul\":2405:2507   */\n      swap2\n      swap1\n      pop\n      jump\t// out\n        /* \"#utility.yul\":2513:2890   */\n    tag_52:\n        /* \"#utility.yul\":2601:2604   */\n      0x00\n        /* \"#utility.yul\":2629:2668   */\n      tag_86\n        /* \"#utility.yul\":2662:2667   */\n      dup3\n        /* \"#utility.yul\":2629:2668   */\n      tag_48\n      jump\t// in\n    tag_86:\n        /* \"#utility.yul\":2684:2755   */\n      tag_87\n        /* \"#utility.yul\":2748:2754   */\n      dup2\n        /* \"#utility.yul\":2743:2746   */\n      dup6\n        /* \"#utility.yul\":2684:2755   */\n      tag_49\n      jump\t// in\n    tag_87:\n        /* \"#utility.yul\":2677:2755   */\n      swap4\n      pop\n        /* \"#utility.yul\":2764:2829   */\n      tag_88\n        /* \"#utility.yul\":2822:2828   */\n      dup2\n        /* \"#utility.yul\":2817:2820   */\n      dup6\n        /* \"#utility.yul\":2810:2814   */\n      0x20\n        /* \"#utility.yul\":2803:2808   */\n      dup7\n        /* \"#utility.yul\":2799:2815   */\n      add\n        /* \"#utility.yul\":2764:2829   */\n      tag_50\n      jump\t// in\n    tag_88:\n        /* \"#utility.yul\":2854:2883   */\n      tag_89\n        /* \"#utility.yul\":2876:2882   */\n      dup2\n        /* \"#utility.yul\":2854:2883   */\n      tag_51\n      jump\t// in\n    tag_89:\n        /* \"#utility.yul\":2849:2852   */\n      dup5\n        /* \"#utility.yul\":2845:2884   */\n      add\n        /* \"#utility.yul\":2838:2884   */\n      swap2\n      pop\n        /* \"#utility.yul\":2605:2890   */\n      pop\n        /* \"#utility.yul\":2513:2890   */\n      swap3\n      swap2\n      pop\n      pop\n      jump\t// out\n        /* \"#utility.yul\":2896:3319   */\n    tag_30:\n        /* \"#utility.yul\":3037:3041   */\n      0x00\n        /* \"#utility.yul\":3075:3077   */\n      0x40\n        /* \"#utility.yul\":3064:3073   */\n      dup3\n        /* \"#utility.yul\":3060:3078   */\n      add\n        /* \"#utility.yul\":3052:3078   */\n      swap1\n      pop\n        /* \"#utility.yul\":3088:3159   */\n      tag_91\n        /* \"#utility.yul\":3156:3157   */\n      0x00\n        /* \"#utility.yul\":3145:3154   */\n      dup4\n        /* \"#utility.yul\":3141:3158   */\n      add\n        /* \"#utility.yul\":3132:3138   */\n      dup6\n        /* \"#utility.yul\":3088:3159   */\n      tag_39\n      jump\t// in\n    tag_91:\n        /* \"#utility.yul\":3206:3215   */\n      dup2\n        /* \"#utility.yul\":3200:3204   */\n      dup2\n        /* \"#utility.yul\":3196:3216   */\n      sub\n        /* \"#utility.yul\":3191:3193   */\n      0x20\n        /* \"#utility.yul\":3180:3189   */\n      dup4\n        /* \"#utility.yul\":3176:3194   */\n      add\n        /* \"#utility.yul\":3169:3217   */\n      mstore\n        /* \"#utility.yul\":3234:3312   */\n      tag_92\n        /* \"#utility.yul\":3307:3311   */\n      dup2\n        /* \"#utility.yul\":3298:3304   */\n      dup5\n        /* \"#utility.yul\":3234:3312   */\n      tag_52\n      jump\t// in\n    tag_92:\n        /* \"#utility.yul\":3226:3312   */\n      swap1\n      pop\n        /* \"#utility.yul\":2896:3319   */\n      swap4\n      swap3\n      pop\n      pop\n      pop\n      jump\t// out\n\n    auxdata: 0xa2646970667358221220bdd44b0d9f48fda69d5ff21c5d6fa4a220360f7f5c01a2936ffefec81009ebe964736f6c63430008120033\n}\n",
				"bytecode": {
					"linkReferences": {},
					"object": "608060405234801561001057600080fd5b506103d9806100206000396000f3fe608060405234801561001057600080fd5b50600436106100625760003560e01c8063161294ce146100675780634106d7f8146100855780639db5a37b146100a3578063a39414a2146100c1578063a5314ce0146100df578063e396344c146100fd575b600080fd5b61006f61012e565b60405161007c919061021f565b60405180910390f35b61008d610133565b60405161009a919061021f565b60405180910390f35b6100ab610138565b6040516100b8919061021f565b60405180910390f35b6100c961013d565b6040516100d6919061021f565b60405180910390f35b6100e7610142565b6040516100f4919061021f565b60405180910390f35b610117600480360381019061011291906102a3565b610147565b604051610125929190610373565b60405180910390f35b600081565b601e81565b600a81565b601481565b604681565b600060606000604051806020016040528060008152509050600a851061018057604685116101775760148161017b565b601e815b6101fa565b6000846101c2576040518060400160405280600781526020017f746f792067756e000000000000000000000000000000000000000000000000008152506101f9565b6040518060400160405280600b81526020017f62617262696520646f6c6c0000000000000000000000000000000000000000008152505b5b92509250509250929050565b6000819050919050565b61021981610206565b82525050565b60006020820190506102346000830184610210565b92915050565b600080fd5b61024881610206565b811461025357600080fd5b50565b6000813590506102658161023f565b92915050565b60008115159050919050565b6102808161026b565b811461028b57600080fd5b50565b60008135905061029d81610277565b92915050565b600080604083850312156102ba576102b961023a565b5b60006102c885828601610256565b92505060206102d98582860161028e565b9150509250929050565b600081519050919050565b600082825260208201905092915050565b60005b8381101561031d578082015181840152602081019050610302565b60008484015250505050565b6000601f19601f8301169050919050565b6000610345826102e3565b61034f81856102ee565b935061035f8185602086016102ff565b61036881610329565b840191505092915050565b60006040820190506103886000830185610210565b818103602083015261039a818461033a565b9050939250505056fea2646970667358221220bdd44b0d9f48fda69d5ff21c5d6fa4a220360f7f5c01a2936ffefec81009ebe964736f6c63430008120033",
					"opcodes": "PUSH1 0x80 PUSH1 0x40 MSTORE CALLVALUE DUP1 ISZERO PUSH2 0x10 JUMPI PUSH1 0x0 DUP1 REVERT JUMPDEST POP PUSH2 0x3D9 DUP1 PUSH2 0x20 PUSH1 0x0 CODECOPY PUSH1 0x0 RETURN INVALID PUSH1 0x80 PUSH1 0x40 MSTORE CALLVALUE DUP1 ISZERO PUSH2 0x10 JUMPI PUSH1 0x0 DUP1 REVERT JUMPDEST POP PUSH1 0x4 CALLDATASIZE LT PUSH2 0x62 JUMPI PUSH1 0x0 CALLDATALOAD PUSH1 0xE0 SHR DUP1 PUSH4 0x161294CE EQ PUSH2 0x67 JUMPI DUP1 PUSH4 0x4106D7F8 EQ PUSH2 0x85 JUMPI DUP1 PUSH4 0x9DB5A37B EQ PUSH2 0xA3 JUMPI DUP1 PUSH4 0xA39414A2 EQ PUSH2 0xC1 JUMPI DUP1 PUSH4 0xA5314CE0 EQ PUSH2 0xDF JUMPI DUP1 PUSH4 0xE396344C EQ PUSH2 0xFD JUMPI JUMPDEST PUSH1 0x0 DUP1 REVERT JUMPDEST PUSH2 0x6F PUSH2 0x12E JUMP JUMPDEST PUSH1 0x40 MLOAD PUSH2 0x7C SWAP2 SWAP1 PUSH2 0x21F JUMP JUMPDEST PUSH1 0x40 MLOAD DUP1 SWAP2 SUB SWAP1 RETURN JUMPDEST PUSH2 0x8D PUSH2 0x133 JUMP JUMPDEST PUSH1 0x40 MLOAD PUSH2 0x9A SWAP2 SWAP1 PUSH2 0x21F JUMP JUMPDEST PUSH1 0x40 MLOAD DUP1 SWAP2 SUB SWAP1 RETURN JUMPDEST PUSH2 0xAB PUSH2 0x138 JUMP JUMPDEST PUSH1 0x40 MLOAD PUSH2 0xB8 SWAP2 SWAP1 PUSH2 0x21F JUMP JUMPDEST PUSH1 0x40 MLOAD DUP1 SWAP2 SUB SWAP1 RETURN JUMPDEST PUSH2 0xC9 PUSH2 0x13D JUMP JUMPDEST PUSH1 0x40 MLOAD PUSH2 0xD6 SWAP2 SWAP1 PUSH2 0x21F JUMP JUMPDEST PUSH1 0x40 MLOAD DUP1 SWAP2 SUB SWAP1 RETURN JUMPDEST PUSH2 0xE7 PUSH2 0x142 JUMP JUMPDEST PUSH1 0x40 MLOAD PUSH2 0xF4 SWAP2 SWAP1 PUSH2 0x21F JUMP JUMPDEST PUSH1 0x40 MLOAD DUP1 SWAP2 SUB SWAP1 RETURN JUMPDEST PUSH2 0x117 PUSH1 0x4 DUP1 CALLDATASIZE SUB DUP2 ADD SWAP1 PUSH2 0x112 SWAP2 SWAP1 PUSH2 0x2A3 JUMP JUMPDEST PUSH2 0x147 JUMP JUMPDEST PUSH1 0x40 MLOAD PUSH2 0x125 SWAP3 SWAP2 SWAP1 PUSH2 0x373 JUMP JUMPDEST PUSH1 0x40 MLOAD DUP1 SWAP2 SUB SWAP1 RETURN JUMPDEST PUSH1 0x0 DUP2 JUMP JUMPDEST PUSH1 0x1E DUP2 JUMP JUMPDEST PUSH1 0xA DUP2 JUMP JUMPDEST PUSH1 0x14 DUP2 JUMP JUMPDEST PUSH1 0x46 DUP2 JUMP JUMPDEST PUSH1 0x0 PUSH1 0x60 PUSH1 0x0 PUSH1 0x40 MLOAD DUP1 PUSH1 0x20 ADD PUSH1 0x40 MSTORE DUP1 PUSH1 0x0 DUP2 MSTORE POP SWAP1 POP PUSH1 0xA DUP6 LT PUSH2 0x180 JUMPI PUSH1 0x46 DUP6 GT PUSH2 0x177 JUMPI PUSH1 0x14 DUP2 PUSH2 0x17B JUMP JUMPDEST PUSH1 0x1E DUP2 JUMPDEST PUSH2 0x1FA JUMP JUMPDEST PUSH1 0x0 DUP5 PUSH2 0x1C2 JUMPI PUSH1 0x40 MLOAD DUP1 PUSH1 0x40 ADD PUSH1 0x40 MSTORE DUP1 PUSH1 0x7 DUP2 MSTORE PUSH1 0x20 ADD PUSH32 0x746F792067756E00000000000000000000000000000000000000000000000000 DUP2 MSTORE POP PUSH2 0x1F9 JUMP JUMPDEST PUSH1 0x40 MLOAD DUP1 PUSH1 0x40 ADD PUSH1 0x40 MSTORE DUP1 PUSH1 0xB DUP2 MSTORE PUSH1 0x20 ADD PUSH32 0x62617262696520646F6C6C000000000000000000000000000000000000000000 DUP2 MSTORE POP JUMPDEST JUMPDEST SWAP3 POP SWAP3 POP POP SWAP3 POP SWAP3 SWAP1 POP JUMP JUMPDEST PUSH1 0x0 DUP2 SWAP1 POP SWAP2 SWAP1 POP JUMP JUMPDEST PUSH2 0x219 DUP2 PUSH2 0x206 JUMP JUMPDEST DUP3 MSTORE POP POP JUMP JUMPDEST PUSH1 0x0 PUSH1 0x20 DUP3 ADD SWAP1 POP PUSH2 0x234 PUSH1 0x0 DUP4 ADD DUP5 PUSH2 0x210 JUMP JUMPDEST SWAP3 SWAP2 POP POP JUMP JUMPDEST PUSH1 0x0 DUP1 REVERT JUMPDEST PUSH2 0x248 DUP2 PUSH2 0x206 JUMP JUMPDEST DUP2 EQ PUSH2 0x253 JUMPI PUSH1 0x0 DUP1 REVERT JUMPDEST POP JUMP JUMPDEST PUSH1 0x0 DUP2 CALLDATALOAD SWAP1 POP PUSH2 0x265 DUP2 PUSH2 0x23F JUMP JUMPDEST SWAP3 SWAP2 POP POP JUMP JUMPDEST PUSH1 0x0 DUP2 ISZERO ISZERO SWAP1 POP SWAP2 SWAP1 POP JUMP JUMPDEST PUSH2 0x280 DUP2 PUSH2 0x26B JUMP JUMPDEST DUP2 EQ PUSH2 0x28B JUMPI PUSH1 0x0 DUP1 REVERT JUMPDEST POP JUMP JUMPDEST PUSH1 0x0 DUP2 CALLDATALOAD SWAP1 POP PUSH2 0x29D DUP2 PUSH2 0x277 JUMP JUMPDEST SWAP3 SWAP2 POP POP JUMP JUMPDEST PUSH1 0x0 DUP1 PUSH1 0x40 DUP4 DUP6 SUB SLT ISZERO PUSH2 0x2BA JUMPI PUSH2 0x2B9 PUSH2 0x23A JUMP JUMPDEST JUMPDEST PUSH1 0x0 PUSH2 0x2C8 DUP6 DUP3 DUP7 ADD PUSH2 0x256 JUMP JUMPDEST SWAP3 POP POP PUSH1 0x20 PUSH2 0x2D9 DUP6 DUP3 DUP7 ADD PUSH2 0x28E JUMP JUMPDEST SWAP2 POP POP SWAP3 POP SWAP3 SWAP1 POP JUMP JUMPDEST PUSH1 0x0 DUP2 MLOAD SWAP1 POP SWAP2 SWAP1 POP JUMP JUMPDEST PUSH1 0x0 DUP3 DUP3 MSTORE PUSH1 0x20 DUP3 ADD SWAP1 POP SWAP3 SWAP2 POP POP JUMP JUMPDEST PUSH1 0x0 JUMPDEST DUP4 DUP2 LT ISZERO PUSH2 0x31D JUMPI DUP1 DUP3 ADD MLOAD DUP2 DUP5 ADD MSTORE PUSH1 0x20 DUP2 ADD SWAP1 POP PUSH2 0x302 JUMP JUMPDEST PUSH1 0x0 DUP5 DUP5 ADD MSTORE POP POP POP POP JUMP JUMPDEST PUSH1 0x0 PUSH1 0x1F NOT PUSH1 0x1F DUP4 ADD AND SWAP1 POP SWAP2 SWAP1 POP JUMP JUMPDEST PUSH1 0x0 PUSH2 0x345 DUP3 PUSH2 0x2E3 JUMP JUMPDEST PUSH2 0x34F DUP2 DUP6 PUSH2 0x2EE JUMP JUMPDEST SWAP4 POP PUSH2 0x35F DUP2 DUP6 PUSH1 0x20 DUP7 ADD PUSH2 0x2FF JUMP JUMPDEST PUSH2 0x368 DUP2 PUSH2 0x329 JUMP JUMPDEST DUP5 ADD SWAP2 POP POP SWAP3 SWAP2 POP POP JUMP JUMPDEST PUSH1 0x0 PUSH1 0x40 DUP3 ADD SWAP1 POP PUSH2 0x388 PUSH1 0x0 DUP4 ADD DUP6 PUSH2 0x210 JUMP JUMPDEST DUP2 DUP2 SUB PUSH1 0x20 DUP4 ADD MSTORE PUSH2 0x39A DUP2 DUP5 PUSH2 0x33A JUMP JUMPDEST SWAP1 POP SWAP4 SWAP3 POP POP POP JUMP INVALID LOG2 PUSH5 0x6970667358 0x22 SLT KECCAK256 0xBD 0xD4 0x4B 0xD SWAP16 BASEFEE REVERT 0xA6 SWAP14 0x5F CALLCODE SHR 0x5D PUSH16 0xA4A220360F7F5C01A2936FFEFEC81009 0xEB 0xE9 PUSH5 0x736F6C6343 STOP ADDMOD SLT STOP CALLER "
				},
				"gasEstimates": {
					"creation": {
						"codeDepositCost": "197000",
						"executionCost": "238",
						"totalCost": "197238"
					},
					"external": {
						"adult_fee()": "373",
						"child_fee()": "307",
						"cut_off_age()": "351",
						"old_age_fee()": "329",
						"old_age_off_age()": "395",
						"ter2(uint256,bool)": "infinite"
					}
				},
				"methodIdentifiers": {
					"adult_fee()": "a39414a2",
					"child_fee()": "161294ce",
					"cut_off_age()": "9db5a37b",
					"old_age_fee()": "4106d7f8",
					"old_age_off_age()": "a5314ce0",
					"ter2(uint256,bool)": "e396344c"
				}
			},
			"storageLayout": {
				"storage": [],
				"types": null
			},
			"userdoc": {
				"kind": "user",
				"methods": {},
				"version": 1
			}
		}
	}
}