{
	"Lib_Imports.sol": {
		"VotingDataEncoder": {
			"abi": [
				{
					"inputs": [
						{
							"internalType": "bytes",
							"name": "encodedData",
							"type": "bytes"
						},
						{
							"internalType": "uint256",
							"name": "voterIDToVerify",
							"type": "uint256"
						}
					],
					"name": "decodeAndVerifyVoterData",
					"outputs": [
						{
							"internalType": "bool",
							"name": "",
							"type": "bool"
						}
					],
					"stateMutability": "pure",
					"type": "function"
				},
				{
					"inputs": [
						{
							"components": [
								{
									"internalType": "address",
									"name": "voterAddress",
									"type": "address"
								},
								{
									"internalType": "uint256",
									"name": "voterID",
									"type": "uint256"
								},
								{
									"internalType": "string",
									"name": "name",
									"type": "string"
								},
								{
									"internalType": "uint256",
									"name": "age",
									"type": "uint256"
								}
							],
							"internalType": "struct VotingDataEncoder.Voter",
							"name": "voter",
							"type": "tuple"
						}
					],
					"name": "encodeVoterData",
					"outputs": [
						{
							"internalType": "bytes",
							"name": "",
							"type": "bytes"
						}
					],
					"stateMutability": "pure",
					"type": "function"
				}
			],
			"devdoc": {
				"kind": "dev",
				"methods": {},
				"version": 1
			},
			"evm": {
				"assembly": "    /* \"Lib_Imports.sol\":1734:2280  contract VotingDataEncoder {... */\n  mstore(0x40, 0x80)\n  callvalue\n  dup1\n  iszero\n  tag_1\n  jumpi\n  0x00\n  dup1\n  revert\ntag_1:\n  pop\n  dataSize(sub_0)\n  dup1\n  dataOffset(sub_0)\n  0x00\n  codecopy\n  0x00\n  return\nstop\n\nsub_0: assembly {\n        /* \"Lib_Imports.sol\":1734:2280  contract VotingDataEncoder {... */\n      mstore(0x40, 0x80)\n      callvalue\n      dup1\n      iszero\n      tag_1\n      jumpi\n      0x00\n      dup1\n      revert\n    tag_1:\n      pop\n      jumpi(tag_2, lt(calldatasize, 0x04))\n      shr(0xe0, calldataload(0x00))\n      dup1\n      0xa315c4ba\n      eq\n      tag_3\n      jumpi\n      dup1\n      0xcf53f681\n      eq\n      tag_4\n      jumpi\n    tag_2:\n      0x00\n      dup1\n      revert\n        /* \"Lib_Imports.sol\":1898:2021  function encodeVoterData(Voter memory voter) public pure returns (bytes memory) {... */\n    tag_3:\n      tag_5\n      0x04\n      dup1\n      calldatasize\n      sub\n      dup2\n      add\n      swap1\n      tag_6\n      swap2\n      swap1\n      tag_7\n      jump\t// in\n    tag_6:\n      tag_8\n      jump\t// in\n    tag_5:\n      mload(0x40)\n      tag_9\n      swap2\n      swap1\n      tag_10\n      jump\t// in\n    tag_9:\n      mload(0x40)\n      dup1\n      swap2\n      sub\n      swap1\n      return\n        /* \"Lib_Imports.sol\":2029:2277  function decodeAndVerifyVoterData(bytes memory encodedData, uint256 voterIDToVerify) public pure returns (bool) {... */\n    tag_4:\n      tag_11\n      0x04\n      dup1\n      calldatasize\n      sub\n      dup2\n      add\n      swap1\n      tag_12\n      swap2\n      swap1\n      tag_13\n      jump\t// in\n    tag_12:\n      tag_14\n      jump\t// in\n    tag_11:\n      mload(0x40)\n      tag_15\n      swap2\n      swap1\n      tag_16\n      jump\t// in\n    tag_15:\n      mload(0x40)\n      dup1\n      swap2\n      sub\n      swap1\n      return\n        /* \"Lib_Imports.sol\":1898:2021  function encodeVoterData(Voter memory voter) public pure returns (bytes memory) {... */\n    tag_8:\n        /* \"Lib_Imports.sol\":1964:1976  bytes memory */\n      0x60\n        /* \"Lib_Imports.sol\":2007:2012  voter */\n      dup2\n        /* \"Lib_Imports.sol\":1996:2013  abi.encode(voter) */\n      add(0x20, mload(0x40))\n      tag_18\n      swap2\n      swap1\n      tag_19\n      jump\t// in\n    tag_18:\n      mload(0x40)\n      0x20\n      dup2\n      dup4\n      sub\n      sub\n      dup2\n      mstore\n      swap1\n      0x40\n      mstore\n        /* \"Lib_Imports.sol\":1989:2013  return abi.encode(voter) */\n      swap1\n      pop\n        /* \"Lib_Imports.sol\":1898:2021  function encodeVoterData(Voter memory voter) public pure returns (bytes memory) {... */\n      swap2\n      swap1\n      pop\n      jump\t// out\n        /* \"Lib_Imports.sol\":2029:2277  function decodeAndVerifyVoterData(bytes memory encodedData, uint256 voterIDToVerify) public pure returns (bool) {... */\n    tag_14:\n        /* \"Lib_Imports.sol\":2135:2139  bool */\n      0x00\n        /* \"Lib_Imports.sol\":2152:2177  Voter memory decodedVoter */\n      dup1\n        /* \"Lib_Imports.sol\":2191:2202  encodedData */\n      dup4\n        /* \"Lib_Imports.sol\":2180:2212  abi.decode(encodedData, (Voter)) */\n      dup1\n      0x20\n      add\n      swap1\n      mload\n      dup2\n      add\n      swap1\n      tag_21\n      swap2\n      swap1\n      tag_22\n      jump\t// in\n    tag_21:\n        /* \"Lib_Imports.sol\":2152:2212  Voter memory decodedVoter = abi.decode(encodedData, (Voter)) */\n      swap1\n      pop\n        /* \"Lib_Imports.sol\":2254:2269  voterIDToVerify */\n      dup3\n        /* \"Lib_Imports.sol\":2230:2242  decodedVoter */\n      dup2\n        /* \"Lib_Imports.sol\":2230:2250  decodedVoter.voterID */\n      0x20\n      add\n      mload\n        /* \"Lib_Imports.sol\":2230:2269  decodedVoter.voterID == voterIDToVerify */\n      eq\n        /* \"Lib_Imports.sol\":2223:2269  return decodedVoter.voterID == voterIDToVerify */\n      swap2\n      pop\n      pop\n        /* \"Lib_Imports.sol\":2029:2277  function decodeAndVerifyVoterData(bytes memory encodedData, uint256 voterIDToVerify) public pure returns (bool) {... */\n      swap3\n      swap2\n      pop\n      pop\n      jump\t// out\n        /* \"#utility.yul\":7:82   */\n    tag_23:\n        /* \"#utility.yul\":40:46   */\n      0x00\n        /* \"#utility.yul\":73:75   */\n      0x40\n        /* \"#utility.yul\":67:76   */\n      mload\n        /* \"#utility.yul\":57:76   */\n      swap1\n      pop\n        /* \"#utility.yul\":7:82   */\n      swap1\n      jump\t// out\n        /* \"#utility.yul\":88:205   */\n    tag_24:\n        /* \"#utility.yul\":197:198   */\n      0x00\n        /* \"#utility.yul\":194:195   */\n      dup1\n        /* \"#utility.yul\":187:199   */\n      revert\n        /* \"#utility.yul\":211:328   */\n    tag_25:\n        /* \"#utility.yul\":320:321   */\n      0x00\n        /* \"#utility.yul\":317:318   */\n      dup1\n        /* \"#utility.yul\":310:322   */\n      revert\n        /* \"#utility.yul\":334:451   */\n    tag_26:\n        /* \"#utility.yul\":443:444   */\n      0x00\n        /* \"#utility.yul\":440:441   */\n      dup1\n        /* \"#utility.yul\":433:445   */\n      revert\n        /* \"#utility.yul\":457:559   */\n    tag_27:\n        /* \"#utility.yul\":498:504   */\n      0x00\n        /* \"#utility.yul\":549:551   */\n      0x1f\n        /* \"#utility.yul\":545:552   */\n      not\n        /* \"#utility.yul\":540:542   */\n      0x1f\n        /* \"#utility.yul\":533:538   */\n      dup4\n        /* \"#utility.yul\":529:543   */\n      add\n        /* \"#utility.yul\":525:553   */\n      and\n        /* \"#utility.yul\":515:553   */\n      swap1\n      pop\n        /* \"#utility.yul\":457:559   */\n      swap2\n      swap1\n      pop\n      jump\t// out\n        /* \"#utility.yul\":565:745   */\n    tag_28:\n        /* \"#utility.yul\":613:690   */\n      0x4e487b7100000000000000000000000000000000000000000000000000000000\n        /* \"#utility.yul\":610:611   */\n      0x00\n        /* \"#utility.yul\":603:691   */\n      mstore\n        /* \"#utility.yul\":710:714   */\n      0x41\n        /* \"#utility.yul\":707:708   */\n      0x04\n        /* \"#utility.yul\":700:715   */\n      mstore\n        /* \"#utility.yul\":734:738   */\n      0x24\n        /* \"#utility.yul\":731:732   */\n      0x00\n        /* \"#utility.yul\":724:739   */\n      revert\n        /* \"#utility.yul\":751:1032   */\n    tag_29:\n        /* \"#utility.yul\":834:861   */\n      tag_74\n        /* \"#utility.yul\":856:860   */\n      dup3\n        /* \"#utility.yul\":834:861   */\n      tag_27\n      jump\t// in\n    tag_74:\n        /* \"#utility.yul\":826:832   */\n      dup2\n        /* \"#utility.yul\":822:862   */\n      add\n        /* \"#utility.yul\":964:970   */\n      dup2\n        /* \"#utility.yul\":952:962   */\n      dup2\n        /* \"#utility.yul\":949:971   */\n      lt\n        /* \"#utility.yul\":928:946   */\n      0xffffffffffffffff\n        /* \"#utility.yul\":916:926   */\n      dup3\n        /* \"#utility.yul\":913:947   */\n      gt\n        /* \"#utility.yul\":910:972   */\n      or\n        /* \"#utility.yul\":907:995   */\n      iszero\n      tag_75\n      jumpi\n        /* \"#utility.yul\":975:993   */\n      tag_76\n      tag_28\n      jump\t// in\n    tag_76:\n        /* \"#utility.yul\":907:995   */\n    tag_75:\n        /* \"#utility.yul\":1015:1025   */\n      dup1\n        /* \"#utility.yul\":1011:1013   */\n      0x40\n        /* \"#utility.yul\":1004:1026   */\n      mstore\n        /* \"#utility.yul\":794:1032   */\n      pop\n        /* \"#utility.yul\":751:1032   */\n      pop\n      pop\n      jump\t// out\n        /* \"#utility.yul\":1038:1167   */\n    tag_30:\n        /* \"#utility.yul\":1072:1078   */\n      0x00\n        /* \"#utility.yul\":1099:1119   */\n      tag_78\n      tag_23\n      jump\t// in\n    tag_78:\n        /* \"#utility.yul\":1089:1119   */\n      swap1\n      pop\n        /* \"#utility.yul\":1128:1161   */\n      tag_79\n        /* \"#utility.yul\":1156:1160   */\n      dup3\n        /* \"#utility.yul\":1148:1154   */\n      dup3\n        /* \"#utility.yul\":1128:1161   */\n      tag_29\n      jump\t// in\n    tag_79:\n        /* \"#utility.yul\":1038:1167   */\n      swap2\n      swap1\n      pop\n      jump\t// out\n        /* \"#utility.yul\":1173:1290   */\n    tag_31:\n        /* \"#utility.yul\":1282:1283   */\n      0x00\n        /* \"#utility.yul\":1279:1280   */\n      dup1\n        /* \"#utility.yul\":1272:1284   */\n      revert\n        /* \"#utility.yul\":1296:1422   */\n    tag_32:\n        /* \"#utility.yul\":1333:1340   */\n      0x00\n        /* \"#utility.yul\":1373:1415   */\n      0xffffffffffffffffffffffffffffffffffffffff\n        /* \"#utility.yul\":1366:1371   */\n      dup3\n        /* \"#utility.yul\":1362:1416   */\n      and\n        /* \"#utility.yul\":1351:1416   */\n      swap1\n      pop\n        /* \"#utility.yul\":1296:1422   */\n      swap2\n      swap1\n      pop\n      jump\t// out\n        /* \"#utility.yul\":1428:1524   */\n    tag_33:\n        /* \"#utility.yul\":1465:1472   */\n      0x00\n        /* \"#utility.yul\":1494:1518   */\n      tag_83\n        /* \"#utility.yul\":1512:1517   */\n      dup3\n        /* \"#utility.yul\":1494:1518   */\n      tag_32\n      jump\t// in\n    tag_83:\n        /* \"#utility.yul\":1483:1518   */\n      swap1\n      pop\n        /* \"#utility.yul\":1428:1524   */\n      swap2\n      swap1\n      pop\n      jump\t// out\n        /* \"#utility.yul\":1530:1652   */\n    tag_34:\n        /* \"#utility.yul\":1603:1627   */\n      tag_85\n        /* \"#utility.yul\":1621:1626   */\n      dup2\n        /* \"#utility.yul\":1603:1627   */\n      tag_33\n      jump\t// in\n    tag_85:\n        /* \"#utility.yul\":1596:1601   */\n      dup2\n        /* \"#utility.yul\":1593:1628   */\n      eq\n        /* \"#utility.yul\":1583:1646   */\n      tag_86\n      jumpi\n        /* \"#utility.yul\":1642:1643   */\n      0x00\n        /* \"#utility.yul\":1639:1640   */\n      dup1\n        /* \"#utility.yul\":1632:1644   */\n      revert\n        /* \"#utility.yul\":1583:1646   */\n    tag_86:\n        /* \"#utility.yul\":1530:1652   */\n      pop\n      jump\t// out\n        /* \"#utility.yul\":1658:1797   */\n    tag_35:\n        /* \"#utility.yul\":1704:1709   */\n      0x00\n        /* \"#utility.yul\":1742:1748   */\n      dup2\n        /* \"#utility.yul\":1729:1749   */\n      calldataload\n        /* \"#utility.yul\":1720:1749   */\n      swap1\n      pop\n        /* \"#utility.yul\":1758:1791   */\n      tag_88\n        /* \"#utility.yul\":1785:1790   */\n      dup2\n        /* \"#utility.yul\":1758:1791   */\n      tag_34\n      jump\t// in\n    tag_88:\n        /* \"#utility.yul\":1658:1797   */\n      swap3\n      swap2\n      pop\n      pop\n      jump\t// out\n        /* \"#utility.yul\":1803:1880   */\n    tag_36:\n        /* \"#utility.yul\":1840:1847   */\n      0x00\n        /* \"#utility.yul\":1869:1874   */\n      dup2\n        /* \"#utility.yul\":1858:1874   */\n      swap1\n      pop\n        /* \"#utility.yul\":1803:1880   */\n      swap2\n      swap1\n      pop\n      jump\t// out\n        /* \"#utility.yul\":1886:2008   */\n    tag_37:\n        /* \"#utility.yul\":1959:1983   */\n      tag_91\n        /* \"#utility.yul\":1977:1982   */\n      dup2\n        /* \"#utility.yul\":1959:1983   */\n      tag_36\n      jump\t// in\n    tag_91:\n        /* \"#utility.yul\":1952:1957   */\n      dup2\n        /* \"#utility.yul\":1949:1984   */\n      eq\n        /* \"#utility.yul\":1939:2002   */\n      tag_92\n      jumpi\n        /* \"#utility.yul\":1998:1999   */\n      0x00\n        /* \"#utility.yul\":1995:1996   */\n      dup1\n        /* \"#utility.yul\":1988:2000   */\n      revert\n        /* \"#utility.yul\":1939:2002   */\n    tag_92:\n        /* \"#utility.yul\":1886:2008   */\n      pop\n      jump\t// out\n        /* \"#utility.yul\":2014:2153   */\n    tag_38:\n        /* \"#utility.yul\":2060:2065   */\n      0x00\n        /* \"#utility.yul\":2098:2104   */\n      dup2\n        /* \"#utility.yul\":2085:2105   */\n      calldataload\n        /* \"#utility.yul\":2076:2105   */\n      swap1\n      pop\n        /* \"#utility.yul\":2114:2147   */\n      tag_94\n        /* \"#utility.yul\":2141:2146   */\n      dup2\n        /* \"#utility.yul\":2114:2147   */\n      tag_37\n      jump\t// in\n    tag_94:\n        /* \"#utility.yul\":2014:2153   */\n      swap3\n      swap2\n      pop\n      pop\n      jump\t// out\n        /* \"#utility.yul\":2159:2276   */\n    tag_39:\n        /* \"#utility.yul\":2268:2269   */\n      0x00\n        /* \"#utility.yul\":2265:2266   */\n      dup1\n        /* \"#utility.yul\":2258:2270   */\n      revert\n        /* \"#utility.yul\":2282:2399   */\n    tag_40:\n        /* \"#utility.yul\":2391:2392   */\n      0x00\n        /* \"#utility.yul\":2388:2389   */\n      dup1\n        /* \"#utility.yul\":2381:2393   */\n      revert\n        /* \"#utility.yul\":2405:2713   */\n    tag_41:\n        /* \"#utility.yul\":2467:2471   */\n      0x00\n        /* \"#utility.yul\":2557:2575   */\n      0xffffffffffffffff\n        /* \"#utility.yul\":2549:2555   */\n      dup3\n        /* \"#utility.yul\":2546:2576   */\n      gt\n        /* \"#utility.yul\":2543:2599   */\n      iszero\n      tag_98\n      jumpi\n        /* \"#utility.yul\":2579:2597   */\n      tag_99\n      tag_28\n      jump\t// in\n    tag_99:\n        /* \"#utility.yul\":2543:2599   */\n    tag_98:\n        /* \"#utility.yul\":2617:2646   */\n      tag_100\n        /* \"#utility.yul\":2639:2645   */\n      dup3\n        /* \"#utility.yul\":2617:2646   */\n      tag_27\n      jump\t// in\n    tag_100:\n        /* \"#utility.yul\":2609:2646   */\n      swap1\n      pop\n        /* \"#utility.yul\":2701:2705   */\n      0x20\n        /* \"#utility.yul\":2695:2699   */\n      dup2\n        /* \"#utility.yul\":2691:2706   */\n      add\n        /* \"#utility.yul\":2683:2706   */\n      swap1\n      pop\n        /* \"#utility.yul\":2405:2713   */\n      swap2\n      swap1\n      pop\n      jump\t// out\n        /* \"#utility.yul\":2719:2865   */\n    tag_42:\n        /* \"#utility.yul\":2816:2822   */\n      dup3\n        /* \"#utility.yul\":2811:2814   */\n      dup2\n        /* \"#utility.yul\":2806:2809   */\n      dup4\n        /* \"#utility.yul\":2793:2823   */\n      calldatacopy\n        /* \"#utility.yul\":2857:2858   */\n      0x00\n        /* \"#utility.yul\":2848:2854   */\n      dup4\n        /* \"#utility.yul\":2843:2846   */\n      dup4\n        /* \"#utility.yul\":2839:2855   */\n      add\n        /* \"#utility.yul\":2832:2859   */\n      mstore\n        /* \"#utility.yul\":2719:2865   */\n      pop\n      pop\n      pop\n      jump\t// out\n        /* \"#utility.yul\":2871:3296   */\n    tag_43:\n        /* \"#utility.yul\":2949:2954   */\n      0x00\n        /* \"#utility.yul\":2974:3040   */\n      tag_103\n        /* \"#utility.yul\":2990:3039   */\n      tag_104\n        /* \"#utility.yul\":3032:3038   */\n      dup5\n        /* \"#utility.yul\":2990:3039   */\n      tag_41\n      jump\t// in\n    tag_104:\n        /* \"#utility.yul\":2974:3040   */\n      tag_30\n      jump\t// in\n    tag_103:\n        /* \"#utility.yul\":2965:3040   */\n      swap1\n      pop\n        /* \"#utility.yul\":3063:3069   */\n      dup3\n        /* \"#utility.yul\":3056:3061   */\n      dup2\n        /* \"#utility.yul\":3049:3070   */\n      mstore\n        /* \"#utility.yul\":3101:3105   */\n      0x20\n        /* \"#utility.yul\":3094:3099   */\n      dup2\n        /* \"#utility.yul\":3090:3106   */\n      add\n        /* \"#utility.yul\":3139:3142   */\n      dup5\n        /* \"#utility.yul\":3130:3136   */\n      dup5\n        /* \"#utility.yul\":3125:3128   */\n      dup5\n        /* \"#utility.yul\":3121:3137   */\n      add\n        /* \"#utility.yul\":3118:3143   */\n      gt\n        /* \"#utility.yul\":3115:3227   */\n      iszero\n      tag_105\n      jumpi\n        /* \"#utility.yul\":3146:3225   */\n      tag_106\n      tag_40\n      jump\t// in\n    tag_106:\n        /* \"#utility.yul\":3115:3227   */\n    tag_105:\n        /* \"#utility.yul\":3236:3290   */\n      tag_107\n        /* \"#utility.yul\":3283:3289   */\n      dup5\n        /* \"#utility.yul\":3278:3281   */\n      dup3\n        /* \"#utility.yul\":3273:3276   */\n      dup6\n        /* \"#utility.yul\":3236:3290   */\n      tag_42\n      jump\t// in\n    tag_107:\n        /* \"#utility.yul\":2955:3296   */\n      pop\n        /* \"#utility.yul\":2871:3296   */\n      swap4\n      swap3\n      pop\n      pop\n      pop\n      jump\t// out\n        /* \"#utility.yul\":3316:3656   */\n    tag_44:\n        /* \"#utility.yul\":3372:3377   */\n      0x00\n        /* \"#utility.yul\":3421:3424   */\n      dup3\n        /* \"#utility.yul\":3414:3418   */\n      0x1f\n        /* \"#utility.yul\":3406:3412   */\n      dup4\n        /* \"#utility.yul\":3402:3419   */\n      add\n        /* \"#utility.yul\":3398:3425   */\n      slt\n        /* \"#utility.yul\":3388:3510   */\n      tag_109\n      jumpi\n        /* \"#utility.yul\":3429:3508   */\n      tag_110\n      tag_39\n      jump\t// in\n    tag_110:\n        /* \"#utility.yul\":3388:3510   */\n    tag_109:\n        /* \"#utility.yul\":3546:3552   */\n      dup2\n        /* \"#utility.yul\":3533:3553   */\n      calldataload\n        /* \"#utility.yul\":3571:3650   */\n      tag_111\n        /* \"#utility.yul\":3646:3649   */\n      dup5\n        /* \"#utility.yul\":3638:3644   */\n      dup3\n        /* \"#utility.yul\":3631:3635   */\n      0x20\n        /* \"#utility.yul\":3623:3629   */\n      dup7\n        /* \"#utility.yul\":3619:3636   */\n      add\n        /* \"#utility.yul\":3571:3650   */\n      tag_43\n      jump\t// in\n    tag_111:\n        /* \"#utility.yul\":3562:3650   */\n      swap2\n      pop\n        /* \"#utility.yul\":3378:3656   */\n      pop\n        /* \"#utility.yul\":3316:3656   */\n      swap3\n      swap2\n      pop\n      pop\n      jump\t// out\n        /* \"#utility.yul\":3700:4773   */\n    tag_45:\n        /* \"#utility.yul\":3771:3776   */\n      0x00\n        /* \"#utility.yul\":3815:3819   */\n      0x80\n        /* \"#utility.yul\":3803:3812   */\n      dup3\n        /* \"#utility.yul\":3798:3801   */\n      dup5\n        /* \"#utility.yul\":3794:3813   */\n      sub\n        /* \"#utility.yul\":3790:3820   */\n      slt\n        /* \"#utility.yul\":3787:3904   */\n      iszero\n      tag_113\n      jumpi\n        /* \"#utility.yul\":3823:3902   */\n      tag_114\n      tag_26\n      jump\t// in\n    tag_114:\n        /* \"#utility.yul\":3787:3904   */\n    tag_113:\n        /* \"#utility.yul\":3922:3943   */\n      tag_115\n        /* \"#utility.yul\":3938:3942   */\n      0x80\n        /* \"#utility.yul\":3922:3943   */\n      tag_30\n      jump\t// in\n    tag_115:\n        /* \"#utility.yul\":3913:3943   */\n      swap1\n      pop\n        /* \"#utility.yul\":4010:4011   */\n      0x00\n        /* \"#utility.yul\":4050:4099   */\n      tag_116\n        /* \"#utility.yul\":4095:4098   */\n      dup5\n        /* \"#utility.yul\":4086:4092   */\n      dup3\n        /* \"#utility.yul\":4075:4084   */\n      dup6\n        /* \"#utility.yul\":4071:4093   */\n      add\n        /* \"#utility.yul\":4050:4099   */\n      tag_35\n      jump\t// in\n    tag_116:\n        /* \"#utility.yul\":4043:4047   */\n      0x00\n        /* \"#utility.yul\":4036:4041   */\n      dup4\n        /* \"#utility.yul\":4032:4048   */\n      add\n        /* \"#utility.yul\":4025:4100   */\n      mstore\n        /* \"#utility.yul\":3953:4111   */\n      pop\n        /* \"#utility.yul\":4173:4175   */\n      0x20\n        /* \"#utility.yul\":4214:4263   */\n      tag_117\n        /* \"#utility.yul\":4259:4262   */\n      dup5\n        /* \"#utility.yul\":4250:4256   */\n      dup3\n        /* \"#utility.yul\":4239:4248   */\n      dup6\n        /* \"#utility.yul\":4235:4257   */\n      add\n        /* \"#utility.yul\":4214:4263   */\n      tag_38\n      jump\t// in\n    tag_117:\n        /* \"#utility.yul\":4207:4211   */\n      0x20\n        /* \"#utility.yul\":4200:4205   */\n      dup4\n        /* \"#utility.yul\":4196:4212   */\n      add\n        /* \"#utility.yul\":4189:4264   */\n      mstore\n        /* \"#utility.yul\":4121:4275   */\n      pop\n        /* \"#utility.yul\":4362:4364   */\n      0x40\n        /* \"#utility.yul\":4351:4360   */\n      dup3\n        /* \"#utility.yul\":4347:4365   */\n      add\n        /* \"#utility.yul\":4334:4366   */\n      calldataload\n        /* \"#utility.yul\":4393:4411   */\n      0xffffffffffffffff\n        /* \"#utility.yul\":4385:4391   */\n      dup2\n        /* \"#utility.yul\":4382:4412   */\n      gt\n        /* \"#utility.yul\":4379:4496   */\n      iszero\n      tag_118\n      jumpi\n        /* \"#utility.yul\":4415:4494   */\n      tag_119\n      tag_31\n      jump\t// in\n    tag_119:\n        /* \"#utility.yul\":4379:4496   */\n    tag_118:\n        /* \"#utility.yul\":4535:4594   */\n      tag_120\n        /* \"#utility.yul\":4590:4593   */\n      dup5\n        /* \"#utility.yul\":4581:4587   */\n      dup3\n        /* \"#utility.yul\":4570:4579   */\n      dup6\n        /* \"#utility.yul\":4566:4588   */\n      add\n        /* \"#utility.yul\":4535:4594   */\n      tag_44\n      jump\t// in\n    tag_120:\n        /* \"#utility.yul\":4528:4532   */\n      0x40\n        /* \"#utility.yul\":4521:4526   */\n      dup4\n        /* \"#utility.yul\":4517:4533   */\n      add\n        /* \"#utility.yul\":4510:4595   */\n      mstore\n        /* \"#utility.yul\":4285:4606   */\n      pop\n        /* \"#utility.yul\":4664:4666   */\n      0x60\n        /* \"#utility.yul\":4705:4754   */\n      tag_121\n        /* \"#utility.yul\":4750:4753   */\n      dup5\n        /* \"#utility.yul\":4741:4747   */\n      dup3\n        /* \"#utility.yul\":4730:4739   */\n      dup6\n        /* \"#utility.yul\":4726:4748   */\n      add\n        /* \"#utility.yul\":4705:4754   */\n      tag_38\n      jump\t// in\n    tag_121:\n        /* \"#utility.yul\":4698:4702   */\n      0x60\n        /* \"#utility.yul\":4691:4696   */\n      dup4\n        /* \"#utility.yul\":4687:4703   */\n      add\n        /* \"#utility.yul\":4680:4755   */\n      mstore\n        /* \"#utility.yul\":4616:4766   */\n      pop\n        /* \"#utility.yul\":3700:4773   */\n      swap3\n      swap2\n      pop\n      pop\n      jump\t// out\n        /* \"#utility.yul\":4779:5312   */\n    tag_7:\n        /* \"#utility.yul\":4860:4866   */\n      0x00\n        /* \"#utility.yul\":4909:4911   */\n      0x20\n        /* \"#utility.yul\":4897:4906   */\n      dup3\n        /* \"#utility.yul\":4888:4895   */\n      dup5\n        /* \"#utility.yul\":4884:4907   */\n      sub\n        /* \"#utility.yul\":4880:4912   */\n      slt\n        /* \"#utility.yul\":4877:4996   */\n      iszero\n      tag_123\n      jumpi\n        /* \"#utility.yul\":4915:4994   */\n      tag_124\n      tag_24\n      jump\t// in\n    tag_124:\n        /* \"#utility.yul\":4877:4996   */\n    tag_123:\n        /* \"#utility.yul\":5063:5064   */\n      0x00\n        /* \"#utility.yul\":5052:5061   */\n      dup3\n        /* \"#utility.yul\":5048:5065   */\n      add\n        /* \"#utility.yul\":5035:5066   */\n      calldataload\n        /* \"#utility.yul\":5093:5111   */\n      0xffffffffffffffff\n        /* \"#utility.yul\":5085:5091   */\n      dup2\n        /* \"#utility.yul\":5082:5112   */\n      gt\n        /* \"#utility.yul\":5079:5196   */\n      iszero\n      tag_125\n      jumpi\n        /* \"#utility.yul\":5115:5194   */\n      tag_126\n      tag_25\n      jump\t// in\n    tag_126:\n        /* \"#utility.yul\":5079:5196   */\n    tag_125:\n        /* \"#utility.yul\":5220:5295   */\n      tag_127\n        /* \"#utility.yul\":5287:5294   */\n      dup5\n        /* \"#utility.yul\":5278:5284   */\n      dup3\n        /* \"#utility.yul\":5267:5276   */\n      dup6\n        /* \"#utility.yul\":5263:5285   */\n      add\n        /* \"#utility.yul\":5220:5295   */\n      tag_45\n      jump\t// in\n    tag_127:\n        /* \"#utility.yul\":5210:5295   */\n      swap2\n      pop\n        /* \"#utility.yul\":5006:5305   */\n      pop\n        /* \"#utility.yul\":4779:5312   */\n      swap3\n      swap2\n      pop\n      pop\n      jump\t// out\n        /* \"#utility.yul\":5318:5416   */\n    tag_46:\n        /* \"#utility.yul\":5369:5375   */\n      0x00\n        /* \"#utility.yul\":5403:5408   */\n      dup2\n        /* \"#utility.yul\":5397:5409   */\n      mload\n        /* \"#utility.yul\":5387:5409   */\n      swap1\n      pop\n        /* \"#utility.yul\":5318:5416   */\n      swap2\n      swap1\n      pop\n      jump\t// out\n        /* \"#utility.yul\":5422:5590   */\n    tag_47:\n        /* \"#utility.yul\":5505:5516   */\n      0x00\n        /* \"#utility.yul\":5539:5545   */\n      dup3\n        /* \"#utility.yul\":5534:5537   */\n      dup3\n        /* \"#utility.yul\":5527:5546   */\n      mstore\n        /* \"#utility.yul\":5579:5583   */\n      0x20\n        /* \"#utility.yul\":5574:5577   */\n      dup3\n        /* \"#utility.yul\":5570:5584   */\n      add\n        /* \"#utility.yul\":5555:5584   */\n      swap1\n      pop\n        /* \"#utility.yul\":5422:5590   */\n      swap3\n      swap2\n      pop\n      pop\n      jump\t// out\n        /* \"#utility.yul\":5596:5842   */\n    tag_48:\n        /* \"#utility.yul\":5677:5678   */\n      0x00\n        /* \"#utility.yul\":5687:5800   */\n    tag_131:\n        /* \"#utility.yul\":5701:5707   */\n      dup4\n        /* \"#utility.yul\":5698:5699   */\n      dup2\n        /* \"#utility.yul\":5695:5708   */\n      lt\n        /* \"#utility.yul\":5687:5800   */\n      iszero\n      tag_133\n      jumpi\n        /* \"#utility.yul\":5786:5787   */\n      dup1\n        /* \"#utility.yul\":5781:5784   */\n      dup3\n        /* \"#utility.yul\":5777:5788   */\n      add\n        /* \"#utility.yul\":5771:5789   */\n      mload\n        /* \"#utility.yul\":5767:5768   */\n      dup2\n        /* \"#utility.yul\":5762:5765   */\n      dup5\n        /* \"#utility.yul\":5758:5769   */\n      add\n        /* \"#utility.yul\":5751:5790   */\n      mstore\n        /* \"#utility.yul\":5723:5725   */\n      0x20\n        /* \"#utility.yul\":5720:5721   */\n      dup2\n        /* \"#utility.yul\":5716:5726   */\n      add\n        /* \"#utility.yul\":5711:5726   */\n      swap1\n      pop\n        /* \"#utility.yul\":5687:5800   */\n      jump(tag_131)\n    tag_133:\n        /* \"#utility.yul\":5834:5835   */\n      0x00\n        /* \"#utility.yul\":5825:5831   */\n      dup5\n        /* \"#utility.yul\":5820:5823   */\n      dup5\n        /* \"#utility.yul\":5816:5832   */\n      add\n        /* \"#utility.yul\":5809:5836   */\n      mstore\n        /* \"#utility.yul\":5658:5842   */\n      pop\n        /* \"#utility.yul\":5596:5842   */\n      pop\n      pop\n      pop\n      jump\t// out\n        /* \"#utility.yul\":5848:6221   */\n    tag_49:\n        /* \"#utility.yul\":5934:5937   */\n      0x00\n        /* \"#utility.yul\":5962:6000   */\n      tag_135\n        /* \"#utility.yul\":5994:5999   */\n      dup3\n        /* \"#utility.yul\":5962:6000   */\n      tag_46\n      jump\t// in\n    tag_135:\n        /* \"#utility.yul\":6016:6086   */\n      tag_136\n        /* \"#utility.yul\":6079:6085   */\n      dup2\n        /* \"#utility.yul\":6074:6077   */\n      dup6\n        /* \"#utility.yul\":6016:6086   */\n      tag_47\n      jump\t// in\n    tag_136:\n        /* \"#utility.yul\":6009:6086   */\n      swap4\n      pop\n        /* \"#utility.yul\":6095:6160   */\n      tag_137\n        /* \"#utility.yul\":6153:6159   */\n      dup2\n        /* \"#utility.yul\":6148:6151   */\n      dup6\n        /* \"#utility.yul\":6141:6145   */\n      0x20\n        /* \"#utility.yul\":6134:6139   */\n      dup7\n        /* \"#utility.yul\":6130:6146   */\n      add\n        /* \"#utility.yul\":6095:6160   */\n      tag_48\n      jump\t// in\n    tag_137:\n        /* \"#utility.yul\":6185:6214   */\n      tag_138\n        /* \"#utility.yul\":6207:6213   */\n      dup2\n        /* \"#utility.yul\":6185:6214   */\n      tag_27\n      jump\t// in\n    tag_138:\n        /* \"#utility.yul\":6180:6183   */\n      dup5\n        /* \"#utility.yul\":6176:6215   */\n      add\n        /* \"#utility.yul\":6169:6215   */\n      swap2\n      pop\n        /* \"#utility.yul\":5938:6221   */\n      pop\n        /* \"#utility.yul\":5848:6221   */\n      swap3\n      swap2\n      pop\n      pop\n      jump\t// out\n        /* \"#utility.yul\":6227:6536   */\n    tag_10:\n        /* \"#utility.yul\":6338:6342   */\n      0x00\n        /* \"#utility.yul\":6376:6378   */\n      0x20\n        /* \"#utility.yul\":6365:6374   */\n      dup3\n        /* \"#utility.yul\":6361:6379   */\n      add\n        /* \"#utility.yul\":6353:6379   */\n      swap1\n      pop\n        /* \"#utility.yul\":6425:6434   */\n      dup2\n        /* \"#utility.yul\":6419:6423   */\n      dup2\n        /* \"#utility.yul\":6415:6435   */\n      sub\n        /* \"#utility.yul\":6411:6412   */\n      0x00\n        /* \"#utility.yul\":6400:6409   */\n      dup4\n        /* \"#utility.yul\":6396:6413   */\n      add\n        /* \"#utility.yul\":6389:6436   */\n      mstore\n        /* \"#utility.yul\":6453:6529   */\n      tag_140\n        /* \"#utility.yul\":6524:6528   */\n      dup2\n        /* \"#utility.yul\":6515:6521   */\n      dup5\n        /* \"#utility.yul\":6453:6529   */\n      tag_49\n      jump\t// in\n    tag_140:\n        /* \"#utility.yul\":6445:6529   */\n      swap1\n      pop\n        /* \"#utility.yul\":6227:6536   */\n      swap3\n      swap2\n      pop\n      pop\n      jump\t// out\n        /* \"#utility.yul\":6542:6849   */\n    tag_50:\n        /* \"#utility.yul\":6603:6607   */\n      0x00\n        /* \"#utility.yul\":6693:6711   */\n      0xffffffffffffffff\n        /* \"#utility.yul\":6685:6691   */\n      dup3\n        /* \"#utility.yul\":6682:6712   */\n      gt\n        /* \"#utility.yul\":6679:6735   */\n      iszero\n      tag_142\n      jumpi\n        /* \"#utility.yul\":6715:6733   */\n      tag_143\n      tag_28\n      jump\t// in\n    tag_143:\n        /* \"#utility.yul\":6679:6735   */\n    tag_142:\n        /* \"#utility.yul\":6753:6782   */\n      tag_144\n        /* \"#utility.yul\":6775:6781   */\n      dup3\n        /* \"#utility.yul\":6753:6782   */\n      tag_27\n      jump\t// in\n    tag_144:\n        /* \"#utility.yul\":6745:6782   */\n      swap1\n      pop\n        /* \"#utility.yul\":6837:6841   */\n      0x20\n        /* \"#utility.yul\":6831:6835   */\n      dup2\n        /* \"#utility.yul\":6827:6842   */\n      add\n        /* \"#utility.yul\":6819:6842   */\n      swap1\n      pop\n        /* \"#utility.yul\":6542:6849   */\n      swap2\n      swap1\n      pop\n      jump\t// out\n        /* \"#utility.yul\":6855:7278   */\n    tag_51:\n        /* \"#utility.yul\":6932:6937   */\n      0x00\n        /* \"#utility.yul\":6957:7022   */\n      tag_146\n        /* \"#utility.yul\":6973:7021   */\n      tag_147\n        /* \"#utility.yul\":7014:7020   */\n      dup5\n        /* \"#utility.yul\":6973:7021   */\n      tag_50\n      jump\t// in\n    tag_147:\n        /* \"#utility.yul\":6957:7022   */\n      tag_30\n      jump\t// in\n    tag_146:\n        /* \"#utility.yul\":6948:7022   */\n      swap1\n      pop\n        /* \"#utility.yul\":7045:7051   */\n      dup3\n        /* \"#utility.yul\":7038:7043   */\n      dup2\n        /* \"#utility.yul\":7031:7052   */\n      mstore\n        /* \"#utility.yul\":7083:7087   */\n      0x20\n        /* \"#utility.yul\":7076:7081   */\n      dup2\n        /* \"#utility.yul\":7072:7088   */\n      add\n        /* \"#utility.yul\":7121:7124   */\n      dup5\n        /* \"#utility.yul\":7112:7118   */\n      dup5\n        /* \"#utility.yul\":7107:7110   */\n      dup5\n        /* \"#utility.yul\":7103:7119   */\n      add\n        /* \"#utility.yul\":7100:7125   */\n      gt\n        /* \"#utility.yul\":7097:7209   */\n      iszero\n      tag_148\n      jumpi\n        /* \"#utility.yul\":7128:7207   */\n      tag_149\n      tag_40\n      jump\t// in\n    tag_149:\n        /* \"#utility.yul\":7097:7209   */\n    tag_148:\n        /* \"#utility.yul\":7218:7272   */\n      tag_150\n        /* \"#utility.yul\":7265:7271   */\n      dup5\n        /* \"#utility.yul\":7260:7263   */\n      dup3\n        /* \"#utility.yul\":7255:7258   */\n      dup6\n        /* \"#utility.yul\":7218:7272   */\n      tag_42\n      jump\t// in\n    tag_150:\n        /* \"#utility.yul\":6938:7278   */\n      pop\n        /* \"#utility.yul\":6855:7278   */\n      swap4\n      swap3\n      pop\n      pop\n      pop\n      jump\t// out\n        /* \"#utility.yul\":7297:7635   */\n    tag_52:\n        /* \"#utility.yul\":7352:7357   */\n      0x00\n        /* \"#utility.yul\":7401:7404   */\n      dup3\n        /* \"#utility.yul\":7394:7398   */\n      0x1f\n        /* \"#utility.yul\":7386:7392   */\n      dup4\n        /* \"#utility.yul\":7382:7399   */\n      add\n        /* \"#utility.yul\":7378:7405   */\n      slt\n        /* \"#utility.yul\":7368:7490   */\n      tag_152\n      jumpi\n        /* \"#utility.yul\":7409:7488   */\n      tag_153\n      tag_39\n      jump\t// in\n    tag_153:\n        /* \"#utility.yul\":7368:7490   */\n    tag_152:\n        /* \"#utility.yul\":7526:7532   */\n      dup2\n        /* \"#utility.yul\":7513:7533   */\n      calldataload\n        /* \"#utility.yul\":7551:7629   */\n      tag_154\n        /* \"#utility.yul\":7625:7628   */\n      dup5\n        /* \"#utility.yul\":7617:7623   */\n      dup3\n        /* \"#utility.yul\":7610:7614   */\n      0x20\n        /* \"#utility.yul\":7602:7608   */\n      dup7\n        /* \"#utility.yul\":7598:7615   */\n      add\n        /* \"#utility.yul\":7551:7629   */\n      tag_51\n      jump\t// in\n    tag_154:\n        /* \"#utility.yul\":7542:7629   */\n      swap2\n      pop\n        /* \"#utility.yul\":7358:7635   */\n      pop\n        /* \"#utility.yul\":7297:7635   */\n      swap3\n      swap2\n      pop\n      pop\n      jump\t// out\n        /* \"#utility.yul\":7641:8293   */\n    tag_13:\n        /* \"#utility.yul\":7718:7724   */\n      0x00\n        /* \"#utility.yul\":7726:7732   */\n      dup1\n        /* \"#utility.yul\":7775:7777   */\n      0x40\n        /* \"#utility.yul\":7763:7772   */\n      dup4\n        /* \"#utility.yul\":7754:7761   */\n      dup6\n        /* \"#utility.yul\":7750:7773   */\n      sub\n        /* \"#utility.yul\":7746:7778   */\n      slt\n        /* \"#utility.yul\":7743:7862   */\n      iszero\n      tag_156\n      jumpi\n        /* \"#utility.yul\":7781:7860   */\n      tag_157\n      tag_24\n      jump\t// in\n    tag_157:\n        /* \"#utility.yul\":7743:7862   */\n    tag_156:\n        /* \"#utility.yul\":7929:7930   */\n      0x00\n        /* \"#utility.yul\":7918:7927   */\n      dup4\n        /* \"#utility.yul\":7914:7931   */\n      add\n        /* \"#utility.yul\":7901:7932   */\n      calldataload\n        /* \"#utility.yul\":7959:7977   */\n      0xffffffffffffffff\n        /* \"#utility.yul\":7951:7957   */\n      dup2\n        /* \"#utility.yul\":7948:7978   */\n      gt\n        /* \"#utility.yul\":7945:8062   */\n      iszero\n      tag_158\n      jumpi\n        /* \"#utility.yul\":7981:8060   */\n      tag_159\n      tag_25\n      jump\t// in\n    tag_159:\n        /* \"#utility.yul\":7945:8062   */\n    tag_158:\n        /* \"#utility.yul\":8086:8148   */\n      tag_160\n        /* \"#utility.yul\":8140:8147   */\n      dup6\n        /* \"#utility.yul\":8131:8137   */\n      dup3\n        /* \"#utility.yul\":8120:8129   */\n      dup7\n        /* \"#utility.yul\":8116:8138   */\n      add\n        /* \"#utility.yul\":8086:8148   */\n      tag_52\n      jump\t// in\n    tag_160:\n        /* \"#utility.yul\":8076:8148   */\n      swap3\n      pop\n        /* \"#utility.yul\":7872:8158   */\n      pop\n        /* \"#utility.yul\":8197:8199   */\n      0x20\n        /* \"#utility.yul\":8223:8276   */\n      tag_161\n        /* \"#utility.yul\":8268:8275   */\n      dup6\n        /* \"#utility.yul\":8259:8265   */\n      dup3\n        /* \"#utility.yul\":8248:8257   */\n      dup7\n        /* \"#utility.yul\":8244:8266   */\n      add\n        /* \"#utility.yul\":8223:8276   */\n      tag_38\n      jump\t// in\n    tag_161:\n        /* \"#utility.yul\":8213:8276   */\n      swap2\n      pop\n        /* \"#utility.yul\":8168:8286   */\n      pop\n        /* \"#utility.yul\":7641:8293   */\n      swap3\n      pop\n      swap3\n      swap1\n      pop\n      jump\t// out\n        /* \"#utility.yul\":8299:8389   */\n    tag_53:\n        /* \"#utility.yul\":8333:8340   */\n      0x00\n        /* \"#utility.yul\":8376:8381   */\n      dup2\n        /* \"#utility.yul\":8369:8382   */\n      iszero\n        /* \"#utility.yul\":8362:8383   */\n      iszero\n        /* \"#utility.yul\":8351:8383   */\n      swap1\n      pop\n        /* \"#utility.yul\":8299:8389   */\n      swap2\n      swap1\n      pop\n      jump\t// out\n        /* \"#utility.yul\":8395:8504   */\n    tag_54:\n        /* \"#utility.yul\":8476:8497   */\n      tag_164\n        /* \"#utility.yul\":8491:8496   */\n      dup2\n        /* \"#utility.yul\":8476:8497   */\n      tag_53\n      jump\t// in\n    tag_164:\n        /* \"#utility.yul\":8471:8474   */\n      dup3\n        /* \"#utility.yul\":8464:8498   */\n      mstore\n        /* \"#utility.yul\":8395:8504   */\n      pop\n      pop\n      jump\t// out\n        /* \"#utility.yul\":8510:8720   */\n    tag_16:\n        /* \"#utility.yul\":8597:8601   */\n      0x00\n        /* \"#utility.yul\":8635:8637   */\n      0x20\n        /* \"#utility.yul\":8624:8633   */\n      dup3\n        /* \"#utility.yul\":8620:8638   */\n      add\n        /* \"#utility.yul\":8612:8638   */\n      swap1\n      pop\n        /* \"#utility.yul\":8648:8713   */\n      tag_166\n        /* \"#utility.yul\":8710:8711   */\n      0x00\n        /* \"#utility.yul\":8699:8708   */\n      dup4\n        /* \"#utility.yul\":8695:8712   */\n      add\n        /* \"#utility.yul\":8686:8692   */\n      dup5\n        /* \"#utility.yul\":8648:8713   */\n      tag_54\n      jump\t// in\n    tag_166:\n        /* \"#utility.yul\":8510:8720   */\n      swap3\n      swap2\n      pop\n      pop\n      jump\t// out\n        /* \"#utility.yul\":8726:8834   */\n    tag_55:\n        /* \"#utility.yul\":8803:8827   */\n      tag_168\n        /* \"#utility.yul\":8821:8826   */\n      dup2\n        /* \"#utility.yul\":8803:8827   */\n      tag_33\n      jump\t// in\n    tag_168:\n        /* \"#utility.yul\":8798:8801   */\n      dup3\n        /* \"#utility.yul\":8791:8828   */\n      mstore\n        /* \"#utility.yul\":8726:8834   */\n      pop\n      pop\n      jump\t// out\n        /* \"#utility.yul\":8840:8948   */\n    tag_56:\n        /* \"#utility.yul\":8917:8941   */\n      tag_170\n        /* \"#utility.yul\":8935:8940   */\n      dup2\n        /* \"#utility.yul\":8917:8941   */\n      tag_36\n      jump\t// in\n    tag_170:\n        /* \"#utility.yul\":8912:8915   */\n      dup3\n        /* \"#utility.yul\":8905:8942   */\n      mstore\n        /* \"#utility.yul\":8840:8948   */\n      pop\n      pop\n      jump\t// out\n        /* \"#utility.yul\":8954:9053   */\n    tag_57:\n        /* \"#utility.yul\":9006:9012   */\n      0x00\n        /* \"#utility.yul\":9040:9045   */\n      dup2\n        /* \"#utility.yul\":9034:9046   */\n      mload\n        /* \"#utility.yul\":9024:9046   */\n      swap1\n      pop\n        /* \"#utility.yul\":8954:9053   */\n      swap2\n      swap1\n      pop\n      jump\t// out\n        /* \"#utility.yul\":9059:9218   */\n    tag_58:\n        /* \"#utility.yul\":9133:9144   */\n      0x00\n        /* \"#utility.yul\":9167:9173   */\n      dup3\n        /* \"#utility.yul\":9162:9165   */\n      dup3\n        /* \"#utility.yul\":9155:9174   */\n      mstore\n        /* \"#utility.yul\":9207:9211   */\n      0x20\n        /* \"#utility.yul\":9202:9205   */\n      dup3\n        /* \"#utility.yul\":9198:9212   */\n      add\n        /* \"#utility.yul\":9183:9212   */\n      swap1\n      pop\n        /* \"#utility.yul\":9059:9218   */\n      swap3\n      swap2\n      pop\n      pop\n      jump\t// out\n        /* \"#utility.yul\":9224:9581   */\n    tag_59:\n        /* \"#utility.yul\":9302:9305   */\n      0x00\n        /* \"#utility.yul\":9330:9369   */\n      tag_174\n        /* \"#utility.yul\":9363:9368   */\n      dup3\n        /* \"#utility.yul\":9330:9369   */\n      tag_57\n      jump\t// in\n    tag_174:\n        /* \"#utility.yul\":9385:9446   */\n      tag_175\n        /* \"#utility.yul\":9439:9445   */\n      dup2\n        /* \"#utility.yul\":9434:9437   */\n      dup6\n        /* \"#utility.yul\":9385:9446   */\n      tag_58\n      jump\t// in\n    tag_175:\n        /* \"#utility.yul\":9378:9446   */\n      swap4\n      pop\n        /* \"#utility.yul\":9455:9520   */\n      tag_176\n        /* \"#utility.yul\":9513:9519   */\n      dup2\n        /* \"#utility.yul\":9508:9511   */\n      dup6\n        /* \"#utility.yul\":9501:9505   */\n      0x20\n        /* \"#utility.yul\":9494:9499   */\n      dup7\n        /* \"#utility.yul\":9490:9506   */\n      add\n        /* \"#utility.yul\":9455:9520   */\n      tag_48\n      jump\t// in\n    tag_176:\n        /* \"#utility.yul\":9545:9574   */\n      tag_177\n        /* \"#utility.yul\":9567:9573   */\n      dup2\n        /* \"#utility.yul\":9545:9574   */\n      tag_27\n      jump\t// in\n    tag_177:\n        /* \"#utility.yul\":9540:9543   */\n      dup5\n        /* \"#utility.yul\":9536:9575   */\n      add\n        /* \"#utility.yul\":9529:9575   */\n      swap2\n      pop\n        /* \"#utility.yul\":9306:9581   */\n      pop\n        /* \"#utility.yul\":9224:9581   */\n      swap3\n      swap2\n      pop\n      pop\n      jump\t// out\n        /* \"#utility.yul\":9659:10617   */\n    tag_60:\n        /* \"#utility.yul\":9772:9775   */\n      0x00\n        /* \"#utility.yul\":9808:9812   */\n      0x80\n        /* \"#utility.yul\":9803:9806   */\n      dup4\n        /* \"#utility.yul\":9799:9813   */\n      add\n        /* \"#utility.yul\":9903:9907   */\n      0x00\n        /* \"#utility.yul\":9896:9901   */\n      dup4\n        /* \"#utility.yul\":9892:9908   */\n      add\n        /* \"#utility.yul\":9886:9909   */\n      mload\n        /* \"#utility.yul\":9922:9985   */\n      tag_179\n        /* \"#utility.yul\":9979:9983   */\n      0x00\n        /* \"#utility.yul\":9974:9977   */\n      dup7\n        /* \"#utility.yul\":9970:9984   */\n      add\n        /* \"#utility.yul\":9956:9968   */\n      dup3\n        /* \"#utility.yul\":9922:9985   */\n      tag_55\n      jump\t// in\n    tag_179:\n        /* \"#utility.yul\":9823:9995   */\n      pop\n        /* \"#utility.yul\":10080:10084   */\n      0x20\n        /* \"#utility.yul\":10073:10078   */\n      dup4\n        /* \"#utility.yul\":10069:10085   */\n      add\n        /* \"#utility.yul\":10063:10086   */\n      mload\n        /* \"#utility.yul\":10099:10162   */\n      tag_180\n        /* \"#utility.yul\":10156:10160   */\n      0x20\n        /* \"#utility.yul\":10151:10154   */\n      dup7\n        /* \"#utility.yul\":10147:10161   */\n      add\n        /* \"#utility.yul\":10133:10145   */\n      dup3\n        /* \"#utility.yul\":10099:10162   */\n      tag_56\n      jump\t// in\n    tag_180:\n        /* \"#utility.yul\":10005:10172   */\n      pop\n        /* \"#utility.yul\":10254:10258   */\n      0x40\n        /* \"#utility.yul\":10247:10252   */\n      dup4\n        /* \"#utility.yul\":10243:10259   */\n      add\n        /* \"#utility.yul\":10237:10260   */\n      mload\n        /* \"#utility.yul\":10307:10310   */\n      dup5\n        /* \"#utility.yul\":10301:10305   */\n      dup3\n        /* \"#utility.yul\":10297:10311   */\n      sub\n        /* \"#utility.yul\":10290:10294   */\n      0x40\n        /* \"#utility.yul\":10285:10288   */\n      dup7\n        /* \"#utility.yul\":10281:10295   */\n      add\n        /* \"#utility.yul\":10274:10312   */\n      mstore\n        /* \"#utility.yul\":10333:10406   */\n      tag_181\n        /* \"#utility.yul\":10401:10405   */\n      dup3\n        /* \"#utility.yul\":10387:10399   */\n      dup3\n        /* \"#utility.yul\":10333:10406   */\n      tag_59\n      jump\t// in\n    tag_181:\n        /* \"#utility.yul\":10325:10406   */\n      swap2\n      pop\n        /* \"#utility.yul\":10182:10417   */\n      pop\n        /* \"#utility.yul\":10498:10502   */\n      0x60\n        /* \"#utility.yul\":10491:10496   */\n      dup4\n        /* \"#utility.yul\":10487:10503   */\n      add\n        /* \"#utility.yul\":10481:10504   */\n      mload\n        /* \"#utility.yul\":10517:10580   */\n      tag_182\n        /* \"#utility.yul\":10574:10578   */\n      0x60\n        /* \"#utility.yul\":10569:10572   */\n      dup7\n        /* \"#utility.yul\":10565:10579   */\n      add\n        /* \"#utility.yul\":10551:10563   */\n      dup3\n        /* \"#utility.yul\":10517:10580   */\n      tag_56\n      jump\t// in\n    tag_182:\n        /* \"#utility.yul\":10427:10590   */\n      pop\n        /* \"#utility.yul\":10607:10611   */\n      dup1\n        /* \"#utility.yul\":10600:10611   */\n      swap2\n      pop\n        /* \"#utility.yul\":9777:10617   */\n      pop\n        /* \"#utility.yul\":9659:10617   */\n      swap3\n      swap2\n      pop\n      pop\n      jump\t// out\n        /* \"#utility.yul\":10623:10984   */\n    tag_19:\n        /* \"#utility.yul\":10760:10764   */\n      0x00\n        /* \"#utility.yul\":10798:10800   */\n      0x20\n        /* \"#utility.yul\":10787:10796   */\n      dup3\n        /* \"#utility.yul\":10783:10801   */\n      add\n        /* \"#utility.yul\":10775:10801   */\n      swap1\n      pop\n        /* \"#utility.yul\":10847:10856   */\n      dup2\n        /* \"#utility.yul\":10841:10845   */\n      dup2\n        /* \"#utility.yul\":10837:10857   */\n      sub\n        /* \"#utility.yul\":10833:10834   */\n      0x00\n        /* \"#utility.yul\":10822:10831   */\n      dup4\n        /* \"#utility.yul\":10818:10835   */\n      add\n        /* \"#utility.yul\":10811:10858   */\n      mstore\n        /* \"#utility.yul\":10875:10977   */\n      tag_184\n        /* \"#utility.yul\":10972:10976   */\n      dup2\n        /* \"#utility.yul\":10963:10969   */\n      dup5\n        /* \"#utility.yul\":10875:10977   */\n      tag_60\n      jump\t// in\n    tag_184:\n        /* \"#utility.yul\":10867:10977   */\n      swap1\n      pop\n        /* \"#utility.yul\":10623:10984   */\n      swap3\n      swap2\n      pop\n      pop\n      jump\t// out\n        /* \"#utility.yul\":10990:11133   */\n    tag_61:\n        /* \"#utility.yul\":11047:11052   */\n      0x00\n        /* \"#utility.yul\":11078:11084   */\n      dup2\n        /* \"#utility.yul\":11072:11085   */\n      mload\n        /* \"#utility.yul\":11063:11085   */\n      swap1\n      pop\n        /* \"#utility.yul\":11094:11127   */\n      tag_186\n        /* \"#utility.yul\":11121:11126   */\n      dup2\n        /* \"#utility.yul\":11094:11127   */\n      tag_34\n      jump\t// in\n    tag_186:\n        /* \"#utility.yul\":10990:11133   */\n      swap3\n      swap2\n      pop\n      pop\n      jump\t// out\n        /* \"#utility.yul\":11139:11282   */\n    tag_62:\n        /* \"#utility.yul\":11196:11201   */\n      0x00\n        /* \"#utility.yul\":11227:11233   */\n      dup2\n        /* \"#utility.yul\":11221:11234   */\n      mload\n        /* \"#utility.yul\":11212:11234   */\n      swap1\n      pop\n        /* \"#utility.yul\":11243:11276   */\n      tag_188\n        /* \"#utility.yul\":11270:11275   */\n      dup2\n        /* \"#utility.yul\":11243:11276   */\n      tag_37\n      jump\t// in\n    tag_188:\n        /* \"#utility.yul\":11139:11282   */\n      swap3\n      swap2\n      pop\n      pop\n      jump\t// out\n        /* \"#utility.yul\":11288:11722   */\n    tag_63:\n        /* \"#utility.yul\":11377:11382   */\n      0x00\n        /* \"#utility.yul\":11402:11468   */\n      tag_190\n        /* \"#utility.yul\":11418:11467   */\n      tag_191\n        /* \"#utility.yul\":11460:11466   */\n      dup5\n        /* \"#utility.yul\":11418:11467   */\n      tag_41\n      jump\t// in\n    tag_191:\n        /* \"#utility.yul\":11402:11468   */\n      tag_30\n      jump\t// in\n    tag_190:\n        /* \"#utility.yul\":11393:11468   */\n      swap1\n      pop\n        /* \"#utility.yul\":11491:11497   */\n      dup3\n        /* \"#utility.yul\":11484:11489   */\n      dup2\n        /* \"#utility.yul\":11477:11498   */\n      mstore\n        /* \"#utility.yul\":11529:11533   */\n      0x20\n        /* \"#utility.yul\":11522:11527   */\n      dup2\n        /* \"#utility.yul\":11518:11534   */\n      add\n        /* \"#utility.yul\":11567:11570   */\n      dup5\n        /* \"#utility.yul\":11558:11564   */\n      dup5\n        /* \"#utility.yul\":11553:11556   */\n      dup5\n        /* \"#utility.yul\":11549:11565   */\n      add\n        /* \"#utility.yul\":11546:11571   */\n      gt\n        /* \"#utility.yul\":11543:11655   */\n      iszero\n      tag_192\n      jumpi\n        /* \"#utility.yul\":11574:11653   */\n      tag_193\n      tag_40\n      jump\t// in\n    tag_193:\n        /* \"#utility.yul\":11543:11655   */\n    tag_192:\n        /* \"#utility.yul\":11664:11716   */\n      tag_194\n        /* \"#utility.yul\":11709:11715   */\n      dup5\n        /* \"#utility.yul\":11704:11707   */\n      dup3\n        /* \"#utility.yul\":11699:11702   */\n      dup6\n        /* \"#utility.yul\":11664:11716   */\n      tag_48\n      jump\t// in\n    tag_194:\n        /* \"#utility.yul\":11383:11722   */\n      pop\n        /* \"#utility.yul\":11288:11722   */\n      swap4\n      swap3\n      pop\n      pop\n      pop\n      jump\t// out\n        /* \"#utility.yul\":11742:12097   */\n    tag_64:\n        /* \"#utility.yul\":11809:11814   */\n      0x00\n        /* \"#utility.yul\":11858:11861   */\n      dup3\n        /* \"#utility.yul\":11851:11855   */\n      0x1f\n        /* \"#utility.yul\":11843:11849   */\n      dup4\n        /* \"#utility.yul\":11839:11856   */\n      add\n        /* \"#utility.yul\":11835:11862   */\n      slt\n        /* \"#utility.yul\":11825:11947   */\n      tag_196\n      jumpi\n        /* \"#utility.yul\":11866:11945   */\n      tag_197\n      tag_39\n      jump\t// in\n    tag_197:\n        /* \"#utility.yul\":11825:11947   */\n    tag_196:\n        /* \"#utility.yul\":11976:11982   */\n      dup2\n        /* \"#utility.yul\":11970:11983   */\n      mload\n        /* \"#utility.yul\":12001:12091   */\n      tag_198\n        /* \"#utility.yul\":12087:12090   */\n      dup5\n        /* \"#utility.yul\":12079:12085   */\n      dup3\n        /* \"#utility.yul\":12072:12076   */\n      0x20\n        /* \"#utility.yul\":12064:12070   */\n      dup7\n        /* \"#utility.yul\":12060:12077   */\n      add\n        /* \"#utility.yul\":12001:12091   */\n      tag_63\n      jump\t// in\n    tag_198:\n        /* \"#utility.yul\":11992:12091   */\n      swap2\n      pop\n        /* \"#utility.yul\":11815:12097   */\n      pop\n        /* \"#utility.yul\":11742:12097   */\n      swap3\n      swap2\n      pop\n      pop\n      jump\t// out\n        /* \"#utility.yul\":12141:13262   */\n    tag_65:\n        /* \"#utility.yul\":12223:12228   */\n      0x00\n        /* \"#utility.yul\":12267:12271   */\n      0x80\n        /* \"#utility.yul\":12255:12264   */\n      dup3\n        /* \"#utility.yul\":12250:12253   */\n      dup5\n        /* \"#utility.yul\":12246:12265   */\n      sub\n        /* \"#utility.yul\":12242:12272   */\n      slt\n        /* \"#utility.yul\":12239:12356   */\n      iszero\n      tag_200\n      jumpi\n        /* \"#utility.yul\":12275:12354   */\n      tag_201\n      tag_26\n      jump\t// in\n    tag_201:\n        /* \"#utility.yul\":12239:12356   */\n    tag_200:\n        /* \"#utility.yul\":12374:12395   */\n      tag_202\n        /* \"#utility.yul\":12390:12394   */\n      0x80\n        /* \"#utility.yul\":12374:12395   */\n      tag_30\n      jump\t// in\n    tag_202:\n        /* \"#utility.yul\":12365:12395   */\n      swap1\n      pop\n        /* \"#utility.yul\":12462:12463   */\n      0x00\n        /* \"#utility.yul\":12502:12562   */\n      tag_203\n        /* \"#utility.yul\":12558:12561   */\n      dup5\n        /* \"#utility.yul\":12549:12555   */\n      dup3\n        /* \"#utility.yul\":12538:12547   */\n      dup6\n        /* \"#utility.yul\":12534:12556   */\n      add\n        /* \"#utility.yul\":12502:12562   */\n      tag_61\n      jump\t// in\n    tag_203:\n        /* \"#utility.yul\":12495:12499   */\n      0x00\n        /* \"#utility.yul\":12488:12493   */\n      dup4\n        /* \"#utility.yul\":12484:12500   */\n      add\n        /* \"#utility.yul\":12477:12563   */\n      mstore\n        /* \"#utility.yul\":12405:12574   */\n      pop\n        /* \"#utility.yul\":12636:12638   */\n      0x20\n        /* \"#utility.yul\":12677:12737   */\n      tag_204\n        /* \"#utility.yul\":12733:12736   */\n      dup5\n        /* \"#utility.yul\":12724:12730   */\n      dup3\n        /* \"#utility.yul\":12713:12722   */\n      dup6\n        /* \"#utility.yul\":12709:12731   */\n      add\n        /* \"#utility.yul\":12677:12737   */\n      tag_62\n      jump\t// in\n    tag_204:\n        /* \"#utility.yul\":12670:12674   */\n      0x20\n        /* \"#utility.yul\":12663:12668   */\n      dup4\n        /* \"#utility.yul\":12659:12675   */\n      add\n        /* \"#utility.yul\":12652:12738   */\n      mstore\n        /* \"#utility.yul\":12584:12749   */\n      pop\n        /* \"#utility.yul\":12829:12831   */\n      0x40\n        /* \"#utility.yul\":12818:12827   */\n      dup3\n        /* \"#utility.yul\":12814:12832   */\n      add\n        /* \"#utility.yul\":12808:12833   */\n      mload\n        /* \"#utility.yul\":12860:12878   */\n      0xffffffffffffffff\n        /* \"#utility.yul\":12852:12858   */\n      dup2\n        /* \"#utility.yul\":12849:12879   */\n      gt\n        /* \"#utility.yul\":12846:12963   */\n      iszero\n      tag_205\n      jumpi\n        /* \"#utility.yul\":12882:12961   */\n      tag_206\n      tag_31\n      jump\t// in\n    tag_206:\n        /* \"#utility.yul\":12846:12963   */\n    tag_205:\n        /* \"#utility.yul\":13002:13072   */\n      tag_207\n        /* \"#utility.yul\":13068:13071   */\n      dup5\n        /* \"#utility.yul\":13059:13065   */\n      dup3\n        /* \"#utility.yul\":13048:13057   */\n      dup6\n        /* \"#utility.yul\":13044:13066   */\n      add\n        /* \"#utility.yul\":13002:13072   */\n      tag_64\n      jump\t// in\n    tag_207:\n        /* \"#utility.yul\":12995:12999   */\n      0x40\n        /* \"#utility.yul\":12988:12993   */\n      dup4\n        /* \"#utility.yul\":12984:13000   */\n      add\n        /* \"#utility.yul\":12977:13073   */\n      mstore\n        /* \"#utility.yul\":12759:13084   */\n      pop\n        /* \"#utility.yul\":13142:13144   */\n      0x60\n        /* \"#utility.yul\":13183:13243   */\n      tag_208\n        /* \"#utility.yul\":13239:13242   */\n      dup5\n        /* \"#utility.yul\":13230:13236   */\n      dup3\n        /* \"#utility.yul\":13219:13228   */\n      dup6\n        /* \"#utility.yul\":13215:13237   */\n      add\n        /* \"#utility.yul\":13183:13243   */\n      tag_62\n      jump\t// in\n    tag_208:\n        /* \"#utility.yul\":13176:13180   */\n      0x60\n        /* \"#utility.yul\":13169:13174   */\n      dup4\n        /* \"#utility.yul\":13165:13181   */\n      add\n        /* \"#utility.yul\":13158:13244   */\n      mstore\n        /* \"#utility.yul\":13094:13255   */\n      pop\n        /* \"#utility.yul\":12141:13262   */\n      swap3\n      swap2\n      pop\n      pop\n      jump\t// out\n        /* \"#utility.yul\":13268:13816   */\n    tag_22:\n        /* \"#utility.yul\":13360:13366   */\n      0x00\n        /* \"#utility.yul\":13409:13411   */\n      0x20\n        /* \"#utility.yul\":13397:13406   */\n      dup3\n        /* \"#utility.yul\":13388:13395   */\n      dup5\n        /* \"#utility.yul\":13384:13407   */\n      sub\n        /* \"#utility.yul\":13380:13412   */\n      slt\n        /* \"#utility.yul\":13377:13496   */\n      iszero\n      tag_210\n      jumpi\n        /* \"#utility.yul\":13415:13494   */\n      tag_211\n      tag_24\n      jump\t// in\n    tag_211:\n        /* \"#utility.yul\":13377:13496   */\n    tag_210:\n        /* \"#utility.yul\":13556:13557   */\n      0x00\n        /* \"#utility.yul\":13545:13554   */\n      dup3\n        /* \"#utility.yul\":13541:13558   */\n      add\n        /* \"#utility.yul\":13535:13559   */\n      mload\n        /* \"#utility.yul\":13586:13604   */\n      0xffffffffffffffff\n        /* \"#utility.yul\":13578:13584   */\n      dup2\n        /* \"#utility.yul\":13575:13605   */\n      gt\n        /* \"#utility.yul\":13572:13689   */\n      iszero\n      tag_212\n      jumpi\n        /* \"#utility.yul\":13608:13687   */\n      tag_213\n      tag_25\n      jump\t// in\n    tag_213:\n        /* \"#utility.yul\":13572:13689   */\n    tag_212:\n        /* \"#utility.yul\":13713:13799   */\n      tag_214\n        /* \"#utility.yul\":13791:13798   */\n      dup5\n        /* \"#utility.yul\":13782:13788   */\n      dup3\n        /* \"#utility.yul\":13771:13780   */\n      dup6\n        /* \"#utility.yul\":13767:13789   */\n      add\n        /* \"#utility.yul\":13713:13799   */\n      tag_65\n      jump\t// in\n    tag_214:\n        /* \"#utility.yul\":13703:13799   */\n      swap2\n      pop\n        /* \"#utility.yul\":13506:13809   */\n      pop\n        /* \"#utility.yul\":13268:13816   */\n      swap3\n      swap2\n      pop\n      pop\n      jump\t// out\n\n    auxdata: 0xa2646970667358221220b0ad699ae1341427eba994331f1b5d91b58499a7d7a58a9798b5f7c1b28001f364736f6c63430008140033\n}\n",
				"bytecode": {
					"linkReferences": {},
					"object": "608060405234801561000f575f80fd5b506107fc8061001d5f395ff3fe608060405234801561000f575f80fd5b5060043610610034575f3560e01c8063a315c4ba14610038578063cf53f68114610068575b5f80fd5b610052600480360381019061004d919061035c565b610098565b60405161005f919061041d565b60405180910390f35b610082600480360381019061007d91906104db565b6100c1565b60405161008f919061054f565b60405180910390f35b6060816040516020016100ab9190610638565b6040516020818303038152906040529050919050565b5f80838060200190518101906100d7919061077f565b90508281602001511491505092915050565b5f604051905090565b5f80fd5b5f80fd5b5f80fd5b5f601f19601f8301169050919050565b7f4e487b71000000000000000000000000000000000000000000000000000000005f52604160045260245ffd5b610144826100fe565b810181811067ffffffffffffffff821117156101635761016261010e565b5b80604052505050565b5f6101756100e9565b9050610181828261013b565b919050565b5f80fd5b5f73ffffffffffffffffffffffffffffffffffffffff82169050919050565b5f6101b38261018a565b9050919050565b6101c3816101a9565b81146101cd575f80fd5b50565b5f813590506101de816101ba565b92915050565b5f819050919050565b6101f6816101e4565b8114610200575f80fd5b50565b5f81359050610211816101ed565b92915050565b5f80fd5b5f80fd5b5f67ffffffffffffffff8211156102395761023861010e565b5b610242826100fe565b9050602081019050919050565b828183375f83830152505050565b5f61026f61026a8461021f565b61016c565b90508281526020810184848401111561028b5761028a61021b565b5b61029684828561024f565b509392505050565b5f82601f8301126102b2576102b1610217565b5b81356102c284826020860161025d565b91505092915050565b5f608082840312156102e0576102df6100fa565b5b6102ea608061016c565b90505f6102f9848285016101d0565b5f83015250602061030c84828501610203565b602083015250604082013567ffffffffffffffff8111156103305761032f610186565b5b61033c8482850161029e565b604083015250606061035084828501610203565b60608301525092915050565b5f60208284031215610371576103706100f2565b5b5f82013567ffffffffffffffff81111561038e5761038d6100f6565b5b61039a848285016102cb565b91505092915050565b5f81519050919050565b5f82825260208201905092915050565b5f5b838110156103da5780820151818401526020810190506103bf565b5f8484015250505050565b5f6103ef826103a3565b6103f981856103ad565b93506104098185602086016103bd565b610412816100fe565b840191505092915050565b5f6020820190508181035f83015261043581846103e5565b905092915050565b5f67ffffffffffffffff8211156104575761045661010e565b5b610460826100fe565b9050602081019050919050565b5f61047f61047a8461043d565b61016c565b90508281526020810184848401111561049b5761049a61021b565b5b6104a684828561024f565b509392505050565b5f82601f8301126104c2576104c1610217565b5b81356104d284826020860161046d565b91505092915050565b5f80604083850312156104f1576104f06100f2565b5b5f83013567ffffffffffffffff81111561050e5761050d6100f6565b5b61051a858286016104ae565b925050602061052b85828601610203565b9150509250929050565b5f8115159050919050565b61054981610535565b82525050565b5f6020820190506105625f830184610540565b92915050565b610571816101a9565b82525050565b610580816101e4565b82525050565b5f81519050919050565b5f82825260208201905092915050565b5f6105aa82610586565b6105b48185610590565b93506105c48185602086016103bd565b6105cd816100fe565b840191505092915050565b5f608083015f8301516105ed5f860182610568565b5060208301516106006020860182610577565b506040830151848203604086015261061882826105a0565b915050606083015161062d6060860182610577565b508091505092915050565b5f6020820190508181035f83015261065081846105d8565b905092915050565b5f81519050610666816101ba565b92915050565b5f8151905061067a816101ed565b92915050565b5f61069261068d8461021f565b61016c565b9050828152602081018484840111156106ae576106ad61021b565b5b6106b98482856103bd565b509392505050565b5f82601f8301126106d5576106d4610217565b5b81516106e5848260208601610680565b91505092915050565b5f60808284031215610703576107026100fa565b5b61070d608061016c565b90505f61071c84828501610658565b5f83015250602061072f8482850161066c565b602083015250604082015167ffffffffffffffff81111561075357610752610186565b5b61075f848285016106c1565b60408301525060606107738482850161066c565b60608301525092915050565b5f60208284031215610794576107936100f2565b5b5f82015167ffffffffffffffff8111156107b1576107b06100f6565b5b6107bd848285016106ee565b9150509291505056fea2646970667358221220b0ad699ae1341427eba994331f1b5d91b58499a7d7a58a9798b5f7c1b28001f364736f6c63430008140033",
					"opcodes": "PUSH1 0x80 PUSH1 0x40 MSTORE CALLVALUE DUP1 ISZERO PUSH2 0xF JUMPI PUSH0 DUP1 REVERT JUMPDEST POP PUSH2 0x7FC DUP1 PUSH2 0x1D PUSH0 CODECOPY PUSH0 RETURN INVALID PUSH1 0x80 PUSH1 0x40 MSTORE CALLVALUE DUP1 ISZERO PUSH2 0xF JUMPI PUSH0 DUP1 REVERT JUMPDEST POP PUSH1 0x4 CALLDATASIZE LT PUSH2 0x34 JUMPI PUSH0 CALLDATALOAD PUSH1 0xE0 SHR DUP1 PUSH4 0xA315C4BA EQ PUSH2 0x38 JUMPI DUP1 PUSH4 0xCF53F681 EQ PUSH2 0x68 JUMPI JUMPDEST PUSH0 DUP1 REVERT JUMPDEST PUSH2 0x52 PUSH1 0x4 DUP1 CALLDATASIZE SUB DUP2 ADD SWAP1 PUSH2 0x4D SWAP2 SWAP1 PUSH2 0x35C JUMP JUMPDEST PUSH2 0x98 JUMP JUMPDEST PUSH1 0x40 MLOAD PUSH2 0x5F SWAP2 SWAP1 PUSH2 0x41D JUMP JUMPDEST PUSH1 0x40 MLOAD DUP1 SWAP2 SUB SWAP1 RETURN JUMPDEST PUSH2 0x82 PUSH1 0x4 DUP1 CALLDATASIZE SUB DUP2 ADD SWAP1 PUSH2 0x7D SWAP2 SWAP1 PUSH2 0x4DB JUMP JUMPDEST PUSH2 0xC1 JUMP JUMPDEST PUSH1 0x40 MLOAD PUSH2 0x8F SWAP2 SWAP1 PUSH2 0x54F JUMP JUMPDEST PUSH1 0x40 MLOAD DUP1 SWAP2 SUB SWAP1 RETURN JUMPDEST PUSH1 0x60 DUP2 PUSH1 0x40 MLOAD PUSH1 0x20 ADD PUSH2 0xAB SWAP2 SWAP1 PUSH2 0x638 JUMP JUMPDEST PUSH1 0x40 MLOAD PUSH1 0x20 DUP2 DUP4 SUB SUB DUP2 MSTORE SWAP1 PUSH1 0x40 MSTORE SWAP1 POP SWAP2 SWAP1 POP JUMP JUMPDEST PUSH0 DUP1 DUP4 DUP1 PUSH1 0x20 ADD SWAP1 MLOAD DUP2 ADD SWAP1 PUSH2 0xD7 SWAP2 SWAP1 PUSH2 0x77F JUMP JUMPDEST SWAP1 POP DUP3 DUP2 PUSH1 0x20 ADD MLOAD EQ SWAP2 POP POP SWAP3 SWAP2 POP POP JUMP JUMPDEST PUSH0 PUSH1 0x40 MLOAD SWAP1 POP SWAP1 JUMP JUMPDEST PUSH0 DUP1 REVERT JUMPDEST PUSH0 DUP1 REVERT JUMPDEST PUSH0 DUP1 REVERT JUMPDEST PUSH0 PUSH1 0x1F NOT PUSH1 0x1F DUP4 ADD AND SWAP1 POP SWAP2 SWAP1 POP JUMP JUMPDEST PUSH32 0x4E487B7100000000000000000000000000000000000000000000000000000000 PUSH0 MSTORE PUSH1 0x41 PUSH1 0x4 MSTORE PUSH1 0x24 PUSH0 REVERT JUMPDEST PUSH2 0x144 DUP3 PUSH2 0xFE JUMP JUMPDEST DUP2 ADD DUP2 DUP2 LT PUSH8 0xFFFFFFFFFFFFFFFF DUP3 GT OR ISZERO PUSH2 0x163 JUMPI PUSH2 0x162 PUSH2 0x10E JUMP JUMPDEST JUMPDEST DUP1 PUSH1 0x40 MSTORE POP POP POP JUMP JUMPDEST PUSH0 PUSH2 0x175 PUSH2 0xE9 JUMP JUMPDEST SWAP1 POP PUSH2 0x181 DUP3 DUP3 PUSH2 0x13B JUMP JUMPDEST SWAP2 SWAP1 POP JUMP JUMPDEST PUSH0 DUP1 REVERT JUMPDEST PUSH0 PUSH20 0xFFFFFFFFFFFFFFFFFFFFFFFFFFFFFFFFFFFFFFFF DUP3 AND SWAP1 POP SWAP2 SWAP1 POP JUMP JUMPDEST PUSH0 PUSH2 0x1B3 DUP3 PUSH2 0x18A JUMP JUMPDEST SWAP1 POP SWAP2 SWAP1 POP JUMP JUMPDEST PUSH2 0x1C3 DUP2 PUSH2 0x1A9 JUMP JUMPDEST DUP2 EQ PUSH2 0x1CD JUMPI PUSH0 DUP1 REVERT JUMPDEST POP JUMP JUMPDEST PUSH0 DUP2 CALLDATALOAD SWAP1 POP PUSH2 0x1DE DUP2 PUSH2 0x1BA JUMP JUMPDEST SWAP3 SWAP2 POP POP JUMP JUMPDEST PUSH0 DUP2 SWAP1 POP SWAP2 SWAP1 POP JUMP JUMPDEST PUSH2 0x1F6 DUP2 PUSH2 0x1E4 JUMP JUMPDEST DUP2 EQ PUSH2 0x200 JUMPI PUSH0 DUP1 REVERT JUMPDEST POP JUMP JUMPDEST PUSH0 DUP2 CALLDATALOAD SWAP1 POP PUSH2 0x211 DUP2 PUSH2 0x1ED JUMP JUMPDEST SWAP3 SWAP2 POP POP JUMP JUMPDEST PUSH0 DUP1 REVERT JUMPDEST PUSH0 DUP1 REVERT JUMPDEST PUSH0 PUSH8 0xFFFFFFFFFFFFFFFF DUP3 GT ISZERO PUSH2 0x239 JUMPI PUSH2 0x238 PUSH2 0x10E JUMP JUMPDEST JUMPDEST PUSH2 0x242 DUP3 PUSH2 0xFE JUMP JUMPDEST SWAP1 POP PUSH1 0x20 DUP2 ADD SWAP1 POP SWAP2 SWAP1 POP JUMP JUMPDEST DUP3 DUP2 DUP4 CALLDATACOPY PUSH0 DUP4 DUP4 ADD MSTORE POP POP POP JUMP JUMPDEST PUSH0 PUSH2 0x26F PUSH2 0x26A DUP5 PUSH2 0x21F JUMP JUMPDEST PUSH2 0x16C JUMP JUMPDEST SWAP1 POP DUP3 DUP2 MSTORE PUSH1 0x20 DUP2 ADD DUP5 DUP5 DUP5 ADD GT ISZERO PUSH2 0x28B JUMPI PUSH2 0x28A PUSH2 0x21B JUMP JUMPDEST JUMPDEST PUSH2 0x296 DUP5 DUP3 DUP6 PUSH2 0x24F JUMP JUMPDEST POP SWAP4 SWAP3 POP POP POP JUMP JUMPDEST PUSH0 DUP3 PUSH1 0x1F DUP4 ADD SLT PUSH2 0x2B2 JUMPI PUSH2 0x2B1 PUSH2 0x217 JUMP JUMPDEST JUMPDEST DUP2 CALLDATALOAD PUSH2 0x2C2 DUP5 DUP3 PUSH1 0x20 DUP7 ADD PUSH2 0x25D JUMP JUMPDEST SWAP2 POP POP SWAP3 SWAP2 POP POP JUMP JUMPDEST PUSH0 PUSH1 0x80 DUP3 DUP5 SUB SLT ISZERO PUSH2 0x2E0 JUMPI PUSH2 0x2DF PUSH2 0xFA JUMP JUMPDEST JUMPDEST PUSH2 0x2EA PUSH1 0x80 PUSH2 0x16C JUMP JUMPDEST SWAP1 POP PUSH0 PUSH2 0x2F9 DUP5 DUP3 DUP6 ADD PUSH2 0x1D0 JUMP JUMPDEST PUSH0 DUP4 ADD MSTORE POP PUSH1 0x20 PUSH2 0x30C DUP5 DUP3 DUP6 ADD PUSH2 0x203 JUMP JUMPDEST PUSH1 0x20 DUP4 ADD MSTORE POP PUSH1 0x40 DUP3 ADD CALLDATALOAD PUSH8 0xFFFFFFFFFFFFFFFF DUP2 GT ISZERO PUSH2 0x330 JUMPI PUSH2 0x32F PUSH2 0x186 JUMP JUMPDEST JUMPDEST PUSH2 0x33C DUP5 DUP3 DUP6 ADD PUSH2 0x29E JUMP JUMPDEST PUSH1 0x40 DUP4 ADD MSTORE POP PUSH1 0x60 PUSH2 0x350 DUP5 DUP3 DUP6 ADD PUSH2 0x203 JUMP JUMPDEST PUSH1 0x60 DUP4 ADD MSTORE POP SWAP3 SWAP2 POP POP JUMP JUMPDEST PUSH0 PUSH1 0x20 DUP3 DUP5 SUB SLT ISZERO PUSH2 0x371 JUMPI PUSH2 0x370 PUSH2 0xF2 JUMP JUMPDEST JUMPDEST PUSH0 DUP3 ADD CALLDATALOAD PUSH8 0xFFFFFFFFFFFFFFFF DUP2 GT ISZERO PUSH2 0x38E JUMPI PUSH2 0x38D PUSH2 0xF6 JUMP JUMPDEST JUMPDEST PUSH2 0x39A DUP5 DUP3 DUP6 ADD PUSH2 0x2CB JUMP JUMPDEST SWAP2 POP POP SWAP3 SWAP2 POP POP JUMP JUMPDEST PUSH0 DUP2 MLOAD SWAP1 POP SWAP2 SWAP1 POP JUMP JUMPDEST PUSH0 DUP3 DUP3 MSTORE PUSH1 0x20 DUP3 ADD SWAP1 POP SWAP3 SWAP2 POP POP JUMP JUMPDEST PUSH0 JUMPDEST DUP4 DUP2 LT ISZERO PUSH2 0x3DA JUMPI DUP1 DUP3 ADD MLOAD DUP2 DUP5 ADD MSTORE PUSH1 0x20 DUP2 ADD SWAP1 POP PUSH2 0x3BF JUMP JUMPDEST PUSH0 DUP5 DUP5 ADD MSTORE POP POP POP POP JUMP JUMPDEST PUSH0 PUSH2 0x3EF DUP3 PUSH2 0x3A3 JUMP JUMPDEST PUSH2 0x3F9 DUP2 DUP6 PUSH2 0x3AD JUMP JUMPDEST SWAP4 POP PUSH2 0x409 DUP2 DUP6 PUSH1 0x20 DUP7 ADD PUSH2 0x3BD JUMP JUMPDEST PUSH2 0x412 DUP2 PUSH2 0xFE JUMP JUMPDEST DUP5 ADD SWAP2 POP POP SWAP3 SWAP2 POP POP JUMP JUMPDEST PUSH0 PUSH1 0x20 DUP3 ADD SWAP1 POP DUP2 DUP2 SUB PUSH0 DUP4 ADD MSTORE PUSH2 0x435 DUP2 DUP5 PUSH2 0x3E5 JUMP JUMPDEST SWAP1 POP SWAP3 SWAP2 POP POP JUMP JUMPDEST PUSH0 PUSH8 0xFFFFFFFFFFFFFFFF DUP3 GT ISZERO PUSH2 0x457 JUMPI PUSH2 0x456 PUSH2 0x10E JUMP JUMPDEST JUMPDEST PUSH2 0x460 DUP3 PUSH2 0xFE JUMP JUMPDEST SWAP1 POP PUSH1 0x20 DUP2 ADD SWAP1 POP SWAP2 SWAP1 POP JUMP JUMPDEST PUSH0 PUSH2 0x47F PUSH2 0x47A DUP5 PUSH2 0x43D JUMP JUMPDEST PUSH2 0x16C JUMP JUMPDEST SWAP1 POP DUP3 DUP2 MSTORE PUSH1 0x20 DUP2 ADD DUP5 DUP5 DUP5 ADD GT ISZERO PUSH2 0x49B JUMPI PUSH2 0x49A PUSH2 0x21B JUMP JUMPDEST JUMPDEST PUSH2 0x4A6 DUP5 DUP3 DUP6 PUSH2 0x24F JUMP JUMPDEST POP SWAP4 SWAP3 POP POP POP JUMP JUMPDEST PUSH0 DUP3 PUSH1 0x1F DUP4 ADD SLT PUSH2 0x4C2 JUMPI PUSH2 0x4C1 PUSH2 0x217 JUMP JUMPDEST JUMPDEST DUP2 CALLDATALOAD PUSH2 0x4D2 DUP5 DUP3 PUSH1 0x20 DUP7 ADD PUSH2 0x46D JUMP JUMPDEST SWAP2 POP POP SWAP3 SWAP2 POP POP JUMP JUMPDEST PUSH0 DUP1 PUSH1 0x40 DUP4 DUP6 SUB SLT ISZERO PUSH2 0x4F1 JUMPI PUSH2 0x4F0 PUSH2 0xF2 JUMP JUMPDEST JUMPDEST PUSH0 DUP4 ADD CALLDATALOAD PUSH8 0xFFFFFFFFFFFFFFFF DUP2 GT ISZERO PUSH2 0x50E JUMPI PUSH2 0x50D PUSH2 0xF6 JUMP JUMPDEST JUMPDEST PUSH2 0x51A DUP6 DUP3 DUP7 ADD PUSH2 0x4AE JUMP JUMPDEST SWAP3 POP POP PUSH1 0x20 PUSH2 0x52B DUP6 DUP3 DUP7 ADD PUSH2 0x203 JUMP JUMPDEST SWAP2 POP POP SWAP3 POP SWAP3 SWAP1 POP JUMP JUMPDEST PUSH0 DUP2 ISZERO ISZERO SWAP1 POP SWAP2 SWAP1 POP JUMP JUMPDEST PUSH2 0x549 DUP2 PUSH2 0x535 JUMP JUMPDEST DUP3 MSTORE POP POP JUMP JUMPDEST PUSH0 PUSH1 0x20 DUP3 ADD SWAP1 POP PUSH2 0x562 PUSH0 DUP4 ADD DUP5 PUSH2 0x540 JUMP JUMPDEST SWAP3 SWAP2 POP POP JUMP JUMPDEST PUSH2 0x571 DUP2 PUSH2 0x1A9 JUMP JUMPDEST DUP3 MSTORE POP POP JUMP JUMPDEST PUSH2 0x580 DUP2 PUSH2 0x1E4 JUMP JUMPDEST DUP3 MSTORE POP POP JUMP JUMPDEST PUSH0 DUP2 MLOAD SWAP1 POP SWAP2 SWAP1 POP JUMP JUMPDEST PUSH0 DUP3 DUP3 MSTORE PUSH1 0x20 DUP3 ADD SWAP1 POP SWAP3 SWAP2 POP POP JUMP JUMPDEST PUSH0 PUSH2 0x5AA DUP3 PUSH2 0x586 JUMP JUMPDEST PUSH2 0x5B4 DUP2 DUP6 PUSH2 0x590 JUMP JUMPDEST SWAP4 POP PUSH2 0x5C4 DUP2 DUP6 PUSH1 0x20 DUP7 ADD PUSH2 0x3BD JUMP JUMPDEST PUSH2 0x5CD DUP2 PUSH2 0xFE JUMP JUMPDEST DUP5 ADD SWAP2 POP POP SWAP3 SWAP2 POP POP JUMP JUMPDEST PUSH0 PUSH1 0x80 DUP4 ADD PUSH0 DUP4 ADD MLOAD PUSH2 0x5ED PUSH0 DUP7 ADD DUP3 PUSH2 0x568 JUMP JUMPDEST POP PUSH1 0x20 DUP4 ADD MLOAD PUSH2 0x600 PUSH1 0x20 DUP7 ADD DUP3 PUSH2 0x577 JUMP JUMPDEST POP PUSH1 0x40 DUP4 ADD MLOAD DUP5 DUP3 SUB PUSH1 0x40 DUP7 ADD MSTORE PUSH2 0x618 DUP3 DUP3 PUSH2 0x5A0 JUMP JUMPDEST SWAP2 POP POP PUSH1 0x60 DUP4 ADD MLOAD PUSH2 0x62D PUSH1 0x60 DUP7 ADD DUP3 PUSH2 0x577 JUMP JUMPDEST POP DUP1 SWAP2 POP POP SWAP3 SWAP2 POP POP JUMP JUMPDEST PUSH0 PUSH1 0x20 DUP3 ADD SWAP1 POP DUP2 DUP2 SUB PUSH0 DUP4 ADD MSTORE PUSH2 0x650 DUP2 DUP5 PUSH2 0x5D8 JUMP JUMPDEST SWAP1 POP SWAP3 SWAP2 POP POP JUMP JUMPDEST PUSH0 DUP2 MLOAD SWAP1 POP PUSH2 0x666 DUP2 PUSH2 0x1BA JUMP JUMPDEST SWAP3 SWAP2 POP POP JUMP JUMPDEST PUSH0 DUP2 MLOAD SWAP1 POP PUSH2 0x67A DUP2 PUSH2 0x1ED JUMP JUMPDEST SWAP3 SWAP2 POP POP JUMP JUMPDEST PUSH0 PUSH2 0x692 PUSH2 0x68D DUP5 PUSH2 0x21F JUMP JUMPDEST PUSH2 0x16C JUMP JUMPDEST SWAP1 POP DUP3 DUP2 MSTORE PUSH1 0x20 DUP2 ADD DUP5 DUP5 DUP5 ADD GT ISZERO PUSH2 0x6AE JUMPI PUSH2 0x6AD PUSH2 0x21B JUMP JUMPDEST JUMPDEST PUSH2 0x6B9 DUP5 DUP3 DUP6 PUSH2 0x3BD JUMP JUMPDEST POP SWAP4 SWAP3 POP POP POP JUMP JUMPDEST PUSH0 DUP3 PUSH1 0x1F DUP4 ADD SLT PUSH2 0x6D5 JUMPI PUSH2 0x6D4 PUSH2 0x217 JUMP JUMPDEST JUMPDEST DUP2 MLOAD PUSH2 0x6E5 DUP5 DUP3 PUSH1 0x20 DUP7 ADD PUSH2 0x680 JUMP JUMPDEST SWAP2 POP POP SWAP3 SWAP2 POP POP JUMP JUMPDEST PUSH0 PUSH1 0x80 DUP3 DUP5 SUB SLT ISZERO PUSH2 0x703 JUMPI PUSH2 0x702 PUSH2 0xFA JUMP JUMPDEST JUMPDEST PUSH2 0x70D PUSH1 0x80 PUSH2 0x16C JUMP JUMPDEST SWAP1 POP PUSH0 PUSH2 0x71C DUP5 DUP3 DUP6 ADD PUSH2 0x658 JUMP JUMPDEST PUSH0 DUP4 ADD MSTORE POP PUSH1 0x20 PUSH2 0x72F DUP5 DUP3 DUP6 ADD PUSH2 0x66C JUMP JUMPDEST PUSH1 0x20 DUP4 ADD MSTORE POP PUSH1 0x40 DUP3 ADD MLOAD PUSH8 0xFFFFFFFFFFFFFFFF DUP2 GT ISZERO PUSH2 0x753 JUMPI PUSH2 0x752 PUSH2 0x186 JUMP JUMPDEST JUMPDEST PUSH2 0x75F DUP5 DUP3 DUP6 ADD PUSH2 0x6C1 JUMP JUMPDEST PUSH1 0x40 DUP4 ADD MSTORE POP PUSH1 0x60 PUSH2 0x773 DUP5 DUP3 DUP6 ADD PUSH2 0x66C JUMP JUMPDEST PUSH1 0x60 DUP4 ADD MSTORE POP SWAP3 SWAP2 POP POP JUMP JUMPDEST PUSH0 PUSH1 0x20 DUP3 DUP5 SUB SLT ISZERO PUSH2 0x794 JUMPI PUSH2 0x793 PUSH2 0xF2 JUMP JUMPDEST JUMPDEST PUSH0 DUP3 ADD MLOAD PUSH8 0xFFFFFFFFFFFFFFFF DUP2 GT ISZERO PUSH2 0x7B1 JUMPI PUSH2 0x7B0 PUSH2 0xF6 JUMP JUMPDEST JUMPDEST PUSH2 0x7BD DUP5 DUP3 DUP6 ADD PUSH2 0x6EE JUMP JUMPDEST SWAP2 POP POP SWAP3 SWAP2 POP POP JUMP INVALID LOG2 PUSH5 0x6970667358 0x22 SLT KECCAK256 0xB0 0xAD PUSH10 0x9AE1341427EBA994331F SHL 0x5D SWAP2 0xB5 DUP5 SWAP10 0xA7 0xD7 0xA5 DUP11 SWAP8 SWAP9 0xB5 0xF7 0xC1 0xB2 DUP1 ADD RETURN PUSH5 0x736F6C6343 STOP ADDMOD EQ STOP CALLER "
				},
				"gasEstimates": {
					"creation": {
						"codeDepositCost": "408800",
						"executionCost": "441",
						"totalCost": "409241"
					},
					"external": {
						"decodeAndVerifyVoterData(bytes,uint256)": "infinite",
						"encodeVoterData((address,uint256,string,uint256))": "infinite"
					}
				},
				"methodIdentifiers": {
					"decodeAndVerifyVoterData(bytes,uint256)": "cf53f681",
					"encodeVoterData((address,uint256,string,uint256))": "a315c4ba"
				}
			},
			"storageLayout": {
				"storage": [],
				"types": null
			},
			"userdoc": {
				"kind": "user",
				"methods": {},
				"version": 1
			}
		}
	}
}