{
	"Lib_Imports.sol": {
		"LaptopEncoder": {
			"abi": [
				{
					"inputs": [
						{
							"internalType": "bytes",
							"name": "encodedData",
							"type": "bytes"
						}
					],
					"name": "decodeLaptops",
					"outputs": [
						{
							"components": [
								{
									"internalType": "string",
									"name": "company",
									"type": "string"
								},
								{
									"internalType": "uint256",
									"name": "price",
									"type": "uint256"
								},
								{
									"internalType": "string",
									"name": "colour",
									"type": "string"
								}
							],
							"internalType": "struct LaptopEncoder.Laptop[]",
							"name": "",
							"type": "tuple[]"
						}
					],
					"stateMutability": "pure",
					"type": "function"
				},
				{
					"inputs": [
						{
							"components": [
								{
									"internalType": "string",
									"name": "company",
									"type": "string"
								},
								{
									"internalType": "uint256",
									"name": "price",
									"type": "uint256"
								},
								{
									"internalType": "string",
									"name": "colour",
									"type": "string"
								}
							],
							"internalType": "struct LaptopEncoder.Laptop[]",
							"name": "data",
							"type": "tuple[]"
						}
					],
					"name": "encodeLaptops",
					"outputs": [
						{
							"internalType": "bytes",
							"name": "",
							"type": "bytes"
						}
					],
					"stateMutability": "pure",
					"type": "function"
				}
			],
			"devdoc": {
				"kind": "dev",
				"methods": {},
				"version": 1
			},
			"evm": {
				"assembly": "    /* \"Lib_Imports.sol\":1320:1728  contract LaptopEncoder {... */\n  mstore(0x40, 0x80)\n  callvalue\n  dup1\n  iszero\n  tag_1\n  jumpi\n  0x00\n  dup1\n  revert\ntag_1:\n  pop\n  dataSize(sub_0)\n  dup1\n  dataOffset(sub_0)\n  0x00\n  codecopy\n  0x00\n  return\nstop\n\nsub_0: assembly {\n        /* \"Lib_Imports.sol\":1320:1728  contract LaptopEncoder {... */\n      mstore(0x40, 0x80)\n      callvalue\n      dup1\n      iszero\n      tag_1\n      jumpi\n      0x00\n      dup1\n      revert\n    tag_1:\n      pop\n      jumpi(tag_2, lt(calldatasize, 0x04))\n      shr(0xe0, calldataload(0x00))\n      dup1\n      0x39571443\n      eq\n      tag_3\n      jumpi\n      dup1\n      0x3ad9a9bb\n      eq\n      tag_4\n      jumpi\n    tag_2:\n      0x00\n      dup1\n      revert\n        /* \"Lib_Imports.sol\":1583:1727  function decodeLaptops(bytes memory encodedData) public pure returns (Laptop[] memory) {... */\n    tag_3:\n      tag_5\n      0x04\n      dup1\n      calldatasize\n      sub\n      dup2\n      add\n      swap1\n      tag_6\n      swap2\n      swap1\n      tag_7\n      jump\t// in\n    tag_6:\n      tag_8\n      jump\t// in\n    tag_5:\n      mload(0x40)\n      tag_9\n      swap2\n      swap1\n      tag_10\n      jump\t// in\n    tag_9:\n      mload(0x40)\n      dup1\n      swap2\n      sub\n      swap1\n      return\n        /* \"Lib_Imports.sol\":1453:1575  function encodeLaptops(Laptop[] memory data) public pure returns (bytes memory) {... */\n    tag_4:\n      tag_11\n      0x04\n      dup1\n      calldatasize\n      sub\n      dup2\n      add\n      swap1\n      tag_12\n      swap2\n      swap1\n      tag_13\n      jump\t// in\n    tag_12:\n      tag_14\n      jump\t// in\n    tag_11:\n      mload(0x40)\n      tag_15\n      swap2\n      swap1\n      tag_16\n      jump\t// in\n    tag_15:\n      mload(0x40)\n      dup1\n      swap2\n      sub\n      swap1\n      return\n        /* \"Lib_Imports.sol\":1583:1727  function decodeLaptops(bytes memory encodedData) public pure returns (Laptop[] memory) {... */\n    tag_8:\n        /* \"Lib_Imports.sol\":1653:1668  Laptop[] memory */\n      0x60\n        /* \"Lib_Imports.sol\":1699:1710  encodedData */\n      dup2\n        /* \"Lib_Imports.sol\":1688:1723  abi.decode(encodedData, (Laptop[])) */\n      dup1\n      0x20\n      add\n      swap1\n      mload\n      dup2\n      add\n      swap1\n      tag_18\n      swap2\n      swap1\n      tag_19\n      jump\t// in\n    tag_18:\n        /* \"Lib_Imports.sol\":1681:1723  return abi.decode(encodedData, (Laptop[])) */\n      swap1\n      pop\n        /* \"Lib_Imports.sol\":1583:1727  function decodeLaptops(bytes memory encodedData) public pure returns (Laptop[] memory) {... */\n      swap2\n      swap1\n      pop\n      jump\t// out\n        /* \"Lib_Imports.sol\":1453:1575  function encodeLaptops(Laptop[] memory data) public pure returns (bytes memory) {... */\n    tag_14:\n        /* \"Lib_Imports.sol\":1519:1531  bytes memory */\n      0x60\n        /* \"Lib_Imports.sol\":1562:1566  data */\n      dup2\n        /* \"Lib_Imports.sol\":1551:1567  abi.encode(data) */\n      add(0x20, mload(0x40))\n      tag_21\n      swap2\n      swap1\n      tag_10\n      jump\t// in\n    tag_21:\n      mload(0x40)\n      0x20\n      dup2\n      dup4\n      sub\n      sub\n      dup2\n      mstore\n      swap1\n      0x40\n      mstore\n        /* \"Lib_Imports.sol\":1544:1567  return abi.encode(data) */\n      swap1\n      pop\n        /* \"Lib_Imports.sol\":1453:1575  function encodeLaptops(Laptop[] memory data) public pure returns (bytes memory) {... */\n      swap2\n      swap1\n      pop\n      jump\t// out\n        /* \"#utility.yul\":7:82   */\n    tag_22:\n        /* \"#utility.yul\":40:46   */\n      0x00\n        /* \"#utility.yul\":73:75   */\n      0x40\n        /* \"#utility.yul\":67:76   */\n      mload\n        /* \"#utility.yul\":57:76   */\n      swap1\n      pop\n        /* \"#utility.yul\":7:82   */\n      swap1\n      jump\t// out\n        /* \"#utility.yul\":88:205   */\n    tag_23:\n        /* \"#utility.yul\":197:198   */\n      0x00\n        /* \"#utility.yul\":194:195   */\n      dup1\n        /* \"#utility.yul\":187:199   */\n      revert\n        /* \"#utility.yul\":211:328   */\n    tag_24:\n        /* \"#utility.yul\":320:321   */\n      0x00\n        /* \"#utility.yul\":317:318   */\n      dup1\n        /* \"#utility.yul\":310:322   */\n      revert\n        /* \"#utility.yul\":334:451   */\n    tag_25:\n        /* \"#utility.yul\":443:444   */\n      0x00\n        /* \"#utility.yul\":440:441   */\n      dup1\n        /* \"#utility.yul\":433:445   */\n      revert\n        /* \"#utility.yul\":457:574   */\n    tag_26:\n        /* \"#utility.yul\":566:567   */\n      0x00\n        /* \"#utility.yul\":563:564   */\n      dup1\n        /* \"#utility.yul\":556:568   */\n      revert\n        /* \"#utility.yul\":580:682   */\n    tag_27:\n        /* \"#utility.yul\":621:627   */\n      0x00\n        /* \"#utility.yul\":672:674   */\n      0x1f\n        /* \"#utility.yul\":668:675   */\n      not\n        /* \"#utility.yul\":663:665   */\n      0x1f\n        /* \"#utility.yul\":656:661   */\n      dup4\n        /* \"#utility.yul\":652:666   */\n      add\n        /* \"#utility.yul\":648:676   */\n      and\n        /* \"#utility.yul\":638:676   */\n      swap1\n      pop\n        /* \"#utility.yul\":580:682   */\n      swap2\n      swap1\n      pop\n      jump\t// out\n        /* \"#utility.yul\":688:868   */\n    tag_28:\n        /* \"#utility.yul\":736:813   */\n      0x4e487b7100000000000000000000000000000000000000000000000000000000\n        /* \"#utility.yul\":733:734   */\n      0x00\n        /* \"#utility.yul\":726:814   */\n      mstore\n        /* \"#utility.yul\":833:837   */\n      0x41\n        /* \"#utility.yul\":830:831   */\n      0x04\n        /* \"#utility.yul\":823:838   */\n      mstore\n        /* \"#utility.yul\":857:861   */\n      0x24\n        /* \"#utility.yul\":854:855   */\n      0x00\n        /* \"#utility.yul\":847:862   */\n      revert\n        /* \"#utility.yul\":874:1155   */\n    tag_29:\n        /* \"#utility.yul\":957:984   */\n      tag_78\n        /* \"#utility.yul\":979:983   */\n      dup3\n        /* \"#utility.yul\":957:984   */\n      tag_27\n      jump\t// in\n    tag_78:\n        /* \"#utility.yul\":949:955   */\n      dup2\n        /* \"#utility.yul\":945:985   */\n      add\n        /* \"#utility.yul\":1087:1093   */\n      dup2\n        /* \"#utility.yul\":1075:1085   */\n      dup2\n        /* \"#utility.yul\":1072:1094   */\n      lt\n        /* \"#utility.yul\":1051:1069   */\n      0xffffffffffffffff\n        /* \"#utility.yul\":1039:1049   */\n      dup3\n        /* \"#utility.yul\":1036:1070   */\n      gt\n        /* \"#utility.yul\":1033:1095   */\n      or\n        /* \"#utility.yul\":1030:1118   */\n      iszero\n      tag_79\n      jumpi\n        /* \"#utility.yul\":1098:1116   */\n      tag_80\n      tag_28\n      jump\t// in\n    tag_80:\n        /* \"#utility.yul\":1030:1118   */\n    tag_79:\n        /* \"#utility.yul\":1138:1148   */\n      dup1\n        /* \"#utility.yul\":1134:1136   */\n      0x40\n        /* \"#utility.yul\":1127:1149   */\n      mstore\n        /* \"#utility.yul\":917:1155   */\n      pop\n        /* \"#utility.yul\":874:1155   */\n      pop\n      pop\n      jump\t// out\n        /* \"#utility.yul\":1161:1290   */\n    tag_30:\n        /* \"#utility.yul\":1195:1201   */\n      0x00\n        /* \"#utility.yul\":1222:1242   */\n      tag_82\n      tag_22\n      jump\t// in\n    tag_82:\n        /* \"#utility.yul\":1212:1242   */\n      swap1\n      pop\n        /* \"#utility.yul\":1251:1284   */\n      tag_83\n        /* \"#utility.yul\":1279:1283   */\n      dup3\n        /* \"#utility.yul\":1271:1277   */\n      dup3\n        /* \"#utility.yul\":1251:1284   */\n      tag_29\n      jump\t// in\n    tag_83:\n        /* \"#utility.yul\":1161:1290   */\n      swap2\n      swap1\n      pop\n      jump\t// out\n        /* \"#utility.yul\":1296:1603   */\n    tag_31:\n        /* \"#utility.yul\":1357:1361   */\n      0x00\n        /* \"#utility.yul\":1447:1465   */\n      0xffffffffffffffff\n        /* \"#utility.yul\":1439:1445   */\n      dup3\n        /* \"#utility.yul\":1436:1466   */\n      gt\n        /* \"#utility.yul\":1433:1489   */\n      iszero\n      tag_85\n      jumpi\n        /* \"#utility.yul\":1469:1487   */\n      tag_86\n      tag_28\n      jump\t// in\n    tag_86:\n        /* \"#utility.yul\":1433:1489   */\n    tag_85:\n        /* \"#utility.yul\":1507:1536   */\n      tag_87\n        /* \"#utility.yul\":1529:1535   */\n      dup3\n        /* \"#utility.yul\":1507:1536   */\n      tag_27\n      jump\t// in\n    tag_87:\n        /* \"#utility.yul\":1499:1536   */\n      swap1\n      pop\n        /* \"#utility.yul\":1591:1595   */\n      0x20\n        /* \"#utility.yul\":1585:1589   */\n      dup2\n        /* \"#utility.yul\":1581:1596   */\n      add\n        /* \"#utility.yul\":1573:1596   */\n      swap1\n      pop\n        /* \"#utility.yul\":1296:1603   */\n      swap2\n      swap1\n      pop\n      jump\t// out\n        /* \"#utility.yul\":1609:1755   */\n    tag_32:\n        /* \"#utility.yul\":1706:1712   */\n      dup3\n        /* \"#utility.yul\":1701:1704   */\n      dup2\n        /* \"#utility.yul\":1696:1699   */\n      dup4\n        /* \"#utility.yul\":1683:1713   */\n      calldatacopy\n        /* \"#utility.yul\":1747:1748   */\n      0x00\n        /* \"#utility.yul\":1738:1744   */\n      dup4\n        /* \"#utility.yul\":1733:1736   */\n      dup4\n        /* \"#utility.yul\":1729:1745   */\n      add\n        /* \"#utility.yul\":1722:1749   */\n      mstore\n        /* \"#utility.yul\":1609:1755   */\n      pop\n      pop\n      pop\n      jump\t// out\n        /* \"#utility.yul\":1761:2184   */\n    tag_33:\n        /* \"#utility.yul\":1838:1843   */\n      0x00\n        /* \"#utility.yul\":1863:1928   */\n      tag_90\n        /* \"#utility.yul\":1879:1927   */\n      tag_91\n        /* \"#utility.yul\":1920:1926   */\n      dup5\n        /* \"#utility.yul\":1879:1927   */\n      tag_31\n      jump\t// in\n    tag_91:\n        /* \"#utility.yul\":1863:1928   */\n      tag_30\n      jump\t// in\n    tag_90:\n        /* \"#utility.yul\":1854:1928   */\n      swap1\n      pop\n        /* \"#utility.yul\":1951:1957   */\n      dup3\n        /* \"#utility.yul\":1944:1949   */\n      dup2\n        /* \"#utility.yul\":1937:1958   */\n      mstore\n        /* \"#utility.yul\":1989:1993   */\n      0x20\n        /* \"#utility.yul\":1982:1987   */\n      dup2\n        /* \"#utility.yul\":1978:1994   */\n      add\n        /* \"#utility.yul\":2027:2030   */\n      dup5\n        /* \"#utility.yul\":2018:2024   */\n      dup5\n        /* \"#utility.yul\":2013:2016   */\n      dup5\n        /* \"#utility.yul\":2009:2025   */\n      add\n        /* \"#utility.yul\":2006:2031   */\n      gt\n        /* \"#utility.yul\":2003:2115   */\n      iszero\n      tag_92\n      jumpi\n        /* \"#utility.yul\":2034:2113   */\n      tag_93\n      tag_26\n      jump\t// in\n    tag_93:\n        /* \"#utility.yul\":2003:2115   */\n    tag_92:\n        /* \"#utility.yul\":2124:2178   */\n      tag_94\n        /* \"#utility.yul\":2171:2177   */\n      dup5\n        /* \"#utility.yul\":2166:2169   */\n      dup3\n        /* \"#utility.yul\":2161:2164   */\n      dup6\n        /* \"#utility.yul\":2124:2178   */\n      tag_32\n      jump\t// in\n    tag_94:\n        /* \"#utility.yul\":1844:2184   */\n      pop\n        /* \"#utility.yul\":1761:2184   */\n      swap4\n      swap3\n      pop\n      pop\n      pop\n      jump\t// out\n        /* \"#utility.yul\":2203:2541   */\n    tag_34:\n        /* \"#utility.yul\":2258:2263   */\n      0x00\n        /* \"#utility.yul\":2307:2310   */\n      dup3\n        /* \"#utility.yul\":2300:2304   */\n      0x1f\n        /* \"#utility.yul\":2292:2298   */\n      dup4\n        /* \"#utility.yul\":2288:2305   */\n      add\n        /* \"#utility.yul\":2284:2311   */\n      slt\n        /* \"#utility.yul\":2274:2396   */\n      tag_96\n      jumpi\n        /* \"#utility.yul\":2315:2394   */\n      tag_97\n      tag_25\n      jump\t// in\n    tag_97:\n        /* \"#utility.yul\":2274:2396   */\n    tag_96:\n        /* \"#utility.yul\":2432:2438   */\n      dup2\n        /* \"#utility.yul\":2419:2439   */\n      calldataload\n        /* \"#utility.yul\":2457:2535   */\n      tag_98\n        /* \"#utility.yul\":2531:2534   */\n      dup5\n        /* \"#utility.yul\":2523:2529   */\n      dup3\n        /* \"#utility.yul\":2516:2520   */\n      0x20\n        /* \"#utility.yul\":2508:2514   */\n      dup7\n        /* \"#utility.yul\":2504:2521   */\n      add\n        /* \"#utility.yul\":2457:2535   */\n      tag_33\n      jump\t// in\n    tag_98:\n        /* \"#utility.yul\":2448:2535   */\n      swap2\n      pop\n        /* \"#utility.yul\":2264:2541   */\n      pop\n        /* \"#utility.yul\":2203:2541   */\n      swap3\n      swap2\n      pop\n      pop\n      jump\t// out\n        /* \"#utility.yul\":2547:3054   */\n    tag_7:\n        /* \"#utility.yul\":2615:2621   */\n      0x00\n        /* \"#utility.yul\":2664:2666   */\n      0x20\n        /* \"#utility.yul\":2652:2661   */\n      dup3\n        /* \"#utility.yul\":2643:2650   */\n      dup5\n        /* \"#utility.yul\":2639:2662   */\n      sub\n        /* \"#utility.yul\":2635:2667   */\n      slt\n        /* \"#utility.yul\":2632:2751   */\n      iszero\n      tag_100\n      jumpi\n        /* \"#utility.yul\":2670:2749   */\n      tag_101\n      tag_23\n      jump\t// in\n    tag_101:\n        /* \"#utility.yul\":2632:2751   */\n    tag_100:\n        /* \"#utility.yul\":2818:2819   */\n      0x00\n        /* \"#utility.yul\":2807:2816   */\n      dup3\n        /* \"#utility.yul\":2803:2820   */\n      add\n        /* \"#utility.yul\":2790:2821   */\n      calldataload\n        /* \"#utility.yul\":2848:2866   */\n      0xffffffffffffffff\n        /* \"#utility.yul\":2840:2846   */\n      dup2\n        /* \"#utility.yul\":2837:2867   */\n      gt\n        /* \"#utility.yul\":2834:2951   */\n      iszero\n      tag_102\n      jumpi\n        /* \"#utility.yul\":2870:2949   */\n      tag_103\n      tag_24\n      jump\t// in\n    tag_103:\n        /* \"#utility.yul\":2834:2951   */\n    tag_102:\n        /* \"#utility.yul\":2975:3037   */\n      tag_104\n        /* \"#utility.yul\":3029:3036   */\n      dup5\n        /* \"#utility.yul\":3020:3026   */\n      dup3\n        /* \"#utility.yul\":3009:3018   */\n      dup6\n        /* \"#utility.yul\":3005:3027   */\n      add\n        /* \"#utility.yul\":2975:3037   */\n      tag_34\n      jump\t// in\n    tag_104:\n        /* \"#utility.yul\":2965:3037   */\n      swap2\n      pop\n        /* \"#utility.yul\":2761:3047   */\n      pop\n        /* \"#utility.yul\":2547:3054   */\n      swap3\n      swap2\n      pop\n      pop\n      jump\t// out\n        /* \"#utility.yul\":3060:3197   */\n    tag_35:\n        /* \"#utility.yul\":3150:3156   */\n      0x00\n        /* \"#utility.yul\":3184:3189   */\n      dup2\n        /* \"#utility.yul\":3178:3190   */\n      mload\n        /* \"#utility.yul\":3168:3190   */\n      swap1\n      pop\n        /* \"#utility.yul\":3060:3197   */\n      swap2\n      swap1\n      pop\n      jump\t// out\n        /* \"#utility.yul\":3203:3410   */\n    tag_36:\n        /* \"#utility.yul\":3325:3336   */\n      0x00\n        /* \"#utility.yul\":3359:3365   */\n      dup3\n        /* \"#utility.yul\":3354:3357   */\n      dup3\n        /* \"#utility.yul\":3347:3366   */\n      mstore\n        /* \"#utility.yul\":3399:3403   */\n      0x20\n        /* \"#utility.yul\":3394:3397   */\n      dup3\n        /* \"#utility.yul\":3390:3404   */\n      add\n        /* \"#utility.yul\":3375:3404   */\n      swap1\n      pop\n        /* \"#utility.yul\":3203:3410   */\n      swap3\n      swap2\n      pop\n      pop\n      jump\t// out\n        /* \"#utility.yul\":3416:3571   */\n    tag_37:\n        /* \"#utility.yul\":3506:3510   */\n      0x00\n        /* \"#utility.yul\":3529:3532   */\n      dup2\n        /* \"#utility.yul\":3521:3532   */\n      swap1\n      pop\n        /* \"#utility.yul\":3559:3563   */\n      0x20\n        /* \"#utility.yul\":3554:3557   */\n      dup3\n        /* \"#utility.yul\":3550:3564   */\n      add\n        /* \"#utility.yul\":3542:3564   */\n      swap1\n      pop\n        /* \"#utility.yul\":3416:3571   */\n      swap2\n      swap1\n      pop\n      jump\t// out\n        /* \"#utility.yul\":3577:3676   */\n    tag_38:\n        /* \"#utility.yul\":3629:3635   */\n      0x00\n        /* \"#utility.yul\":3663:3668   */\n      dup2\n        /* \"#utility.yul\":3657:3669   */\n      mload\n        /* \"#utility.yul\":3647:3669   */\n      swap1\n      pop\n        /* \"#utility.yul\":3577:3676   */\n      swap2\n      swap1\n      pop\n      jump\t// out\n        /* \"#utility.yul\":3682:3841   */\n    tag_39:\n        /* \"#utility.yul\":3756:3767   */\n      0x00\n        /* \"#utility.yul\":3790:3796   */\n      dup3\n        /* \"#utility.yul\":3785:3788   */\n      dup3\n        /* \"#utility.yul\":3778:3797   */\n      mstore\n        /* \"#utility.yul\":3830:3834   */\n      0x20\n        /* \"#utility.yul\":3825:3828   */\n      dup3\n        /* \"#utility.yul\":3821:3835   */\n      add\n        /* \"#utility.yul\":3806:3835   */\n      swap1\n      pop\n        /* \"#utility.yul\":3682:3841   */\n      swap3\n      swap2\n      pop\n      pop\n      jump\t// out\n        /* \"#utility.yul\":3847:4093   */\n    tag_40:\n        /* \"#utility.yul\":3928:3929   */\n      0x00\n        /* \"#utility.yul\":3938:4051   */\n    tag_111:\n        /* \"#utility.yul\":3952:3958   */\n      dup4\n        /* \"#utility.yul\":3949:3950   */\n      dup2\n        /* \"#utility.yul\":3946:3959   */\n      lt\n        /* \"#utility.yul\":3938:4051   */\n      iszero\n      tag_113\n      jumpi\n        /* \"#utility.yul\":4037:4038   */\n      dup1\n        /* \"#utility.yul\":4032:4035   */\n      dup3\n        /* \"#utility.yul\":4028:4039   */\n      add\n        /* \"#utility.yul\":4022:4040   */\n      mload\n        /* \"#utility.yul\":4018:4019   */\n      dup2\n        /* \"#utility.yul\":4013:4016   */\n      dup5\n        /* \"#utility.yul\":4009:4020   */\n      add\n        /* \"#utility.yul\":4002:4041   */\n      mstore\n        /* \"#utility.yul\":3974:3976   */\n      0x20\n        /* \"#utility.yul\":3971:3972   */\n      dup2\n        /* \"#utility.yul\":3967:3977   */\n      add\n        /* \"#utility.yul\":3962:3977   */\n      swap1\n      pop\n        /* \"#utility.yul\":3938:4051   */\n      jump(tag_111)\n    tag_113:\n        /* \"#utility.yul\":4085:4086   */\n      0x00\n        /* \"#utility.yul\":4076:4082   */\n      dup5\n        /* \"#utility.yul\":4071:4074   */\n      dup5\n        /* \"#utility.yul\":4067:4083   */\n      add\n        /* \"#utility.yul\":4060:4087   */\n      mstore\n        /* \"#utility.yul\":3909:4093   */\n      pop\n        /* \"#utility.yul\":3847:4093   */\n      pop\n      pop\n      pop\n      jump\t// out\n        /* \"#utility.yul\":4099:4456   */\n    tag_41:\n        /* \"#utility.yul\":4177:4180   */\n      0x00\n        /* \"#utility.yul\":4205:4244   */\n      tag_115\n        /* \"#utility.yul\":4238:4243   */\n      dup3\n        /* \"#utility.yul\":4205:4244   */\n      tag_38\n      jump\t// in\n    tag_115:\n        /* \"#utility.yul\":4260:4321   */\n      tag_116\n        /* \"#utility.yul\":4314:4320   */\n      dup2\n        /* \"#utility.yul\":4309:4312   */\n      dup6\n        /* \"#utility.yul\":4260:4321   */\n      tag_39\n      jump\t// in\n    tag_116:\n        /* \"#utility.yul\":4253:4321   */\n      swap4\n      pop\n        /* \"#utility.yul\":4330:4395   */\n      tag_117\n        /* \"#utility.yul\":4388:4394   */\n      dup2\n        /* \"#utility.yul\":4383:4386   */\n      dup6\n        /* \"#utility.yul\":4376:4380   */\n      0x20\n        /* \"#utility.yul\":4369:4374   */\n      dup7\n        /* \"#utility.yul\":4365:4381   */\n      add\n        /* \"#utility.yul\":4330:4395   */\n      tag_40\n      jump\t// in\n    tag_117:\n        /* \"#utility.yul\":4420:4449   */\n      tag_118\n        /* \"#utility.yul\":4442:4448   */\n      dup2\n        /* \"#utility.yul\":4420:4449   */\n      tag_27\n      jump\t// in\n    tag_118:\n        /* \"#utility.yul\":4415:4418   */\n      dup5\n        /* \"#utility.yul\":4411:4450   */\n      add\n        /* \"#utility.yul\":4404:4450   */\n      swap2\n      pop\n        /* \"#utility.yul\":4181:4456   */\n      pop\n        /* \"#utility.yul\":4099:4456   */\n      swap3\n      swap2\n      pop\n      pop\n      jump\t// out\n        /* \"#utility.yul\":4462:4539   */\n    tag_42:\n        /* \"#utility.yul\":4499:4506   */\n      0x00\n        /* \"#utility.yul\":4528:4533   */\n      dup2\n        /* \"#utility.yul\":4517:4533   */\n      swap1\n      pop\n        /* \"#utility.yul\":4462:4539   */\n      swap2\n      swap1\n      pop\n      jump\t// out\n        /* \"#utility.yul\":4545:4653   */\n    tag_43:\n        /* \"#utility.yul\":4622:4646   */\n      tag_121\n        /* \"#utility.yul\":4640:4645   */\n      dup2\n        /* \"#utility.yul\":4622:4646   */\n      tag_42\n      jump\t// in\n    tag_121:\n        /* \"#utility.yul\":4617:4620   */\n      dup3\n        /* \"#utility.yul\":4610:4647   */\n      mstore\n        /* \"#utility.yul\":4545:4653   */\n      pop\n      pop\n      jump\t// out\n        /* \"#utility.yul\":4725:5568   */\n    tag_44:\n        /* \"#utility.yul\":4830:4833   */\n      0x00\n        /* \"#utility.yul\":4866:4870   */\n      0x60\n        /* \"#utility.yul\":4861:4864   */\n      dup4\n        /* \"#utility.yul\":4857:4871   */\n      add\n        /* \"#utility.yul\":4956:4960   */\n      0x00\n        /* \"#utility.yul\":4949:4954   */\n      dup4\n        /* \"#utility.yul\":4945:4961   */\n      add\n        /* \"#utility.yul\":4939:4962   */\n      mload\n        /* \"#utility.yul\":5009:5012   */\n      dup5\n        /* \"#utility.yul\":5003:5007   */\n      dup3\n        /* \"#utility.yul\":4999:5013   */\n      sub\n        /* \"#utility.yul\":4992:4996   */\n      0x00\n        /* \"#utility.yul\":4987:4990   */\n      dup7\n        /* \"#utility.yul\":4983:4997   */\n      add\n        /* \"#utility.yul\":4976:5014   */\n      mstore\n        /* \"#utility.yul\":5035:5108   */\n      tag_123\n        /* \"#utility.yul\":5103:5107   */\n      dup3\n        /* \"#utility.yul\":5089:5101   */\n      dup3\n        /* \"#utility.yul\":5035:5108   */\n      tag_41\n      jump\t// in\n    tag_123:\n        /* \"#utility.yul\":5027:5108   */\n      swap2\n      pop\n        /* \"#utility.yul\":4881:5119   */\n      pop\n        /* \"#utility.yul\":5202:5206   */\n      0x20\n        /* \"#utility.yul\":5195:5200   */\n      dup4\n        /* \"#utility.yul\":5191:5207   */\n      add\n        /* \"#utility.yul\":5185:5208   */\n      mload\n        /* \"#utility.yul\":5221:5284   */\n      tag_124\n        /* \"#utility.yul\":5278:5282   */\n      0x20\n        /* \"#utility.yul\":5273:5276   */\n      dup7\n        /* \"#utility.yul\":5269:5283   */\n      add\n        /* \"#utility.yul\":5255:5267   */\n      dup3\n        /* \"#utility.yul\":5221:5284   */\n      tag_43\n      jump\t// in\n    tag_124:\n        /* \"#utility.yul\":5129:5294   */\n      pop\n        /* \"#utility.yul\":5378:5382   */\n      0x40\n        /* \"#utility.yul\":5371:5376   */\n      dup4\n        /* \"#utility.yul\":5367:5383   */\n      add\n        /* \"#utility.yul\":5361:5384   */\n      mload\n        /* \"#utility.yul\":5431:5434   */\n      dup5\n        /* \"#utility.yul\":5425:5429   */\n      dup3\n        /* \"#utility.yul\":5421:5435   */\n      sub\n        /* \"#utility.yul\":5414:5418   */\n      0x40\n        /* \"#utility.yul\":5409:5412   */\n      dup7\n        /* \"#utility.yul\":5405:5419   */\n      add\n        /* \"#utility.yul\":5398:5436   */\n      mstore\n        /* \"#utility.yul\":5457:5530   */\n      tag_125\n        /* \"#utility.yul\":5525:5529   */\n      dup3\n        /* \"#utility.yul\":5511:5523   */\n      dup3\n        /* \"#utility.yul\":5457:5530   */\n      tag_41\n      jump\t// in\n    tag_125:\n        /* \"#utility.yul\":5449:5530   */\n      swap2\n      pop\n        /* \"#utility.yul\":5304:5541   */\n      pop\n        /* \"#utility.yul\":5558:5562   */\n      dup1\n        /* \"#utility.yul\":5551:5562   */\n      swap2\n      pop\n        /* \"#utility.yul\":4835:5568   */\n      pop\n        /* \"#utility.yul\":4725:5568   */\n      swap3\n      swap2\n      pop\n      pop\n      jump\t// out\n        /* \"#utility.yul\":5574:5822   */\n    tag_45:\n        /* \"#utility.yul\":5689:5699   */\n      0x00\n        /* \"#utility.yul\":5724:5816   */\n      tag_127\n        /* \"#utility.yul\":5812:5815   */\n      dup4\n        /* \"#utility.yul\":5804:5810   */\n      dup4\n        /* \"#utility.yul\":5724:5816   */\n      tag_44\n      jump\t// in\n    tag_127:\n        /* \"#utility.yul\":5710:5816   */\n      swap1\n      pop\n        /* \"#utility.yul\":5574:5822   */\n      swap3\n      swap2\n      pop\n      pop\n      jump\t// out\n        /* \"#utility.yul\":5828:5964   */\n    tag_46:\n        /* \"#utility.yul\":5921:5925   */\n      0x00\n        /* \"#utility.yul\":5953:5957   */\n      0x20\n        /* \"#utility.yul\":5948:5951   */\n      dup3\n        /* \"#utility.yul\":5944:5958   */\n      add\n        /* \"#utility.yul\":5936:5958   */\n      swap1\n      pop\n        /* \"#utility.yul\":5828:5964   */\n      swap2\n      swap1\n      pop\n      jump\t// out\n        /* \"#utility.yul\":6040:7135   */\n    tag_47:\n        /* \"#utility.yul\":6205:6208   */\n      0x00\n        /* \"#utility.yul\":6234:6311   */\n      tag_130\n        /* \"#utility.yul\":6305:6310   */\n      dup3\n        /* \"#utility.yul\":6234:6311   */\n      tag_35\n      jump\t// in\n    tag_130:\n        /* \"#utility.yul\":6327:6436   */\n      tag_131\n        /* \"#utility.yul\":6429:6435   */\n      dup2\n        /* \"#utility.yul\":6424:6427   */\n      dup6\n        /* \"#utility.yul\":6327:6436   */\n      tag_36\n      jump\t// in\n    tag_131:\n        /* \"#utility.yul\":6320:6436   */\n      swap4\n      pop\n        /* \"#utility.yul\":6462:6465   */\n      dup4\n        /* \"#utility.yul\":6507:6511   */\n      0x20\n        /* \"#utility.yul\":6499:6505   */\n      dup3\n        /* \"#utility.yul\":6495:6512   */\n      mul\n        /* \"#utility.yul\":6490:6493   */\n      dup6\n        /* \"#utility.yul\":6486:6513   */\n      add\n        /* \"#utility.yul\":6537:6616   */\n      tag_132\n        /* \"#utility.yul\":6610:6615   */\n      dup6\n        /* \"#utility.yul\":6537:6616   */\n      tag_37\n      jump\t// in\n    tag_132:\n        /* \"#utility.yul\":6639:6646   */\n      dup1\n        /* \"#utility.yul\":6670:6671   */\n      0x00\n        /* \"#utility.yul\":6655:7090   */\n    tag_133:\n        /* \"#utility.yul\":6680:6686   */\n      dup6\n        /* \"#utility.yul\":6677:6678   */\n      dup2\n        /* \"#utility.yul\":6674:6687   */\n      lt\n        /* \"#utility.yul\":6655:7090   */\n      iszero\n      tag_135\n      jumpi\n        /* \"#utility.yul\":6751:6760   */\n      dup5\n        /* \"#utility.yul\":6745:6749   */\n      dup5\n        /* \"#utility.yul\":6741:6761   */\n      sub\n        /* \"#utility.yul\":6736:6739   */\n      dup10\n        /* \"#utility.yul\":6729:6762   */\n      mstore\n        /* \"#utility.yul\":6802:6808   */\n      dup2\n        /* \"#utility.yul\":6796:6809   */\n      mload\n        /* \"#utility.yul\":6830:6940   */\n      tag_136\n        /* \"#utility.yul\":6935:6939   */\n      dup6\n        /* \"#utility.yul\":6920:6933   */\n      dup3\n        /* \"#utility.yul\":6830:6940   */\n      tag_45\n      jump\t// in\n    tag_136:\n        /* \"#utility.yul\":6822:6940   */\n      swap5\n      pop\n        /* \"#utility.yul\":6963:7046   */\n      tag_137\n        /* \"#utility.yul\":7039:7045   */\n      dup4\n        /* \"#utility.yul\":6963:7046   */\n      tag_46\n      jump\t// in\n    tag_137:\n        /* \"#utility.yul\":6953:7046   */\n      swap3\n      pop\n        /* \"#utility.yul\":7075:7079   */\n      0x20\n        /* \"#utility.yul\":7070:7073   */\n      dup11\n        /* \"#utility.yul\":7066:7080   */\n      add\n        /* \"#utility.yul\":7059:7080   */\n      swap10\n      pop\n        /* \"#utility.yul\":6715:7090   */\n      pop\n        /* \"#utility.yul\":6702:6703   */\n      0x01\n        /* \"#utility.yul\":6699:6700   */\n      dup2\n        /* \"#utility.yul\":6695:6704   */\n      add\n        /* \"#utility.yul\":6690:6704   */\n      swap1\n      pop\n        /* \"#utility.yul\":6655:7090   */\n      jump(tag_133)\n    tag_135:\n        /* \"#utility.yul\":6659:6673   */\n      pop\n        /* \"#utility.yul\":7106:7110   */\n      dup3\n        /* \"#utility.yul\":7099:7110   */\n      swap8\n      pop\n        /* \"#utility.yul\":7126:7129   */\n      dup8\n        /* \"#utility.yul\":7119:7129   */\n      swap6\n      pop\n        /* \"#utility.yul\":6210:7135   */\n      pop\n      pop\n      pop\n      pop\n      pop\n        /* \"#utility.yul\":6040:7135   */\n      swap3\n      swap2\n      pop\n      pop\n      jump\t// out\n        /* \"#utility.yul\":7141:7606   */\n    tag_10:\n        /* \"#utility.yul\":7330:7334   */\n      0x00\n        /* \"#utility.yul\":7368:7370   */\n      0x20\n        /* \"#utility.yul\":7357:7366   */\n      dup3\n        /* \"#utility.yul\":7353:7371   */\n      add\n        /* \"#utility.yul\":7345:7371   */\n      swap1\n      pop\n        /* \"#utility.yul\":7417:7426   */\n      dup2\n        /* \"#utility.yul\":7411:7415   */\n      dup2\n        /* \"#utility.yul\":7407:7427   */\n      sub\n        /* \"#utility.yul\":7403:7404   */\n      0x00\n        /* \"#utility.yul\":7392:7401   */\n      dup4\n        /* \"#utility.yul\":7388:7405   */\n      add\n        /* \"#utility.yul\":7381:7428   */\n      mstore\n        /* \"#utility.yul\":7445:7599   */\n      tag_139\n        /* \"#utility.yul\":7594:7598   */\n      dup2\n        /* \"#utility.yul\":7585:7591   */\n      dup5\n        /* \"#utility.yul\":7445:7599   */\n      tag_47\n      jump\t// in\n    tag_139:\n        /* \"#utility.yul\":7437:7599   */\n      swap1\n      pop\n        /* \"#utility.yul\":7141:7606   */\n      swap3\n      swap2\n      pop\n      pop\n      jump\t// out\n        /* \"#utility.yul\":7612:7946   */\n    tag_48:\n        /* \"#utility.yul\":7712:7716   */\n      0x00\n        /* \"#utility.yul\":7802:7820   */\n      0xffffffffffffffff\n        /* \"#utility.yul\":7794:7800   */\n      dup3\n        /* \"#utility.yul\":7791:7821   */\n      gt\n        /* \"#utility.yul\":7788:7844   */\n      iszero\n      tag_141\n      jumpi\n        /* \"#utility.yul\":7824:7842   */\n      tag_142\n      tag_28\n      jump\t// in\n    tag_142:\n        /* \"#utility.yul\":7788:7844   */\n    tag_141:\n        /* \"#utility.yul\":7874:7878   */\n      0x20\n        /* \"#utility.yul\":7866:7872   */\n      dup3\n        /* \"#utility.yul\":7862:7879   */\n      mul\n        /* \"#utility.yul\":7854:7879   */\n      swap1\n      pop\n        /* \"#utility.yul\":7934:7938   */\n      0x20\n        /* \"#utility.yul\":7928:7932   */\n      dup2\n        /* \"#utility.yul\":7924:7939   */\n      add\n        /* \"#utility.yul\":7916:7939   */\n      swap1\n      pop\n        /* \"#utility.yul\":7612:7946   */\n      swap2\n      swap1\n      pop\n      jump\t// out\n        /* \"#utility.yul\":7952:8069   */\n    tag_49:\n        /* \"#utility.yul\":8061:8062   */\n      0x00\n        /* \"#utility.yul\":8058:8059   */\n      dup1\n        /* \"#utility.yul\":8051:8063   */\n      revert\n        /* \"#utility.yul\":8075:8192   */\n    tag_50:\n        /* \"#utility.yul\":8184:8185   */\n      0x00\n        /* \"#utility.yul\":8181:8182   */\n      dup1\n        /* \"#utility.yul\":8174:8186   */\n      revert\n        /* \"#utility.yul\":8198:8315   */\n    tag_51:\n        /* \"#utility.yul\":8307:8308   */\n      0x00\n        /* \"#utility.yul\":8304:8305   */\n      dup1\n        /* \"#utility.yul\":8297:8309   */\n      revert\n        /* \"#utility.yul\":8321:8629   */\n    tag_52:\n        /* \"#utility.yul\":8383:8387   */\n      0x00\n        /* \"#utility.yul\":8473:8491   */\n      0xffffffffffffffff\n        /* \"#utility.yul\":8465:8471   */\n      dup3\n        /* \"#utility.yul\":8462:8492   */\n      gt\n        /* \"#utility.yul\":8459:8515   */\n      iszero\n      tag_147\n      jumpi\n        /* \"#utility.yul\":8495:8513   */\n      tag_148\n      tag_28\n      jump\t// in\n    tag_148:\n        /* \"#utility.yul\":8459:8515   */\n    tag_147:\n        /* \"#utility.yul\":8533:8562   */\n      tag_149\n        /* \"#utility.yul\":8555:8561   */\n      dup3\n        /* \"#utility.yul\":8533:8562   */\n      tag_27\n      jump\t// in\n    tag_149:\n        /* \"#utility.yul\":8525:8562   */\n      swap1\n      pop\n        /* \"#utility.yul\":8617:8621   */\n      0x20\n        /* \"#utility.yul\":8611:8615   */\n      dup2\n        /* \"#utility.yul\":8607:8622   */\n      add\n        /* \"#utility.yul\":8599:8622   */\n      swap1\n      pop\n        /* \"#utility.yul\":8321:8629   */\n      swap2\n      swap1\n      pop\n      jump\t// out\n        /* \"#utility.yul\":8635:9060   */\n    tag_53:\n        /* \"#utility.yul\":8713:8718   */\n      0x00\n        /* \"#utility.yul\":8738:8804   */\n      tag_151\n        /* \"#utility.yul\":8754:8803   */\n      tag_152\n        /* \"#utility.yul\":8796:8802   */\n      dup5\n        /* \"#utility.yul\":8754:8803   */\n      tag_52\n      jump\t// in\n    tag_152:\n        /* \"#utility.yul\":8738:8804   */\n      tag_30\n      jump\t// in\n    tag_151:\n        /* \"#utility.yul\":8729:8804   */\n      swap1\n      pop\n        /* \"#utility.yul\":8827:8833   */\n      dup3\n        /* \"#utility.yul\":8820:8825   */\n      dup2\n        /* \"#utility.yul\":8813:8834   */\n      mstore\n        /* \"#utility.yul\":8865:8869   */\n      0x20\n        /* \"#utility.yul\":8858:8863   */\n      dup2\n        /* \"#utility.yul\":8854:8870   */\n      add\n        /* \"#utility.yul\":8903:8906   */\n      dup5\n        /* \"#utility.yul\":8894:8900   */\n      dup5\n        /* \"#utility.yul\":8889:8892   */\n      dup5\n        /* \"#utility.yul\":8885:8901   */\n      add\n        /* \"#utility.yul\":8882:8907   */\n      gt\n        /* \"#utility.yul\":8879:8991   */\n      iszero\n      tag_153\n      jumpi\n        /* \"#utility.yul\":8910:8989   */\n      tag_154\n      tag_26\n      jump\t// in\n    tag_154:\n        /* \"#utility.yul\":8879:8991   */\n    tag_153:\n        /* \"#utility.yul\":9000:9054   */\n      tag_155\n        /* \"#utility.yul\":9047:9053   */\n      dup5\n        /* \"#utility.yul\":9042:9045   */\n      dup3\n        /* \"#utility.yul\":9037:9040   */\n      dup6\n        /* \"#utility.yul\":9000:9054   */\n      tag_32\n      jump\t// in\n    tag_155:\n        /* \"#utility.yul\":8719:9060   */\n      pop\n        /* \"#utility.yul\":8635:9060   */\n      swap4\n      swap3\n      pop\n      pop\n      pop\n      jump\t// out\n        /* \"#utility.yul\":9080:9420   */\n    tag_54:\n        /* \"#utility.yul\":9136:9141   */\n      0x00\n        /* \"#utility.yul\":9185:9188   */\n      dup3\n        /* \"#utility.yul\":9178:9182   */\n      0x1f\n        /* \"#utility.yul\":9170:9176   */\n      dup4\n        /* \"#utility.yul\":9166:9183   */\n      add\n        /* \"#utility.yul\":9162:9189   */\n      slt\n        /* \"#utility.yul\":9152:9274   */\n      tag_157\n      jumpi\n        /* \"#utility.yul\":9193:9272   */\n      tag_158\n      tag_25\n      jump\t// in\n    tag_158:\n        /* \"#utility.yul\":9152:9274   */\n    tag_157:\n        /* \"#utility.yul\":9310:9316   */\n      dup2\n        /* \"#utility.yul\":9297:9317   */\n      calldataload\n        /* \"#utility.yul\":9335:9414   */\n      tag_159\n        /* \"#utility.yul\":9410:9413   */\n      dup5\n        /* \"#utility.yul\":9402:9408   */\n      dup3\n        /* \"#utility.yul\":9395:9399   */\n      0x20\n        /* \"#utility.yul\":9387:9393   */\n      dup7\n        /* \"#utility.yul\":9383:9400   */\n      add\n        /* \"#utility.yul\":9335:9414   */\n      tag_53\n      jump\t// in\n    tag_159:\n        /* \"#utility.yul\":9326:9414   */\n      swap2\n      pop\n        /* \"#utility.yul\":9142:9420   */\n      pop\n        /* \"#utility.yul\":9080:9420   */\n      swap3\n      swap2\n      pop\n      pop\n      jump\t// out\n        /* \"#utility.yul\":9426:9548   */\n    tag_55:\n        /* \"#utility.yul\":9499:9523   */\n      tag_161\n        /* \"#utility.yul\":9517:9522   */\n      dup2\n        /* \"#utility.yul\":9499:9523   */\n      tag_42\n      jump\t// in\n    tag_161:\n        /* \"#utility.yul\":9492:9497   */\n      dup2\n        /* \"#utility.yul\":9489:9524   */\n      eq\n        /* \"#utility.yul\":9479:9542   */\n      tag_162\n      jumpi\n        /* \"#utility.yul\":9538:9539   */\n      0x00\n        /* \"#utility.yul\":9535:9536   */\n      dup1\n        /* \"#utility.yul\":9528:9540   */\n      revert\n        /* \"#utility.yul\":9479:9542   */\n    tag_162:\n        /* \"#utility.yul\":9426:9548   */\n      pop\n      jump\t// out\n        /* \"#utility.yul\":9554:9693   */\n    tag_56:\n        /* \"#utility.yul\":9600:9605   */\n      0x00\n        /* \"#utility.yul\":9638:9644   */\n      dup2\n        /* \"#utility.yul\":9625:9645   */\n      calldataload\n        /* \"#utility.yul\":9616:9645   */\n      swap1\n      pop\n        /* \"#utility.yul\":9654:9687   */\n      tag_164\n        /* \"#utility.yul\":9681:9686   */\n      dup2\n        /* \"#utility.yul\":9654:9687   */\n      tag_55\n      jump\t// in\n    tag_164:\n        /* \"#utility.yul\":9554:9693   */\n      swap3\n      swap2\n      pop\n      pop\n      jump\t// out\n        /* \"#utility.yul\":9734:10813   */\n    tag_57:\n        /* \"#utility.yul\":9806:9811   */\n      0x00\n        /* \"#utility.yul\":9850:9854   */\n      0x60\n        /* \"#utility.yul\":9838:9847   */\n      dup3\n        /* \"#utility.yul\":9833:9836   */\n      dup5\n        /* \"#utility.yul\":9829:9848   */\n      sub\n        /* \"#utility.yul\":9825:9855   */\n      slt\n        /* \"#utility.yul\":9822:9939   */\n      iszero\n      tag_166\n      jumpi\n        /* \"#utility.yul\":9858:9937   */\n      tag_167\n      tag_50\n      jump\t// in\n    tag_167:\n        /* \"#utility.yul\":9822:9939   */\n    tag_166:\n        /* \"#utility.yul\":9957:9978   */\n      tag_168\n        /* \"#utility.yul\":9973:9977   */\n      0x60\n        /* \"#utility.yul\":9957:9978   */\n      tag_30\n      jump\t// in\n    tag_168:\n        /* \"#utility.yul\":9948:9978   */\n      swap1\n      pop\n        /* \"#utility.yul\":10068:10069   */\n      0x00\n        /* \"#utility.yul\":10057:10066   */\n      dup3\n        /* \"#utility.yul\":10053:10070   */\n      add\n        /* \"#utility.yul\":10040:10071   */\n      calldataload\n        /* \"#utility.yul\":10098:10116   */\n      0xffffffffffffffff\n        /* \"#utility.yul\":10090:10096   */\n      dup2\n        /* \"#utility.yul\":10087:10117   */\n      gt\n        /* \"#utility.yul\":10084:10201   */\n      iszero\n      tag_169\n      jumpi\n        /* \"#utility.yul\":10120:10199   */\n      tag_170\n      tag_51\n      jump\t// in\n    tag_170:\n        /* \"#utility.yul\":10084:10201   */\n    tag_169:\n        /* \"#utility.yul\":10240:10299   */\n      tag_171\n        /* \"#utility.yul\":10295:10298   */\n      dup5\n        /* \"#utility.yul\":10286:10292   */\n      dup3\n        /* \"#utility.yul\":10275:10284   */\n      dup6\n        /* \"#utility.yul\":10271:10293   */\n      add\n        /* \"#utility.yul\":10240:10299   */\n      tag_54\n      jump\t// in\n    tag_171:\n        /* \"#utility.yul\":10233:10237   */\n      0x00\n        /* \"#utility.yul\":10226:10231   */\n      dup4\n        /* \"#utility.yul\":10222:10238   */\n      add\n        /* \"#utility.yul\":10215:10300   */\n      mstore\n        /* \"#utility.yul\":9988:10311   */\n      pop\n        /* \"#utility.yul\":10371:10373   */\n      0x20\n        /* \"#utility.yul\":10412:10461   */\n      tag_172\n        /* \"#utility.yul\":10457:10460   */\n      dup5\n        /* \"#utility.yul\":10448:10454   */\n      dup3\n        /* \"#utility.yul\":10437:10446   */\n      dup6\n        /* \"#utility.yul\":10433:10455   */\n      add\n        /* \"#utility.yul\":10412:10461   */\n      tag_56\n      jump\t// in\n    tag_172:\n        /* \"#utility.yul\":10405:10409   */\n      0x20\n        /* \"#utility.yul\":10398:10403   */\n      dup4\n        /* \"#utility.yul\":10394:10410   */\n      add\n        /* \"#utility.yul\":10387:10462   */\n      mstore\n        /* \"#utility.yul\":10321:10473   */\n      pop\n        /* \"#utility.yul\":10562:10564   */\n      0x40\n        /* \"#utility.yul\":10551:10560   */\n      dup3\n        /* \"#utility.yul\":10547:10565   */\n      add\n        /* \"#utility.yul\":10534:10566   */\n      calldataload\n        /* \"#utility.yul\":10593:10611   */\n      0xffffffffffffffff\n        /* \"#utility.yul\":10585:10591   */\n      dup2\n        /* \"#utility.yul\":10582:10612   */\n      gt\n        /* \"#utility.yul\":10579:10696   */\n      iszero\n      tag_173\n      jumpi\n        /* \"#utility.yul\":10615:10694   */\n      tag_174\n      tag_51\n      jump\t// in\n    tag_174:\n        /* \"#utility.yul\":10579:10696   */\n    tag_173:\n        /* \"#utility.yul\":10735:10794   */\n      tag_175\n        /* \"#utility.yul\":10790:10793   */\n      dup5\n        /* \"#utility.yul\":10781:10787   */\n      dup3\n        /* \"#utility.yul\":10770:10779   */\n      dup6\n        /* \"#utility.yul\":10766:10788   */\n      add\n        /* \"#utility.yul\":10735:10794   */\n      tag_54\n      jump\t// in\n    tag_175:\n        /* \"#utility.yul\":10728:10732   */\n      0x40\n        /* \"#utility.yul\":10721:10726   */\n      dup4\n        /* \"#utility.yul\":10717:10733   */\n      add\n        /* \"#utility.yul\":10710:10795   */\n      mstore\n        /* \"#utility.yul\":10483:10806   */\n      pop\n        /* \"#utility.yul\":9734:10813   */\n      swap3\n      swap2\n      pop\n      pop\n      jump\t// out\n        /* \"#utility.yul\":10856:11840   */\n    tag_58:\n        /* \"#utility.yul\":10975:10980   */\n      0x00\n        /* \"#utility.yul\":11000:11104   */\n      tag_177\n        /* \"#utility.yul\":11016:11103   */\n      tag_178\n        /* \"#utility.yul\":11096:11102   */\n      dup5\n        /* \"#utility.yul\":11016:11103   */\n      tag_48\n      jump\t// in\n    tag_178:\n        /* \"#utility.yul\":11000:11104   */\n      tag_30\n      jump\t// in\n    tag_177:\n        /* \"#utility.yul\":10991:11104   */\n      swap1\n      pop\n        /* \"#utility.yul\":11124:11129   */\n      dup1\n        /* \"#utility.yul\":11153:11159   */\n      dup4\n        /* \"#utility.yul\":11146:11151   */\n      dup3\n        /* \"#utility.yul\":11139:11160   */\n      mstore\n        /* \"#utility.yul\":11187:11191   */\n      0x20\n        /* \"#utility.yul\":11180:11185   */\n      dup3\n        /* \"#utility.yul\":11176:11192   */\n      add\n        /* \"#utility.yul\":11169:11192   */\n      swap1\n      pop\n        /* \"#utility.yul\":11240:11244   */\n      0x20\n        /* \"#utility.yul\":11232:11238   */\n      dup5\n        /* \"#utility.yul\":11228:11245   */\n      mul\n        /* \"#utility.yul\":11220:11226   */\n      dup4\n        /* \"#utility.yul\":11216:11246   */\n      add\n        /* \"#utility.yul\":11269:11272   */\n      dup6\n        /* \"#utility.yul\":11261:11267   */\n      dup2\n        /* \"#utility.yul\":11258:11273   */\n      gt\n        /* \"#utility.yul\":11255:11377   */\n      iszero\n      tag_179\n      jumpi\n        /* \"#utility.yul\":11288:11367   */\n      tag_180\n      tag_49\n      jump\t// in\n    tag_180:\n        /* \"#utility.yul\":11255:11377   */\n    tag_179:\n        /* \"#utility.yul\":11403:11409   */\n      dup4\n        /* \"#utility.yul\":11386:11834   */\n    tag_181:\n        /* \"#utility.yul\":11420:11426   */\n      dup2\n        /* \"#utility.yul\":11415:11418   */\n      dup2\n        /* \"#utility.yul\":11412:11427   */\n      lt\n        /* \"#utility.yul\":11386:11834   */\n      iszero\n      tag_183\n      jumpi\n        /* \"#utility.yul\":11509:11512   */\n      dup1\n        /* \"#utility.yul\":11496:11513   */\n      calldataload\n        /* \"#utility.yul\":11545:11563   */\n      0xffffffffffffffff\n        /* \"#utility.yul\":11532:11543   */\n      dup2\n        /* \"#utility.yul\":11529:11564   */\n      gt\n        /* \"#utility.yul\":11526:11648   */\n      iszero\n      tag_184\n      jumpi\n        /* \"#utility.yul\":11567:11646   */\n      tag_185\n      tag_25\n      jump\t// in\n    tag_185:\n        /* \"#utility.yul\":11526:11648   */\n    tag_184:\n        /* \"#utility.yul\":11691:11702   */\n      dup1\n        /* \"#utility.yul\":11683:11689   */\n      dup7\n        /* \"#utility.yul\":11679:11703   */\n      add\n        /* \"#utility.yul\":11729:11789   */\n      tag_186\n        /* \"#utility.yul\":11785:11788   */\n      dup10\n        /* \"#utility.yul\":11773:11783   */\n      dup3\n        /* \"#utility.yul\":11729:11789   */\n      tag_57\n      jump\t// in\n    tag_186:\n        /* \"#utility.yul\":11724:11727   */\n      dup6\n        /* \"#utility.yul\":11717:11790   */\n      mstore\n        /* \"#utility.yul\":11819:11823   */\n      0x20\n        /* \"#utility.yul\":11814:11817   */\n      dup6\n        /* \"#utility.yul\":11810:11824   */\n      add\n        /* \"#utility.yul\":11803:11824   */\n      swap5\n      pop\n        /* \"#utility.yul\":11462:11834   */\n      pop\n      pop\n        /* \"#utility.yul\":11446:11450   */\n      0x20\n        /* \"#utility.yul\":11441:11444   */\n      dup2\n        /* \"#utility.yul\":11437:11451   */\n      add\n        /* \"#utility.yul\":11430:11451   */\n      swap1\n      pop\n        /* \"#utility.yul\":11386:11834   */\n      jump(tag_181)\n    tag_183:\n        /* \"#utility.yul\":11390:11411   */\n      pop\n        /* \"#utility.yul\":10981:11840   */\n      pop\n      pop\n        /* \"#utility.yul\":10856:11840   */\n      swap4\n      swap3\n      pop\n      pop\n      pop\n      jump\t// out\n        /* \"#utility.yul\":11883:12299   */\n    tag_59:\n        /* \"#utility.yul\":11977:11982   */\n      0x00\n        /* \"#utility.yul\":12026:12029   */\n      dup3\n        /* \"#utility.yul\":12019:12023   */\n      0x1f\n        /* \"#utility.yul\":12011:12017   */\n      dup4\n        /* \"#utility.yul\":12007:12024   */\n      add\n        /* \"#utility.yul\":12003:12030   */\n      slt\n        /* \"#utility.yul\":11993:12115   */\n      tag_188\n      jumpi\n        /* \"#utility.yul\":12034:12113   */\n      tag_189\n      tag_25\n      jump\t// in\n    tag_189:\n        /* \"#utility.yul\":11993:12115   */\n    tag_188:\n        /* \"#utility.yul\":12151:12157   */\n      dup2\n        /* \"#utility.yul\":12138:12158   */\n      calldataload\n        /* \"#utility.yul\":12176:12293   */\n      tag_190\n        /* \"#utility.yul\":12289:12292   */\n      dup5\n        /* \"#utility.yul\":12281:12287   */\n      dup3\n        /* \"#utility.yul\":12274:12278   */\n      0x20\n        /* \"#utility.yul\":12266:12272   */\n      dup7\n        /* \"#utility.yul\":12262:12279   */\n      add\n        /* \"#utility.yul\":12176:12293   */\n      tag_58\n      jump\t// in\n    tag_190:\n        /* \"#utility.yul\":12167:12293   */\n      swap2\n      pop\n        /* \"#utility.yul\":11983:12299   */\n      pop\n        /* \"#utility.yul\":11883:12299   */\n      swap3\n      swap2\n      pop\n      pop\n      jump\t// out\n        /* \"#utility.yul\":12305:12890   */\n    tag_13:\n        /* \"#utility.yul\":12412:12418   */\n      0x00\n        /* \"#utility.yul\":12461:12463   */\n      0x20\n        /* \"#utility.yul\":12449:12458   */\n      dup3\n        /* \"#utility.yul\":12440:12447   */\n      dup5\n        /* \"#utility.yul\":12436:12459   */\n      sub\n        /* \"#utility.yul\":12432:12464   */\n      slt\n        /* \"#utility.yul\":12429:12548   */\n      iszero\n      tag_192\n      jumpi\n        /* \"#utility.yul\":12467:12546   */\n      tag_193\n      tag_23\n      jump\t// in\n    tag_193:\n        /* \"#utility.yul\":12429:12548   */\n    tag_192:\n        /* \"#utility.yul\":12615:12616   */\n      0x00\n        /* \"#utility.yul\":12604:12613   */\n      dup3\n        /* \"#utility.yul\":12600:12617   */\n      add\n        /* \"#utility.yul\":12587:12618   */\n      calldataload\n        /* \"#utility.yul\":12645:12663   */\n      0xffffffffffffffff\n        /* \"#utility.yul\":12637:12643   */\n      dup2\n        /* \"#utility.yul\":12634:12664   */\n      gt\n        /* \"#utility.yul\":12631:12748   */\n      iszero\n      tag_194\n      jumpi\n        /* \"#utility.yul\":12667:12746   */\n      tag_195\n      tag_24\n      jump\t// in\n    tag_195:\n        /* \"#utility.yul\":12631:12748   */\n    tag_194:\n        /* \"#utility.yul\":12772:12873   */\n      tag_196\n        /* \"#utility.yul\":12865:12872   */\n      dup5\n        /* \"#utility.yul\":12856:12862   */\n      dup3\n        /* \"#utility.yul\":12845:12854   */\n      dup6\n        /* \"#utility.yul\":12841:12863   */\n      add\n        /* \"#utility.yul\":12772:12873   */\n      tag_59\n      jump\t// in\n    tag_196:\n        /* \"#utility.yul\":12762:12873   */\n      swap2\n      pop\n        /* \"#utility.yul\":12558:12883   */\n      pop\n        /* \"#utility.yul\":12305:12890   */\n      swap3\n      swap2\n      pop\n      pop\n      jump\t// out\n        /* \"#utility.yul\":12896:12994   */\n    tag_60:\n        /* \"#utility.yul\":12947:12953   */\n      0x00\n        /* \"#utility.yul\":12981:12986   */\n      dup2\n        /* \"#utility.yul\":12975:12987   */\n      mload\n        /* \"#utility.yul\":12965:12987   */\n      swap1\n      pop\n        /* \"#utility.yul\":12896:12994   */\n      swap2\n      swap1\n      pop\n      jump\t// out\n        /* \"#utility.yul\":13000:13168   */\n    tag_61:\n        /* \"#utility.yul\":13083:13094   */\n      0x00\n        /* \"#utility.yul\":13117:13123   */\n      dup3\n        /* \"#utility.yul\":13112:13115   */\n      dup3\n        /* \"#utility.yul\":13105:13124   */\n      mstore\n        /* \"#utility.yul\":13157:13161   */\n      0x20\n        /* \"#utility.yul\":13152:13155   */\n      dup3\n        /* \"#utility.yul\":13148:13162   */\n      add\n        /* \"#utility.yul\":13133:13162   */\n      swap1\n      pop\n        /* \"#utility.yul\":13000:13168   */\n      swap3\n      swap2\n      pop\n      pop\n      jump\t// out\n        /* \"#utility.yul\":13174:13547   */\n    tag_62:\n        /* \"#utility.yul\":13260:13263   */\n      0x00\n        /* \"#utility.yul\":13288:13326   */\n      tag_200\n        /* \"#utility.yul\":13320:13325   */\n      dup3\n        /* \"#utility.yul\":13288:13326   */\n      tag_60\n      jump\t// in\n    tag_200:\n        /* \"#utility.yul\":13342:13412   */\n      tag_201\n        /* \"#utility.yul\":13405:13411   */\n      dup2\n        /* \"#utility.yul\":13400:13403   */\n      dup6\n        /* \"#utility.yul\":13342:13412   */\n      tag_61\n      jump\t// in\n    tag_201:\n        /* \"#utility.yul\":13335:13412   */\n      swap4\n      pop\n        /* \"#utility.yul\":13421:13486   */\n      tag_202\n        /* \"#utility.yul\":13479:13485   */\n      dup2\n        /* \"#utility.yul\":13474:13477   */\n      dup6\n        /* \"#utility.yul\":13467:13471   */\n      0x20\n        /* \"#utility.yul\":13460:13465   */\n      dup7\n        /* \"#utility.yul\":13456:13472   */\n      add\n        /* \"#utility.yul\":13421:13486   */\n      tag_40\n      jump\t// in\n    tag_202:\n        /* \"#utility.yul\":13511:13540   */\n      tag_203\n        /* \"#utility.yul\":13533:13539   */\n      dup2\n        /* \"#utility.yul\":13511:13540   */\n      tag_27\n      jump\t// in\n    tag_203:\n        /* \"#utility.yul\":13506:13509   */\n      dup5\n        /* \"#utility.yul\":13502:13541   */\n      add\n        /* \"#utility.yul\":13495:13541   */\n      swap2\n      pop\n        /* \"#utility.yul\":13264:13547   */\n      pop\n        /* \"#utility.yul\":13174:13547   */\n      swap3\n      swap2\n      pop\n      pop\n      jump\t// out\n        /* \"#utility.yul\":13553:13862   */\n    tag_16:\n        /* \"#utility.yul\":13664:13668   */\n      0x00\n        /* \"#utility.yul\":13702:13704   */\n      0x20\n        /* \"#utility.yul\":13691:13700   */\n      dup3\n        /* \"#utility.yul\":13687:13705   */\n      add\n        /* \"#utility.yul\":13679:13705   */\n      swap1\n      pop\n        /* \"#utility.yul\":13751:13760   */\n      dup2\n        /* \"#utility.yul\":13745:13749   */\n      dup2\n        /* \"#utility.yul\":13741:13761   */\n      sub\n        /* \"#utility.yul\":13737:13738   */\n      0x00\n        /* \"#utility.yul\":13726:13735   */\n      dup4\n        /* \"#utility.yul\":13722:13739   */\n      add\n        /* \"#utility.yul\":13715:13762   */\n      mstore\n        /* \"#utility.yul\":13779:13855   */\n      tag_205\n        /* \"#utility.yul\":13850:13854   */\n      dup2\n        /* \"#utility.yul\":13841:13847   */\n      dup5\n        /* \"#utility.yul\":13779:13855   */\n      tag_62\n      jump\t// in\n    tag_205:\n        /* \"#utility.yul\":13771:13855   */\n      swap1\n      pop\n        /* \"#utility.yul\":13553:13862   */\n      swap3\n      swap2\n      pop\n      pop\n      jump\t// out\n        /* \"#utility.yul\":13868:14302   */\n    tag_63:\n        /* \"#utility.yul\":13957:13962   */\n      0x00\n        /* \"#utility.yul\":13982:14048   */\n      tag_207\n        /* \"#utility.yul\":13998:14047   */\n      tag_208\n        /* \"#utility.yul\":14040:14046   */\n      dup5\n        /* \"#utility.yul\":13998:14047   */\n      tag_52\n      jump\t// in\n    tag_208:\n        /* \"#utility.yul\":13982:14048   */\n      tag_30\n      jump\t// in\n    tag_207:\n        /* \"#utility.yul\":13973:14048   */\n      swap1\n      pop\n        /* \"#utility.yul\":14071:14077   */\n      dup3\n        /* \"#utility.yul\":14064:14069   */\n      dup2\n        /* \"#utility.yul\":14057:14078   */\n      mstore\n        /* \"#utility.yul\":14109:14113   */\n      0x20\n        /* \"#utility.yul\":14102:14107   */\n      dup2\n        /* \"#utility.yul\":14098:14114   */\n      add\n        /* \"#utility.yul\":14147:14150   */\n      dup5\n        /* \"#utility.yul\":14138:14144   */\n      dup5\n        /* \"#utility.yul\":14133:14136   */\n      dup5\n        /* \"#utility.yul\":14129:14145   */\n      add\n        /* \"#utility.yul\":14126:14151   */\n      gt\n        /* \"#utility.yul\":14123:14235   */\n      iszero\n      tag_209\n      jumpi\n        /* \"#utility.yul\":14154:14233   */\n      tag_210\n      tag_26\n      jump\t// in\n    tag_210:\n        /* \"#utility.yul\":14123:14235   */\n    tag_209:\n        /* \"#utility.yul\":14244:14296   */\n      tag_211\n        /* \"#utility.yul\":14289:14295   */\n      dup5\n        /* \"#utility.yul\":14284:14287   */\n      dup3\n        /* \"#utility.yul\":14279:14282   */\n      dup6\n        /* \"#utility.yul\":14244:14296   */\n      tag_40\n      jump\t// in\n    tag_211:\n        /* \"#utility.yul\":13963:14302   */\n      pop\n        /* \"#utility.yul\":13868:14302   */\n      swap4\n      swap3\n      pop\n      pop\n      pop\n      jump\t// out\n        /* \"#utility.yul\":14322:14677   */\n    tag_64:\n        /* \"#utility.yul\":14389:14394   */\n      0x00\n        /* \"#utility.yul\":14438:14441   */\n      dup3\n        /* \"#utility.yul\":14431:14435   */\n      0x1f\n        /* \"#utility.yul\":14423:14429   */\n      dup4\n        /* \"#utility.yul\":14419:14436   */\n      add\n        /* \"#utility.yul\":14415:14442   */\n      slt\n        /* \"#utility.yul\":14405:14527   */\n      tag_213\n      jumpi\n        /* \"#utility.yul\":14446:14525   */\n      tag_214\n      tag_25\n      jump\t// in\n    tag_214:\n        /* \"#utility.yul\":14405:14527   */\n    tag_213:\n        /* \"#utility.yul\":14556:14562   */\n      dup2\n        /* \"#utility.yul\":14550:14563   */\n      mload\n        /* \"#utility.yul\":14581:14671   */\n      tag_215\n        /* \"#utility.yul\":14667:14670   */\n      dup5\n        /* \"#utility.yul\":14659:14665   */\n      dup3\n        /* \"#utility.yul\":14652:14656   */\n      0x20\n        /* \"#utility.yul\":14644:14650   */\n      dup7\n        /* \"#utility.yul\":14640:14657   */\n      add\n        /* \"#utility.yul\":14581:14671   */\n      tag_63\n      jump\t// in\n    tag_215:\n        /* \"#utility.yul\":14572:14671   */\n      swap2\n      pop\n        /* \"#utility.yul\":14395:14677   */\n      pop\n        /* \"#utility.yul\":14322:14677   */\n      swap3\n      swap2\n      pop\n      pop\n      jump\t// out\n        /* \"#utility.yul\":14683:14826   */\n    tag_65:\n        /* \"#utility.yul\":14740:14745   */\n      0x00\n        /* \"#utility.yul\":14771:14777   */\n      dup2\n        /* \"#utility.yul\":14765:14778   */\n      mload\n        /* \"#utility.yul\":14756:14778   */\n      swap1\n      pop\n        /* \"#utility.yul\":14787:14820   */\n      tag_217\n        /* \"#utility.yul\":14814:14819   */\n      dup2\n        /* \"#utility.yul\":14787:14820   */\n      tag_55\n      jump\t// in\n    tag_217:\n        /* \"#utility.yul\":14683:14826   */\n      swap3\n      swap2\n      pop\n      pop\n      jump\t// out\n        /* \"#utility.yul\":14867:15976   */\n    tag_66:\n        /* \"#utility.yul\":14950:14955   */\n      0x00\n        /* \"#utility.yul\":14994:14998   */\n      0x60\n        /* \"#utility.yul\":14982:14991   */\n      dup3\n        /* \"#utility.yul\":14977:14980   */\n      dup5\n        /* \"#utility.yul\":14973:14992   */\n      sub\n        /* \"#utility.yul\":14969:14999   */\n      slt\n        /* \"#utility.yul\":14966:15083   */\n      iszero\n      tag_219\n      jumpi\n        /* \"#utility.yul\":15002:15081   */\n      tag_220\n      tag_50\n      jump\t// in\n    tag_220:\n        /* \"#utility.yul\":14966:15083   */\n    tag_219:\n        /* \"#utility.yul\":15101:15122   */\n      tag_221\n        /* \"#utility.yul\":15117:15121   */\n      0x60\n        /* \"#utility.yul\":15101:15122   */\n      tag_30\n      jump\t// in\n    tag_221:\n        /* \"#utility.yul\":15092:15122   */\n      swap1\n      pop\n        /* \"#utility.yul\":15205:15206   */\n      0x00\n        /* \"#utility.yul\":15194:15203   */\n      dup3\n        /* \"#utility.yul\":15190:15207   */\n      add\n        /* \"#utility.yul\":15184:15208   */\n      mload\n        /* \"#utility.yul\":15235:15253   */\n      0xffffffffffffffff\n        /* \"#utility.yul\":15227:15233   */\n      dup2\n        /* \"#utility.yul\":15224:15254   */\n      gt\n        /* \"#utility.yul\":15221:15338   */\n      iszero\n      tag_222\n      jumpi\n        /* \"#utility.yul\":15257:15336   */\n      tag_223\n      tag_51\n      jump\t// in\n    tag_223:\n        /* \"#utility.yul\":15221:15338   */\n    tag_222:\n        /* \"#utility.yul\":15377:15447   */\n      tag_224\n        /* \"#utility.yul\":15443:15446   */\n      dup5\n        /* \"#utility.yul\":15434:15440   */\n      dup3\n        /* \"#utility.yul\":15423:15432   */\n      dup6\n        /* \"#utility.yul\":15419:15441   */\n      add\n        /* \"#utility.yul\":15377:15447   */\n      tag_64\n      jump\t// in\n    tag_224:\n        /* \"#utility.yul\":15370:15374   */\n      0x00\n        /* \"#utility.yul\":15363:15368   */\n      dup4\n        /* \"#utility.yul\":15359:15375   */\n      add\n        /* \"#utility.yul\":15352:15448   */\n      mstore\n        /* \"#utility.yul\":15132:15459   */\n      pop\n        /* \"#utility.yul\":15519:15521   */\n      0x20\n        /* \"#utility.yul\":15560:15620   */\n      tag_225\n        /* \"#utility.yul\":15616:15619   */\n      dup5\n        /* \"#utility.yul\":15607:15613   */\n      dup3\n        /* \"#utility.yul\":15596:15605   */\n      dup6\n        /* \"#utility.yul\":15592:15614   */\n      add\n        /* \"#utility.yul\":15560:15620   */\n      tag_65\n      jump\t// in\n    tag_225:\n        /* \"#utility.yul\":15553:15557   */\n      0x20\n        /* \"#utility.yul\":15546:15551   */\n      dup4\n        /* \"#utility.yul\":15542:15558   */\n      add\n        /* \"#utility.yul\":15535:15621   */\n      mstore\n        /* \"#utility.yul\":15469:15632   */\n      pop\n        /* \"#utility.yul\":15714:15716   */\n      0x40\n        /* \"#utility.yul\":15703:15712   */\n      dup3\n        /* \"#utility.yul\":15699:15717   */\n      add\n        /* \"#utility.yul\":15693:15718   */\n      mload\n        /* \"#utility.yul\":15745:15763   */\n      0xffffffffffffffff\n        /* \"#utility.yul\":15737:15743   */\n      dup2\n        /* \"#utility.yul\":15734:15764   */\n      gt\n        /* \"#utility.yul\":15731:15848   */\n      iszero\n      tag_226\n      jumpi\n        /* \"#utility.yul\":15767:15846   */\n      tag_227\n      tag_51\n      jump\t// in\n    tag_227:\n        /* \"#utility.yul\":15731:15848   */\n    tag_226:\n        /* \"#utility.yul\":15887:15957   */\n      tag_228\n        /* \"#utility.yul\":15953:15956   */\n      dup5\n        /* \"#utility.yul\":15944:15950   */\n      dup3\n        /* \"#utility.yul\":15933:15942   */\n      dup6\n        /* \"#utility.yul\":15929:15951   */\n      add\n        /* \"#utility.yul\":15887:15957   */\n      tag_64\n      jump\t// in\n    tag_228:\n        /* \"#utility.yul\":15880:15884   */\n      0x40\n        /* \"#utility.yul\":15873:15878   */\n      dup4\n        /* \"#utility.yul\":15869:15885   */\n      add\n        /* \"#utility.yul\":15862:15958   */\n      mstore\n        /* \"#utility.yul\":15642:15969   */\n      pop\n        /* \"#utility.yul\":14867:15976   */\n      swap3\n      swap2\n      pop\n      pop\n      jump\t// out\n        /* \"#utility.yul\":16019:17018   */\n    tag_67:\n        /* \"#utility.yul\":16149:16154   */\n      0x00\n        /* \"#utility.yul\":16174:16278   */\n      tag_230\n        /* \"#utility.yul\":16190:16277   */\n      tag_231\n        /* \"#utility.yul\":16270:16276   */\n      dup5\n        /* \"#utility.yul\":16190:16277   */\n      tag_48\n      jump\t// in\n    tag_231:\n        /* \"#utility.yul\":16174:16278   */\n      tag_30\n      jump\t// in\n    tag_230:\n        /* \"#utility.yul\":16165:16278   */\n      swap1\n      pop\n        /* \"#utility.yul\":16298:16303   */\n      dup1\n        /* \"#utility.yul\":16327:16333   */\n      dup4\n        /* \"#utility.yul\":16320:16325   */\n      dup3\n        /* \"#utility.yul\":16313:16334   */\n      mstore\n        /* \"#utility.yul\":16361:16365   */\n      0x20\n        /* \"#utility.yul\":16354:16359   */\n      dup3\n        /* \"#utility.yul\":16350:16366   */\n      add\n        /* \"#utility.yul\":16343:16366   */\n      swap1\n      pop\n        /* \"#utility.yul\":16414:16418   */\n      0x20\n        /* \"#utility.yul\":16406:16412   */\n      dup5\n        /* \"#utility.yul\":16402:16419   */\n      mul\n        /* \"#utility.yul\":16394:16400   */\n      dup4\n        /* \"#utility.yul\":16390:16420   */\n      add\n        /* \"#utility.yul\":16443:16446   */\n      dup6\n        /* \"#utility.yul\":16435:16441   */\n      dup2\n        /* \"#utility.yul\":16432:16447   */\n      gt\n        /* \"#utility.yul\":16429:16551   */\n      iszero\n      tag_232\n      jumpi\n        /* \"#utility.yul\":16462:16541   */\n      tag_233\n      tag_49\n      jump\t// in\n    tag_233:\n        /* \"#utility.yul\":16429:16551   */\n    tag_232:\n        /* \"#utility.yul\":16577:16583   */\n      dup4\n        /* \"#utility.yul\":16560:17012   */\n    tag_234:\n        /* \"#utility.yul\":16594:16600   */\n      dup2\n        /* \"#utility.yul\":16589:16592   */\n      dup2\n        /* \"#utility.yul\":16586:16601   */\n      lt\n        /* \"#utility.yul\":16560:17012   */\n      iszero\n      tag_236\n      jumpi\n        /* \"#utility.yul\":16676:16679   */\n      dup1\n        /* \"#utility.yul\":16670:16680   */\n      mload\n        /* \"#utility.yul\":16712:16730   */\n      0xffffffffffffffff\n        /* \"#utility.yul\":16699:16710   */\n      dup2\n        /* \"#utility.yul\":16696:16731   */\n      gt\n        /* \"#utility.yul\":16693:16815   */\n      iszero\n      tag_237\n      jumpi\n        /* \"#utility.yul\":16734:16813   */\n      tag_238\n      tag_25\n      jump\t// in\n    tag_238:\n        /* \"#utility.yul\":16693:16815   */\n    tag_237:\n        /* \"#utility.yul\":16858:16869   */\n      dup1\n        /* \"#utility.yul\":16850:16856   */\n      dup7\n        /* \"#utility.yul\":16846:16870   */\n      add\n        /* \"#utility.yul\":16896:16967   */\n      tag_239\n        /* \"#utility.yul\":16963:16966   */\n      dup10\n        /* \"#utility.yul\":16951:16961   */\n      dup3\n        /* \"#utility.yul\":16896:16967   */\n      tag_66\n      jump\t// in\n    tag_239:\n        /* \"#utility.yul\":16891:16894   */\n      dup6\n        /* \"#utility.yul\":16884:16968   */\n      mstore\n        /* \"#utility.yul\":16997:17001   */\n      0x20\n        /* \"#utility.yul\":16992:16995   */\n      dup6\n        /* \"#utility.yul\":16988:17002   */\n      add\n        /* \"#utility.yul\":16981:17002   */\n      swap5\n      pop\n        /* \"#utility.yul\":16636:17012   */\n      pop\n      pop\n        /* \"#utility.yul\":16620:16624   */\n      0x20\n        /* \"#utility.yul\":16615:16618   */\n      dup2\n        /* \"#utility.yul\":16611:16625   */\n      add\n        /* \"#utility.yul\":16604:16625   */\n      swap1\n      pop\n        /* \"#utility.yul\":16560:17012   */\n      jump(tag_234)\n    tag_236:\n        /* \"#utility.yul\":16564:16585   */\n      pop\n        /* \"#utility.yul\":16155:17018   */\n      pop\n      pop\n        /* \"#utility.yul\":16019:17018   */\n      swap4\n      swap3\n      pop\n      pop\n      pop\n      jump\t// out\n        /* \"#utility.yul\":17061:17492   */\n    tag_68:\n        /* \"#utility.yul\":17166:17171   */\n      0x00\n        /* \"#utility.yul\":17215:17218   */\n      dup3\n        /* \"#utility.yul\":17208:17212   */\n      0x1f\n        /* \"#utility.yul\":17200:17206   */\n      dup4\n        /* \"#utility.yul\":17196:17213   */\n      add\n        /* \"#utility.yul\":17192:17219   */\n      slt\n        /* \"#utility.yul\":17182:17304   */\n      tag_241\n      jumpi\n        /* \"#utility.yul\":17223:17302   */\n      tag_242\n      tag_25\n      jump\t// in\n    tag_242:\n        /* \"#utility.yul\":17182:17304   */\n    tag_241:\n        /* \"#utility.yul\":17333:17339   */\n      dup2\n        /* \"#utility.yul\":17327:17340   */\n      mload\n        /* \"#utility.yul\":17358:17486   */\n      tag_243\n        /* \"#utility.yul\":17482:17485   */\n      dup5\n        /* \"#utility.yul\":17474:17480   */\n      dup3\n        /* \"#utility.yul\":17467:17471   */\n      0x20\n        /* \"#utility.yul\":17459:17465   */\n      dup7\n        /* \"#utility.yul\":17455:17472   */\n      add\n        /* \"#utility.yul\":17358:17486   */\n      tag_67\n      jump\t// in\n    tag_243:\n        /* \"#utility.yul\":17349:17486   */\n      swap2\n      pop\n        /* \"#utility.yul\":17172:17492   */\n      pop\n        /* \"#utility.yul\":17061:17492   */\n      swap3\n      swap2\n      pop\n      pop\n      jump\t// out\n        /* \"#utility.yul\":17498:18098   */\n    tag_19:\n        /* \"#utility.yul\":17616:17622   */\n      0x00\n        /* \"#utility.yul\":17665:17667   */\n      0x20\n        /* \"#utility.yul\":17653:17662   */\n      dup3\n        /* \"#utility.yul\":17644:17651   */\n      dup5\n        /* \"#utility.yul\":17640:17663   */\n      sub\n        /* \"#utility.yul\":17636:17668   */\n      slt\n        /* \"#utility.yul\":17633:17752   */\n      iszero\n      tag_245\n      jumpi\n        /* \"#utility.yul\":17671:17750   */\n      tag_246\n      tag_23\n      jump\t// in\n    tag_246:\n        /* \"#utility.yul\":17633:17752   */\n    tag_245:\n        /* \"#utility.yul\":17812:17813   */\n      0x00\n        /* \"#utility.yul\":17801:17810   */\n      dup3\n        /* \"#utility.yul\":17797:17814   */\n      add\n        /* \"#utility.yul\":17791:17815   */\n      mload\n        /* \"#utility.yul\":17842:17860   */\n      0xffffffffffffffff\n        /* \"#utility.yul\":17834:17840   */\n      dup2\n        /* \"#utility.yul\":17831:17861   */\n      gt\n        /* \"#utility.yul\":17828:17945   */\n      iszero\n      tag_247\n      jumpi\n        /* \"#utility.yul\":17864:17943   */\n      tag_248\n      tag_24\n      jump\t// in\n    tag_248:\n        /* \"#utility.yul\":17828:17945   */\n    tag_247:\n        /* \"#utility.yul\":17969:18081   */\n      tag_249\n        /* \"#utility.yul\":18073:18080   */\n      dup5\n        /* \"#utility.yul\":18064:18070   */\n      dup3\n        /* \"#utility.yul\":18053:18062   */\n      dup6\n        /* \"#utility.yul\":18049:18071   */\n      add\n        /* \"#utility.yul\":17969:18081   */\n      tag_68\n      jump\t// in\n    tag_249:\n        /* \"#utility.yul\":17959:18081   */\n      swap2\n      pop\n        /* \"#utility.yul\":17762:18091   */\n      pop\n        /* \"#utility.yul\":17498:18098   */\n      swap3\n      swap2\n      pop\n      pop\n      jump\t// out\n\n    auxdata: 0xa264697066735822122074600e988b8d992e61f623564df960fd42abd3f2730e0cbaf79c087f98b1340764736f6c63430008140033\n}\n",
				"bytecode": {
					"linkReferences": {},
					"object": "608060405234801561000f575f80fd5b506109828061001d5f395ff3fe608060405234801561000f575f80fd5b5060043610610034575f3560e01c806339571443146100385780633ad9a9bb14610068575b5f80fd5b610052600480360381019061004d919061022b565b610098565b60405161005f9190610413565b60405180910390f35b610082600480360381019061007d919061067e565b6100b5565b60405161008f9190610717565b60405180910390f35b6060818060200190518101906100ae9190610905565b9050919050565b6060816040516020016100c89190610413565b6040516020818303038152906040529050919050565b5f604051905090565b5f80fd5b5f80fd5b5f80fd5b5f80fd5b5f601f19601f8301169050919050565b7f4e487b71000000000000000000000000000000000000000000000000000000005f52604160045260245ffd5b61013d826100f7565b810181811067ffffffffffffffff8211171561015c5761015b610107565b5b80604052505050565b5f61016e6100de565b905061017a8282610134565b919050565b5f67ffffffffffffffff82111561019957610198610107565b5b6101a2826100f7565b9050602081019050919050565b828183375f83830152505050565b5f6101cf6101ca8461017f565b610165565b9050828152602081018484840111156101eb576101ea6100f3565b5b6101f68482856101af565b509392505050565b5f82601f830112610212576102116100ef565b5b81356102228482602086016101bd565b91505092915050565b5f602082840312156102405761023f6100e7565b5b5f82013567ffffffffffffffff81111561025d5761025c6100eb565b5b610269848285016101fe565b91505092915050565b5f81519050919050565b5f82825260208201905092915050565b5f819050602082019050919050565b5f81519050919050565b5f82825260208201905092915050565b5f5b838110156102d25780820151818401526020810190506102b7565b5f8484015250505050565b5f6102e78261029b565b6102f181856102a5565b93506103018185602086016102b5565b61030a816100f7565b840191505092915050565b5f819050919050565b61032781610315565b82525050565b5f606083015f8301518482035f86015261034782826102dd565b915050602083015161035c602086018261031e565b506040830151848203604086015261037482826102dd565b9150508091505092915050565b5f61038c838361032d565b905092915050565b5f602082019050919050565b5f6103aa82610272565b6103b4818561027c565b9350836020820285016103c68561028c565b805f5b8581101561040157848403895281516103e28582610381565b94506103ed83610394565b925060208a019950506001810190506103c9565b50829750879550505050505092915050565b5f6020820190508181035f83015261042b81846103a0565b905092915050565b5f67ffffffffffffffff82111561044d5761044c610107565b5b602082029050602081019050919050565b5f80fd5b5f80fd5b5f80fd5b5f67ffffffffffffffff82111561048457610483610107565b5b61048d826100f7565b9050602081019050919050565b5f6104ac6104a78461046a565b610165565b9050828152602081018484840111156104c8576104c76100f3565b5b6104d38482856101af565b509392505050565b5f82601f8301126104ef576104ee6100ef565b5b81356104ff84826020860161049a565b91505092915050565b61051181610315565b811461051b575f80fd5b50565b5f8135905061052c81610508565b92915050565b5f6060828403121561054757610546610462565b5b6105516060610165565b90505f82013567ffffffffffffffff8111156105705761056f610466565b5b61057c848285016104db565b5f83015250602061058f8482850161051e565b602083015250604082013567ffffffffffffffff8111156105b3576105b2610466565b5b6105bf848285016104db565b60408301525092915050565b5f6105dd6105d884610433565b610165565b90508083825260208201905060208402830185811115610600576105ff61045e565b5b835b8181101561064757803567ffffffffffffffff811115610625576106246100ef565b5b8086016106328982610532565b85526020850194505050602081019050610602565b5050509392505050565b5f82601f830112610665576106646100ef565b5b81356106758482602086016105cb565b91505092915050565b5f60208284031215610693576106926100e7565b5b5f82013567ffffffffffffffff8111156106b0576106af6100eb565b5b6106bc84828501610651565b91505092915050565b5f81519050919050565b5f82825260208201905092915050565b5f6106e9826106c5565b6106f381856106cf565b93506107038185602086016102b5565b61070c816100f7565b840191505092915050565b5f6020820190508181035f83015261072f81846106df565b905092915050565b5f6107496107448461046a565b610165565b905082815260208101848484011115610765576107646100f3565b5b6107708482856102b5565b509392505050565b5f82601f83011261078c5761078b6100ef565b5b815161079c848260208601610737565b91505092915050565b5f815190506107b381610508565b92915050565b5f606082840312156107ce576107cd610462565b5b6107d86060610165565b90505f82015167ffffffffffffffff8111156107f7576107f6610466565b5b61080384828501610778565b5f830152506020610816848285016107a5565b602083015250604082015167ffffffffffffffff81111561083a57610839610466565b5b61084684828501610778565b60408301525092915050565b5f61086461085f84610433565b610165565b905080838252602082019050602084028301858111156108875761088661045e565b5b835b818110156108ce57805167ffffffffffffffff8111156108ac576108ab6100ef565b5b8086016108b989826107b9565b85526020850194505050602081019050610889565b5050509392505050565b5f82601f8301126108ec576108eb6100ef565b5b81516108fc848260208601610852565b91505092915050565b5f6020828403121561091a576109196100e7565b5b5f82015167ffffffffffffffff811115610937576109366100eb565b5b610943848285016108d8565b9150509291505056fea264697066735822122074600e988b8d992e61f623564df960fd42abd3f2730e0cbaf79c087f98b1340764736f6c63430008140033",
					"opcodes": "PUSH1 0x80 PUSH1 0x40 MSTORE CALLVALUE DUP1 ISZERO PUSH2 0xF JUMPI PUSH0 DUP1 REVERT JUMPDEST POP PUSH2 0x982 DUP1 PUSH2 0x1D PUSH0 CODECOPY PUSH0 RETURN INVALID PUSH1 0x80 PUSH1 0x40 MSTORE CALLVALUE DUP1 ISZERO PUSH2 0xF JUMPI PUSH0 DUP1 REVERT JUMPDEST POP PUSH1 0x4 CALLDATASIZE LT PUSH2 0x34 JUMPI PUSH0 CALLDATALOAD PUSH1 0xE0 SHR DUP1 PUSH4 0x39571443 EQ PUSH2 0x38 JUMPI DUP1 PUSH4 0x3AD9A9BB EQ PUSH2 0x68 JUMPI JUMPDEST PUSH0 DUP1 REVERT JUMPDEST PUSH2 0x52 PUSH1 0x4 DUP1 CALLDATASIZE SUB DUP2 ADD SWAP1 PUSH2 0x4D SWAP2 SWAP1 PUSH2 0x22B JUMP JUMPDEST PUSH2 0x98 JUMP JUMPDEST PUSH1 0x40 MLOAD PUSH2 0x5F SWAP2 SWAP1 PUSH2 0x413 JUMP JUMPDEST PUSH1 0x40 MLOAD DUP1 SWAP2 SUB SWAP1 RETURN JUMPDEST PUSH2 0x82 PUSH1 0x4 DUP1 CALLDATASIZE SUB DUP2 ADD SWAP1 PUSH2 0x7D SWAP2 SWAP1 PUSH2 0x67E JUMP JUMPDEST PUSH2 0xB5 JUMP JUMPDEST PUSH1 0x40 MLOAD PUSH2 0x8F SWAP2 SWAP1 PUSH2 0x717 JUMP JUMPDEST PUSH1 0x40 MLOAD DUP1 SWAP2 SUB SWAP1 RETURN JUMPDEST PUSH1 0x60 DUP2 DUP1 PUSH1 0x20 ADD SWAP1 MLOAD DUP2 ADD SWAP1 PUSH2 0xAE SWAP2 SWAP1 PUSH2 0x905 JUMP JUMPDEST SWAP1 POP SWAP2 SWAP1 POP JUMP JUMPDEST PUSH1 0x60 DUP2 PUSH1 0x40 MLOAD PUSH1 0x20 ADD PUSH2 0xC8 SWAP2 SWAP1 PUSH2 0x413 JUMP JUMPDEST PUSH1 0x40 MLOAD PUSH1 0x20 DUP2 DUP4 SUB SUB DUP2 MSTORE SWAP1 PUSH1 0x40 MSTORE SWAP1 POP SWAP2 SWAP1 POP JUMP JUMPDEST PUSH0 PUSH1 0x40 MLOAD SWAP1 POP SWAP1 JUMP JUMPDEST PUSH0 DUP1 REVERT JUMPDEST PUSH0 DUP1 REVERT JUMPDEST PUSH0 DUP1 REVERT JUMPDEST PUSH0 DUP1 REVERT JUMPDEST PUSH0 PUSH1 0x1F NOT PUSH1 0x1F DUP4 ADD AND SWAP1 POP SWAP2 SWAP1 POP JUMP JUMPDEST PUSH32 0x4E487B7100000000000000000000000000000000000000000000000000000000 PUSH0 MSTORE PUSH1 0x41 PUSH1 0x4 MSTORE PUSH1 0x24 PUSH0 REVERT JUMPDEST PUSH2 0x13D DUP3 PUSH2 0xF7 JUMP JUMPDEST DUP2 ADD DUP2 DUP2 LT PUSH8 0xFFFFFFFFFFFFFFFF DUP3 GT OR ISZERO PUSH2 0x15C JUMPI PUSH2 0x15B PUSH2 0x107 JUMP JUMPDEST JUMPDEST DUP1 PUSH1 0x40 MSTORE POP POP POP JUMP JUMPDEST PUSH0 PUSH2 0x16E PUSH2 0xDE JUMP JUMPDEST SWAP1 POP PUSH2 0x17A DUP3 DUP3 PUSH2 0x134 JUMP JUMPDEST SWAP2 SWAP1 POP JUMP JUMPDEST PUSH0 PUSH8 0xFFFFFFFFFFFFFFFF DUP3 GT ISZERO PUSH2 0x199 JUMPI PUSH2 0x198 PUSH2 0x107 JUMP JUMPDEST JUMPDEST PUSH2 0x1A2 DUP3 PUSH2 0xF7 JUMP JUMPDEST SWAP1 POP PUSH1 0x20 DUP2 ADD SWAP1 POP SWAP2 SWAP1 POP JUMP JUMPDEST DUP3 DUP2 DUP4 CALLDATACOPY PUSH0 DUP4 DUP4 ADD MSTORE POP POP POP JUMP JUMPDEST PUSH0 PUSH2 0x1CF PUSH2 0x1CA DUP5 PUSH2 0x17F JUMP JUMPDEST PUSH2 0x165 JUMP JUMPDEST SWAP1 POP DUP3 DUP2 MSTORE PUSH1 0x20 DUP2 ADD DUP5 DUP5 DUP5 ADD GT ISZERO PUSH2 0x1EB JUMPI PUSH2 0x1EA PUSH2 0xF3 JUMP JUMPDEST JUMPDEST PUSH2 0x1F6 DUP5 DUP3 DUP6 PUSH2 0x1AF JUMP JUMPDEST POP SWAP4 SWAP3 POP POP POP JUMP JUMPDEST PUSH0 DUP3 PUSH1 0x1F DUP4 ADD SLT PUSH2 0x212 JUMPI PUSH2 0x211 PUSH2 0xEF JUMP JUMPDEST JUMPDEST DUP2 CALLDATALOAD PUSH2 0x222 DUP5 DUP3 PUSH1 0x20 DUP7 ADD PUSH2 0x1BD JUMP JUMPDEST SWAP2 POP POP SWAP3 SWAP2 POP POP JUMP JUMPDEST PUSH0 PUSH1 0x20 DUP3 DUP5 SUB SLT ISZERO PUSH2 0x240 JUMPI PUSH2 0x23F PUSH2 0xE7 JUMP JUMPDEST JUMPDEST PUSH0 DUP3 ADD CALLDATALOAD PUSH8 0xFFFFFFFFFFFFFFFF DUP2 GT ISZERO PUSH2 0x25D JUMPI PUSH2 0x25C PUSH2 0xEB JUMP JUMPDEST JUMPDEST PUSH2 0x269 DUP5 DUP3 DUP6 ADD PUSH2 0x1FE JUMP JUMPDEST SWAP2 POP POP SWAP3 SWAP2 POP POP JUMP JUMPDEST PUSH0 DUP2 MLOAD SWAP1 POP SWAP2 SWAP1 POP JUMP JUMPDEST PUSH0 DUP3 DUP3 MSTORE PUSH1 0x20 DUP3 ADD SWAP1 POP SWAP3 SWAP2 POP POP JUMP JUMPDEST PUSH0 DUP2 SWAP1 POP PUSH1 0x20 DUP3 ADD SWAP1 POP SWAP2 SWAP1 POP JUMP JUMPDEST PUSH0 DUP2 MLOAD SWAP1 POP SWAP2 SWAP1 POP JUMP JUMPDEST PUSH0 DUP3 DUP3 MSTORE PUSH1 0x20 DUP3 ADD SWAP1 POP SWAP3 SWAP2 POP POP JUMP JUMPDEST PUSH0 JUMPDEST DUP4 DUP2 LT ISZERO PUSH2 0x2D2 JUMPI DUP1 DUP3 ADD MLOAD DUP2 DUP5 ADD MSTORE PUSH1 0x20 DUP2 ADD SWAP1 POP PUSH2 0x2B7 JUMP JUMPDEST PUSH0 DUP5 DUP5 ADD MSTORE POP POP POP POP JUMP JUMPDEST PUSH0 PUSH2 0x2E7 DUP3 PUSH2 0x29B JUMP JUMPDEST PUSH2 0x2F1 DUP2 DUP6 PUSH2 0x2A5 JUMP JUMPDEST SWAP4 POP PUSH2 0x301 DUP2 DUP6 PUSH1 0x20 DUP7 ADD PUSH2 0x2B5 JUMP JUMPDEST PUSH2 0x30A DUP2 PUSH2 0xF7 JUMP JUMPDEST DUP5 ADD SWAP2 POP POP SWAP3 SWAP2 POP POP JUMP JUMPDEST PUSH0 DUP2 SWAP1 POP SWAP2 SWAP1 POP JUMP JUMPDEST PUSH2 0x327 DUP2 PUSH2 0x315 JUMP JUMPDEST DUP3 MSTORE POP POP JUMP JUMPDEST PUSH0 PUSH1 0x60 DUP4 ADD PUSH0 DUP4 ADD MLOAD DUP5 DUP3 SUB PUSH0 DUP7 ADD MSTORE PUSH2 0x347 DUP3 DUP3 PUSH2 0x2DD JUMP JUMPDEST SWAP2 POP POP PUSH1 0x20 DUP4 ADD MLOAD PUSH2 0x35C PUSH1 0x20 DUP7 ADD DUP3 PUSH2 0x31E JUMP JUMPDEST POP PUSH1 0x40 DUP4 ADD MLOAD DUP5 DUP3 SUB PUSH1 0x40 DUP7 ADD MSTORE PUSH2 0x374 DUP3 DUP3 PUSH2 0x2DD JUMP JUMPDEST SWAP2 POP POP DUP1 SWAP2 POP POP SWAP3 SWAP2 POP POP JUMP JUMPDEST PUSH0 PUSH2 0x38C DUP4 DUP4 PUSH2 0x32D JUMP JUMPDEST SWAP1 POP SWAP3 SWAP2 POP POP JUMP JUMPDEST PUSH0 PUSH1 0x20 DUP3 ADD SWAP1 POP SWAP2 SWAP1 POP JUMP JUMPDEST PUSH0 PUSH2 0x3AA DUP3 PUSH2 0x272 JUMP JUMPDEST PUSH2 0x3B4 DUP2 DUP6 PUSH2 0x27C JUMP JUMPDEST SWAP4 POP DUP4 PUSH1 0x20 DUP3 MUL DUP6 ADD PUSH2 0x3C6 DUP6 PUSH2 0x28C JUMP JUMPDEST DUP1 PUSH0 JUMPDEST DUP6 DUP2 LT ISZERO PUSH2 0x401 JUMPI DUP5 DUP5 SUB DUP10 MSTORE DUP2 MLOAD PUSH2 0x3E2 DUP6 DUP3 PUSH2 0x381 JUMP JUMPDEST SWAP5 POP PUSH2 0x3ED DUP4 PUSH2 0x394 JUMP JUMPDEST SWAP3 POP PUSH1 0x20 DUP11 ADD SWAP10 POP POP PUSH1 0x1 DUP2 ADD SWAP1 POP PUSH2 0x3C9 JUMP JUMPDEST POP DUP3 SWAP8 POP DUP8 SWAP6 POP POP POP POP POP POP SWAP3 SWAP2 POP POP JUMP JUMPDEST PUSH0 PUSH1 0x20 DUP3 ADD SWAP1 POP DUP2 DUP2 SUB PUSH0 DUP4 ADD MSTORE PUSH2 0x42B DUP2 DUP5 PUSH2 0x3A0 JUMP JUMPDEST SWAP1 POP SWAP3 SWAP2 POP POP JUMP JUMPDEST PUSH0 PUSH8 0xFFFFFFFFFFFFFFFF DUP3 GT ISZERO PUSH2 0x44D JUMPI PUSH2 0x44C PUSH2 0x107 JUMP JUMPDEST JUMPDEST PUSH1 0x20 DUP3 MUL SWAP1 POP PUSH1 0x20 DUP2 ADD SWAP1 POP SWAP2 SWAP1 POP JUMP JUMPDEST PUSH0 DUP1 REVERT JUMPDEST PUSH0 DUP1 REVERT JUMPDEST PUSH0 DUP1 REVERT JUMPDEST PUSH0 PUSH8 0xFFFFFFFFFFFFFFFF DUP3 GT ISZERO PUSH2 0x484 JUMPI PUSH2 0x483 PUSH2 0x107 JUMP JUMPDEST JUMPDEST PUSH2 0x48D DUP3 PUSH2 0xF7 JUMP JUMPDEST SWAP1 POP PUSH1 0x20 DUP2 ADD SWAP1 POP SWAP2 SWAP1 POP JUMP JUMPDEST PUSH0 PUSH2 0x4AC PUSH2 0x4A7 DUP5 PUSH2 0x46A JUMP JUMPDEST PUSH2 0x165 JUMP JUMPDEST SWAP1 POP DUP3 DUP2 MSTORE PUSH1 0x20 DUP2 ADD DUP5 DUP5 DUP5 ADD GT ISZERO PUSH2 0x4C8 JUMPI PUSH2 0x4C7 PUSH2 0xF3 JUMP JUMPDEST JUMPDEST PUSH2 0x4D3 DUP5 DUP3 DUP6 PUSH2 0x1AF JUMP JUMPDEST POP SWAP4 SWAP3 POP POP POP JUMP JUMPDEST PUSH0 DUP3 PUSH1 0x1F DUP4 ADD SLT PUSH2 0x4EF JUMPI PUSH2 0x4EE PUSH2 0xEF JUMP JUMPDEST JUMPDEST DUP2 CALLDATALOAD PUSH2 0x4FF DUP5 DUP3 PUSH1 0x20 DUP7 ADD PUSH2 0x49A JUMP JUMPDEST SWAP2 POP POP SWAP3 SWAP2 POP POP JUMP JUMPDEST PUSH2 0x511 DUP2 PUSH2 0x315 JUMP JUMPDEST DUP2 EQ PUSH2 0x51B JUMPI PUSH0 DUP1 REVERT JUMPDEST POP JUMP JUMPDEST PUSH0 DUP2 CALLDATALOAD SWAP1 POP PUSH2 0x52C DUP2 PUSH2 0x508 JUMP JUMPDEST SWAP3 SWAP2 POP POP JUMP JUMPDEST PUSH0 PUSH1 0x60 DUP3 DUP5 SUB SLT ISZERO PUSH2 0x547 JUMPI PUSH2 0x546 PUSH2 0x462 JUMP JUMPDEST JUMPDEST PUSH2 0x551 PUSH1 0x60 PUSH2 0x165 JUMP JUMPDEST SWAP1 POP PUSH0 DUP3 ADD CALLDATALOAD PUSH8 0xFFFFFFFFFFFFFFFF DUP2 GT ISZERO PUSH2 0x570 JUMPI PUSH2 0x56F PUSH2 0x466 JUMP JUMPDEST JUMPDEST PUSH2 0x57C DUP5 DUP3 DUP6 ADD PUSH2 0x4DB JUMP JUMPDEST PUSH0 DUP4 ADD MSTORE POP PUSH1 0x20 PUSH2 0x58F DUP5 DUP3 DUP6 ADD PUSH2 0x51E JUMP JUMPDEST PUSH1 0x20 DUP4 ADD MSTORE POP PUSH1 0x40 DUP3 ADD CALLDATALOAD PUSH8 0xFFFFFFFFFFFFFFFF DUP2 GT ISZERO PUSH2 0x5B3 JUMPI PUSH2 0x5B2 PUSH2 0x466 JUMP JUMPDEST JUMPDEST PUSH2 0x5BF DUP5 DUP3 DUP6 ADD PUSH2 0x4DB JUMP JUMPDEST PUSH1 0x40 DUP4 ADD MSTORE POP SWAP3 SWAP2 POP POP JUMP JUMPDEST PUSH0 PUSH2 0x5DD PUSH2 0x5D8 DUP5 PUSH2 0x433 JUMP JUMPDEST PUSH2 0x165 JUMP JUMPDEST SWAP1 POP DUP1 DUP4 DUP3 MSTORE PUSH1 0x20 DUP3 ADD SWAP1 POP PUSH1 0x20 DUP5 MUL DUP4 ADD DUP6 DUP2 GT ISZERO PUSH2 0x600 JUMPI PUSH2 0x5FF PUSH2 0x45E JUMP JUMPDEST JUMPDEST DUP4 JUMPDEST DUP2 DUP2 LT ISZERO PUSH2 0x647 JUMPI DUP1 CALLDATALOAD PUSH8 0xFFFFFFFFFFFFFFFF DUP2 GT ISZERO PUSH2 0x625 JUMPI PUSH2 0x624 PUSH2 0xEF JUMP JUMPDEST JUMPDEST DUP1 DUP7 ADD PUSH2 0x632 DUP10 DUP3 PUSH2 0x532 JUMP JUMPDEST DUP6 MSTORE PUSH1 0x20 DUP6 ADD SWAP5 POP POP POP PUSH1 0x20 DUP2 ADD SWAP1 POP PUSH2 0x602 JUMP JUMPDEST POP POP POP SWAP4 SWAP3 POP POP POP JUMP JUMPDEST PUSH0 DUP3 PUSH1 0x1F DUP4 ADD SLT PUSH2 0x665 JUMPI PUSH2 0x664 PUSH2 0xEF JUMP JUMPDEST JUMPDEST DUP2 CALLDATALOAD PUSH2 0x675 DUP5 DUP3 PUSH1 0x20 DUP7 ADD PUSH2 0x5CB JUMP JUMPDEST SWAP2 POP POP SWAP3 SWAP2 POP POP JUMP JUMPDEST PUSH0 PUSH1 0x20 DUP3 DUP5 SUB SLT ISZERO PUSH2 0x693 JUMPI PUSH2 0x692 PUSH2 0xE7 JUMP JUMPDEST JUMPDEST PUSH0 DUP3 ADD CALLDATALOAD PUSH8 0xFFFFFFFFFFFFFFFF DUP2 GT ISZERO PUSH2 0x6B0 JUMPI PUSH2 0x6AF PUSH2 0xEB JUMP JUMPDEST JUMPDEST PUSH2 0x6BC DUP5 DUP3 DUP6 ADD PUSH2 0x651 JUMP JUMPDEST SWAP2 POP POP SWAP3 SWAP2 POP POP JUMP JUMPDEST PUSH0 DUP2 MLOAD SWAP1 POP SWAP2 SWAP1 POP JUMP JUMPDEST PUSH0 DUP3 DUP3 MSTORE PUSH1 0x20 DUP3 ADD SWAP1 POP SWAP3 SWAP2 POP POP JUMP JUMPDEST PUSH0 PUSH2 0x6E9 DUP3 PUSH2 0x6C5 JUMP JUMPDEST PUSH2 0x6F3 DUP2 DUP6 PUSH2 0x6CF JUMP JUMPDEST SWAP4 POP PUSH2 0x703 DUP2 DUP6 PUSH1 0x20 DUP7 ADD PUSH2 0x2B5 JUMP JUMPDEST PUSH2 0x70C DUP2 PUSH2 0xF7 JUMP JUMPDEST DUP5 ADD SWAP2 POP POP SWAP3 SWAP2 POP POP JUMP JUMPDEST PUSH0 PUSH1 0x20 DUP3 ADD SWAP1 POP DUP2 DUP2 SUB PUSH0 DUP4 ADD MSTORE PUSH2 0x72F DUP2 DUP5 PUSH2 0x6DF JUMP JUMPDEST SWAP1 POP SWAP3 SWAP2 POP POP JUMP JUMPDEST PUSH0 PUSH2 0x749 PUSH2 0x744 DUP5 PUSH2 0x46A JUMP JUMPDEST PUSH2 0x165 JUMP JUMPDEST SWAP1 POP DUP3 DUP2 MSTORE PUSH1 0x20 DUP2 ADD DUP5 DUP5 DUP5 ADD GT ISZERO PUSH2 0x765 JUMPI PUSH2 0x764 PUSH2 0xF3 JUMP JUMPDEST JUMPDEST PUSH2 0x770 DUP5 DUP3 DUP6 PUSH2 0x2B5 JUMP JUMPDEST POP SWAP4 SWAP3 POP POP POP JUMP JUMPDEST PUSH0 DUP3 PUSH1 0x1F DUP4 ADD SLT PUSH2 0x78C JUMPI PUSH2 0x78B PUSH2 0xEF JUMP JUMPDEST JUMPDEST DUP2 MLOAD PUSH2 0x79C DUP5 DUP3 PUSH1 0x20 DUP7 ADD PUSH2 0x737 JUMP JUMPDEST SWAP2 POP POP SWAP3 SWAP2 POP POP JUMP JUMPDEST PUSH0 DUP2 MLOAD SWAP1 POP PUSH2 0x7B3 DUP2 PUSH2 0x508 JUMP JUMPDEST SWAP3 SWAP2 POP POP JUMP JUMPDEST PUSH0 PUSH1 0x60 DUP3 DUP5 SUB SLT ISZERO PUSH2 0x7CE JUMPI PUSH2 0x7CD PUSH2 0x462 JUMP JUMPDEST JUMPDEST PUSH2 0x7D8 PUSH1 0x60 PUSH2 0x165 JUMP JUMPDEST SWAP1 POP PUSH0 DUP3 ADD MLOAD PUSH8 0xFFFFFFFFFFFFFFFF DUP2 GT ISZERO PUSH2 0x7F7 JUMPI PUSH2 0x7F6 PUSH2 0x466 JUMP JUMPDEST JUMPDEST PUSH2 0x803 DUP5 DUP3 DUP6 ADD PUSH2 0x778 JUMP JUMPDEST PUSH0 DUP4 ADD MSTORE POP PUSH1 0x20 PUSH2 0x816 DUP5 DUP3 DUP6 ADD PUSH2 0x7A5 JUMP JUMPDEST PUSH1 0x20 DUP4 ADD MSTORE POP PUSH1 0x40 DUP3 ADD MLOAD PUSH8 0xFFFFFFFFFFFFFFFF DUP2 GT ISZERO PUSH2 0x83A JUMPI PUSH2 0x839 PUSH2 0x466 JUMP JUMPDEST JUMPDEST PUSH2 0x846 DUP5 DUP3 DUP6 ADD PUSH2 0x778 JUMP JUMPDEST PUSH1 0x40 DUP4 ADD MSTORE POP SWAP3 SWAP2 POP POP JUMP JUMPDEST PUSH0 PUSH2 0x864 PUSH2 0x85F DUP5 PUSH2 0x433 JUMP JUMPDEST PUSH2 0x165 JUMP JUMPDEST SWAP1 POP DUP1 DUP4 DUP3 MSTORE PUSH1 0x20 DUP3 ADD SWAP1 POP PUSH1 0x20 DUP5 MUL DUP4 ADD DUP6 DUP2 GT ISZERO PUSH2 0x887 JUMPI PUSH2 0x886 PUSH2 0x45E JUMP JUMPDEST JUMPDEST DUP4 JUMPDEST DUP2 DUP2 LT ISZERO PUSH2 0x8CE JUMPI DUP1 MLOAD PUSH8 0xFFFFFFFFFFFFFFFF DUP2 GT ISZERO PUSH2 0x8AC JUMPI PUSH2 0x8AB PUSH2 0xEF JUMP JUMPDEST JUMPDEST DUP1 DUP7 ADD PUSH2 0x8B9 DUP10 DUP3 PUSH2 0x7B9 JUMP JUMPDEST DUP6 MSTORE PUSH1 0x20 DUP6 ADD SWAP5 POP POP POP PUSH1 0x20 DUP2 ADD SWAP1 POP PUSH2 0x889 JUMP JUMPDEST POP POP POP SWAP4 SWAP3 POP POP POP JUMP JUMPDEST PUSH0 DUP3 PUSH1 0x1F DUP4 ADD SLT PUSH2 0x8EC JUMPI PUSH2 0x8EB PUSH2 0xEF JUMP JUMPDEST JUMPDEST DUP2 MLOAD PUSH2 0x8FC DUP5 DUP3 PUSH1 0x20 DUP7 ADD PUSH2 0x852 JUMP JUMPDEST SWAP2 POP POP SWAP3 SWAP2 POP POP JUMP JUMPDEST PUSH0 PUSH1 0x20 DUP3 DUP5 SUB SLT ISZERO PUSH2 0x91A JUMPI PUSH2 0x919 PUSH2 0xE7 JUMP JUMPDEST JUMPDEST PUSH0 DUP3 ADD MLOAD PUSH8 0xFFFFFFFFFFFFFFFF DUP2 GT ISZERO PUSH2 0x937 JUMPI PUSH2 0x936 PUSH2 0xEB JUMP JUMPDEST JUMPDEST PUSH2 0x943 DUP5 DUP3 DUP6 ADD PUSH2 0x8D8 JUMP JUMPDEST SWAP2 POP POP SWAP3 SWAP2 POP POP JUMP INVALID LOG2 PUSH5 0x6970667358 0x22 SLT KECCAK256 PUSH21 0x600E988B8D992E61F623564DF960FD42ABD3F2730E 0xC 0xBA 0xF7 SWAP13 ADDMOD PUSH32 0x98B1340764736F6C634300081400330000000000000000000000000000000000 "
				},
				"gasEstimates": {
					"creation": {
						"codeDepositCost": "486800",
						"executionCost": "522",
						"totalCost": "487322"
					},
					"external": {
						"decodeLaptops(bytes)": "infinite",
						"encodeLaptops((string,uint256,string)[])": "infinite"
					}
				},
				"methodIdentifiers": {
					"decodeLaptops(bytes)": "39571443",
					"encodeLaptops((string,uint256,string)[])": "3ad9a9bb"
				}
			},
			"storageLayout": {
				"storage": [],
				"types": null
			},
			"userdoc": {
				"kind": "user",
				"methods": {},
				"version": 1
			}
		}
	}
}