{
	"Lib_Imports.sol": {
		"Explibrary": {
			"abi": [
				{
					"inputs": [
						{
							"internalType": "uint256",
							"name": "a",
							"type": "uint256"
						},
						{
							"internalType": "uint256",
							"name": "b",
							"type": "uint256"
						}
					],
					"name": "exponential",
					"outputs": [
						{
							"internalType": "uint256",
							"name": "",
							"type": "uint256"
						}
					],
					"stateMutability": "pure",
					"type": "function"
				}
			],
			"devdoc": {
				"kind": "dev",
				"methods": {},
				"version": 1
			},
			"evm": {
				"assembly": "    /* \"Lib_Imports.sol\":59:183  library Explibrary {... */\n  dataSize(sub_0)\n  dataOffset(sub_0)\n  0x0b\n  dup3\n  dup3\n  dup3\n  codecopy\n  dup1\n  mload\n  0x00\n  byte\n  0x73\n  eq\n  tag_1\n  jumpi\n  mstore(0x00, 0x4e487b7100000000000000000000000000000000000000000000000000000000)\n  mstore(0x04, 0x00)\n  revert(0x00, 0x24)\ntag_1:\n  mstore(0x00, address)\n  0x73\n  dup2\n  mstore8\n  dup3\n  dup2\n  return\nstop\n\nsub_0: assembly {\n        /* \"Lib_Imports.sol\":59:183  library Explibrary {... */\n      eq(address, deployTimeAddress())\n      mstore(0x40, 0x80)\n      jumpi(tag_1, lt(calldatasize, 0x04))\n      shr(0xe0, calldataload(0x00))\n      dup1\n      0xd9b5b5ca\n      eq\n      tag_2\n      jumpi\n    tag_1:\n      0x00\n      dup1\n      revert\n        /* \"Lib_Imports.sol\":82:180  function exponential( uint256 a, uint256 b) public pure returns... */\n    tag_2:\n      tag_3\n      0x04\n      dup1\n      calldatasize\n      sub\n      dup2\n      add\n      swap1\n      tag_4\n      swap2\n      swap1\n      tag_5\n      jump\t// in\n    tag_4:\n      tag_6\n      jump\t// in\n    tag_3:\n      mload(0x40)\n      tag_7\n      swap2\n      swap1\n      tag_8\n      jump\t// in\n    tag_7:\n      mload(0x40)\n      dup1\n      swap2\n      sub\n      swap1\n      return\n    tag_6:\n        /* \"Lib_Imports.sol\":148:155  uint256 */\n      0x00\n        /* \"Lib_Imports.sol\":173:174  b */\n      dup2\n        /* \"Lib_Imports.sol\":168:169  a */\n      dup4\n        /* \"Lib_Imports.sol\":168:174  a ** b */\n      tag_10\n      swap2\n      swap1\n      tag_11\n      jump\t// in\n    tag_10:\n        /* \"Lib_Imports.sol\":161:174  return a ** b */\n      swap1\n      pop\n        /* \"Lib_Imports.sol\":82:180  function exponential( uint256 a, uint256 b) public pure returns... */\n      swap3\n      swap2\n      pop\n      pop\n      jump\t// out\n        /* \"#utility.yul\":88:205   */\n    tag_13:\n        /* \"#utility.yul\":197:198   */\n      0x00\n        /* \"#utility.yul\":194:195   */\n      dup1\n        /* \"#utility.yul\":187:199   */\n      revert\n        /* \"#utility.yul\":334:411   */\n    tag_15:\n        /* \"#utility.yul\":371:378   */\n      0x00\n        /* \"#utility.yul\":400:405   */\n      dup2\n        /* \"#utility.yul\":389:405   */\n      swap1\n      pop\n        /* \"#utility.yul\":334:411   */\n      swap2\n      swap1\n      pop\n      jump\t// out\n        /* \"#utility.yul\":417:539   */\n    tag_16:\n        /* \"#utility.yul\":490:514   */\n      tag_29\n        /* \"#utility.yul\":508:513   */\n      dup2\n        /* \"#utility.yul\":490:514   */\n      tag_15\n      jump\t// in\n    tag_29:\n        /* \"#utility.yul\":483:488   */\n      dup2\n        /* \"#utility.yul\":480:515   */\n      eq\n        /* \"#utility.yul\":470:533   */\n      tag_30\n      jumpi\n        /* \"#utility.yul\":529:530   */\n      0x00\n        /* \"#utility.yul\":526:527   */\n      dup1\n        /* \"#utility.yul\":519:531   */\n      revert\n        /* \"#utility.yul\":470:533   */\n    tag_30:\n        /* \"#utility.yul\":417:539   */\n      pop\n      jump\t// out\n        /* \"#utility.yul\":545:684   */\n    tag_17:\n        /* \"#utility.yul\":591:596   */\n      0x00\n        /* \"#utility.yul\":629:635   */\n      dup2\n        /* \"#utility.yul\":616:636   */\n      calldataload\n        /* \"#utility.yul\":607:636   */\n      swap1\n      pop\n        /* \"#utility.yul\":645:678   */\n      tag_32\n        /* \"#utility.yul\":672:677   */\n      dup2\n        /* \"#utility.yul\":645:678   */\n      tag_16\n      jump\t// in\n    tag_32:\n        /* \"#utility.yul\":545:684   */\n      swap3\n      swap2\n      pop\n      pop\n      jump\t// out\n        /* \"#utility.yul\":690:1164   */\n    tag_5:\n        /* \"#utility.yul\":758:764   */\n      0x00\n        /* \"#utility.yul\":766:772   */\n      dup1\n        /* \"#utility.yul\":815:817   */\n      0x40\n        /* \"#utility.yul\":803:812   */\n      dup4\n        /* \"#utility.yul\":794:801   */\n      dup6\n        /* \"#utility.yul\":790:813   */\n      sub\n        /* \"#utility.yul\":786:818   */\n      slt\n        /* \"#utility.yul\":783:902   */\n      iszero\n      tag_34\n      jumpi\n        /* \"#utility.yul\":821:900   */\n      tag_35\n      tag_13\n      jump\t// in\n    tag_35:\n        /* \"#utility.yul\":783:902   */\n    tag_34:\n        /* \"#utility.yul\":941:942   */\n      0x00\n        /* \"#utility.yul\":966:1019   */\n      tag_36\n        /* \"#utility.yul\":1011:1018   */\n      dup6\n        /* \"#utility.yul\":1002:1008   */\n      dup3\n        /* \"#utility.yul\":991:1000   */\n      dup7\n        /* \"#utility.yul\":987:1009   */\n      add\n        /* \"#utility.yul\":966:1019   */\n      tag_17\n      jump\t// in\n    tag_36:\n        /* \"#utility.yul\":956:1019   */\n      swap3\n      pop\n        /* \"#utility.yul\":912:1029   */\n      pop\n        /* \"#utility.yul\":1068:1070   */\n      0x20\n        /* \"#utility.yul\":1094:1147   */\n      tag_37\n        /* \"#utility.yul\":1139:1146   */\n      dup6\n        /* \"#utility.yul\":1130:1136   */\n      dup3\n        /* \"#utility.yul\":1119:1128   */\n      dup7\n        /* \"#utility.yul\":1115:1137   */\n      add\n        /* \"#utility.yul\":1094:1147   */\n      tag_17\n      jump\t// in\n    tag_37:\n        /* \"#utility.yul\":1084:1147   */\n      swap2\n      pop\n        /* \"#utility.yul\":1039:1157   */\n      pop\n        /* \"#utility.yul\":690:1164   */\n      swap3\n      pop\n      swap3\n      swap1\n      pop\n      jump\t// out\n        /* \"#utility.yul\":1170:1296   */\n    tag_18:\n        /* \"#utility.yul\":1265:1289   */\n      tag_39\n        /* \"#utility.yul\":1283:1288   */\n      dup2\n        /* \"#utility.yul\":1265:1289   */\n      tag_15\n      jump\t// in\n    tag_39:\n        /* \"#utility.yul\":1260:1263   */\n      dup3\n        /* \"#utility.yul\":1253:1290   */\n      mstore\n        /* \"#utility.yul\":1170:1296   */\n      pop\n      pop\n      jump\t// out\n        /* \"#utility.yul\":1302:1540   */\n    tag_8:\n        /* \"#utility.yul\":1403:1407   */\n      0x00\n        /* \"#utility.yul\":1441:1443   */\n      0x20\n        /* \"#utility.yul\":1430:1439   */\n      dup3\n        /* \"#utility.yul\":1426:1444   */\n      add\n        /* \"#utility.yul\":1418:1444   */\n      swap1\n      pop\n        /* \"#utility.yul\":1454:1533   */\n      tag_41\n        /* \"#utility.yul\":1530:1531   */\n      0x00\n        /* \"#utility.yul\":1519:1528   */\n      dup4\n        /* \"#utility.yul\":1515:1532   */\n      add\n        /* \"#utility.yul\":1506:1512   */\n      dup5\n        /* \"#utility.yul\":1454:1533   */\n      tag_18\n      jump\t// in\n    tag_41:\n        /* \"#utility.yul\":1302:1540   */\n      swap3\n      swap2\n      pop\n      pop\n      jump\t// out\n        /* \"#utility.yul\":1546:1726   */\n    tag_19:\n        /* \"#utility.yul\":1594:1671   */\n      0x4e487b7100000000000000000000000000000000000000000000000000000000\n        /* \"#utility.yul\":1591:1592   */\n      0x00\n        /* \"#utility.yul\":1584:1672   */\n      mstore\n        /* \"#utility.yul\":1691:1695   */\n      0x11\n        /* \"#utility.yul\":1688:1689   */\n      0x04\n        /* \"#utility.yul\":1681:1696   */\n      mstore\n        /* \"#utility.yul\":1715:1719   */\n      0x24\n        /* \"#utility.yul\":1712:1713   */\n      0x00\n        /* \"#utility.yul\":1705:1720   */\n      revert\n        /* \"#utility.yul\":1732:1834   */\n    tag_20:\n        /* \"#utility.yul\":1774:1782   */\n      0x00\n        /* \"#utility.yul\":1821:1826   */\n      dup2\n        /* \"#utility.yul\":1818:1819   */\n      0x01\n        /* \"#utility.yul\":1814:1827   */\n      shr\n        /* \"#utility.yul\":1793:1827   */\n      swap1\n      pop\n        /* \"#utility.yul\":1732:1834   */\n      swap2\n      swap1\n      pop\n      jump\t// out\n        /* \"#utility.yul\":1840:2688   */\n    tag_21:\n        /* \"#utility.yul\":1901:1906   */\n      0x00\n        /* \"#utility.yul\":1908:1912   */\n      dup1\n        /* \"#utility.yul\":1932:1938   */\n      dup3\n        /* \"#utility.yul\":1923:1938   */\n      swap2\n      pop\n        /* \"#utility.yul\":1956:1961   */\n      dup4\n        /* \"#utility.yul\":1947:1961   */\n      swap1\n      pop\n        /* \"#utility.yul\":1970:2682   */\n    tag_45:\n        /* \"#utility.yul\":1991:1992   */\n      0x01\n        /* \"#utility.yul\":1981:1989   */\n      dup6\n        /* \"#utility.yul\":1978:1993   */\n      gt\n        /* \"#utility.yul\":1970:2682   */\n      iszero\n      tag_47\n      jumpi\n        /* \"#utility.yul\":2086:2090   */\n      dup1\n        /* \"#utility.yul\":2081:2084   */\n      dup7\n        /* \"#utility.yul\":2077:2091   */\n      div\n        /* \"#utility.yul\":2071:2075   */\n      dup2\n        /* \"#utility.yul\":2068:2092   */\n      gt\n        /* \"#utility.yul\":2065:2115   */\n      iszero\n      tag_48\n      jumpi\n        /* \"#utility.yul\":2095:2113   */\n      tag_49\n      tag_19\n      jump\t// in\n    tag_49:\n        /* \"#utility.yul\":2065:2115   */\n    tag_48:\n        /* \"#utility.yul\":2145:2146   */\n      0x01\n        /* \"#utility.yul\":2135:2143   */\n      dup6\n        /* \"#utility.yul\":2131:2147   */\n      and\n        /* \"#utility.yul\":2128:2579   */\n      iszero\n      tag_50\n      jumpi\n        /* \"#utility.yul\":2560:2564   */\n      dup1\n        /* \"#utility.yul\":2553:2558   */\n      dup3\n        /* \"#utility.yul\":2549:2565   */\n      mul\n        /* \"#utility.yul\":2540:2565   */\n      swap2\n      pop\n        /* \"#utility.yul\":2128:2579   */\n    tag_50:\n        /* \"#utility.yul\":2610:2614   */\n      dup1\n        /* \"#utility.yul\":2604:2608   */\n      dup2\n        /* \"#utility.yul\":2600:2615   */\n      mul\n        /* \"#utility.yul\":2592:2615   */\n      swap1\n      pop\n        /* \"#utility.yul\":2640:2672   */\n      tag_51\n        /* \"#utility.yul\":2663:2671   */\n      dup6\n        /* \"#utility.yul\":2640:2672   */\n      tag_20\n      jump\t// in\n    tag_51:\n        /* \"#utility.yul\":2628:2672   */\n      swap5\n      pop\n        /* \"#utility.yul\":1970:2682   */\n      jump(tag_45)\n    tag_47:\n        /* \"#utility.yul\":1840:2688   */\n      swap5\n      pop\n      swap5\n      swap3\n      pop\n      pop\n      pop\n      jump\t// out\n        /* \"#utility.yul\":2694:3767   */\n    tag_22:\n        /* \"#utility.yul\":2748:2753   */\n      0x00\n        /* \"#utility.yul\":2939:2947   */\n      dup3\n        /* \"#utility.yul\":2929:2969   */\n      tag_53\n      jumpi\n        /* \"#utility.yul\":2960:2961   */\n      0x01\n        /* \"#utility.yul\":2951:2961   */\n      swap1\n      pop\n        /* \"#utility.yul\":2962:2967   */\n      jump(tag_52)\n        /* \"#utility.yul\":2929:2969   */\n    tag_53:\n        /* \"#utility.yul\":2988:2992   */\n      dup2\n        /* \"#utility.yul\":2978:3014   */\n      tag_54\n      jumpi\n        /* \"#utility.yul\":3005:3006   */\n      0x00\n        /* \"#utility.yul\":2996:3006   */\n      swap1\n      pop\n        /* \"#utility.yul\":3007:3012   */\n      jump(tag_52)\n        /* \"#utility.yul\":2978:3014   */\n    tag_54:\n        /* \"#utility.yul\":3074:3078   */\n      dup2\n        /* \"#utility.yul\":3122:3123   */\n      0x01\n        /* \"#utility.yul\":3117:3144   */\n      dup2\n      eq\n      tag_56\n      jumpi\n        /* \"#utility.yul\":3158:3159   */\n      0x02\n        /* \"#utility.yul\":3153:3344   */\n      dup2\n      eq\n      tag_57\n      jumpi\n        /* \"#utility.yul\":3067:3344   */\n      jump(tag_55)\n        /* \"#utility.yul\":3117:3144   */\n    tag_56:\n        /* \"#utility.yul\":3135:3136   */\n      0x01\n        /* \"#utility.yul\":3126:3136   */\n      swap2\n      pop\n        /* \"#utility.yul\":3137:3142   */\n      pop\n      jump(tag_52)\n        /* \"#utility.yul\":3153:3344   */\n    tag_57:\n        /* \"#utility.yul\":3198:3201   */\n      0xff\n        /* \"#utility.yul\":3188:3196   */\n      dup5\n        /* \"#utility.yul\":3185:3202   */\n      gt\n        /* \"#utility.yul\":3182:3225   */\n      iszero\n      tag_58\n      jumpi\n        /* \"#utility.yul\":3205:3223   */\n      tag_59\n      tag_19\n      jump\t// in\n    tag_59:\n        /* \"#utility.yul\":3182:3225   */\n    tag_58:\n        /* \"#utility.yul\":3254:3262   */\n      dup4\n        /* \"#utility.yul\":3251:3252   */\n      0x02\n        /* \"#utility.yul\":3247:3263   */\n      exp\n        /* \"#utility.yul\":3238:3263   */\n      swap2\n      pop\n        /* \"#utility.yul\":3289:3292   */\n      dup5\n        /* \"#utility.yul\":3282:3287   */\n      dup3\n        /* \"#utility.yul\":3279:3293   */\n      gt\n        /* \"#utility.yul\":3276:3316   */\n      iszero\n      tag_60\n      jumpi\n        /* \"#utility.yul\":3296:3314   */\n      tag_61\n      tag_19\n      jump\t// in\n    tag_61:\n        /* \"#utility.yul\":3276:3316   */\n    tag_60:\n        /* \"#utility.yul\":3329:3334   */\n      pop\n      jump(tag_52)\n        /* \"#utility.yul\":3067:3344   */\n    tag_55:\n      pop\n        /* \"#utility.yul\":3453:3455   */\n      0x20\n        /* \"#utility.yul\":3443:3451   */\n      dup4\n        /* \"#utility.yul\":3440:3456   */\n      lt\n        /* \"#utility.yul\":3434:3437   */\n      0x0133\n        /* \"#utility.yul\":3428:3432   */\n      dup4\n        /* \"#utility.yul\":3425:3438   */\n      lt\n        /* \"#utility.yul\":3421:3457   */\n      and\n        /* \"#utility.yul\":3403:3405   */\n      0x4e\n        /* \"#utility.yul\":3393:3401   */\n      dup5\n        /* \"#utility.yul\":3390:3406   */\n      lt\n        /* \"#utility.yul\":3385:3387   */\n      0x0b\n        /* \"#utility.yul\":3379:3383   */\n      dup5\n        /* \"#utility.yul\":3376:3388   */\n      lt\n        /* \"#utility.yul\":3372:3407   */\n      and\n        /* \"#utility.yul\":3356:3467   */\n      or\n        /* \"#utility.yul\":3353:3599   */\n      iszero\n      tag_62\n      jumpi\n        /* \"#utility.yul\":3509:3517   */\n      dup3\n        /* \"#utility.yul\":3503:3507   */\n      dup3\n        /* \"#utility.yul\":3499:3518   */\n      exp\n        /* \"#utility.yul\":3490:3518   */\n      swap1\n      pop\n        /* \"#utility.yul\":3544:3547   */\n      dup4\n        /* \"#utility.yul\":3537:3542   */\n      dup2\n        /* \"#utility.yul\":3534:3548   */\n      gt\n        /* \"#utility.yul\":3531:3571   */\n      iszero\n      tag_63\n      jumpi\n        /* \"#utility.yul\":3551:3569   */\n      tag_64\n      tag_19\n      jump\t// in\n    tag_64:\n        /* \"#utility.yul\":3531:3571   */\n    tag_63:\n        /* \"#utility.yul\":3584:3589   */\n      jump(tag_52)\n        /* \"#utility.yul\":3353:3599   */\n    tag_62:\n        /* \"#utility.yul\":3624:3666   */\n      tag_65\n        /* \"#utility.yul\":3662:3665   */\n      dup5\n        /* \"#utility.yul\":3652:3660   */\n      dup5\n        /* \"#utility.yul\":3646:3650   */\n      dup5\n        /* \"#utility.yul\":3643:3644   */\n      0x01\n        /* \"#utility.yul\":3624:3666   */\n      tag_21\n      jump\t// in\n    tag_65:\n        /* \"#utility.yul\":3609:3666   */\n      swap3\n      pop\n      swap1\n      pop\n        /* \"#utility.yul\":3698:3702   */\n      dup2\n        /* \"#utility.yul\":3693:3696   */\n      dup5\n        /* \"#utility.yul\":3689:3703   */\n      div\n        /* \"#utility.yul\":3682:3687   */\n      dup2\n        /* \"#utility.yul\":3679:3704   */\n      gt\n        /* \"#utility.yul\":3676:3727   */\n      iszero\n      tag_66\n      jumpi\n        /* \"#utility.yul\":3707:3725   */\n      tag_67\n      tag_19\n      jump\t// in\n    tag_67:\n        /* \"#utility.yul\":3676:3727   */\n    tag_66:\n        /* \"#utility.yul\":3756:3760   */\n      dup2\n        /* \"#utility.yul\":3749:3754   */\n      dup2\n        /* \"#utility.yul\":3745:3761   */\n      mul\n        /* \"#utility.yul\":3736:3761   */\n      swap1\n      pop\n        /* \"#utility.yul\":2694:3767   */\n    tag_52:\n      swap4\n      swap3\n      pop\n      pop\n      pop\n      jump\t// out\n        /* \"#utility.yul\":3773:4058   */\n    tag_11:\n        /* \"#utility.yul\":3833:3838   */\n      0x00\n        /* \"#utility.yul\":3857:3880   */\n      tag_69\n        /* \"#utility.yul\":3875:3879   */\n      dup3\n        /* \"#utility.yul\":3857:3880   */\n      tag_15\n      jump\t// in\n    tag_69:\n        /* \"#utility.yul\":3849:3880   */\n      swap2\n      pop\n        /* \"#utility.yul\":3901:3928   */\n      tag_70\n        /* \"#utility.yul\":3919:3927   */\n      dup4\n        /* \"#utility.yul\":3901:3928   */\n      tag_15\n      jump\t// in\n    tag_70:\n        /* \"#utility.yul\":3889:3928   */\n      swap3\n      pop\n        /* \"#utility.yul\":3947:4051   */\n      tag_71\n        /* \"#utility.yul\":3984:4050   */\n      0xffffffffffffffffffffffffffffffffffffffffffffffffffffffffffffffff\n        /* \"#utility.yul\":3974:3982   */\n      dup5\n        /* \"#utility.yul\":3968:3972   */\n      dup5\n        /* \"#utility.yul\":3947:4051   */\n      tag_22\n      jump\t// in\n    tag_71:\n        /* \"#utility.yul\":3938:4051   */\n      swap1\n      pop\n        /* \"#utility.yul\":3773:4058   */\n      swap3\n      swap2\n      pop\n      pop\n      jump\t// out\n\n    auxdata: 0xa26469706673582212203abe35c58089414864619ae70169df37e606364fd7f604198d19d3847fde6f8f64736f6c63430008140033\n}\n",
				"bytecode": {
					"linkReferences": {},
					"object": "6102f661004e600b8282823980515f1a607314610042577f4e487b71000000000000000000000000000000000000000000000000000000005f525f60045260245ffd5b305f52607381538281f3fe7300000000000000000000000000000000000000003014608060405260043610610034575f3560e01c8063d9b5b5ca14610038575b5f80fd5b610052600480360381019061004d91906100b4565b610068565b60405161005f9190610101565b60405180910390f35b5f81836100759190610276565b905092915050565b5f80fd5b5f819050919050565b61009381610081565b811461009d575f80fd5b50565b5f813590506100ae8161008a565b92915050565b5f80604083850312156100ca576100c961007d565b5b5f6100d7858286016100a0565b92505060206100e8858286016100a0565b9150509250929050565b6100fb81610081565b82525050565b5f6020820190506101145f8301846100f2565b92915050565b7f4e487b71000000000000000000000000000000000000000000000000000000005f52601160045260245ffd5b5f8160011c9050919050565b5f808291508390505b600185111561019c578086048111156101785761017761011a565b5b60018516156101875780820291505b808102905061019585610147565b945061015c565b94509492505050565b5f826101b4576001905061026f565b816101c1575f905061026f565b81600181146101d757600281146101e157610210565b600191505061026f565b60ff8411156101f3576101f261011a565b5b8360020a91508482111561020a5761020961011a565b5b5061026f565b5060208310610133831016604e8410600b84101617156102455782820a9050838111156102405761023f61011a565b5b61026f565b6102528484846001610153565b925090508184048111156102695761026861011a565b5b81810290505b9392505050565b5f61028082610081565b915061028b83610081565b92506102b87fffffffffffffffffffffffffffffffffffffffffffffffffffffffffffffffff84846101a5565b90509291505056fea26469706673582212203abe35c58089414864619ae70169df37e606364fd7f604198d19d3847fde6f8f64736f6c63430008140033",
					"opcodes": "PUSH2 0x2F6 PUSH2 0x4E PUSH1 0xB DUP3 DUP3 DUP3 CODECOPY DUP1 MLOAD PUSH0 BYTE PUSH1 0x73 EQ PUSH2 0x42 JUMPI PUSH32 0x4E487B7100000000000000000000000000000000000000000000000000000000 PUSH0 MSTORE PUSH0 PUSH1 0x4 MSTORE PUSH1 0x24 PUSH0 REVERT JUMPDEST ADDRESS PUSH0 MSTORE PUSH1 0x73 DUP2 MSTORE8 DUP3 DUP2 RETURN INVALID PUSH20 0x0 ADDRESS EQ PUSH1 0x80 PUSH1 0x40 MSTORE PUSH1 0x4 CALLDATASIZE LT PUSH2 0x34 JUMPI PUSH0 CALLDATALOAD PUSH1 0xE0 SHR DUP1 PUSH4 0xD9B5B5CA EQ PUSH2 0x38 JUMPI JUMPDEST PUSH0 DUP1 REVERT JUMPDEST PUSH2 0x52 PUSH1 0x4 DUP1 CALLDATASIZE SUB DUP2 ADD SWAP1 PUSH2 0x4D SWAP2 SWAP1 PUSH2 0xB4 JUMP JUMPDEST PUSH2 0x68 JUMP JUMPDEST PUSH1 0x40 MLOAD PUSH2 0x5F SWAP2 SWAP1 PUSH2 0x101 JUMP JUMPDEST PUSH1 0x40 MLOAD DUP1 SWAP2 SUB SWAP1 RETURN JUMPDEST PUSH0 DUP2 DUP4 PUSH2 0x75 SWAP2 SWAP1 PUSH2 0x276 JUMP JUMPDEST SWAP1 POP SWAP3 SWAP2 POP POP JUMP JUMPDEST PUSH0 DUP1 REVERT JUMPDEST PUSH0 DUP2 SWAP1 POP SWAP2 SWAP1 POP JUMP JUMPDEST PUSH2 0x93 DUP2 PUSH2 0x81 JUMP JUMPDEST DUP2 EQ PUSH2 0x9D JUMPI PUSH0 DUP1 REVERT JUMPDEST POP JUMP JUMPDEST PUSH0 DUP2 CALLDATALOAD SWAP1 POP PUSH2 0xAE DUP2 PUSH2 0x8A JUMP JUMPDEST SWAP3 SWAP2 POP POP JUMP JUMPDEST PUSH0 DUP1 PUSH1 0x40 DUP4 DUP6 SUB SLT ISZERO PUSH2 0xCA JUMPI PUSH2 0xC9 PUSH2 0x7D JUMP JUMPDEST JUMPDEST PUSH0 PUSH2 0xD7 DUP6 DUP3 DUP7 ADD PUSH2 0xA0 JUMP JUMPDEST SWAP3 POP POP PUSH1 0x20 PUSH2 0xE8 DUP6 DUP3 DUP7 ADD PUSH2 0xA0 JUMP JUMPDEST SWAP2 POP POP SWAP3 POP SWAP3 SWAP1 POP JUMP JUMPDEST PUSH2 0xFB DUP2 PUSH2 0x81 JUMP JUMPDEST DUP3 MSTORE POP POP JUMP JUMPDEST PUSH0 PUSH1 0x20 DUP3 ADD SWAP1 POP PUSH2 0x114 PUSH0 DUP4 ADD DUP5 PUSH2 0xF2 JUMP JUMPDEST SWAP3 SWAP2 POP POP JUMP JUMPDEST PUSH32 0x4E487B7100000000000000000000000000000000000000000000000000000000 PUSH0 MSTORE PUSH1 0x11 PUSH1 0x4 MSTORE PUSH1 0x24 PUSH0 REVERT JUMPDEST PUSH0 DUP2 PUSH1 0x1 SHR SWAP1 POP SWAP2 SWAP1 POP JUMP JUMPDEST PUSH0 DUP1 DUP3 SWAP2 POP DUP4 SWAP1 POP JUMPDEST PUSH1 0x1 DUP6 GT ISZERO PUSH2 0x19C JUMPI DUP1 DUP7 DIV DUP2 GT ISZERO PUSH2 0x178 JUMPI PUSH2 0x177 PUSH2 0x11A JUMP JUMPDEST JUMPDEST PUSH1 0x1 DUP6 AND ISZERO PUSH2 0x187 JUMPI DUP1 DUP3 MUL SWAP2 POP JUMPDEST DUP1 DUP2 MUL SWAP1 POP PUSH2 0x195 DUP6 PUSH2 0x147 JUMP JUMPDEST SWAP5 POP PUSH2 0x15C JUMP JUMPDEST SWAP5 POP SWAP5 SWAP3 POP POP POP JUMP JUMPDEST PUSH0 DUP3 PUSH2 0x1B4 JUMPI PUSH1 0x1 SWAP1 POP PUSH2 0x26F JUMP JUMPDEST DUP2 PUSH2 0x1C1 JUMPI PUSH0 SWAP1 POP PUSH2 0x26F JUMP JUMPDEST DUP2 PUSH1 0x1 DUP2 EQ PUSH2 0x1D7 JUMPI PUSH1 0x2 DUP2 EQ PUSH2 0x1E1 JUMPI PUSH2 0x210 JUMP JUMPDEST PUSH1 0x1 SWAP2 POP POP PUSH2 0x26F JUMP JUMPDEST PUSH1 0xFF DUP5 GT ISZERO PUSH2 0x1F3 JUMPI PUSH2 0x1F2 PUSH2 0x11A JUMP JUMPDEST JUMPDEST DUP4 PUSH1 0x2 EXP SWAP2 POP DUP5 DUP3 GT ISZERO PUSH2 0x20A JUMPI PUSH2 0x209 PUSH2 0x11A JUMP JUMPDEST JUMPDEST POP PUSH2 0x26F JUMP JUMPDEST POP PUSH1 0x20 DUP4 LT PUSH2 0x133 DUP4 LT AND PUSH1 0x4E DUP5 LT PUSH1 0xB DUP5 LT AND OR ISZERO PUSH2 0x245 JUMPI DUP3 DUP3 EXP SWAP1 POP DUP4 DUP2 GT ISZERO PUSH2 0x240 JUMPI PUSH2 0x23F PUSH2 0x11A JUMP JUMPDEST JUMPDEST PUSH2 0x26F JUMP JUMPDEST PUSH2 0x252 DUP5 DUP5 DUP5 PUSH1 0x1 PUSH2 0x153 JUMP JUMPDEST SWAP3 POP SWAP1 POP DUP2 DUP5 DIV DUP2 GT ISZERO PUSH2 0x269 JUMPI PUSH2 0x268 PUSH2 0x11A JUMP JUMPDEST JUMPDEST DUP2 DUP2 MUL SWAP1 POP JUMPDEST SWAP4 SWAP3 POP POP POP JUMP JUMPDEST PUSH0 PUSH2 0x280 DUP3 PUSH2 0x81 JUMP JUMPDEST SWAP2 POP PUSH2 0x28B DUP4 PUSH2 0x81 JUMP JUMPDEST SWAP3 POP PUSH2 0x2B8 PUSH32 0xFFFFFFFFFFFFFFFFFFFFFFFFFFFFFFFFFFFFFFFFFFFFFFFFFFFFFFFFFFFFFFFF DUP5 DUP5 PUSH2 0x1A5 JUMP JUMPDEST SWAP1 POP SWAP3 SWAP2 POP POP JUMP INVALID LOG2 PUSH5 0x6970667358 0x22 SLT KECCAK256 GASPRICE 0xBE CALLDATALOAD 0xC5 DUP1 DUP10 COINBASE BASEFEE PUSH5 0x619AE70169 0xDF CALLDATACOPY 0xE6 MOD CALLDATASIZE 0x4F 0xD7 0xF6 DIV NOT DUP14 NOT 0xD3 DUP5 PUSH32 0xDE6F8F64736F6C63430008140033000000000000000000000000000000000000 "
				},
				"gasEstimates": {
					"creation": {
						"codeDepositCost": "151600",
						"executionCost": "222",
						"totalCost": "151822"
					},
					"external": {
						"exponential(uint256,uint256)": "infinite"
					}
				},
				"methodIdentifiers": {
					"exponential(uint256,uint256)": "d9b5b5ca"
				}
			},
			"storageLayout": {
				"storage": [],
				"types": null
			},
			"userdoc": {
				"kind": "user",
				"methods": {},
				"version": 1
			}
		}
	}
}