{
	"Lib_Imports.sol": {
		"MathUser": {
			"abi": [
				{
					"inputs": [
						{
							"internalType": "uint256",
							"name": "x",
							"type": "uint256"
						},
						{
							"internalType": "uint256",
							"name": "y",
							"type": "uint256"
						}
					],
					"name": "useMathFunctions",
					"outputs": [
						{
							"internalType": "uint256",
							"name": "sum",
							"type": "uint256"
						},
						{
							"internalType": "uint256",
							"name": "difference",
							"type": "uint256"
						},
						{
							"internalType": "uint256",
							"name": "powered",
							"type": "uint256"
						}
					],
					"stateMutability": "pure",
					"type": "function"
				}
			],
			"devdoc": {
				"kind": "dev",
				"methods": {},
				"version": 1
			},
			"evm": {
				"assembly": "    /* \"Lib_Imports.sol\":1026:1312  contract MathUser {... */\n  mstore(0x40, 0x80)\n  callvalue\n  dup1\n  iszero\n  tag_1\n  jumpi\n  0x00\n  dup1\n  revert\ntag_1:\n  pop\n  dataSize(sub_0)\n  dup1\n  dataOffset(sub_0)\n  0x00\n  codecopy\n  0x00\n  return\nstop\n\nsub_0: assembly {\n        /* \"Lib_Imports.sol\":1026:1312  contract MathUser {... */\n      mstore(0x40, 0x80)\n      callvalue\n      dup1\n      iszero\n      tag_1\n      jumpi\n      0x00\n      dup1\n      revert\n    tag_1:\n      pop\n      jumpi(tag_2, lt(calldatasize, 0x04))\n      shr(0xe0, calldataload(0x00))\n      dup1\n      0xf79067c0\n      eq\n      tag_3\n      jumpi\n    tag_2:\n      0x00\n      dup1\n      revert\n        /* \"Lib_Imports.sol\":1089:1309  function useMathFunctions(uint256 x, uint256 y) public pure returns (uint256 sum, uint256 difference, uint256 powered) {... */\n    tag_3:\n      tag_4\n      0x04\n      dup1\n      calldatasize\n      sub\n      dup2\n      add\n      swap1\n      tag_5\n      swap2\n      swap1\n      tag_6\n      jump\t// in\n    tag_5:\n      tag_7\n      jump\t// in\n    tag_4:\n      mload(0x40)\n      tag_8\n      swap4\n      swap3\n      swap2\n      swap1\n      tag_9\n      jump\t// in\n    tag_8:\n      mload(0x40)\n      dup1\n      swap2\n      sub\n      swap1\n      return\n    tag_7:\n        /* \"Lib_Imports.sol\":1158:1169  uint256 sum */\n      0x00\n        /* \"Lib_Imports.sol\":1171:1189  uint256 difference */\n      dup1\n        /* \"Lib_Imports.sol\":1191:1206  uint256 powered */\n      0x00\n        /* \"Lib_Imports.sol\":1225:1233  x.add(y) */\n      tag_11\n        /* \"Lib_Imports.sol\":1231:1232  y */\n      dup5\n        /* \"Lib_Imports.sol\":1225:1226  x */\n      dup7\n        /* \"Lib_Imports.sol\":1225:1230  x.add */\n      tag_12\n      swap1\n        /* \"Lib_Imports.sol\":1225:1233  x.add(y) */\n      swap2\n      swap1\n      0xffffffff\n      and\n      jump\t// in\n    tag_11:\n        /* \"Lib_Imports.sol\":1219:1233  sum = x.add(y) */\n      swap3\n      pop\n        /* \"Lib_Imports.sol\":1257:1270  x.subtract(y) */\n      tag_13\n        /* \"Lib_Imports.sol\":1268:1269  y */\n      dup5\n        /* \"Lib_Imports.sol\":1257:1258  x */\n      dup7\n        /* \"Lib_Imports.sol\":1257:1267  x.subtract */\n      tag_14\n      swap1\n        /* \"Lib_Imports.sol\":1257:1270  x.subtract(y) */\n      swap2\n      swap1\n      0xffffffff\n      and\n      jump\t// in\n    tag_13:\n        /* \"Lib_Imports.sol\":1244:1270  difference = x.subtract(y) */\n      swap2\n      pop\n        /* \"Lib_Imports.sol\":1291:1301  x.power(y) */\n      tag_15\n        /* \"Lib_Imports.sol\":1299:1300  y */\n      dup5\n        /* \"Lib_Imports.sol\":1291:1292  x */\n      dup7\n        /* \"Lib_Imports.sol\":1291:1298  x.power */\n      tag_16\n      swap1\n        /* \"Lib_Imports.sol\":1291:1301  x.power(y) */\n      swap2\n      swap1\n      0xffffffff\n      and\n      jump\t// in\n    tag_15:\n        /* \"Lib_Imports.sol\":1281:1301  powered = x.power(y) */\n      swap1\n      pop\n        /* \"Lib_Imports.sol\":1089:1309  function useMathFunctions(uint256 x, uint256 y) public pure returns (uint256 sum, uint256 difference, uint256 powered) {... */\n      swap3\n      pop\n      swap3\n      pop\n      swap3\n      jump\t// out\n        /* \"Lib_Imports.sol\":614:713  function add(uint256 a, uint256 b) internal  pure returns (uint256) {... */\n    tag_12:\n        /* \"Lib_Imports.sol\":673:680  uint256 */\n      0x00\n        /* \"Lib_Imports.sol\":704:705  b */\n      dup2\n        /* \"Lib_Imports.sol\":700:701  a */\n      dup4\n        /* \"Lib_Imports.sol\":700:705  a + b */\n      tag_18\n      swap2\n      swap1\n      tag_19\n      jump\t// in\n    tag_18:\n        /* \"Lib_Imports.sol\":693:705  return a + b */\n      swap1\n      pop\n        /* \"Lib_Imports.sol\":614:713  function add(uint256 a, uint256 b) internal  pure returns (uint256) {... */\n      swap3\n      swap2\n      pop\n      pop\n      jump\t// out\n        /* \"Lib_Imports.sol\":721:890  function subtract(uint256 a, uint256 b) internal pure returns (uint256) {... */\n    tag_14:\n        /* \"Lib_Imports.sol\":784:791  uint256 */\n      0x00\n        /* \"Lib_Imports.sol\":817:818  a */\n      dup3\n        /* \"Lib_Imports.sol\":812:813  b */\n      dup3\n        /* \"Lib_Imports.sol\":812:818  b <= a */\n      gt\n      iszero\n        /* \"Lib_Imports.sol\":804:859  require(b <= a, \"Subtraction result would be negative\") */\n      tag_21\n      jumpi\n      mload(0x40)\n      0x08c379a000000000000000000000000000000000000000000000000000000000\n      dup2\n      mstore\n      0x04\n      add\n      tag_22\n      swap1\n      tag_23\n      jump\t// in\n    tag_22:\n      mload(0x40)\n      dup1\n      swap2\n      sub\n      swap1\n      revert\n    tag_21:\n        /* \"Lib_Imports.sol\":881:882  b */\n      dup2\n        /* \"Lib_Imports.sol\":877:878  a */\n      dup4\n        /* \"Lib_Imports.sol\":877:882  a - b */\n      tag_24\n      swap2\n      swap1\n      tag_25\n      jump\t// in\n    tag_24:\n        /* \"Lib_Imports.sol\":870:882  return a - b */\n      swap1\n      pop\n        /* \"Lib_Imports.sol\":721:890  function subtract(uint256 a, uint256 b) internal pure returns (uint256) {... */\n      swap3\n      swap2\n      pop\n      pop\n      jump\t// out\n        /* \"Lib_Imports.sol\":898:1019  function power(uint256 base, uint256 exponent) internal pure returns (uint256) {... */\n    tag_16:\n        /* \"Lib_Imports.sol\":968:975  uint256 */\n      0x00\n        /* \"Lib_Imports.sol\":1003:1011  exponent */\n      dup2\n        /* \"Lib_Imports.sol\":995:999  base */\n      dup4\n        /* \"Lib_Imports.sol\":995:1011  base ** exponent */\n      tag_27\n      swap2\n      swap1\n      tag_28\n      jump\t// in\n    tag_27:\n        /* \"Lib_Imports.sol\":988:1011  return base ** exponent */\n      swap1\n      pop\n        /* \"Lib_Imports.sol\":898:1019  function power(uint256 base, uint256 exponent) internal pure returns (uint256) {... */\n      swap3\n      swap2\n      pop\n      pop\n      jump\t// out\n        /* \"#utility.yul\":88:205   */\n    tag_30:\n        /* \"#utility.yul\":197:198   */\n      0x00\n        /* \"#utility.yul\":194:195   */\n      dup1\n        /* \"#utility.yul\":187:199   */\n      revert\n        /* \"#utility.yul\":334:411   */\n    tag_32:\n        /* \"#utility.yul\":371:378   */\n      0x00\n        /* \"#utility.yul\":400:405   */\n      dup2\n        /* \"#utility.yul\":389:405   */\n      swap1\n      pop\n        /* \"#utility.yul\":334:411   */\n      swap2\n      swap1\n      pop\n      jump\t// out\n        /* \"#utility.yul\":417:539   */\n    tag_33:\n        /* \"#utility.yul\":490:514   */\n      tag_49\n        /* \"#utility.yul\":508:513   */\n      dup2\n        /* \"#utility.yul\":490:514   */\n      tag_32\n      jump\t// in\n    tag_49:\n        /* \"#utility.yul\":483:488   */\n      dup2\n        /* \"#utility.yul\":480:515   */\n      eq\n        /* \"#utility.yul\":470:533   */\n      tag_50\n      jumpi\n        /* \"#utility.yul\":529:530   */\n      0x00\n        /* \"#utility.yul\":526:527   */\n      dup1\n        /* \"#utility.yul\":519:531   */\n      revert\n        /* \"#utility.yul\":470:533   */\n    tag_50:\n        /* \"#utility.yul\":417:539   */\n      pop\n      jump\t// out\n        /* \"#utility.yul\":545:684   */\n    tag_34:\n        /* \"#utility.yul\":591:596   */\n      0x00\n        /* \"#utility.yul\":629:635   */\n      dup2\n        /* \"#utility.yul\":616:636   */\n      calldataload\n        /* \"#utility.yul\":607:636   */\n      swap1\n      pop\n        /* \"#utility.yul\":645:678   */\n      tag_52\n        /* \"#utility.yul\":672:677   */\n      dup2\n        /* \"#utility.yul\":645:678   */\n      tag_33\n      jump\t// in\n    tag_52:\n        /* \"#utility.yul\":545:684   */\n      swap3\n      swap2\n      pop\n      pop\n      jump\t// out\n        /* \"#utility.yul\":690:1164   */\n    tag_6:\n        /* \"#utility.yul\":758:764   */\n      0x00\n        /* \"#utility.yul\":766:772   */\n      dup1\n        /* \"#utility.yul\":815:817   */\n      0x40\n        /* \"#utility.yul\":803:812   */\n      dup4\n        /* \"#utility.yul\":794:801   */\n      dup6\n        /* \"#utility.yul\":790:813   */\n      sub\n        /* \"#utility.yul\":786:818   */\n      slt\n        /* \"#utility.yul\":783:902   */\n      iszero\n      tag_54\n      jumpi\n        /* \"#utility.yul\":821:900   */\n      tag_55\n      tag_30\n      jump\t// in\n    tag_55:\n        /* \"#utility.yul\":783:902   */\n    tag_54:\n        /* \"#utility.yul\":941:942   */\n      0x00\n        /* \"#utility.yul\":966:1019   */\n      tag_56\n        /* \"#utility.yul\":1011:1018   */\n      dup6\n        /* \"#utility.yul\":1002:1008   */\n      dup3\n        /* \"#utility.yul\":991:1000   */\n      dup7\n        /* \"#utility.yul\":987:1009   */\n      add\n        /* \"#utility.yul\":966:1019   */\n      tag_34\n      jump\t// in\n    tag_56:\n        /* \"#utility.yul\":956:1019   */\n      swap3\n      pop\n        /* \"#utility.yul\":912:1029   */\n      pop\n        /* \"#utility.yul\":1068:1070   */\n      0x20\n        /* \"#utility.yul\":1094:1147   */\n      tag_57\n        /* \"#utility.yul\":1139:1146   */\n      dup6\n        /* \"#utility.yul\":1130:1136   */\n      dup3\n        /* \"#utility.yul\":1119:1128   */\n      dup7\n        /* \"#utility.yul\":1115:1137   */\n      add\n        /* \"#utility.yul\":1094:1147   */\n      tag_34\n      jump\t// in\n    tag_57:\n        /* \"#utility.yul\":1084:1147   */\n      swap2\n      pop\n        /* \"#utility.yul\":1039:1157   */\n      pop\n        /* \"#utility.yul\":690:1164   */\n      swap3\n      pop\n      swap3\n      swap1\n      pop\n      jump\t// out\n        /* \"#utility.yul\":1170:1288   */\n    tag_35:\n        /* \"#utility.yul\":1257:1281   */\n      tag_59\n        /* \"#utility.yul\":1275:1280   */\n      dup2\n        /* \"#utility.yul\":1257:1281   */\n      tag_32\n      jump\t// in\n    tag_59:\n        /* \"#utility.yul\":1252:1255   */\n      dup3\n        /* \"#utility.yul\":1245:1282   */\n      mstore\n        /* \"#utility.yul\":1170:1288   */\n      pop\n      pop\n      jump\t// out\n        /* \"#utility.yul\":1294:1736   */\n    tag_9:\n        /* \"#utility.yul\":1443:1447   */\n      0x00\n        /* \"#utility.yul\":1481:1483   */\n      0x60\n        /* \"#utility.yul\":1470:1479   */\n      dup3\n        /* \"#utility.yul\":1466:1484   */\n      add\n        /* \"#utility.yul\":1458:1484   */\n      swap1\n      pop\n        /* \"#utility.yul\":1494:1565   */\n      tag_61\n        /* \"#utility.yul\":1562:1563   */\n      0x00\n        /* \"#utility.yul\":1551:1560   */\n      dup4\n        /* \"#utility.yul\":1547:1564   */\n      add\n        /* \"#utility.yul\":1538:1544   */\n      dup7\n        /* \"#utility.yul\":1494:1565   */\n      tag_35\n      jump\t// in\n    tag_61:\n        /* \"#utility.yul\":1575:1647   */\n      tag_62\n        /* \"#utility.yul\":1643:1645   */\n      0x20\n        /* \"#utility.yul\":1632:1641   */\n      dup4\n        /* \"#utility.yul\":1628:1646   */\n      add\n        /* \"#utility.yul\":1619:1625   */\n      dup6\n        /* \"#utility.yul\":1575:1647   */\n      tag_35\n      jump\t// in\n    tag_62:\n        /* \"#utility.yul\":1657:1729   */\n      tag_63\n        /* \"#utility.yul\":1725:1727   */\n      0x40\n        /* \"#utility.yul\":1714:1723   */\n      dup4\n        /* \"#utility.yul\":1710:1728   */\n      add\n        /* \"#utility.yul\":1701:1707   */\n      dup5\n        /* \"#utility.yul\":1657:1729   */\n      tag_35\n      jump\t// in\n    tag_63:\n        /* \"#utility.yul\":1294:1736   */\n      swap5\n      swap4\n      pop\n      pop\n      pop\n      pop\n      jump\t// out\n        /* \"#utility.yul\":1742:1922   */\n    tag_36:\n        /* \"#utility.yul\":1790:1867   */\n      0x4e487b7100000000000000000000000000000000000000000000000000000000\n        /* \"#utility.yul\":1787:1788   */\n      0x00\n        /* \"#utility.yul\":1780:1868   */\n      mstore\n        /* \"#utility.yul\":1887:1891   */\n      0x11\n        /* \"#utility.yul\":1884:1885   */\n      0x04\n        /* \"#utility.yul\":1877:1892   */\n      mstore\n        /* \"#utility.yul\":1911:1915   */\n      0x24\n        /* \"#utility.yul\":1908:1909   */\n      0x00\n        /* \"#utility.yul\":1901:1916   */\n      revert\n        /* \"#utility.yul\":1928:2119   */\n    tag_19:\n        /* \"#utility.yul\":1968:1971   */\n      0x00\n        /* \"#utility.yul\":1987:2007   */\n      tag_66\n        /* \"#utility.yul\":2005:2006   */\n      dup3\n        /* \"#utility.yul\":1987:2007   */\n      tag_32\n      jump\t// in\n    tag_66:\n        /* \"#utility.yul\":1982:2007   */\n      swap2\n      pop\n        /* \"#utility.yul\":2021:2041   */\n      tag_67\n        /* \"#utility.yul\":2039:2040   */\n      dup4\n        /* \"#utility.yul\":2021:2041   */\n      tag_32\n      jump\t// in\n    tag_67:\n        /* \"#utility.yul\":2016:2041   */\n      swap3\n      pop\n        /* \"#utility.yul\":2064:2065   */\n      dup3\n        /* \"#utility.yul\":2061:2062   */\n      dup3\n        /* \"#utility.yul\":2057:2066   */\n      add\n        /* \"#utility.yul\":2050:2066   */\n      swap1\n      pop\n        /* \"#utility.yul\":2085:2088   */\n      dup1\n        /* \"#utility.yul\":2082:2083   */\n      dup3\n        /* \"#utility.yul\":2079:2089   */\n      gt\n        /* \"#utility.yul\":2076:2112   */\n      iszero\n      tag_68\n      jumpi\n        /* \"#utility.yul\":2092:2110   */\n      tag_69\n      tag_36\n      jump\t// in\n    tag_69:\n        /* \"#utility.yul\":2076:2112   */\n    tag_68:\n        /* \"#utility.yul\":1928:2119   */\n      swap3\n      swap2\n      pop\n      pop\n      jump\t// out\n        /* \"#utility.yul\":2125:2294   */\n    tag_37:\n        /* \"#utility.yul\":2209:2220   */\n      0x00\n        /* \"#utility.yul\":2243:2249   */\n      dup3\n        /* \"#utility.yul\":2238:2241   */\n      dup3\n        /* \"#utility.yul\":2231:2250   */\n      mstore\n        /* \"#utility.yul\":2283:2287   */\n      0x20\n        /* \"#utility.yul\":2278:2281   */\n      dup3\n        /* \"#utility.yul\":2274:2288   */\n      add\n        /* \"#utility.yul\":2259:2288   */\n      swap1\n      pop\n        /* \"#utility.yul\":2125:2294   */\n      swap3\n      swap2\n      pop\n      pop\n      jump\t// out\n        /* \"#utility.yul\":2300:2523   */\n    tag_38:\n        /* \"#utility.yul\":2440:2474   */\n      0x5375627472616374696f6e20726573756c7420776f756c64206265206e656761\n        /* \"#utility.yul\":2436:2437   */\n      0x00\n        /* \"#utility.yul\":2428:2434   */\n      dup3\n        /* \"#utility.yul\":2424:2438   */\n      add\n        /* \"#utility.yul\":2417:2475   */\n      mstore\n        /* \"#utility.yul\":2509:2515   */\n      0x7469766500000000000000000000000000000000000000000000000000000000\n        /* \"#utility.yul\":2504:2506   */\n      0x20\n        /* \"#utility.yul\":2496:2502   */\n      dup3\n        /* \"#utility.yul\":2492:2507   */\n      add\n        /* \"#utility.yul\":2485:2516   */\n      mstore\n        /* \"#utility.yul\":2300:2523   */\n      pop\n      jump\t// out\n        /* \"#utility.yul\":2529:2895   */\n    tag_39:\n        /* \"#utility.yul\":2671:2674   */\n      0x00\n        /* \"#utility.yul\":2692:2759   */\n      tag_73\n        /* \"#utility.yul\":2756:2758   */\n      0x24\n        /* \"#utility.yul\":2751:2754   */\n      dup4\n        /* \"#utility.yul\":2692:2759   */\n      tag_37\n      jump\t// in\n    tag_73:\n        /* \"#utility.yul\":2685:2759   */\n      swap2\n      pop\n        /* \"#utility.yul\":2768:2861   */\n      tag_74\n        /* \"#utility.yul\":2857:2860   */\n      dup3\n        /* \"#utility.yul\":2768:2861   */\n      tag_38\n      jump\t// in\n    tag_74:\n        /* \"#utility.yul\":2886:2888   */\n      0x40\n        /* \"#utility.yul\":2881:2884   */\n      dup3\n        /* \"#utility.yul\":2877:2889   */\n      add\n        /* \"#utility.yul\":2870:2889   */\n      swap1\n      pop\n        /* \"#utility.yul\":2529:2895   */\n      swap2\n      swap1\n      pop\n      jump\t// out\n        /* \"#utility.yul\":2901:3320   */\n    tag_23:\n        /* \"#utility.yul\":3067:3071   */\n      0x00\n        /* \"#utility.yul\":3105:3107   */\n      0x20\n        /* \"#utility.yul\":3094:3103   */\n      dup3\n        /* \"#utility.yul\":3090:3108   */\n      add\n        /* \"#utility.yul\":3082:3108   */\n      swap1\n      pop\n        /* \"#utility.yul\":3154:3163   */\n      dup2\n        /* \"#utility.yul\":3148:3152   */\n      dup2\n        /* \"#utility.yul\":3144:3164   */\n      sub\n        /* \"#utility.yul\":3140:3141   */\n      0x00\n        /* \"#utility.yul\":3129:3138   */\n      dup4\n        /* \"#utility.yul\":3125:3142   */\n      add\n        /* \"#utility.yul\":3118:3165   */\n      mstore\n        /* \"#utility.yul\":3182:3313   */\n      tag_76\n        /* \"#utility.yul\":3308:3312   */\n      dup2\n        /* \"#utility.yul\":3182:3313   */\n      tag_39\n      jump\t// in\n    tag_76:\n        /* \"#utility.yul\":3174:3313   */\n      swap1\n      pop\n        /* \"#utility.yul\":2901:3320   */\n      swap2\n      swap1\n      pop\n      jump\t// out\n        /* \"#utility.yul\":3326:3520   */\n    tag_25:\n        /* \"#utility.yul\":3366:3370   */\n      0x00\n        /* \"#utility.yul\":3386:3406   */\n      tag_78\n        /* \"#utility.yul\":3404:3405   */\n      dup3\n        /* \"#utility.yul\":3386:3406   */\n      tag_32\n      jump\t// in\n    tag_78:\n        /* \"#utility.yul\":3381:3406   */\n      swap2\n      pop\n        /* \"#utility.yul\":3420:3440   */\n      tag_79\n        /* \"#utility.yul\":3438:3439   */\n      dup4\n        /* \"#utility.yul\":3420:3440   */\n      tag_32\n      jump\t// in\n    tag_79:\n        /* \"#utility.yul\":3415:3440   */\n      swap3\n      pop\n        /* \"#utility.yul\":3464:3465   */\n      dup3\n        /* \"#utility.yul\":3461:3462   */\n      dup3\n        /* \"#utility.yul\":3457:3466   */\n      sub\n        /* \"#utility.yul\":3449:3466   */\n      swap1\n      pop\n        /* \"#utility.yul\":3488:3489   */\n      dup2\n        /* \"#utility.yul\":3482:3486   */\n      dup2\n        /* \"#utility.yul\":3479:3490   */\n      gt\n        /* \"#utility.yul\":3476:3513   */\n      iszero\n      tag_80\n      jumpi\n        /* \"#utility.yul\":3493:3511   */\n      tag_81\n      tag_36\n      jump\t// in\n    tag_81:\n        /* \"#utility.yul\":3476:3513   */\n    tag_80:\n        /* \"#utility.yul\":3326:3520   */\n      swap3\n      swap2\n      pop\n      pop\n      jump\t// out\n        /* \"#utility.yul\":3526:3628   */\n    tag_40:\n        /* \"#utility.yul\":3568:3576   */\n      0x00\n        /* \"#utility.yul\":3615:3620   */\n      dup2\n        /* \"#utility.yul\":3612:3613   */\n      0x01\n        /* \"#utility.yul\":3608:3621   */\n      shr\n        /* \"#utility.yul\":3587:3621   */\n      swap1\n      pop\n        /* \"#utility.yul\":3526:3628   */\n      swap2\n      swap1\n      pop\n      jump\t// out\n        /* \"#utility.yul\":3634:4482   */\n    tag_41:\n        /* \"#utility.yul\":3695:3700   */\n      0x00\n        /* \"#utility.yul\":3702:3706   */\n      dup1\n        /* \"#utility.yul\":3726:3732   */\n      dup3\n        /* \"#utility.yul\":3717:3732   */\n      swap2\n      pop\n        /* \"#utility.yul\":3750:3755   */\n      dup4\n        /* \"#utility.yul\":3741:3755   */\n      swap1\n      pop\n        /* \"#utility.yul\":3764:4476   */\n    tag_84:\n        /* \"#utility.yul\":3785:3786   */\n      0x01\n        /* \"#utility.yul\":3775:3783   */\n      dup6\n        /* \"#utility.yul\":3772:3787   */\n      gt\n        /* \"#utility.yul\":3764:4476   */\n      iszero\n      tag_86\n      jumpi\n        /* \"#utility.yul\":3880:3884   */\n      dup1\n        /* \"#utility.yul\":3875:3878   */\n      dup7\n        /* \"#utility.yul\":3871:3885   */\n      div\n        /* \"#utility.yul\":3865:3869   */\n      dup2\n        /* \"#utility.yul\":3862:3886   */\n      gt\n        /* \"#utility.yul\":3859:3909   */\n      iszero\n      tag_87\n      jumpi\n        /* \"#utility.yul\":3889:3907   */\n      tag_88\n      tag_36\n      jump\t// in\n    tag_88:\n        /* \"#utility.yul\":3859:3909   */\n    tag_87:\n        /* \"#utility.yul\":3939:3940   */\n      0x01\n        /* \"#utility.yul\":3929:3937   */\n      dup6\n        /* \"#utility.yul\":3925:3941   */\n      and\n        /* \"#utility.yul\":3922:4373   */\n      iszero\n      tag_89\n      jumpi\n        /* \"#utility.yul\":4354:4358   */\n      dup1\n        /* \"#utility.yul\":4347:4352   */\n      dup3\n        /* \"#utility.yul\":4343:4359   */\n      mul\n        /* \"#utility.yul\":4334:4359   */\n      swap2\n      pop\n        /* \"#utility.yul\":3922:4373   */\n    tag_89:\n        /* \"#utility.yul\":4404:4408   */\n      dup1\n        /* \"#utility.yul\":4398:4402   */\n      dup2\n        /* \"#utility.yul\":4394:4409   */\n      mul\n        /* \"#utility.yul\":4386:4409   */\n      swap1\n      pop\n        /* \"#utility.yul\":4434:4466   */\n      tag_90\n        /* \"#utility.yul\":4457:4465   */\n      dup6\n        /* \"#utility.yul\":4434:4466   */\n      tag_40\n      jump\t// in\n    tag_90:\n        /* \"#utility.yul\":4422:4466   */\n      swap5\n      pop\n        /* \"#utility.yul\":3764:4476   */\n      jump(tag_84)\n    tag_86:\n        /* \"#utility.yul\":3634:4482   */\n      swap5\n      pop\n      swap5\n      swap3\n      pop\n      pop\n      pop\n      jump\t// out\n        /* \"#utility.yul\":4488:5561   */\n    tag_42:\n        /* \"#utility.yul\":4542:4547   */\n      0x00\n        /* \"#utility.yul\":4733:4741   */\n      dup3\n        /* \"#utility.yul\":4723:4763   */\n      tag_92\n      jumpi\n        /* \"#utility.yul\":4754:4755   */\n      0x01\n        /* \"#utility.yul\":4745:4755   */\n      swap1\n      pop\n        /* \"#utility.yul\":4756:4761   */\n      jump(tag_91)\n        /* \"#utility.yul\":4723:4763   */\n    tag_92:\n        /* \"#utility.yul\":4782:4786   */\n      dup2\n        /* \"#utility.yul\":4772:4808   */\n      tag_93\n      jumpi\n        /* \"#utility.yul\":4799:4800   */\n      0x00\n        /* \"#utility.yul\":4790:4800   */\n      swap1\n      pop\n        /* \"#utility.yul\":4801:4806   */\n      jump(tag_91)\n        /* \"#utility.yul\":4772:4808   */\n    tag_93:\n        /* \"#utility.yul\":4868:4872   */\n      dup2\n        /* \"#utility.yul\":4916:4917   */\n      0x01\n        /* \"#utility.yul\":4911:4938   */\n      dup2\n      eq\n      tag_95\n      jumpi\n        /* \"#utility.yul\":4952:4953   */\n      0x02\n        /* \"#utility.yul\":4947:5138   */\n      dup2\n      eq\n      tag_96\n      jumpi\n        /* \"#utility.yul\":4861:5138   */\n      jump(tag_94)\n        /* \"#utility.yul\":4911:4938   */\n    tag_95:\n        /* \"#utility.yul\":4929:4930   */\n      0x01\n        /* \"#utility.yul\":4920:4930   */\n      swap2\n      pop\n        /* \"#utility.yul\":4931:4936   */\n      pop\n      jump(tag_91)\n        /* \"#utility.yul\":4947:5138   */\n    tag_96:\n        /* \"#utility.yul\":4992:4995   */\n      0xff\n        /* \"#utility.yul\":4982:4990   */\n      dup5\n        /* \"#utility.yul\":4979:4996   */\n      gt\n        /* \"#utility.yul\":4976:5019   */\n      iszero\n      tag_97\n      jumpi\n        /* \"#utility.yul\":4999:5017   */\n      tag_98\n      tag_36\n      jump\t// in\n    tag_98:\n        /* \"#utility.yul\":4976:5019   */\n    tag_97:\n        /* \"#utility.yul\":5048:5056   */\n      dup4\n        /* \"#utility.yul\":5045:5046   */\n      0x02\n        /* \"#utility.yul\":5041:5057   */\n      exp\n        /* \"#utility.yul\":5032:5057   */\n      swap2\n      pop\n        /* \"#utility.yul\":5083:5086   */\n      dup5\n        /* \"#utility.yul\":5076:5081   */\n      dup3\n        /* \"#utility.yul\":5073:5087   */\n      gt\n        /* \"#utility.yul\":5070:5110   */\n      iszero\n      tag_99\n      jumpi\n        /* \"#utility.yul\":5090:5108   */\n      tag_100\n      tag_36\n      jump\t// in\n    tag_100:\n        /* \"#utility.yul\":5070:5110   */\n    tag_99:\n        /* \"#utility.yul\":5123:5128   */\n      pop\n      jump(tag_91)\n        /* \"#utility.yul\":4861:5138   */\n    tag_94:\n      pop\n        /* \"#utility.yul\":5247:5249   */\n      0x20\n        /* \"#utility.yul\":5237:5245   */\n      dup4\n        /* \"#utility.yul\":5234:5250   */\n      lt\n        /* \"#utility.yul\":5228:5231   */\n      0x0133\n        /* \"#utility.yul\":5222:5226   */\n      dup4\n        /* \"#utility.yul\":5219:5232   */\n      lt\n        /* \"#utility.yul\":5215:5251   */\n      and\n        /* \"#utility.yul\":5197:5199   */\n      0x4e\n        /* \"#utility.yul\":5187:5195   */\n      dup5\n        /* \"#utility.yul\":5184:5200   */\n      lt\n        /* \"#utility.yul\":5179:5181   */\n      0x0b\n        /* \"#utility.yul\":5173:5177   */\n      dup5\n        /* \"#utility.yul\":5170:5182   */\n      lt\n        /* \"#utility.yul\":5166:5201   */\n      and\n        /* \"#utility.yul\":5150:5261   */\n      or\n        /* \"#utility.yul\":5147:5393   */\n      iszero\n      tag_101\n      jumpi\n        /* \"#utility.yul\":5303:5311   */\n      dup3\n        /* \"#utility.yul\":5297:5301   */\n      dup3\n        /* \"#utility.yul\":5293:5312   */\n      exp\n        /* \"#utility.yul\":5284:5312   */\n      swap1\n      pop\n        /* \"#utility.yul\":5338:5341   */\n      dup4\n        /* \"#utility.yul\":5331:5336   */\n      dup2\n        /* \"#utility.yul\":5328:5342   */\n      gt\n        /* \"#utility.yul\":5325:5365   */\n      iszero\n      tag_102\n      jumpi\n        /* \"#utility.yul\":5345:5363   */\n      tag_103\n      tag_36\n      jump\t// in\n    tag_103:\n        /* \"#utility.yul\":5325:5365   */\n    tag_102:\n        /* \"#utility.yul\":5378:5383   */\n      jump(tag_91)\n        /* \"#utility.yul\":5147:5393   */\n    tag_101:\n        /* \"#utility.yul\":5418:5460   */\n      tag_104\n        /* \"#utility.yul\":5456:5459   */\n      dup5\n        /* \"#utility.yul\":5446:5454   */\n      dup5\n        /* \"#utility.yul\":5440:5444   */\n      dup5\n        /* \"#utility.yul\":5437:5438   */\n      0x01\n        /* \"#utility.yul\":5418:5460   */\n      tag_41\n      jump\t// in\n    tag_104:\n        /* \"#utility.yul\":5403:5460   */\n      swap3\n      pop\n      swap1\n      pop\n        /* \"#utility.yul\":5492:5496   */\n      dup2\n        /* \"#utility.yul\":5487:5490   */\n      dup5\n        /* \"#utility.yul\":5483:5497   */\n      div\n        /* \"#utility.yul\":5476:5481   */\n      dup2\n        /* \"#utility.yul\":5473:5498   */\n      gt\n        /* \"#utility.yul\":5470:5521   */\n      iszero\n      tag_105\n      jumpi\n        /* \"#utility.yul\":5501:5519   */\n      tag_106\n      tag_36\n      jump\t// in\n    tag_106:\n        /* \"#utility.yul\":5470:5521   */\n    tag_105:\n        /* \"#utility.yul\":5550:5554   */\n      dup2\n        /* \"#utility.yul\":5543:5548   */\n      dup2\n        /* \"#utility.yul\":5539:5555   */\n      mul\n        /* \"#utility.yul\":5530:5555   */\n      swap1\n      pop\n        /* \"#utility.yul\":4488:5561   */\n    tag_91:\n      swap4\n      swap3\n      pop\n      pop\n      pop\n      jump\t// out\n        /* \"#utility.yul\":5567:5852   */\n    tag_28:\n        /* \"#utility.yul\":5627:5632   */\n      0x00\n        /* \"#utility.yul\":5651:5674   */\n      tag_108\n        /* \"#utility.yul\":5669:5673   */\n      dup3\n        /* \"#utility.yul\":5651:5674   */\n      tag_32\n      jump\t// in\n    tag_108:\n        /* \"#utility.yul\":5643:5674   */\n      swap2\n      pop\n        /* \"#utility.yul\":5695:5722   */\n      tag_109\n        /* \"#utility.yul\":5713:5721   */\n      dup4\n        /* \"#utility.yul\":5695:5722   */\n      tag_32\n      jump\t// in\n    tag_109:\n        /* \"#utility.yul\":5683:5722   */\n      swap3\n      pop\n        /* \"#utility.yul\":5741:5845   */\n      tag_110\n        /* \"#utility.yul\":5778:5844   */\n      0xffffffffffffffffffffffffffffffffffffffffffffffffffffffffffffffff\n        /* \"#utility.yul\":5768:5776   */\n      dup5\n        /* \"#utility.yul\":5762:5766   */\n      dup5\n        /* \"#utility.yul\":5741:5845   */\n      tag_42\n      jump\t// in\n    tag_110:\n        /* \"#utility.yul\":5732:5845   */\n      swap1\n      pop\n        /* \"#utility.yul\":5567:5852   */\n      swap3\n      swap2\n      pop\n      pop\n      jump\t// out\n\n    auxdata: 0xa264697066735822122080a438e4b93bebc0c1e0f978182d21446f45e98ec6427946e915d7d0926580cd64736f6c63430008140033\n}\n",
				"bytecode": {
					"linkReferences": {},
					"object": "608060405234801561000f575f80fd5b506104c38061001d5f395ff3fe608060405234801561000f575f80fd5b5060043610610029575f3560e01c8063f79067c01461002d575b5f80fd5b61004760048036038101906100429190610161565b61005f565b604051610056939291906101ae565b60405180910390f35b5f805f61007584866100a890919063ffffffff16565b925061008a84866100bd90919063ffffffff16565b915061009f848661011590919063ffffffff16565b90509250925092565b5f81836100b59190610210565b905092915050565b5f82821115610101576040517f08c379a00000000000000000000000000000000000000000000000000000000081526004016100f8906102c3565b60405180910390fd5b818361010d91906102e1565b905092915050565b5f81836101229190610443565b905092915050565b5f80fd5b5f819050919050565b6101408161012e565b811461014a575f80fd5b50565b5f8135905061015b81610137565b92915050565b5f80604083850312156101775761017661012a565b5b5f6101848582860161014d565b92505060206101958582860161014d565b9150509250929050565b6101a88161012e565b82525050565b5f6060820190506101c15f83018661019f565b6101ce602083018561019f565b6101db604083018461019f565b949350505050565b7f4e487b71000000000000000000000000000000000000000000000000000000005f52601160045260245ffd5b5f61021a8261012e565b91506102258361012e565b925082820190508082111561023d5761023c6101e3565b5b92915050565b5f82825260208201905092915050565b7f5375627472616374696f6e20726573756c7420776f756c64206265206e6567615f8201527f7469766500000000000000000000000000000000000000000000000000000000602082015250565b5f6102ad602483610243565b91506102b882610253565b604082019050919050565b5f6020820190508181035f8301526102da816102a1565b9050919050565b5f6102eb8261012e565b91506102f68361012e565b925082820390508181111561030e5761030d6101e3565b5b92915050565b5f8160011c9050919050565b5f808291508390505b600185111561036957808604811115610345576103446101e3565b5b60018516156103545780820291505b808102905061036285610314565b9450610329565b94509492505050565b5f82610381576001905061043c565b8161038e575f905061043c565b81600181146103a457600281146103ae576103dd565b600191505061043c565b60ff8411156103c0576103bf6101e3565b5b8360020a9150848211156103d7576103d66101e3565b5b5061043c565b5060208310610133831016604e8410600b84101617156104125782820a90508381111561040d5761040c6101e3565b5b61043c565b61041f8484846001610320565b92509050818404811115610436576104356101e3565b5b81810290505b9392505050565b5f61044d8261012e565b91506104588361012e565b92506104857fffffffffffffffffffffffffffffffffffffffffffffffffffffffffffffffff8484610372565b90509291505056fea264697066735822122080a438e4b93bebc0c1e0f978182d21446f45e98ec6427946e915d7d0926580cd64736f6c63430008140033",
					"opcodes": "PUSH1 0x80 PUSH1 0x40 MSTORE CALLVALUE DUP1 ISZERO PUSH2 0xF JUMPI PUSH0 DUP1 REVERT JUMPDEST POP PUSH2 0x4C3 DUP1 PUSH2 0x1D PUSH0 CODECOPY PUSH0 RETURN INVALID PUSH1 0x80 PUSH1 0x40 MSTORE CALLVALUE DUP1 ISZERO PUSH2 0xF JUMPI PUSH0 DUP1 REVERT JUMPDEST POP PUSH1 0x4 CALLDATASIZE LT PUSH2 0x29 JUMPI PUSH0 CALLDATALOAD PUSH1 0xE0 SHR DUP1 PUSH4 0xF79067C0 EQ PUSH2 0x2D JUMPI JUMPDEST PUSH0 DUP1 REVERT JUMPDEST PUSH2 0x47 PUSH1 0x4 DUP1 CALLDATASIZE SUB DUP2 ADD SWAP1 PUSH2 0x42 SWAP2 SWAP1 PUSH2 0x161 JUMP JUMPDEST PUSH2 0x5F JUMP JUMPDEST PUSH1 0x40 MLOAD PUSH2 0x56 SWAP4 SWAP3 SWAP2 SWAP1 PUSH2 0x1AE JUMP JUMPDEST PUSH1 0x40 MLOAD DUP1 SWAP2 SUB SWAP1 RETURN JUMPDEST PUSH0 DUP1 PUSH0 PUSH2 0x75 DUP5 DUP7 PUSH2 0xA8 SWAP1 SWAP2 SWAP1 PUSH4 0xFFFFFFFF AND JUMP JUMPDEST SWAP3 POP PUSH2 0x8A DUP5 DUP7 PUSH2 0xBD SWAP1 SWAP2 SWAP1 PUSH4 0xFFFFFFFF AND JUMP JUMPDEST SWAP2 POP PUSH2 0x9F DUP5 DUP7 PUSH2 0x115 SWAP1 SWAP2 SWAP1 PUSH4 0xFFFFFFFF AND JUMP JUMPDEST SWAP1 POP SWAP3 POP SWAP3 POP SWAP3 JUMP JUMPDEST PUSH0 DUP2 DUP4 PUSH2 0xB5 SWAP2 SWAP1 PUSH2 0x210 JUMP JUMPDEST SWAP1 POP SWAP3 SWAP2 POP POP JUMP JUMPDEST PUSH0 DUP3 DUP3 GT ISZERO PUSH2 0x101 JUMPI PUSH1 0x40 MLOAD PUSH32 0x8C379A000000000000000000000000000000000000000000000000000000000 DUP2 MSTORE PUSH1 0x4 ADD PUSH2 0xF8 SWAP1 PUSH2 0x2C3 JUMP JUMPDEST PUSH1 0x40 MLOAD DUP1 SWAP2 SUB SWAP1 REVERT JUMPDEST DUP2 DUP4 PUSH2 0x10D SWAP2 SWAP1 PUSH2 0x2E1 JUMP JUMPDEST SWAP1 POP SWAP3 SWAP2 POP POP JUMP JUMPDEST PUSH0 DUP2 DUP4 PUSH2 0x122 SWAP2 SWAP1 PUSH2 0x443 JUMP JUMPDEST SWAP1 POP SWAP3 SWAP2 POP POP JUMP JUMPDEST PUSH0 DUP1 REVERT JUMPDEST PUSH0 DUP2 SWAP1 POP SWAP2 SWAP1 POP JUMP JUMPDEST PUSH2 0x140 DUP2 PUSH2 0x12E JUMP JUMPDEST DUP2 EQ PUSH2 0x14A JUMPI PUSH0 DUP1 REVERT JUMPDEST POP JUMP JUMPDEST PUSH0 DUP2 CALLDATALOAD SWAP1 POP PUSH2 0x15B DUP2 PUSH2 0x137 JUMP JUMPDEST SWAP3 SWAP2 POP POP JUMP JUMPDEST PUSH0 DUP1 PUSH1 0x40 DUP4 DUP6 SUB SLT ISZERO PUSH2 0x177 JUMPI PUSH2 0x176 PUSH2 0x12A JUMP JUMPDEST JUMPDEST PUSH0 PUSH2 0x184 DUP6 DUP3 DUP7 ADD PUSH2 0x14D JUMP JUMPDEST SWAP3 POP POP PUSH1 0x20 PUSH2 0x195 DUP6 DUP3 DUP7 ADD PUSH2 0x14D JUMP JUMPDEST SWAP2 POP POP SWAP3 POP SWAP3 SWAP1 POP JUMP JUMPDEST PUSH2 0x1A8 DUP2 PUSH2 0x12E JUMP JUMPDEST DUP3 MSTORE POP POP JUMP JUMPDEST PUSH0 PUSH1 0x60 DUP3 ADD SWAP1 POP PUSH2 0x1C1 PUSH0 DUP4 ADD DUP7 PUSH2 0x19F JUMP JUMPDEST PUSH2 0x1CE PUSH1 0x20 DUP4 ADD DUP6 PUSH2 0x19F JUMP JUMPDEST PUSH2 0x1DB PUSH1 0x40 DUP4 ADD DUP5 PUSH2 0x19F JUMP JUMPDEST SWAP5 SWAP4 POP POP POP POP JUMP JUMPDEST PUSH32 0x4E487B7100000000000000000000000000000000000000000000000000000000 PUSH0 MSTORE PUSH1 0x11 PUSH1 0x4 MSTORE PUSH1 0x24 PUSH0 REVERT JUMPDEST PUSH0 PUSH2 0x21A DUP3 PUSH2 0x12E JUMP JUMPDEST SWAP2 POP PUSH2 0x225 DUP4 PUSH2 0x12E JUMP JUMPDEST SWAP3 POP DUP3 DUP3 ADD SWAP1 POP DUP1 DUP3 GT ISZERO PUSH2 0x23D JUMPI PUSH2 0x23C PUSH2 0x1E3 JUMP JUMPDEST JUMPDEST SWAP3 SWAP2 POP POP JUMP JUMPDEST PUSH0 DUP3 DUP3 MSTORE PUSH1 0x20 DUP3 ADD SWAP1 POP SWAP3 SWAP2 POP POP JUMP JUMPDEST PUSH32 0x5375627472616374696F6E20726573756C7420776F756C64206265206E656761 PUSH0 DUP3 ADD MSTORE PUSH32 0x7469766500000000000000000000000000000000000000000000000000000000 PUSH1 0x20 DUP3 ADD MSTORE POP JUMP JUMPDEST PUSH0 PUSH2 0x2AD PUSH1 0x24 DUP4 PUSH2 0x243 JUMP JUMPDEST SWAP2 POP PUSH2 0x2B8 DUP3 PUSH2 0x253 JUMP JUMPDEST PUSH1 0x40 DUP3 ADD SWAP1 POP SWAP2 SWAP1 POP JUMP JUMPDEST PUSH0 PUSH1 0x20 DUP3 ADD SWAP1 POP DUP2 DUP2 SUB PUSH0 DUP4 ADD MSTORE PUSH2 0x2DA DUP2 PUSH2 0x2A1 JUMP JUMPDEST SWAP1 POP SWAP2 SWAP1 POP JUMP JUMPDEST PUSH0 PUSH2 0x2EB DUP3 PUSH2 0x12E JUMP JUMPDEST SWAP2 POP PUSH2 0x2F6 DUP4 PUSH2 0x12E JUMP JUMPDEST SWAP3 POP DUP3 DUP3 SUB SWAP1 POP DUP2 DUP2 GT ISZERO PUSH2 0x30E JUMPI PUSH2 0x30D PUSH2 0x1E3 JUMP JUMPDEST JUMPDEST SWAP3 SWAP2 POP POP JUMP JUMPDEST PUSH0 DUP2 PUSH1 0x1 SHR SWAP1 POP SWAP2 SWAP1 POP JUMP JUMPDEST PUSH0 DUP1 DUP3 SWAP2 POP DUP4 SWAP1 POP JUMPDEST PUSH1 0x1 DUP6 GT ISZERO PUSH2 0x369 JUMPI DUP1 DUP7 DIV DUP2 GT ISZERO PUSH2 0x345 JUMPI PUSH2 0x344 PUSH2 0x1E3 JUMP JUMPDEST JUMPDEST PUSH1 0x1 DUP6 AND ISZERO PUSH2 0x354 JUMPI DUP1 DUP3 MUL SWAP2 POP JUMPDEST DUP1 DUP2 MUL SWAP1 POP PUSH2 0x362 DUP6 PUSH2 0x314 JUMP JUMPDEST SWAP5 POP PUSH2 0x329 JUMP JUMPDEST SWAP5 POP SWAP5 SWAP3 POP POP POP JUMP JUMPDEST PUSH0 DUP3 PUSH2 0x381 JUMPI PUSH1 0x1 SWAP1 POP PUSH2 0x43C JUMP JUMPDEST DUP2 PUSH2 0x38E JUMPI PUSH0 SWAP1 POP PUSH2 0x43C JUMP JUMPDEST DUP2 PUSH1 0x1 DUP2 EQ PUSH2 0x3A4 JUMPI PUSH1 0x2 DUP2 EQ PUSH2 0x3AE JUMPI PUSH2 0x3DD JUMP JUMPDEST PUSH1 0x1 SWAP2 POP POP PUSH2 0x43C JUMP JUMPDEST PUSH1 0xFF DUP5 GT ISZERO PUSH2 0x3C0 JUMPI PUSH2 0x3BF PUSH2 0x1E3 JUMP JUMPDEST JUMPDEST DUP4 PUSH1 0x2 EXP SWAP2 POP DUP5 DUP3 GT ISZERO PUSH2 0x3D7 JUMPI PUSH2 0x3D6 PUSH2 0x1E3 JUMP JUMPDEST JUMPDEST POP PUSH2 0x43C JUMP JUMPDEST POP PUSH1 0x20 DUP4 LT PUSH2 0x133 DUP4 LT AND PUSH1 0x4E DUP5 LT PUSH1 0xB DUP5 LT AND OR ISZERO PUSH2 0x412 JUMPI DUP3 DUP3 EXP SWAP1 POP DUP4 DUP2 GT ISZERO PUSH2 0x40D JUMPI PUSH2 0x40C PUSH2 0x1E3 JUMP JUMPDEST JUMPDEST PUSH2 0x43C JUMP JUMPDEST PUSH2 0x41F DUP5 DUP5 DUP5 PUSH1 0x1 PUSH2 0x320 JUMP JUMPDEST SWAP3 POP SWAP1 POP DUP2 DUP5 DIV DUP2 GT ISZERO PUSH2 0x436 JUMPI PUSH2 0x435 PUSH2 0x1E3 JUMP JUMPDEST JUMPDEST DUP2 DUP2 MUL SWAP1 POP JUMPDEST SWAP4 SWAP3 POP POP POP JUMP JUMPDEST PUSH0 PUSH2 0x44D DUP3 PUSH2 0x12E JUMP JUMPDEST SWAP2 POP PUSH2 0x458 DUP4 PUSH2 0x12E JUMP JUMPDEST SWAP3 POP PUSH2 0x485 PUSH32 0xFFFFFFFFFFFFFFFFFFFFFFFFFFFFFFFFFFFFFFFFFFFFFFFFFFFFFFFFFFFFFFFF DUP5 DUP5 PUSH2 0x372 JUMP JUMPDEST SWAP1 POP SWAP3 SWAP2 POP POP JUMP INVALID LOG2 PUSH5 0x6970667358 0x22 SLT KECCAK256 DUP1 LOG4 CODESIZE 0xE4 0xB9 EXTCODESIZE 0xEB 0xC0 0xC1 0xE0 0xF9 PUSH25 0x182D21446F45E98EC6427946E915D7D0926580CD64736F6C63 NUMBER STOP ADDMOD EQ STOP CALLER "
				},
				"gasEstimates": {
					"creation": {
						"codeDepositCost": "243800",
						"executionCost": "285",
						"totalCost": "244085"
					},
					"external": {
						"useMathFunctions(uint256,uint256)": "infinite"
					}
				},
				"methodIdentifiers": {
					"useMathFunctions(uint256,uint256)": "f79067c0"
				}
			},
			"storageLayout": {
				"storage": [],
				"types": null
			},
			"userdoc": {
				"kind": "user",
				"methods": {},
				"version": 1
			}
		}
	}
}