{
	"TryCatch.sol": {
		"PrimeChecker": {
			"abi": [
				{
					"inputs": [
						{
							"internalType": "uint256",
							"name": "a",
							"type": "uint256"
						}
					],
					"stateMutability": "nonpayable",
					"type": "constructor"
				},
				{
					"inputs": [
						{
							"internalType": "uint256",
							"name": "b",
							"type": "uint256"
						}
					],
					"name": "onlyPrime",
					"outputs": [
						{
							"internalType": "bool",
							"name": "success",
							"type": "bool"
						}
					],
					"stateMutability": "pure",
					"type": "function"
				}
			],
			"devdoc": {
				"kind": "dev",
				"methods": {},
				"version": 1
			},
			"evm": {
				"assembly": "    /* \"TryCatch.sol\":60:614  contract PrimeChecker{... */\n  mstore(0x40, 0x80)\n    /* \"TryCatch.sol\":85:163  constructor(uint a){... */\n  callvalue\n  dup1\n  iszero\n  tag_1\n  jumpi\n  0x00\n  dup1\n  revert\ntag_1:\n  pop\n  mload(0x40)\n  sub(codesize, bytecodeSize)\n  dup1\n  bytecodeSize\n  dup4\n  codecopy\n  dup2\n  dup2\n  add\n  0x40\n  mstore\n  dup2\n  add\n  swap1\n  tag_2\n  swap2\n  swap1\n  tag_3\n  jump\t// in\ntag_2:\n    /* \"TryCatch.sol\":121:122  0 */\n  0x00\n    /* \"TryCatch.sol\":116:117  a */\n  dup2\n    /* \"TryCatch.sol\":116:122  a != 0 */\n  sub\n    /* \"TryCatch.sol\":108:140  require(a != 0, \"Invalid Entry\") */\n  tag_6\n  jumpi\n  mload(0x40)\n  0x08c379a000000000000000000000000000000000000000000000000000000000\n  dup2\n  mstore\n  0x04\n  add\n  tag_7\n  swap1\n  tag_8\n  jump\t// in\ntag_7:\n  mload(0x40)\n  dup1\n  swap2\n  sub\n  swap1\n  revert\ntag_6:\n    /* \"TryCatch.sol\":156:157  1 */\n  0x01\n    /* \"TryCatch.sol\":151:152  a */\n  dup2\n    /* \"TryCatch.sol\":151:157  a != 1 */\n  sub\n    /* \"TryCatch.sol\":144:158  assert(a != 1) */\n  tag_9\n  jumpi\n  tag_10\n  tag_11\n  jump\t// in\ntag_10:\ntag_9:\n    /* \"TryCatch.sol\":85:163  constructor(uint a){... */\n  pop\n    /* \"TryCatch.sol\":60:614  contract PrimeChecker{... */\n  jump(tag_12)\n    /* \"#utility.yul\":88:205   */\ntag_14:\n    /* \"#utility.yul\":197:198   */\n  0x00\n    /* \"#utility.yul\":194:195   */\n  dup1\n    /* \"#utility.yul\":187:199   */\n  revert\n    /* \"#utility.yul\":334:411   */\ntag_16:\n    /* \"#utility.yul\":371:378   */\n  0x00\n    /* \"#utility.yul\":400:405   */\n  dup2\n    /* \"#utility.yul\":389:405   */\n  swap1\n  pop\n    /* \"#utility.yul\":334:411   */\n  swap2\n  swap1\n  pop\n  jump\t// out\n    /* \"#utility.yul\":417:539   */\ntag_17:\n    /* \"#utility.yul\":490:514   */\n  tag_28\n    /* \"#utility.yul\":508:513   */\n  dup2\n    /* \"#utility.yul\":490:514   */\n  tag_16\n  jump\t// in\ntag_28:\n    /* \"#utility.yul\":483:488   */\n  dup2\n    /* \"#utility.yul\":480:515   */\n  eq\n    /* \"#utility.yul\":470:533   */\n  tag_29\n  jumpi\n    /* \"#utility.yul\":529:530   */\n  0x00\n    /* \"#utility.yul\":526:527   */\n  dup1\n    /* \"#utility.yul\":519:531   */\n  revert\n    /* \"#utility.yul\":470:533   */\ntag_29:\n    /* \"#utility.yul\":417:539   */\n  pop\n  jump\t// out\n    /* \"#utility.yul\":545:688   */\ntag_18:\n    /* \"#utility.yul\":602:607   */\n  0x00\n    /* \"#utility.yul\":633:639   */\n  dup2\n    /* \"#utility.yul\":627:640   */\n  mload\n    /* \"#utility.yul\":618:640   */\n  swap1\n  pop\n    /* \"#utility.yul\":649:682   */\n  tag_31\n    /* \"#utility.yul\":676:681   */\n  dup2\n    /* \"#utility.yul\":649:682   */\n  tag_17\n  jump\t// in\ntag_31:\n    /* \"#utility.yul\":545:688   */\n  swap3\n  swap2\n  pop\n  pop\n  jump\t// out\n    /* \"#utility.yul\":694:1045   */\ntag_3:\n    /* \"#utility.yul\":764:770   */\n  0x00\n    /* \"#utility.yul\":813:815   */\n  0x20\n    /* \"#utility.yul\":801:810   */\n  dup3\n    /* \"#utility.yul\":792:799   */\n  dup5\n    /* \"#utility.yul\":788:811   */\n  sub\n    /* \"#utility.yul\":784:816   */\n  slt\n    /* \"#utility.yul\":781:900   */\n  iszero\n  tag_33\n  jumpi\n    /* \"#utility.yul\":819:898   */\n  tag_34\n  tag_14\n  jump\t// in\ntag_34:\n    /* \"#utility.yul\":781:900   */\ntag_33:\n    /* \"#utility.yul\":939:940   */\n  0x00\n    /* \"#utility.yul\":964:1028   */\n  tag_35\n    /* \"#utility.yul\":1020:1027   */\n  dup5\n    /* \"#utility.yul\":1011:1017   */\n  dup3\n    /* \"#utility.yul\":1000:1009   */\n  dup6\n    /* \"#utility.yul\":996:1018   */\n  add\n    /* \"#utility.yul\":964:1028   */\n  tag_18\n  jump\t// in\ntag_35:\n    /* \"#utility.yul\":954:1028   */\n  swap2\n  pop\n    /* \"#utility.yul\":910:1038   */\n  pop\n    /* \"#utility.yul\":694:1045   */\n  swap3\n  swap2\n  pop\n  pop\n  jump\t// out\n    /* \"#utility.yul\":1051:1220   */\ntag_19:\n    /* \"#utility.yul\":1135:1146   */\n  0x00\n    /* \"#utility.yul\":1169:1175   */\n  dup3\n    /* \"#utility.yul\":1164:1167   */\n  dup3\n    /* \"#utility.yul\":1157:1176   */\n  mstore\n    /* \"#utility.yul\":1209:1213   */\n  0x20\n    /* \"#utility.yul\":1204:1207   */\n  dup3\n    /* \"#utility.yul\":1200:1214   */\n  add\n    /* \"#utility.yul\":1185:1214   */\n  swap1\n  pop\n    /* \"#utility.yul\":1051:1220   */\n  swap3\n  swap2\n  pop\n  pop\n  jump\t// out\n    /* \"#utility.yul\":1226:1389   */\ntag_20:\n    /* \"#utility.yul\":1366:1381   */\n  0x496e76616c696420456e74727900000000000000000000000000000000000000\n    /* \"#utility.yul\":1362:1363   */\n  0x00\n    /* \"#utility.yul\":1354:1360   */\n  dup3\n    /* \"#utility.yul\":1350:1364   */\n  add\n    /* \"#utility.yul\":1343:1382   */\n  mstore\n    /* \"#utility.yul\":1226:1389   */\n  pop\n  jump\t// out\n    /* \"#utility.yul\":1395:1761   */\ntag_21:\n    /* \"#utility.yul\":1537:1540   */\n  0x00\n    /* \"#utility.yul\":1558:1625   */\n  tag_39\n    /* \"#utility.yul\":1622:1624   */\n  0x0d\n    /* \"#utility.yul\":1617:1620   */\n  dup4\n    /* \"#utility.yul\":1558:1625   */\n  tag_19\n  jump\t// in\ntag_39:\n    /* \"#utility.yul\":1551:1625   */\n  swap2\n  pop\n    /* \"#utility.yul\":1634:1727   */\n  tag_40\n    /* \"#utility.yul\":1723:1726   */\n  dup3\n    /* \"#utility.yul\":1634:1727   */\n  tag_20\n  jump\t// in\ntag_40:\n    /* \"#utility.yul\":1752:1754   */\n  0x20\n    /* \"#utility.yul\":1747:1750   */\n  dup3\n    /* \"#utility.yul\":1743:1755   */\n  add\n    /* \"#utility.yul\":1736:1755   */\n  swap1\n  pop\n    /* \"#utility.yul\":1395:1761   */\n  swap2\n  swap1\n  pop\n  jump\t// out\n    /* \"#utility.yul\":1767:2186   */\ntag_8:\n    /* \"#utility.yul\":1933:1937   */\n  0x00\n    /* \"#utility.yul\":1971:1973   */\n  0x20\n    /* \"#utility.yul\":1960:1969   */\n  dup3\n    /* \"#utility.yul\":1956:1974   */\n  add\n    /* \"#utility.yul\":1948:1974   */\n  swap1\n  pop\n    /* \"#utility.yul\":2020:2029   */\n  dup2\n    /* \"#utility.yul\":2014:2018   */\n  dup2\n    /* \"#utility.yul\":2010:2030   */\n  sub\n    /* \"#utility.yul\":2006:2007   */\n  0x00\n    /* \"#utility.yul\":1995:2004   */\n  dup4\n    /* \"#utility.yul\":1991:2008   */\n  add\n    /* \"#utility.yul\":1984:2031   */\n  mstore\n    /* \"#utility.yul\":2048:2179   */\n  tag_42\n    /* \"#utility.yul\":2174:2178   */\n  dup2\n    /* \"#utility.yul\":2048:2179   */\n  tag_21\n  jump\t// in\ntag_42:\n    /* \"#utility.yul\":2040:2179   */\n  swap1\n  pop\n    /* \"#utility.yul\":1767:2186   */\n  swap2\n  swap1\n  pop\n  jump\t// out\n    /* \"#utility.yul\":2192:2372   */\ntag_11:\n    /* \"#utility.yul\":2240:2317   */\n  0x4e487b7100000000000000000000000000000000000000000000000000000000\n    /* \"#utility.yul\":2237:2238   */\n  0x00\n    /* \"#utility.yul\":2230:2318   */\n  mstore\n    /* \"#utility.yul\":2337:2341   */\n  0x01\n    /* \"#utility.yul\":2334:2335   */\n  0x04\n    /* \"#utility.yul\":2327:2342   */\n  mstore\n    /* \"#utility.yul\":2361:2365   */\n  0x24\n    /* \"#utility.yul\":2358:2359   */\n  0x00\n    /* \"#utility.yul\":2351:2366   */\n  revert\n    /* \"TryCatch.sol\":60:614  contract PrimeChecker{... */\ntag_12:\n  dataSize(sub_0)\n  dup1\n  dataOffset(sub_0)\n  0x00\n  codecopy\n  0x00\n  return\nstop\n\nsub_0: assembly {\n        /* \"TryCatch.sol\":60:614  contract PrimeChecker{... */\n      mstore(0x40, 0x80)\n      callvalue\n      dup1\n      iszero\n      tag_1\n      jumpi\n      0x00\n      dup1\n      revert\n    tag_1:\n      pop\n      jumpi(tag_2, lt(calldatasize, 0x04))\n      shr(0xe0, calldataload(0x00))\n      dup1\n      0x05f5b3eb\n      eq\n      tag_3\n      jumpi\n    tag_2:\n      0x00\n      dup1\n      revert\n        /* \"TryCatch.sol\":435:611  function onlyPrime(uint256 b) external pure returns (bool success) {... */\n    tag_3:\n      tag_4\n      0x04\n      dup1\n      calldatasize\n      sub\n      dup2\n      add\n      swap1\n      tag_5\n      swap2\n      swap1\n      tag_6\n      jump\t// in\n    tag_5:\n      tag_7\n      jump\t// in\n    tag_4:\n      mload(0x40)\n      tag_8\n      swap2\n      swap1\n      tag_9\n      jump\t// in\n    tag_8:\n      mload(0x40)\n      dup1\n      swap2\n      sub\n      swap1\n      return\n    tag_7:\n        /* \"TryCatch.sol\":488:500  bool success */\n      0x00\n        /* \"TryCatch.sol\":561:571  isPrime(b) */\n      tag_11\n        /* \"TryCatch.sol\":569:570  b */\n      dup3\n        /* \"TryCatch.sol\":561:568  isPrime */\n      tag_12\n        /* \"TryCatch.sol\":561:571  isPrime(b) */\n      jump\t// in\n    tag_11:\n        /* \"TryCatch.sol\":553:590  require(isPrime(b), \"Ups! Reverting\") */\n      tag_13\n      jumpi\n      mload(0x40)\n      0x08c379a000000000000000000000000000000000000000000000000000000000\n      dup2\n      mstore\n      0x04\n      add\n      tag_14\n      swap1\n      tag_15\n      jump\t// in\n    tag_14:\n      mload(0x40)\n      dup1\n      swap2\n      sub\n      swap1\n      revert\n    tag_13:\n        /* \"TryCatch.sol\":604:608  true */\n      0x01\n        /* \"TryCatch.sol\":594:608  success = true */\n      swap1\n      pop\n        /* \"TryCatch.sol\":435:611  function onlyPrime(uint256 b) external pure returns (bool success) {... */\n      swap2\n      swap1\n      pop\n      jump\t// out\n        /* \"TryCatch.sol\":166:433  function isPrime(uint256 b) internal pure returns (bool) {... */\n    tag_12:\n        /* \"TryCatch.sol\":217:221  bool */\n      0x00\n        /* \"TryCatch.sol\":236:237  1 */\n      0x01\n        /* \"TryCatch.sol\":231:232  b */\n      dup3\n        /* \"TryCatch.sol\":231:237  b <= 1 */\n      gt\n        /* \"TryCatch.sol\":227:258  if (b <= 1) {... */\n      tag_17\n      jumpi\n        /* \"TryCatch.sol\":250:255  false */\n      0x00\n        /* \"TryCatch.sol\":243:255  return false */\n      swap1\n      pop\n      jump(tag_16)\n        /* \"TryCatch.sol\":227:258  if (b <= 1) {... */\n    tag_17:\n        /* \"TryCatch.sol\":270:271  2 */\n      0x02\n        /* \"TryCatch.sol\":265:266  b */\n      dup3\n        /* \"TryCatch.sol\":265:271  b == 2 */\n      sub\n        /* \"TryCatch.sol\":261:291  if (b == 2) {... */\n      tag_18\n      jumpi\n        /* \"TryCatch.sol\":284:288  true */\n      0x01\n        /* \"TryCatch.sol\":277:288  return true */\n      swap1\n      pop\n      jump(tag_16)\n        /* \"TryCatch.sol\":261:291  if (b == 2) {... */\n    tag_18:\n        /* \"TryCatch.sol\":307:308  0 */\n      0x00\n        /* \"TryCatch.sol\":302:303  2 */\n      0x02\n        /* \"TryCatch.sol\":298:299  b */\n      dup4\n        /* \"TryCatch.sol\":298:303  b % 2 */\n      tag_19\n      swap2\n      swap1\n      tag_20\n      jump\t// in\n    tag_19:\n        /* \"TryCatch.sol\":298:308  b % 2 == 0 */\n      sub\n        /* \"TryCatch.sol\":294:329  if (b % 2 == 0) {... */\n      tag_21\n      jumpi\n        /* \"TryCatch.sol\":321:326  false */\n      0x00\n        /* \"TryCatch.sol\":314:326  return false */\n      swap1\n      pop\n      jump(tag_16)\n        /* \"TryCatch.sol\":294:329  if (b % 2 == 0) {... */\n    tag_21:\n        /* \"TryCatch.sol\":337:346  uint256 i */\n      0x00\n        /* \"TryCatch.sol\":349:350  3 */\n      0x03\n        /* \"TryCatch.sol\":337:350  uint256 i = 3 */\n      swap1\n      pop\n        /* \"TryCatch.sol\":332:415  for (uint256 i = 3; i * i <= b; i += 2) {... */\n    tag_22:\n        /* \"TryCatch.sol\":361:362  b */\n      dup3\n        /* \"TryCatch.sol\":356:357  i */\n      dup2\n        /* \"TryCatch.sol\":352:353  i */\n      dup3\n        /* \"TryCatch.sol\":352:357  i * i */\n      tag_25\n      swap2\n      swap1\n      tag_26\n      jump\t// in\n    tag_25:\n        /* \"TryCatch.sol\":352:362  i * i <= b */\n      gt\n        /* \"TryCatch.sol\":332:415  for (uint256 i = 3; i * i <= b; i += 2) {... */\n      tag_23\n      jumpi\n        /* \"TryCatch.sol\":389:390  0 */\n      0x00\n        /* \"TryCatch.sol\":384:385  i */\n      dup2\n        /* \"TryCatch.sol\":380:381  b */\n      dup5\n        /* \"TryCatch.sol\":380:385  b % i */\n      tag_27\n      swap2\n      swap1\n      tag_20\n      jump\t// in\n    tag_27:\n        /* \"TryCatch.sol\":380:390  b % i == 0 */\n      sub\n        /* \"TryCatch.sol\":376:411  if (b % i == 0) {... */\n      tag_28\n      jumpi\n        /* \"TryCatch.sol\":403:408  false */\n      0x00\n        /* \"TryCatch.sol\":396:408  return false */\n      swap2\n      pop\n      pop\n      jump(tag_16)\n        /* \"TryCatch.sol\":376:411  if (b % i == 0) {... */\n    tag_28:\n        /* \"TryCatch.sol\":369:370  2 */\n      0x02\n        /* \"TryCatch.sol\":364:370  i += 2 */\n      dup2\n      tag_29\n      swap2\n      swap1\n      tag_30\n      jump\t// in\n    tag_29:\n      swap1\n      pop\n        /* \"TryCatch.sol\":332:415  for (uint256 i = 3; i * i <= b; i += 2) {... */\n      jump(tag_22)\n    tag_23:\n      pop\n        /* \"TryCatch.sol\":425:429  true */\n      0x01\n        /* \"TryCatch.sol\":418:429  return true */\n      swap1\n      pop\n        /* \"TryCatch.sol\":166:433  function isPrime(uint256 b) internal pure returns (bool) {... */\n    tag_16:\n      swap2\n      swap1\n      pop\n      jump\t// out\n        /* \"#utility.yul\":88:205   */\n    tag_32:\n        /* \"#utility.yul\":197:198   */\n      0x00\n        /* \"#utility.yul\":194:195   */\n      dup1\n        /* \"#utility.yul\":187:199   */\n      revert\n        /* \"#utility.yul\":334:411   */\n    tag_34:\n        /* \"#utility.yul\":371:378   */\n      0x00\n        /* \"#utility.yul\":400:405   */\n      dup2\n        /* \"#utility.yul\":389:405   */\n      swap1\n      pop\n        /* \"#utility.yul\":334:411   */\n      swap2\n      swap1\n      pop\n      jump\t// out\n        /* \"#utility.yul\":417:539   */\n    tag_35:\n        /* \"#utility.yul\":490:514   */\n      tag_50\n        /* \"#utility.yul\":508:513   */\n      dup2\n        /* \"#utility.yul\":490:514   */\n      tag_34\n      jump\t// in\n    tag_50:\n        /* \"#utility.yul\":483:488   */\n      dup2\n        /* \"#utility.yul\":480:515   */\n      eq\n        /* \"#utility.yul\":470:533   */\n      tag_51\n      jumpi\n        /* \"#utility.yul\":529:530   */\n      0x00\n        /* \"#utility.yul\":526:527   */\n      dup1\n        /* \"#utility.yul\":519:531   */\n      revert\n        /* \"#utility.yul\":470:533   */\n    tag_51:\n        /* \"#utility.yul\":417:539   */\n      pop\n      jump\t// out\n        /* \"#utility.yul\":545:684   */\n    tag_36:\n        /* \"#utility.yul\":591:596   */\n      0x00\n        /* \"#utility.yul\":629:635   */\n      dup2\n        /* \"#utility.yul\":616:636   */\n      calldataload\n        /* \"#utility.yul\":607:636   */\n      swap1\n      pop\n        /* \"#utility.yul\":645:678   */\n      tag_53\n        /* \"#utility.yul\":672:677   */\n      dup2\n        /* \"#utility.yul\":645:678   */\n      tag_35\n      jump\t// in\n    tag_53:\n        /* \"#utility.yul\":545:684   */\n      swap3\n      swap2\n      pop\n      pop\n      jump\t// out\n        /* \"#utility.yul\":690:1019   */\n    tag_6:\n        /* \"#utility.yul\":749:755   */\n      0x00\n        /* \"#utility.yul\":798:800   */\n      0x20\n        /* \"#utility.yul\":786:795   */\n      dup3\n        /* \"#utility.yul\":777:784   */\n      dup5\n        /* \"#utility.yul\":773:796   */\n      sub\n        /* \"#utility.yul\":769:801   */\n      slt\n        /* \"#utility.yul\":766:885   */\n      iszero\n      tag_55\n      jumpi\n        /* \"#utility.yul\":804:883   */\n      tag_56\n      tag_32\n      jump\t// in\n    tag_56:\n        /* \"#utility.yul\":766:885   */\n    tag_55:\n        /* \"#utility.yul\":924:925   */\n      0x00\n        /* \"#utility.yul\":949:1002   */\n      tag_57\n        /* \"#utility.yul\":994:1001   */\n      dup5\n        /* \"#utility.yul\":985:991   */\n      dup3\n        /* \"#utility.yul\":974:983   */\n      dup6\n        /* \"#utility.yul\":970:992   */\n      add\n        /* \"#utility.yul\":949:1002   */\n      tag_36\n      jump\t// in\n    tag_57:\n        /* \"#utility.yul\":939:1002   */\n      swap2\n      pop\n        /* \"#utility.yul\":895:1012   */\n      pop\n        /* \"#utility.yul\":690:1019   */\n      swap3\n      swap2\n      pop\n      pop\n      jump\t// out\n        /* \"#utility.yul\":1025:1115   */\n    tag_37:\n        /* \"#utility.yul\":1059:1066   */\n      0x00\n        /* \"#utility.yul\":1102:1107   */\n      dup2\n        /* \"#utility.yul\":1095:1108   */\n      iszero\n        /* \"#utility.yul\":1088:1109   */\n      iszero\n        /* \"#utility.yul\":1077:1109   */\n      swap1\n      pop\n        /* \"#utility.yul\":1025:1115   */\n      swap2\n      swap1\n      pop\n      jump\t// out\n        /* \"#utility.yul\":1121:1230   */\n    tag_38:\n        /* \"#utility.yul\":1202:1223   */\n      tag_60\n        /* \"#utility.yul\":1217:1222   */\n      dup2\n        /* \"#utility.yul\":1202:1223   */\n      tag_37\n      jump\t// in\n    tag_60:\n        /* \"#utility.yul\":1197:1200   */\n      dup3\n        /* \"#utility.yul\":1190:1224   */\n      mstore\n        /* \"#utility.yul\":1121:1230   */\n      pop\n      pop\n      jump\t// out\n        /* \"#utility.yul\":1236:1446   */\n    tag_9:\n        /* \"#utility.yul\":1323:1327   */\n      0x00\n        /* \"#utility.yul\":1361:1363   */\n      0x20\n        /* \"#utility.yul\":1350:1359   */\n      dup3\n        /* \"#utility.yul\":1346:1364   */\n      add\n        /* \"#utility.yul\":1338:1364   */\n      swap1\n      pop\n        /* \"#utility.yul\":1374:1439   */\n      tag_62\n        /* \"#utility.yul\":1436:1437   */\n      0x00\n        /* \"#utility.yul\":1425:1434   */\n      dup4\n        /* \"#utility.yul\":1421:1438   */\n      add\n        /* \"#utility.yul\":1412:1418   */\n      dup5\n        /* \"#utility.yul\":1374:1439   */\n      tag_38\n      jump\t// in\n    tag_62:\n        /* \"#utility.yul\":1236:1446   */\n      swap3\n      swap2\n      pop\n      pop\n      jump\t// out\n        /* \"#utility.yul\":1452:1621   */\n    tag_39:\n        /* \"#utility.yul\":1536:1547   */\n      0x00\n        /* \"#utility.yul\":1570:1576   */\n      dup3\n        /* \"#utility.yul\":1565:1568   */\n      dup3\n        /* \"#utility.yul\":1558:1577   */\n      mstore\n        /* \"#utility.yul\":1610:1614   */\n      0x20\n        /* \"#utility.yul\":1605:1608   */\n      dup3\n        /* \"#utility.yul\":1601:1615   */\n      add\n        /* \"#utility.yul\":1586:1615   */\n      swap1\n      pop\n        /* \"#utility.yul\":1452:1621   */\n      swap3\n      swap2\n      pop\n      pop\n      jump\t// out\n        /* \"#utility.yul\":1627:1791   */\n    tag_40:\n        /* \"#utility.yul\":1767:1783   */\n      0x5570732120526576657274696e67000000000000000000000000000000000000\n        /* \"#utility.yul\":1763:1764   */\n      0x00\n        /* \"#utility.yul\":1755:1761   */\n      dup3\n        /* \"#utility.yul\":1751:1765   */\n      add\n        /* \"#utility.yul\":1744:1784   */\n      mstore\n        /* \"#utility.yul\":1627:1791   */\n      pop\n      jump\t// out\n        /* \"#utility.yul\":1797:2163   */\n    tag_41:\n        /* \"#utility.yul\":1939:1942   */\n      0x00\n        /* \"#utility.yul\":1960:2027   */\n      tag_66\n        /* \"#utility.yul\":2024:2026   */\n      0x0e\n        /* \"#utility.yul\":2019:2022   */\n      dup4\n        /* \"#utility.yul\":1960:2027   */\n      tag_39\n      jump\t// in\n    tag_66:\n        /* \"#utility.yul\":1953:2027   */\n      swap2\n      pop\n        /* \"#utility.yul\":2036:2129   */\n      tag_67\n        /* \"#utility.yul\":2125:2128   */\n      dup3\n        /* \"#utility.yul\":2036:2129   */\n      tag_40\n      jump\t// in\n    tag_67:\n        /* \"#utility.yul\":2154:2156   */\n      0x20\n        /* \"#utility.yul\":2149:2152   */\n      dup3\n        /* \"#utility.yul\":2145:2157   */\n      add\n        /* \"#utility.yul\":2138:2157   */\n      swap1\n      pop\n        /* \"#utility.yul\":1797:2163   */\n      swap2\n      swap1\n      pop\n      jump\t// out\n        /* \"#utility.yul\":2169:2588   */\n    tag_15:\n        /* \"#utility.yul\":2335:2339   */\n      0x00\n        /* \"#utility.yul\":2373:2375   */\n      0x20\n        /* \"#utility.yul\":2362:2371   */\n      dup3\n        /* \"#utility.yul\":2358:2376   */\n      add\n        /* \"#utility.yul\":2350:2376   */\n      swap1\n      pop\n        /* \"#utility.yul\":2422:2431   */\n      dup2\n        /* \"#utility.yul\":2416:2420   */\n      dup2\n        /* \"#utility.yul\":2412:2432   */\n      sub\n        /* \"#utility.yul\":2408:2409   */\n      0x00\n        /* \"#utility.yul\":2397:2406   */\n      dup4\n        /* \"#utility.yul\":2393:2410   */\n      add\n        /* \"#utility.yul\":2386:2433   */\n      mstore\n        /* \"#utility.yul\":2450:2581   */\n      tag_69\n        /* \"#utility.yul\":2576:2580   */\n      dup2\n        /* \"#utility.yul\":2450:2581   */\n      tag_41\n      jump\t// in\n    tag_69:\n        /* \"#utility.yul\":2442:2581   */\n      swap1\n      pop\n        /* \"#utility.yul\":2169:2588   */\n      swap2\n      swap1\n      pop\n      jump\t// out\n        /* \"#utility.yul\":2594:2774   */\n    tag_42:\n        /* \"#utility.yul\":2642:2719   */\n      0x4e487b7100000000000000000000000000000000000000000000000000000000\n        /* \"#utility.yul\":2639:2640   */\n      0x00\n        /* \"#utility.yul\":2632:2720   */\n      mstore\n        /* \"#utility.yul\":2739:2743   */\n      0x12\n        /* \"#utility.yul\":2736:2737   */\n      0x04\n        /* \"#utility.yul\":2729:2744   */\n      mstore\n        /* \"#utility.yul\":2763:2767   */\n      0x24\n        /* \"#utility.yul\":2760:2761   */\n      0x00\n        /* \"#utility.yul\":2753:2768   */\n      revert\n        /* \"#utility.yul\":2780:2956   */\n    tag_20:\n        /* \"#utility.yul\":2812:2813   */\n      0x00\n        /* \"#utility.yul\":2829:2849   */\n      tag_72\n        /* \"#utility.yul\":2847:2848   */\n      dup3\n        /* \"#utility.yul\":2829:2849   */\n      tag_34\n      jump\t// in\n    tag_72:\n        /* \"#utility.yul\":2824:2849   */\n      swap2\n      pop\n        /* \"#utility.yul\":2863:2883   */\n      tag_73\n        /* \"#utility.yul\":2881:2882   */\n      dup4\n        /* \"#utility.yul\":2863:2883   */\n      tag_34\n      jump\t// in\n    tag_73:\n        /* \"#utility.yul\":2858:2883   */\n      swap3\n      pop\n        /* \"#utility.yul\":2902:2903   */\n      dup3\n        /* \"#utility.yul\":2892:2927   */\n      tag_74\n      jumpi\n        /* \"#utility.yul\":2907:2925   */\n      tag_75\n      tag_42\n      jump\t// in\n    tag_75:\n        /* \"#utility.yul\":2892:2927   */\n    tag_74:\n        /* \"#utility.yul\":2948:2949   */\n      dup3\n        /* \"#utility.yul\":2945:2946   */\n      dup3\n        /* \"#utility.yul\":2941:2950   */\n      mod\n        /* \"#utility.yul\":2936:2950   */\n      swap1\n      pop\n        /* \"#utility.yul\":2780:2956   */\n      swap3\n      swap2\n      pop\n      pop\n      jump\t// out\n        /* \"#utility.yul\":2962:3142   */\n    tag_43:\n        /* \"#utility.yul\":3010:3087   */\n      0x4e487b7100000000000000000000000000000000000000000000000000000000\n        /* \"#utility.yul\":3007:3008   */\n      0x00\n        /* \"#utility.yul\":3000:3088   */\n      mstore\n        /* \"#utility.yul\":3107:3111   */\n      0x11\n        /* \"#utility.yul\":3104:3105   */\n      0x04\n        /* \"#utility.yul\":3097:3112   */\n      mstore\n        /* \"#utility.yul\":3131:3135   */\n      0x24\n        /* \"#utility.yul\":3128:3129   */\n      0x00\n        /* \"#utility.yul\":3121:3136   */\n      revert\n        /* \"#utility.yul\":3148:3558   */\n    tag_26:\n        /* \"#utility.yul\":3188:3195   */\n      0x00\n        /* \"#utility.yul\":3211:3231   */\n      tag_78\n        /* \"#utility.yul\":3229:3230   */\n      dup3\n        /* \"#utility.yul\":3211:3231   */\n      tag_34\n      jump\t// in\n    tag_78:\n        /* \"#utility.yul\":3206:3231   */\n      swap2\n      pop\n        /* \"#utility.yul\":3245:3265   */\n      tag_79\n        /* \"#utility.yul\":3263:3264   */\n      dup4\n        /* \"#utility.yul\":3245:3265   */\n      tag_34\n      jump\t// in\n    tag_79:\n        /* \"#utility.yul\":3240:3265   */\n      swap3\n      pop\n        /* \"#utility.yul\":3300:3301   */\n      dup3\n        /* \"#utility.yul\":3297:3298   */\n      dup3\n        /* \"#utility.yul\":3293:3302   */\n      mul\n        /* \"#utility.yul\":3322:3352   */\n      tag_80\n        /* \"#utility.yul\":3340:3351   */\n      dup2\n        /* \"#utility.yul\":3322:3352   */\n      tag_34\n      jump\t// in\n    tag_80:\n        /* \"#utility.yul\":3311:3352   */\n      swap2\n      pop\n        /* \"#utility.yul\":3501:3502   */\n      dup3\n        /* \"#utility.yul\":3492:3499   */\n      dup3\n        /* \"#utility.yul\":3488:3503   */\n      div\n        /* \"#utility.yul\":3485:3486   */\n      dup5\n        /* \"#utility.yul\":3482:3504   */\n      eq\n        /* \"#utility.yul\":3462:3463   */\n      dup4\n        /* \"#utility.yul\":3455:3464   */\n      iszero\n        /* \"#utility.yul\":3435:3518   */\n      or\n        /* \"#utility.yul\":3412:3551   */\n      tag_81\n      jumpi\n        /* \"#utility.yul\":3531:3549   */\n      tag_82\n      tag_43\n      jump\t// in\n    tag_82:\n        /* \"#utility.yul\":3412:3551   */\n    tag_81:\n        /* \"#utility.yul\":3196:3558   */\n      pop\n        /* \"#utility.yul\":3148:3558   */\n      swap3\n      swap2\n      pop\n      pop\n      jump\t// out\n        /* \"#utility.yul\":3564:3755   */\n    tag_30:\n        /* \"#utility.yul\":3604:3607   */\n      0x00\n        /* \"#utility.yul\":3623:3643   */\n      tag_84\n        /* \"#utility.yul\":3641:3642   */\n      dup3\n        /* \"#utility.yul\":3623:3643   */\n      tag_34\n      jump\t// in\n    tag_84:\n        /* \"#utility.yul\":3618:3643   */\n      swap2\n      pop\n        /* \"#utility.yul\":3657:3677   */\n      tag_85\n        /* \"#utility.yul\":3675:3676   */\n      dup4\n        /* \"#utility.yul\":3657:3677   */\n      tag_34\n      jump\t// in\n    tag_85:\n        /* \"#utility.yul\":3652:3677   */\n      swap3\n      pop\n        /* \"#utility.yul\":3700:3701   */\n      dup3\n        /* \"#utility.yul\":3697:3698   */\n      dup3\n        /* \"#utility.yul\":3693:3702   */\n      add\n        /* \"#utility.yul\":3686:3702   */\n      swap1\n      pop\n        /* \"#utility.yul\":3721:3724   */\n      dup1\n        /* \"#utility.yul\":3718:3719   */\n      dup3\n        /* \"#utility.yul\":3715:3725   */\n      gt\n        /* \"#utility.yul\":3712:3748   */\n      iszero\n      tag_86\n      jumpi\n        /* \"#utility.yul\":3728:3746   */\n      tag_87\n      tag_43\n      jump\t// in\n    tag_87:\n        /* \"#utility.yul\":3712:3748   */\n    tag_86:\n        /* \"#utility.yul\":3564:3755   */\n      swap3\n      swap2\n      pop\n      pop\n      jump\t// out\n\n    auxdata: 0xa2646970667358221220cc0082d60790c83d0341f8fbd2a60cea657859bd6def0302a192e2559fc6e2ca64736f6c63430008140033\n}\n",
				"bytecode": {
					"linkReferences": {},
					"object": "608060405234801561000f575f80fd5b5060405161051d38038061051d833981810160405281019061003191906100c1565b5f8103610073576040517f08c379a000000000000000000000000000000000000000000000000000000000815260040161006a90610146565b60405180910390fd5b6001810361008457610083610164565b5b50610191565b5f80fd5b5f819050919050565b6100a08161008e565b81146100aa575f80fd5b50565b5f815190506100bb81610097565b92915050565b5f602082840312156100d6576100d561008a565b5b5f6100e3848285016100ad565b91505092915050565b5f82825260208201905092915050565b7f496e76616c696420456e747279000000000000000000000000000000000000005f82015250565b5f610130600d836100ec565b915061013b826100fc565b602082019050919050565b5f6020820190508181035f83015261015d81610124565b9050919050565b7f4e487b71000000000000000000000000000000000000000000000000000000005f52600160045260245ffd5b61037f8061019e5f395ff3fe608060405234801561000f575f80fd5b5060043610610029575f3560e01c806305f5b3eb1461002d575b5f80fd5b61004760048036038101906100429190610175565b61005d565b60405161005491906101ba565b60405180910390f35b5f610067826100af565b6100a6576040517f08c379a000000000000000000000000000000000000000000000000000000000815260040161009d9061022d565b60405180910390fd5b60019050919050565b5f600182116100c0575f9050610139565b600282036100d15760019050610139565b5f6002836100df9190610278565b036100ec575f9050610139565b5f600390505b8281826100ff91906102d5565b11610133575f81846101119190610278565b0361011f575f915050610139565b60028161012c9190610316565b90506100f2565b50600190505b919050565b5f80fd5b5f819050919050565b61015481610142565b811461015e575f80fd5b50565b5f8135905061016f8161014b565b92915050565b5f6020828403121561018a5761018961013e565b5b5f61019784828501610161565b91505092915050565b5f8115159050919050565b6101b4816101a0565b82525050565b5f6020820190506101cd5f8301846101ab565b92915050565b5f82825260208201905092915050565b7f5570732120526576657274696e670000000000000000000000000000000000005f82015250565b5f610217600e836101d3565b9150610222826101e3565b602082019050919050565b5f6020820190508181035f8301526102448161020b565b9050919050565b7f4e487b71000000000000000000000000000000000000000000000000000000005f52601260045260245ffd5b5f61028282610142565b915061028d83610142565b92508261029d5761029c61024b565b5b828206905092915050565b7f4e487b71000000000000000000000000000000000000000000000000000000005f52601160045260245ffd5b5f6102df82610142565b91506102ea83610142565b92508282026102f881610142565b9150828204841483151761030f5761030e6102a8565b5b5092915050565b5f61032082610142565b915061032b83610142565b9250828201905080821115610343576103426102a8565b5b9291505056fea2646970667358221220cc0082d60790c83d0341f8fbd2a60cea657859bd6def0302a192e2559fc6e2ca64736f6c63430008140033",
					"opcodes": "PUSH1 0x80 PUSH1 0x40 MSTORE CALLVALUE DUP1 ISZERO PUSH2 0xF JUMPI PUSH0 DUP1 REVERT JUMPDEST POP PUSH1 0x40 MLOAD PUSH2 0x51D CODESIZE SUB DUP1 PUSH2 0x51D DUP4 CODECOPY DUP2 DUP2 ADD PUSH1 0x40 MSTORE DUP2 ADD SWAP1 PUSH2 0x31 SWAP2 SWAP1 PUSH2 0xC1 JUMP JUMPDEST PUSH0 DUP2 SUB PUSH2 0x73 JUMPI PUSH1 0x40 MLOAD PUSH32 0x8C379A000000000000000000000000000000000000000000000000000000000 DUP2 MSTORE PUSH1 0x4 ADD PUSH2 0x6A SWAP1 PUSH2 0x146 JUMP JUMPDEST PUSH1 0x40 MLOAD DUP1 SWAP2 SUB SWAP1 REVERT JUMPDEST PUSH1 0x1 DUP2 SUB PUSH2 0x84 JUMPI PUSH2 0x83 PUSH2 0x164 JUMP JUMPDEST JUMPDEST POP PUSH2 0x191 JUMP JUMPDEST PUSH0 DUP1 REVERT JUMPDEST PUSH0 DUP2 SWAP1 POP SWAP2 SWAP1 POP JUMP JUMPDEST PUSH2 0xA0 DUP2 PUSH2 0x8E JUMP JUMPDEST DUP2 EQ PUSH2 0xAA JUMPI PUSH0 DUP1 REVERT JUMPDEST POP JUMP JUMPDEST PUSH0 DUP2 MLOAD SWAP1 POP PUSH2 0xBB DUP2 PUSH2 0x97 JUMP JUMPDEST SWAP3 SWAP2 POP POP JUMP JUMPDEST PUSH0 PUSH1 0x20 DUP3 DUP5 SUB SLT ISZERO PUSH2 0xD6 JUMPI PUSH2 0xD5 PUSH2 0x8A JUMP JUMPDEST JUMPDEST PUSH0 PUSH2 0xE3 DUP5 DUP3 DUP6 ADD PUSH2 0xAD JUMP JUMPDEST SWAP2 POP POP SWAP3 SWAP2 POP POP JUMP JUMPDEST PUSH0 DUP3 DUP3 MSTORE PUSH1 0x20 DUP3 ADD SWAP1 POP SWAP3 SWAP2 POP POP JUMP JUMPDEST PUSH32 0x496E76616C696420456E74727900000000000000000000000000000000000000 PUSH0 DUP3 ADD MSTORE POP JUMP JUMPDEST PUSH0 PUSH2 0x130 PUSH1 0xD DUP4 PUSH2 0xEC JUMP JUMPDEST SWAP2 POP PUSH2 0x13B DUP3 PUSH2 0xFC JUMP JUMPDEST PUSH1 0x20 DUP3 ADD SWAP1 POP SWAP2 SWAP1 POP JUMP JUMPDEST PUSH0 PUSH1 0x20 DUP3 ADD SWAP1 POP DUP2 DUP2 SUB PUSH0 DUP4 ADD MSTORE PUSH2 0x15D DUP2 PUSH2 0x124 JUMP JUMPDEST SWAP1 POP SWAP2 SWAP1 POP JUMP JUMPDEST PUSH32 0x4E487B7100000000000000000000000000000000000000000000000000000000 PUSH0 MSTORE PUSH1 0x1 PUSH1 0x4 MSTORE PUSH1 0x24 PUSH0 REVERT JUMPDEST PUSH2 0x37F DUP1 PUSH2 0x19E PUSH0 CODECOPY PUSH0 RETURN INVALID PUSH1 0x80 PUSH1 0x40 MSTORE CALLVALUE DUP1 ISZERO PUSH2 0xF JUMPI PUSH0 DUP1 REVERT JUMPDEST POP PUSH1 0x4 CALLDATASIZE LT PUSH2 0x29 JUMPI PUSH0 CALLDATALOAD PUSH1 0xE0 SHR DUP1 PUSH4 0x5F5B3EB EQ PUSH2 0x2D JUMPI JUMPDEST PUSH0 DUP1 REVERT JUMPDEST PUSH2 0x47 PUSH1 0x4 DUP1 CALLDATASIZE SUB DUP2 ADD SWAP1 PUSH2 0x42 SWAP2 SWAP1 PUSH2 0x175 JUMP JUMPDEST PUSH2 0x5D JUMP JUMPDEST PUSH1 0x40 MLOAD PUSH2 0x54 SWAP2 SWAP1 PUSH2 0x1BA JUMP JUMPDEST PUSH1 0x40 MLOAD DUP1 SWAP2 SUB SWAP1 RETURN JUMPDEST PUSH0 PUSH2 0x67 DUP3 PUSH2 0xAF JUMP JUMPDEST PUSH2 0xA6 JUMPI PUSH1 0x40 MLOAD PUSH32 0x8C379A000000000000000000000000000000000000000000000000000000000 DUP2 MSTORE PUSH1 0x4 ADD PUSH2 0x9D SWAP1 PUSH2 0x22D JUMP JUMPDEST PUSH1 0x40 MLOAD DUP1 SWAP2 SUB SWAP1 REVERT JUMPDEST PUSH1 0x1 SWAP1 POP SWAP2 SWAP1 POP JUMP JUMPDEST PUSH0 PUSH1 0x1 DUP3 GT PUSH2 0xC0 JUMPI PUSH0 SWAP1 POP PUSH2 0x139 JUMP JUMPDEST PUSH1 0x2 DUP3 SUB PUSH2 0xD1 JUMPI PUSH1 0x1 SWAP1 POP PUSH2 0x139 JUMP JUMPDEST PUSH0 PUSH1 0x2 DUP4 PUSH2 0xDF SWAP2 SWAP1 PUSH2 0x278 JUMP JUMPDEST SUB PUSH2 0xEC JUMPI PUSH0 SWAP1 POP PUSH2 0x139 JUMP JUMPDEST PUSH0 PUSH1 0x3 SWAP1 POP JUMPDEST DUP3 DUP2 DUP3 PUSH2 0xFF SWAP2 SWAP1 PUSH2 0x2D5 JUMP JUMPDEST GT PUSH2 0x133 JUMPI PUSH0 DUP2 DUP5 PUSH2 0x111 SWAP2 SWAP1 PUSH2 0x278 JUMP JUMPDEST SUB PUSH2 0x11F JUMPI PUSH0 SWAP2 POP POP PUSH2 0x139 JUMP JUMPDEST PUSH1 0x2 DUP2 PUSH2 0x12C SWAP2 SWAP1 PUSH2 0x316 JUMP JUMPDEST SWAP1 POP PUSH2 0xF2 JUMP JUMPDEST POP PUSH1 0x1 SWAP1 POP JUMPDEST SWAP2 SWAP1 POP JUMP JUMPDEST PUSH0 DUP1 REVERT JUMPDEST PUSH0 DUP2 SWAP1 POP SWAP2 SWAP1 POP JUMP JUMPDEST PUSH2 0x154 DUP2 PUSH2 0x142 JUMP JUMPDEST DUP2 EQ PUSH2 0x15E JUMPI PUSH0 DUP1 REVERT JUMPDEST POP JUMP JUMPDEST PUSH0 DUP2 CALLDATALOAD SWAP1 POP PUSH2 0x16F DUP2 PUSH2 0x14B JUMP JUMPDEST SWAP3 SWAP2 POP POP JUMP JUMPDEST PUSH0 PUSH1 0x20 DUP3 DUP5 SUB SLT ISZERO PUSH2 0x18A JUMPI PUSH2 0x189 PUSH2 0x13E JUMP JUMPDEST JUMPDEST PUSH0 PUSH2 0x197 DUP5 DUP3 DUP6 ADD PUSH2 0x161 JUMP JUMPDEST SWAP2 POP POP SWAP3 SWAP2 POP POP JUMP JUMPDEST PUSH0 DUP2 ISZERO ISZERO SWAP1 POP SWAP2 SWAP1 POP JUMP JUMPDEST PUSH2 0x1B4 DUP2 PUSH2 0x1A0 JUMP JUMPDEST DUP3 MSTORE POP POP JUMP JUMPDEST PUSH0 PUSH1 0x20 DUP3 ADD SWAP1 POP PUSH2 0x1CD PUSH0 DUP4 ADD DUP5 PUSH2 0x1AB JUMP JUMPDEST SWAP3 SWAP2 POP POP JUMP JUMPDEST PUSH0 DUP3 DUP3 MSTORE PUSH1 0x20 DUP3 ADD SWAP1 POP SWAP3 SWAP2 POP POP JUMP JUMPDEST PUSH32 0x5570732120526576657274696E67000000000000000000000000000000000000 PUSH0 DUP3 ADD MSTORE POP JUMP JUMPDEST PUSH0 PUSH2 0x217 PUSH1 0xE DUP4 PUSH2 0x1D3 JUMP JUMPDEST SWAP2 POP PUSH2 0x222 DUP3 PUSH2 0x1E3 JUMP JUMPDEST PUSH1 0x20 DUP3 ADD SWAP1 POP SWAP2 SWAP1 POP JUMP JUMPDEST PUSH0 PUSH1 0x20 DUP3 ADD SWAP1 POP DUP2 DUP2 SUB PUSH0 DUP4 ADD MSTORE PUSH2 0x244 DUP2 PUSH2 0x20B JUMP JUMPDEST SWAP1 POP SWAP2 SWAP1 POP JUMP JUMPDEST PUSH32 0x4E487B7100000000000000000000000000000000000000000000000000000000 PUSH0 MSTORE PUSH1 0x12 PUSH1 0x4 MSTORE PUSH1 0x24 PUSH0 REVERT JUMPDEST PUSH0 PUSH2 0x282 DUP3 PUSH2 0x142 JUMP JUMPDEST SWAP2 POP PUSH2 0x28D DUP4 PUSH2 0x142 JUMP JUMPDEST SWAP3 POP DUP3 PUSH2 0x29D JUMPI PUSH2 0x29C PUSH2 0x24B JUMP JUMPDEST JUMPDEST DUP3 DUP3 MOD SWAP1 POP SWAP3 SWAP2 POP POP JUMP JUMPDEST PUSH32 0x4E487B7100000000000000000000000000000000000000000000000000000000 PUSH0 MSTORE PUSH1 0x11 PUSH1 0x4 MSTORE PUSH1 0x24 PUSH0 REVERT JUMPDEST PUSH0 PUSH2 0x2DF DUP3 PUSH2 0x142 JUMP JUMPDEST SWAP2 POP PUSH2 0x2EA DUP4 PUSH2 0x142 JUMP JUMPDEST SWAP3 POP DUP3 DUP3 MUL PUSH2 0x2F8 DUP2 PUSH2 0x142 JUMP JUMPDEST SWAP2 POP DUP3 DUP3 DIV DUP5 EQ DUP4 ISZERO OR PUSH2 0x30F JUMPI PUSH2 0x30E PUSH2 0x2A8 JUMP JUMPDEST JUMPDEST POP SWAP3 SWAP2 POP POP JUMP JUMPDEST PUSH0 PUSH2 0x320 DUP3 PUSH2 0x142 JUMP JUMPDEST SWAP2 POP PUSH2 0x32B DUP4 PUSH2 0x142 JUMP JUMPDEST SWAP3 POP DUP3 DUP3 ADD SWAP1 POP DUP1 DUP3 GT ISZERO PUSH2 0x343 JUMPI PUSH2 0x342 PUSH2 0x2A8 JUMP JUMPDEST JUMPDEST SWAP3 SWAP2 POP POP JUMP INVALID LOG2 PUSH5 0x6970667358 0x22 SLT KECCAK256 0xCC STOP DUP3 0xD6 SMOD SWAP1 0xC8 RETURNDATASIZE SUB COINBASE 0xF8 0xFB 0xD2 0xA6 0xC 0xEA PUSH6 0x7859BD6DEF03 MUL LOG1 SWAP3 0xE2 SSTORE SWAP16 0xC6 0xE2 0xCA PUSH5 0x736F6C6343 STOP ADDMOD EQ STOP CALLER "
				},
				"gasEstimates": {
					"creation": {
						"codeDepositCost": "179000",
						"executionCost": "infinite",
						"totalCost": "infinite"
					},
					"external": {
						"onlyPrime(uint256)": "infinite"
					},
					"internal": {
						"isPrime(uint256)": "infinite"
					}
				},
				"methodIdentifiers": {
					"onlyPrime(uint256)": "05f5b3eb"
				}
			},
			"storageLayout": {
				"storage": [],
				"types": null
			},
			"userdoc": {
				"kind": "user",
				"methods": {},
				"version": 1
			}
		}
	}
}