{
	"TryCatch.sol": {
		"TryCatch": {
			"abi": [
				{
					"inputs": [],
					"stateMutability": "nonpayable",
					"type": "constructor"
				},
				{
					"anonymous": false,
					"inputs": [
						{
							"indexed": false,
							"internalType": "bytes",
							"name": "data",
							"type": "bytes"
						}
					],
					"name": "CatchByte",
					"type": "event"
				},
				{
					"anonymous": false,
					"inputs": [
						{
							"indexed": false,
							"internalType": "string",
							"name": "message",
							"type": "string"
						}
					],
					"name": "CatchEvent",
					"type": "event"
				},
				{
					"anonymous": false,
					"inputs": [],
					"name": "SuccessEvent",
					"type": "event"
				},
				{
					"inputs": [
						{
							"internalType": "uint256",
							"name": "amount",
							"type": "uint256"
						}
					],
					"name": "execute",
					"outputs": [
						{
							"internalType": "bool",
							"name": "success",
							"type": "bool"
						}
					],
					"stateMutability": "nonpayable",
					"type": "function"
				},
				{
					"inputs": [
						{
							"internalType": "uint256",
							"name": "a",
							"type": "uint256"
						}
					],
					"name": "executeNew",
					"outputs": [
						{
							"internalType": "bool",
							"name": "success",
							"type": "bool"
						}
					],
					"stateMutability": "nonpayable",
					"type": "function"
				}
			],
			"devdoc": {
				"kind": "dev",
				"methods": {},
				"version": 1
			},
			"evm": {
				"assembly": "    /* \"TryCatch.sol\":618:1446  contract TryCatch {... */\n  mstore(0x40, 0x80)\n    /* \"TryCatch.sol\":790:839  constructor() {... */\n  callvalue\n  dup1\n  iszero\n  tag_1\n  jumpi\n  0x00\n  dup1\n  revert\ntag_1:\n  pop\n    /* \"TryCatch.sol\":832:833  2 */\n  0x02\n    /* \"TryCatch.sol\":815:834  new PrimeChecker(2) */\n  mload(0x40)\n  tag_4\n  swap1\n  tag_5\n  jump\t// in\ntag_4:\n  tag_6\n  swap2\n  swap1\n  tag_7\n  jump\t// in\ntag_6:\n  mload(0x40)\n  dup1\n  swap2\n  sub\n  swap1\n  0x00\n  create\n  dup1\n  iszero\n  dup1\n  iszero\n  tag_8\n  jumpi\n  returndatasize\n  0x00\n  dup1\n  returndatacopy\n  revert(0x00, returndatasize)\ntag_8:\n  pop\n    /* \"TryCatch.sol\":808:812  even */\n  0x00\n  dup1\n    /* \"TryCatch.sol\":808:834  even = new PrimeChecker(2) */\n  0x0100\n  exp\n  dup2\n  sload\n  dup2\n  0xffffffffffffffffffffffffffffffffffffffff\n  mul\n  not\n  and\n  swap1\n  dup4\n  0xffffffffffffffffffffffffffffffffffffffff\n  and\n  mul\n  or\n  swap1\n  sstore\n  pop\n    /* \"TryCatch.sol\":618:1446  contract TryCatch {... */\n  jump(tag_9)\ntag_5:\n  dataSize(sub_1)\n  dup1\n  dataOffset(sub_1)\n  dup4\n  codecopy\n  add\n  swap1\n  jump\t// out\n    /* \"#utility.yul\":7:92   */\ntag_10:\n    /* \"#utility.yul\":52:59   */\n  0x00\n    /* \"#utility.yul\":81:86   */\n  dup2\n    /* \"#utility.yul\":70:86   */\n  swap1\n  pop\n    /* \"#utility.yul\":7:92   */\n  swap2\n  swap1\n  pop\n  jump\t// out\n    /* \"#utility.yul\":98:175   */\ntag_11:\n    /* \"#utility.yul\":135:142   */\n  0x00\n    /* \"#utility.yul\":164:169   */\n  dup2\n    /* \"#utility.yul\":153:169   */\n  swap1\n  pop\n    /* \"#utility.yul\":98:175   */\n  swap2\n  swap1\n  pop\n  jump\t// out\n    /* \"#utility.yul\":181:241   */\ntag_12:\n    /* \"#utility.yul\":209:212   */\n  0x00\n    /* \"#utility.yul\":230:235   */\n  dup2\n    /* \"#utility.yul\":223:235   */\n  swap1\n  pop\n    /* \"#utility.yul\":181:241   */\n  swap2\n  swap1\n  pop\n  jump\t// out\n    /* \"#utility.yul\":247:405   */\ntag_13:\n    /* \"#utility.yul\":305:314   */\n  0x00\n    /* \"#utility.yul\":338:399   */\n  tag_20\n    /* \"#utility.yul\":356:398   */\n  tag_21\n    /* \"#utility.yul\":365:397   */\n  tag_22\n    /* \"#utility.yul\":391:396   */\n  dup5\n    /* \"#utility.yul\":365:397   */\n  tag_10\n  jump\t// in\ntag_22:\n    /* \"#utility.yul\":356:398   */\n  tag_12\n  jump\t// in\ntag_21:\n    /* \"#utility.yul\":338:399   */\n  tag_11\n  jump\t// in\ntag_20:\n    /* \"#utility.yul\":325:399   */\n  swap1\n  pop\n    /* \"#utility.yul\":247:405   */\n  swap2\n  swap1\n  pop\n  jump\t// out\n    /* \"#utility.yul\":411:558   */\ntag_14:\n    /* \"#utility.yul\":506:551   */\n  tag_24\n    /* \"#utility.yul\":545:550   */\n  dup2\n    /* \"#utility.yul\":506:551   */\n  tag_13\n  jump\t// in\ntag_24:\n    /* \"#utility.yul\":501:504   */\n  dup3\n    /* \"#utility.yul\":494:552   */\n  mstore\n    /* \"#utility.yul\":411:558   */\n  pop\n  pop\n  jump\t// out\n    /* \"#utility.yul\":564:802   */\ntag_7:\n    /* \"#utility.yul\":665:669   */\n  0x00\n    /* \"#utility.yul\":703:705   */\n  0x20\n    /* \"#utility.yul\":692:701   */\n  dup3\n    /* \"#utility.yul\":688:706   */\n  add\n    /* \"#utility.yul\":680:706   */\n  swap1\n  pop\n    /* \"#utility.yul\":716:795   */\n  tag_26\n    /* \"#utility.yul\":792:793   */\n  0x00\n    /* \"#utility.yul\":781:790   */\n  dup4\n    /* \"#utility.yul\":777:794   */\n  add\n    /* \"#utility.yul\":768:774   */\n  dup5\n    /* \"#utility.yul\":716:795   */\n  tag_14\n  jump\t// in\ntag_26:\n    /* \"#utility.yul\":564:802   */\n  swap3\n  swap2\n  pop\n  pop\n  jump\t// out\n    /* \"TryCatch.sol\":618:1446  contract TryCatch {... */\ntag_9:\n  dataSize(sub_0)\n  dup1\n  dataOffset(sub_0)\n  0x00\n  codecopy\n  0x00\n  return\nstop\n\nsub_0: assembly {\n        /* \"TryCatch.sol\":618:1446  contract TryCatch {... */\n      mstore(0x40, 0x80)\n      callvalue\n      dup1\n      iszero\n      tag_1\n      jumpi\n      0x00\n      dup1\n      revert\n    tag_1:\n      pop\n      jumpi(tag_2, lt(calldatasize, 0x04))\n      shr(0xe0, calldataload(0x00))\n      dup1\n      0x60ebc172\n      eq\n      tag_3\n      jumpi\n      dup1\n      0xfe0d94c1\n      eq\n      tag_4\n      jumpi\n    tag_2:\n      0x00\n      dup1\n      revert\n        /* \"TryCatch.sol\":1110:1443  function executeNew(uint a) external returns (bool success) {... */\n    tag_3:\n      tag_5\n      0x04\n      dup1\n      calldatasize\n      sub\n      dup2\n      add\n      swap1\n      tag_6\n      swap2\n      swap1\n      tag_7\n      jump\t// in\n    tag_6:\n      tag_8\n      jump\t// in\n    tag_5:\n      mload(0x40)\n      tag_9\n      swap2\n      swap1\n      tag_10\n      jump\t// in\n    tag_9:\n      mload(0x40)\n      dup1\n      swap2\n      sub\n      swap1\n      return\n        /* \"TryCatch.sol\":848:1102  function execute(uint amount) external returns (bool success) {... */\n    tag_4:\n      tag_11\n      0x04\n      dup1\n      calldatasize\n      sub\n      dup2\n      add\n      swap1\n      tag_12\n      swap2\n      swap1\n      tag_7\n      jump\t// in\n    tag_12:\n      tag_13\n      jump\t// in\n    tag_11:\n      mload(0x40)\n      tag_14\n      swap2\n      swap1\n      tag_10\n      jump\t// in\n    tag_14:\n      mload(0x40)\n      dup1\n      swap2\n      sub\n      swap1\n      return\n        /* \"TryCatch.sol\":1110:1443  function executeNew(uint a) external returns (bool success) {... */\n    tag_8:\n        /* \"TryCatch.sol\":1156:1168  bool success */\n      0x00\n        /* \"TryCatch.sol\":1198:1199  a */\n      dup2\n        /* \"TryCatch.sol\":1181:1200  new PrimeChecker(a) */\n      mload(0x40)\n      tag_16\n      swap1\n      tag_17\n      jump\t// in\n    tag_16:\n      tag_18\n      swap2\n      swap1\n      tag_19\n      jump\t// in\n    tag_18:\n      mload(0x40)\n      dup1\n      swap2\n      sub\n      swap1\n      0x00\n      create\n      dup1\n      iszero\n      tag_20\n      jumpi\n      0x01\n    tag_20:\n        /* \"TryCatch.sol\":1177:1439  try new PrimeChecker(a) returns(PrimeChecker _even){... */\n      tag_21\n      jumpi\n      tag_25\n      tag_26\n      jump\t// in\n    tag_25:\n      dup1\n      0x08c379a0\n      sub\n      tag_24\n      jumpi\n      pop\n      tag_27\n      tag_28\n      jump\t// in\n    tag_27:\n      dup1\n      tag_29\n      jumpi\n      pop\n      jump(tag_23)\n    tag_29:\n        /* \"TryCatch.sol\":1354:1372  CatchEvent(reason) */\n      0xb761112ad379c509744de8d585702b0d2694d4ceaef85ad50d452ff06821a6a6\n        /* \"TryCatch.sol\":1365:1371  reason */\n      dup2\n        /* \"TryCatch.sol\":1354:1372  CatchEvent(reason) */\n      mload(0x40)\n      tag_30\n      swap2\n      swap1\n      tag_31\n      jump\t// in\n    tag_30:\n      mload(0x40)\n      dup1\n      swap2\n      sub\n      swap1\n      log1\n        /* \"TryCatch.sol\":1311:1377  catch Error(string memory reason) {... */\n      pop\n        /* \"TryCatch.sol\":1177:1439  try new PrimeChecker(a) returns(PrimeChecker _even){... */\n      jump(tag_22)\n    tag_24:\n      pop\n    tag_23:\n      returndatasize\n      dup1\n      0x00\n      dup2\n      eq\n      tag_33\n      jumpi\n      mload(0x40)\n      swap2\n      pop\n      and(add(returndatasize, 0x3f), not(0x1f))\n      dup3\n      add\n      0x40\n      mstore\n      returndatasize\n      dup3\n      mstore\n      returndatasize\n      0x00\n      0x20\n      dup5\n      add\n      returndatacopy\n      jump(tag_32)\n    tag_33:\n      0x60\n      swap2\n      pop\n    tag_32:\n      pop\n        /* \"TryCatch.sol\":1417:1434  CatchByte(reason) */\n      0xb6f66868478aebcea8c7a15c8c7dd37a513a4127424642ee3573117b52fa3e39\n        /* \"TryCatch.sol\":1427:1433  reason */\n      dup2\n        /* \"TryCatch.sol\":1417:1434  CatchByte(reason) */\n      mload(0x40)\n      tag_34\n      swap2\n      swap1\n      tag_35\n      jump\t// in\n    tag_34:\n      mload(0x40)\n      dup1\n      swap2\n      sub\n      swap1\n      log1\n        /* \"TryCatch.sol\":1380:1439  catch (bytes memory reason) {... */\n      pop\n        /* \"TryCatch.sol\":1177:1439  try new PrimeChecker(a) returns(PrimeChecker _even){... */\n    tag_22:\n      jump(tag_36)\n    tag_21:\n        /* \"TryCatch.sol\":1259:1273  SuccessEvent() */\n      0xfd76336752e93f2cc77cf13a41be8b6c156731030376354d634d28a9a87b9162\n      mload(0x40)\n      mload(0x40)\n      dup1\n      swap2\n      sub\n      swap1\n      log1\n        /* \"TryCatch.sol\":1287:1292  _even */\n      dup1\n        /* \"TryCatch.sol\":1287:1302  _even.onlyPrime */\n      0xffffffffffffffffffffffffffffffffffffffff\n      and\n      0x05f5b3eb\n        /* \"TryCatch.sol\":1303:1304  a */\n      dup5\n        /* \"TryCatch.sol\":1287:1305  _even.onlyPrime(a) */\n      mload(0x40)\n      dup3\n      0xffffffff\n      and\n      0xe0\n      shl\n      dup2\n      mstore\n      0x04\n      add\n      tag_37\n      swap2\n      swap1\n      tag_19\n      jump\t// in\n    tag_37:\n      0x20\n      mload(0x40)\n      dup1\n      dup4\n      sub\n      dup2\n      dup7\n      gas\n      staticcall\n      iszero\n      dup1\n      iszero\n      tag_39\n      jumpi\n      returndatasize\n      0x00\n      dup1\n      returndatacopy\n      revert(0x00, returndatasize)\n    tag_39:\n      pop\n      pop\n      pop\n      pop\n      mload(0x40)\n      returndatasize\n      not(0x1f)\n      0x1f\n      dup3\n      add\n      and\n      dup3\n      add\n      dup1\n      0x40\n      mstore\n      pop\n      dup2\n      add\n      swap1\n      tag_40\n      swap2\n      swap1\n      tag_41\n      jump\t// in\n    tag_40:\n        /* \"TryCatch.sol\":1277:1305  success = _even.onlyPrime(a) */\n      swap2\n      pop\n        /* \"TryCatch.sol\":1201:1310  returns(PrimeChecker _even){... */\n      pop\n        /* \"TryCatch.sol\":1177:1439  try new PrimeChecker(a) returns(PrimeChecker _even){... */\n    tag_36:\n        /* \"TryCatch.sol\":1110:1443  function executeNew(uint a) external returns (bool success) {... */\n      swap2\n      swap1\n      pop\n      jump\t// out\n        /* \"TryCatch.sol\":848:1102  function execute(uint amount) external returns (bool success) {... */\n    tag_13:\n        /* \"TryCatch.sol\":896:908  bool success */\n      0x00\n        /* \"TryCatch.sol\":921:925  even */\n      dup1\n      0x00\n      swap1\n      sload\n      swap1\n      0x0100\n      exp\n      swap1\n      div\n      0xffffffffffffffffffffffffffffffffffffffff\n      and\n        /* \"TryCatch.sol\":921:935  even.onlyPrime */\n      0xffffffffffffffffffffffffffffffffffffffff\n      and\n      0x05f5b3eb\n        /* \"TryCatch.sol\":936:942  amount */\n      dup4\n        /* \"TryCatch.sol\":921:943  even.onlyPrime(amount) */\n      mload(0x40)\n      dup3\n      0xffffffff\n      and\n      0xe0\n      shl\n      dup2\n      mstore\n      0x04\n      add\n      tag_43\n      swap2\n      swap1\n      tag_19\n      jump\t// in\n    tag_43:\n      0x20\n      mload(0x40)\n      dup1\n      dup4\n      sub\n      dup2\n      dup7\n      gas\n      staticcall\n      swap3\n      pop\n      pop\n      pop\n      dup1\n      iszero\n      tag_44\n      jumpi\n      pop\n      mload(0x40)\n      returndatasize\n      not(0x1f)\n      0x1f\n      dup3\n      add\n      and\n      dup3\n      add\n      dup1\n      0x40\n      mstore\n      pop\n      dup2\n      add\n      swap1\n      tag_45\n      swap2\n      swap1\n      tag_41\n      jump\t// in\n    tag_45:\n      0x01\n    tag_44:\n        /* \"TryCatch.sol\":917:1098  try even.onlyPrime(amount) returns(bool _success){... */\n      tag_46\n      jumpi\n      tag_50\n      tag_26\n      jump\t// in\n    tag_50:\n      dup1\n      0x08c379a0\n      sub\n      tag_49\n      jumpi\n      pop\n      tag_51\n      tag_28\n      jump\t// in\n    tag_51:\n      dup1\n      tag_52\n      jumpi\n      pop\n      jump(tag_48)\n    tag_52:\n        /* \"TryCatch.sol\":1075:1093  CatchEvent(reason) */\n      0xb761112ad379c509744de8d585702b0d2694d4ceaef85ad50d452ff06821a6a6\n        /* \"TryCatch.sol\":1086:1092  reason */\n      dup2\n        /* \"TryCatch.sol\":1075:1093  CatchEvent(reason) */\n      mload(0x40)\n      tag_53\n      swap2\n      swap1\n      tag_31\n      jump\t// in\n    tag_53:\n      mload(0x40)\n      dup1\n      swap2\n      sub\n      swap1\n      log1\n        /* \"TryCatch.sol\":1014:1098  catch Error(string memory reason){... */\n      pop\n        /* \"TryCatch.sol\":917:1098  try even.onlyPrime(amount) returns(bool _success){... */\n      jump(tag_47)\n    tag_49:\n      pop\n    tag_48:\n      returndatasize\n      0x00\n      dup1\n      returndatacopy\n      revert(0x00, returndatasize)\n    tag_47:\n      jump(tag_54)\n    tag_46:\n        /* \"TryCatch.sol\":975:989  SuccessEvent() */\n      0xfd76336752e93f2cc77cf13a41be8b6c156731030376354d634d28a9a87b9162\n      mload(0x40)\n      mload(0x40)\n      dup1\n      swap2\n      sub\n      swap1\n      log1\n        /* \"TryCatch.sol\":1000:1008  _success */\n      dup1\n        /* \"TryCatch.sol\":993:1008  return _success */\n      swap2\n      pop\n      pop\n      jump(tag_42)\n        /* \"TryCatch.sol\":917:1098  try even.onlyPrime(amount) returns(bool _success){... */\n    tag_54:\n        /* \"TryCatch.sol\":848:1102  function execute(uint amount) external returns (bool success) {... */\n    tag_42:\n      swap2\n      swap1\n      pop\n      jump\t// out\n    tag_17:\n      dataSize(sub_0)\n      dup1\n      dataOffset(sub_0)\n      dup4\n      codecopy\n      add\n      swap1\n      jump\t// out\n        /* \"#utility.yul\":7:82   */\n    tag_55:\n        /* \"#utility.yul\":40:46   */\n      0x00\n        /* \"#utility.yul\":73:75   */\n      0x40\n        /* \"#utility.yul\":67:76   */\n      mload\n        /* \"#utility.yul\":57:76   */\n      swap1\n      pop\n        /* \"#utility.yul\":7:82   */\n      swap1\n      jump\t// out\n        /* \"#utility.yul\":88:205   */\n    tag_56:\n        /* \"#utility.yul\":197:198   */\n      0x00\n        /* \"#utility.yul\":194:195   */\n      dup1\n        /* \"#utility.yul\":187:199   */\n      revert\n        /* \"#utility.yul\":334:411   */\n    tag_58:\n        /* \"#utility.yul\":371:378   */\n      0x00\n        /* \"#utility.yul\":400:405   */\n      dup2\n        /* \"#utility.yul\":389:405   */\n      swap1\n      pop\n        /* \"#utility.yul\":334:411   */\n      swap2\n      swap1\n      pop\n      jump\t// out\n        /* \"#utility.yul\":417:539   */\n    tag_59:\n        /* \"#utility.yul\":490:514   */\n      tag_83\n        /* \"#utility.yul\":508:513   */\n      dup2\n        /* \"#utility.yul\":490:514   */\n      tag_58\n      jump\t// in\n    tag_83:\n        /* \"#utility.yul\":483:488   */\n      dup2\n        /* \"#utility.yul\":480:515   */\n      eq\n        /* \"#utility.yul\":470:533   */\n      tag_84\n      jumpi\n        /* \"#utility.yul\":529:530   */\n      0x00\n        /* \"#utility.yul\":526:527   */\n      dup1\n        /* \"#utility.yul\":519:531   */\n      revert\n        /* \"#utility.yul\":470:533   */\n    tag_84:\n        /* \"#utility.yul\":417:539   */\n      pop\n      jump\t// out\n        /* \"#utility.yul\":545:684   */\n    tag_60:\n        /* \"#utility.yul\":591:596   */\n      0x00\n        /* \"#utility.yul\":629:635   */\n      dup2\n        /* \"#utility.yul\":616:636   */\n      calldataload\n        /* \"#utility.yul\":607:636   */\n      swap1\n      pop\n        /* \"#utility.yul\":645:678   */\n      tag_86\n        /* \"#utility.yul\":672:677   */\n      dup2\n        /* \"#utility.yul\":645:678   */\n      tag_59\n      jump\t// in\n    tag_86:\n        /* \"#utility.yul\":545:684   */\n      swap3\n      swap2\n      pop\n      pop\n      jump\t// out\n        /* \"#utility.yul\":690:1019   */\n    tag_7:\n        /* \"#utility.yul\":749:755   */\n      0x00\n        /* \"#utility.yul\":798:800   */\n      0x20\n        /* \"#utility.yul\":786:795   */\n      dup3\n        /* \"#utility.yul\":777:784   */\n      dup5\n        /* \"#utility.yul\":773:796   */\n      sub\n        /* \"#utility.yul\":769:801   */\n      slt\n        /* \"#utility.yul\":766:885   */\n      iszero\n      tag_88\n      jumpi\n        /* \"#utility.yul\":804:883   */\n      tag_89\n      tag_56\n      jump\t// in\n    tag_89:\n        /* \"#utility.yul\":766:885   */\n    tag_88:\n        /* \"#utility.yul\":924:925   */\n      0x00\n        /* \"#utility.yul\":949:1002   */\n      tag_90\n        /* \"#utility.yul\":994:1001   */\n      dup5\n        /* \"#utility.yul\":985:991   */\n      dup3\n        /* \"#utility.yul\":974:983   */\n      dup6\n        /* \"#utility.yul\":970:992   */\n      add\n        /* \"#utility.yul\":949:1002   */\n      tag_60\n      jump\t// in\n    tag_90:\n        /* \"#utility.yul\":939:1002   */\n      swap2\n      pop\n        /* \"#utility.yul\":895:1012   */\n      pop\n        /* \"#utility.yul\":690:1019   */\n      swap3\n      swap2\n      pop\n      pop\n      jump\t// out\n        /* \"#utility.yul\":1025:1115   */\n    tag_61:\n        /* \"#utility.yul\":1059:1066   */\n      0x00\n        /* \"#utility.yul\":1102:1107   */\n      dup2\n        /* \"#utility.yul\":1095:1108   */\n      iszero\n        /* \"#utility.yul\":1088:1109   */\n      iszero\n        /* \"#utility.yul\":1077:1109   */\n      swap1\n      pop\n        /* \"#utility.yul\":1025:1115   */\n      swap2\n      swap1\n      pop\n      jump\t// out\n        /* \"#utility.yul\":1121:1230   */\n    tag_62:\n        /* \"#utility.yul\":1202:1223   */\n      tag_93\n        /* \"#utility.yul\":1217:1222   */\n      dup2\n        /* \"#utility.yul\":1202:1223   */\n      tag_61\n      jump\t// in\n    tag_93:\n        /* \"#utility.yul\":1197:1200   */\n      dup3\n        /* \"#utility.yul\":1190:1224   */\n      mstore\n        /* \"#utility.yul\":1121:1230   */\n      pop\n      pop\n      jump\t// out\n        /* \"#utility.yul\":1236:1446   */\n    tag_10:\n        /* \"#utility.yul\":1323:1327   */\n      0x00\n        /* \"#utility.yul\":1361:1363   */\n      0x20\n        /* \"#utility.yul\":1350:1359   */\n      dup3\n        /* \"#utility.yul\":1346:1364   */\n      add\n        /* \"#utility.yul\":1338:1364   */\n      swap1\n      pop\n        /* \"#utility.yul\":1374:1439   */\n      tag_95\n        /* \"#utility.yul\":1436:1437   */\n      0x00\n        /* \"#utility.yul\":1425:1434   */\n      dup4\n        /* \"#utility.yul\":1421:1438   */\n      add\n        /* \"#utility.yul\":1412:1418   */\n      dup5\n        /* \"#utility.yul\":1374:1439   */\n      tag_62\n      jump\t// in\n    tag_95:\n        /* \"#utility.yul\":1236:1446   */\n      swap3\n      swap2\n      pop\n      pop\n      jump\t// out\n        /* \"#utility.yul\":1452:1570   */\n    tag_63:\n        /* \"#utility.yul\":1539:1563   */\n      tag_97\n        /* \"#utility.yul\":1557:1562   */\n      dup2\n        /* \"#utility.yul\":1539:1563   */\n      tag_58\n      jump\t// in\n    tag_97:\n        /* \"#utility.yul\":1534:1537   */\n      dup3\n        /* \"#utility.yul\":1527:1564   */\n      mstore\n        /* \"#utility.yul\":1452:1570   */\n      pop\n      pop\n      jump\t// out\n        /* \"#utility.yul\":1576:1798   */\n    tag_19:\n        /* \"#utility.yul\":1669:1673   */\n      0x00\n        /* \"#utility.yul\":1707:1709   */\n      0x20\n        /* \"#utility.yul\":1696:1705   */\n      dup3\n        /* \"#utility.yul\":1692:1710   */\n      add\n        /* \"#utility.yul\":1684:1710   */\n      swap1\n      pop\n        /* \"#utility.yul\":1720:1791   */\n      tag_99\n        /* \"#utility.yul\":1788:1789   */\n      0x00\n        /* \"#utility.yul\":1777:1786   */\n      dup4\n        /* \"#utility.yul\":1773:1790   */\n      add\n        /* \"#utility.yul\":1764:1770   */\n      dup5\n        /* \"#utility.yul\":1720:1791   */\n      tag_63\n      jump\t// in\n    tag_99:\n        /* \"#utility.yul\":1576:1798   */\n      swap3\n      swap2\n      pop\n      pop\n      jump\t// out\n        /* \"#utility.yul\":1804:1910   */\n    tag_64:\n        /* \"#utility.yul\":1848:1856   */\n      0x00\n        /* \"#utility.yul\":1897:1902   */\n      dup2\n        /* \"#utility.yul\":1892:1895   */\n      0xe0\n        /* \"#utility.yul\":1888:1903   */\n      shr\n        /* \"#utility.yul\":1867:1903   */\n      swap1\n      pop\n        /* \"#utility.yul\":1804:1910   */\n      swap2\n      swap1\n      pop\n      jump\t// out\n        /* \"#utility.yul\":1916:2099   */\n    tag_26:\n        /* \"#utility.yul\":1951:1954   */\n      0x00\n        /* \"#utility.yul\":1989:1990   */\n      0x03\n        /* \"#utility.yul\":1971:1987   */\n      returndatasize\n        /* \"#utility.yul\":1968:1991   */\n      gt\n        /* \"#utility.yul\":1965:2093   */\n      iszero\n      tag_102\n      jumpi\n        /* \"#utility.yul\":2027:2028   */\n      0x04\n        /* \"#utility.yul\":2024:2025   */\n      0x00\n        /* \"#utility.yul\":2021:2022   */\n      dup1\n        /* \"#utility.yul\":2006:2029   */\n      returndatacopy\n        /* \"#utility.yul\":2049:2083   */\n      tag_103\n        /* \"#utility.yul\":2080:2081   */\n      0x00\n        /* \"#utility.yul\":2074:2082   */\n      mload\n        /* \"#utility.yul\":2049:2083   */\n      tag_64\n      jump\t// in\n    tag_103:\n        /* \"#utility.yul\":2042:2083   */\n      swap1\n      pop\n        /* \"#utility.yul\":1965:2093   */\n    tag_102:\n        /* \"#utility.yul\":1916:2099   */\n      swap1\n      jump\t// out\n        /* \"#utility.yul\":2105:2207   */\n    tag_65:\n        /* \"#utility.yul\":2146:2152   */\n      0x00\n        /* \"#utility.yul\":2197:2199   */\n      0x1f\n        /* \"#utility.yul\":2193:2200   */\n      not\n        /* \"#utility.yul\":2188:2190   */\n      0x1f\n        /* \"#utility.yul\":2181:2186   */\n      dup4\n        /* \"#utility.yul\":2177:2191   */\n      add\n        /* \"#utility.yul\":2173:2201   */\n      and\n        /* \"#utility.yul\":2163:2201   */\n      swap1\n      pop\n        /* \"#utility.yul\":2105:2207   */\n      swap2\n      swap1\n      pop\n      jump\t// out\n        /* \"#utility.yul\":2213:2393   */\n    tag_66:\n        /* \"#utility.yul\":2261:2338   */\n      0x4e487b7100000000000000000000000000000000000000000000000000000000\n        /* \"#utility.yul\":2258:2259   */\n      0x00\n        /* \"#utility.yul\":2251:2339   */\n      mstore\n        /* \"#utility.yul\":2358:2362   */\n      0x41\n        /* \"#utility.yul\":2355:2356   */\n      0x04\n        /* \"#utility.yul\":2348:2363   */\n      mstore\n        /* \"#utility.yul\":2382:2386   */\n      0x24\n        /* \"#utility.yul\":2379:2380   */\n      0x00\n        /* \"#utility.yul\":2372:2387   */\n      revert\n        /* \"#utility.yul\":2399:2680   */\n    tag_67:\n        /* \"#utility.yul\":2482:2509   */\n      tag_107\n        /* \"#utility.yul\":2504:2508   */\n      dup3\n        /* \"#utility.yul\":2482:2509   */\n      tag_65\n      jump\t// in\n    tag_107:\n        /* \"#utility.yul\":2474:2480   */\n      dup2\n        /* \"#utility.yul\":2470:2510   */\n      add\n        /* \"#utility.yul\":2612:2618   */\n      dup2\n        /* \"#utility.yul\":2600:2610   */\n      dup2\n        /* \"#utility.yul\":2597:2619   */\n      lt\n        /* \"#utility.yul\":2576:2594   */\n      0xffffffffffffffff\n        /* \"#utility.yul\":2564:2574   */\n      dup3\n        /* \"#utility.yul\":2561:2595   */\n      gt\n        /* \"#utility.yul\":2558:2620   */\n      or\n        /* \"#utility.yul\":2555:2643   */\n      iszero\n      tag_108\n      jumpi\n        /* \"#utility.yul\":2623:2641   */\n      tag_109\n      tag_66\n      jump\t// in\n    tag_109:\n        /* \"#utility.yul\":2555:2643   */\n    tag_108:\n        /* \"#utility.yul\":2663:2673   */\n      dup1\n        /* \"#utility.yul\":2659:2661   */\n      0x40\n        /* \"#utility.yul\":2652:2674   */\n      mstore\n        /* \"#utility.yul\":2442:2680   */\n      pop\n        /* \"#utility.yul\":2399:2680   */\n      pop\n      pop\n      jump\t// out\n        /* \"#utility.yul\":2686:3397   */\n    tag_28:\n        /* \"#utility.yul\":2725:2728   */\n      0x00\n        /* \"#utility.yul\":2763:2767   */\n      0x44\n        /* \"#utility.yul\":2745:2761   */\n      returndatasize\n        /* \"#utility.yul\":2742:2768   */\n      lt\n        /* \"#utility.yul\":2771:2776   */\n      tag_110\n        /* \"#utility.yul\":2739:2778   */\n      jumpi\n        /* \"#utility.yul\":2800:2820   */\n      tag_112\n      tag_55\n      jump\t// in\n    tag_112:\n        /* \"#utility.yul\":2875:2876   */\n      0x04\n        /* \"#utility.yul\":2857:2873   */\n      returndatasize\n        /* \"#utility.yul\":2853:2877   */\n      sub\n        /* \"#utility.yul\":2850:2851   */\n      0x04\n        /* \"#utility.yul\":2844:2848   */\n      dup3\n        /* \"#utility.yul\":2829:2878   */\n      returndatacopy\n        /* \"#utility.yul\":2908:2912   */\n      dup1\n        /* \"#utility.yul\":2902:2913   */\n      mload\n        /* \"#utility.yul\":3007:3023   */\n      returndatasize\n        /* \"#utility.yul\":3000:3004   */\n      0x24\n        /* \"#utility.yul\":2992:2998   */\n      dup3\n        /* \"#utility.yul\":2988:3005   */\n      add\n        /* \"#utility.yul\":2985:3024   */\n      gt\n        /* \"#utility.yul\":2952:2970   */\n      0xffffffffffffffff\n        /* \"#utility.yul\":2944:2950   */\n      dup3\n        /* \"#utility.yul\":2941:2971   */\n      gt\n        /* \"#utility.yul\":2925:3038   */\n      or\n        /* \"#utility.yul\":2922:3068   */\n      iszero\n      tag_113\n      jumpi\n        /* \"#utility.yul\":3053:3058   */\n      pop\n      pop\n      jump(tag_110)\n        /* \"#utility.yul\":2922:3068   */\n    tag_113:\n        /* \"#utility.yul\":3099:3105   */\n      dup1\n        /* \"#utility.yul\":3093:3097   */\n      dup3\n        /* \"#utility.yul\":3089:3106   */\n      add\n        /* \"#utility.yul\":3135:3138   */\n      dup1\n        /* \"#utility.yul\":3129:3139   */\n      mload\n        /* \"#utility.yul\":3162:3180   */\n      0xffffffffffffffff\n        /* \"#utility.yul\":3154:3160   */\n      dup2\n        /* \"#utility.yul\":3151:3181   */\n      gt\n        /* \"#utility.yul\":3148:3191   */\n      iszero\n      tag_114\n      jumpi\n        /* \"#utility.yul\":3184:3189   */\n      pop\n      pop\n      pop\n      pop\n      jump(tag_110)\n        /* \"#utility.yul\":3148:3191   */\n    tag_114:\n        /* \"#utility.yul\":3232:3238   */\n      dup1\n        /* \"#utility.yul\":3225:3229   */\n      0x20\n        /* \"#utility.yul\":3220:3223   */\n      dup4\n        /* \"#utility.yul\":3216:3230   */\n      add\n        /* \"#utility.yul\":3212:3239   */\n      add\n        /* \"#utility.yul\":3291:3292   */\n      0x04\n        /* \"#utility.yul\":3273:3289   */\n      returndatasize\n        /* \"#utility.yul\":3269:3293   */\n      sub\n        /* \"#utility.yul\":3263:3267   */\n      dup6\n        /* \"#utility.yul\":3259:3294   */\n      add\n        /* \"#utility.yul\":3254:3257   */\n      dup2\n        /* \"#utility.yul\":3251:3295   */\n      gt\n        /* \"#utility.yul\":3248:3305   */\n      iszero\n      tag_115\n      jumpi\n        /* \"#utility.yul\":3298:3303   */\n      pop\n      pop\n      pop\n      pop\n      pop\n      jump(tag_110)\n        /* \"#utility.yul\":3248:3305   */\n    tag_115:\n        /* \"#utility.yul\":3315:3372   */\n      tag_116\n        /* \"#utility.yul\":3363:3369   */\n      dup3\n        /* \"#utility.yul\":3357:3361   */\n      0x20\n        /* \"#utility.yul\":3353:3370   */\n      add\n        /* \"#utility.yul\":3345:3351   */\n      dup6\n        /* \"#utility.yul\":3341:3371   */\n      add\n        /* \"#utility.yul\":3335:3339   */\n      dup7\n        /* \"#utility.yul\":3315:3372   */\n      tag_67\n      jump\t// in\n    tag_116:\n        /* \"#utility.yul\":3388:3391   */\n      dup3\n        /* \"#utility.yul\":3381:3391   */\n      swap6\n      pop\n        /* \"#utility.yul\":2729:3397   */\n      pop\n      pop\n      pop\n      pop\n      pop\n        /* \"#utility.yul\":2686:3397   */\n    tag_110:\n      swap1\n      jump\t// out\n        /* \"#utility.yul\":3403:3502   */\n    tag_68:\n        /* \"#utility.yul\":3455:3461   */\n      0x00\n        /* \"#utility.yul\":3489:3494   */\n      dup2\n        /* \"#utility.yul\":3483:3495   */\n      mload\n        /* \"#utility.yul\":3473:3495   */\n      swap1\n      pop\n        /* \"#utility.yul\":3403:3502   */\n      swap2\n      swap1\n      pop\n      jump\t// out\n        /* \"#utility.yul\":3508:3677   */\n    tag_69:\n        /* \"#utility.yul\":3592:3603   */\n      0x00\n        /* \"#utility.yul\":3626:3632   */\n      dup3\n        /* \"#utility.yul\":3621:3624   */\n      dup3\n        /* \"#utility.yul\":3614:3633   */\n      mstore\n        /* \"#utility.yul\":3666:3670   */\n      0x20\n        /* \"#utility.yul\":3661:3664   */\n      dup3\n        /* \"#utility.yul\":3657:3671   */\n      add\n        /* \"#utility.yul\":3642:3671   */\n      swap1\n      pop\n        /* \"#utility.yul\":3508:3677   */\n      swap3\n      swap2\n      pop\n      pop\n      jump\t// out\n        /* \"#utility.yul\":3683:3929   */\n    tag_70:\n        /* \"#utility.yul\":3764:3765   */\n      0x00\n        /* \"#utility.yul\":3774:3887   */\n    tag_120:\n        /* \"#utility.yul\":3788:3794   */\n      dup4\n        /* \"#utility.yul\":3785:3786   */\n      dup2\n        /* \"#utility.yul\":3782:3795   */\n      lt\n        /* \"#utility.yul\":3774:3887   */\n      iszero\n      tag_122\n      jumpi\n        /* \"#utility.yul\":3873:3874   */\n      dup1\n        /* \"#utility.yul\":3868:3871   */\n      dup3\n        /* \"#utility.yul\":3864:3875   */\n      add\n        /* \"#utility.yul\":3858:3876   */\n      mload\n        /* \"#utility.yul\":3854:3855   */\n      dup2\n        /* \"#utility.yul\":3849:3852   */\n      dup5\n        /* \"#utility.yul\":3845:3856   */\n      add\n        /* \"#utility.yul\":3838:3877   */\n      mstore\n        /* \"#utility.yul\":3810:3812   */\n      0x20\n        /* \"#utility.yul\":3807:3808   */\n      dup2\n        /* \"#utility.yul\":3803:3813   */\n      add\n        /* \"#utility.yul\":3798:3813   */\n      swap1\n      pop\n        /* \"#utility.yul\":3774:3887   */\n      jump(tag_120)\n    tag_122:\n        /* \"#utility.yul\":3921:3922   */\n      0x00\n        /* \"#utility.yul\":3912:3918   */\n      dup5\n        /* \"#utility.yul\":3907:3910   */\n      dup5\n        /* \"#utility.yul\":3903:3919   */\n      add\n        /* \"#utility.yul\":3896:3923   */\n      mstore\n        /* \"#utility.yul\":3745:3929   */\n      pop\n        /* \"#utility.yul\":3683:3929   */\n      pop\n      pop\n      pop\n      jump\t// out\n        /* \"#utility.yul\":3935:4312   */\n    tag_71:\n        /* \"#utility.yul\":4023:4026   */\n      0x00\n        /* \"#utility.yul\":4051:4090   */\n      tag_124\n        /* \"#utility.yul\":4084:4089   */\n      dup3\n        /* \"#utility.yul\":4051:4090   */\n      tag_68\n      jump\t// in\n    tag_124:\n        /* \"#utility.yul\":4106:4177   */\n      tag_125\n        /* \"#utility.yul\":4170:4176   */\n      dup2\n        /* \"#utility.yul\":4165:4168   */\n      dup6\n        /* \"#utility.yul\":4106:4177   */\n      tag_69\n      jump\t// in\n    tag_125:\n        /* \"#utility.yul\":4099:4177   */\n      swap4\n      pop\n        /* \"#utility.yul\":4186:4251   */\n      tag_126\n        /* \"#utility.yul\":4244:4250   */\n      dup2\n        /* \"#utility.yul\":4239:4242   */\n      dup6\n        /* \"#utility.yul\":4232:4236   */\n      0x20\n        /* \"#utility.yul\":4225:4230   */\n      dup7\n        /* \"#utility.yul\":4221:4237   */\n      add\n        /* \"#utility.yul\":4186:4251   */\n      tag_70\n      jump\t// in\n    tag_126:\n        /* \"#utility.yul\":4276:4305   */\n      tag_127\n        /* \"#utility.yul\":4298:4304   */\n      dup2\n        /* \"#utility.yul\":4276:4305   */\n      tag_65\n      jump\t// in\n    tag_127:\n        /* \"#utility.yul\":4271:4274   */\n      dup5\n        /* \"#utility.yul\":4267:4306   */\n      add\n        /* \"#utility.yul\":4260:4306   */\n      swap2\n      pop\n        /* \"#utility.yul\":4027:4312   */\n      pop\n        /* \"#utility.yul\":3935:4312   */\n      swap3\n      swap2\n      pop\n      pop\n      jump\t// out\n        /* \"#utility.yul\":4318:4631   */\n    tag_31:\n        /* \"#utility.yul\":4431:4435   */\n      0x00\n        /* \"#utility.yul\":4469:4471   */\n      0x20\n        /* \"#utility.yul\":4458:4467   */\n      dup3\n        /* \"#utility.yul\":4454:4472   */\n      add\n        /* \"#utility.yul\":4446:4472   */\n      swap1\n      pop\n        /* \"#utility.yul\":4518:4527   */\n      dup2\n        /* \"#utility.yul\":4512:4516   */\n      dup2\n        /* \"#utility.yul\":4508:4528   */\n      sub\n        /* \"#utility.yul\":4504:4505   */\n      0x00\n        /* \"#utility.yul\":4493:4502   */\n      dup4\n        /* \"#utility.yul\":4489:4506   */\n      add\n        /* \"#utility.yul\":4482:4529   */\n      mstore\n        /* \"#utility.yul\":4546:4624   */\n      tag_129\n        /* \"#utility.yul\":4619:4623   */\n      dup2\n        /* \"#utility.yul\":4610:4616   */\n      dup5\n        /* \"#utility.yul\":4546:4624   */\n      tag_71\n      jump\t// in\n    tag_129:\n        /* \"#utility.yul\":4538:4624   */\n      swap1\n      pop\n        /* \"#utility.yul\":4318:4631   */\n      swap3\n      swap2\n      pop\n      pop\n      jump\t// out\n        /* \"#utility.yul\":4637:4735   */\n    tag_72:\n        /* \"#utility.yul\":4688:4694   */\n      0x00\n        /* \"#utility.yul\":4722:4727   */\n      dup2\n        /* \"#utility.yul\":4716:4728   */\n      mload\n        /* \"#utility.yul\":4706:4728   */\n      swap1\n      pop\n        /* \"#utility.yul\":4637:4735   */\n      swap2\n      swap1\n      pop\n      jump\t// out\n        /* \"#utility.yul\":4741:4909   */\n    tag_73:\n        /* \"#utility.yul\":4824:4835   */\n      0x00\n        /* \"#utility.yul\":4858:4864   */\n      dup3\n        /* \"#utility.yul\":4853:4856   */\n      dup3\n        /* \"#utility.yul\":4846:4865   */\n      mstore\n        /* \"#utility.yul\":4898:4902   */\n      0x20\n        /* \"#utility.yul\":4893:4896   */\n      dup3\n        /* \"#utility.yul\":4889:4903   */\n      add\n        /* \"#utility.yul\":4874:4903   */\n      swap1\n      pop\n        /* \"#utility.yul\":4741:4909   */\n      swap3\n      swap2\n      pop\n      pop\n      jump\t// out\n        /* \"#utility.yul\":4915:5288   */\n    tag_74:\n        /* \"#utility.yul\":5001:5004   */\n      0x00\n        /* \"#utility.yul\":5029:5067   */\n      tag_133\n        /* \"#utility.yul\":5061:5066   */\n      dup3\n        /* \"#utility.yul\":5029:5067   */\n      tag_72\n      jump\t// in\n    tag_133:\n        /* \"#utility.yul\":5083:5153   */\n      tag_134\n        /* \"#utility.yul\":5146:5152   */\n      dup2\n        /* \"#utility.yul\":5141:5144   */\n      dup6\n        /* \"#utility.yul\":5083:5153   */\n      tag_73\n      jump\t// in\n    tag_134:\n        /* \"#utility.yul\":5076:5153   */\n      swap4\n      pop\n        /* \"#utility.yul\":5162:5227   */\n      tag_135\n        /* \"#utility.yul\":5220:5226   */\n      dup2\n        /* \"#utility.yul\":5215:5218   */\n      dup6\n        /* \"#utility.yul\":5208:5212   */\n      0x20\n        /* \"#utility.yul\":5201:5206   */\n      dup7\n        /* \"#utility.yul\":5197:5213   */\n      add\n        /* \"#utility.yul\":5162:5227   */\n      tag_70\n      jump\t// in\n    tag_135:\n        /* \"#utility.yul\":5252:5281   */\n      tag_136\n        /* \"#utility.yul\":5274:5280   */\n      dup2\n        /* \"#utility.yul\":5252:5281   */\n      tag_65\n      jump\t// in\n    tag_136:\n        /* \"#utility.yul\":5247:5250   */\n      dup5\n        /* \"#utility.yul\":5243:5282   */\n      add\n        /* \"#utility.yul\":5236:5282   */\n      swap2\n      pop\n        /* \"#utility.yul\":5005:5288   */\n      pop\n        /* \"#utility.yul\":4915:5288   */\n      swap3\n      swap2\n      pop\n      pop\n      jump\t// out\n        /* \"#utility.yul\":5294:5603   */\n    tag_35:\n        /* \"#utility.yul\":5405:5409   */\n      0x00\n        /* \"#utility.yul\":5443:5445   */\n      0x20\n        /* \"#utility.yul\":5432:5441   */\n      dup3\n        /* \"#utility.yul\":5428:5446   */\n      add\n        /* \"#utility.yul\":5420:5446   */\n      swap1\n      pop\n        /* \"#utility.yul\":5492:5501   */\n      dup2\n        /* \"#utility.yul\":5486:5490   */\n      dup2\n        /* \"#utility.yul\":5482:5502   */\n      sub\n        /* \"#utility.yul\":5478:5479   */\n      0x00\n        /* \"#utility.yul\":5467:5476   */\n      dup4\n        /* \"#utility.yul\":5463:5480   */\n      add\n        /* \"#utility.yul\":5456:5503   */\n      mstore\n        /* \"#utility.yul\":5520:5596   */\n      tag_138\n        /* \"#utility.yul\":5591:5595   */\n      dup2\n        /* \"#utility.yul\":5582:5588   */\n      dup5\n        /* \"#utility.yul\":5520:5596   */\n      tag_74\n      jump\t// in\n    tag_138:\n        /* \"#utility.yul\":5512:5596   */\n      swap1\n      pop\n        /* \"#utility.yul\":5294:5603   */\n      swap3\n      swap2\n      pop\n      pop\n      jump\t// out\n        /* \"#utility.yul\":5609:5725   */\n    tag_75:\n        /* \"#utility.yul\":5679:5700   */\n      tag_140\n        /* \"#utility.yul\":5694:5699   */\n      dup2\n        /* \"#utility.yul\":5679:5700   */\n      tag_61\n      jump\t// in\n    tag_140:\n        /* \"#utility.yul\":5672:5677   */\n      dup2\n        /* \"#utility.yul\":5669:5701   */\n      eq\n        /* \"#utility.yul\":5659:5719   */\n      tag_141\n      jumpi\n        /* \"#utility.yul\":5715:5716   */\n      0x00\n        /* \"#utility.yul\":5712:5713   */\n      dup1\n        /* \"#utility.yul\":5705:5717   */\n      revert\n        /* \"#utility.yul\":5659:5719   */\n    tag_141:\n        /* \"#utility.yul\":5609:5725   */\n      pop\n      jump\t// out\n        /* \"#utility.yul\":5731:5868   */\n    tag_76:\n        /* \"#utility.yul\":5785:5790   */\n      0x00\n        /* \"#utility.yul\":5816:5822   */\n      dup2\n        /* \"#utility.yul\":5810:5823   */\n      mload\n        /* \"#utility.yul\":5801:5823   */\n      swap1\n      pop\n        /* \"#utility.yul\":5832:5862   */\n      tag_143\n        /* \"#utility.yul\":5856:5861   */\n      dup2\n        /* \"#utility.yul\":5832:5862   */\n      tag_75\n      jump\t// in\n    tag_143:\n        /* \"#utility.yul\":5731:5868   */\n      swap3\n      swap2\n      pop\n      pop\n      jump\t// out\n        /* \"#utility.yul\":5874:6219   */\n    tag_41:\n        /* \"#utility.yul\":5941:5947   */\n      0x00\n        /* \"#utility.yul\":5990:5992   */\n      0x20\n        /* \"#utility.yul\":5978:5987   */\n      dup3\n        /* \"#utility.yul\":5969:5976   */\n      dup5\n        /* \"#utility.yul\":5965:5988   */\n      sub\n        /* \"#utility.yul\":5961:5993   */\n      slt\n        /* \"#utility.yul\":5958:6077   */\n      iszero\n      tag_145\n      jumpi\n        /* \"#utility.yul\":5996:6075   */\n      tag_146\n      tag_56\n      jump\t// in\n    tag_146:\n        /* \"#utility.yul\":5958:6077   */\n    tag_145:\n        /* \"#utility.yul\":6116:6117   */\n      0x00\n        /* \"#utility.yul\":6141:6202   */\n      tag_147\n        /* \"#utility.yul\":6194:6201   */\n      dup5\n        /* \"#utility.yul\":6185:6191   */\n      dup3\n        /* \"#utility.yul\":6174:6183   */\n      dup6\n        /* \"#utility.yul\":6170:6192   */\n      add\n        /* \"#utility.yul\":6141:6202   */\n      tag_76\n      jump\t// in\n    tag_147:\n        /* \"#utility.yul\":6131:6202   */\n      swap2\n      pop\n        /* \"#utility.yul\":6087:6212   */\n      pop\n        /* \"#utility.yul\":5874:6219   */\n      swap3\n      swap2\n      pop\n      pop\n      jump\t// out\n    stop\n\n    sub_0: assembly {\n            /* \"TryCatch.sol\":60:614  contract PrimeChecker{... */\n          mstore(0x40, 0x80)\n            /* \"TryCatch.sol\":85:163  constructor(uint a){... */\n          callvalue\n          dup1\n          iszero\n          tag_1\n          jumpi\n          0x00\n          dup1\n          revert\n        tag_1:\n          pop\n          mload(0x40)\n          sub(codesize, bytecodeSize)\n          dup1\n          bytecodeSize\n          dup4\n          codecopy\n          dup2\n          dup2\n          add\n          0x40\n          mstore\n          dup2\n          add\n          swap1\n          tag_2\n          swap2\n          swap1\n          tag_3\n          jump\t// in\n        tag_2:\n            /* \"TryCatch.sol\":121:122  0 */\n          0x00\n            /* \"TryCatch.sol\":116:117  a */\n          dup2\n            /* \"TryCatch.sol\":116:122  a != 0 */\n          sub\n            /* \"TryCatch.sol\":108:140  require(a != 0, \"Invalid Entry\") */\n          tag_6\n          jumpi\n          mload(0x40)\n          0x08c379a000000000000000000000000000000000000000000000000000000000\n          dup2\n          mstore\n          0x04\n          add\n          tag_7\n          swap1\n          tag_8\n          jump\t// in\n        tag_7:\n          mload(0x40)\n          dup1\n          swap2\n          sub\n          swap1\n          revert\n        tag_6:\n            /* \"TryCatch.sol\":156:157  1 */\n          0x01\n            /* \"TryCatch.sol\":151:152  a */\n          dup2\n            /* \"TryCatch.sol\":151:157  a != 1 */\n          sub\n            /* \"TryCatch.sol\":144:158  assert(a != 1) */\n          tag_9\n          jumpi\n          tag_10\n          tag_11\n          jump\t// in\n        tag_10:\n        tag_9:\n            /* \"TryCatch.sol\":85:163  constructor(uint a){... */\n          pop\n            /* \"TryCatch.sol\":60:614  contract PrimeChecker{... */\n          jump(tag_12)\n            /* \"#utility.yul\":88:205   */\n        tag_14:\n            /* \"#utility.yul\":197:198   */\n          0x00\n            /* \"#utility.yul\":194:195   */\n          dup1\n            /* \"#utility.yul\":187:199   */\n          revert\n            /* \"#utility.yul\":334:411   */\n        tag_16:\n            /* \"#utility.yul\":371:378   */\n          0x00\n            /* \"#utility.yul\":400:405   */\n          dup2\n            /* \"#utility.yul\":389:405   */\n          swap1\n          pop\n            /* \"#utility.yul\":334:411   */\n          swap2\n          swap1\n          pop\n          jump\t// out\n            /* \"#utility.yul\":417:539   */\n        tag_17:\n            /* \"#utility.yul\":490:514   */\n          tag_28\n            /* \"#utility.yul\":508:513   */\n          dup2\n            /* \"#utility.yul\":490:514   */\n          tag_16\n          jump\t// in\n        tag_28:\n            /* \"#utility.yul\":483:488   */\n          dup2\n            /* \"#utility.yul\":480:515   */\n          eq\n            /* \"#utility.yul\":470:533   */\n          tag_29\n          jumpi\n            /* \"#utility.yul\":529:530   */\n          0x00\n            /* \"#utility.yul\":526:527   */\n          dup1\n            /* \"#utility.yul\":519:531   */\n          revert\n            /* \"#utility.yul\":470:533   */\n        tag_29:\n            /* \"#utility.yul\":417:539   */\n          pop\n          jump\t// out\n            /* \"#utility.yul\":545:688   */\n        tag_18:\n            /* \"#utility.yul\":602:607   */\n          0x00\n            /* \"#utility.yul\":633:639   */\n          dup2\n            /* \"#utility.yul\":627:640   */\n          mload\n            /* \"#utility.yul\":618:640   */\n          swap1\n          pop\n            /* \"#utility.yul\":649:682   */\n          tag_31\n            /* \"#utility.yul\":676:681   */\n          dup2\n            /* \"#utility.yul\":649:682   */\n          tag_17\n          jump\t// in\n        tag_31:\n            /* \"#utility.yul\":545:688   */\n          swap3\n          swap2\n          pop\n          pop\n          jump\t// out\n            /* \"#utility.yul\":694:1045   */\n        tag_3:\n            /* \"#utility.yul\":764:770   */\n          0x00\n            /* \"#utility.yul\":813:815   */\n          0x20\n            /* \"#utility.yul\":801:810   */\n          dup3\n            /* \"#utility.yul\":792:799   */\n          dup5\n            /* \"#utility.yul\":788:811   */\n          sub\n            /* \"#utility.yul\":784:816   */\n          slt\n            /* \"#utility.yul\":781:900   */\n          iszero\n          tag_33\n          jumpi\n            /* \"#utility.yul\":819:898   */\n          tag_34\n          tag_14\n          jump\t// in\n        tag_34:\n            /* \"#utility.yul\":781:900   */\n        tag_33:\n            /* \"#utility.yul\":939:940   */\n          0x00\n            /* \"#utility.yul\":964:1028   */\n          tag_35\n            /* \"#utility.yul\":1020:1027   */\n          dup5\n            /* \"#utility.yul\":1011:1017   */\n          dup3\n            /* \"#utility.yul\":1000:1009   */\n          dup6\n            /* \"#utility.yul\":996:1018   */\n          add\n            /* \"#utility.yul\":964:1028   */\n          tag_18\n          jump\t// in\n        tag_35:\n            /* \"#utility.yul\":954:1028   */\n          swap2\n          pop\n            /* \"#utility.yul\":910:1038   */\n          pop\n            /* \"#utility.yul\":694:1045   */\n          swap3\n          swap2\n          pop\n          pop\n          jump\t// out\n            /* \"#utility.yul\":1051:1220   */\n        tag_19:\n            /* \"#utility.yul\":1135:1146   */\n          0x00\n            /* \"#utility.yul\":1169:1175   */\n          dup3\n            /* \"#utility.yul\":1164:1167   */\n          dup3\n            /* \"#utility.yul\":1157:1176   */\n          mstore\n            /* \"#utility.yul\":1209:1213   */\n          0x20\n            /* \"#utility.yul\":1204:1207   */\n          dup3\n            /* \"#utility.yul\":1200:1214   */\n          add\n            /* \"#utility.yul\":1185:1214   */\n          swap1\n          pop\n            /* \"#utility.yul\":1051:1220   */\n          swap3\n          swap2\n          pop\n          pop\n          jump\t// out\n            /* \"#utility.yul\":1226:1389   */\n        tag_20:\n            /* \"#utility.yul\":1366:1381   */\n          0x496e76616c696420456e74727900000000000000000000000000000000000000\n            /* \"#utility.yul\":1362:1363   */\n          0x00\n            /* \"#utility.yul\":1354:1360   */\n          dup3\n            /* \"#utility.yul\":1350:1364   */\n          add\n            /* \"#utility.yul\":1343:1382   */\n          mstore\n            /* \"#utility.yul\":1226:1389   */\n          pop\n          jump\t// out\n            /* \"#utility.yul\":1395:1761   */\n        tag_21:\n            /* \"#utility.yul\":1537:1540   */\n          0x00\n            /* \"#utility.yul\":1558:1625   */\n          tag_39\n            /* \"#utility.yul\":1622:1624   */\n          0x0d\n            /* \"#utility.yul\":1617:1620   */\n          dup4\n            /* \"#utility.yul\":1558:1625   */\n          tag_19\n          jump\t// in\n        tag_39:\n            /* \"#utility.yul\":1551:1625   */\n          swap2\n          pop\n            /* \"#utility.yul\":1634:1727   */\n          tag_40\n            /* \"#utility.yul\":1723:1726   */\n          dup3\n            /* \"#utility.yul\":1634:1727   */\n          tag_20\n          jump\t// in\n        tag_40:\n            /* \"#utility.yul\":1752:1754   */\n          0x20\n            /* \"#utility.yul\":1747:1750   */\n          dup3\n            /* \"#utility.yul\":1743:1755   */\n          add\n            /* \"#utility.yul\":1736:1755   */\n          swap1\n          pop\n            /* \"#utility.yul\":1395:1761   */\n          swap2\n          swap1\n          pop\n          jump\t// out\n            /* \"#utility.yul\":1767:2186   */\n        tag_8:\n            /* \"#utility.yul\":1933:1937   */\n          0x00\n            /* \"#utility.yul\":1971:1973   */\n          0x20\n            /* \"#utility.yul\":1960:1969   */\n          dup3\n            /* \"#utility.yul\":1956:1974   */\n          add\n            /* \"#utility.yul\":1948:1974   */\n          swap1\n          pop\n            /* \"#utility.yul\":2020:2029   */\n          dup2\n            /* \"#utility.yul\":2014:2018   */\n          dup2\n            /* \"#utility.yul\":2010:2030   */\n          sub\n            /* \"#utility.yul\":2006:2007   */\n          0x00\n            /* \"#utility.yul\":1995:2004   */\n          dup4\n            /* \"#utility.yul\":1991:2008   */\n          add\n            /* \"#utility.yul\":1984:2031   */\n          mstore\n            /* \"#utility.yul\":2048:2179   */\n          tag_42\n            /* \"#utility.yul\":2174:2178   */\n          dup2\n            /* \"#utility.yul\":2048:2179   */\n          tag_21\n          jump\t// in\n        tag_42:\n            /* \"#utility.yul\":2040:2179   */\n          swap1\n          pop\n            /* \"#utility.yul\":1767:2186   */\n          swap2\n          swap1\n          pop\n          jump\t// out\n            /* \"#utility.yul\":2192:2372   */\n        tag_11:\n            /* \"#utility.yul\":2240:2317   */\n          0x4e487b7100000000000000000000000000000000000000000000000000000000\n            /* \"#utility.yul\":2237:2238   */\n          0x00\n            /* \"#utility.yul\":2230:2318   */\n          mstore\n            /* \"#utility.yul\":2337:2341   */\n          0x01\n            /* \"#utility.yul\":2334:2335   */\n          0x04\n            /* \"#utility.yul\":2327:2342   */\n          mstore\n            /* \"#utility.yul\":2361:2365   */\n          0x24\n            /* \"#utility.yul\":2358:2359   */\n          0x00\n            /* \"#utility.yul\":2351:2366   */\n          revert\n            /* \"TryCatch.sol\":60:614  contract PrimeChecker{... */\n        tag_12:\n          dataSize(sub_0)\n          dup1\n          dataOffset(sub_0)\n          0x00\n          codecopy\n          0x00\n          return\n        stop\n\n        sub_0: assembly {\n                /* \"TryCatch.sol\":60:614  contract PrimeChecker{... */\n              mstore(0x40, 0x80)\n              callvalue\n              dup1\n              iszero\n              tag_1\n              jumpi\n              0x00\n              dup1\n              revert\n            tag_1:\n              pop\n              jumpi(tag_2, lt(calldatasize, 0x04))\n              shr(0xe0, calldataload(0x00))\n              dup1\n              0x05f5b3eb\n              eq\n              tag_3\n              jumpi\n            tag_2:\n              0x00\n              dup1\n              revert\n                /* \"TryCatch.sol\":435:611  function onlyPrime(uint256 b) external pure returns (bool success) {... */\n            tag_3:\n              tag_4\n              0x04\n              dup1\n              calldatasize\n              sub\n              dup2\n              add\n              swap1\n              tag_5\n              swap2\n              swap1\n              tag_6\n              jump\t// in\n            tag_5:\n              tag_7\n              jump\t// in\n            tag_4:\n              mload(0x40)\n              tag_8\n              swap2\n              swap1\n              tag_9\n              jump\t// in\n            tag_8:\n              mload(0x40)\n              dup1\n              swap2\n              sub\n              swap1\n              return\n            tag_7:\n                /* \"TryCatch.sol\":488:500  bool success */\n              0x00\n                /* \"TryCatch.sol\":561:571  isPrime(b) */\n              tag_11\n                /* \"TryCatch.sol\":569:570  b */\n              dup3\n                /* \"TryCatch.sol\":561:568  isPrime */\n              tag_12\n                /* \"TryCatch.sol\":561:571  isPrime(b) */\n              jump\t// in\n            tag_11:\n                /* \"TryCatch.sol\":553:590  require(isPrime(b), \"Ups! Reverting\") */\n              tag_13\n              jumpi\n              mload(0x40)\n              0x08c379a000000000000000000000000000000000000000000000000000000000\n              dup2\n              mstore\n              0x04\n              add\n              tag_14\n              swap1\n              tag_15\n              jump\t// in\n            tag_14:\n              mload(0x40)\n              dup1\n              swap2\n              sub\n              swap1\n              revert\n            tag_13:\n                /* \"TryCatch.sol\":604:608  true */\n              0x01\n                /* \"TryCatch.sol\":594:608  success = true */\n              swap1\n              pop\n                /* \"TryCatch.sol\":435:611  function onlyPrime(uint256 b) external pure returns (bool success) {... */\n              swap2\n              swap1\n              pop\n              jump\t// out\n                /* \"TryCatch.sol\":166:433  function isPrime(uint256 b) internal pure returns (bool) {... */\n            tag_12:\n                /* \"TryCatch.sol\":217:221  bool */\n              0x00\n                /* \"TryCatch.sol\":236:237  1 */\n              0x01\n                /* \"TryCatch.sol\":231:232  b */\n              dup3\n                /* \"TryCatch.sol\":231:237  b <= 1 */\n              gt\n                /* \"TryCatch.sol\":227:258  if (b <= 1) {... */\n              tag_17\n              jumpi\n                /* \"TryCatch.sol\":250:255  false */\n              0x00\n                /* \"TryCatch.sol\":243:255  return false */\n              swap1\n              pop\n              jump(tag_16)\n                /* \"TryCatch.sol\":227:258  if (b <= 1) {... */\n            tag_17:\n                /* \"TryCatch.sol\":270:271  2 */\n              0x02\n                /* \"TryCatch.sol\":265:266  b */\n              dup3\n                /* \"TryCatch.sol\":265:271  b == 2 */\n              sub\n                /* \"TryCatch.sol\":261:291  if (b == 2) {... */\n              tag_18\n              jumpi\n                /* \"TryCatch.sol\":284:288  true */\n              0x01\n                /* \"TryCatch.sol\":277:288  return true */\n              swap1\n              pop\n              jump(tag_16)\n                /* \"TryCatch.sol\":261:291  if (b == 2) {... */\n            tag_18:\n                /* \"TryCatch.sol\":307:308  0 */\n              0x00\n                /* \"TryCatch.sol\":302:303  2 */\n              0x02\n                /* \"TryCatch.sol\":298:299  b */\n              dup4\n                /* \"TryCatch.sol\":298:303  b % 2 */\n              tag_19\n              swap2\n              swap1\n              tag_20\n              jump\t// in\n            tag_19:\n                /* \"TryCatch.sol\":298:308  b % 2 == 0 */\n              sub\n                /* \"TryCatch.sol\":294:329  if (b % 2 == 0) {... */\n              tag_21\n              jumpi\n                /* \"TryCatch.sol\":321:326  false */\n              0x00\n                /* \"TryCatch.sol\":314:326  return false */\n              swap1\n              pop\n              jump(tag_16)\n                /* \"TryCatch.sol\":294:329  if (b % 2 == 0) {... */\n            tag_21:\n                /* \"TryCatch.sol\":337:346  uint256 i */\n              0x00\n                /* \"TryCatch.sol\":349:350  3 */\n              0x03\n                /* \"TryCatch.sol\":337:350  uint256 i = 3 */\n              swap1\n              pop\n                /* \"TryCatch.sol\":332:415  for (uint256 i = 3; i * i <= b; i += 2) {... */\n            tag_22:\n                /* \"TryCatch.sol\":361:362  b */\n              dup3\n                /* \"TryCatch.sol\":356:357  i */\n              dup2\n                /* \"TryCatch.sol\":352:353  i */\n              dup3\n                /* \"TryCatch.sol\":352:357  i * i */\n              tag_25\n              swap2\n              swap1\n              tag_26\n              jump\t// in\n            tag_25:\n                /* \"TryCatch.sol\":352:362  i * i <= b */\n              gt\n                /* \"TryCatch.sol\":332:415  for (uint256 i = 3; i * i <= b; i += 2) {... */\n              tag_23\n              jumpi\n                /* \"TryCatch.sol\":389:390  0 */\n              0x00\n                /* \"TryCatch.sol\":384:385  i */\n              dup2\n                /* \"TryCatch.sol\":380:381  b */\n              dup5\n                /* \"TryCatch.sol\":380:385  b % i */\n              tag_27\n              swap2\n              swap1\n              tag_20\n              jump\t// in\n            tag_27:\n                /* \"TryCatch.sol\":380:390  b % i == 0 */\n              sub\n                /* \"TryCatch.sol\":376:411  if (b % i == 0) {... */\n              tag_28\n              jumpi\n                /* \"TryCatch.sol\":403:408  false */\n              0x00\n                /* \"TryCatch.sol\":396:408  return false */\n              swap2\n              pop\n              pop\n              jump(tag_16)\n                /* \"TryCatch.sol\":376:411  if (b % i == 0) {... */\n            tag_28:\n                /* \"TryCatch.sol\":369:370  2 */\n              0x02\n                /* \"TryCatch.sol\":364:370  i += 2 */\n              dup2\n              tag_29\n              swap2\n              swap1\n              tag_30\n              jump\t// in\n            tag_29:\n              swap1\n              pop\n                /* \"TryCatch.sol\":332:415  for (uint256 i = 3; i * i <= b; i += 2) {... */\n              jump(tag_22)\n            tag_23:\n              pop\n                /* \"TryCatch.sol\":425:429  true */\n              0x01\n                /* \"TryCatch.sol\":418:429  return true */\n              swap1\n              pop\n                /* \"TryCatch.sol\":166:433  function isPrime(uint256 b) internal pure returns (bool) {... */\n            tag_16:\n              swap2\n              swap1\n              pop\n              jump\t// out\n                /* \"#utility.yul\":88:205   */\n            tag_32:\n                /* \"#utility.yul\":197:198   */\n              0x00\n                /* \"#utility.yul\":194:195   */\n              dup1\n                /* \"#utility.yul\":187:199   */\n              revert\n                /* \"#utility.yul\":334:411   */\n            tag_34:\n                /* \"#utility.yul\":371:378   */\n              0x00\n                /* \"#utility.yul\":400:405   */\n              dup2\n                /* \"#utility.yul\":389:405   */\n              swap1\n              pop\n                /* \"#utility.yul\":334:411   */\n              swap2\n              swap1\n              pop\n              jump\t// out\n                /* \"#utility.yul\":417:539   */\n            tag_35:\n                /* \"#utility.yul\":490:514   */\n              tag_50\n                /* \"#utility.yul\":508:513   */\n              dup2\n                /* \"#utility.yul\":490:514   */\n              tag_34\n              jump\t// in\n            tag_50:\n                /* \"#utility.yul\":483:488   */\n              dup2\n                /* \"#utility.yul\":480:515   */\n              eq\n                /* \"#utility.yul\":470:533   */\n              tag_51\n              jumpi\n                /* \"#utility.yul\":529:530   */\n              0x00\n                /* \"#utility.yul\":526:527   */\n              dup1\n                /* \"#utility.yul\":519:531   */\n              revert\n                /* \"#utility.yul\":470:533   */\n            tag_51:\n                /* \"#utility.yul\":417:539   */\n              pop\n              jump\t// out\n                /* \"#utility.yul\":545:684   */\n            tag_36:\n                /* \"#utility.yul\":591:596   */\n              0x00\n                /* \"#utility.yul\":629:635   */\n              dup2\n                /* \"#utility.yul\":616:636   */\n              calldataload\n                /* \"#utility.yul\":607:636   */\n              swap1\n              pop\n                /* \"#utility.yul\":645:678   */\n              tag_53\n                /* \"#utility.yul\":672:677   */\n              dup2\n                /* \"#utility.yul\":645:678   */\n              tag_35\n              jump\t// in\n            tag_53:\n                /* \"#utility.yul\":545:684   */\n              swap3\n              swap2\n              pop\n              pop\n              jump\t// out\n                /* \"#utility.yul\":690:1019   */\n            tag_6:\n                /* \"#utility.yul\":749:755   */\n              0x00\n                /* \"#utility.yul\":798:800   */\n              0x20\n                /* \"#utility.yul\":786:795   */\n              dup3\n                /* \"#utility.yul\":777:784   */\n              dup5\n                /* \"#utility.yul\":773:796   */\n              sub\n                /* \"#utility.yul\":769:801   */\n              slt\n                /* \"#utility.yul\":766:885   */\n              iszero\n              tag_55\n              jumpi\n                /* \"#utility.yul\":804:883   */\n              tag_56\n              tag_32\n              jump\t// in\n            tag_56:\n                /* \"#utility.yul\":766:885   */\n            tag_55:\n                /* \"#utility.yul\":924:925   */\n              0x00\n                /* \"#utility.yul\":949:1002   */\n              tag_57\n                /* \"#utility.yul\":994:1001   */\n              dup5\n                /* \"#utility.yul\":985:991   */\n              dup3\n                /* \"#utility.yul\":974:983   */\n              dup6\n                /* \"#utility.yul\":970:992   */\n              add\n                /* \"#utility.yul\":949:1002   */\n              tag_36\n              jump\t// in\n            tag_57:\n                /* \"#utility.yul\":939:1002   */\n              swap2\n              pop\n                /* \"#utility.yul\":895:1012   */\n              pop\n                /* \"#utility.yul\":690:1019   */\n              swap3\n              swap2\n              pop\n              pop\n              jump\t// out\n                /* \"#utility.yul\":1025:1115   */\n            tag_37:\n                /* \"#utility.yul\":1059:1066   */\n              0x00\n                /* \"#utility.yul\":1102:1107   */\n              dup2\n                /* \"#utility.yul\":1095:1108   */\n              iszero\n                /* \"#utility.yul\":1088:1109   */\n              iszero\n                /* \"#utility.yul\":1077:1109   */\n              swap1\n              pop\n                /* \"#utility.yul\":1025:1115   */\n              swap2\n              swap1\n              pop\n              jump\t// out\n                /* \"#utility.yul\":1121:1230   */\n            tag_38:\n                /* \"#utility.yul\":1202:1223   */\n              tag_60\n                /* \"#utility.yul\":1217:1222   */\n              dup2\n                /* \"#utility.yul\":1202:1223   */\n              tag_37\n              jump\t// in\n            tag_60:\n                /* \"#utility.yul\":1197:1200   */\n              dup3\n                /* \"#utility.yul\":1190:1224   */\n              mstore\n                /* \"#utility.yul\":1121:1230   */\n              pop\n              pop\n              jump\t// out\n                /* \"#utility.yul\":1236:1446   */\n            tag_9:\n                /* \"#utility.yul\":1323:1327   */\n              0x00\n                /* \"#utility.yul\":1361:1363   */\n              0x20\n                /* \"#utility.yul\":1350:1359   */\n              dup3\n                /* \"#utility.yul\":1346:1364   */\n              add\n                /* \"#utility.yul\":1338:1364   */\n              swap1\n              pop\n                /* \"#utility.yul\":1374:1439   */\n              tag_62\n                /* \"#utility.yul\":1436:1437   */\n              0x00\n                /* \"#utility.yul\":1425:1434   */\n              dup4\n                /* \"#utility.yul\":1421:1438   */\n              add\n                /* \"#utility.yul\":1412:1418   */\n              dup5\n                /* \"#utility.yul\":1374:1439   */\n              tag_38\n              jump\t// in\n            tag_62:\n                /* \"#utility.yul\":1236:1446   */\n              swap3\n              swap2\n              pop\n              pop\n              jump\t// out\n                /* \"#utility.yul\":1452:1621   */\n            tag_39:\n                /* \"#utility.yul\":1536:1547   */\n              0x00\n                /* \"#utility.yul\":1570:1576   */\n              dup3\n                /* \"#utility.yul\":1565:1568   */\n              dup3\n                /* \"#utility.yul\":1558:1577   */\n              mstore\n                /* \"#utility.yul\":1610:1614   */\n              0x20\n                /* \"#utility.yul\":1605:1608   */\n              dup3\n                /* \"#utility.yul\":1601:1615   */\n              add\n                /* \"#utility.yul\":1586:1615   */\n              swap1\n              pop\n                /* \"#utility.yul\":1452:1621   */\n              swap3\n              swap2\n              pop\n              pop\n              jump\t// out\n                /* \"#utility.yul\":1627:1791   */\n            tag_40:\n                /* \"#utility.yul\":1767:1783   */\n              0x5570732120526576657274696e67000000000000000000000000000000000000\n                /* \"#utility.yul\":1763:1764   */\n              0x00\n                /* \"#utility.yul\":1755:1761   */\n              dup3\n                /* \"#utility.yul\":1751:1765   */\n              add\n                /* \"#utility.yul\":1744:1784   */\n              mstore\n                /* \"#utility.yul\":1627:1791   */\n              pop\n              jump\t// out\n                /* \"#utility.yul\":1797:2163   */\n            tag_41:\n                /* \"#utility.yul\":1939:1942   */\n              0x00\n                /* \"#utility.yul\":1960:2027   */\n              tag_66\n                /* \"#utility.yul\":2024:2026   */\n              0x0e\n                /* \"#utility.yul\":2019:2022   */\n              dup4\n                /* \"#utility.yul\":1960:2027   */\n              tag_39\n              jump\t// in\n            tag_66:\n                /* \"#utility.yul\":1953:2027   */\n              swap2\n              pop\n                /* \"#utility.yul\":2036:2129   */\n              tag_67\n                /* \"#utility.yul\":2125:2128   */\n              dup3\n                /* \"#utility.yul\":2036:2129   */\n              tag_40\n              jump\t// in\n            tag_67:\n                /* \"#utility.yul\":2154:2156   */\n              0x20\n                /* \"#utility.yul\":2149:2152   */\n              dup3\n                /* \"#utility.yul\":2145:2157   */\n              add\n                /* \"#utility.yul\":2138:2157   */\n              swap1\n              pop\n                /* \"#utility.yul\":1797:2163   */\n              swap2\n              swap1\n              pop\n              jump\t// out\n                /* \"#utility.yul\":2169:2588   */\n            tag_15:\n                /* \"#utility.yul\":2335:2339   */\n              0x00\n                /* \"#utility.yul\":2373:2375   */\n              0x20\n                /* \"#utility.yul\":2362:2371   */\n              dup3\n                /* \"#utility.yul\":2358:2376   */\n              add\n                /* \"#utility.yul\":2350:2376   */\n              swap1\n              pop\n                /* \"#utility.yul\":2422:2431   */\n              dup2\n                /* \"#utility.yul\":2416:2420   */\n              dup2\n                /* \"#utility.yul\":2412:2432   */\n              sub\n                /* \"#utility.yul\":2408:2409   */\n              0x00\n                /* \"#utility.yul\":2397:2406   */\n              dup4\n                /* \"#utility.yul\":2393:2410   */\n              add\n                /* \"#utility.yul\":2386:2433   */\n              mstore\n                /* \"#utility.yul\":2450:2581   */\n              tag_69\n                /* \"#utility.yul\":2576:2580   */\n              dup2\n                /* \"#utility.yul\":2450:2581   */\n              tag_41\n              jump\t// in\n            tag_69:\n                /* \"#utility.yul\":2442:2581   */\n              swap1\n              pop\n                /* \"#utility.yul\":2169:2588   */\n              swap2\n              swap1\n              pop\n              jump\t// out\n                /* \"#utility.yul\":2594:2774   */\n            tag_42:\n                /* \"#utility.yul\":2642:2719   */\n              0x4e487b7100000000000000000000000000000000000000000000000000000000\n                /* \"#utility.yul\":2639:2640   */\n              0x00\n                /* \"#utility.yul\":2632:2720   */\n              mstore\n                /* \"#utility.yul\":2739:2743   */\n              0x12\n                /* \"#utility.yul\":2736:2737   */\n              0x04\n                /* \"#utility.yul\":2729:2744   */\n              mstore\n                /* \"#utility.yul\":2763:2767   */\n              0x24\n                /* \"#utility.yul\":2760:2761   */\n              0x00\n                /* \"#utility.yul\":2753:2768   */\n              revert\n                /* \"#utility.yul\":2780:2956   */\n            tag_20:\n                /* \"#utility.yul\":2812:2813   */\n              0x00\n                /* \"#utility.yul\":2829:2849   */\n              tag_72\n                /* \"#utility.yul\":2847:2848   */\n              dup3\n                /* \"#utility.yul\":2829:2849   */\n              tag_34\n              jump\t// in\n            tag_72:\n                /* \"#utility.yul\":2824:2849   */\n              swap2\n              pop\n                /* \"#utility.yul\":2863:2883   */\n              tag_73\n                /* \"#utility.yul\":2881:2882   */\n              dup4\n                /* \"#utility.yul\":2863:2883   */\n              tag_34\n              jump\t// in\n            tag_73:\n                /* \"#utility.yul\":2858:2883   */\n              swap3\n              pop\n                /* \"#utility.yul\":2902:2903   */\n              dup3\n                /* \"#utility.yul\":2892:2927   */\n              tag_74\n              jumpi\n                /* \"#utility.yul\":2907:2925   */\n              tag_75\n              tag_42\n              jump\t// in\n            tag_75:\n                /* \"#utility.yul\":2892:2927   */\n            tag_74:\n                /* \"#utility.yul\":2948:2949   */\n              dup3\n                /* \"#utility.yul\":2945:2946   */\n              dup3\n                /* \"#utility.yul\":2941:2950   */\n              mod\n                /* \"#utility.yul\":2936:2950   */\n              swap1\n              pop\n                /* \"#utility.yul\":2780:2956   */\n              swap3\n              swap2\n              pop\n              pop\n              jump\t// out\n                /* \"#utility.yul\":2962:3142   */\n            tag_43:\n                /* \"#utility.yul\":3010:3087   */\n              0x4e487b7100000000000000000000000000000000000000000000000000000000\n                /* \"#utility.yul\":3007:3008   */\n              0x00\n                /* \"#utility.yul\":3000:3088   */\n              mstore\n                /* \"#utility.yul\":3107:3111   */\n              0x11\n                /* \"#utility.yul\":3104:3105   */\n              0x04\n                /* \"#utility.yul\":3097:3112   */\n              mstore\n                /* \"#utility.yul\":3131:3135   */\n              0x24\n                /* \"#utility.yul\":3128:3129   */\n              0x00\n                /* \"#utility.yul\":3121:3136   */\n              revert\n                /* \"#utility.yul\":3148:3558   */\n            tag_26:\n                /* \"#utility.yul\":3188:3195   */\n              0x00\n                /* \"#utility.yul\":3211:3231   */\n              tag_78\n                /* \"#utility.yul\":3229:3230   */\n              dup3\n                /* \"#utility.yul\":3211:3231   */\n              tag_34\n              jump\t// in\n            tag_78:\n                /* \"#utility.yul\":3206:3231   */\n              swap2\n              pop\n                /* \"#utility.yul\":3245:3265   */\n              tag_79\n                /* \"#utility.yul\":3263:3264   */\n              dup4\n                /* \"#utility.yul\":3245:3265   */\n              tag_34\n              jump\t// in\n            tag_79:\n                /* \"#utility.yul\":3240:3265   */\n              swap3\n              pop\n                /* \"#utility.yul\":3300:3301   */\n              dup3\n                /* \"#utility.yul\":3297:3298   */\n              dup3\n                /* \"#utility.yul\":3293:3302   */\n              mul\n                /* \"#utility.yul\":3322:3352   */\n              tag_80\n                /* \"#utility.yul\":3340:3351   */\n              dup2\n                /* \"#utility.yul\":3322:3352   */\n              tag_34\n              jump\t// in\n            tag_80:\n                /* \"#utility.yul\":3311:3352   */\n              swap2\n              pop\n                /* \"#utility.yul\":3501:3502   */\n              dup3\n                /* \"#utility.yul\":3492:3499   */\n              dup3\n                /* \"#utility.yul\":3488:3503   */\n              div\n                /* \"#utility.yul\":3485:3486   */\n              dup5\n                /* \"#utility.yul\":3482:3504   */\n              eq\n                /* \"#utility.yul\":3462:3463   */\n              dup4\n                /* \"#utility.yul\":3455:3464   */\n              iszero\n                /* \"#utility.yul\":3435:3518   */\n              or\n                /* \"#utility.yul\":3412:3551   */\n              tag_81\n              jumpi\n                /* \"#utility.yul\":3531:3549   */\n              tag_82\n              tag_43\n              jump\t// in\n            tag_82:\n                /* \"#utility.yul\":3412:3551   */\n            tag_81:\n                /* \"#utility.yul\":3196:3558   */\n              pop\n                /* \"#utility.yul\":3148:3558   */\n              swap3\n              swap2\n              pop\n              pop\n              jump\t// out\n                /* \"#utility.yul\":3564:3755   */\n            tag_30:\n                /* \"#utility.yul\":3604:3607   */\n              0x00\n                /* \"#utility.yul\":3623:3643   */\n              tag_84\n                /* \"#utility.yul\":3641:3642   */\n              dup3\n                /* \"#utility.yul\":3623:3643   */\n              tag_34\n              jump\t// in\n            tag_84:\n                /* \"#utility.yul\":3618:3643   */\n              swap2\n              pop\n                /* \"#utility.yul\":3657:3677   */\n              tag_85\n                /* \"#utility.yul\":3675:3676   */\n              dup4\n                /* \"#utility.yul\":3657:3677   */\n              tag_34\n              jump\t// in\n            tag_85:\n                /* \"#utility.yul\":3652:3677   */\n              swap3\n              pop\n                /* \"#utility.yul\":3700:3701   */\n              dup3\n                /* \"#utility.yul\":3697:3698   */\n              dup3\n                /* \"#utility.yul\":3693:3702   */\n              add\n                /* \"#utility.yul\":3686:3702   */\n              swap1\n              pop\n                /* \"#utility.yul\":3721:3724   */\n              dup1\n                /* \"#utility.yul\":3718:3719   */\n              dup3\n                /* \"#utility.yul\":3715:3725   */\n              gt\n                /* \"#utility.yul\":3712:3748   */\n              iszero\n              tag_86\n              jumpi\n                /* \"#utility.yul\":3728:3746   */\n              tag_87\n              tag_43\n              jump\t// in\n            tag_87:\n                /* \"#utility.yul\":3712:3748   */\n            tag_86:\n                /* \"#utility.yul\":3564:3755   */\n              swap3\n              swap2\n              pop\n              pop\n              jump\t// out\n\n            auxdata: 0xa2646970667358221220cc0082d60790c83d0341f8fbd2a60cea657859bd6def0302a192e2559fc6e2ca64736f6c63430008140033\n        }\n    }\n\n    auxdata: 0xa2646970667358221220ec6a9965ae64b18865db63daa60b62784d30ccf11db66179f8b167ad88a3d28864736f6c63430008140033\n}\n\nsub_1: assembly {\n        /* \"TryCatch.sol\":60:614  contract PrimeChecker{... */\n      mstore(0x40, 0x80)\n        /* \"TryCatch.sol\":85:163  constructor(uint a){... */\n      callvalue\n      dup1\n      iszero\n      tag_1\n      jumpi\n      0x00\n      dup1\n      revert\n    tag_1:\n      pop\n      mload(0x40)\n      sub(codesize, bytecodeSize)\n      dup1\n      bytecodeSize\n      dup4\n      codecopy\n      dup2\n      dup2\n      add\n      0x40\n      mstore\n      dup2\n      add\n      swap1\n      tag_2\n      swap2\n      swap1\n      tag_3\n      jump\t// in\n    tag_2:\n        /* \"TryCatch.sol\":121:122  0 */\n      0x00\n        /* \"TryCatch.sol\":116:117  a */\n      dup2\n        /* \"TryCatch.sol\":116:122  a != 0 */\n      sub\n        /* \"TryCatch.sol\":108:140  require(a != 0, \"Invalid Entry\") */\n      tag_6\n      jumpi\n      mload(0x40)\n      0x08c379a000000000000000000000000000000000000000000000000000000000\n      dup2\n      mstore\n      0x04\n      add\n      tag_7\n      swap1\n      tag_8\n      jump\t// in\n    tag_7:\n      mload(0x40)\n      dup1\n      swap2\n      sub\n      swap1\n      revert\n    tag_6:\n        /* \"TryCatch.sol\":156:157  1 */\n      0x01\n        /* \"TryCatch.sol\":151:152  a */\n      dup2\n        /* \"TryCatch.sol\":151:157  a != 1 */\n      sub\n        /* \"TryCatch.sol\":144:158  assert(a != 1) */\n      tag_9\n      jumpi\n      tag_10\n      tag_11\n      jump\t// in\n    tag_10:\n    tag_9:\n        /* \"TryCatch.sol\":85:163  constructor(uint a){... */\n      pop\n        /* \"TryCatch.sol\":60:614  contract PrimeChecker{... */\n      jump(tag_12)\n        /* \"#utility.yul\":88:205   */\n    tag_14:\n        /* \"#utility.yul\":197:198   */\n      0x00\n        /* \"#utility.yul\":194:195   */\n      dup1\n        /* \"#utility.yul\":187:199   */\n      revert\n        /* \"#utility.yul\":334:411   */\n    tag_16:\n        /* \"#utility.yul\":371:378   */\n      0x00\n        /* \"#utility.yul\":400:405   */\n      dup2\n        /* \"#utility.yul\":389:405   */\n      swap1\n      pop\n        /* \"#utility.yul\":334:411   */\n      swap2\n      swap1\n      pop\n      jump\t// out\n        /* \"#utility.yul\":417:539   */\n    tag_17:\n        /* \"#utility.yul\":490:514   */\n      tag_28\n        /* \"#utility.yul\":508:513   */\n      dup2\n        /* \"#utility.yul\":490:514   */\n      tag_16\n      jump\t// in\n    tag_28:\n        /* \"#utility.yul\":483:488   */\n      dup2\n        /* \"#utility.yul\":480:515   */\n      eq\n        /* \"#utility.yul\":470:533   */\n      tag_29\n      jumpi\n        /* \"#utility.yul\":529:530   */\n      0x00\n        /* \"#utility.yul\":526:527   */\n      dup1\n        /* \"#utility.yul\":519:531   */\n      revert\n        /* \"#utility.yul\":470:533   */\n    tag_29:\n        /* \"#utility.yul\":417:539   */\n      pop\n      jump\t// out\n        /* \"#utility.yul\":545:688   */\n    tag_18:\n        /* \"#utility.yul\":602:607   */\n      0x00\n        /* \"#utility.yul\":633:639   */\n      dup2\n        /* \"#utility.yul\":627:640   */\n      mload\n        /* \"#utility.yul\":618:640   */\n      swap1\n      pop\n        /* \"#utility.yul\":649:682   */\n      tag_31\n        /* \"#utility.yul\":676:681   */\n      dup2\n        /* \"#utility.yul\":649:682   */\n      tag_17\n      jump\t// in\n    tag_31:\n        /* \"#utility.yul\":545:688   */\n      swap3\n      swap2\n      pop\n      pop\n      jump\t// out\n        /* \"#utility.yul\":694:1045   */\n    tag_3:\n        /* \"#utility.yul\":764:770   */\n      0x00\n        /* \"#utility.yul\":813:815   */\n      0x20\n        /* \"#utility.yul\":801:810   */\n      dup3\n        /* \"#utility.yul\":792:799   */\n      dup5\n        /* \"#utility.yul\":788:811   */\n      sub\n        /* \"#utility.yul\":784:816   */\n      slt\n        /* \"#utility.yul\":781:900   */\n      iszero\n      tag_33\n      jumpi\n        /* \"#utility.yul\":819:898   */\n      tag_34\n      tag_14\n      jump\t// in\n    tag_34:\n        /* \"#utility.yul\":781:900   */\n    tag_33:\n        /* \"#utility.yul\":939:940   */\n      0x00\n        /* \"#utility.yul\":964:1028   */\n      tag_35\n        /* \"#utility.yul\":1020:1027   */\n      dup5\n        /* \"#utility.yul\":1011:1017   */\n      dup3\n        /* \"#utility.yul\":1000:1009   */\n      dup6\n        /* \"#utility.yul\":996:1018   */\n      add\n        /* \"#utility.yul\":964:1028   */\n      tag_18\n      jump\t// in\n    tag_35:\n        /* \"#utility.yul\":954:1028   */\n      swap2\n      pop\n        /* \"#utility.yul\":910:1038   */\n      pop\n        /* \"#utility.yul\":694:1045   */\n      swap3\n      swap2\n      pop\n      pop\n      jump\t// out\n        /* \"#utility.yul\":1051:1220   */\n    tag_19:\n        /* \"#utility.yul\":1135:1146   */\n      0x00\n        /* \"#utility.yul\":1169:1175   */\n      dup3\n        /* \"#utility.yul\":1164:1167   */\n      dup3\n        /* \"#utility.yul\":1157:1176   */\n      mstore\n        /* \"#utility.yul\":1209:1213   */\n      0x20\n        /* \"#utility.yul\":1204:1207   */\n      dup3\n        /* \"#utility.yul\":1200:1214   */\n      add\n        /* \"#utility.yul\":1185:1214   */\n      swap1\n      pop\n        /* \"#utility.yul\":1051:1220   */\n      swap3\n      swap2\n      pop\n      pop\n      jump\t// out\n        /* \"#utility.yul\":1226:1389   */\n    tag_20:\n        /* \"#utility.yul\":1366:1381   */\n      0x496e76616c696420456e74727900000000000000000000000000000000000000\n        /* \"#utility.yul\":1362:1363   */\n      0x00\n        /* \"#utility.yul\":1354:1360   */\n      dup3\n        /* \"#utility.yul\":1350:1364   */\n      add\n        /* \"#utility.yul\":1343:1382   */\n      mstore\n        /* \"#utility.yul\":1226:1389   */\n      pop\n      jump\t// out\n        /* \"#utility.yul\":1395:1761   */\n    tag_21:\n        /* \"#utility.yul\":1537:1540   */\n      0x00\n        /* \"#utility.yul\":1558:1625   */\n      tag_39\n        /* \"#utility.yul\":1622:1624   */\n      0x0d\n        /* \"#utility.yul\":1617:1620   */\n      dup4\n        /* \"#utility.yul\":1558:1625   */\n      tag_19\n      jump\t// in\n    tag_39:\n        /* \"#utility.yul\":1551:1625   */\n      swap2\n      pop\n        /* \"#utility.yul\":1634:1727   */\n      tag_40\n        /* \"#utility.yul\":1723:1726   */\n      dup3\n        /* \"#utility.yul\":1634:1727   */\n      tag_20\n      jump\t// in\n    tag_40:\n        /* \"#utility.yul\":1752:1754   */\n      0x20\n        /* \"#utility.yul\":1747:1750   */\n      dup3\n        /* \"#utility.yul\":1743:1755   */\n      add\n        /* \"#utility.yul\":1736:1755   */\n      swap1\n      pop\n        /* \"#utility.yul\":1395:1761   */\n      swap2\n      swap1\n      pop\n      jump\t// out\n        /* \"#utility.yul\":1767:2186   */\n    tag_8:\n        /* \"#utility.yul\":1933:1937   */\n      0x00\n        /* \"#utility.yul\":1971:1973   */\n      0x20\n        /* \"#utility.yul\":1960:1969   */\n      dup3\n        /* \"#utility.yul\":1956:1974   */\n      add\n        /* \"#utility.yul\":1948:1974   */\n      swap1\n      pop\n        /* \"#utility.yul\":2020:2029   */\n      dup2\n        /* \"#utility.yul\":2014:2018   */\n      dup2\n        /* \"#utility.yul\":2010:2030   */\n      sub\n        /* \"#utility.yul\":2006:2007   */\n      0x00\n        /* \"#utility.yul\":1995:2004   */\n      dup4\n        /* \"#utility.yul\":1991:2008   */\n      add\n        /* \"#utility.yul\":1984:2031   */\n      mstore\n        /* \"#utility.yul\":2048:2179   */\n      tag_42\n        /* \"#utility.yul\":2174:2178   */\n      dup2\n        /* \"#utility.yul\":2048:2179   */\n      tag_21\n      jump\t// in\n    tag_42:\n        /* \"#utility.yul\":2040:2179   */\n      swap1\n      pop\n        /* \"#utility.yul\":1767:2186   */\n      swap2\n      swap1\n      pop\n      jump\t// out\n        /* \"#utility.yul\":2192:2372   */\n    tag_11:\n        /* \"#utility.yul\":2240:2317   */\n      0x4e487b7100000000000000000000000000000000000000000000000000000000\n        /* \"#utility.yul\":2237:2238   */\n      0x00\n        /* \"#utility.yul\":2230:2318   */\n      mstore\n        /* \"#utility.yul\":2337:2341   */\n      0x01\n        /* \"#utility.yul\":2334:2335   */\n      0x04\n        /* \"#utility.yul\":2327:2342   */\n      mstore\n        /* \"#utility.yul\":2361:2365   */\n      0x24\n        /* \"#utility.yul\":2358:2359   */\n      0x00\n        /* \"#utility.yul\":2351:2366   */\n      revert\n        /* \"TryCatch.sol\":60:614  contract PrimeChecker{... */\n    tag_12:\n      dataSize(sub_0)\n      dup1\n      dataOffset(sub_0)\n      0x00\n      codecopy\n      0x00\n      return\n    stop\n\n    sub_0: assembly {\n            /* \"TryCatch.sol\":60:614  contract PrimeChecker{... */\n          mstore(0x40, 0x80)\n          callvalue\n          dup1\n          iszero\n          tag_1\n          jumpi\n          0x00\n          dup1\n          revert\n        tag_1:\n          pop\n          jumpi(tag_2, lt(calldatasize, 0x04))\n          shr(0xe0, calldataload(0x00))\n          dup1\n          0x05f5b3eb\n          eq\n          tag_3\n          jumpi\n        tag_2:\n          0x00\n          dup1\n          revert\n            /* \"TryCatch.sol\":435:611  function onlyPrime(uint256 b) external pure returns (bool success) {... */\n        tag_3:\n          tag_4\n          0x04\n          dup1\n          calldatasize\n          sub\n          dup2\n          add\n          swap1\n          tag_5\n          swap2\n          swap1\n          tag_6\n          jump\t// in\n        tag_5:\n          tag_7\n          jump\t// in\n        tag_4:\n          mload(0x40)\n          tag_8\n          swap2\n          swap1\n          tag_9\n          jump\t// in\n        tag_8:\n          mload(0x40)\n          dup1\n          swap2\n          sub\n          swap1\n          return\n        tag_7:\n            /* \"TryCatch.sol\":488:500  bool success */\n          0x00\n            /* \"TryCatch.sol\":561:571  isPrime(b) */\n          tag_11\n            /* \"TryCatch.sol\":569:570  b */\n          dup3\n            /* \"TryCatch.sol\":561:568  isPrime */\n          tag_12\n            /* \"TryCatch.sol\":561:571  isPrime(b) */\n          jump\t// in\n        tag_11:\n            /* \"TryCatch.sol\":553:590  require(isPrime(b), \"Ups! Reverting\") */\n          tag_13\n          jumpi\n          mload(0x40)\n          0x08c379a000000000000000000000000000000000000000000000000000000000\n          dup2\n          mstore\n          0x04\n          add\n          tag_14\n          swap1\n          tag_15\n          jump\t// in\n        tag_14:\n          mload(0x40)\n          dup1\n          swap2\n          sub\n          swap1\n          revert\n        tag_13:\n            /* \"TryCatch.sol\":604:608  true */\n          0x01\n            /* \"TryCatch.sol\":594:608  success = true */\n          swap1\n          pop\n            /* \"TryCatch.sol\":435:611  function onlyPrime(uint256 b) external pure returns (bool success) {... */\n          swap2\n          swap1\n          pop\n          jump\t// out\n            /* \"TryCatch.sol\":166:433  function isPrime(uint256 b) internal pure returns (bool) {... */\n        tag_12:\n            /* \"TryCatch.sol\":217:221  bool */\n          0x00\n            /* \"TryCatch.sol\":236:237  1 */\n          0x01\n            /* \"TryCatch.sol\":231:232  b */\n          dup3\n            /* \"TryCatch.sol\":231:237  b <= 1 */\n          gt\n            /* \"TryCatch.sol\":227:258  if (b <= 1) {... */\n          tag_17\n          jumpi\n            /* \"TryCatch.sol\":250:255  false */\n          0x00\n            /* \"TryCatch.sol\":243:255  return false */\n          swap1\n          pop\n          jump(tag_16)\n            /* \"TryCatch.sol\":227:258  if (b <= 1) {... */\n        tag_17:\n            /* \"TryCatch.sol\":270:271  2 */\n          0x02\n            /* \"TryCatch.sol\":265:266  b */\n          dup3\n            /* \"TryCatch.sol\":265:271  b == 2 */\n          sub\n            /* \"TryCatch.sol\":261:291  if (b == 2) {... */\n          tag_18\n          jumpi\n            /* \"TryCatch.sol\":284:288  true */\n          0x01\n            /* \"TryCatch.sol\":277:288  return true */\n          swap1\n          pop\n          jump(tag_16)\n            /* \"TryCatch.sol\":261:291  if (b == 2) {... */\n        tag_18:\n            /* \"TryCatch.sol\":307:308  0 */\n          0x00\n            /* \"TryCatch.sol\":302:303  2 */\n          0x02\n            /* \"TryCatch.sol\":298:299  b */\n          dup4\n            /* \"TryCatch.sol\":298:303  b % 2 */\n          tag_19\n          swap2\n          swap1\n          tag_20\n          jump\t// in\n        tag_19:\n            /* \"TryCatch.sol\":298:308  b % 2 == 0 */\n          sub\n            /* \"TryCatch.sol\":294:329  if (b % 2 == 0) {... */\n          tag_21\n          jumpi\n            /* \"TryCatch.sol\":321:326  false */\n          0x00\n            /* \"TryCatch.sol\":314:326  return false */\n          swap1\n          pop\n          jump(tag_16)\n            /* \"TryCatch.sol\":294:329  if (b % 2 == 0) {... */\n        tag_21:\n            /* \"TryCatch.sol\":337:346  uint256 i */\n          0x00\n            /* \"TryCatch.sol\":349:350  3 */\n          0x03\n            /* \"TryCatch.sol\":337:350  uint256 i = 3 */\n          swap1\n          pop\n            /* \"TryCatch.sol\":332:415  for (uint256 i = 3; i * i <= b; i += 2) {... */\n        tag_22:\n            /* \"TryCatch.sol\":361:362  b */\n          dup3\n            /* \"TryCatch.sol\":356:357  i */\n          dup2\n            /* \"TryCatch.sol\":352:353  i */\n          dup3\n            /* \"TryCatch.sol\":352:357  i * i */\n          tag_25\n          swap2\n          swap1\n          tag_26\n          jump\t// in\n        tag_25:\n            /* \"TryCatch.sol\":352:362  i * i <= b */\n          gt\n            /* \"TryCatch.sol\":332:415  for (uint256 i = 3; i * i <= b; i += 2) {... */\n          tag_23\n          jumpi\n            /* \"TryCatch.sol\":389:390  0 */\n          0x00\n            /* \"TryCatch.sol\":384:385  i */\n          dup2\n            /* \"TryCatch.sol\":380:381  b */\n          dup5\n            /* \"TryCatch.sol\":380:385  b % i */\n          tag_27\n          swap2\n          swap1\n          tag_20\n          jump\t// in\n        tag_27:\n            /* \"TryCatch.sol\":380:390  b % i == 0 */\n          sub\n            /* \"TryCatch.sol\":376:411  if (b % i == 0) {... */\n          tag_28\n          jumpi\n            /* \"TryCatch.sol\":403:408  false */\n          0x00\n            /* \"TryCatch.sol\":396:408  return false */\n          swap2\n          pop\n          pop\n          jump(tag_16)\n            /* \"TryCatch.sol\":376:411  if (b % i == 0) {... */\n        tag_28:\n            /* \"TryCatch.sol\":369:370  2 */\n          0x02\n            /* \"TryCatch.sol\":364:370  i += 2 */\n          dup2\n          tag_29\n          swap2\n          swap1\n          tag_30\n          jump\t// in\n        tag_29:\n          swap1\n          pop\n            /* \"TryCatch.sol\":332:415  for (uint256 i = 3; i * i <= b; i += 2) {... */\n          jump(tag_22)\n        tag_23:\n          pop\n            /* \"TryCatch.sol\":425:429  true */\n          0x01\n            /* \"TryCatch.sol\":418:429  return true */\n          swap1\n          pop\n            /* \"TryCatch.sol\":166:433  function isPrime(uint256 b) internal pure returns (bool) {... */\n        tag_16:\n          swap2\n          swap1\n          pop\n          jump\t// out\n            /* \"#utility.yul\":88:205   */\n        tag_32:\n            /* \"#utility.yul\":197:198   */\n          0x00\n            /* \"#utility.yul\":194:195   */\n          dup1\n            /* \"#utility.yul\":187:199   */\n          revert\n            /* \"#utility.yul\":334:411   */\n        tag_34:\n            /* \"#utility.yul\":371:378   */\n          0x00\n            /* \"#utility.yul\":400:405   */\n          dup2\n            /* \"#utility.yul\":389:405   */\n          swap1\n          pop\n            /* \"#utility.yul\":334:411   */\n          swap2\n          swap1\n          pop\n          jump\t// out\n            /* \"#utility.yul\":417:539   */\n        tag_35:\n            /* \"#utility.yul\":490:514   */\n          tag_50\n            /* \"#utility.yul\":508:513   */\n          dup2\n            /* \"#utility.yul\":490:514   */\n          tag_34\n          jump\t// in\n        tag_50:\n            /* \"#utility.yul\":483:488   */\n          dup2\n            /* \"#utility.yul\":480:515   */\n          eq\n            /* \"#utility.yul\":470:533   */\n          tag_51\n          jumpi\n            /* \"#utility.yul\":529:530   */\n          0x00\n            /* \"#utility.yul\":526:527   */\n          dup1\n            /* \"#utility.yul\":519:531   */\n          revert\n            /* \"#utility.yul\":470:533   */\n        tag_51:\n            /* \"#utility.yul\":417:539   */\n          pop\n          jump\t// out\n            /* \"#utility.yul\":545:684   */\n        tag_36:\n            /* \"#utility.yul\":591:596   */\n          0x00\n            /* \"#utility.yul\":629:635   */\n          dup2\n            /* \"#utility.yul\":616:636   */\n          calldataload\n            /* \"#utility.yul\":607:636   */\n          swap1\n          pop\n            /* \"#utility.yul\":645:678   */\n          tag_53\n            /* \"#utility.yul\":672:677   */\n          dup2\n            /* \"#utility.yul\":645:678   */\n          tag_35\n          jump\t// in\n        tag_53:\n            /* \"#utility.yul\":545:684   */\n          swap3\n          swap2\n          pop\n          pop\n          jump\t// out\n            /* \"#utility.yul\":690:1019   */\n        tag_6:\n            /* \"#utility.yul\":749:755   */\n          0x00\n            /* \"#utility.yul\":798:800   */\n          0x20\n            /* \"#utility.yul\":786:795   */\n          dup3\n            /* \"#utility.yul\":777:784   */\n          dup5\n            /* \"#utility.yul\":773:796   */\n          sub\n            /* \"#utility.yul\":769:801   */\n          slt\n            /* \"#utility.yul\":766:885   */\n          iszero\n          tag_55\n          jumpi\n            /* \"#utility.yul\":804:883   */\n          tag_56\n          tag_32\n          jump\t// in\n        tag_56:\n            /* \"#utility.yul\":766:885   */\n        tag_55:\n            /* \"#utility.yul\":924:925   */\n          0x00\n            /* \"#utility.yul\":949:1002   */\n          tag_57\n            /* \"#utility.yul\":994:1001   */\n          dup5\n            /* \"#utility.yul\":985:991   */\n          dup3\n            /* \"#utility.yul\":974:983   */\n          dup6\n            /* \"#utility.yul\":970:992   */\n          add\n            /* \"#utility.yul\":949:1002   */\n          tag_36\n          jump\t// in\n        tag_57:\n            /* \"#utility.yul\":939:1002   */\n          swap2\n          pop\n            /* \"#utility.yul\":895:1012   */\n          pop\n            /* \"#utility.yul\":690:1019   */\n          swap3\n          swap2\n          pop\n          pop\n          jump\t// out\n            /* \"#utility.yul\":1025:1115   */\n        tag_37:\n            /* \"#utility.yul\":1059:1066   */\n          0x00\n            /* \"#utility.yul\":1102:1107   */\n          dup2\n            /* \"#utility.yul\":1095:1108   */\n          iszero\n            /* \"#utility.yul\":1088:1109   */\n          iszero\n            /* \"#utility.yul\":1077:1109   */\n          swap1\n          pop\n            /* \"#utility.yul\":1025:1115   */\n          swap2\n          swap1\n          pop\n          jump\t// out\n            /* \"#utility.yul\":1121:1230   */\n        tag_38:\n            /* \"#utility.yul\":1202:1223   */\n          tag_60\n            /* \"#utility.yul\":1217:1222   */\n          dup2\n            /* \"#utility.yul\":1202:1223   */\n          tag_37\n          jump\t// in\n        tag_60:\n            /* \"#utility.yul\":1197:1200   */\n          dup3\n            /* \"#utility.yul\":1190:1224   */\n          mstore\n            /* \"#utility.yul\":1121:1230   */\n          pop\n          pop\n          jump\t// out\n            /* \"#utility.yul\":1236:1446   */\n        tag_9:\n            /* \"#utility.yul\":1323:1327   */\n          0x00\n            /* \"#utility.yul\":1361:1363   */\n          0x20\n            /* \"#utility.yul\":1350:1359   */\n          dup3\n            /* \"#utility.yul\":1346:1364   */\n          add\n            /* \"#utility.yul\":1338:1364   */\n          swap1\n          pop\n            /* \"#utility.yul\":1374:1439   */\n          tag_62\n            /* \"#utility.yul\":1436:1437   */\n          0x00\n            /* \"#utility.yul\":1425:1434   */\n          dup4\n            /* \"#utility.yul\":1421:1438   */\n          add\n            /* \"#utility.yul\":1412:1418   */\n          dup5\n            /* \"#utility.yul\":1374:1439   */\n          tag_38\n          jump\t// in\n        tag_62:\n            /* \"#utility.yul\":1236:1446   */\n          swap3\n          swap2\n          pop\n          pop\n          jump\t// out\n            /* \"#utility.yul\":1452:1621   */\n        tag_39:\n            /* \"#utility.yul\":1536:1547   */\n          0x00\n            /* \"#utility.yul\":1570:1576   */\n          dup3\n            /* \"#utility.yul\":1565:1568   */\n          dup3\n            /* \"#utility.yul\":1558:1577   */\n          mstore\n            /* \"#utility.yul\":1610:1614   */\n          0x20\n            /* \"#utility.yul\":1605:1608   */\n          dup3\n            /* \"#utility.yul\":1601:1615   */\n          add\n            /* \"#utility.yul\":1586:1615   */\n          swap1\n          pop\n            /* \"#utility.yul\":1452:1621   */\n          swap3\n          swap2\n          pop\n          pop\n          jump\t// out\n            /* \"#utility.yul\":1627:1791   */\n        tag_40:\n            /* \"#utility.yul\":1767:1783   */\n          0x5570732120526576657274696e67000000000000000000000000000000000000\n            /* \"#utility.yul\":1763:1764   */\n          0x00\n            /* \"#utility.yul\":1755:1761   */\n          dup3\n            /* \"#utility.yul\":1751:1765   */\n          add\n            /* \"#utility.yul\":1744:1784   */\n          mstore\n            /* \"#utility.yul\":1627:1791   */\n          pop\n          jump\t// out\n            /* \"#utility.yul\":1797:2163   */\n        tag_41:\n            /* \"#utility.yul\":1939:1942   */\n          0x00\n            /* \"#utility.yul\":1960:2027   */\n          tag_66\n            /* \"#utility.yul\":2024:2026   */\n          0x0e\n            /* \"#utility.yul\":2019:2022   */\n          dup4\n            /* \"#utility.yul\":1960:2027   */\n          tag_39\n          jump\t// in\n        tag_66:\n            /* \"#utility.yul\":1953:2027   */\n          swap2\n          pop\n            /* \"#utility.yul\":2036:2129   */\n          tag_67\n            /* \"#utility.yul\":2125:2128   */\n          dup3\n            /* \"#utility.yul\":2036:2129   */\n          tag_40\n          jump\t// in\n        tag_67:\n            /* \"#utility.yul\":2154:2156   */\n          0x20\n            /* \"#utility.yul\":2149:2152   */\n          dup3\n            /* \"#utility.yul\":2145:2157   */\n          add\n            /* \"#utility.yul\":2138:2157   */\n          swap1\n          pop\n            /* \"#utility.yul\":1797:2163   */\n          swap2\n          swap1\n          pop\n          jump\t// out\n            /* \"#utility.yul\":2169:2588   */\n        tag_15:\n            /* \"#utility.yul\":2335:2339   */\n          0x00\n            /* \"#utility.yul\":2373:2375   */\n          0x20\n            /* \"#utility.yul\":2362:2371   */\n          dup3\n            /* \"#utility.yul\":2358:2376   */\n          add\n            /* \"#utility.yul\":2350:2376   */\n          swap1\n          pop\n            /* \"#utility.yul\":2422:2431   */\n          dup2\n            /* \"#utility.yul\":2416:2420   */\n          dup2\n            /* \"#utility.yul\":2412:2432   */\n          sub\n            /* \"#utility.yul\":2408:2409   */\n          0x00\n            /* \"#utility.yul\":2397:2406   */\n          dup4\n            /* \"#utility.yul\":2393:2410   */\n          add\n            /* \"#utility.yul\":2386:2433   */\n          mstore\n            /* \"#utility.yul\":2450:2581   */\n          tag_69\n            /* \"#utility.yul\":2576:2580   */\n          dup2\n            /* \"#utility.yul\":2450:2581   */\n          tag_41\n          jump\t// in\n        tag_69:\n            /* \"#utility.yul\":2442:2581   */\n          swap1\n          pop\n            /* \"#utility.yul\":2169:2588   */\n          swap2\n          swap1\n          pop\n          jump\t// out\n            /* \"#utility.yul\":2594:2774   */\n        tag_42:\n            /* \"#utility.yul\":2642:2719   */\n          0x4e487b7100000000000000000000000000000000000000000000000000000000\n            /* \"#utility.yul\":2639:2640   */\n          0x00\n            /* \"#utility.yul\":2632:2720   */\n          mstore\n            /* \"#utility.yul\":2739:2743   */\n          0x12\n            /* \"#utility.yul\":2736:2737   */\n          0x04\n            /* \"#utility.yul\":2729:2744   */\n          mstore\n            /* \"#utility.yul\":2763:2767   */\n          0x24\n            /* \"#utility.yul\":2760:2761   */\n          0x00\n            /* \"#utility.yul\":2753:2768   */\n          revert\n            /* \"#utility.yul\":2780:2956   */\n        tag_20:\n            /* \"#utility.yul\":2812:2813   */\n          0x00\n            /* \"#utility.yul\":2829:2849   */\n          tag_72\n            /* \"#utility.yul\":2847:2848   */\n          dup3\n            /* \"#utility.yul\":2829:2849   */\n          tag_34\n          jump\t// in\n        tag_72:\n            /* \"#utility.yul\":2824:2849   */\n          swap2\n          pop\n            /* \"#utility.yul\":2863:2883   */\n          tag_73\n            /* \"#utility.yul\":2881:2882   */\n          dup4\n            /* \"#utility.yul\":2863:2883   */\n          tag_34\n          jump\t// in\n        tag_73:\n            /* \"#utility.yul\":2858:2883   */\n          swap3\n          pop\n            /* \"#utility.yul\":2902:2903   */\n          dup3\n            /* \"#utility.yul\":2892:2927   */\n          tag_74\n          jumpi\n            /* \"#utility.yul\":2907:2925   */\n          tag_75\n          tag_42\n          jump\t// in\n        tag_75:\n            /* \"#utility.yul\":2892:2927   */\n        tag_74:\n            /* \"#utility.yul\":2948:2949   */\n          dup3\n            /* \"#utility.yul\":2945:2946   */\n          dup3\n            /* \"#utility.yul\":2941:2950   */\n          mod\n            /* \"#utility.yul\":2936:2950   */\n          swap1\n          pop\n            /* \"#utility.yul\":2780:2956   */\n          swap3\n          swap2\n          pop\n          pop\n          jump\t// out\n            /* \"#utility.yul\":2962:3142   */\n        tag_43:\n            /* \"#utility.yul\":3010:3087   */\n          0x4e487b7100000000000000000000000000000000000000000000000000000000\n            /* \"#utility.yul\":3007:3008   */\n          0x00\n            /* \"#utility.yul\":3000:3088   */\n          mstore\n            /* \"#utility.yul\":3107:3111   */\n          0x11\n            /* \"#utility.yul\":3104:3105   */\n          0x04\n            /* \"#utility.yul\":3097:3112   */\n          mstore\n            /* \"#utility.yul\":3131:3135   */\n          0x24\n            /* \"#utility.yul\":3128:3129   */\n          0x00\n            /* \"#utility.yul\":3121:3136   */\n          revert\n            /* \"#utility.yul\":3148:3558   */\n        tag_26:\n            /* \"#utility.yul\":3188:3195   */\n          0x00\n            /* \"#utility.yul\":3211:3231   */\n          tag_78\n            /* \"#utility.yul\":3229:3230   */\n          dup3\n            /* \"#utility.yul\":3211:3231   */\n          tag_34\n          jump\t// in\n        tag_78:\n            /* \"#utility.yul\":3206:3231   */\n          swap2\n          pop\n            /* \"#utility.yul\":3245:3265   */\n          tag_79\n            /* \"#utility.yul\":3263:3264   */\n          dup4\n            /* \"#utility.yul\":3245:3265   */\n          tag_34\n          jump\t// in\n        tag_79:\n            /* \"#utility.yul\":3240:3265   */\n          swap3\n          pop\n            /* \"#utility.yul\":3300:3301   */\n          dup3\n            /* \"#utility.yul\":3297:3298   */\n          dup3\n            /* \"#utility.yul\":3293:3302   */\n          mul\n            /* \"#utility.yul\":3322:3352   */\n          tag_80\n            /* \"#utility.yul\":3340:3351   */\n          dup2\n            /* \"#utility.yul\":3322:3352   */\n          tag_34\n          jump\t// in\n        tag_80:\n            /* \"#utility.yul\":3311:3352   */\n          swap2\n          pop\n            /* \"#utility.yul\":3501:3502   */\n          dup3\n            /* \"#utility.yul\":3492:3499   */\n          dup3\n            /* \"#utility.yul\":3488:3503   */\n          div\n            /* \"#utility.yul\":3485:3486   */\n          dup5\n            /* \"#utility.yul\":3482:3504   */\n          eq\n            /* \"#utility.yul\":3462:3463   */\n          dup4\n            /* \"#utility.yul\":3455:3464   */\n          iszero\n            /* \"#utility.yul\":3435:3518   */\n          or\n            /* \"#utility.yul\":3412:3551   */\n          tag_81\n          jumpi\n            /* \"#utility.yul\":3531:3549   */\n          tag_82\n          tag_43\n          jump\t// in\n        tag_82:\n            /* \"#utility.yul\":3412:3551   */\n        tag_81:\n            /* \"#utility.yul\":3196:3558   */\n          pop\n            /* \"#utility.yul\":3148:3558   */\n          swap3\n          swap2\n          pop\n          pop\n          jump\t// out\n            /* \"#utility.yul\":3564:3755   */\n        tag_30:\n            /* \"#utility.yul\":3604:3607   */\n          0x00\n            /* \"#utility.yul\":3623:3643   */\n          tag_84\n            /* \"#utility.yul\":3641:3642   */\n          dup3\n            /* \"#utility.yul\":3623:3643   */\n          tag_34\n          jump\t// in\n        tag_84:\n            /* \"#utility.yul\":3618:3643   */\n          swap2\n          pop\n            /* \"#utility.yul\":3657:3677   */\n          tag_85\n            /* \"#utility.yul\":3675:3676   */\n          dup4\n            /* \"#utility.yul\":3657:3677   */\n          tag_34\n          jump\t// in\n        tag_85:\n            /* \"#utility.yul\":3652:3677   */\n          swap3\n          pop\n            /* \"#utility.yul\":3700:3701   */\n          dup3\n            /* \"#utility.yul\":3697:3698   */\n          dup3\n            /* \"#utility.yul\":3693:3702   */\n          add\n            /* \"#utility.yul\":3686:3702   */\n          swap1\n          pop\n            /* \"#utility.yul\":3721:3724   */\n          dup1\n            /* \"#utility.yul\":3718:3719   */\n          dup3\n            /* \"#utility.yul\":3715:3725   */\n          gt\n            /* \"#utility.yul\":3712:3748   */\n          iszero\n          tag_86\n          jumpi\n            /* \"#utility.yul\":3728:3746   */\n          tag_87\n          tag_43\n          jump\t// in\n        tag_87:\n            /* \"#utility.yul\":3712:3748   */\n        tag_86:\n            /* \"#utility.yul\":3564:3755   */\n          swap3\n          swap2\n          pop\n          pop\n          jump\t// out\n\n        auxdata: 0xa2646970667358221220cc0082d60790c83d0341f8fbd2a60cea657859bd6def0302a192e2559fc6e2ca64736f6c63430008140033\n    }\n}\n",
				"bytecode": {
					"linkReferences": {},
					"object": "608060405234801561000f575f80fd5b50600260405161001e90610085565b61002891906100dd565b604051809103905ff080158015610041573d5f803e3d5ffd5b505f806101000a81548173ffffffffffffffffffffffffffffffffffffffff021916908373ffffffffffffffffffffffffffffffffffffffff1602179055506100f6565b61051d80610d3f83390190565b5f819050919050565b5f819050919050565b5f819050919050565b5f6100c76100c26100bd84610092565b6100a4565b61009b565b9050919050565b6100d7816100ad565b82525050565b5f6020820190506100f05f8301846100ce565b92915050565b610c3c806101035f395ff3fe608060405234801561000f575f80fd5b5060043610610034575f3560e01c806360ebc17214610038578063fe0d94c114610068575b5f80fd5b610052600480360381019061004d91906103da565b610098565b60405161005f919061041f565b60405180910390f35b610082600480360381019061007d91906103da565b610247565b60405161008f919061041f565b60405180910390f35b5f816040516100a69061038d565b6100b09190610447565b604051809103905ff080156100c25760015b61019a576100ce61046c565b806308c379a00361012a57506100e26104f9565b806100ed575061012c565b7fb761112ad379c509744de8d585702b0d2694d4ceaef85ad50d452ff06821a6a68160405161011c9190610602565b60405180910390a150610195565b505b3d805f8114610156576040519150601f19603f3d011682016040523d82523d5f602084013e61015b565b606091505b507fb6f66868478aebcea8c7a15c8c7dd37a513a4127424642ee3573117b52fa3e398160405161018b9190610674565b60405180910390a1505b610242565b7ffd76336752e93f2cc77cf13a41be8b6c156731030376354d634d28a9a87b916260405160405180910390a18073ffffffffffffffffffffffffffffffffffffffff166305f5b3eb846040518263ffffffff1660e01b81526004016101ff9190610447565b602060405180830381865afa15801561021a573d5f803e3d5ffd5b505050506040513d601f19601f8201168201806040525081019061023e91906106be565b9150505b919050565b5f805f9054906101000a900473ffffffffffffffffffffffffffffffffffffffff1673ffffffffffffffffffffffffffffffffffffffff166305f5b3eb836040518263ffffffff1660e01b81526004016102a19190610447565b602060405180830381865afa9250505080156102db57506040513d601f19601f820116820180604052508101906102d891906106be565b60015b610352576102e761046c565b806308c379a00361034357506102fb6104f9565b806103065750610345565b7fb761112ad379c509744de8d585702b0d2694d4ceaef85ad50d452ff06821a6a6816040516103359190610602565b60405180910390a15061034d565b505b3d5f803e3d5ffd5b610387565b7ffd76336752e93f2cc77cf13a41be8b6c156731030376354d634d28a9a87b916260405160405180910390a180915050610388565b5b919050565b61051d806106ea83390190565b5f604051905090565b5f80fd5b5f819050919050565b6103b9816103a7565b81146103c3575f80fd5b50565b5f813590506103d4816103b0565b92915050565b5f602082840312156103ef576103ee6103a3565b5b5f6103fc848285016103c6565b91505092915050565b5f8115159050919050565b61041981610405565b82525050565b5f6020820190506104325f830184610410565b92915050565b610441816103a7565b82525050565b5f60208201905061045a5f830184610438565b92915050565b5f8160e01c9050919050565b5f60033d11156104885760045f803e6104855f51610460565b90505b90565b5f601f19601f8301169050919050565b7f4e487b71000000000000000000000000000000000000000000000000000000005f52604160045260245ffd5b6104d18261048b565b810181811067ffffffffffffffff821117156104f0576104ef61049b565b5b80604052505050565b5f60443d106105855761050a61039a565b60043d036004823e80513d602482011167ffffffffffffffff82111715610532575050610585565b808201805167ffffffffffffffff8111156105505750505050610585565b80602083010160043d03850181111561056d575050505050610585565b61057c826020018501866104c8565b82955050505050505b90565b5f81519050919050565b5f82825260208201905092915050565b5f5b838110156105bf5780820151818401526020810190506105a4565b5f8484015250505050565b5f6105d482610588565b6105de8185610592565b93506105ee8185602086016105a2565b6105f78161048b565b840191505092915050565b5f6020820190508181035f83015261061a81846105ca565b905092915050565b5f81519050919050565b5f82825260208201905092915050565b5f61064682610622565b610650818561062c565b93506106608185602086016105a2565b6106698161048b565b840191505092915050565b5f6020820190508181035f83015261068c818461063c565b905092915050565b61069d81610405565b81146106a7575f80fd5b50565b5f815190506106b881610694565b92915050565b5f602082840312156106d3576106d26103a3565b5b5f6106e0848285016106aa565b9150509291505056fe608060405234801561000f575f80fd5b5060405161051d38038061051d833981810160405281019061003191906100c1565b5f8103610073576040517f08c379a000000000000000000000000000000000000000000000000000000000815260040161006a90610146565b60405180910390fd5b6001810361008457610083610164565b5b50610191565b5f80fd5b5f819050919050565b6100a08161008e565b81146100aa575f80fd5b50565b5f815190506100bb81610097565b92915050565b5f602082840312156100d6576100d561008a565b5b5f6100e3848285016100ad565b91505092915050565b5f82825260208201905092915050565b7f496e76616c696420456e747279000000000000000000000000000000000000005f82015250565b5f610130600d836100ec565b915061013b826100fc565b602082019050919050565b5f6020820190508181035f83015261015d81610124565b9050919050565b7f4e487b71000000000000000000000000000000000000000000000000000000005f52600160045260245ffd5b61037f8061019e5f395ff3fe608060405234801561000f575f80fd5b5060043610610029575f3560e01c806305f5b3eb1461002d575b5f80fd5b61004760048036038101906100429190610175565b61005d565b60405161005491906101ba565b60405180910390f35b5f610067826100af565b6100a6576040517f08c379a000000000000000000000000000000000000000000000000000000000815260040161009d9061022d565b60405180910390fd5b60019050919050565b5f600182116100c0575f9050610139565b600282036100d15760019050610139565b5f6002836100df9190610278565b036100ec575f9050610139565b5f600390505b8281826100ff91906102d5565b11610133575f81846101119190610278565b0361011f575f915050610139565b60028161012c9190610316565b90506100f2565b50600190505b919050565b5f80fd5b5f819050919050565b61015481610142565b811461015e575f80fd5b50565b5f8135905061016f8161014b565b92915050565b5f6020828403121561018a5761018961013e565b5b5f61019784828501610161565b91505092915050565b5f8115159050919050565b6101b4816101a0565b82525050565b5f6020820190506101cd5f8301846101ab565b92915050565b5f82825260208201905092915050565b7f5570732120526576657274696e670000000000000000000000000000000000005f82015250565b5f610217600e836101d3565b9150610222826101e3565b602082019050919050565b5f6020820190508181035f8301526102448161020b565b9050919050565b7f4e487b71000000000000000000000000000000000000000000000000000000005f52601260045260245ffd5b5f61028282610142565b915061028d83610142565b92508261029d5761029c61024b565b5b828206905092915050565b7f4e487b71000000000000000000000000000000000000000000000000000000005f52601160045260245ffd5b5f6102df82610142565b91506102ea83610142565b92508282026102f881610142565b9150828204841483151761030f5761030e6102a8565b5b5092915050565b5f61032082610142565b915061032b83610142565b9250828201905080821115610343576103426102a8565b5b9291505056fea2646970667358221220cc0082d60790c83d0341f8fbd2a60cea657859bd6def0302a192e2559fc6e2ca64736f6c63430008140033a2646970667358221220ec6a9965ae64b18865db63daa60b62784d30ccf11db66179f8b167ad88a3d28864736f6c63430008140033608060405234801561000f575f80fd5b5060405161051d38038061051d833981810160405281019061003191906100c1565b5f8103610073576040517f08c379a000000000000000000000000000000000000000000000000000000000815260040161006a90610146565b60405180910390fd5b6001810361008457610083610164565b5b50610191565b5f80fd5b5f819050919050565b6100a08161008e565b81146100aa575f80fd5b50565b5f815190506100bb81610097565b92915050565b5f602082840312156100d6576100d561008a565b5b5f6100e3848285016100ad565b91505092915050565b5f82825260208201905092915050565b7f496e76616c696420456e747279000000000000000000000000000000000000005f82015250565b5f610130600d836100ec565b915061013b826100fc565b602082019050919050565b5f6020820190508181035f83015261015d81610124565b9050919050565b7f4e487b71000000000000000000000000000000000000000000000000000000005f52600160045260245ffd5b61037f8061019e5f395ff3fe608060405234801561000f575f80fd5b5060043610610029575f3560e01c806305f5b3eb1461002d575b5f80fd5b61004760048036038101906100429190610175565b61005d565b60405161005491906101ba565b60405180910390f35b5f610067826100af565b6100a6576040517f08c379a000000000000000000000000000000000000000000000000000000000815260040161009d9061022d565b60405180910390fd5b60019050919050565b5f600182116100c0575f9050610139565b600282036100d15760019050610139565b5f6002836100df9190610278565b036100ec575f9050610139565b5f600390505b8281826100ff91906102d5565b11610133575f81846101119190610278565b0361011f575f915050610139565b60028161012c9190610316565b90506100f2565b50600190505b919050565b5f80fd5b5f819050919050565b61015481610142565b811461015e575f80fd5b50565b5f8135905061016f8161014b565b92915050565b5f6020828403121561018a5761018961013e565b5b5f61019784828501610161565b91505092915050565b5f8115159050919050565b6101b4816101a0565b82525050565b5f6020820190506101cd5f8301846101ab565b92915050565b5f82825260208201905092915050565b7f5570732120526576657274696e670000000000000000000000000000000000005f82015250565b5f610217600e836101d3565b9150610222826101e3565b602082019050919050565b5f6020820190508181035f8301526102448161020b565b9050919050565b7f4e487b71000000000000000000000000000000000000000000000000000000005f52601260045260245ffd5b5f61028282610142565b915061028d83610142565b92508261029d5761029c61024b565b5b828206905092915050565b7f4e487b71000000000000000000000000000000000000000000000000000000005f52601160045260245ffd5b5f6102df82610142565b91506102ea83610142565b92508282026102f881610142565b9150828204841483151761030f5761030e6102a8565b5b5092915050565b5f61032082610142565b915061032b83610142565b9250828201905080821115610343576103426102a8565b5b9291505056fea2646970667358221220cc0082d60790c83d0341f8fbd2a60cea657859bd6def0302a192e2559fc6e2ca64736f6c63430008140033",
					"opcodes": "PUSH1 0x80 PUSH1 0x40 MSTORE CALLVALUE DUP1 ISZERO PUSH2 0xF JUMPI PUSH0 DUP1 REVERT JUMPDEST POP PUSH1 0x2 PUSH1 0x40 MLOAD PUSH2 0x1E SWAP1 PUSH2 0x85 JUMP JUMPDEST PUSH2 0x28 SWAP2 SWAP1 PUSH2 0xDD JUMP JUMPDEST PUSH1 0x40 MLOAD DUP1 SWAP2 SUB SWAP1 PUSH0 CREATE DUP1 ISZERO DUP1 ISZERO PUSH2 0x41 JUMPI RETURNDATASIZE PUSH0 DUP1 RETURNDATACOPY RETURNDATASIZE PUSH0 REVERT JUMPDEST POP PUSH0 DUP1 PUSH2 0x100 EXP DUP2 SLOAD DUP2 PUSH20 0xFFFFFFFFFFFFFFFFFFFFFFFFFFFFFFFFFFFFFFFF MUL NOT AND SWAP1 DUP4 PUSH20 0xFFFFFFFFFFFFFFFFFFFFFFFFFFFFFFFFFFFFFFFF AND MUL OR SWAP1 SSTORE POP PUSH2 0xF6 JUMP JUMPDEST PUSH2 0x51D DUP1 PUSH2 0xD3F DUP4 CODECOPY ADD SWAP1 JUMP JUMPDEST PUSH0 DUP2 SWAP1 POP SWAP2 SWAP1 POP JUMP JUMPDEST PUSH0 DUP2 SWAP1 POP SWAP2 SWAP1 POP JUMP JUMPDEST PUSH0 DUP2 SWAP1 POP SWAP2 SWAP1 POP JUMP JUMPDEST PUSH0 PUSH2 0xC7 PUSH2 0xC2 PUSH2 0xBD DUP5 PUSH2 0x92 JUMP JUMPDEST PUSH2 0xA4 JUMP JUMPDEST PUSH2 0x9B JUMP JUMPDEST SWAP1 POP SWAP2 SWAP1 POP JUMP JUMPDEST PUSH2 0xD7 DUP2 PUSH2 0xAD JUMP JUMPDEST DUP3 MSTORE POP POP JUMP JUMPDEST PUSH0 PUSH1 0x20 DUP3 ADD SWAP1 POP PUSH2 0xF0 PUSH0 DUP4 ADD DUP5 PUSH2 0xCE JUMP JUMPDEST SWAP3 SWAP2 POP POP JUMP JUMPDEST PUSH2 0xC3C DUP1 PUSH2 0x103 PUSH0 CODECOPY PUSH0 RETURN INVALID PUSH1 0x80 PUSH1 0x40 MSTORE CALLVALUE DUP1 ISZERO PUSH2 0xF JUMPI PUSH0 DUP1 REVERT JUMPDEST POP PUSH1 0x4 CALLDATASIZE LT PUSH2 0x34 JUMPI PUSH0 CALLDATALOAD PUSH1 0xE0 SHR DUP1 PUSH4 0x60EBC172 EQ PUSH2 0x38 JUMPI DUP1 PUSH4 0xFE0D94C1 EQ PUSH2 0x68 JUMPI JUMPDEST PUSH0 DUP1 REVERT JUMPDEST PUSH2 0x52 PUSH1 0x4 DUP1 CALLDATASIZE SUB DUP2 ADD SWAP1 PUSH2 0x4D SWAP2 SWAP1 PUSH2 0x3DA JUMP JUMPDEST PUSH2 0x98 JUMP JUMPDEST PUSH1 0x40 MLOAD PUSH2 0x5F SWAP2 SWAP1 PUSH2 0x41F JUMP JUMPDEST PUSH1 0x40 MLOAD DUP1 SWAP2 SUB SWAP1 RETURN JUMPDEST PUSH2 0x82 PUSH1 0x4 DUP1 CALLDATASIZE SUB DUP2 ADD SWAP1 PUSH2 0x7D SWAP2 SWAP1 PUSH2 0x3DA JUMP JUMPDEST PUSH2 0x247 JUMP JUMPDEST PUSH1 0x40 MLOAD PUSH2 0x8F SWAP2 SWAP1 PUSH2 0x41F JUMP JUMPDEST PUSH1 0x40 MLOAD DUP1 SWAP2 SUB SWAP1 RETURN JUMPDEST PUSH0 DUP2 PUSH1 0x40 MLOAD PUSH2 0xA6 SWAP1 PUSH2 0x38D JUMP JUMPDEST PUSH2 0xB0 SWAP2 SWAP1 PUSH2 0x447 JUMP JUMPDEST PUSH1 0x40 MLOAD DUP1 SWAP2 SUB SWAP1 PUSH0 CREATE DUP1 ISZERO PUSH2 0xC2 JUMPI PUSH1 0x1 JUMPDEST PUSH2 0x19A JUMPI PUSH2 0xCE PUSH2 0x46C JUMP JUMPDEST DUP1 PUSH4 0x8C379A0 SUB PUSH2 0x12A JUMPI POP PUSH2 0xE2 PUSH2 0x4F9 JUMP JUMPDEST DUP1 PUSH2 0xED JUMPI POP PUSH2 0x12C JUMP JUMPDEST PUSH32 0xB761112AD379C509744DE8D585702B0D2694D4CEAEF85AD50D452FF06821A6A6 DUP2 PUSH1 0x40 MLOAD PUSH2 0x11C SWAP2 SWAP1 PUSH2 0x602 JUMP JUMPDEST PUSH1 0x40 MLOAD DUP1 SWAP2 SUB SWAP1 LOG1 POP PUSH2 0x195 JUMP JUMPDEST POP JUMPDEST RETURNDATASIZE DUP1 PUSH0 DUP2 EQ PUSH2 0x156 JUMPI PUSH1 0x40 MLOAD SWAP2 POP PUSH1 0x1F NOT PUSH1 0x3F RETURNDATASIZE ADD AND DUP3 ADD PUSH1 0x40 MSTORE RETURNDATASIZE DUP3 MSTORE RETURNDATASIZE PUSH0 PUSH1 0x20 DUP5 ADD RETURNDATACOPY PUSH2 0x15B JUMP JUMPDEST PUSH1 0x60 SWAP2 POP JUMPDEST POP PUSH32 0xB6F66868478AEBCEA8C7A15C8C7DD37A513A4127424642EE3573117B52FA3E39 DUP2 PUSH1 0x40 MLOAD PUSH2 0x18B SWAP2 SWAP1 PUSH2 0x674 JUMP JUMPDEST PUSH1 0x40 MLOAD DUP1 SWAP2 SUB SWAP1 LOG1 POP JUMPDEST PUSH2 0x242 JUMP JUMPDEST PUSH32 0xFD76336752E93F2CC77CF13A41BE8B6C156731030376354D634D28A9A87B9162 PUSH1 0x40 MLOAD PUSH1 0x40 MLOAD DUP1 SWAP2 SUB SWAP1 LOG1 DUP1 PUSH20 0xFFFFFFFFFFFFFFFFFFFFFFFFFFFFFFFFFFFFFFFF AND PUSH4 0x5F5B3EB DUP5 PUSH1 0x40 MLOAD DUP3 PUSH4 0xFFFFFFFF AND PUSH1 0xE0 SHL DUP2 MSTORE PUSH1 0x4 ADD PUSH2 0x1FF SWAP2 SWAP1 PUSH2 0x447 JUMP JUMPDEST PUSH1 0x20 PUSH1 0x40 MLOAD DUP1 DUP4 SUB DUP2 DUP7 GAS STATICCALL ISZERO DUP1 ISZERO PUSH2 0x21A JUMPI RETURNDATASIZE PUSH0 DUP1 RETURNDATACOPY RETURNDATASIZE PUSH0 REVERT JUMPDEST POP POP POP POP PUSH1 0x40 MLOAD RETURNDATASIZE PUSH1 0x1F NOT PUSH1 0x1F DUP3 ADD AND DUP3 ADD DUP1 PUSH1 0x40 MSTORE POP DUP2 ADD SWAP1 PUSH2 0x23E SWAP2 SWAP1 PUSH2 0x6BE JUMP JUMPDEST SWAP2 POP POP JUMPDEST SWAP2 SWAP1 POP JUMP JUMPDEST PUSH0 DUP1 PUSH0 SWAP1 SLOAD SWAP1 PUSH2 0x100 EXP SWAP1 DIV PUSH20 0xFFFFFFFFFFFFFFFFFFFFFFFFFFFFFFFFFFFFFFFF AND PUSH20 0xFFFFFFFFFFFFFFFFFFFFFFFFFFFFFFFFFFFFFFFF AND PUSH4 0x5F5B3EB DUP4 PUSH1 0x40 MLOAD DUP3 PUSH4 0xFFFFFFFF AND PUSH1 0xE0 SHL DUP2 MSTORE PUSH1 0x4 ADD PUSH2 0x2A1 SWAP2 SWAP1 PUSH2 0x447 JUMP JUMPDEST PUSH1 0x20 PUSH1 0x40 MLOAD DUP1 DUP4 SUB DUP2 DUP7 GAS STATICCALL SWAP3 POP POP POP DUP1 ISZERO PUSH2 0x2DB JUMPI POP PUSH1 0x40 MLOAD RETURNDATASIZE PUSH1 0x1F NOT PUSH1 0x1F DUP3 ADD AND DUP3 ADD DUP1 PUSH1 0x40 MSTORE POP DUP2 ADD SWAP1 PUSH2 0x2D8 SWAP2 SWAP1 PUSH2 0x6BE JUMP JUMPDEST PUSH1 0x1 JUMPDEST PUSH2 0x352 JUMPI PUSH2 0x2E7 PUSH2 0x46C JUMP JUMPDEST DUP1 PUSH4 0x8C379A0 SUB PUSH2 0x343 JUMPI POP PUSH2 0x2FB PUSH2 0x4F9 JUMP JUMPDEST DUP1 PUSH2 0x306 JUMPI POP PUSH2 0x345 JUMP JUMPDEST PUSH32 0xB761112AD379C509744DE8D585702B0D2694D4CEAEF85AD50D452FF06821A6A6 DUP2 PUSH1 0x40 MLOAD PUSH2 0x335 SWAP2 SWAP1 PUSH2 0x602 JUMP JUMPDEST PUSH1 0x40 MLOAD DUP1 SWAP2 SUB SWAP1 LOG1 POP PUSH2 0x34D JUMP JUMPDEST POP JUMPDEST RETURNDATASIZE PUSH0 DUP1 RETURNDATACOPY RETURNDATASIZE PUSH0 REVERT JUMPDEST PUSH2 0x387 JUMP JUMPDEST PUSH32 0xFD76336752E93F2CC77CF13A41BE8B6C156731030376354D634D28A9A87B9162 PUSH1 0x40 MLOAD PUSH1 0x40 MLOAD DUP1 SWAP2 SUB SWAP1 LOG1 DUP1 SWAP2 POP POP PUSH2 0x388 JUMP JUMPDEST JUMPDEST SWAP2 SWAP1 POP JUMP JUMPDEST PUSH2 0x51D DUP1 PUSH2 0x6EA DUP4 CODECOPY ADD SWAP1 JUMP JUMPDEST PUSH0 PUSH1 0x40 MLOAD SWAP1 POP SWAP1 JUMP JUMPDEST PUSH0 DUP1 REVERT JUMPDEST PUSH0 DUP2 SWAP1 POP SWAP2 SWAP1 POP JUMP JUMPDEST PUSH2 0x3B9 DUP2 PUSH2 0x3A7 JUMP JUMPDEST DUP2 EQ PUSH2 0x3C3 JUMPI PUSH0 DUP1 REVERT JUMPDEST POP JUMP JUMPDEST PUSH0 DUP2 CALLDATALOAD SWAP1 POP PUSH2 0x3D4 DUP2 PUSH2 0x3B0 JUMP JUMPDEST SWAP3 SWAP2 POP POP JUMP JUMPDEST PUSH0 PUSH1 0x20 DUP3 DUP5 SUB SLT ISZERO PUSH2 0x3EF JUMPI PUSH2 0x3EE PUSH2 0x3A3 JUMP JUMPDEST JUMPDEST PUSH0 PUSH2 0x3FC DUP5 DUP3 DUP6 ADD PUSH2 0x3C6 JUMP JUMPDEST SWAP2 POP POP SWAP3 SWAP2 POP POP JUMP JUMPDEST PUSH0 DUP2 ISZERO ISZERO SWAP1 POP SWAP2 SWAP1 POP JUMP JUMPDEST PUSH2 0x419 DUP2 PUSH2 0x405 JUMP JUMPDEST DUP3 MSTORE POP POP JUMP JUMPDEST PUSH0 PUSH1 0x20 DUP3 ADD SWAP1 POP PUSH2 0x432 PUSH0 DUP4 ADD DUP5 PUSH2 0x410 JUMP JUMPDEST SWAP3 SWAP2 POP POP JUMP JUMPDEST PUSH2 0x441 DUP2 PUSH2 0x3A7 JUMP JUMPDEST DUP3 MSTORE POP POP JUMP JUMPDEST PUSH0 PUSH1 0x20 DUP3 ADD SWAP1 POP PUSH2 0x45A PUSH0 DUP4 ADD DUP5 PUSH2 0x438 JUMP JUMPDEST SWAP3 SWAP2 POP POP JUMP JUMPDEST PUSH0 DUP2 PUSH1 0xE0 SHR SWAP1 POP SWAP2 SWAP1 POP JUMP JUMPDEST PUSH0 PUSH1 0x3 RETURNDATASIZE GT ISZERO PUSH2 0x488 JUMPI PUSH1 0x4 PUSH0 DUP1 RETURNDATACOPY PUSH2 0x485 PUSH0 MLOAD PUSH2 0x460 JUMP JUMPDEST SWAP1 POP JUMPDEST SWAP1 JUMP JUMPDEST PUSH0 PUSH1 0x1F NOT PUSH1 0x1F DUP4 ADD AND SWAP1 POP SWAP2 SWAP1 POP JUMP JUMPDEST PUSH32 0x4E487B7100000000000000000000000000000000000000000000000000000000 PUSH0 MSTORE PUSH1 0x41 PUSH1 0x4 MSTORE PUSH1 0x24 PUSH0 REVERT JUMPDEST PUSH2 0x4D1 DUP3 PUSH2 0x48B JUMP JUMPDEST DUP2 ADD DUP2 DUP2 LT PUSH8 0xFFFFFFFFFFFFFFFF DUP3 GT OR ISZERO PUSH2 0x4F0 JUMPI PUSH2 0x4EF PUSH2 0x49B JUMP JUMPDEST JUMPDEST DUP1 PUSH1 0x40 MSTORE POP POP POP JUMP JUMPDEST PUSH0 PUSH1 0x44 RETURNDATASIZE LT PUSH2 0x585 JUMPI PUSH2 0x50A PUSH2 0x39A JUMP JUMPDEST PUSH1 0x4 RETURNDATASIZE SUB PUSH1 0x4 DUP3 RETURNDATACOPY DUP1 MLOAD RETURNDATASIZE PUSH1 0x24 DUP3 ADD GT PUSH8 0xFFFFFFFFFFFFFFFF DUP3 GT OR ISZERO PUSH2 0x532 JUMPI POP POP PUSH2 0x585 JUMP JUMPDEST DUP1 DUP3 ADD DUP1 MLOAD PUSH8 0xFFFFFFFFFFFFFFFF DUP2 GT ISZERO PUSH2 0x550 JUMPI POP POP POP POP PUSH2 0x585 JUMP JUMPDEST DUP1 PUSH1 0x20 DUP4 ADD ADD PUSH1 0x4 RETURNDATASIZE SUB DUP6 ADD DUP2 GT ISZERO PUSH2 0x56D JUMPI POP POP POP POP POP PUSH2 0x585 JUMP JUMPDEST PUSH2 0x57C DUP3 PUSH1 0x20 ADD DUP6 ADD DUP7 PUSH2 0x4C8 JUMP JUMPDEST DUP3 SWAP6 POP POP POP POP POP POP JUMPDEST SWAP1 JUMP JUMPDEST PUSH0 DUP2 MLOAD SWAP1 POP SWAP2 SWAP1 POP JUMP JUMPDEST PUSH0 DUP3 DUP3 MSTORE PUSH1 0x20 DUP3 ADD SWAP1 POP SWAP3 SWAP2 POP POP JUMP JUMPDEST PUSH0 JUMPDEST DUP4 DUP2 LT ISZERO PUSH2 0x5BF JUMPI DUP1 DUP3 ADD MLOAD DUP2 DUP5 ADD MSTORE PUSH1 0x20 DUP2 ADD SWAP1 POP PUSH2 0x5A4 JUMP JUMPDEST PUSH0 DUP5 DUP5 ADD MSTORE POP POP POP POP JUMP JUMPDEST PUSH0 PUSH2 0x5D4 DUP3 PUSH2 0x588 JUMP JUMPDEST PUSH2 0x5DE DUP2 DUP6 PUSH2 0x592 JUMP JUMPDEST SWAP4 POP PUSH2 0x5EE DUP2 DUP6 PUSH1 0x20 DUP7 ADD PUSH2 0x5A2 JUMP JUMPDEST PUSH2 0x5F7 DUP2 PUSH2 0x48B JUMP JUMPDEST DUP5 ADD SWAP2 POP POP SWAP3 SWAP2 POP POP JUMP JUMPDEST PUSH0 PUSH1 0x20 DUP3 ADD SWAP1 POP DUP2 DUP2 SUB PUSH0 DUP4 ADD MSTORE PUSH2 0x61A DUP2 DUP5 PUSH2 0x5CA JUMP JUMPDEST SWAP1 POP SWAP3 SWAP2 POP POP JUMP JUMPDEST PUSH0 DUP2 MLOAD SWAP1 POP SWAP2 SWAP1 POP JUMP JUMPDEST PUSH0 DUP3 DUP3 MSTORE PUSH1 0x20 DUP3 ADD SWAP1 POP SWAP3 SWAP2 POP POP JUMP JUMPDEST PUSH0 PUSH2 0x646 DUP3 PUSH2 0x622 JUMP JUMPDEST PUSH2 0x650 DUP2 DUP6 PUSH2 0x62C JUMP JUMPDEST SWAP4 POP PUSH2 0x660 DUP2 DUP6 PUSH1 0x20 DUP7 ADD PUSH2 0x5A2 JUMP JUMPDEST PUSH2 0x669 DUP2 PUSH2 0x48B JUMP JUMPDEST DUP5 ADD SWAP2 POP POP SWAP3 SWAP2 POP POP JUMP JUMPDEST PUSH0 PUSH1 0x20 DUP3 ADD SWAP1 POP DUP2 DUP2 SUB PUSH0 DUP4 ADD MSTORE PUSH2 0x68C DUP2 DUP5 PUSH2 0x63C JUMP JUMPDEST SWAP1 POP SWAP3 SWAP2 POP POP JUMP JUMPDEST PUSH2 0x69D DUP2 PUSH2 0x405 JUMP JUMPDEST DUP2 EQ PUSH2 0x6A7 JUMPI PUSH0 DUP1 REVERT JUMPDEST POP JUMP JUMPDEST PUSH0 DUP2 MLOAD SWAP1 POP PUSH2 0x6B8 DUP2 PUSH2 0x694 JUMP JUMPDEST SWAP3 SWAP2 POP POP JUMP JUMPDEST PUSH0 PUSH1 0x20 DUP3 DUP5 SUB SLT ISZERO PUSH2 0x6D3 JUMPI PUSH2 0x6D2 PUSH2 0x3A3 JUMP JUMPDEST JUMPDEST PUSH0 PUSH2 0x6E0 DUP5 DUP3 DUP6 ADD PUSH2 0x6AA JUMP JUMPDEST SWAP2 POP POP SWAP3 SWAP2 POP POP JUMP INVALID PUSH1 0x80 PUSH1 0x40 MSTORE CALLVALUE DUP1 ISZERO PUSH2 0xF JUMPI PUSH0 DUP1 REVERT JUMPDEST POP PUSH1 0x40 MLOAD PUSH2 0x51D CODESIZE SUB DUP1 PUSH2 0x51D DUP4 CODECOPY DUP2 DUP2 ADD PUSH1 0x40 MSTORE DUP2 ADD SWAP1 PUSH2 0x31 SWAP2 SWAP1 PUSH2 0xC1 JUMP JUMPDEST PUSH0 DUP2 SUB PUSH2 0x73 JUMPI PUSH1 0x40 MLOAD PUSH32 0x8C379A000000000000000000000000000000000000000000000000000000000 DUP2 MSTORE PUSH1 0x4 ADD PUSH2 0x6A SWAP1 PUSH2 0x146 JUMP JUMPDEST PUSH1 0x40 MLOAD DUP1 SWAP2 SUB SWAP1 REVERT JUMPDEST PUSH1 0x1 DUP2 SUB PUSH2 0x84 JUMPI PUSH2 0x83 PUSH2 0x164 JUMP JUMPDEST JUMPDEST POP PUSH2 0x191 JUMP JUMPDEST PUSH0 DUP1 REVERT JUMPDEST PUSH0 DUP2 SWAP1 POP SWAP2 SWAP1 POP JUMP JUMPDEST PUSH2 0xA0 DUP2 PUSH2 0x8E JUMP JUMPDEST DUP2 EQ PUSH2 0xAA JUMPI PUSH0 DUP1 REVERT JUMPDEST POP JUMP JUMPDEST PUSH0 DUP2 MLOAD SWAP1 POP PUSH2 0xBB DUP2 PUSH2 0x97 JUMP JUMPDEST SWAP3 SWAP2 POP POP JUMP JUMPDEST PUSH0 PUSH1 0x20 DUP3 DUP5 SUB SLT ISZERO PUSH2 0xD6 JUMPI PUSH2 0xD5 PUSH2 0x8A JUMP JUMPDEST JUMPDEST PUSH0 PUSH2 0xE3 DUP5 DUP3 DUP6 ADD PUSH2 0xAD JUMP JUMPDEST SWAP2 POP POP SWAP3 SWAP2 POP POP JUMP JUMPDEST PUSH0 DUP3 DUP3 MSTORE PUSH1 0x20 DUP3 ADD SWAP1 POP SWAP3 SWAP2 POP POP JUMP JUMPDEST PUSH32 0x496E76616C696420456E74727900000000000000000000000000000000000000 PUSH0 DUP3 ADD MSTORE POP JUMP JUMPDEST PUSH0 PUSH2 0x130 PUSH1 0xD DUP4 PUSH2 0xEC JUMP JUMPDEST SWAP2 POP PUSH2 0x13B DUP3 PUSH2 0xFC JUMP JUMPDEST PUSH1 0x20 DUP3 ADD SWAP1 POP SWAP2 SWAP1 POP JUMP JUMPDEST PUSH0 PUSH1 0x20 DUP3 ADD SWAP1 POP DUP2 DUP2 SUB PUSH0 DUP4 ADD MSTORE PUSH2 0x15D DUP2 PUSH2 0x124 JUMP JUMPDEST SWAP1 POP SWAP2 SWAP1 POP JUMP JUMPDEST PUSH32 0x4E487B7100000000000000000000000000000000000000000000000000000000 PUSH0 MSTORE PUSH1 0x1 PUSH1 0x4 MSTORE PUSH1 0x24 PUSH0 REVERT JUMPDEST PUSH2 0x37F DUP1 PUSH2 0x19E PUSH0 CODECOPY PUSH0 RETURN INVALID PUSH1 0x80 PUSH1 0x40 MSTORE CALLVALUE DUP1 ISZERO PUSH2 0xF JUMPI PUSH0 DUP1 REVERT JUMPDEST POP PUSH1 0x4 CALLDATASIZE LT PUSH2 0x29 JUMPI PUSH0 CALLDATALOAD PUSH1 0xE0 SHR DUP1 PUSH4 0x5F5B3EB EQ PUSH2 0x2D JUMPI JUMPDEST PUSH0 DUP1 REVERT JUMPDEST PUSH2 0x47 PUSH1 0x4 DUP1 CALLDATASIZE SUB DUP2 ADD SWAP1 PUSH2 0x42 SWAP2 SWAP1 PUSH2 0x175 JUMP JUMPDEST PUSH2 0x5D JUMP JUMPDEST PUSH1 0x40 MLOAD PUSH2 0x54 SWAP2 SWAP1 PUSH2 0x1BA JUMP JUMPDEST PUSH1 0x40 MLOAD DUP1 SWAP2 SUB SWAP1 RETURN JUMPDEST PUSH0 PUSH2 0x67 DUP3 PUSH2 0xAF JUMP JUMPDEST PUSH2 0xA6 JUMPI PUSH1 0x40 MLOAD PUSH32 0x8C379A000000000000000000000000000000000000000000000000000000000 DUP2 MSTORE PUSH1 0x4 ADD PUSH2 0x9D SWAP1 PUSH2 0x22D JUMP JUMPDEST PUSH1 0x40 MLOAD DUP1 SWAP2 SUB SWAP1 REVERT JUMPDEST PUSH1 0x1 SWAP1 POP SWAP2 SWAP1 POP JUMP JUMPDEST PUSH0 PUSH1 0x1 DUP3 GT PUSH2 0xC0 JUMPI PUSH0 SWAP1 POP PUSH2 0x139 JUMP JUMPDEST PUSH1 0x2 DUP3 SUB PUSH2 0xD1 JUMPI PUSH1 0x1 SWAP1 POP PUSH2 0x139 JUMP JUMPDEST PUSH0 PUSH1 0x2 DUP4 PUSH2 0xDF SWAP2 SWAP1 PUSH2 0x278 JUMP JUMPDEST SUB PUSH2 0xEC JUMPI PUSH0 SWAP1 POP PUSH2 0x139 JUMP JUMPDEST PUSH0 PUSH1 0x3 SWAP1 POP JUMPDEST DUP3 DUP2 DUP3 PUSH2 0xFF SWAP2 SWAP1 PUSH2 0x2D5 JUMP JUMPDEST GT PUSH2 0x133 JUMPI PUSH0 DUP2 DUP5 PUSH2 0x111 SWAP2 SWAP1 PUSH2 0x278 JUMP JUMPDEST SUB PUSH2 0x11F JUMPI PUSH0 SWAP2 POP POP PUSH2 0x139 JUMP JUMPDEST PUSH1 0x2 DUP2 PUSH2 0x12C SWAP2 SWAP1 PUSH2 0x316 JUMP JUMPDEST SWAP1 POP PUSH2 0xF2 JUMP JUMPDEST POP PUSH1 0x1 SWAP1 POP JUMPDEST SWAP2 SWAP1 POP JUMP JUMPDEST PUSH0 DUP1 REVERT JUMPDEST PUSH0 DUP2 SWAP1 POP SWAP2 SWAP1 POP JUMP JUMPDEST PUSH2 0x154 DUP2 PUSH2 0x142 JUMP JUMPDEST DUP2 EQ PUSH2 0x15E JUMPI PUSH0 DUP1 REVERT JUMPDEST POP JUMP JUMPDEST PUSH0 DUP2 CALLDATALOAD SWAP1 POP PUSH2 0x16F DUP2 PUSH2 0x14B JUMP JUMPDEST SWAP3 SWAP2 POP POP JUMP JUMPDEST PUSH0 PUSH1 0x20 DUP3 DUP5 SUB SLT ISZERO PUSH2 0x18A JUMPI PUSH2 0x189 PUSH2 0x13E JUMP JUMPDEST JUMPDEST PUSH0 PUSH2 0x197 DUP5 DUP3 DUP6 ADD PUSH2 0x161 JUMP JUMPDEST SWAP2 POP POP SWAP3 SWAP2 POP POP JUMP JUMPDEST PUSH0 DUP2 ISZERO ISZERO SWAP1 POP SWAP2 SWAP1 POP JUMP JUMPDEST PUSH2 0x1B4 DUP2 PUSH2 0x1A0 JUMP JUMPDEST DUP3 MSTORE POP POP JUMP JUMPDEST PUSH0 PUSH1 0x20 DUP3 ADD SWAP1 POP PUSH2 0x1CD PUSH0 DUP4 ADD DUP5 PUSH2 0x1AB JUMP JUMPDEST SWAP3 SWAP2 POP POP JUMP JUMPDEST PUSH0 DUP3 DUP3 MSTORE PUSH1 0x20 DUP3 ADD SWAP1 POP SWAP3 SWAP2 POP POP JUMP JUMPDEST PUSH32 0x5570732120526576657274696E67000000000000000000000000000000000000 PUSH0 DUP3 ADD MSTORE POP JUMP JUMPDEST PUSH0 PUSH2 0x217 PUSH1 0xE DUP4 PUSH2 0x1D3 JUMP JUMPDEST SWAP2 POP PUSH2 0x222 DUP3 PUSH2 0x1E3 JUMP JUMPDEST PUSH1 0x20 DUP3 ADD SWAP1 POP SWAP2 SWAP1 POP JUMP JUMPDEST PUSH0 PUSH1 0x20 DUP3 ADD SWAP1 POP DUP2 DUP2 SUB PUSH0 DUP4 ADD MSTORE PUSH2 0x244 DUP2 PUSH2 0x20B JUMP JUMPDEST SWAP1 POP SWAP2 SWAP1 POP JUMP JUMPDEST PUSH32 0x4E487B7100000000000000000000000000000000000000000000000000000000 PUSH0 MSTORE PUSH1 0x12 PUSH1 0x4 MSTORE PUSH1 0x24 PUSH0 REVERT JUMPDEST PUSH0 PUSH2 0x282 DUP3 PUSH2 0x142 JUMP JUMPDEST SWAP2 POP PUSH2 0x28D DUP4 PUSH2 0x142 JUMP JUMPDEST SWAP3 POP DUP3 PUSH2 0x29D JUMPI PUSH2 0x29C PUSH2 0x24B JUMP JUMPDEST JUMPDEST DUP3 DUP3 MOD SWAP1 POP SWAP3 SWAP2 POP POP JUMP JUMPDEST PUSH32 0x4E487B7100000000000000000000000000000000000000000000000000000000 PUSH0 MSTORE PUSH1 0x11 PUSH1 0x4 MSTORE PUSH1 0x24 PUSH0 REVERT JUMPDEST PUSH0 PUSH2 0x2DF DUP3 PUSH2 0x142 JUMP JUMPDEST SWAP2 POP PUSH2 0x2EA DUP4 PUSH2 0x142 JUMP JUMPDEST SWAP3 POP DUP3 DUP3 MUL PUSH2 0x2F8 DUP2 PUSH2 0x142 JUMP JUMPDEST SWAP2 POP DUP3 DUP3 DIV DUP5 EQ DUP4 ISZERO OR PUSH2 0x30F JUMPI PUSH2 0x30E PUSH2 0x2A8 JUMP JUMPDEST JUMPDEST POP SWAP3 SWAP2 POP POP JUMP JUMPDEST PUSH0 PUSH2 0x320 DUP3 PUSH2 0x142 JUMP JUMPDEST SWAP2 POP PUSH2 0x32B DUP4 PUSH2 0x142 JUMP JUMPDEST SWAP3 POP DUP3 DUP3 ADD SWAP1 POP DUP1 DUP3 GT ISZERO PUSH2 0x343 JUMPI PUSH2 0x342 PUSH2 0x2A8 JUMP JUMPDEST JUMPDEST SWAP3 SWAP2 POP POP JUMP INVALID LOG2 PUSH5 0x6970667358 0x22 SLT KECCAK256 0xCC STOP DUP3 0xD6 SMOD SWAP1 0xC8 RETURNDATASIZE SUB COINBASE 0xF8 0xFB 0xD2 0xA6 0xC 0xEA PUSH6 0x7859BD6DEF03 MUL LOG1 SWAP3 0xE2 SSTORE SWAP16 0xC6 0xE2 0xCA PUSH5 0x736F6C6343 STOP ADDMOD EQ STOP CALLER LOG2 PUSH5 0x6970667358 0x22 SLT KECCAK256 0xEC PUSH11 0x9965AE64B18865DB63DAA6 SIGNEXTEND PUSH3 0x784D30 0xCC CALL SAR 0xB6 PUSH2 0x79F8 0xB1 PUSH8 0xAD88A3D28864736F PUSH13 0x63430008140033608060405234 DUP1 ISZERO PUSH2 0xF JUMPI PUSH0 DUP1 REVERT JUMPDEST POP PUSH1 0x40 MLOAD PUSH2 0x51D CODESIZE SUB DUP1 PUSH2 0x51D DUP4 CODECOPY DUP2 DUP2 ADD PUSH1 0x40 MSTORE DUP2 ADD SWAP1 PUSH2 0x31 SWAP2 SWAP1 PUSH2 0xC1 JUMP JUMPDEST PUSH0 DUP2 SUB PUSH2 0x73 JUMPI PUSH1 0x40 MLOAD PUSH32 0x8C379A000000000000000000000000000000000000000000000000000000000 DUP2 MSTORE PUSH1 0x4 ADD PUSH2 0x6A SWAP1 PUSH2 0x146 JUMP JUMPDEST PUSH1 0x40 MLOAD DUP1 SWAP2 SUB SWAP1 REVERT JUMPDEST PUSH1 0x1 DUP2 SUB PUSH2 0x84 JUMPI PUSH2 0x83 PUSH2 0x164 JUMP JUMPDEST JUMPDEST POP PUSH2 0x191 JUMP JUMPDEST PUSH0 DUP1 REVERT JUMPDEST PUSH0 DUP2 SWAP1 POP SWAP2 SWAP1 POP JUMP JUMPDEST PUSH2 0xA0 DUP2 PUSH2 0x8E JUMP JUMPDEST DUP2 EQ PUSH2 0xAA JUMPI PUSH0 DUP1 REVERT JUMPDEST POP JUMP JUMPDEST PUSH0 DUP2 MLOAD SWAP1 POP PUSH2 0xBB DUP2 PUSH2 0x97 JUMP JUMPDEST SWAP3 SWAP2 POP POP JUMP JUMPDEST PUSH0 PUSH1 0x20 DUP3 DUP5 SUB SLT ISZERO PUSH2 0xD6 JUMPI PUSH2 0xD5 PUSH2 0x8A JUMP JUMPDEST JUMPDEST PUSH0 PUSH2 0xE3 DUP5 DUP3 DUP6 ADD PUSH2 0xAD JUMP JUMPDEST SWAP2 POP POP SWAP3 SWAP2 POP POP JUMP JUMPDEST PUSH0 DUP3 DUP3 MSTORE PUSH1 0x20 DUP3 ADD SWAP1 POP SWAP3 SWAP2 POP POP JUMP JUMPDEST PUSH32 0x496E76616C696420456E74727900000000000000000000000000000000000000 PUSH0 DUP3 ADD MSTORE POP JUMP JUMPDEST PUSH0 PUSH2 0x130 PUSH1 0xD DUP4 PUSH2 0xEC JUMP JUMPDEST SWAP2 POP PUSH2 0x13B DUP3 PUSH2 0xFC JUMP JUMPDEST PUSH1 0x20 DUP3 ADD SWAP1 POP SWAP2 SWAP1 POP JUMP JUMPDEST PUSH0 PUSH1 0x20 DUP3 ADD SWAP1 POP DUP2 DUP2 SUB PUSH0 DUP4 ADD MSTORE PUSH2 0x15D DUP2 PUSH2 0x124 JUMP JUMPDEST SWAP1 POP SWAP2 SWAP1 POP JUMP JUMPDEST PUSH32 0x4E487B7100000000000000000000000000000000000000000000000000000000 PUSH0 MSTORE PUSH1 0x1 PUSH1 0x4 MSTORE PUSH1 0x24 PUSH0 REVERT JUMPDEST PUSH2 0x37F DUP1 PUSH2 0x19E PUSH0 CODECOPY PUSH0 RETURN INVALID PUSH1 0x80 PUSH1 0x40 MSTORE CALLVALUE DUP1 ISZERO PUSH2 0xF JUMPI PUSH0 DUP1 REVERT JUMPDEST POP PUSH1 0x4 CALLDATASIZE LT PUSH2 0x29 JUMPI PUSH0 CALLDATALOAD PUSH1 0xE0 SHR DUP1 PUSH4 0x5F5B3EB EQ PUSH2 0x2D JUMPI JUMPDEST PUSH0 DUP1 REVERT JUMPDEST PUSH2 0x47 PUSH1 0x4 DUP1 CALLDATASIZE SUB DUP2 ADD SWAP1 PUSH2 0x42 SWAP2 SWAP1 PUSH2 0x175 JUMP JUMPDEST PUSH2 0x5D JUMP JUMPDEST PUSH1 0x40 MLOAD PUSH2 0x54 SWAP2 SWAP1 PUSH2 0x1BA JUMP JUMPDEST PUSH1 0x40 MLOAD DUP1 SWAP2 SUB SWAP1 RETURN JUMPDEST PUSH0 PUSH2 0x67 DUP3 PUSH2 0xAF JUMP JUMPDEST PUSH2 0xA6 JUMPI PUSH1 0x40 MLOAD PUSH32 0x8C379A000000000000000000000000000000000000000000000000000000000 DUP2 MSTORE PUSH1 0x4 ADD PUSH2 0x9D SWAP1 PUSH2 0x22D JUMP JUMPDEST PUSH1 0x40 MLOAD DUP1 SWAP2 SUB SWAP1 REVERT JUMPDEST PUSH1 0x1 SWAP1 POP SWAP2 SWAP1 POP JUMP JUMPDEST PUSH0 PUSH1 0x1 DUP3 GT PUSH2 0xC0 JUMPI PUSH0 SWAP1 POP PUSH2 0x139 JUMP JUMPDEST PUSH1 0x2 DUP3 SUB PUSH2 0xD1 JUMPI PUSH1 0x1 SWAP1 POP PUSH2 0x139 JUMP JUMPDEST PUSH0 PUSH1 0x2 DUP4 PUSH2 0xDF SWAP2 SWAP1 PUSH2 0x278 JUMP JUMPDEST SUB PUSH2 0xEC JUMPI PUSH0 SWAP1 POP PUSH2 0x139 JUMP JUMPDEST PUSH0 PUSH1 0x3 SWAP1 POP JUMPDEST DUP3 DUP2 DUP3 PUSH2 0xFF SWAP2 SWAP1 PUSH2 0x2D5 JUMP JUMPDEST GT PUSH2 0x133 JUMPI PUSH0 DUP2 DUP5 PUSH2 0x111 SWAP2 SWAP1 PUSH2 0x278 JUMP JUMPDEST SUB PUSH2 0x11F JUMPI PUSH0 SWAP2 POP POP PUSH2 0x139 JUMP JUMPDEST PUSH1 0x2 DUP2 PUSH2 0x12C SWAP2 SWAP1 PUSH2 0x316 JUMP JUMPDEST SWAP1 POP PUSH2 0xF2 JUMP JUMPDEST POP PUSH1 0x1 SWAP1 POP JUMPDEST SWAP2 SWAP1 POP JUMP JUMPDEST PUSH0 DUP1 REVERT JUMPDEST PUSH0 DUP2 SWAP1 POP SWAP2 SWAP1 POP JUMP JUMPDEST PUSH2 0x154 DUP2 PUSH2 0x142 JUMP JUMPDEST DUP2 EQ PUSH2 0x15E JUMPI PUSH0 DUP1 REVERT JUMPDEST POP JUMP JUMPDEST PUSH0 DUP2 CALLDATALOAD SWAP1 POP PUSH2 0x16F DUP2 PUSH2 0x14B JUMP JUMPDEST SWAP3 SWAP2 POP POP JUMP JUMPDEST PUSH0 PUSH1 0x20 DUP3 DUP5 SUB SLT ISZERO PUSH2 0x18A JUMPI PUSH2 0x189 PUSH2 0x13E JUMP JUMPDEST JUMPDEST PUSH0 PUSH2 0x197 DUP5 DUP3 DUP6 ADD PUSH2 0x161 JUMP JUMPDEST SWAP2 POP POP SWAP3 SWAP2 POP POP JUMP JUMPDEST PUSH0 DUP2 ISZERO ISZERO SWAP1 POP SWAP2 SWAP1 POP JUMP JUMPDEST PUSH2 0x1B4 DUP2 PUSH2 0x1A0 JUMP JUMPDEST DUP3 MSTORE POP POP JUMP JUMPDEST PUSH0 PUSH1 0x20 DUP3 ADD SWAP1 POP PUSH2 0x1CD PUSH0 DUP4 ADD DUP5 PUSH2 0x1AB JUMP JUMPDEST SWAP3 SWAP2 POP POP JUMP JUMPDEST PUSH0 DUP3 DUP3 MSTORE PUSH1 0x20 DUP3 ADD SWAP1 POP SWAP3 SWAP2 POP POP JUMP JUMPDEST PUSH32 0x5570732120526576657274696E67000000000000000000000000000000000000 PUSH0 DUP3 ADD MSTORE POP JUMP JUMPDEST PUSH0 PUSH2 0x217 PUSH1 0xE DUP4 PUSH2 0x1D3 JUMP JUMPDEST SWAP2 POP PUSH2 0x222 DUP3 PUSH2 0x1E3 JUMP JUMPDEST PUSH1 0x20 DUP3 ADD SWAP1 POP SWAP2 SWAP1 POP JUMP JUMPDEST PUSH0 PUSH1 0x20 DUP3 ADD SWAP1 POP DUP2 DUP2 SUB PUSH0 DUP4 ADD MSTORE PUSH2 0x244 DUP2 PUSH2 0x20B JUMP JUMPDEST SWAP1 POP SWAP2 SWAP1 POP JUMP JUMPDEST PUSH32 0x4E487B7100000000000000000000000000000000000000000000000000000000 PUSH0 MSTORE PUSH1 0x12 PUSH1 0x4 MSTORE PUSH1 0x24 PUSH0 REVERT JUMPDEST PUSH0 PUSH2 0x282 DUP3 PUSH2 0x142 JUMP JUMPDEST SWAP2 POP PUSH2 0x28D DUP4 PUSH2 0x142 JUMP JUMPDEST SWAP3 POP DUP3 PUSH2 0x29D JUMPI PUSH2 0x29C PUSH2 0x24B JUMP JUMPDEST JUMPDEST DUP3 DUP3 MOD SWAP1 POP SWAP3 SWAP2 POP POP JUMP JUMPDEST PUSH32 0x4E487B7100000000000000000000000000000000000000000000000000000000 PUSH0 MSTORE PUSH1 0x11 PUSH1 0x4 MSTORE PUSH1 0x24 PUSH0 REVERT JUMPDEST PUSH0 PUSH2 0x2DF DUP3 PUSH2 0x142 JUMP JUMPDEST SWAP2 POP PUSH2 0x2EA DUP4 PUSH2 0x142 JUMP JUMPDEST SWAP3 POP DUP3 DUP3 MUL PUSH2 0x2F8 DUP2 PUSH2 0x142 JUMP JUMPDEST SWAP2 POP DUP3 DUP3 DIV DUP5 EQ DUP4 ISZERO OR PUSH2 0x30F JUMPI PUSH2 0x30E PUSH2 0x2A8 JUMP JUMPDEST JUMPDEST POP SWAP3 SWAP2 POP POP JUMP JUMPDEST PUSH0 PUSH2 0x320 DUP3 PUSH2 0x142 JUMP JUMPDEST SWAP2 POP PUSH2 0x32B DUP4 PUSH2 0x142 JUMP JUMPDEST SWAP3 POP DUP3 DUP3 ADD SWAP1 POP DUP1 DUP3 GT ISZERO PUSH2 0x343 JUMPI PUSH2 0x342 PUSH2 0x2A8 JUMP JUMPDEST JUMPDEST SWAP3 SWAP2 POP POP JUMP INVALID LOG2 PUSH5 0x6970667358 0x22 SLT KECCAK256 0xCC STOP DUP3 0xD6 SMOD SWAP1 0xC8 RETURNDATASIZE SUB COINBASE 0xF8 0xFB 0xD2 0xA6 0xC 0xEA PUSH6 0x7859BD6DEF03 MUL LOG1 SWAP3 0xE2 SSTORE SWAP16 0xC6 0xE2 0xCA PUSH5 0x736F6C6343 STOP ADDMOD EQ STOP CALLER "
				},
				"gasEstimates": {
					"creation": {
						"codeDepositCost": "626400",
						"executionCost": "infinite",
						"totalCost": "infinite"
					},
					"external": {
						"execute(uint256)": "infinite",
						"executeNew(uint256)": "infinite"
					}
				},
				"methodIdentifiers": {
					"execute(uint256)": "fe0d94c1",
					"executeNew(uint256)": "60ebc172"
				}
			},
			"storageLayout": {
				"storage": [
					{
						"astId": 110,
						"contract": "TryCatch.sol:TryCatch",
						"label": "even",
						"offset": 0,
						"slot": "0",
						"type": "t_contract(PrimeChecker)97"
					}
				],
				"types": {
					"t_contract(PrimeChecker)97": {
						"encoding": "inplace",
						"label": "contract PrimeChecker",
						"numberOfBytes": "20"
					}
				}
			},
			"userdoc": {
				"kind": "user",
				"methods": {},
				"version": 1
			}
		}
	}
}