{
	"data": {
		"bytecode": {
			"linkReferences": {},
			"object": "608060405234801561000f575f80fd5b5061025d8061001d5f395ff3fe608060405234801561000f575f80fd5b5060043610610029575f3560e01c8063165c4a161461002d575b5f80fd5b610047600480360381019061004291906100c9565b61005d565b6040516100549190610116565b60405180910390f35b5f80828461006b919061015c565b905082848261007a91906101ca565b14610088576100876101fa565b5b8091505092915050565b5f80fd5b5f819050919050565b6100a881610096565b81146100b2575f80fd5b50565b5f813590506100c38161009f565b92915050565b5f80604083850312156100df576100de610092565b5b5f6100ec858286016100b5565b92505060206100fd858286016100b5565b9150509250929050565b61011081610096565b82525050565b5f6020820190506101295f830184610107565b92915050565b7f4e487b71000000000000000000000000000000000000000000000000000000005f52601160045260245ffd5b5f61016682610096565b915061017183610096565b925082820261017f81610096565b915082820484148315176101965761019561012f565b5b5092915050565b7f4e487b71000000000000000000000000000000000000000000000000000000005f52601260045260245ffd5b5f6101d482610096565b91506101df83610096565b9250826101ef576101ee61019d565b5b828204905092915050565b7f4e487b71000000000000000000000000000000000000000000000000000000005f52600160045260245ffdfea264697066735822122036f835f68dca00ff6cd57ece7e27a3f6d98b3186a659cf6ab4745b5bbab2ce7864736f6c63430008140033",
			"opcodes": "PUSH1 0x80 PUSH1 0x40 MSTORE CALLVALUE DUP1 ISZERO PUSH2 0xF JUMPI PUSH0 DUP1 REVERT JUMPDEST POP PUSH2 0x25D DUP1 PUSH2 0x1D PUSH0 CODECOPY PUSH0 RETURN INVALID PUSH1 0x80 PUSH1 0x40 MSTORE CALLVALUE DUP1 ISZERO PUSH2 0xF JUMPI PUSH0 DUP1 REVERT JUMPDEST POP PUSH1 0x4 CALLDATASIZE LT PUSH2 0x29 JUMPI PUSH0 CALLDATALOAD PUSH1 0xE0 SHR DUP1 PUSH4 0x165C4A16 EQ PUSH2 0x2D JUMPI JUMPDEST PUSH0 DUP1 REVERT JUMPDEST PUSH2 0x47 PUSH1 0x4 DUP1 CALLDATASIZE SUB DUP2 ADD SWAP1 PUSH2 0x42 SWAP2 SWAP1 PUSH2 0xC9 JUMP JUMPDEST PUSH2 0x5D JUMP JUMPDEST PUSH1 0x40 MLOAD PUSH2 0x54 SWAP2 SWAP1 PUSH2 0x116 JUMP JUMPDEST PUSH1 0x40 MLOAD DUP1 SWAP2 SUB SWAP1 RETURN JUMPDEST PUSH0 DUP1 DUP3 DUP5 PUSH2 0x6B SWAP2 SWAP1 PUSH2 0x15C JUMP JUMPDEST SWAP1 POP DUP3 DUP5 DUP3 PUSH2 0x7A SWAP2 SWAP1 PUSH2 0x1CA JUMP JUMPDEST EQ PUSH2 0x88 JUMPI PUSH2 0x87 PUSH2 0x1FA JUMP JUMPDEST JUMPDEST DUP1 SWAP2 POP POP SWAP3 SWAP2 POP POP JUMP JUMPDEST PUSH0 DUP1 REVERT JUMPDEST PUSH0 DUP2 SWAP1 POP SWAP2 SWAP1 POP JUMP JUMPDEST PUSH2 0xA8 DUP2 PUSH2 0x96 JUMP JUMPDEST DUP2 EQ PUSH2 0xB2 JUMPI PUSH0 DUP1 REVERT JUMPDEST POP JUMP JUMPDEST PUSH0 DUP2 CALLDATALOAD SWAP1 POP PUSH2 0xC3 DUP2 PUSH2 0x9F JUMP JUMPDEST SWAP3 SWAP2 POP POP JUMP JUMPDEST PUSH0 DUP1 PUSH1 0x40 DUP4 DUP6 SUB SLT ISZERO PUSH2 0xDF JUMPI PUSH2 0xDE PUSH2 0x92 JUMP JUMPDEST JUMPDEST PUSH0 PUSH2 0xEC DUP6 DUP3 DUP7 ADD PUSH2 0xB5 JUMP JUMPDEST SWAP3 POP POP PUSH1 0x20 PUSH2 0xFD DUP6 DUP3 DUP7 ADD PUSH2 0xB5 JUMP JUMPDEST SWAP2 POP POP SWAP3 POP SWAP3 SWAP1 POP JUMP JUMPDEST PUSH2 0x110 DUP2 PUSH2 0x96 JUMP JUMPDEST DUP3 MSTORE POP POP JUMP JUMPDEST PUSH0 PUSH1 0x20 DUP3 ADD SWAP1 POP PUSH2 0x129 PUSH0 DUP4 ADD DUP5 PUSH2 0x107 JUMP JUMPDEST SWAP3 SWAP2 POP POP JUMP JUMPDEST PUSH32 0x4E487B7100000000000000000000000000000000000000000000000000000000 PUSH0 MSTORE PUSH1 0x11 PUSH1 0x4 MSTORE PUSH1 0x24 PUSH0 REVERT JUMPDEST PUSH0 PUSH2 0x166 DUP3 PUSH2 0x96 JUMP JUMPDEST SWAP2 POP PUSH2 0x171 DUP4 PUSH2 0x96 JUMP JUMPDEST SWAP3 POP DUP3 DUP3 MUL PUSH2 0x17F DUP2 PUSH2 0x96 JUMP JUMPDEST SWAP2 POP DUP3 DUP3 DIV DUP5 EQ DUP4 ISZERO OR PUSH2 0x196 JUMPI PUSH2 0x195 PUSH2 0x12F JUMP JUMPDEST JUMPDEST POP SWAP3 SWAP2 POP POP JUMP JUMPDEST PUSH32 0x4E487B7100000000000000000000000000000000000000000000000000000000 PUSH0 MSTORE PUSH1 0x12 PUSH1 0x4 MSTORE PUSH1 0x24 PUSH0 REVERT JUMPDEST PUSH0 PUSH2 0x1D4 DUP3 PUSH2 0x96 JUMP JUMPDEST SWAP2 POP PUSH2 0x1DF DUP4 PUSH2 0x96 JUMP JUMPDEST SWAP3 POP DUP3 PUSH2 0x1EF JUMPI PUSH2 0x1EE PUSH2 0x19D JUMP JUMPDEST JUMPDEST DUP3 DUP3 DIV SWAP1 POP SWAP3 SWAP2 POP POP JUMP JUMPDEST PUSH32 0x4E487B7100000000000000000000000000000000000000000000000000000000 PUSH0 MSTORE PUSH1 0x1 PUSH1 0x4 MSTORE PUSH1 0x24 PUSH0 REVERT INVALID LOG2 PUSH5 0x6970667358 0x22 SLT KECCAK256 CALLDATASIZE 0xF8 CALLDATALOAD 0xF6 DUP14 0xCA STOP SELFDESTRUCT PUSH13 0xD57ECE7E27A3F6D98B3186A659 0xCF PUSH11 0xB4745B5BBAB2CE7864736F PUSH13 0x63430008140033000000000000 "
		},
		"gasEstimates": {
			"creation": {
				"codeDepositCost": "121000",
				"executionCost": "163",
				"totalCost": "121163"
			},
			"external": {
				"multiply(uint256,uint256)": "infinite"
			}
		},
		"methodIdentifiers": {
			"multiply(uint256,uint256)": "165c4a16"
		}
	},
	"abi": [
		{
			"inputs": [
				{
					"internalType": "uint256",
					"name": "a",
					"type": "uint256"
				},
				{
					"internalType": "uint256",
					"name": "b",
					"type": "uint256"
				}
			],
			"name": "multiply",
			"outputs": [
				{
					"internalType": "uint256",
					"name": "",
					"type": "uint256"
				}
			],
			"stateMutability": "pure",
			"type": "function"
		}
	]
}