{
	"data": {
		"bytecode": {
			"linkReferences": {},
			"object": "608060405234801561000f575f80fd5b506103048061001d5f395ff3fe608060405234801561000f575f80fd5b5060043610610029575f3560e01c806311ae15791461002d575b5f80fd5b610047600480360381019061004291906101d1565b61005e565b6040516100559291906102a0565b60405180910390f35b5f606060508310158015610073575060648311155b61015857603c83101580156100885750605083105b61011a576028831015801561009d5750603c83105b6100dd575f6040518060400160405280601581526020017f426574746572204c75636b204e6578742054696d650000000000000000000000815250610115565b5f6040518060400160405280601181526020017f41636869657665642047616465203a20430000000000000000000000000000008152505b610153565b60016040518060400160405280601181526020017f41636869657665642047616465203a20420000000000000000000000000000008152505b610191565b60016040518060400160405280601181526020017f41636869657665642047616465203a20410000000000000000000000000000008152505b91509150915091565b5f80fd5b5f819050919050565b6101b08161019e565b81146101ba575f80fd5b50565b5f813590506101cb816101a7565b92915050565b5f602082840312156101e6576101e561019a565b5b5f6101f3848285016101bd565b91505092915050565b5f8115159050919050565b610210816101fc565b82525050565b5f81519050919050565b5f82825260208201905092915050565b5f5b8381101561024d578082015181840152602081019050610232565b5f8484015250505050565b5f601f19601f8301169050919050565b5f61027282610216565b61027c8185610220565b935061028c818560208601610230565b61029581610258565b840191505092915050565b5f6040820190506102b35f830185610207565b81810360208301526102c58184610268565b9050939250505056fea264697066735822122039cd1af63f0e02c23e63bedb54f256624261c279f2faaa1b7aef48bee397473564736f6c63430008140033",
			"opcodes": "PUSH1 0x80 PUSH1 0x40 MSTORE CALLVALUE DUP1 ISZERO PUSH2 0xF JUMPI PUSH0 DUP1 REVERT JUMPDEST POP PUSH2 0x304 DUP1 PUSH2 0x1D PUSH0 CODECOPY PUSH0 RETURN INVALID PUSH1 0x80 PUSH1 0x40 MSTORE CALLVALUE DUP1 ISZERO PUSH2 0xF JUMPI PUSH0 DUP1 REVERT JUMPDEST POP PUSH1 0x4 CALLDATASIZE LT PUSH2 0x29 JUMPI PUSH0 CALLDATALOAD PUSH1 0xE0 SHR DUP1 PUSH4 0x11AE1579 EQ PUSH2 0x2D JUMPI JUMPDEST PUSH0 DUP1 REVERT JUMPDEST PUSH2 0x47 PUSH1 0x4 DUP1 CALLDATASIZE SUB DUP2 ADD SWAP1 PUSH2 0x42 SWAP2 SWAP1 PUSH2 0x1D1 JUMP JUMPDEST PUSH2 0x5E JUMP JUMPDEST PUSH1 0x40 MLOAD PUSH2 0x55 SWAP3 SWAP2 SWAP1 PUSH2 0x2A0 JUMP JUMPDEST PUSH1 0x40 MLOAD DUP1 SWAP2 SUB SWAP1 RETURN JUMPDEST PUSH0 PUSH1 0x60 PUSH1 0x50 DUP4 LT ISZERO DUP1 ISZERO PUSH2 0x73 JUMPI POP PUSH1 0x64 DUP4 GT ISZERO JUMPDEST PUSH2 0x158 JUMPI PUSH1 0x3C DUP4 LT ISZERO DUP1 ISZERO PUSH2 0x88 JUMPI POP PUSH1 0x50 DUP4 LT JUMPDEST PUSH2 0x11A JUMPI PUSH1 0x28 DUP4 LT ISZERO DUP1 ISZERO PUSH2 0x9D JUMPI POP PUSH1 0x3C DUP4 LT JUMPDEST PUSH2 0xDD JUMPI PUSH0 PUSH1 0x40 MLOAD DUP1 PUSH1 0x40 ADD PUSH1 0x40 MSTORE DUP1 PUSH1 0x15 DUP2 MSTORE PUSH1 0x20 ADD PUSH32 0x426574746572204C75636B204E6578742054696D650000000000000000000000 DUP2 MSTORE POP PUSH2 0x115 JUMP JUMPDEST PUSH0 PUSH1 0x40 MLOAD DUP1 PUSH1 0x40 ADD PUSH1 0x40 MSTORE DUP1 PUSH1 0x11 DUP2 MSTORE PUSH1 0x20 ADD PUSH32 0x41636869657665642047616465203A2043000000000000000000000000000000 DUP2 MSTORE POP JUMPDEST PUSH2 0x153 JUMP JUMPDEST PUSH1 0x1 PUSH1 0x40 MLOAD DUP1 PUSH1 0x40 ADD PUSH1 0x40 MSTORE DUP1 PUSH1 0x11 DUP2 MSTORE PUSH1 0x20 ADD PUSH32 0x41636869657665642047616465203A2042000000000000000000000000000000 DUP2 MSTORE POP JUMPDEST PUSH2 0x191 JUMP JUMPDEST PUSH1 0x1 PUSH1 0x40 MLOAD DUP1 PUSH1 0x40 ADD PUSH1 0x40 MSTORE DUP1 PUSH1 0x11 DUP2 MSTORE PUSH1 0x20 ADD PUSH32 0x41636869657665642047616465203A2041000000000000000000000000000000 DUP2 MSTORE POP JUMPDEST SWAP2 POP SWAP2 POP SWAP2 POP SWAP2 JUMP JUMPDEST PUSH0 DUP1 REVERT JUMPDEST PUSH0 DUP2 SWAP1 POP SWAP2 SWAP1 POP JUMP JUMPDEST PUSH2 0x1B0 DUP2 PUSH2 0x19E JUMP JUMPDEST DUP2 EQ PUSH2 0x1BA JUMPI PUSH0 DUP1 REVERT JUMPDEST POP JUMP JUMPDEST PUSH0 DUP2 CALLDATALOAD SWAP1 POP PUSH2 0x1CB DUP2 PUSH2 0x1A7 JUMP JUMPDEST SWAP3 SWAP2 POP POP JUMP JUMPDEST PUSH0 PUSH1 0x20 DUP3 DUP5 SUB SLT ISZERO PUSH2 0x1E6 JUMPI PUSH2 0x1E5 PUSH2 0x19A JUMP JUMPDEST JUMPDEST PUSH0 PUSH2 0x1F3 DUP5 DUP3 DUP6 ADD PUSH2 0x1BD JUMP JUMPDEST SWAP2 POP POP SWAP3 SWAP2 POP POP JUMP JUMPDEST PUSH0 DUP2 ISZERO ISZERO SWAP1 POP SWAP2 SWAP1 POP JUMP JUMPDEST PUSH2 0x210 DUP2 PUSH2 0x1FC JUMP JUMPDEST DUP3 MSTORE POP POP JUMP JUMPDEST PUSH0 DUP2 MLOAD SWAP1 POP SWAP2 SWAP1 POP JUMP JUMPDEST PUSH0 DUP3 DUP3 MSTORE PUSH1 0x20 DUP3 ADD SWAP1 POP SWAP3 SWAP2 POP POP JUMP JUMPDEST PUSH0 JUMPDEST DUP4 DUP2 LT ISZERO PUSH2 0x24D JUMPI DUP1 DUP3 ADD MLOAD DUP2 DUP5 ADD MSTORE PUSH1 0x20 DUP2 ADD SWAP1 POP PUSH2 0x232 JUMP JUMPDEST PUSH0 DUP5 DUP5 ADD MSTORE POP POP POP POP JUMP JUMPDEST PUSH0 PUSH1 0x1F NOT PUSH1 0x1F DUP4 ADD AND SWAP1 POP SWAP2 SWAP1 POP JUMP JUMPDEST PUSH0 PUSH2 0x272 DUP3 PUSH2 0x216 JUMP JUMPDEST PUSH2 0x27C DUP2 DUP6 PUSH2 0x220 JUMP JUMPDEST SWAP4 POP PUSH2 0x28C DUP2 DUP6 PUSH1 0x20 DUP7 ADD PUSH2 0x230 JUMP JUMPDEST PUSH2 0x295 DUP2 PUSH2 0x258 JUMP JUMPDEST DUP5 ADD SWAP2 POP POP SWAP3 SWAP2 POP POP JUMP JUMPDEST PUSH0 PUSH1 0x40 DUP3 ADD SWAP1 POP PUSH2 0x2B3 PUSH0 DUP4 ADD DUP6 PUSH2 0x207 JUMP JUMPDEST DUP2 DUP2 SUB PUSH1 0x20 DUP4 ADD MSTORE PUSH2 0x2C5 DUP2 DUP5 PUSH2 0x268 JUMP JUMPDEST SWAP1 POP SWAP4 SWAP3 POP POP POP JUMP INVALID LOG2 PUSH5 0x6970667358 0x22 SLT KECCAK256 CODECOPY 0xCD BYTE 0xF6 EXTCODEHASH 0xE MUL 0xC2 RETURNDATACOPY PUSH4 0xBEDB54F2 JUMP PUSH3 0x4261C2 PUSH26 0xF2FAAA1B7AEF48BEE397473564736F6C63430008140033000000 "
		},
		"gasEstimates": {
			"creation": {
				"codeDepositCost": "154400",
				"executionCost": "200",
				"totalCost": "154600"
			},
			"external": {
				"grade(uint256)": "infinite"
			}
		},
		"methodIdentifiers": {
			"grade(uint256)": "11ae1579"
		}
	},
	"abi": [
		{
			"inputs": [
				{
					"internalType": "uint256",
					"name": "score",
					"type": "uint256"
				}
			],
			"name": "grade",
			"outputs": [
				{
					"internalType": "bool",
					"name": "",
					"type": "bool"
				},
				{
					"internalType": "string",
					"name": "",
					"type": "string"
				}
			],
			"stateMutability": "pure",
			"type": "function"
		}
	]
}