{
	"data": {
		"bytecode": {
			"linkReferences": {},
			"object": "608060405234801561000f575f80fd5b506104c38061001d5f395ff3fe608060405234801561000f575f80fd5b5060043610610029575f3560e01c8063f79067c01461002d575b5f80fd5b61004760048036038101906100429190610161565b61005f565b604051610056939291906101ae565b60405180910390f35b5f805f61007584866100a890919063ffffffff16565b925061008a84866100bd90919063ffffffff16565b915061009f848661011590919063ffffffff16565b90509250925092565b5f81836100b59190610210565b905092915050565b5f82821115610101576040517f08c379a00000000000000000000000000000000000000000000000000000000081526004016100f8906102c3565b60405180910390fd5b818361010d91906102e1565b905092915050565b5f81836101229190610443565b905092915050565b5f80fd5b5f819050919050565b6101408161012e565b811461014a575f80fd5b50565b5f8135905061015b81610137565b92915050565b5f80604083850312156101775761017661012a565b5b5f6101848582860161014d565b92505060206101958582860161014d565b9150509250929050565b6101a88161012e565b82525050565b5f6060820190506101c15f83018661019f565b6101ce602083018561019f565b6101db604083018461019f565b949350505050565b7f4e487b71000000000000000000000000000000000000000000000000000000005f52601160045260245ffd5b5f61021a8261012e565b91506102258361012e565b925082820190508082111561023d5761023c6101e3565b5b92915050565b5f82825260208201905092915050565b7f5375627472616374696f6e20726573756c7420776f756c64206265206e6567615f8201527f7469766500000000000000000000000000000000000000000000000000000000602082015250565b5f6102ad602483610243565b91506102b882610253565b604082019050919050565b5f6020820190508181035f8301526102da816102a1565b9050919050565b5f6102eb8261012e565b91506102f68361012e565b925082820390508181111561030e5761030d6101e3565b5b92915050565b5f8160011c9050919050565b5f808291508390505b600185111561036957808604811115610345576103446101e3565b5b60018516156103545780820291505b808102905061036285610314565b9450610329565b94509492505050565b5f82610381576001905061043c565b8161038e575f905061043c565b81600181146103a457600281146103ae576103dd565b600191505061043c565b60ff8411156103c0576103bf6101e3565b5b8360020a9150848211156103d7576103d66101e3565b5b5061043c565b5060208310610133831016604e8410600b84101617156104125782820a90508381111561040d5761040c6101e3565b5b61043c565b61041f8484846001610320565b92509050818404811115610436576104356101e3565b5b81810290505b9392505050565b5f61044d8261012e565b91506104588361012e565b92506104857fffffffffffffffffffffffffffffffffffffffffffffffffffffffffffffffff8484610372565b90509291505056fea264697066735822122045bb3434d584d953bdc0c433b7f9887aaa7370ecbbd409c44acb5d49de93eef364736f6c63430008140033",
			"opcodes": "PUSH1 0x80 PUSH1 0x40 MSTORE CALLVALUE DUP1 ISZERO PUSH2 0xF JUMPI PUSH0 DUP1 REVERT JUMPDEST POP PUSH2 0x4C3 DUP1 PUSH2 0x1D PUSH0 CODECOPY PUSH0 RETURN INVALID PUSH1 0x80 PUSH1 0x40 MSTORE CALLVALUE DUP1 ISZERO PUSH2 0xF JUMPI PUSH0 DUP1 REVERT JUMPDEST POP PUSH1 0x4 CALLDATASIZE LT PUSH2 0x29 JUMPI PUSH0 CALLDATALOAD PUSH1 0xE0 SHR DUP1 PUSH4 0xF79067C0 EQ PUSH2 0x2D JUMPI JUMPDEST PUSH0 DUP1 REVERT JUMPDEST PUSH2 0x47 PUSH1 0x4 DUP1 CALLDATASIZE SUB DUP2 ADD SWAP1 PUSH2 0x42 SWAP2 SWAP1 PUSH2 0x161 JUMP JUMPDEST PUSH2 0x5F JUMP JUMPDEST PUSH1 0x40 MLOAD PUSH2 0x56 SWAP4 SWAP3 SWAP2 SWAP1 PUSH2 0x1AE JUMP JUMPDEST PUSH1 0x40 MLOAD DUP1 SWAP2 SUB SWAP1 RETURN JUMPDEST PUSH0 DUP1 PUSH0 PUSH2 0x75 DUP5 DUP7 PUSH2 0xA8 SWAP1 SWAP2 SWAP1 PUSH4 0xFFFFFFFF AND JUMP JUMPDEST SWAP3 POP PUSH2 0x8A DUP5 DUP7 PUSH2 0xBD SWAP1 SWAP2 SWAP1 PUSH4 0xFFFFFFFF AND JUMP JUMPDEST SWAP2 POP PUSH2 0x9F DUP5 DUP7 PUSH2 0x115 SWAP1 SWAP2 SWAP1 PUSH4 0xFFFFFFFF AND JUMP JUMPDEST SWAP1 POP SWAP3 POP SWAP3 POP SWAP3 JUMP JUMPDEST PUSH0 DUP2 DUP4 PUSH2 0xB5 SWAP2 SWAP1 PUSH2 0x210 JUMP JUMPDEST SWAP1 POP SWAP3 SWAP2 POP POP JUMP JUMPDEST PUSH0 DUP3 DUP3 GT ISZERO PUSH2 0x101 JUMPI PUSH1 0x40 MLOAD PUSH32 0x8C379A000000000000000000000000000000000000000000000000000000000 DUP2 MSTORE PUSH1 0x4 ADD PUSH2 0xF8 SWAP1 PUSH2 0x2C3 JUMP JUMPDEST PUSH1 0x40 MLOAD DUP1 SWAP2 SUB SWAP1 REVERT JUMPDEST DUP2 DUP4 PUSH2 0x10D SWAP2 SWAP1 PUSH2 0x2E1 JUMP JUMPDEST SWAP1 POP SWAP3 SWAP2 POP POP JUMP JUMPDEST PUSH0 DUP2 DUP4 PUSH2 0x122 SWAP2 SWAP1 PUSH2 0x443 JUMP JUMPDEST SWAP1 POP SWAP3 SWAP2 POP POP JUMP JUMPDEST PUSH0 DUP1 REVERT JUMPDEST PUSH0 DUP2 SWAP1 POP SWAP2 SWAP1 POP JUMP JUMPDEST PUSH2 0x140 DUP2 PUSH2 0x12E JUMP JUMPDEST DUP2 EQ PUSH2 0x14A JUMPI PUSH0 DUP1 REVERT JUMPDEST POP JUMP JUMPDEST PUSH0 DUP2 CALLDATALOAD SWAP1 POP PUSH2 0x15B DUP2 PUSH2 0x137 JUMP JUMPDEST SWAP3 SWAP2 POP POP JUMP JUMPDEST PUSH0 DUP1 PUSH1 0x40 DUP4 DUP6 SUB SLT ISZERO PUSH2 0x177 JUMPI PUSH2 0x176 PUSH2 0x12A JUMP JUMPDEST JUMPDEST PUSH0 PUSH2 0x184 DUP6 DUP3 DUP7 ADD PUSH2 0x14D JUMP JUMPDEST SWAP3 POP POP PUSH1 0x20 PUSH2 0x195 DUP6 DUP3 DUP7 ADD PUSH2 0x14D JUMP JUMPDEST SWAP2 POP POP SWAP3 POP SWAP3 SWAP1 POP JUMP JUMPDEST PUSH2 0x1A8 DUP2 PUSH2 0x12E JUMP JUMPDEST DUP3 MSTORE POP POP JUMP JUMPDEST PUSH0 PUSH1 0x60 DUP3 ADD SWAP1 POP PUSH2 0x1C1 PUSH0 DUP4 ADD DUP7 PUSH2 0x19F JUMP JUMPDEST PUSH2 0x1CE PUSH1 0x20 DUP4 ADD DUP6 PUSH2 0x19F JUMP JUMPDEST PUSH2 0x1DB PUSH1 0x40 DUP4 ADD DUP5 PUSH2 0x19F JUMP JUMPDEST SWAP5 SWAP4 POP POP POP POP JUMP JUMPDEST PUSH32 0x4E487B7100000000000000000000000000000000000000000000000000000000 PUSH0 MSTORE PUSH1 0x11 PUSH1 0x4 MSTORE PUSH1 0x24 PUSH0 REVERT JUMPDEST PUSH0 PUSH2 0x21A DUP3 PUSH2 0x12E JUMP JUMPDEST SWAP2 POP PUSH2 0x225 DUP4 PUSH2 0x12E JUMP JUMPDEST SWAP3 POP DUP3 DUP3 ADD SWAP1 POP DUP1 DUP3 GT ISZERO PUSH2 0x23D JUMPI PUSH2 0x23C PUSH2 0x1E3 JUMP JUMPDEST JUMPDEST SWAP3 SWAP2 POP POP JUMP JUMPDEST PUSH0 DUP3 DUP3 MSTORE PUSH1 0x20 DUP3 ADD SWAP1 POP SWAP3 SWAP2 POP POP JUMP JUMPDEST PUSH32 0x5375627472616374696F6E20726573756C7420776F756C64206265206E656761 PUSH0 DUP3 ADD MSTORE PUSH32 0x7469766500000000000000000000000000000000000000000000000000000000 PUSH1 0x20 DUP3 ADD MSTORE POP JUMP JUMPDEST PUSH0 PUSH2 0x2AD PUSH1 0x24 DUP4 PUSH2 0x243 JUMP JUMPDEST SWAP2 POP PUSH2 0x2B8 DUP3 PUSH2 0x253 JUMP JUMPDEST PUSH1 0x40 DUP3 ADD SWAP1 POP SWAP2 SWAP1 POP JUMP JUMPDEST PUSH0 PUSH1 0x20 DUP3 ADD SWAP1 POP DUP2 DUP2 SUB PUSH0 DUP4 ADD MSTORE PUSH2 0x2DA DUP2 PUSH2 0x2A1 JUMP JUMPDEST SWAP1 POP SWAP2 SWAP1 POP JUMP JUMPDEST PUSH0 PUSH2 0x2EB DUP3 PUSH2 0x12E JUMP JUMPDEST SWAP2 POP PUSH2 0x2F6 DUP4 PUSH2 0x12E JUMP JUMPDEST SWAP3 POP DUP3 DUP3 SUB SWAP1 POP DUP2 DUP2 GT ISZERO PUSH2 0x30E JUMPI PUSH2 0x30D PUSH2 0x1E3 JUMP JUMPDEST JUMPDEST SWAP3 SWAP2 POP POP JUMP JUMPDEST PUSH0 DUP2 PUSH1 0x1 SHR SWAP1 POP SWAP2 SWAP1 POP JUMP JUMPDEST PUSH0 DUP1 DUP3 SWAP2 POP DUP4 SWAP1 POP JUMPDEST PUSH1 0x1 DUP6 GT ISZERO PUSH2 0x369 JUMPI DUP1 DUP7 DIV DUP2 GT ISZERO PUSH2 0x345 JUMPI PUSH2 0x344 PUSH2 0x1E3 JUMP JUMPDEST JUMPDEST PUSH1 0x1 DUP6 AND ISZERO PUSH2 0x354 JUMPI DUP1 DUP3 MUL SWAP2 POP JUMPDEST DUP1 DUP2 MUL SWAP1 POP PUSH2 0x362 DUP6 PUSH2 0x314 JUMP JUMPDEST SWAP5 POP PUSH2 0x329 JUMP JUMPDEST SWAP5 POP SWAP5 SWAP3 POP POP POP JUMP JUMPDEST PUSH0 DUP3 PUSH2 0x381 JUMPI PUSH1 0x1 SWAP1 POP PUSH2 0x43C JUMP JUMPDEST DUP2 PUSH2 0x38E JUMPI PUSH0 SWAP1 POP PUSH2 0x43C JUMP JUMPDEST DUP2 PUSH1 0x1 DUP2 EQ PUSH2 0x3A4 JUMPI PUSH1 0x2 DUP2 EQ PUSH2 0x3AE JUMPI PUSH2 0x3DD JUMP JUMPDEST PUSH1 0x1 SWAP2 POP POP PUSH2 0x43C JUMP JUMPDEST PUSH1 0xFF DUP5 GT ISZERO PUSH2 0x3C0 JUMPI PUSH2 0x3BF PUSH2 0x1E3 JUMP JUMPDEST JUMPDEST DUP4 PUSH1 0x2 EXP SWAP2 POP DUP5 DUP3 GT ISZERO PUSH2 0x3D7 JUMPI PUSH2 0x3D6 PUSH2 0x1E3 JUMP JUMPDEST JUMPDEST POP PUSH2 0x43C JUMP JUMPDEST POP PUSH1 0x20 DUP4 LT PUSH2 0x133 DUP4 LT AND PUSH1 0x4E DUP5 LT PUSH1 0xB DUP5 LT AND OR ISZERO PUSH2 0x412 JUMPI DUP3 DUP3 EXP SWAP1 POP DUP4 DUP2 GT ISZERO PUSH2 0x40D JUMPI PUSH2 0x40C PUSH2 0x1E3 JUMP JUMPDEST JUMPDEST PUSH2 0x43C JUMP JUMPDEST PUSH2 0x41F DUP5 DUP5 DUP5 PUSH1 0x1 PUSH2 0x320 JUMP JUMPDEST SWAP3 POP SWAP1 POP DUP2 DUP5 DIV DUP2 GT ISZERO PUSH2 0x436 JUMPI PUSH2 0x435 PUSH2 0x1E3 JUMP JUMPDEST JUMPDEST DUP2 DUP2 MUL SWAP1 POP JUMPDEST SWAP4 SWAP3 POP POP POP JUMP JUMPDEST PUSH0 PUSH2 0x44D DUP3 PUSH2 0x12E JUMP JUMPDEST SWAP2 POP PUSH2 0x458 DUP4 PUSH2 0x12E JUMP JUMPDEST SWAP3 POP PUSH2 0x485 PUSH32 0xFFFFFFFFFFFFFFFFFFFFFFFFFFFFFFFFFFFFFFFFFFFFFFFFFFFFFFFFFFFFFFFF DUP5 DUP5 PUSH2 0x372 JUMP JUMPDEST SWAP1 POP SWAP3 SWAP2 POP POP JUMP INVALID LOG2 PUSH5 0x6970667358 0x22 SLT KECCAK256 GASLIMIT 0xBB CALLVALUE CALLVALUE 0xD5 DUP5 0xD9 MSTORE8 0xBD 0xC0 0xC4 CALLER 0xB7 0xF9 DUP9 PUSH27 0xAA7370ECBBD409C44ACB5D49DE93EEF364736F6C63430008140033 "
		},
		"gasEstimates": {
			"creation": {
				"codeDepositCost": "243800",
				"executionCost": "285",
				"totalCost": "244085"
			},
			"external": {
				"useMathFunctions(uint256,uint256)": "infinite"
			}
		},
		"methodIdentifiers": {
			"useMathFunctions(uint256,uint256)": "f79067c0"
		}
	},
	"abi": [
		{
			"inputs": [
				{
					"internalType": "uint256",
					"name": "x",
					"type": "uint256"
				},
				{
					"internalType": "uint256",
					"name": "y",
					"type": "uint256"
				}
			],
			"name": "useMathFunctions",
			"outputs": [
				{
					"internalType": "uint256",
					"name": "sum",
					"type": "uint256"
				},
				{
					"internalType": "uint256",
					"name": "difference",
					"type": "uint256"
				},
				{
					"internalType": "uint256",
					"name": "powered",
					"type": "uint256"
				}
			],
			"stateMutability": "pure",
			"type": "function"
		}
	]
}